{
	"data": {
		"bytecode": {
			"linkReferences": {},
			"object": "60806040526001606e5534801561001557600080fd5b50604080518082018252601481527f43424243204c697175696469747920546f6b656e0000000000000000000000006020918201528151808301835260018152603160f81b9082015281517f8b73c3c69bb8fe3d512ecc4cf759cc79239f7b179b0ffacaa9a75d522b39400f818301527f2a43ad024113c76e599e33587099c553bcb32c4aa0e21531d7fcb8411e149a8d818401527fc89efdaa54c0f20c7adf612882df0950f5a951637e0307cdcb4c672f298b8bc660608201524660808201523060a0808301919091528351808303909101815260c090910190925281519101206069556133c9806101096000396000f3fe608060405234801561001057600080fd5b50600436106101cf5760003560e01c8063872c679511610104578063c4d66de8116100a2578063ce2d30dd11610071578063ce2d30dd14610406578063d505accf14610419578063dd62ed3e1461042c578063f2fde38b14610457576101cf565b8063c4d66de8146103cf578063c7343b9f146103e2578063ca149504146103f5578063cd3293de146103fd576101cf565b806395d89b41116100de57806395d89b411461037b578063a9059cbb146103a0578063ba9a7a56146103b3578063c45a0155146103bc576101cf565b8063872c6795146103575780638da5cb5b1461035f5780638f32d59b14610367576101cf565b80633644e5151161017157806370a082311161014b57806370a08231146102e4578063715018a61461030457806374e14eb81461030c5780637ecebe0014610337576101cf565b80633644e515146102b3578063485cc955146102bc5780636ffd3fe8146102d1576101cf565b806318160ddd116101ad57806318160ddd1461025657806323b872dd1461025f57806330adf81f14610272578063313ce56714610299576101cf565b806306fdde03146101d457806309287c6e1461021d578063095ea7b314610233575b600080fd5b6102076040518060400160405280601481526020017321a12121902634b8bab4b234ba3c902a37b5b2b760611b81525081565b60405161021491906130b2565b60405180910390f35b61022561046a565b604051908152602001610214565b610246610241366004612f0e565b610550565b6040519015158152602001610214565b61022560665481565b61024661026d366004612e4c565b610567565b6102257f6e71edae12b1b97f4d1f60370fef10105fa2faae0126114a169c64845d6126c981565b6102a1601281565b60405160ff9091168152602001610214565b61022560695481565b6102cf6102ca366004612efc565b6105e2565b005b6102256102df366004612ddc565b61071f565b6102256102f2366004612ddc565b60676020526000908152604090205481565b6102cf61090d565b606c5461031f906001600160a01b031681565b6040516001600160a01b039091168152602001610214565b610225610345366004612ddc565b606a6020526000908152604090205481565b610225610974565b61031f610a39565b6102466033546001600160a01b0316331490565b6102076040518060400160405280600681526020016510d09090d31560d21b81525081565b6102466103ae366004612f0e565b610a49565b6102256103e881565b606b5461031f906001600160a01b031681565b6102cf6103dd366004612ddc565b610a56565b6102256103f0366004612ddc565b610ada565b610225610d0f565b610225606d5481565b6102cf610414366004612f0e565b61113f565b6102cf610427366004612e8c565b611252565b61022561043a366004612e14565b606860209081526000928352604080842090915290825290205481565b6102cf610465366004612ddc565b611466565b6000606e546001146104975760405162461bcd60e51b815260040161048e906130e5565b60405180910390fd5b6000606e819055606d54606c546040516370a0823160e01b81523060048201529192916001600160a01b03909116906370a082319060240160206040518083038186803b1580156104e757600080fd5b505afa1580156104fb573d6000803e3d6000fd5b505050506040513d601f19601f8201168201806040525081019061051f919061303f565b606d8190559050818110156105415761053881836132c7565b92505050610548565b6000925050505b6001606e5590565b600061055d33848461148f565b5060015b92915050565b6001600160a01b0383166000908152606860209081526040808320338452909152812054600019146105cc576001600160a01b0384166000908152606860209081526040808320338452909152812080548492906105c69084906132c7565b90915550505b6105d78484846114f1565b5060015b9392505050565b600054610100900460ff16806105f75750303b155b80610605575060005460ff16155b6106215760405162461bcd60e51b815260040161048e9061310b565b6000805461ffff19811661010117909155610100900460ff1661064333610a56565b606b80546001600160a01b038481166001600160a01b03199283168117909355606c805491871691909216811790915560405163132bde8b60e11b81526004810191909152306024820152632657bd1690604401600060405180830381600087803b1580156106b157600080fd5b505af11580156106c5573d6000803e3d6000fd5b5050606c546040513093506001600160a01b0390911691507f56cc233b958d731c1b337b8d10cc32eea95e52520f714b1aec577005dbe0647890600090a3600080549115156101000261ff00199092169190911790555050565b6000606e546001146107435760405162461bcd60e51b815260040161048e906130e5565b6000606e819055606d5490610756610d0f565b606c546040516370a0823160e01b81523060048201529192506000916001600160a01b03909116906370a082319060240160206040518083038186803b15801561079f57600080fd5b505afa1580156107b3573d6000803e3d6000fd5b505050506040513d601f19601f820116820180604052508101906107d7919061303f565b905060006107e584836132c7565b60665490915080610810576107fc6103e8836132c7565b955061080b60006103e8611592565b61085d565b600061081c858761161c565b905085811061083b57634e487b7160e01b600052600160045260246000fd5b61084581876132c7565b61084f83856132a8565b6108599190613171565b9650505b600086116108b95760405162461bcd60e51b815260206004820152602360248201527f434242433a20494e53554646494349454e545f4c49515549444954595f4d494e60448201526215115160ea1b606482015260840161048e565b6108c38787611592565b606d83905560405182815233907f0f6798a560793a54c3bcfe86a93cde1e73087d944c0ea20544137d41213968859060200160405180910390a250506001606e5550919392505050565b6109216033546001600160a01b0316331490565b61092a57600080fd5b6033546040516001600160a01b03909116907ff8df31144d9c2f0f6b59d69b8b98abd5459d07f2742c4df920b25aae33c6482090600090a2603380546001600160a01b0319169055565b6000606e546001146109985760405162461bcd60e51b815260040161048e906130e5565b6000606e819055606d54606c546040516370a0823160e01b81523060048201529192916001600160a01b03909116906370a082319060240160206040518083038186803b1580156109e857600080fd5b505afa1580156109fc573d6000803e3d6000fd5b505050506040513d601f19601f82011682018060405250810190610a20919061303f565b606d8190559050818111156105415761053882826132c7565b6033546001600160a01b03165b90565b600061055d3384846114f1565b600054610100900460ff1680610a6b5750303b155b80610a79575060005460ff16155b610a955760405162461bcd60e51b815260040161048e9061310b565b60008054603380546001600160a01b0319166001600160a01b03949094169390931790925561ffff1982166101009283900460ff161515909202919091176001179055565b6000606e54600114610afe5760405162461bcd60e51b815260040161048e906130e5565b6000606e819055610b0d610d0f565b606c546040516370a0823160e01b81523060048201529192506001600160a01b03169060009082906370a082319060240160206040518083038186803b158015610b5657600080fd5b505afa158015610b6a573d6000803e3d6000fd5b505050506040513d601f19601f82011682018060405250810190610b8e919061303f565b306000908152606760205260408120546066549293509190610bb0868561161c565b905081610bbd82866132c7565b610bc790856132a8565b610bd19190613171565b965060008711610c2f5760405162461bcd60e51b815260206004820152602360248201527f434242433a20494e53554646494349454e545f4c49515549444954595f42555260448201526213915160ea1b606482015260840161048e565b610c3930846116d7565b610c4485898961175b565b6040516370a0823160e01b81523060048201526001600160a01b038616906370a082319060240160206040518083038186803b158015610c8357600080fd5b505afa158015610c97573d6000803e3d6000fd5b505050506040513d601f19601f82011682018060405250810190610cbb919061303f565b606d556040518781526001600160a01b0389169033907fdbdf9b8e4b75e75b162d151ec8fc7f0561cabab5fcccfa2600be62223e4300c49060200160405180910390a350506001606e555092949350505050565b606b54606c5460405163c14bb40b60e01b81526001600160a01b039182166004820152600092919091169063c14bb40b9060240160206040518083038186803b158015610d5b57600080fd5b505afa158015610d6f573d6000803e3d6000fd5b505050506040513d601f19601f82011682018060405250810190610d939190613000565b610dea5760405162461bcd60e51b815260206004820152602260248201527f434242433a204e4f545f414c4c4f5745445f534554544c454d454e545f544f4b60448201526122a760f11b606482015260840161048e565b606b54606c546040516373b78cd560e11b81526001600160a01b039182166004820152600092919091169063e76f19aa9060240160006040518083038186803b158015610e3657600080fd5b505afa158015610e4a573d6000803e3d6000fd5b505050506040513d6000823e601f3d908101601f19168201604052610e729190810190612f39565b805190915080610e8757600092505050610a46565b60008060005b8381101561113557848181518110610eb557634e487b7160e01b600052603260045260246000fd5b602002602001015191506000826001600160a01b031663bbb1863a6040518163ffffffff1660e01b815260040160206040518083038186803b158015610efa57600080fd5b505afa158015610f0e573d6000803e3d6000fd5b505050506040513d601f19601f82011682018060405250810190610f329190612df8565b6001600160a01b031663609615286040518163ffffffff1660e01b815260040160206040518083038186803b158015610f6a57600080fd5b505afa158015610f7e573d6000803e3d6000fd5b505050506040513d601f19601f82011682018060405250810190610fa29190612df8565b606c546040516341976e0960e01b81526001600160a01b0391821660048201529116906341976e0990602401604080518083038186803b158015610fe557600080fd5b505afa158015610ff9573d6000803e3d6000fd5b505050506040513d601f19601f8201168201806040525081019061101d9190613057565b509050600081116110705760405162461bcd60e51b815260206004820152601b60248201527f434242433a20494c4c4547414c5f534554544c455f50524943452e0000000000604482015260640161048e565b6000836001600160a01b03166318160ddd6040518163ffffffff1660e01b815260040160206040518083038186803b1580156110ab57600080fd5b505afa1580156110bf573d6000803e3d6000fd5b505050506040513d601f19601f820116820180604052508101906110e3919061303f565b90508015611120576000826110fc86600080600161189e565b61110690846132a8565b6111109190613171565b905061111c8187613159565b9550505b5050808061112d9061330e565b915050610e8d565b5090935050505090565b606e546001146111615760405162461bcd60e51b815260040161048e906130e5565b6000606e55606c5460408051630e9c29d760e31b815290516001600160a01b0390921691829133916374e14eb891600480820192602092909190829003018186803b1580156111af57600080fd5b505afa1580156111c3573d6000803e3d6000fd5b505050506040513d601f19601f820116820180604052508101906111e79190612df8565b6001600160a01b03161461123d5760405162461bcd60e51b815260206004820152601960248201527f434242433a2057524f4e475f534554544c455f544f4b454e2e00000000000000604482015260640161048e565b61124881848461175b565b50506001606e5550565b428410156112975760405162461bcd60e51b8152602060048201526012602482015271155b9a5cddd85c158c8e881156141254915160721b604482015260640161048e565b6069546001600160a01b0388166000908152606a6020526040812080549192917f6e71edae12b1b97f4d1f60370fef10105fa2faae0126114a169c64845d6126c9918b918b918b9190876112ea8361330e565b909155506040805160208101969096526001600160a01b0394851690860152929091166060840152608083015260a082015260c0810187905260e0016040516020818303038152906040528051906020012060405160200161136392919061190160f01b81526002810192909252602282015260420190565b60408051601f198184030181528282528051602091820120600080855291840180845281905260ff88169284019290925260608301869052608083018590529092509060019060a0016020604051602081039080840390855afa1580156113ce573d6000803e3d6000fd5b5050604051601f1901519150506001600160a01b038116158015906114045750886001600160a01b0316816001600160a01b0316145b6114505760405162461bcd60e51b815260206004820152601c60248201527f556e697377617056323a20494e56414c49445f5349474e415455524500000000604482015260640161048e565b61145b89898961148f565b505050505050505050565b61147a6033546001600160a01b0316331490565b61148357600080fd5b61148c8161250c565b50565b6001600160a01b0383811660008181526068602090815260408083209487168084529482529182902085905590518481527f8c5be1e5ebec7d5bd14f71427d1e84f3dd0314c0f7b2291e5b200ac8c7c3b92591015b60405180910390a3505050565b6001600160a01b038316600090815260676020526040812080548392906115199084906132c7565b90915550506001600160a01b03821660009081526067602052604081208054839290611546908490613159565b92505081905550816001600160a01b0316836001600160a01b03167fddf252ad1be2c89b69c2b068fc378daa952ba7f163c4a11628f55a4df523b3ef836040516114e491815260200190565b80606660008282546115a49190613159565b90915550506001600160a01b038216600090815260676020526040812080548392906115d1908490613159565b90915550506040518181526001600160a01b038316906000907fddf252ad1be2c89b69c2b068fc378daa952ba7f163c4a11628f55a4df523b3ef906020015b60405180910390a35050565b6000601461162b8360136132a8565b6116359190613171565b83116116425750816116b1565b61164d8360646132a8565b601461165a8460136132a8565b6116649190613171565b61166e90856132c7565b61167890846132a8565b6116839060046132a8565b61168d9190613171565b601461169a8460136132a8565b6116a49190613171565b6116ae9190613159565b90505b818310806116bd575081155b61056157634e487b7160e01b600052600160045260246000fd5b6001600160a01b038216600090815260676020526040812080548392906116ff9084906132c7565b92505081905550806066600082825461171891906132c7565b90915550506040518181526000906001600160a01b038416907fddf252ad1be2c89b69c2b068fc378daa952ba7f163c4a11628f55a4df523b3ef90602001611610565b604080518082018252601981527f7472616e7366657228616464726573732c75696e74323536290000000000000060209182015281516001600160a01b0385811660248301526044808301869052845180840390910181526064909201845291810180516001600160e01b031663a9059cbb60e01b179052915160009283928716916117e79190613096565b6000604051808303816000865af19150503d8060008114611824576040519150601f19603f3d011682016040523d82523d6000602084013e611829565b606091505b50915091508180156118535750805115806118535750808060200190518101906118539190613000565b6118975760405162461bcd60e51b815260206004820152601560248201527410d09090ce881514905394d1915497d19052531151605a1b604482015260640161048e565b5050505050565b60008315806118ab575082155b6119035760405162461bcd60e51b8152602060048201526024808201527f434242433a204255595f414e445f53454c4c5f41545f5448455f53414d455f5460448201526324a6a29760e11b606482015260840161048e565b61192e6040518060800160405280600081526020016000815260200160008152602001600081525090565b61196e6040518060e00160405280600081526020016000815260200160008152602001600081526020016000815260200160008152602001600081525090565b6040805160c081018252600080825260208201819052918101829052606081018290526080810182905260a0810191909152876001600160a01b031663c45a01556040518163ffffffff1660e01b815260040160206040518083038186803b1580156119d957600080fd5b505afa1580156119ed573d6000803e3d6000fd5b505050506040513d601f19601f82011682018060405250810190611a119190612df8565b6001600160a01b03908116825260408051630e9c29d760e31b81529051918a16916374e14eb891600480820192602092909190829003018186803b158015611a5857600080fd5b505afa158015611a6c573d6000803e3d6000fd5b505050506040513d601f19601f82011682018060405250810190611a909190612df8565b81602001906001600160a01b031690816001600160a01b031681525050876001600160a01b031663d83678ac6040518163ffffffff1660e01b815260040160206040518083038186803b158015611ae657600080fd5b505afa158015611afa573d6000803e3d6000fd5b505050506040513d601f19601f82011682018060405250810190611b1e9190612df8565b81604001906001600160a01b031690816001600160a01b031681525050876001600160a01b0316632c86d98e6040518163ffffffff1660e01b815260040160206040518083038186803b158015611b7457600080fd5b505afa158015611b88573d6000803e3d6000fd5b505050506040513d601f19601f82011682018060405250810190611bac919061307a565b60ff16816060018181525050876001600160a01b0316633c9749466040518163ffffffff1660e01b815260040160206040518083038186803b158015611bf157600080fd5b505afa158015611c05573d6000803e3d6000fd5b505050506040513d601f19601f82011682018060405250810190611c299190613020565b81608001906001811115611c4d57634e487b7160e01b600052602160045260246000fd5b90816001811115611c6e57634e487b7160e01b600052602160045260246000fd5b81525050876001600160a01b031663bbb1863a6040518163ffffffff1660e01b815260040160206040518083038186803b158015611cab57600080fd5b505afa158015611cbf573d6000803e3d6000fd5b505050506040513d601f19601f82011682018060405250810190611ce39190612df8565b6001600160a01b031663609615286040518163ffffffff1660e01b815260040160206040518083038186803b158015611d1b57600080fd5b505afa158015611d2f573d6000803e3d6000fd5b505050506040513d601f19601f82011682018060405250810190611d539190612df8565b8160a001906001600160a01b031690816001600160a01b031681525050876001600160a01b031663ddd6f9626040518163ffffffff1660e01b815260040160206040518083038186803b158015611da957600080fd5b505afa158015611dbd573d6000803e3d6000fd5b505050506040513d601f19601f82011682018060405250810190611de1919061303f565b836000018181525050876001600160a01b03166308a3809d6040518163ffffffff1660e01b815260040160206040518083038186803b158015611e2357600080fd5b505afa158015611e37573d6000803e3d6000fd5b505050506040513d601f19601f82011682018060405250810190611e5b919061303f565b602084015242606084015260a081015160408083015190516341976e0960e01b81526001600160a01b0391821660048201529116906341976e0990602401604080518083038186803b158015611eb057600080fd5b505afa158015611ec4573d6000803e3d6000fd5b505050506040513d601f19601f82011682018060405250810190611ee89190613057565b5060408401819052611f3c5760405162461bcd60e51b815260206004820152601a60248201527f434242433a20494c4c4547414c5f54524144455f50524943452e000000000000604482015260640161048e565b8251611f545760408301518352606083015160208401525b876001600160a01b0316639faa3c916040518163ffffffff1660e01b815260040160206040518083038186803b158015611f8d57600080fd5b505afa158015611fa1573d6000803e3d6000fd5b505050506040513d601f19601f82011682018060405250810190611fc5919061303f565b82600001818152505080600001516001600160a01b03166388e97c3c6040518163ffffffff1660e01b815260040160206040518083038186803b15801561200b57600080fd5b505afa15801561201f573d6000803e3d6000fd5b505050506040513d601f19601f82011682018060405250810190612043919061303f565b82602001818152505080600001516001600160a01b031663cbd17c676040518163ffffffff1660e01b815260040160206040518083038186803b15801561208957600080fd5b505afa15801561209d573d6000803e3d6000fd5b505050506040513d601f19601f820116820180604052508101906120c1919061303f565b60408084019190915260a0820151828201519151634094f10b60e01b81526001600160a01b039283166004820152911690634094f10b9060240160206040518083038186803b15801561211357600080fd5b505afa158015612127573d6000803e3d6000fd5b505050506040513d601f19601f8201168201806040525081019061214b919061303f565b606083015260a0810151604080830151905163d3ea0f8960e01b81526001600160a01b03918216600482015291169063d3ea0f899060240160206040518083038186803b15801561219b57600080fd5b505afa1580156121af573d6000803e3d6000fd5b505050506040513d601f19601f820116820180604052508101906121d3919061303f565b608083015260a08101516040808301519051634189c95d60e01b81526001600160a01b039182166004820152911690634189c95d9060240160206040518083038186803b15801561222357600080fd5b505afa158015612237573d6000803e3d6000fd5b505050506040513d601f19601f8201168201806040525081019061225b919061303f565b60a08381019190915281015160408083015190516384f4b61f60e01b81526001600160a01b0391821660048201529116906384f4b61f9060240160206040518083038186803b1580156122ad57600080fd5b505afa1580156122c1573d6000803e3d6000fd5b505050506040513d601f19601f820116820180604052508101906122e5919061303f565b60c083018190526123385760405162461bcd60e51b815260206004820152601b60248201527f434242433a20494c4c4547414c5f4441494c595f564f4c554d452e0000000000604482015260640161048e565b600087158015612346575086155b156123645761235984838560008a61257b565b945050505050612504565b600061237485848660008b61257b565b90506000856040015184604001516001600160a01b031663313ce5676040518163ffffffff1660e01b815260040160206040518083038186803b1580156123ba57600080fd5b505afa1580156123ce573d6000803e3d6000fd5b505050506040513d601f19601f820116820180604052508101906123f2919061307a565b6123fd90600a6131d7565b85606001518b87602001516001600160a01b031663313ce5676040518163ffffffff1660e01b815260040160206040518083038186803b15801561244057600080fd5b505afa158015612454573d6000803e3d6000fd5b505050506040513d601f19601f82011682018060405250810190612478919061307a565b61248390600a6131d7565b868f670de0b6b3a764000061249891906132a8565b6124a29190613171565b6124b490670de0b6b3a76400006132a8565b6124be9190613171565b6124c89190613159565b6124d291906132a8565b6124dc91906132a8565b6124e69190613171565b90506124f385828a612c89565b92505050612359848385848a61257b565b949350505050565b6001600160a01b03811661251f57600080fd5b6033546040516001600160a01b038084169216907f8be0079c531659141344cd1fd0a4f28419497f9722a3daafe3b4186f6b6457e090600090a3603380546001600160a01b0319166001600160a01b0392909216919091179055565b845160408601516060860151855160009392919084828561259d826001613159565b6125a791906132a8565b6125b19190613171565b9050600083866125c26001836132c7565b6125cc91906132a8565b6125d69190613171565b9050600080828710156125eb578296506125f7565b838711156125f7578396505b60018d60800151600181111561261d57634e487b7160e01b600052602160045260246000fd5b141561291e5760008a600181111561264557634e487b7160e01b600052602160045260246000fd5b141561265c576126558b88613159565b9650612673565b6126668b8861161c565b61267090886132c7565b96505b6000851315612729578661268784826132c7565b61269189876132c7565b61269a88612d30565b6126a491906132a8565b6126ae91906132a8565b6126b89190613171565b6126c4886103e86132a8565b6126ce9190613159565b9150876126db84826132c7565b6126e58a876132c7565b6126ee88612d30565b6126f891906132a8565b61270291906132a8565b61270c9190613171565b612718896103e86132a8565b6127229190613159565b90506127d2565b8661273484826132c7565b61273e89876132c7565b61274788612d30565b61275191906132a8565b61275b91906132a8565b6127659190613171565b612771886103e86132a8565b61277b91906132c7565b91508761278884826132c7565b6127928a876132c7565b61279b88612d30565b6127a591906132a8565b6127af91906132a8565b6127b99190613171565b6127c5896103e86132a8565b6127cf91906132c7565b90505b6301e133808e602001518f606001516127eb91906132c7565b8d608001516127fa91906132a8565b61280a90651cae8c13e000613159565b6128156001896132c7565b6128249064e8d4a510006132a8565b61282e91906132a8565b6128389190613171565b61284890655af3107a4000613159565b8161285384896132a8565b61286590670de0b6b3a76400006132a8565b61286f9190613171565b1161288057655af3107a4000612917565b6301e133808e602001518f6060015161289991906132c7565b8d608001516128a891906132a8565b6128b890651cae8c13e000613159565b6128c36001896132c7565b6128d29064e8d4a510006132a8565b6128dc91906132a8565b6128e69190613171565b816128f184896132a8565b61290390670de0b6b3a76400006132a8565b61290d9190613171565b61291791906132c7565b9850612c78565b60008d60800151600181111561294457634e487b7160e01b600052602160045260246000fd5b1415612c3e5760008a600181111561296c57634e487b7160e01b600052602160045260246000fd5b141561298d5761297c8b8861161c565b61298690886132c7565b965061299a565b6129978b88613159565b96505b6000851315612a9e57651cae8c13e0008e602001518f606001516129be91906132c7565b8d608001516129cd91906132a8565b6129dd906502de41353000613159565b886129e886826132c7565b6129f28b896132c7565b6129fb8a612d30565b612a0591906132a8565b612a0f91906132a8565b612a199190613171565b612a258a6103e86132a8565b612a2f9190613159565b612a3991906132a8565b612a439190613171565b915087612a5084826132c7565b612a5a8a876132c7565b612a6388612d30565b612a6d91906132a8565b612a7791906132a8565b612a819190613171565b612a8d896103e86132a8565b612a979190613159565b9050612b95565b651cae8c13e0008e602001518f60600151612ab991906132c7565b8d60800151612ac891906132a8565b612ad8906502de41353000613159565b88612ae386826132c7565b612aed8b896132c7565b612af68a612d30565b612b0091906132a8565b612b0a91906132a8565b612b149190613171565b612b208a6103e86132a8565b612b2a91906132c7565b612b3491906132a8565b612b3e9190613171565b915087612b4b84826132c7565b612b558a876132c7565b612b5e88612d30565b612b6891906132a8565b612b7291906132a8565b612b7c9190613171565b612b88896103e86132a8565b612b9291906132c7565b90505b80612ba083886132a8565b612bb290670de0b6b3a76400006132a8565b612bbc9190613171565b612bcc90655af3107a4000613159565b612bd7876001613159565b612be990670de0b6b3a76400006132a8565b11612bfa57655af3107a4000612917565b80612c0583886132a8565b612c1790670de0b6b3a76400006132a8565b612c219190613171565b612c2c876001613159565b61290d90670de0b6b3a76400006132a8565b60405162461bcd60e51b815260206004820152600f60248201526e434242433a57524f4e475f5459504560881b604482015260640161048e565b505050505050505095945050505050565b60008080836001811115612cad57634e487b7160e01b600052602160045260246000fd5b1415612cbe57506020840151612cc5565b5060408401515b633b9aca00612cf58660c0015186670de0b6b3a7640000612ce691906132a8565b612cf09190613171565b612d62565b60a0870151612d0490846132a8565b612d0e91906132a8565b612d189190613171565b8560600151612d279190613159565b95945050505050565b6000600160ff1b821415612d4357600080fd5b60008212612d515781612d5a565b612d5a82613329565b90505b919050565b60006003821115612dc35750806000612d7c600283613171565b612d87906001613159565b90505b81811015612dbd57905080600281612da28186613171565b612dac9190613159565b612db69190613171565b9050612d8a565b50612d5d565b8115612d5d57506001919050565b8051612d5d8161336f565b600060208284031215612ded578081fd5b81356105db8161336f565b600060208284031215612e09578081fd5b81516105db8161336f565b60008060408385031215612e26578081fd5b8235612e318161336f565b91506020830135612e418161336f565b809150509250929050565b600080600060608486031215612e60578081fd5b8335612e6b8161336f565b92506020840135612e7b8161336f565b929592945050506040919091013590565b600080600080600080600060e0888a031215612ea6578283fd5b8735612eb18161336f565b96506020880135612ec18161336f565b955060408801359450606088013593506080880135612edf81613384565b9699959850939692959460a0840135945060c09093013592915050565b60008060408385031215612e26578182fd5b60008060408385031215612f20578182fd5b8235612f2b8161336f565b946020939093013593505050565b60006020808385031215612f4b578182fd5b825167ffffffffffffffff80821115612f62578384fd5b818501915085601f830112612f75578384fd5b815181811115612f8757612f87613359565b8060051b604051601f19603f83011681018181108582111715612fac57612fac613359565b604052828152858101935084860182860187018a1015612fca578788fd5b8795505b83861015612ff357612fdf81612dd1565b855260019590950194938601938601612fce565b5098975050505050505050565b600060208284031215613011578081fd5b815180151581146105db578182fd5b600060208284031215613031578081fd5b8151600281106105db578182fd5b600060208284031215613050578081fd5b5051919050565b60008060408385031215613069578182fd5b505080516020909101519092909150565b60006020828403121561308b578081fd5b81516105db81613384565b600082516130a88184602087016132de565b9190910192915050565b60006020825282518060208401526130d18160408501602087016132de565b601f01601f19169190910160400192915050565b6020808252600c908201526b10d09090ce881313d0d2d15160a21b604082015260600190565b6020808252602e908201527f436f6e747261637420696e7374616e63652068617320616c726561647920626560408201526d195b881a5b9a5d1a585b1a5e995960921b606082015260800190565b6000821982111561316c5761316c613343565b500190565b60008261318c57634e487b7160e01b81526012600452602481fd5b500490565b80825b60018086116131a357506131ce565b8187048211156131b5576131b5613343565b808616156131c257918102915b9490941c938002613194565b94509492505050565b60006105db60001960ff8516846000826131f3575060016105db565b81613200575060006105db565b816001811461321657600281146132205761324d565b60019150506105db565b60ff84111561323157613231613343565b6001841b91508482111561324757613247613343565b506105db565b5060208310610133831016604e8410600b8410161715613280575081810a8381111561327b5761327b613343565b6105db565b61328d8484846001613191565b80860482111561329f5761329f613343565b02949350505050565b60008160001904831182151516156132c2576132c2613343565b500290565b6000828210156132d9576132d9613343565b500390565b60005b838110156132f95781810151838201526020016132e1565b83811115613308576000848401525b50505050565b600060001982141561332257613322613343565b5060010190565b6000600160ff1b82141561333f5761333f613343565b0390565b634e487b7160e01b600052601160045260246000fd5b634e487b7160e01b600052604160045260246000fd5b6001600160a01b038116811461148c57600080fd5b60ff8116811461148c57600080fdfea26469706673582212205aaeb2987798df396aeb0edec82eb320669b7b6763c1164916e465b95143a2fc64736f6c63430008030033",
			"opcodes": "PUSH1 0x80 PUSH1 0x40 MSTORE PUSH1 0x1 PUSH1 0x6E SSTORE CALLVALUE DUP1 ISZERO PUSH2 0x15 JUMPI PUSH1 0x0 DUP1 REVERT JUMPDEST POP PUSH1 0x40 DUP1 MLOAD DUP1 DUP3 ADD DUP3 MSTORE PUSH1 0x14 DUP2 MSTORE PUSH32 0x43424243204C697175696469747920546F6B656E000000000000000000000000 PUSH1 0x20 SWAP2 DUP3 ADD MSTORE DUP2 MLOAD DUP1 DUP4 ADD DUP4 MSTORE PUSH1 0x1 DUP2 MSTORE PUSH1 0x31 PUSH1 0xF8 SHL SWAP1 DUP3 ADD MSTORE DUP2 MLOAD PUSH32 0x8B73C3C69BB8FE3D512ECC4CF759CC79239F7B179B0FFACAA9A75D522B39400F DUP2 DUP4 ADD MSTORE PUSH32 0x2A43AD024113C76E599E33587099C553BCB32C4AA0E21531D7FCB8411E149A8D DUP2 DUP5 ADD MSTORE PUSH32 0xC89EFDAA54C0F20C7ADF612882DF0950F5A951637E0307CDCB4C672F298B8BC6 PUSH1 0x60 DUP3 ADD MSTORE CHAINID PUSH1 0x80 DUP3 ADD MSTORE ADDRESS PUSH1 0xA0 DUP1 DUP4 ADD SWAP2 SWAP1 SWAP2 MSTORE DUP4 MLOAD DUP1 DUP4 SUB SWAP1 SWAP2 ADD DUP2 MSTORE PUSH1 0xC0 SWAP1 SWAP2 ADD SWAP1 SWAP3 MSTORE DUP2 MLOAD SWAP2 ADD KECCAK256 PUSH1 0x69 SSTORE PUSH2 0x33C9 DUP1 PUSH2 0x109 PUSH1 0x0 CODECOPY PUSH1 0x0 RETURN INVALID PUSH1 0x80 PUSH1 0x40 MSTORE CALLVALUE DUP1 ISZERO PUSH2 0x10 JUMPI PUSH1 0x0 DUP1 REVERT JUMPDEST POP PUSH1 0x4 CALLDATASIZE LT PUSH2 0x1CF JUMPI PUSH1 0x0 CALLDATALOAD PUSH1 0xE0 SHR DUP1 PUSH4 0x872C6795 GT PUSH2 0x104 JUMPI DUP1 PUSH4 0xC4D66DE8 GT PUSH2 0xA2 JUMPI DUP1 PUSH4 0xCE2D30DD GT PUSH2 0x71 JUMPI DUP1 PUSH4 0xCE2D30DD EQ PUSH2 0x406 JUMPI DUP1 PUSH4 0xD505ACCF EQ PUSH2 0x419 JUMPI DUP1 PUSH4 0xDD62ED3E EQ PUSH2 0x42C JUMPI DUP1 PUSH4 0xF2FDE38B EQ PUSH2 0x457 JUMPI PUSH2 0x1CF JUMP JUMPDEST DUP1 PUSH4 0xC4D66DE8 EQ PUSH2 0x3CF JUMPI DUP1 PUSH4 0xC7343B9F EQ PUSH2 0x3E2 JUMPI DUP1 PUSH4 0xCA149504 EQ PUSH2 0x3F5 JUMPI DUP1 PUSH4 0xCD3293DE EQ PUSH2 0x3FD JUMPI PUSH2 0x1CF JUMP JUMPDEST DUP1 PUSH4 0x95D89B41 GT PUSH2 0xDE JUMPI DUP1 PUSH4 0x95D89B41 EQ PUSH2 0x37B JUMPI DUP1 PUSH4 0xA9059CBB EQ PUSH2 0x3A0 JUMPI DUP1 PUSH4 0xBA9A7A56 EQ PUSH2 0x3B3 JUMPI DUP1 PUSH4 0xC45A0155 EQ PUSH2 0x3BC JUMPI PUSH2 0x1CF JUMP JUMPDEST DUP1 PUSH4 0x872C6795 EQ PUSH2 0x357 JUMPI DUP1 PUSH4 0x8DA5CB5B EQ PUSH2 0x35F JUMPI DUP1 PUSH4 0x8F32D59B EQ PUSH2 0x367 JUMPI PUSH2 0x1CF JUMP JUMPDEST DUP1 PUSH4 0x3644E515 GT PUSH2 0x171 JUMPI DUP1 PUSH4 0x70A08231 GT PUSH2 0x14B JUMPI DUP1 PUSH4 0x70A08231 EQ PUSH2 0x2E4 JUMPI DUP1 PUSH4 0x715018A6 EQ PUSH2 0x304 JUMPI DUP1 PUSH4 0x74E14EB8 EQ PUSH2 0x30C JUMPI DUP1 PUSH4 0x7ECEBE00 EQ PUSH2 0x337 JUMPI PUSH2 0x1CF JUMP JUMPDEST DUP1 PUSH4 0x3644E515 EQ PUSH2 0x2B3 JUMPI DUP1 PUSH4 0x485CC955 EQ PUSH2 0x2BC JUMPI DUP1 PUSH4 0x6FFD3FE8 EQ PUSH2 0x2D1 JUMPI PUSH2 0x1CF JUMP JUMPDEST DUP1 PUSH4 0x18160DDD GT PUSH2 0x1AD JUMPI DUP1 PUSH4 0x18160DDD EQ PUSH2 0x256 JUMPI DUP1 PUSH4 0x23B872DD EQ PUSH2 0x25F JUMPI DUP1 PUSH4 0x30ADF81F EQ PUSH2 0x272 JUMPI DUP1 PUSH4 0x313CE567 EQ PUSH2 0x299 JUMPI PUSH2 0x1CF JUMP JUMPDEST DUP1 PUSH4 0x6FDDE03 EQ PUSH2 0x1D4 JUMPI DUP1 PUSH4 0x9287C6E EQ PUSH2 0x21D JUMPI DUP1 PUSH4 0x95EA7B3 EQ PUSH2 0x233 JUMPI JUMPDEST PUSH1 0x0 DUP1 REVERT JUMPDEST PUSH2 0x207 PUSH1 0x40 MLOAD DUP1 PUSH1 0x40 ADD PUSH1 0x40 MSTORE DUP1 PUSH1 0x14 DUP2 MSTORE PUSH1 0x20 ADD PUSH20 0x21A12121902634B8BAB4B234BA3C902A37B5B2B7 PUSH1 0x61 SHL DUP2 MSTORE POP DUP2 JUMP JUMPDEST PUSH1 0x40 MLOAD PUSH2 0x214 SWAP2 SWAP1 PUSH2 0x30B2 JUMP JUMPDEST PUSH1 0x40 MLOAD DUP1 SWAP2 SUB SWAP1 RETURN JUMPDEST PUSH2 0x225 PUSH2 0x46A JUMP JUMPDEST PUSH1 0x40 MLOAD SWAP1 DUP2 MSTORE PUSH1 0x20 ADD PUSH2 0x214 JUMP JUMPDEST PUSH2 0x246 PUSH2 0x241 CALLDATASIZE PUSH1 0x4 PUSH2 0x2F0E JUMP JUMPDEST PUSH2 0x550 JUMP JUMPDEST PUSH1 0x40 MLOAD SWAP1 ISZERO ISZERO DUP2 MSTORE PUSH1 0x20 ADD PUSH2 0x214 JUMP JUMPDEST PUSH2 0x225 PUSH1 0x66 SLOAD DUP2 JUMP JUMPDEST PUSH2 0x246 PUSH2 0x26D CALLDATASIZE PUSH1 0x4 PUSH2 0x2E4C JUMP JUMPDEST PUSH2 0x567 JUMP JUMPDEST PUSH2 0x225 PUSH32 0x6E71EDAE12B1B97F4D1F60370FEF10105FA2FAAE0126114A169C64845D6126C9 DUP2 JUMP JUMPDEST PUSH2 0x2A1 PUSH1 0x12 DUP2 JUMP JUMPDEST PUSH1 0x40 MLOAD PUSH1 0xFF SWAP1 SWAP2 AND DUP2 MSTORE PUSH1 0x20 ADD PUSH2 0x214 JUMP JUMPDEST PUSH2 0x225 PUSH1 0x69 SLOAD DUP2 JUMP JUMPDEST PUSH2 0x2CF PUSH2 0x2CA CALLDATASIZE PUSH1 0x4 PUSH2 0x2EFC JUMP JUMPDEST PUSH2 0x5E2 JUMP JUMPDEST STOP JUMPDEST PUSH2 0x225 PUSH2 0x2DF CALLDATASIZE PUSH1 0x4 PUSH2 0x2DDC JUMP JUMPDEST PUSH2 0x71F JUMP JUMPDEST PUSH2 0x225 PUSH2 0x2F2 CALLDATASIZE PUSH1 0x4 PUSH2 0x2DDC JUMP JUMPDEST PUSH1 0x67 PUSH1 0x20 MSTORE PUSH1 0x0 SWAP1 DUP2 MSTORE PUSH1 0x40 SWAP1 KECCAK256 SLOAD DUP2 JUMP JUMPDEST PUSH2 0x2CF PUSH2 0x90D JUMP JUMPDEST PUSH1 0x6C SLOAD PUSH2 0x31F SWAP1 PUSH1 0x1 PUSH1 0x1 PUSH1 0xA0 SHL SUB AND DUP2 JUMP JUMPDEST PUSH1 0x40 MLOAD PUSH1 0x1 PUSH1 0x1 PUSH1 0xA0 SHL SUB SWAP1 SWAP2 AND DUP2 MSTORE PUSH1 0x20 ADD PUSH2 0x214 JUMP JUMPDEST PUSH2 0x225 PUSH2 0x345 CALLDATASIZE PUSH1 0x4 PUSH2 0x2DDC JUMP JUMPDEST PUSH1 0x6A PUSH1 0x20 MSTORE PUSH1 0x0 SWAP1 DUP2 MSTORE PUSH1 0x40 SWAP1 KECCAK256 SLOAD DUP2 JUMP JUMPDEST PUSH2 0x225 PUSH2 0x974 JUMP JUMPDEST PUSH2 0x31F PUSH2 0xA39 JUMP JUMPDEST PUSH2 0x246 PUSH1 0x33 SLOAD PUSH1 0x1 PUSH1 0x1 PUSH1 0xA0 SHL SUB AND CALLER EQ SWAP1 JUMP JUMPDEST PUSH2 0x207 PUSH1 0x40 MLOAD DUP1 PUSH1 0x40 ADD PUSH1 0x40 MSTORE DUP1 PUSH1 0x6 DUP2 MSTORE PUSH1 0x20 ADD PUSH6 0x10D09090D315 PUSH1 0xD2 SHL DUP2 MSTORE POP DUP2 JUMP JUMPDEST PUSH2 0x246 PUSH2 0x3AE CALLDATASIZE PUSH1 0x4 PUSH2 0x2F0E JUMP JUMPDEST PUSH2 0xA49 JUMP JUMPDEST PUSH2 0x225 PUSH2 0x3E8 DUP2 JUMP JUMPDEST PUSH1 0x6B SLOAD PUSH2 0x31F SWAP1 PUSH1 0x1 PUSH1 0x1 PUSH1 0xA0 SHL SUB AND DUP2 JUMP JUMPDEST PUSH2 0x2CF PUSH2 0x3DD CALLDATASIZE PUSH1 0x4 PUSH2 0x2DDC JUMP JUMPDEST PUSH2 0xA56 JUMP JUMPDEST PUSH2 0x225 PUSH2 0x3F0 CALLDATASIZE PUSH1 0x4 PUSH2 0x2DDC JUMP JUMPDEST PUSH2 0xADA JUMP JUMPDEST PUSH2 0x225 PUSH2 0xD0F JUMP JUMPDEST PUSH2 0x225 PUSH1 0x6D SLOAD DUP2 JUMP JUMPDEST PUSH2 0x2CF PUSH2 0x414 CALLDATASIZE PUSH1 0x4 PUSH2 0x2F0E JUMP JUMPDEST PUSH2 0x113F JUMP JUMPDEST PUSH2 0x2CF PUSH2 0x427 CALLDATASIZE PUSH1 0x4 PUSH2 0x2E8C JUMP JUMPDEST PUSH2 0x1252 JUMP JUMPDEST PUSH2 0x225 PUSH2 0x43A CALLDATASIZE PUSH1 0x4 PUSH2 0x2E14 JUMP JUMPDEST PUSH1 0x68 PUSH1 0x20 SWAP1 DUP2 MSTORE PUSH1 0x0 SWAP3 DUP4 MSTORE PUSH1 0x40 DUP1 DUP5 KECCAK256 SWAP1 SWAP2 MSTORE SWAP1 DUP3 MSTORE SWAP1 KECCAK256 SLOAD DUP2 JUMP JUMPDEST PUSH2 0x2CF PUSH2 0x465 CALLDATASIZE PUSH1 0x4 PUSH2 0x2DDC JUMP JUMPDEST PUSH2 0x1466 JUMP JUMPDEST PUSH1 0x0 PUSH1 0x6E SLOAD PUSH1 0x1 EQ PUSH2 0x497 JUMPI PUSH1 0x40 MLOAD PUSH3 0x461BCD PUSH1 0xE5 SHL DUP2 MSTORE PUSH1 0x4 ADD PUSH2 0x48E SWAP1 PUSH2 0x30E5 JUMP JUMPDEST PUSH1 0x40 MLOAD DUP1 SWAP2 SUB SWAP1 REVERT JUMPDEST PUSH1 0x0 PUSH1 0x6E DUP2 SWAP1 SSTORE PUSH1 0x6D SLOAD PUSH1 0x6C SLOAD PUSH1 0x40 MLOAD PUSH4 0x70A08231 PUSH1 0xE0 SHL DUP2 MSTORE ADDRESS PUSH1 0x4 DUP3 ADD MSTORE SWAP2 SWAP3 SWAP2 PUSH1 0x1 PUSH1 0x1 PUSH1 0xA0 SHL SUB SWAP1 SWAP2 AND SWAP1 PUSH4 0x70A08231 SWAP1 PUSH1 0x24 ADD PUSH1 0x20 PUSH1 0x40 MLOAD DUP1 DUP4 SUB DUP2 DUP7 DUP1 EXTCODESIZE ISZERO DUP1 ISZERO PUSH2 0x4E7 JUMPI PUSH1 0x0 DUP1 REVERT JUMPDEST POP GAS STATICCALL ISZERO DUP1 ISZERO PUSH2 0x4FB JUMPI RETURNDATASIZE PUSH1 0x0 DUP1 RETURNDATACOPY RETURNDATASIZE PUSH1 0x0 REVERT JUMPDEST POP POP POP POP PUSH1 0x40 MLOAD RETURNDATASIZE PUSH1 0x1F NOT PUSH1 0x1F DUP3 ADD AND DUP3 ADD DUP1 PUSH1 0x40 MSTORE POP DUP2 ADD SWAP1 PUSH2 0x51F SWAP2 SWAP1 PUSH2 0x303F JUMP JUMPDEST PUSH1 0x6D DUP2 SWAP1 SSTORE SWAP1 POP DUP2 DUP2 LT ISZERO PUSH2 0x541 JUMPI PUSH2 0x538 DUP2 DUP4 PUSH2 0x32C7 JUMP JUMPDEST SWAP3 POP POP POP PUSH2 0x548 JUMP JUMPDEST PUSH1 0x0 SWAP3 POP POP POP JUMPDEST PUSH1 0x1 PUSH1 0x6E SSTORE SWAP1 JUMP JUMPDEST PUSH1 0x0 PUSH2 0x55D CALLER DUP5 DUP5 PUSH2 0x148F JUMP JUMPDEST POP PUSH1 0x1 JUMPDEST SWAP3 SWAP2 POP POP JUMP JUMPDEST PUSH1 0x1 PUSH1 0x1 PUSH1 0xA0 SHL SUB DUP4 AND PUSH1 0x0 SWAP1 DUP2 MSTORE PUSH1 0x68 PUSH1 0x20 SWAP1 DUP2 MSTORE PUSH1 0x40 DUP1 DUP4 KECCAK256 CALLER DUP5 MSTORE SWAP1 SWAP2 MSTORE DUP2 KECCAK256 SLOAD PUSH1 0x0 NOT EQ PUSH2 0x5CC JUMPI PUSH1 0x1 PUSH1 0x1 PUSH1 0xA0 SHL SUB DUP5 AND PUSH1 0x0 SWAP1 DUP2 MSTORE PUSH1 0x68 PUSH1 0x20 SWAP1 DUP2 MSTORE PUSH1 0x40 DUP1 DUP4 KECCAK256 CALLER DUP5 MSTORE SWAP1 SWAP2 MSTORE DUP2 KECCAK256 DUP1 SLOAD DUP5 SWAP3 SWAP1 PUSH2 0x5C6 SWAP1 DUP5 SWAP1 PUSH2 0x32C7 JUMP JUMPDEST SWAP1 SWAP2 SSTORE POP POP JUMPDEST PUSH2 0x5D7 DUP5 DUP5 DUP5 PUSH2 0x14F1 JUMP JUMPDEST POP PUSH1 0x1 JUMPDEST SWAP4 SWAP3 POP POP POP JUMP JUMPDEST PUSH1 0x0 SLOAD PUSH2 0x100 SWAP1 DIV PUSH1 0xFF AND DUP1 PUSH2 0x5F7 JUMPI POP ADDRESS EXTCODESIZE ISZERO JUMPDEST DUP1 PUSH2 0x605 JUMPI POP PUSH1 0x0 SLOAD PUSH1 0xFF AND ISZERO JUMPDEST PUSH2 0x621 JUMPI PUSH1 0x40 MLOAD PUSH3 0x461BCD PUSH1 0xE5 SHL DUP2 MSTORE PUSH1 0x4 ADD PUSH2 0x48E SWAP1 PUSH2 0x310B JUMP JUMPDEST PUSH1 0x0 DUP1 SLOAD PUSH2 0xFFFF NOT DUP2 AND PUSH2 0x101 OR SWAP1 SWAP2 SSTORE PUSH2 0x100 SWAP1 DIV PUSH1 0xFF AND PUSH2 0x643 CALLER PUSH2 0xA56 JUMP JUMPDEST PUSH1 0x6B DUP1 SLOAD PUSH1 0x1 PUSH1 0x1 PUSH1 0xA0 SHL SUB DUP5 DUP2 AND PUSH1 0x1 PUSH1 0x1 PUSH1 0xA0 SHL SUB NOT SWAP3 DUP4 AND DUP2 OR SWAP1 SWAP4 SSTORE PUSH1 0x6C DUP1 SLOAD SWAP2 DUP8 AND SWAP2 SWAP1 SWAP3 AND DUP2 OR SWAP1 SWAP2 SSTORE PUSH1 0x40 MLOAD PUSH4 0x132BDE8B PUSH1 0xE1 SHL DUP2 MSTORE PUSH1 0x4 DUP2 ADD SWAP2 SWAP1 SWAP2 MSTORE ADDRESS PUSH1 0x24 DUP3 ADD MSTORE PUSH4 0x2657BD16 SWAP1 PUSH1 0x44 ADD PUSH1 0x0 PUSH1 0x40 MLOAD DUP1 DUP4 SUB DUP2 PUSH1 0x0 DUP8 DUP1 EXTCODESIZE ISZERO DUP1 ISZERO PUSH2 0x6B1 JUMPI PUSH1 0x0 DUP1 REVERT JUMPDEST POP GAS CALL ISZERO DUP1 ISZERO PUSH2 0x6C5 JUMPI RETURNDATASIZE PUSH1 0x0 DUP1 RETURNDATACOPY RETURNDATASIZE PUSH1 0x0 REVERT JUMPDEST POP POP PUSH1 0x6C SLOAD PUSH1 0x40 MLOAD ADDRESS SWAP4 POP PUSH1 0x1 PUSH1 0x1 PUSH1 0xA0 SHL SUB SWAP1 SWAP2 AND SWAP2 POP PUSH32 0x56CC233B958D731C1B337B8D10CC32EEA95E52520F714B1AEC577005DBE06478 SWAP1 PUSH1 0x0 SWAP1 LOG3 PUSH1 0x0 DUP1 SLOAD SWAP2 ISZERO ISZERO PUSH2 0x100 MUL PUSH2 0xFF00 NOT SWAP1 SWAP3 AND SWAP2 SWAP1 SWAP2 OR SWAP1 SSTORE POP POP JUMP JUMPDEST PUSH1 0x0 PUSH1 0x6E SLOAD PUSH1 0x1 EQ PUSH2 0x743 JUMPI PUSH1 0x40 MLOAD PUSH3 0x461BCD PUSH1 0xE5 SHL DUP2 MSTORE PUSH1 0x4 ADD PUSH2 0x48E SWAP1 PUSH2 0x30E5 JUMP JUMPDEST PUSH1 0x0 PUSH1 0x6E DUP2 SWAP1 SSTORE PUSH1 0x6D SLOAD SWAP1 PUSH2 0x756 PUSH2 0xD0F JUMP JUMPDEST PUSH1 0x6C SLOAD PUSH1 0x40 MLOAD PUSH4 0x70A08231 PUSH1 0xE0 SHL DUP2 MSTORE ADDRESS PUSH1 0x4 DUP3 ADD MSTORE SWAP2 SWAP3 POP PUSH1 0x0 SWAP2 PUSH1 0x1 PUSH1 0x1 PUSH1 0xA0 SHL SUB SWAP1 SWAP2 AND SWAP1 PUSH4 0x70A08231 SWAP1 PUSH1 0x24 ADD PUSH1 0x20 PUSH1 0x40 MLOAD DUP1 DUP4 SUB DUP2 DUP7 DUP1 EXTCODESIZE ISZERO DUP1 ISZERO PUSH2 0x79F JUMPI PUSH1 0x0 DUP1 REVERT JUMPDEST POP GAS STATICCALL ISZERO DUP1 ISZERO PUSH2 0x7B3 JUMPI RETURNDATASIZE PUSH1 0x0 DUP1 RETURNDATACOPY RETURNDATASIZE PUSH1 0x0 REVERT JUMPDEST POP POP POP POP PUSH1 0x40 MLOAD RETURNDATASIZE PUSH1 0x1F NOT PUSH1 0x1F DUP3 ADD AND DUP3 ADD DUP1 PUSH1 0x40 MSTORE POP DUP2 ADD SWAP1 PUSH2 0x7D7 SWAP2 SWAP1 PUSH2 0x303F JUMP JUMPDEST SWAP1 POP PUSH1 0x0 PUSH2 0x7E5 DUP5 DUP4 PUSH2 0x32C7 JUMP JUMPDEST PUSH1 0x66 SLOAD SWAP1 SWAP2 POP DUP1 PUSH2 0x810 JUMPI PUSH2 0x7FC PUSH2 0x3E8 DUP4 PUSH2 0x32C7 JUMP JUMPDEST SWAP6 POP PUSH2 0x80B PUSH1 0x0 PUSH2 0x3E8 PUSH2 0x1592 JUMP JUMPDEST PUSH2 0x85D JUMP JUMPDEST PUSH1 0x0 PUSH2 0x81C DUP6 DUP8 PUSH2 0x161C JUMP JUMPDEST SWAP1 POP DUP6 DUP2 LT PUSH2 0x83B JUMPI PUSH4 0x4E487B71 PUSH1 0xE0 SHL PUSH1 0x0 MSTORE PUSH1 0x1 PUSH1 0x4 MSTORE PUSH1 0x24 PUSH1 0x0 REVERT JUMPDEST PUSH2 0x845 DUP2 DUP8 PUSH2 0x32C7 JUMP JUMPDEST PUSH2 0x84F DUP4 DUP6 PUSH2 0x32A8 JUMP JUMPDEST PUSH2 0x859 SWAP2 SWAP1 PUSH2 0x3171 JUMP JUMPDEST SWAP7 POP POP JUMPDEST PUSH1 0x0 DUP7 GT PUSH2 0x8B9 JUMPI PUSH1 0x40 MLOAD PUSH3 0x461BCD PUSH1 0xE5 SHL DUP2 MSTORE PUSH1 0x20 PUSH1 0x4 DUP3 ADD MSTORE PUSH1 0x23 PUSH1 0x24 DUP3 ADD MSTORE PUSH32 0x434242433A20494E53554646494349454E545F4C49515549444954595F4D494E PUSH1 0x44 DUP3 ADD MSTORE PUSH3 0x151151 PUSH1 0xEA SHL PUSH1 0x64 DUP3 ADD MSTORE PUSH1 0x84 ADD PUSH2 0x48E JUMP JUMPDEST PUSH2 0x8C3 DUP8 DUP8 PUSH2 0x1592 JUMP JUMPDEST PUSH1 0x6D DUP4 SWAP1 SSTORE PUSH1 0x40 MLOAD DUP3 DUP2 MSTORE CALLER SWAP1 PUSH32 0xF6798A560793A54C3BCFE86A93CDE1E73087D944C0EA20544137D4121396885 SWAP1 PUSH1 0x20 ADD PUSH1 0x40 MLOAD DUP1 SWAP2 SUB SWAP1 LOG2 POP POP PUSH1 0x1 PUSH1 0x6E SSTORE POP SWAP2 SWAP4 SWAP3 POP POP POP JUMP JUMPDEST PUSH2 0x921 PUSH1 0x33 SLOAD PUSH1 0x1 PUSH1 0x1 PUSH1 0xA0 SHL SUB AND CALLER EQ SWAP1 JUMP JUMPDEST PUSH2 0x92A JUMPI PUSH1 0x0 DUP1 REVERT JUMPDEST PUSH1 0x33 SLOAD PUSH1 0x40 MLOAD PUSH1 0x1 PUSH1 0x1 PUSH1 0xA0 SHL SUB SWAP1 SWAP2 AND SWAP1 PUSH32 0xF8DF31144D9C2F0F6B59D69B8B98ABD5459D07F2742C4DF920B25AAE33C64820 SWAP1 PUSH1 0x0 SWAP1 LOG2 PUSH1 0x33 DUP1 SLOAD PUSH1 0x1 PUSH1 0x1 PUSH1 0xA0 SHL SUB NOT AND SWAP1 SSTORE JUMP JUMPDEST PUSH1 0x0 PUSH1 0x6E SLOAD PUSH1 0x1 EQ PUSH2 0x998 JUMPI PUSH1 0x40 MLOAD PUSH3 0x461BCD PUSH1 0xE5 SHL DUP2 MSTORE PUSH1 0x4 ADD PUSH2 0x48E SWAP1 PUSH2 0x30E5 JUMP JUMPDEST PUSH1 0x0 PUSH1 0x6E DUP2 SWAP1 SSTORE PUSH1 0x6D SLOAD PUSH1 0x6C SLOAD PUSH1 0x40 MLOAD PUSH4 0x70A08231 PUSH1 0xE0 SHL DUP2 MSTORE ADDRESS PUSH1 0x4 DUP3 ADD MSTORE SWAP2 SWAP3 SWAP2 PUSH1 0x1 PUSH1 0x1 PUSH1 0xA0 SHL SUB SWAP1 SWAP2 AND SWAP1 PUSH4 0x70A08231 SWAP1 PUSH1 0x24 ADD PUSH1 0x20 PUSH1 0x40 MLOAD DUP1 DUP4 SUB DUP2 DUP7 DUP1 EXTCODESIZE ISZERO DUP1 ISZERO PUSH2 0x9E8 JUMPI PUSH1 0x0 DUP1 REVERT JUMPDEST POP GAS STATICCALL ISZERO DUP1 ISZERO PUSH2 0x9FC JUMPI RETURNDATASIZE PUSH1 0x0 DUP1 RETURNDATACOPY RETURNDATASIZE PUSH1 0x0 REVERT JUMPDEST POP POP POP POP PUSH1 0x40 MLOAD RETURNDATASIZE PUSH1 0x1F NOT PUSH1 0x1F DUP3 ADD AND DUP3 ADD DUP1 PUSH1 0x40 MSTORE POP DUP2 ADD SWAP1 PUSH2 0xA20 SWAP2 SWAP1 PUSH2 0x303F JUMP JUMPDEST PUSH1 0x6D DUP2 SWAP1 SSTORE SWAP1 POP DUP2 DUP2 GT ISZERO PUSH2 0x541 JUMPI PUSH2 0x538 DUP3 DUP3 PUSH2 0x32C7 JUMP JUMPDEST PUSH1 0x33 SLOAD PUSH1 0x1 PUSH1 0x1 PUSH1 0xA0 SHL SUB AND JUMPDEST SWAP1 JUMP JUMPDEST PUSH1 0x0 PUSH2 0x55D CALLER DUP5 DUP5 PUSH2 0x14F1 JUMP JUMPDEST PUSH1 0x0 SLOAD PUSH2 0x100 SWAP1 DIV PUSH1 0xFF AND DUP1 PUSH2 0xA6B JUMPI POP ADDRESS EXTCODESIZE ISZERO JUMPDEST DUP1 PUSH2 0xA79 JUMPI POP PUSH1 0x0 SLOAD PUSH1 0xFF AND ISZERO JUMPDEST PUSH2 0xA95 JUMPI PUSH1 0x40 MLOAD PUSH3 0x461BCD PUSH1 0xE5 SHL DUP2 MSTORE PUSH1 0x4 ADD PUSH2 0x48E SWAP1 PUSH2 0x310B JUMP JUMPDEST PUSH1 0x0 DUP1 SLOAD PUSH1 0x33 DUP1 SLOAD PUSH1 0x1 PUSH1 0x1 PUSH1 0xA0 SHL SUB NOT AND PUSH1 0x1 PUSH1 0x1 PUSH1 0xA0 SHL SUB SWAP5 SWAP1 SWAP5 AND SWAP4 SWAP1 SWAP4 OR SWAP1 SWAP3 SSTORE PUSH2 0xFFFF NOT DUP3 AND PUSH2 0x100 SWAP3 DUP4 SWAP1 DIV PUSH1 0xFF AND ISZERO ISZERO SWAP1 SWAP3 MUL SWAP2 SWAP1 SWAP2 OR PUSH1 0x1 OR SWAP1 SSTORE JUMP JUMPDEST PUSH1 0x0 PUSH1 0x6E SLOAD PUSH1 0x1 EQ PUSH2 0xAFE JUMPI PUSH1 0x40 MLOAD PUSH3 0x461BCD PUSH1 0xE5 SHL DUP2 MSTORE PUSH1 0x4 ADD PUSH2 0x48E SWAP1 PUSH2 0x30E5 JUMP JUMPDEST PUSH1 0x0 PUSH1 0x6E DUP2 SWAP1 SSTORE PUSH2 0xB0D PUSH2 0xD0F JUMP JUMPDEST PUSH1 0x6C SLOAD PUSH1 0x40 MLOAD PUSH4 0x70A08231 PUSH1 0xE0 SHL DUP2 MSTORE ADDRESS PUSH1 0x4 DUP3 ADD MSTORE SWAP2 SWAP3 POP PUSH1 0x1 PUSH1 0x1 PUSH1 0xA0 SHL SUB AND SWAP1 PUSH1 0x0 SWAP1 DUP3 SWAP1 PUSH4 0x70A08231 SWAP1 PUSH1 0x24 ADD PUSH1 0x20 PUSH1 0x40 MLOAD DUP1 DUP4 SUB DUP2 DUP7 DUP1 EXTCODESIZE ISZERO DUP1 ISZERO PUSH2 0xB56 JUMPI PUSH1 0x0 DUP1 REVERT JUMPDEST POP GAS STATICCALL ISZERO DUP1 ISZERO PUSH2 0xB6A JUMPI RETURNDATASIZE PUSH1 0x0 DUP1 RETURNDATACOPY RETURNDATASIZE PUSH1 0x0 REVERT JUMPDEST POP POP POP POP PUSH1 0x40 MLOAD RETURNDATASIZE PUSH1 0x1F NOT PUSH1 0x1F DUP3 ADD AND DUP3 ADD DUP1 PUSH1 0x40 MSTORE POP DUP2 ADD SWAP1 PUSH2 0xB8E SWAP2 SWAP1 PUSH2 0x303F JUMP JUMPDEST ADDRESS PUSH1 0x0 SWAP1 DUP2 MSTORE PUSH1 0x67 PUSH1 0x20 MSTORE PUSH1 0x40 DUP2 KECCAK256 SLOAD PUSH1 0x66 SLOAD SWAP3 SWAP4 POP SWAP2 SWAP1 PUSH2 0xBB0 DUP7 DUP6 PUSH2 0x161C JUMP JUMPDEST SWAP1 POP DUP2 PUSH2 0xBBD DUP3 DUP7 PUSH2 0x32C7 JUMP JUMPDEST PUSH2 0xBC7 SWAP1 DUP6 PUSH2 0x32A8 JUMP JUMPDEST PUSH2 0xBD1 SWAP2 SWAP1 PUSH2 0x3171 JUMP JUMPDEST SWAP7 POP PUSH1 0x0 DUP8 GT PUSH2 0xC2F JUMPI PUSH1 0x40 MLOAD PUSH3 0x461BCD PUSH1 0xE5 SHL DUP2 MSTORE PUSH1 0x20 PUSH1 0x4 DUP3 ADD MSTORE PUSH1 0x23 PUSH1 0x24 DUP3 ADD MSTORE PUSH32 0x434242433A20494E53554646494349454E545F4C49515549444954595F425552 PUSH1 0x44 DUP3 ADD MSTORE PUSH3 0x139151 PUSH1 0xEA SHL PUSH1 0x64 DUP3 ADD MSTORE PUSH1 0x84 ADD PUSH2 0x48E JUMP JUMPDEST PUSH2 0xC39 ADDRESS DUP5 PUSH2 0x16D7 JUMP JUMPDEST PUSH2 0xC44 DUP6 DUP10 DUP10 PUSH2 0x175B JUMP JUMPDEST PUSH1 0x40 MLOAD PUSH4 0x70A08231 PUSH1 0xE0 SHL DUP2 MSTORE ADDRESS PUSH1 0x4 DUP3 ADD MSTORE PUSH1 0x1 PUSH1 0x1 PUSH1 0xA0 SHL SUB DUP7 AND SWAP1 PUSH4 0x70A08231 SWAP1 PUSH1 0x24 ADD PUSH1 0x20 PUSH1 0x40 MLOAD DUP1 DUP4 SUB DUP2 DUP7 DUP1 EXTCODESIZE ISZERO DUP1 ISZERO PUSH2 0xC83 JUMPI PUSH1 0x0 DUP1 REVERT JUMPDEST POP GAS STATICCALL ISZERO DUP1 ISZERO PUSH2 0xC97 JUMPI RETURNDATASIZE PUSH1 0x0 DUP1 RETURNDATACOPY RETURNDATASIZE PUSH1 0x0 REVERT JUMPDEST POP POP POP POP PUSH1 0x40 MLOAD RETURNDATASIZE PUSH1 0x1F NOT PUSH1 0x1F DUP3 ADD AND DUP3 ADD DUP1 PUSH1 0x40 MSTORE POP DUP2 ADD SWAP1 PUSH2 0xCBB SWAP2 SWAP1 PUSH2 0x303F JUMP JUMPDEST PUSH1 0x6D SSTORE PUSH1 0x40 MLOAD DUP8 DUP2 MSTORE PUSH1 0x1 PUSH1 0x1 PUSH1 0xA0 SHL SUB DUP10 AND SWAP1 CALLER SWAP1 PUSH32 0xDBDF9B8E4B75E75B162D151EC8FC7F0561CABAB5FCCCFA2600BE62223E4300C4 SWAP1 PUSH1 0x20 ADD PUSH1 0x40 MLOAD DUP1 SWAP2 SUB SWAP1 LOG3 POP POP PUSH1 0x1 PUSH1 0x6E SSTORE POP SWAP3 SWAP5 SWAP4 POP POP POP POP JUMP JUMPDEST PUSH1 0x6B SLOAD PUSH1 0x6C SLOAD PUSH1 0x40 MLOAD PUSH4 0xC14BB40B PUSH1 0xE0 SHL DUP2 MSTORE PUSH1 0x1 PUSH1 0x1 PUSH1 0xA0 SHL SUB SWAP2 DUP3 AND PUSH1 0x4 DUP3 ADD MSTORE PUSH1 0x0 SWAP3 SWAP2 SWAP1 SWAP2 AND SWAP1 PUSH4 0xC14BB40B SWAP1 PUSH1 0x24 ADD PUSH1 0x20 PUSH1 0x40 MLOAD DUP1 DUP4 SUB DUP2 DUP7 DUP1 EXTCODESIZE ISZERO DUP1 ISZERO PUSH2 0xD5B JUMPI PUSH1 0x0 DUP1 REVERT JUMPDEST POP GAS STATICCALL ISZERO DUP1 ISZERO PUSH2 0xD6F JUMPI RETURNDATASIZE PUSH1 0x0 DUP1 RETURNDATACOPY RETURNDATASIZE PUSH1 0x0 REVERT JUMPDEST POP POP POP POP PUSH1 0x40 MLOAD RETURNDATASIZE PUSH1 0x1F NOT PUSH1 0x1F DUP3 ADD AND DUP3 ADD DUP1 PUSH1 0x40 MSTORE POP DUP2 ADD SWAP1 PUSH2 0xD93 SWAP2 SWAP1 PUSH2 0x3000 JUMP JUMPDEST PUSH2 0xDEA JUMPI PUSH1 0x40 MLOAD PUSH3 0x461BCD PUSH1 0xE5 SHL DUP2 MSTORE PUSH1 0x20 PUSH1 0x4 DUP3 ADD MSTORE PUSH1 0x22 PUSH1 0x24 DUP3 ADD MSTORE PUSH32 0x434242433A204E4F545F414C4C4F5745445F534554544C454D454E545F544F4B PUSH1 0x44 DUP3 ADD MSTORE PUSH2 0x22A7 PUSH1 0xF1 SHL PUSH1 0x64 DUP3 ADD MSTORE PUSH1 0x84 ADD PUSH2 0x48E JUMP JUMPDEST PUSH1 0x6B SLOAD PUSH1 0x6C SLOAD PUSH1 0x40 MLOAD PUSH4 0x73B78CD5 PUSH1 0xE1 SHL DUP2 MSTORE PUSH1 0x1 PUSH1 0x1 PUSH1 0xA0 SHL SUB SWAP2 DUP3 AND PUSH1 0x4 DUP3 ADD MSTORE PUSH1 0x0 SWAP3 SWAP2 SWAP1 SWAP2 AND SWAP1 PUSH4 0xE76F19AA SWAP1 PUSH1 0x24 ADD PUSH1 0x0 PUSH1 0x40 MLOAD DUP1 DUP4 SUB DUP2 DUP7 DUP1 EXTCODESIZE ISZERO DUP1 ISZERO PUSH2 0xE36 JUMPI PUSH1 0x0 DUP1 REVERT JUMPDEST POP GAS STATICCALL ISZERO DUP1 ISZERO PUSH2 0xE4A JUMPI RETURNDATASIZE PUSH1 0x0 DUP1 RETURNDATACOPY RETURNDATASIZE PUSH1 0x0 REVERT JUMPDEST POP POP POP POP PUSH1 0x40 MLOAD RETURNDATASIZE PUSH1 0x0 DUP3 RETURNDATACOPY PUSH1 0x1F RETURNDATASIZE SWAP1 DUP2 ADD PUSH1 0x1F NOT AND DUP3 ADD PUSH1 0x40 MSTORE PUSH2 0xE72 SWAP2 SWAP1 DUP2 ADD SWAP1 PUSH2 0x2F39 JUMP JUMPDEST DUP1 MLOAD SWAP1 SWAP2 POP DUP1 PUSH2 0xE87 JUMPI PUSH1 0x0 SWAP3 POP POP POP PUSH2 0xA46 JUMP JUMPDEST PUSH1 0x0 DUP1 PUSH1 0x0 JUMPDEST DUP4 DUP2 LT ISZERO PUSH2 0x1135 JUMPI DUP5 DUP2 DUP2 MLOAD DUP2 LT PUSH2 0xEB5 JUMPI PUSH4 0x4E487B71 PUSH1 0xE0 SHL PUSH1 0x0 MSTORE PUSH1 0x32 PUSH1 0x4 MSTORE PUSH1 0x24 PUSH1 0x0 REVERT JUMPDEST PUSH1 0x20 MUL PUSH1 0x20 ADD ADD MLOAD SWAP2 POP PUSH1 0x0 DUP3 PUSH1 0x1 PUSH1 0x1 PUSH1 0xA0 SHL SUB AND PUSH4 0xBBB1863A PUSH1 0x40 MLOAD DUP2 PUSH4 0xFFFFFFFF AND PUSH1 0xE0 SHL DUP2 MSTORE PUSH1 0x4 ADD PUSH1 0x20 PUSH1 0x40 MLOAD DUP1 DUP4 SUB DUP2 DUP7 DUP1 EXTCODESIZE ISZERO DUP1 ISZERO PUSH2 0xEFA JUMPI PUSH1 0x0 DUP1 REVERT JUMPDEST POP GAS STATICCALL ISZERO DUP1 ISZERO PUSH2 0xF0E JUMPI RETURNDATASIZE PUSH1 0x0 DUP1 RETURNDATACOPY RETURNDATASIZE PUSH1 0x0 REVERT JUMPDEST POP POP POP POP PUSH1 0x40 MLOAD RETURNDATASIZE PUSH1 0x1F NOT PUSH1 0x1F DUP3 ADD AND DUP3 ADD DUP1 PUSH1 0x40 MSTORE POP DUP2 ADD SWAP1 PUSH2 0xF32 SWAP2 SWAP1 PUSH2 0x2DF8 JUMP JUMPDEST PUSH1 0x1 PUSH1 0x1 PUSH1 0xA0 SHL SUB AND PUSH4 0x60961528 PUSH1 0x40 MLOAD DUP2 PUSH4 0xFFFFFFFF AND PUSH1 0xE0 SHL DUP2 MSTORE PUSH1 0x4 ADD PUSH1 0x20 PUSH1 0x40 MLOAD DUP1 DUP4 SUB DUP2 DUP7 DUP1 EXTCODESIZE ISZERO DUP1 ISZERO PUSH2 0xF6A JUMPI PUSH1 0x0 DUP1 REVERT JUMPDEST POP GAS STATICCALL ISZERO DUP1 ISZERO PUSH2 0xF7E JUMPI RETURNDATASIZE PUSH1 0x0 DUP1 RETURNDATACOPY RETURNDATASIZE PUSH1 0x0 REVERT JUMPDEST POP POP POP POP PUSH1 0x40 MLOAD RETURNDATASIZE PUSH1 0x1F NOT PUSH1 0x1F DUP3 ADD AND DUP3 ADD DUP1 PUSH1 0x40 MSTORE POP DUP2 ADD SWAP1 PUSH2 0xFA2 SWAP2 SWAP1 PUSH2 0x2DF8 JUMP JUMPDEST PUSH1 0x6C SLOAD PUSH1 0x40 MLOAD PUSH4 0x41976E09 PUSH1 0xE0 SHL DUP2 MSTORE PUSH1 0x1 PUSH1 0x1 PUSH1 0xA0 SHL SUB SWAP2 DUP3 AND PUSH1 0x4 DUP3 ADD MSTORE SWAP2 AND SWAP1 PUSH4 0x41976E09 SWAP1 PUSH1 0x24 ADD PUSH1 0x40 DUP1 MLOAD DUP1 DUP4 SUB DUP2 DUP7 DUP1 EXTCODESIZE ISZERO DUP1 ISZERO PUSH2 0xFE5 JUMPI PUSH1 0x0 DUP1 REVERT JUMPDEST POP GAS STATICCALL ISZERO DUP1 ISZERO PUSH2 0xFF9 JUMPI RETURNDATASIZE PUSH1 0x0 DUP1 RETURNDATACOPY RETURNDATASIZE PUSH1 0x0 REVERT JUMPDEST POP POP POP POP PUSH1 0x40 MLOAD RETURNDATASIZE PUSH1 0x1F NOT PUSH1 0x1F DUP3 ADD AND DUP3 ADD DUP1 PUSH1 0x40 MSTORE POP DUP2 ADD SWAP1 PUSH2 0x101D SWAP2 SWAP1 PUSH2 0x3057 JUMP JUMPDEST POP SWAP1 POP PUSH1 0x0 DUP2 GT PUSH2 0x1070 JUMPI PUSH1 0x40 MLOAD PUSH3 0x461BCD PUSH1 0xE5 SHL DUP2 MSTORE PUSH1 0x20 PUSH1 0x4 DUP3 ADD MSTORE PUSH1 0x1B PUSH1 0x24 DUP3 ADD MSTORE PUSH32 0x434242433A20494C4C4547414C5F534554544C455F50524943452E0000000000 PUSH1 0x44 DUP3 ADD MSTORE PUSH1 0x64 ADD PUSH2 0x48E JUMP JUMPDEST PUSH1 0x0 DUP4 PUSH1 0x1 PUSH1 0x1 PUSH1 0xA0 SHL SUB AND PUSH4 0x18160DDD PUSH1 0x40 MLOAD DUP2 PUSH4 0xFFFFFFFF AND PUSH1 0xE0 SHL DUP2 MSTORE PUSH1 0x4 ADD PUSH1 0x20 PUSH1 0x40 MLOAD DUP1 DUP4 SUB DUP2 DUP7 DUP1 EXTCODESIZE ISZERO DUP1 ISZERO PUSH2 0x10AB JUMPI PUSH1 0x0 DUP1 REVERT JUMPDEST POP GAS STATICCALL ISZERO DUP1 ISZERO PUSH2 0x10BF JUMPI RETURNDATASIZE PUSH1 0x0 DUP1 RETURNDATACOPY RETURNDATASIZE PUSH1 0x0 REVERT JUMPDEST POP POP POP POP PUSH1 0x40 MLOAD RETURNDATASIZE PUSH1 0x1F NOT PUSH1 0x1F DUP3 ADD AND DUP3 ADD DUP1 PUSH1 0x40 MSTORE POP DUP2 ADD SWAP1 PUSH2 0x10E3 SWAP2 SWAP1 PUSH2 0x303F JUMP JUMPDEST SWAP1 POP DUP1 ISZERO PUSH2 0x1120 JUMPI PUSH1 0x0 DUP3 PUSH2 0x10FC DUP7 PUSH1 0x0 DUP1 PUSH1 0x1 PUSH2 0x189E JUMP JUMPDEST PUSH2 0x1106 SWAP1 DUP5 PUSH2 0x32A8 JUMP JUMPDEST PUSH2 0x1110 SWAP2 SWAP1 PUSH2 0x3171 JUMP JUMPDEST SWAP1 POP PUSH2 0x111C DUP2 DUP8 PUSH2 0x3159 JUMP JUMPDEST SWAP6 POP POP JUMPDEST POP POP DUP1 DUP1 PUSH2 0x112D SWAP1 PUSH2 0x330E JUMP JUMPDEST SWAP2 POP POP PUSH2 0xE8D JUMP JUMPDEST POP SWAP1 SWAP4 POP POP POP POP SWAP1 JUMP JUMPDEST PUSH1 0x6E SLOAD PUSH1 0x1 EQ PUSH2 0x1161 JUMPI PUSH1 0x40 MLOAD PUSH3 0x461BCD PUSH1 0xE5 SHL DUP2 MSTORE PUSH1 0x4 ADD PUSH2 0x48E SWAP1 PUSH2 0x30E5 JUMP JUMPDEST PUSH1 0x0 PUSH1 0x6E SSTORE PUSH1 0x6C SLOAD PUSH1 0x40 DUP1 MLOAD PUSH4 0xE9C29D7 PUSH1 0xE3 SHL DUP2 MSTORE SWAP1 MLOAD PUSH1 0x1 PUSH1 0x1 PUSH1 0xA0 SHL SUB SWAP1 SWAP3 AND SWAP2 DUP3 SWAP2 CALLER SWAP2 PUSH4 0x74E14EB8 SWAP2 PUSH1 0x4 DUP1 DUP3 ADD SWAP3 PUSH1 0x20 SWAP3 SWAP1 SWAP2 SWAP1 DUP3 SWAP1 SUB ADD DUP2 DUP7 DUP1 EXTCODESIZE ISZERO DUP1 ISZERO PUSH2 0x11AF JUMPI PUSH1 0x0 DUP1 REVERT JUMPDEST POP GAS STATICCALL ISZERO DUP1 ISZERO PUSH2 0x11C3 JUMPI RETURNDATASIZE PUSH1 0x0 DUP1 RETURNDATACOPY RETURNDATASIZE PUSH1 0x0 REVERT JUMPDEST POP POP POP POP PUSH1 0x40 MLOAD RETURNDATASIZE PUSH1 0x1F NOT PUSH1 0x1F DUP3 ADD AND DUP3 ADD DUP1 PUSH1 0x40 MSTORE POP DUP2 ADD SWAP1 PUSH2 0x11E7 SWAP2 SWAP1 PUSH2 0x2DF8 JUMP JUMPDEST PUSH1 0x1 PUSH1 0x1 PUSH1 0xA0 SHL SUB AND EQ PUSH2 0x123D JUMPI PUSH1 0x40 MLOAD PUSH3 0x461BCD PUSH1 0xE5 SHL DUP2 MSTORE PUSH1 0x20 PUSH1 0x4 DUP3 ADD MSTORE PUSH1 0x19 PUSH1 0x24 DUP3 ADD MSTORE PUSH32 0x434242433A2057524F4E475F534554544C455F544F4B454E2E00000000000000 PUSH1 0x44 DUP3 ADD MSTORE PUSH1 0x64 ADD PUSH2 0x48E JUMP JUMPDEST PUSH2 0x1248 DUP2 DUP5 DUP5 PUSH2 0x175B JUMP JUMPDEST POP POP PUSH1 0x1 PUSH1 0x6E SSTORE POP JUMP JUMPDEST TIMESTAMP DUP5 LT ISZERO PUSH2 0x1297 JUMPI PUSH1 0x40 MLOAD PUSH3 0x461BCD PUSH1 0xE5 SHL DUP2 MSTORE PUSH1 0x20 PUSH1 0x4 DUP3 ADD MSTORE PUSH1 0x12 PUSH1 0x24 DUP3 ADD MSTORE PUSH18 0x155B9A5CDDD85C158C8E8811561412549151 PUSH1 0x72 SHL PUSH1 0x44 DUP3 ADD MSTORE PUSH1 0x64 ADD PUSH2 0x48E JUMP JUMPDEST PUSH1 0x69 SLOAD PUSH1 0x1 PUSH1 0x1 PUSH1 0xA0 SHL SUB DUP9 AND PUSH1 0x0 SWAP1 DUP2 MSTORE PUSH1 0x6A PUSH1 0x20 MSTORE PUSH1 0x40 DUP2 KECCAK256 DUP1 SLOAD SWAP2 SWAP3 SWAP2 PUSH32 0x6E71EDAE12B1B97F4D1F60370FEF10105FA2FAAE0126114A169C64845D6126C9 SWAP2 DUP12 SWAP2 DUP12 SWAP2 DUP12 SWAP2 SWAP1 DUP8 PUSH2 0x12EA DUP4 PUSH2 0x330E JUMP JUMPDEST SWAP1 SWAP2 SSTORE POP PUSH1 0x40 DUP1 MLOAD PUSH1 0x20 DUP2 ADD SWAP7 SWAP1 SWAP7 MSTORE PUSH1 0x1 PUSH1 0x1 PUSH1 0xA0 SHL SUB SWAP5 DUP6 AND SWAP1 DUP7 ADD MSTORE SWAP3 SWAP1 SWAP2 AND PUSH1 0x60 DUP5 ADD MSTORE PUSH1 0x80 DUP4 ADD MSTORE PUSH1 0xA0 DUP3 ADD MSTORE PUSH1 0xC0 DUP2 ADD DUP8 SWAP1 MSTORE PUSH1 0xE0 ADD PUSH1 0x40 MLOAD PUSH1 0x20 DUP2 DUP4 SUB SUB DUP2 MSTORE SWAP1 PUSH1 0x40 MSTORE DUP1 MLOAD SWAP1 PUSH1 0x20 ADD KECCAK256 PUSH1 0x40 MLOAD PUSH1 0x20 ADD PUSH2 0x1363 SWAP3 SWAP2 SWAP1 PUSH2 0x1901 PUSH1 0xF0 SHL DUP2 MSTORE PUSH1 0x2 DUP2 ADD SWAP3 SWAP1 SWAP3 MSTORE PUSH1 0x22 DUP3 ADD MSTORE PUSH1 0x42 ADD SWAP1 JUMP JUMPDEST PUSH1 0x40 DUP1 MLOAD PUSH1 0x1F NOT DUP2 DUP5 SUB ADD DUP2 MSTORE DUP3 DUP3 MSTORE DUP1 MLOAD PUSH1 0x20 SWAP2 DUP3 ADD KECCAK256 PUSH1 0x0 DUP1 DUP6 MSTORE SWAP2 DUP5 ADD DUP1 DUP5 MSTORE DUP2 SWAP1 MSTORE PUSH1 0xFF DUP9 AND SWAP3 DUP5 ADD SWAP3 SWAP1 SWAP3 MSTORE PUSH1 0x60 DUP4 ADD DUP7 SWAP1 MSTORE PUSH1 0x80 DUP4 ADD DUP6 SWAP1 MSTORE SWAP1 SWAP3 POP SWAP1 PUSH1 0x1 SWAP1 PUSH1 0xA0 ADD PUSH1 0x20 PUSH1 0x40 MLOAD PUSH1 0x20 DUP2 SUB SWAP1 DUP1 DUP5 SUB SWAP1 DUP6 GAS STATICCALL ISZERO DUP1 ISZERO PUSH2 0x13CE JUMPI RETURNDATASIZE PUSH1 0x0 DUP1 RETURNDATACOPY RETURNDATASIZE PUSH1 0x0 REVERT JUMPDEST POP POP PUSH1 0x40 MLOAD PUSH1 0x1F NOT ADD MLOAD SWAP2 POP POP PUSH1 0x1 PUSH1 0x1 PUSH1 0xA0 SHL SUB DUP2 AND ISZERO DUP1 ISZERO SWAP1 PUSH2 0x1404 JUMPI POP DUP9 PUSH1 0x1 PUSH1 0x1 PUSH1 0xA0 SHL SUB AND DUP2 PUSH1 0x1 PUSH1 0x1 PUSH1 0xA0 SHL SUB AND EQ JUMPDEST PUSH2 0x1450 JUMPI PUSH1 0x40 MLOAD PUSH3 0x461BCD PUSH1 0xE5 SHL DUP2 MSTORE PUSH1 0x20 PUSH1 0x4 DUP3 ADD MSTORE PUSH1 0x1C PUSH1 0x24 DUP3 ADD MSTORE PUSH32 0x556E697377617056323A20494E56414C49445F5349474E415455524500000000 PUSH1 0x44 DUP3 ADD MSTORE PUSH1 0x64 ADD PUSH2 0x48E JUMP JUMPDEST PUSH2 0x145B DUP10 DUP10 DUP10 PUSH2 0x148F JUMP JUMPDEST POP POP POP POP POP POP POP POP POP JUMP JUMPDEST PUSH2 0x147A PUSH1 0x33 SLOAD PUSH1 0x1 PUSH1 0x1 PUSH1 0xA0 SHL SUB AND CALLER EQ SWAP1 JUMP JUMPDEST PUSH2 0x1483 JUMPI PUSH1 0x0 DUP1 REVERT JUMPDEST PUSH2 0x148C DUP2 PUSH2 0x250C JUMP JUMPDEST POP JUMP JUMPDEST PUSH1 0x1 PUSH1 0x1 PUSH1 0xA0 SHL SUB DUP4 DUP2 AND PUSH1 0x0 DUP2 DUP2 MSTORE PUSH1 0x68 PUSH1 0x20 SWAP1 DUP2 MSTORE PUSH1 0x40 DUP1 DUP4 KECCAK256 SWAP5 DUP8 AND DUP1 DUP5 MSTORE SWAP5 DUP3 MSTORE SWAP2 DUP3 SWAP1 KECCAK256 DUP6 SWAP1 SSTORE SWAP1 MLOAD DUP5 DUP2 MSTORE PUSH32 0x8C5BE1E5EBEC7D5BD14F71427D1E84F3DD0314C0F7B2291E5B200AC8C7C3B925 SWAP2 ADD JUMPDEST PUSH1 0x40 MLOAD DUP1 SWAP2 SUB SWAP1 LOG3 POP POP POP JUMP JUMPDEST PUSH1 0x1 PUSH1 0x1 PUSH1 0xA0 SHL SUB DUP4 AND PUSH1 0x0 SWAP1 DUP2 MSTORE PUSH1 0x67 PUSH1 0x20 MSTORE PUSH1 0x40 DUP2 KECCAK256 DUP1 SLOAD DUP4 SWAP3 SWAP1 PUSH2 0x1519 SWAP1 DUP5 SWAP1 PUSH2 0x32C7 JUMP JUMPDEST SWAP1 SWAP2 SSTORE POP POP PUSH1 0x1 PUSH1 0x1 PUSH1 0xA0 SHL SUB DUP3 AND PUSH1 0x0 SWAP1 DUP2 MSTORE PUSH1 0x67 PUSH1 0x20 MSTORE PUSH1 0x40 DUP2 KECCAK256 DUP1 SLOAD DUP4 SWAP3 SWAP1 PUSH2 0x1546 SWAP1 DUP5 SWAP1 PUSH2 0x3159 JUMP JUMPDEST SWAP3 POP POP DUP2 SWAP1 SSTORE POP DUP2 PUSH1 0x1 PUSH1 0x1 PUSH1 0xA0 SHL SUB AND DUP4 PUSH1 0x1 PUSH1 0x1 PUSH1 0xA0 SHL SUB AND PUSH32 0xDDF252AD1BE2C89B69C2B068FC378DAA952BA7F163C4A11628F55A4DF523B3EF DUP4 PUSH1 0x40 MLOAD PUSH2 0x14E4 SWAP2 DUP2 MSTORE PUSH1 0x20 ADD SWAP1 JUMP JUMPDEST DUP1 PUSH1 0x66 PUSH1 0x0 DUP3 DUP3 SLOAD PUSH2 0x15A4 SWAP2 SWAP1 PUSH2 0x3159 JUMP JUMPDEST SWAP1 SWAP2 SSTORE POP POP PUSH1 0x1 PUSH1 0x1 PUSH1 0xA0 SHL SUB DUP3 AND PUSH1 0x0 SWAP1 DUP2 MSTORE PUSH1 0x67 PUSH1 0x20 MSTORE PUSH1 0x40 DUP2 KECCAK256 DUP1 SLOAD DUP4 SWAP3 SWAP1 PUSH2 0x15D1 SWAP1 DUP5 SWAP1 PUSH2 0x3159 JUMP JUMPDEST SWAP1 SWAP2 SSTORE POP POP PUSH1 0x40 MLOAD DUP2 DUP2 MSTORE PUSH1 0x1 PUSH1 0x1 PUSH1 0xA0 SHL SUB DUP4 AND SWAP1 PUSH1 0x0 SWAP1 PUSH32 0xDDF252AD1BE2C89B69C2B068FC378DAA952BA7F163C4A11628F55A4DF523B3EF SWAP1 PUSH1 0x20 ADD JUMPDEST PUSH1 0x40 MLOAD DUP1 SWAP2 SUB SWAP1 LOG3 POP POP JUMP JUMPDEST PUSH1 0x0 PUSH1 0x14 PUSH2 0x162B DUP4 PUSH1 0x13 PUSH2 0x32A8 JUMP JUMPDEST PUSH2 0x1635 SWAP2 SWAP1 PUSH2 0x3171 JUMP JUMPDEST DUP4 GT PUSH2 0x1642 JUMPI POP DUP2 PUSH2 0x16B1 JUMP JUMPDEST PUSH2 0x164D DUP4 PUSH1 0x64 PUSH2 0x32A8 JUMP JUMPDEST PUSH1 0x14 PUSH2 0x165A DUP5 PUSH1 0x13 PUSH2 0x32A8 JUMP JUMPDEST PUSH2 0x1664 SWAP2 SWAP1 PUSH2 0x3171 JUMP JUMPDEST PUSH2 0x166E SWAP1 DUP6 PUSH2 0x32C7 JUMP JUMPDEST PUSH2 0x1678 SWAP1 DUP5 PUSH2 0x32A8 JUMP JUMPDEST PUSH2 0x1683 SWAP1 PUSH1 0x4 PUSH2 0x32A8 JUMP JUMPDEST PUSH2 0x168D SWAP2 SWAP1 PUSH2 0x3171 JUMP JUMPDEST PUSH1 0x14 PUSH2 0x169A DUP5 PUSH1 0x13 PUSH2 0x32A8 JUMP JUMPDEST PUSH2 0x16A4 SWAP2 SWAP1 PUSH2 0x3171 JUMP JUMPDEST PUSH2 0x16AE SWAP2 SWAP1 PUSH2 0x3159 JUMP JUMPDEST SWAP1 POP JUMPDEST DUP2 DUP4 LT DUP1 PUSH2 0x16BD JUMPI POP DUP2 ISZERO JUMPDEST PUSH2 0x561 JUMPI PUSH4 0x4E487B71 PUSH1 0xE0 SHL PUSH1 0x0 MSTORE PUSH1 0x1 PUSH1 0x4 MSTORE PUSH1 0x24 PUSH1 0x0 REVERT JUMPDEST PUSH1 0x1 PUSH1 0x1 PUSH1 0xA0 SHL SUB DUP3 AND PUSH1 0x0 SWAP1 DUP2 MSTORE PUSH1 0x67 PUSH1 0x20 MSTORE PUSH1 0x40 DUP2 KECCAK256 DUP1 SLOAD DUP4 SWAP3 SWAP1 PUSH2 0x16FF SWAP1 DUP5 SWAP1 PUSH2 0x32C7 JUMP JUMPDEST SWAP3 POP POP DUP2 SWAP1 SSTORE POP DUP1 PUSH1 0x66 PUSH1 0x0 DUP3 DUP3 SLOAD PUSH2 0x1718 SWAP2 SWAP1 PUSH2 0x32C7 JUMP JUMPDEST SWAP1 SWAP2 SSTORE POP POP PUSH1 0x40 MLOAD DUP2 DUP2 MSTORE PUSH1 0x0 SWAP1 PUSH1 0x1 PUSH1 0x1 PUSH1 0xA0 SHL SUB DUP5 AND SWAP1 PUSH32 0xDDF252AD1BE2C89B69C2B068FC378DAA952BA7F163C4A11628F55A4DF523B3EF SWAP1 PUSH1 0x20 ADD PUSH2 0x1610 JUMP JUMPDEST PUSH1 0x40 DUP1 MLOAD DUP1 DUP3 ADD DUP3 MSTORE PUSH1 0x19 DUP2 MSTORE PUSH32 0x7472616E7366657228616464726573732C75696E743235362900000000000000 PUSH1 0x20 SWAP2 DUP3 ADD MSTORE DUP2 MLOAD PUSH1 0x1 PUSH1 0x1 PUSH1 0xA0 SHL SUB DUP6 DUP2 AND PUSH1 0x24 DUP4 ADD MSTORE PUSH1 0x44 DUP1 DUP4 ADD DUP7 SWAP1 MSTORE DUP5 MLOAD DUP1 DUP5 SUB SWAP1 SWAP2 ADD DUP2 MSTORE PUSH1 0x64 SWAP1 SWAP3 ADD DUP5 MSTORE SWAP2 DUP2 ADD DUP1 MLOAD PUSH1 0x1 PUSH1 0x1 PUSH1 0xE0 SHL SUB AND PUSH4 0xA9059CBB PUSH1 0xE0 SHL OR SWAP1 MSTORE SWAP2 MLOAD PUSH1 0x0 SWAP3 DUP4 SWAP3 DUP8 AND SWAP2 PUSH2 0x17E7 SWAP2 SWAP1 PUSH2 0x3096 JUMP JUMPDEST PUSH1 0x0 PUSH1 0x40 MLOAD DUP1 DUP4 SUB DUP2 PUSH1 0x0 DUP7 GAS CALL SWAP2 POP POP RETURNDATASIZE DUP1 PUSH1 0x0 DUP2 EQ PUSH2 0x1824 JUMPI PUSH1 0x40 MLOAD SWAP2 POP PUSH1 0x1F NOT PUSH1 0x3F RETURNDATASIZE ADD AND DUP3 ADD PUSH1 0x40 MSTORE RETURNDATASIZE DUP3 MSTORE RETURNDATASIZE PUSH1 0x0 PUSH1 0x20 DUP5 ADD RETURNDATACOPY PUSH2 0x1829 JUMP JUMPDEST PUSH1 0x60 SWAP2 POP JUMPDEST POP SWAP2 POP SWAP2 POP DUP2 DUP1 ISZERO PUSH2 0x1853 JUMPI POP DUP1 MLOAD ISZERO DUP1 PUSH2 0x1853 JUMPI POP DUP1 DUP1 PUSH1 0x20 ADD SWAP1 MLOAD DUP2 ADD SWAP1 PUSH2 0x1853 SWAP2 SWAP1 PUSH2 0x3000 JUMP JUMPDEST PUSH2 0x1897 JUMPI PUSH1 0x40 MLOAD PUSH3 0x461BCD PUSH1 0xE5 SHL DUP2 MSTORE PUSH1 0x20 PUSH1 0x4 DUP3 ADD MSTORE PUSH1 0x15 PUSH1 0x24 DUP3 ADD MSTORE PUSH21 0x10D09090CE881514905394D1915497D19052531151 PUSH1 0x5A SHL PUSH1 0x44 DUP3 ADD MSTORE PUSH1 0x64 ADD PUSH2 0x48E JUMP JUMPDEST POP POP POP POP POP JUMP JUMPDEST PUSH1 0x0 DUP4 ISZERO DUP1 PUSH2 0x18AB JUMPI POP DUP3 ISZERO JUMPDEST PUSH2 0x1903 JUMPI PUSH1 0x40 MLOAD PUSH3 0x461BCD PUSH1 0xE5 SHL DUP2 MSTORE PUSH1 0x20 PUSH1 0x4 DUP3 ADD MSTORE PUSH1 0x24 DUP1 DUP3 ADD MSTORE PUSH32 0x434242433A204255595F414E445F53454C4C5F41545F5448455F53414D455F54 PUSH1 0x44 DUP3 ADD MSTORE PUSH4 0x24A6A297 PUSH1 0xE1 SHL PUSH1 0x64 DUP3 ADD MSTORE PUSH1 0x84 ADD PUSH2 0x48E JUMP JUMPDEST PUSH2 0x192E PUSH1 0x40 MLOAD DUP1 PUSH1 0x80 ADD PUSH1 0x40 MSTORE DUP1 PUSH1 0x0 DUP2 MSTORE PUSH1 0x20 ADD PUSH1 0x0 DUP2 MSTORE PUSH1 0x20 ADD PUSH1 0x0 DUP2 MSTORE PUSH1 0x20 ADD PUSH1 0x0 DUP2 MSTORE POP SWAP1 JUMP JUMPDEST PUSH2 0x196E PUSH1 0x40 MLOAD DUP1 PUSH1 0xE0 ADD PUSH1 0x40 MSTORE DUP1 PUSH1 0x0 DUP2 MSTORE PUSH1 0x20 ADD PUSH1 0x0 DUP2 MSTORE PUSH1 0x20 ADD PUSH1 0x0 DUP2 MSTORE PUSH1 0x20 ADD PUSH1 0x0 DUP2 MSTORE PUSH1 0x20 ADD PUSH1 0x0 DUP2 MSTORE PUSH1 0x20 ADD PUSH1 0x0 DUP2 MSTORE PUSH1 0x20 ADD PUSH1 0x0 DUP2 MSTORE POP SWAP1 JUMP JUMPDEST PUSH1 0x40 DUP1 MLOAD PUSH1 0xC0 DUP2 ADD DUP3 MSTORE PUSH1 0x0 DUP1 DUP3 MSTORE PUSH1 0x20 DUP3 ADD DUP2 SWAP1 MSTORE SWAP2 DUP2 ADD DUP3 SWAP1 MSTORE PUSH1 0x60 DUP2 ADD DUP3 SWAP1 MSTORE PUSH1 0x80 DUP2 ADD DUP3 SWAP1 MSTORE PUSH1 0xA0 DUP2 ADD SWAP2 SWAP1 SWAP2 MSTORE DUP8 PUSH1 0x1 PUSH1 0x1 PUSH1 0xA0 SHL SUB AND PUSH4 0xC45A0155 PUSH1 0x40 MLOAD DUP2 PUSH4 0xFFFFFFFF AND PUSH1 0xE0 SHL DUP2 MSTORE PUSH1 0x4 ADD PUSH1 0x20 PUSH1 0x40 MLOAD DUP1 DUP4 SUB DUP2 DUP7 DUP1 EXTCODESIZE ISZERO DUP1 ISZERO PUSH2 0x19D9 JUMPI PUSH1 0x0 DUP1 REVERT JUMPDEST POP GAS STATICCALL ISZERO DUP1 ISZERO PUSH2 0x19ED JUMPI RETURNDATASIZE PUSH1 0x0 DUP1 RETURNDATACOPY RETURNDATASIZE PUSH1 0x0 REVERT JUMPDEST POP POP POP POP PUSH1 0x40 MLOAD RETURNDATASIZE PUSH1 0x1F NOT PUSH1 0x1F DUP3 ADD AND DUP3 ADD DUP1 PUSH1 0x40 MSTORE POP DUP2 ADD SWAP1 PUSH2 0x1A11 SWAP2 SWAP1 PUSH2 0x2DF8 JUMP JUMPDEST PUSH1 0x1 PUSH1 0x1 PUSH1 0xA0 SHL SUB SWAP1 DUP2 AND DUP3 MSTORE PUSH1 0x40 DUP1 MLOAD PUSH4 0xE9C29D7 PUSH1 0xE3 SHL DUP2 MSTORE SWAP1 MLOAD SWAP2 DUP11 AND SWAP2 PUSH4 0x74E14EB8 SWAP2 PUSH1 0x4 DUP1 DUP3 ADD SWAP3 PUSH1 0x20 SWAP3 SWAP1 SWAP2 SWAP1 DUP3 SWAP1 SUB ADD DUP2 DUP7 DUP1 EXTCODESIZE ISZERO DUP1 ISZERO PUSH2 0x1A58 JUMPI PUSH1 0x0 DUP1 REVERT JUMPDEST POP GAS STATICCALL ISZERO DUP1 ISZERO PUSH2 0x1A6C JUMPI RETURNDATASIZE PUSH1 0x0 DUP1 RETURNDATACOPY RETURNDATASIZE PUSH1 0x0 REVERT JUMPDEST POP POP POP POP PUSH1 0x40 MLOAD RETURNDATASIZE PUSH1 0x1F NOT PUSH1 0x1F DUP3 ADD AND DUP3 ADD DUP1 PUSH1 0x40 MSTORE POP DUP2 ADD SWAP1 PUSH2 0x1A90 SWAP2 SWAP1 PUSH2 0x2DF8 JUMP JUMPDEST DUP2 PUSH1 0x20 ADD SWAP1 PUSH1 0x1 PUSH1 0x1 PUSH1 0xA0 SHL SUB AND SWAP1 DUP2 PUSH1 0x1 PUSH1 0x1 PUSH1 0xA0 SHL SUB AND DUP2 MSTORE POP POP DUP8 PUSH1 0x1 PUSH1 0x1 PUSH1 0xA0 SHL SUB AND PUSH4 0xD83678AC PUSH1 0x40 MLOAD DUP2 PUSH4 0xFFFFFFFF AND PUSH1 0xE0 SHL DUP2 MSTORE PUSH1 0x4 ADD PUSH1 0x20 PUSH1 0x40 MLOAD DUP1 DUP4 SUB DUP2 DUP7 DUP1 EXTCODESIZE ISZERO DUP1 ISZERO PUSH2 0x1AE6 JUMPI PUSH1 0x0 DUP1 REVERT JUMPDEST POP GAS STATICCALL ISZERO DUP1 ISZERO PUSH2 0x1AFA JUMPI RETURNDATASIZE PUSH1 0x0 DUP1 RETURNDATACOPY RETURNDATASIZE PUSH1 0x0 REVERT JUMPDEST POP POP POP POP PUSH1 0x40 MLOAD RETURNDATASIZE PUSH1 0x1F NOT PUSH1 0x1F DUP3 ADD AND DUP3 ADD DUP1 PUSH1 0x40 MSTORE POP DUP2 ADD SWAP1 PUSH2 0x1B1E SWAP2 SWAP1 PUSH2 0x2DF8 JUMP JUMPDEST DUP2 PUSH1 0x40 ADD SWAP1 PUSH1 0x1 PUSH1 0x1 PUSH1 0xA0 SHL SUB AND SWAP1 DUP2 PUSH1 0x1 PUSH1 0x1 PUSH1 0xA0 SHL SUB AND DUP2 MSTORE POP POP DUP8 PUSH1 0x1 PUSH1 0x1 PUSH1 0xA0 SHL SUB AND PUSH4 0x2C86D98E PUSH1 0x40 MLOAD DUP2 PUSH4 0xFFFFFFFF AND PUSH1 0xE0 SHL DUP2 MSTORE PUSH1 0x4 ADD PUSH1 0x20 PUSH1 0x40 MLOAD DUP1 DUP4 SUB DUP2 DUP7 DUP1 EXTCODESIZE ISZERO DUP1 ISZERO PUSH2 0x1B74 JUMPI PUSH1 0x0 DUP1 REVERT JUMPDEST POP GAS STATICCALL ISZERO DUP1 ISZERO PUSH2 0x1B88 JUMPI RETURNDATASIZE PUSH1 0x0 DUP1 RETURNDATACOPY RETURNDATASIZE PUSH1 0x0 REVERT JUMPDEST POP POP POP POP PUSH1 0x40 MLOAD RETURNDATASIZE PUSH1 0x1F NOT PUSH1 0x1F DUP3 ADD AND DUP3 ADD DUP1 PUSH1 0x40 MSTORE POP DUP2 ADD SWAP1 PUSH2 0x1BAC SWAP2 SWAP1 PUSH2 0x307A JUMP JUMPDEST PUSH1 0xFF AND DUP2 PUSH1 0x60 ADD DUP2 DUP2 MSTORE POP POP DUP8 PUSH1 0x1 PUSH1 0x1 PUSH1 0xA0 SHL SUB AND PUSH4 0x3C974946 PUSH1 0x40 MLOAD DUP2 PUSH4 0xFFFFFFFF AND PUSH1 0xE0 SHL DUP2 MSTORE PUSH1 0x4 ADD PUSH1 0x20 PUSH1 0x40 MLOAD DUP1 DUP4 SUB DUP2 DUP7 DUP1 EXTCODESIZE ISZERO DUP1 ISZERO PUSH2 0x1BF1 JUMPI PUSH1 0x0 DUP1 REVERT JUMPDEST POP GAS STATICCALL ISZERO DUP1 ISZERO PUSH2 0x1C05 JUMPI RETURNDATASIZE PUSH1 0x0 DUP1 RETURNDATACOPY RETURNDATASIZE PUSH1 0x0 REVERT JUMPDEST POP POP POP POP PUSH1 0x40 MLOAD RETURNDATASIZE PUSH1 0x1F NOT PUSH1 0x1F DUP3 ADD AND DUP3 ADD DUP1 PUSH1 0x40 MSTORE POP DUP2 ADD SWAP1 PUSH2 0x1C29 SWAP2 SWAP1 PUSH2 0x3020 JUMP JUMPDEST DUP2 PUSH1 0x80 ADD SWAP1 PUSH1 0x1 DUP2 GT ISZERO PUSH2 0x1C4D JUMPI PUSH4 0x4E487B71 PUSH1 0xE0 SHL PUSH1 0x0 MSTORE PUSH1 0x21 PUSH1 0x4 MSTORE PUSH1 0x24 PUSH1 0x0 REVERT JUMPDEST SWAP1 DUP2 PUSH1 0x1 DUP2 GT ISZERO PUSH2 0x1C6E JUMPI PUSH4 0x4E487B71 PUSH1 0xE0 SHL PUSH1 0x0 MSTORE PUSH1 0x21 PUSH1 0x4 MSTORE PUSH1 0x24 PUSH1 0x0 REVERT JUMPDEST DUP2 MSTORE POP POP DUP8 PUSH1 0x1 PUSH1 0x1 PUSH1 0xA0 SHL SUB AND PUSH4 0xBBB1863A PUSH1 0x40 MLOAD DUP2 PUSH4 0xFFFFFFFF AND PUSH1 0xE0 SHL DUP2 MSTORE PUSH1 0x4 ADD PUSH1 0x20 PUSH1 0x40 MLOAD DUP1 DUP4 SUB DUP2 DUP7 DUP1 EXTCODESIZE ISZERO DUP1 ISZERO PUSH2 0x1CAB JUMPI PUSH1 0x0 DUP1 REVERT JUMPDEST POP GAS STATICCALL ISZERO DUP1 ISZERO PUSH2 0x1CBF JUMPI RETURNDATASIZE PUSH1 0x0 DUP1 RETURNDATACOPY RETURNDATASIZE PUSH1 0x0 REVERT JUMPDEST POP POP POP POP PUSH1 0x40 MLOAD RETURNDATASIZE PUSH1 0x1F NOT PUSH1 0x1F DUP3 ADD AND DUP3 ADD DUP1 PUSH1 0x40 MSTORE POP DUP2 ADD SWAP1 PUSH2 0x1CE3 SWAP2 SWAP1 PUSH2 0x2DF8 JUMP JUMPDEST PUSH1 0x1 PUSH1 0x1 PUSH1 0xA0 SHL SUB AND PUSH4 0x60961528 PUSH1 0x40 MLOAD DUP2 PUSH4 0xFFFFFFFF AND PUSH1 0xE0 SHL DUP2 MSTORE PUSH1 0x4 ADD PUSH1 0x20 PUSH1 0x40 MLOAD DUP1 DUP4 SUB DUP2 DUP7 DUP1 EXTCODESIZE ISZERO DUP1 ISZERO PUSH2 0x1D1B JUMPI PUSH1 0x0 DUP1 REVERT JUMPDEST POP GAS STATICCALL ISZERO DUP1 ISZERO PUSH2 0x1D2F JUMPI RETURNDATASIZE PUSH1 0x0 DUP1 RETURNDATACOPY RETURNDATASIZE PUSH1 0x0 REVERT JUMPDEST POP POP POP POP PUSH1 0x40 MLOAD RETURNDATASIZE PUSH1 0x1F NOT PUSH1 0x1F DUP3 ADD AND DUP3 ADD DUP1 PUSH1 0x40 MSTORE POP DUP2 ADD SWAP1 PUSH2 0x1D53 SWAP2 SWAP1 PUSH2 0x2DF8 JUMP JUMPDEST DUP2 PUSH1 0xA0 ADD SWAP1 PUSH1 0x1 PUSH1 0x1 PUSH1 0xA0 SHL SUB AND SWAP1 DUP2 PUSH1 0x1 PUSH1 0x1 PUSH1 0xA0 SHL SUB AND DUP2 MSTORE POP POP DUP8 PUSH1 0x1 PUSH1 0x1 PUSH1 0xA0 SHL SUB AND PUSH4 0xDDD6F962 PUSH1 0x40 MLOAD DUP2 PUSH4 0xFFFFFFFF AND PUSH1 0xE0 SHL DUP2 MSTORE PUSH1 0x4 ADD PUSH1 0x20 PUSH1 0x40 MLOAD DUP1 DUP4 SUB DUP2 DUP7 DUP1 EXTCODESIZE ISZERO DUP1 ISZERO PUSH2 0x1DA9 JUMPI PUSH1 0x0 DUP1 REVERT JUMPDEST POP GAS STATICCALL ISZERO DUP1 ISZERO PUSH2 0x1DBD JUMPI RETURNDATASIZE PUSH1 0x0 DUP1 RETURNDATACOPY RETURNDATASIZE PUSH1 0x0 REVERT JUMPDEST POP POP POP POP PUSH1 0x40 MLOAD RETURNDATASIZE PUSH1 0x1F NOT PUSH1 0x1F DUP3 ADD AND DUP3 ADD DUP1 PUSH1 0x40 MSTORE POP DUP2 ADD SWAP1 PUSH2 0x1DE1 SWAP2 SWAP1 PUSH2 0x303F JUMP JUMPDEST DUP4 PUSH1 0x0 ADD DUP2 DUP2 MSTORE POP POP DUP8 PUSH1 0x1 PUSH1 0x1 PUSH1 0xA0 SHL SUB AND PUSH4 0x8A3809D PUSH1 0x40 MLOAD DUP2 PUSH4 0xFFFFFFFF AND PUSH1 0xE0 SHL DUP2 MSTORE PUSH1 0x4 ADD PUSH1 0x20 PUSH1 0x40 MLOAD DUP1 DUP4 SUB DUP2 DUP7 DUP1 EXTCODESIZE ISZERO DUP1 ISZERO PUSH2 0x1E23 JUMPI PUSH1 0x0 DUP1 REVERT JUMPDEST POP GAS STATICCALL ISZERO DUP1 ISZERO PUSH2 0x1E37 JUMPI RETURNDATASIZE PUSH1 0x0 DUP1 RETURNDATACOPY RETURNDATASIZE PUSH1 0x0 REVERT JUMPDEST POP POP POP POP PUSH1 0x40 MLOAD RETURNDATASIZE PUSH1 0x1F NOT PUSH1 0x1F DUP3 ADD AND DUP3 ADD DUP1 PUSH1 0x40 MSTORE POP DUP2 ADD SWAP1 PUSH2 0x1E5B SWAP2 SWAP1 PUSH2 0x303F JUMP JUMPDEST PUSH1 0x20 DUP5 ADD MSTORE TIMESTAMP PUSH1 0x60 DUP5 ADD MSTORE PUSH1 0xA0 DUP2 ADD MLOAD PUSH1 0x40 DUP1 DUP4 ADD MLOAD SWAP1 MLOAD PUSH4 0x41976E09 PUSH1 0xE0 SHL DUP2 MSTORE PUSH1 0x1 PUSH1 0x1 PUSH1 0xA0 SHL SUB SWAP2 DUP3 AND PUSH1 0x4 DUP3 ADD MSTORE SWAP2 AND SWAP1 PUSH4 0x41976E09 SWAP1 PUSH1 0x24 ADD PUSH1 0x40 DUP1 MLOAD DUP1 DUP4 SUB DUP2 DUP7 DUP1 EXTCODESIZE ISZERO DUP1 ISZERO PUSH2 0x1EB0 JUMPI PUSH1 0x0 DUP1 REVERT JUMPDEST POP GAS STATICCALL ISZERO DUP1 ISZERO PUSH2 0x1EC4 JUMPI RETURNDATASIZE PUSH1 0x0 DUP1 RETURNDATACOPY RETURNDATASIZE PUSH1 0x0 REVERT JUMPDEST POP POP POP POP PUSH1 0x40 MLOAD RETURNDATASIZE PUSH1 0x1F NOT PUSH1 0x1F DUP3 ADD AND DUP3 ADD DUP1 PUSH1 0x40 MSTORE POP DUP2 ADD SWAP1 PUSH2 0x1EE8 SWAP2 SWAP1 PUSH2 0x3057 JUMP JUMPDEST POP PUSH1 0x40 DUP5 ADD DUP2 SWAP1 MSTORE PUSH2 0x1F3C JUMPI PUSH1 0x40 MLOAD PUSH3 0x461BCD PUSH1 0xE5 SHL DUP2 MSTORE PUSH1 0x20 PUSH1 0x4 DUP3 ADD MSTORE PUSH1 0x1A PUSH1 0x24 DUP3 ADD MSTORE PUSH32 0x434242433A20494C4C4547414C5F54524144455F50524943452E000000000000 PUSH1 0x44 DUP3 ADD MSTORE PUSH1 0x64 ADD PUSH2 0x48E JUMP JUMPDEST DUP3 MLOAD PUSH2 0x1F54 JUMPI PUSH1 0x40 DUP4 ADD MLOAD DUP4 MSTORE PUSH1 0x60 DUP4 ADD MLOAD PUSH1 0x20 DUP5 ADD MSTORE JUMPDEST DUP8 PUSH1 0x1 PUSH1 0x1 PUSH1 0xA0 SHL SUB AND PUSH4 0x9FAA3C91 PUSH1 0x40 MLOAD DUP2 PUSH4 0xFFFFFFFF AND PUSH1 0xE0 SHL DUP2 MSTORE PUSH1 0x4 ADD PUSH1 0x20 PUSH1 0x40 MLOAD DUP1 DUP4 SUB DUP2 DUP7 DUP1 EXTCODESIZE ISZERO DUP1 ISZERO PUSH2 0x1F8D JUMPI PUSH1 0x0 DUP1 REVERT JUMPDEST POP GAS STATICCALL ISZERO DUP1 ISZERO PUSH2 0x1FA1 JUMPI RETURNDATASIZE PUSH1 0x0 DUP1 RETURNDATACOPY RETURNDATASIZE PUSH1 0x0 REVERT JUMPDEST POP POP POP POP PUSH1 0x40 MLOAD RETURNDATASIZE PUSH1 0x1F NOT PUSH1 0x1F DUP3 ADD AND DUP3 ADD DUP1 PUSH1 0x40 MSTORE POP DUP2 ADD SWAP1 PUSH2 0x1FC5 SWAP2 SWAP1 PUSH2 0x303F JUMP JUMPDEST DUP3 PUSH1 0x0 ADD DUP2 DUP2 MSTORE POP POP DUP1 PUSH1 0x0 ADD MLOAD PUSH1 0x1 PUSH1 0x1 PUSH1 0xA0 SHL SUB AND PUSH4 0x88E97C3C PUSH1 0x40 MLOAD DUP2 PUSH4 0xFFFFFFFF AND PUSH1 0xE0 SHL DUP2 MSTORE PUSH1 0x4 ADD PUSH1 0x20 PUSH1 0x40 MLOAD DUP1 DUP4 SUB DUP2 DUP7 DUP1 EXTCODESIZE ISZERO DUP1 ISZERO PUSH2 0x200B JUMPI PUSH1 0x0 DUP1 REVERT JUMPDEST POP GAS STATICCALL ISZERO DUP1 ISZERO PUSH2 0x201F JUMPI RETURNDATASIZE PUSH1 0x0 DUP1 RETURNDATACOPY RETURNDATASIZE PUSH1 0x0 REVERT JUMPDEST POP POP POP POP PUSH1 0x40 MLOAD RETURNDATASIZE PUSH1 0x1F NOT PUSH1 0x1F DUP3 ADD AND DUP3 ADD DUP1 PUSH1 0x40 MSTORE POP DUP2 ADD SWAP1 PUSH2 0x2043 SWAP2 SWAP1 PUSH2 0x303F JUMP JUMPDEST DUP3 PUSH1 0x20 ADD DUP2 DUP2 MSTORE POP POP DUP1 PUSH1 0x0 ADD MLOAD PUSH1 0x1 PUSH1 0x1 PUSH1 0xA0 SHL SUB AND PUSH4 0xCBD17C67 PUSH1 0x40 MLOAD DUP2 PUSH4 0xFFFFFFFF AND PUSH1 0xE0 SHL DUP2 MSTORE PUSH1 0x4 ADD PUSH1 0x20 PUSH1 0x40 MLOAD DUP1 DUP4 SUB DUP2 DUP7 DUP1 EXTCODESIZE ISZERO DUP1 ISZERO PUSH2 0x2089 JUMPI PUSH1 0x0 DUP1 REVERT JUMPDEST POP GAS STATICCALL ISZERO DUP1 ISZERO PUSH2 0x209D JUMPI RETURNDATASIZE PUSH1 0x0 DUP1 RETURNDATACOPY RETURNDATASIZE PUSH1 0x0 REVERT JUMPDEST POP POP POP POP PUSH1 0x40 MLOAD RETURNDATASIZE PUSH1 0x1F NOT PUSH1 0x1F DUP3 ADD AND DUP3 ADD DUP1 PUSH1 0x40 MSTORE POP DUP2 ADD SWAP1 PUSH2 0x20C1 SWAP2 SWAP1 PUSH2 0x303F JUMP JUMPDEST PUSH1 0x40 DUP1 DUP5 ADD SWAP2 SWAP1 SWAP2 MSTORE PUSH1 0xA0 DUP3 ADD MLOAD DUP3 DUP3 ADD MLOAD SWAP2 MLOAD PUSH4 0x4094F10B PUSH1 0xE0 SHL DUP2 MSTORE PUSH1 0x1 PUSH1 0x1 PUSH1 0xA0 SHL SUB SWAP3 DUP4 AND PUSH1 0x4 DUP3 ADD MSTORE SWAP2 AND SWAP1 PUSH4 0x4094F10B SWAP1 PUSH1 0x24 ADD PUSH1 0x20 PUSH1 0x40 MLOAD DUP1 DUP4 SUB DUP2 DUP7 DUP1 EXTCODESIZE ISZERO DUP1 ISZERO PUSH2 0x2113 JUMPI PUSH1 0x0 DUP1 REVERT JUMPDEST POP GAS STATICCALL ISZERO DUP1 ISZERO PUSH2 0x2127 JUMPI RETURNDATASIZE PUSH1 0x0 DUP1 RETURNDATACOPY RETURNDATASIZE PUSH1 0x0 REVERT JUMPDEST POP POP POP POP PUSH1 0x40 MLOAD RETURNDATASIZE PUSH1 0x1F NOT PUSH1 0x1F DUP3 ADD AND DUP3 ADD DUP1 PUSH1 0x40 MSTORE POP DUP2 ADD SWAP1 PUSH2 0x214B SWAP2 SWAP1 PUSH2 0x303F JUMP JUMPDEST PUSH1 0x60 DUP4 ADD MSTORE PUSH1 0xA0 DUP2 ADD MLOAD PUSH1 0x40 DUP1 DUP4 ADD MLOAD SWAP1 MLOAD PUSH4 0xD3EA0F89 PUSH1 0xE0 SHL DUP2 MSTORE PUSH1 0x1 PUSH1 0x1 PUSH1 0xA0 SHL SUB SWAP2 DUP3 AND PUSH1 0x4 DUP3 ADD MSTORE SWAP2 AND SWAP1 PUSH4 0xD3EA0F89 SWAP1 PUSH1 0x24 ADD PUSH1 0x20 PUSH1 0x40 MLOAD DUP1 DUP4 SUB DUP2 DUP7 DUP1 EXTCODESIZE ISZERO DUP1 ISZERO PUSH2 0x219B JUMPI PUSH1 0x0 DUP1 REVERT JUMPDEST POP GAS STATICCALL ISZERO DUP1 ISZERO PUSH2 0x21AF JUMPI RETURNDATASIZE PUSH1 0x0 DUP1 RETURNDATACOPY RETURNDATASIZE PUSH1 0x0 REVERT JUMPDEST POP POP POP POP PUSH1 0x40 MLOAD RETURNDATASIZE PUSH1 0x1F NOT PUSH1 0x1F DUP3 ADD AND DUP3 ADD DUP1 PUSH1 0x40 MSTORE POP DUP2 ADD SWAP1 PUSH2 0x21D3 SWAP2 SWAP1 PUSH2 0x303F JUMP JUMPDEST PUSH1 0x80 DUP4 ADD MSTORE PUSH1 0xA0 DUP2 ADD MLOAD PUSH1 0x40 DUP1 DUP4 ADD MLOAD SWAP1 MLOAD PUSH4 0x4189C95D PUSH1 0xE0 SHL DUP2 MSTORE PUSH1 0x1 PUSH1 0x1 PUSH1 0xA0 SHL SUB SWAP2 DUP3 AND PUSH1 0x4 DUP3 ADD MSTORE SWAP2 AND SWAP1 PUSH4 0x4189C95D SWAP1 PUSH1 0x24 ADD PUSH1 0x20 PUSH1 0x40 MLOAD DUP1 DUP4 SUB DUP2 DUP7 DUP1 EXTCODESIZE ISZERO DUP1 ISZERO PUSH2 0x2223 JUMPI PUSH1 0x0 DUP1 REVERT JUMPDEST POP GAS STATICCALL ISZERO DUP1 ISZERO PUSH2 0x2237 JUMPI RETURNDATASIZE PUSH1 0x0 DUP1 RETURNDATACOPY RETURNDATASIZE PUSH1 0x0 REVERT JUMPDEST POP POP POP POP PUSH1 0x40 MLOAD RETURNDATASIZE PUSH1 0x1F NOT PUSH1 0x1F DUP3 ADD AND DUP3 ADD DUP1 PUSH1 0x40 MSTORE POP DUP2 ADD SWAP1 PUSH2 0x225B SWAP2 SWAP1 PUSH2 0x303F JUMP JUMPDEST PUSH1 0xA0 DUP4 DUP2 ADD SWAP2 SWAP1 SWAP2 MSTORE DUP2 ADD MLOAD PUSH1 0x40 DUP1 DUP4 ADD MLOAD SWAP1 MLOAD PUSH4 0x84F4B61F PUSH1 0xE0 SHL DUP2 MSTORE PUSH1 0x1 PUSH1 0x1 PUSH1 0xA0 SHL SUB SWAP2 DUP3 AND PUSH1 0x4 DUP3 ADD MSTORE SWAP2 AND SWAP1 PUSH4 0x84F4B61F SWAP1 PUSH1 0x24 ADD PUSH1 0x20 PUSH1 0x40 MLOAD DUP1 DUP4 SUB DUP2 DUP7 DUP1 EXTCODESIZE ISZERO DUP1 ISZERO PUSH2 0x22AD JUMPI PUSH1 0x0 DUP1 REVERT JUMPDEST POP GAS STATICCALL ISZERO DUP1 ISZERO PUSH2 0x22C1 JUMPI RETURNDATASIZE PUSH1 0x0 DUP1 RETURNDATACOPY RETURNDATASIZE PUSH1 0x0 REVERT JUMPDEST POP POP POP POP PUSH1 0x40 MLOAD RETURNDATASIZE PUSH1 0x1F NOT PUSH1 0x1F DUP3 ADD AND DUP3 ADD DUP1 PUSH1 0x40 MSTORE POP DUP2 ADD SWAP1 PUSH2 0x22E5 SWAP2 SWAP1 PUSH2 0x303F JUMP JUMPDEST PUSH1 0xC0 DUP4 ADD DUP2 SWAP1 MSTORE PUSH2 0x2338 JUMPI PUSH1 0x40 MLOAD PUSH3 0x461BCD PUSH1 0xE5 SHL DUP2 MSTORE PUSH1 0x20 PUSH1 0x4 DUP3 ADD MSTORE PUSH1 0x1B PUSH1 0x24 DUP3 ADD MSTORE PUSH32 0x434242433A20494C4C4547414C5F4441494C595F564F4C554D452E0000000000 PUSH1 0x44 DUP3 ADD MSTORE PUSH1 0x64 ADD PUSH2 0x48E JUMP JUMPDEST PUSH1 0x0 DUP8 ISZERO DUP1 ISZERO PUSH2 0x2346 JUMPI POP DUP7 ISZERO JUMPDEST ISZERO PUSH2 0x2364 JUMPI PUSH2 0x2359 DUP5 DUP4 DUP6 PUSH1 0x0 DUP11 PUSH2 0x257B JUMP JUMPDEST SWAP5 POP POP POP POP POP PUSH2 0x2504 JUMP JUMPDEST PUSH1 0x0 PUSH2 0x2374 DUP6 DUP5 DUP7 PUSH1 0x0 DUP12 PUSH2 0x257B JUMP JUMPDEST SWAP1 POP PUSH1 0x0 DUP6 PUSH1 0x40 ADD MLOAD DUP5 PUSH1 0x40 ADD MLOAD PUSH1 0x1 PUSH1 0x1 PUSH1 0xA0 SHL SUB AND PUSH4 0x313CE567 PUSH1 0x40 MLOAD DUP2 PUSH4 0xFFFFFFFF AND PUSH1 0xE0 SHL DUP2 MSTORE PUSH1 0x4 ADD PUSH1 0x20 PUSH1 0x40 MLOAD DUP1 DUP4 SUB DUP2 DUP7 DUP1 EXTCODESIZE ISZERO DUP1 ISZERO PUSH2 0x23BA JUMPI PUSH1 0x0 DUP1 REVERT JUMPDEST POP GAS STATICCALL ISZERO DUP1 ISZERO PUSH2 0x23CE JUMPI RETURNDATASIZE PUSH1 0x0 DUP1 RETURNDATACOPY RETURNDATASIZE PUSH1 0x0 REVERT JUMPDEST POP POP POP POP PUSH1 0x40 MLOAD RETURNDATASIZE PUSH1 0x1F NOT PUSH1 0x1F DUP3 ADD AND DUP3 ADD DUP1 PUSH1 0x40 MSTORE POP DUP2 ADD SWAP1 PUSH2 0x23F2 SWAP2 SWAP1 PUSH2 0x307A JUMP JUMPDEST PUSH2 0x23FD SWAP1 PUSH1 0xA PUSH2 0x31D7 JUMP JUMPDEST DUP6 PUSH1 0x60 ADD MLOAD DUP12 DUP8 PUSH1 0x20 ADD MLOAD PUSH1 0x1 PUSH1 0x1 PUSH1 0xA0 SHL SUB AND PUSH4 0x313CE567 PUSH1 0x40 MLOAD DUP2 PUSH4 0xFFFFFFFF AND PUSH1 0xE0 SHL DUP2 MSTORE PUSH1 0x4 ADD PUSH1 0x20 PUSH1 0x40 MLOAD DUP1 DUP4 SUB DUP2 DUP7 DUP1 EXTCODESIZE ISZERO DUP1 ISZERO PUSH2 0x2440 JUMPI PUSH1 0x0 DUP1 REVERT JUMPDEST POP GAS STATICCALL ISZERO DUP1 ISZERO PUSH2 0x2454 JUMPI RETURNDATASIZE PUSH1 0x0 DUP1 RETURNDATACOPY RETURNDATASIZE PUSH1 0x0 REVERT JUMPDEST POP POP POP POP PUSH1 0x40 MLOAD RETURNDATASIZE PUSH1 0x1F NOT PUSH1 0x1F DUP3 ADD AND DUP3 ADD DUP1 PUSH1 0x40 MSTORE POP DUP2 ADD SWAP1 PUSH2 0x2478 SWAP2 SWAP1 PUSH2 0x307A JUMP JUMPDEST PUSH2 0x2483 SWAP1 PUSH1 0xA PUSH2 0x31D7 JUMP JUMPDEST DUP7 DUP16 PUSH8 0xDE0B6B3A7640000 PUSH2 0x2498 SWAP2 SWAP1 PUSH2 0x32A8 JUMP JUMPDEST PUSH2 0x24A2 SWAP2 SWAP1 PUSH2 0x3171 JUMP JUMPDEST PUSH2 0x24B4 SWAP1 PUSH8 0xDE0B6B3A7640000 PUSH2 0x32A8 JUMP JUMPDEST PUSH2 0x24BE SWAP2 SWAP1 PUSH2 0x3171 JUMP JUMPDEST PUSH2 0x24C8 SWAP2 SWAP1 PUSH2 0x3159 JUMP JUMPDEST PUSH2 0x24D2 SWAP2 SWAP1 PUSH2 0x32A8 JUMP JUMPDEST PUSH2 0x24DC SWAP2 SWAP1 PUSH2 0x32A8 JUMP JUMPDEST PUSH2 0x24E6 SWAP2 SWAP1 PUSH2 0x3171 JUMP JUMPDEST SWAP1 POP PUSH2 0x24F3 DUP6 DUP3 DUP11 PUSH2 0x2C89 JUMP JUMPDEST SWAP3 POP POP POP PUSH2 0x2359 DUP5 DUP4 DUP6 DUP5 DUP11 PUSH2 0x257B JUMP JUMPDEST SWAP5 SWAP4 POP POP POP POP JUMP JUMPDEST PUSH1 0x1 PUSH1 0x1 PUSH1 0xA0 SHL SUB DUP2 AND PUSH2 0x251F JUMPI PUSH1 0x0 DUP1 REVERT JUMPDEST PUSH1 0x33 SLOAD PUSH1 0x40 MLOAD PUSH1 0x1 PUSH1 0x1 PUSH1 0xA0 SHL SUB DUP1 DUP5 AND SWAP3 AND SWAP1 PUSH32 0x8BE0079C531659141344CD1FD0A4F28419497F9722A3DAAFE3B4186F6B6457E0 SWAP1 PUSH1 0x0 SWAP1 LOG3 PUSH1 0x33 DUP1 SLOAD PUSH1 0x1 PUSH1 0x1 PUSH1 0xA0 SHL SUB NOT AND PUSH1 0x1 PUSH1 0x1 PUSH1 0xA0 SHL SUB SWAP3 SWAP1 SWAP3 AND SWAP2 SWAP1 SWAP2 OR SWAP1 SSTORE JUMP JUMPDEST DUP5 MLOAD PUSH1 0x40 DUP7 ADD MLOAD PUSH1 0x60 DUP7 ADD MLOAD DUP6 MLOAD PUSH1 0x0 SWAP4 SWAP3 SWAP2 SWAP1 DUP5 DUP3 DUP6 PUSH2 0x259D DUP3 PUSH1 0x1 PUSH2 0x3159 JUMP JUMPDEST PUSH2 0x25A7 SWAP2 SWAP1 PUSH2 0x32A8 JUMP JUMPDEST PUSH2 0x25B1 SWAP2 SWAP1 PUSH2 0x3171 JUMP JUMPDEST SWAP1 POP PUSH1 0x0 DUP4 DUP7 PUSH2 0x25C2 PUSH1 0x1 DUP4 PUSH2 0x32C7 JUMP JUMPDEST PUSH2 0x25CC SWAP2 SWAP1 PUSH2 0x32A8 JUMP JUMPDEST PUSH2 0x25D6 SWAP2 SWAP1 PUSH2 0x3171 JUMP JUMPDEST SWAP1 POP PUSH1 0x0 DUP1 DUP3 DUP8 LT ISZERO PUSH2 0x25EB JUMPI DUP3 SWAP7 POP PUSH2 0x25F7 JUMP JUMPDEST DUP4 DUP8 GT ISZERO PUSH2 0x25F7 JUMPI DUP4 SWAP7 POP JUMPDEST PUSH1 0x1 DUP14 PUSH1 0x80 ADD MLOAD PUSH1 0x1 DUP2 GT ISZERO PUSH2 0x261D JUMPI PUSH4 0x4E487B71 PUSH1 0xE0 SHL PUSH1 0x0 MSTORE PUSH1 0x21 PUSH1 0x4 MSTORE PUSH1 0x24 PUSH1 0x0 REVERT JUMPDEST EQ ISZERO PUSH2 0x291E JUMPI PUSH1 0x0 DUP11 PUSH1 0x1 DUP2 GT ISZERO PUSH2 0x2645 JUMPI PUSH4 0x4E487B71 PUSH1 0xE0 SHL PUSH1 0x0 MSTORE PUSH1 0x21 PUSH1 0x4 MSTORE PUSH1 0x24 PUSH1 0x0 REVERT JUMPDEST EQ ISZERO PUSH2 0x265C JUMPI PUSH2 0x2655 DUP12 DUP9 PUSH2 0x3159 JUMP JUMPDEST SWAP7 POP PUSH2 0x2673 JUMP JUMPDEST PUSH2 0x2666 DUP12 DUP9 PUSH2 0x161C JUMP JUMPDEST PUSH2 0x2670 SWAP1 DUP9 PUSH2 0x32C7 JUMP JUMPDEST SWAP7 POP JUMPDEST PUSH1 0x0 DUP6 SGT ISZERO PUSH2 0x2729 JUMPI DUP7 PUSH2 0x2687 DUP5 DUP3 PUSH2 0x32C7 JUMP JUMPDEST PUSH2 0x2691 DUP10 DUP8 PUSH2 0x32C7 JUMP JUMPDEST PUSH2 0x269A DUP9 PUSH2 0x2D30 JUMP JUMPDEST PUSH2 0x26A4 SWAP2 SWAP1 PUSH2 0x32A8 JUMP JUMPDEST PUSH2 0x26AE SWAP2 SWAP1 PUSH2 0x32A8 JUMP JUMPDEST PUSH2 0x26B8 SWAP2 SWAP1 PUSH2 0x3171 JUMP JUMPDEST PUSH2 0x26C4 DUP9 PUSH2 0x3E8 PUSH2 0x32A8 JUMP JUMPDEST PUSH2 0x26CE SWAP2 SWAP1 PUSH2 0x3159 JUMP JUMPDEST SWAP2 POP DUP8 PUSH2 0x26DB DUP5 DUP3 PUSH2 0x32C7 JUMP JUMPDEST PUSH2 0x26E5 DUP11 DUP8 PUSH2 0x32C7 JUMP JUMPDEST PUSH2 0x26EE DUP9 PUSH2 0x2D30 JUMP JUMPDEST PUSH2 0x26F8 SWAP2 SWAP1 PUSH2 0x32A8 JUMP JUMPDEST PUSH2 0x2702 SWAP2 SWAP1 PUSH2 0x32A8 JUMP JUMPDEST PUSH2 0x270C SWAP2 SWAP1 PUSH2 0x3171 JUMP JUMPDEST PUSH2 0x2718 DUP10 PUSH2 0x3E8 PUSH2 0x32A8 JUMP JUMPDEST PUSH2 0x2722 SWAP2 SWAP1 PUSH2 0x3159 JUMP JUMPDEST SWAP1 POP PUSH2 0x27D2 JUMP JUMPDEST DUP7 PUSH2 0x2734 DUP5 DUP3 PUSH2 0x32C7 JUMP JUMPDEST PUSH2 0x273E DUP10 DUP8 PUSH2 0x32C7 JUMP JUMPDEST PUSH2 0x2747 DUP9 PUSH2 0x2D30 JUMP JUMPDEST PUSH2 0x2751 SWAP2 SWAP1 PUSH2 0x32A8 JUMP JUMPDEST PUSH2 0x275B SWAP2 SWAP1 PUSH2 0x32A8 JUMP JUMPDEST PUSH2 0x2765 SWAP2 SWAP1 PUSH2 0x3171 JUMP JUMPDEST PUSH2 0x2771 DUP9 PUSH2 0x3E8 PUSH2 0x32A8 JUMP JUMPDEST PUSH2 0x277B SWAP2 SWAP1 PUSH2 0x32C7 JUMP JUMPDEST SWAP2 POP DUP8 PUSH2 0x2788 DUP5 DUP3 PUSH2 0x32C7 JUMP JUMPDEST PUSH2 0x2792 DUP11 DUP8 PUSH2 0x32C7 JUMP JUMPDEST PUSH2 0x279B DUP9 PUSH2 0x2D30 JUMP JUMPDEST PUSH2 0x27A5 SWAP2 SWAP1 PUSH2 0x32A8 JUMP JUMPDEST PUSH2 0x27AF SWAP2 SWAP1 PUSH2 0x32A8 JUMP JUMPDEST PUSH2 0x27B9 SWAP2 SWAP1 PUSH2 0x3171 JUMP JUMPDEST PUSH2 0x27C5 DUP10 PUSH2 0x3E8 PUSH2 0x32A8 JUMP JUMPDEST PUSH2 0x27CF SWAP2 SWAP1 PUSH2 0x32C7 JUMP JUMPDEST SWAP1 POP JUMPDEST PUSH4 0x1E13380 DUP15 PUSH1 0x20 ADD MLOAD DUP16 PUSH1 0x60 ADD MLOAD PUSH2 0x27EB SWAP2 SWAP1 PUSH2 0x32C7 JUMP JUMPDEST DUP14 PUSH1 0x80 ADD MLOAD PUSH2 0x27FA SWAP2 SWAP1 PUSH2 0x32A8 JUMP JUMPDEST PUSH2 0x280A SWAP1 PUSH6 0x1CAE8C13E000 PUSH2 0x3159 JUMP JUMPDEST PUSH2 0x2815 PUSH1 0x1 DUP10 PUSH2 0x32C7 JUMP JUMPDEST PUSH2 0x2824 SWAP1 PUSH5 0xE8D4A51000 PUSH2 0x32A8 JUMP JUMPDEST PUSH2 0x282E SWAP2 SWAP1 PUSH2 0x32A8 JUMP JUMPDEST PUSH2 0x2838 SWAP2 SWAP1 PUSH2 0x3171 JUMP JUMPDEST PUSH2 0x2848 SWAP1 PUSH6 0x5AF3107A4000 PUSH2 0x3159 JUMP JUMPDEST DUP2 PUSH2 0x2853 DUP5 DUP10 PUSH2 0x32A8 JUMP JUMPDEST PUSH2 0x2865 SWAP1 PUSH8 0xDE0B6B3A7640000 PUSH2 0x32A8 JUMP JUMPDEST PUSH2 0x286F SWAP2 SWAP1 PUSH2 0x3171 JUMP JUMPDEST GT PUSH2 0x2880 JUMPI PUSH6 0x5AF3107A4000 PUSH2 0x2917 JUMP JUMPDEST PUSH4 0x1E13380 DUP15 PUSH1 0x20 ADD MLOAD DUP16 PUSH1 0x60 ADD MLOAD PUSH2 0x2899 SWAP2 SWAP1 PUSH2 0x32C7 JUMP JUMPDEST DUP14 PUSH1 0x80 ADD MLOAD PUSH2 0x28A8 SWAP2 SWAP1 PUSH2 0x32A8 JUMP JUMPDEST PUSH2 0x28B8 SWAP1 PUSH6 0x1CAE8C13E000 PUSH2 0x3159 JUMP JUMPDEST PUSH2 0x28C3 PUSH1 0x1 DUP10 PUSH2 0x32C7 JUMP JUMPDEST PUSH2 0x28D2 SWAP1 PUSH5 0xE8D4A51000 PUSH2 0x32A8 JUMP JUMPDEST PUSH2 0x28DC SWAP2 SWAP1 PUSH2 0x32A8 JUMP JUMPDEST PUSH2 0x28E6 SWAP2 SWAP1 PUSH2 0x3171 JUMP JUMPDEST DUP2 PUSH2 0x28F1 DUP5 DUP10 PUSH2 0x32A8 JUMP JUMPDEST PUSH2 0x2903 SWAP1 PUSH8 0xDE0B6B3A7640000 PUSH2 0x32A8 JUMP JUMPDEST PUSH2 0x290D SWAP2 SWAP1 PUSH2 0x3171 JUMP JUMPDEST PUSH2 0x2917 SWAP2 SWAP1 PUSH2 0x32C7 JUMP JUMPDEST SWAP9 POP PUSH2 0x2C78 JUMP JUMPDEST PUSH1 0x0 DUP14 PUSH1 0x80 ADD MLOAD PUSH1 0x1 DUP2 GT ISZERO PUSH2 0x2944 JUMPI PUSH4 0x4E487B71 PUSH1 0xE0 SHL PUSH1 0x0 MSTORE PUSH1 0x21 PUSH1 0x4 MSTORE PUSH1 0x24 PUSH1 0x0 REVERT JUMPDEST EQ ISZERO PUSH2 0x2C3E JUMPI PUSH1 0x0 DUP11 PUSH1 0x1 DUP2 GT ISZERO PUSH2 0x296C JUMPI PUSH4 0x4E487B71 PUSH1 0xE0 SHL PUSH1 0x0 MSTORE PUSH1 0x21 PUSH1 0x4 MSTORE PUSH1 0x24 PUSH1 0x0 REVERT JUMPDEST EQ ISZERO PUSH2 0x298D JUMPI PUSH2 0x297C DUP12 DUP9 PUSH2 0x161C JUMP JUMPDEST PUSH2 0x2986 SWAP1 DUP9 PUSH2 0x32C7 JUMP JUMPDEST SWAP7 POP PUSH2 0x299A JUMP JUMPDEST PUSH2 0x2997 DUP12 DUP9 PUSH2 0x3159 JUMP JUMPDEST SWAP7 POP JUMPDEST PUSH1 0x0 DUP6 SGT ISZERO PUSH2 0x2A9E JUMPI PUSH6 0x1CAE8C13E000 DUP15 PUSH1 0x20 ADD MLOAD DUP16 PUSH1 0x60 ADD MLOAD PUSH2 0x29BE SWAP2 SWAP1 PUSH2 0x32C7 JUMP JUMPDEST DUP14 PUSH1 0x80 ADD MLOAD PUSH2 0x29CD SWAP2 SWAP1 PUSH2 0x32A8 JUMP JUMPDEST PUSH2 0x29DD SWAP1 PUSH6 0x2DE41353000 PUSH2 0x3159 JUMP JUMPDEST DUP9 PUSH2 0x29E8 DUP7 DUP3 PUSH2 0x32C7 JUMP JUMPDEST PUSH2 0x29F2 DUP12 DUP10 PUSH2 0x32C7 JUMP JUMPDEST PUSH2 0x29FB DUP11 PUSH2 0x2D30 JUMP JUMPDEST PUSH2 0x2A05 SWAP2 SWAP1 PUSH2 0x32A8 JUMP JUMPDEST PUSH2 0x2A0F SWAP2 SWAP1 PUSH2 0x32A8 JUMP JUMPDEST PUSH2 0x2A19 SWAP2 SWAP1 PUSH2 0x3171 JUMP JUMPDEST PUSH2 0x2A25 DUP11 PUSH2 0x3E8 PUSH2 0x32A8 JUMP JUMPDEST PUSH2 0x2A2F SWAP2 SWAP1 PUSH2 0x3159 JUMP JUMPDEST PUSH2 0x2A39 SWAP2 SWAP1 PUSH2 0x32A8 JUMP JUMPDEST PUSH2 0x2A43 SWAP2 SWAP1 PUSH2 0x3171 JUMP JUMPDEST SWAP2 POP DUP8 PUSH2 0x2A50 DUP5 DUP3 PUSH2 0x32C7 JUMP JUMPDEST PUSH2 0x2A5A DUP11 DUP8 PUSH2 0x32C7 JUMP JUMPDEST PUSH2 0x2A63 DUP9 PUSH2 0x2D30 JUMP JUMPDEST PUSH2 0x2A6D SWAP2 SWAP1 PUSH2 0x32A8 JUMP JUMPDEST PUSH2 0x2A77 SWAP2 SWAP1 PUSH2 0x32A8 JUMP JUMPDEST PUSH2 0x2A81 SWAP2 SWAP1 PUSH2 0x3171 JUMP JUMPDEST PUSH2 0x2A8D DUP10 PUSH2 0x3E8 PUSH2 0x32A8 JUMP JUMPDEST PUSH2 0x2A97 SWAP2 SWAP1 PUSH2 0x3159 JUMP JUMPDEST SWAP1 POP PUSH2 0x2B95 JUMP JUMPDEST PUSH6 0x1CAE8C13E000 DUP15 PUSH1 0x20 ADD MLOAD DUP16 PUSH1 0x60 ADD MLOAD PUSH2 0x2AB9 SWAP2 SWAP1 PUSH2 0x32C7 JUMP JUMPDEST DUP14 PUSH1 0x80 ADD MLOAD PUSH2 0x2AC8 SWAP2 SWAP1 PUSH2 0x32A8 JUMP JUMPDEST PUSH2 0x2AD8 SWAP1 PUSH6 0x2DE41353000 PUSH2 0x3159 JUMP JUMPDEST DUP9 PUSH2 0x2AE3 DUP7 DUP3 PUSH2 0x32C7 JUMP JUMPDEST PUSH2 0x2AED DUP12 DUP10 PUSH2 0x32C7 JUMP JUMPDEST PUSH2 0x2AF6 DUP11 PUSH2 0x2D30 JUMP JUMPDEST PUSH2 0x2B00 SWAP2 SWAP1 PUSH2 0x32A8 JUMP JUMPDEST PUSH2 0x2B0A SWAP2 SWAP1 PUSH2 0x32A8 JUMP JUMPDEST PUSH2 0x2B14 SWAP2 SWAP1 PUSH2 0x3171 JUMP JUMPDEST PUSH2 0x2B20 DUP11 PUSH2 0x3E8 PUSH2 0x32A8 JUMP JUMPDEST PUSH2 0x2B2A SWAP2 SWAP1 PUSH2 0x32C7 JUMP JUMPDEST PUSH2 0x2B34 SWAP2 SWAP1 PUSH2 0x32A8 JUMP JUMPDEST PUSH2 0x2B3E SWAP2 SWAP1 PUSH2 0x3171 JUMP JUMPDEST SWAP2 POP DUP8 PUSH2 0x2B4B DUP5 DUP3 PUSH2 0x32C7 JUMP JUMPDEST PUSH2 0x2B55 DUP11 DUP8 PUSH2 0x32C7 JUMP JUMPDEST PUSH2 0x2B5E DUP9 PUSH2 0x2D30 JUMP JUMPDEST PUSH2 0x2B68 SWAP2 SWAP1 PUSH2 0x32A8 JUMP JUMPDEST PUSH2 0x2B72 SWAP2 SWAP1 PUSH2 0x32A8 JUMP JUMPDEST PUSH2 0x2B7C SWAP2 SWAP1 PUSH2 0x3171 JUMP JUMPDEST PUSH2 0x2B88 DUP10 PUSH2 0x3E8 PUSH2 0x32A8 JUMP JUMPDEST PUSH2 0x2B92 SWAP2 SWAP1 PUSH2 0x32C7 JUMP JUMPDEST SWAP1 POP JUMPDEST DUP1 PUSH2 0x2BA0 DUP4 DUP9 PUSH2 0x32A8 JUMP JUMPDEST PUSH2 0x2BB2 SWAP1 PUSH8 0xDE0B6B3A7640000 PUSH2 0x32A8 JUMP JUMPDEST PUSH2 0x2BBC SWAP2 SWAP1 PUSH2 0x3171 JUMP JUMPDEST PUSH2 0x2BCC SWAP1 PUSH6 0x5AF3107A4000 PUSH2 0x3159 JUMP JUMPDEST PUSH2 0x2BD7 DUP8 PUSH1 0x1 PUSH2 0x3159 JUMP JUMPDEST PUSH2 0x2BE9 SWAP1 PUSH8 0xDE0B6B3A7640000 PUSH2 0x32A8 JUMP JUMPDEST GT PUSH2 0x2BFA JUMPI PUSH6 0x5AF3107A4000 PUSH2 0x2917 JUMP JUMPDEST DUP1 PUSH2 0x2C05 DUP4 DUP9 PUSH2 0x32A8 JUMP JUMPDEST PUSH2 0x2C17 SWAP1 PUSH8 0xDE0B6B3A7640000 PUSH2 0x32A8 JUMP JUMPDEST PUSH2 0x2C21 SWAP2 SWAP1 PUSH2 0x3171 JUMP JUMPDEST PUSH2 0x2C2C DUP8 PUSH1 0x1 PUSH2 0x3159 JUMP JUMPDEST PUSH2 0x290D SWAP1 PUSH8 0xDE0B6B3A7640000 PUSH2 0x32A8 JUMP JUMPDEST PUSH1 0x40 MLOAD PUSH3 0x461BCD PUSH1 0xE5 SHL DUP2 MSTORE PUSH1 0x20 PUSH1 0x4 DUP3 ADD MSTORE PUSH1 0xF PUSH1 0x24 DUP3 ADD MSTORE PUSH15 0x434242433A57524F4E475F54595045 PUSH1 0x88 SHL PUSH1 0x44 DUP3 ADD MSTORE PUSH1 0x64 ADD PUSH2 0x48E JUMP JUMPDEST POP POP POP POP POP POP POP POP SWAP6 SWAP5 POP POP POP POP POP JUMP JUMPDEST PUSH1 0x0 DUP1 DUP1 DUP4 PUSH1 0x1 DUP2 GT ISZERO PUSH2 0x2CAD JUMPI PUSH4 0x4E487B71 PUSH1 0xE0 SHL PUSH1 0x0 MSTORE PUSH1 0x21 PUSH1 0x4 MSTORE PUSH1 0x24 PUSH1 0x0 REVERT JUMPDEST EQ ISZERO PUSH2 0x2CBE JUMPI POP PUSH1 0x20 DUP5 ADD MLOAD PUSH2 0x2CC5 JUMP JUMPDEST POP PUSH1 0x40 DUP5 ADD MLOAD JUMPDEST PUSH4 0x3B9ACA00 PUSH2 0x2CF5 DUP7 PUSH1 0xC0 ADD MLOAD DUP7 PUSH8 0xDE0B6B3A7640000 PUSH2 0x2CE6 SWAP2 SWAP1 PUSH2 0x32A8 JUMP JUMPDEST PUSH2 0x2CF0 SWAP2 SWAP1 PUSH2 0x3171 JUMP JUMPDEST PUSH2 0x2D62 JUMP JUMPDEST PUSH1 0xA0 DUP8 ADD MLOAD PUSH2 0x2D04 SWAP1 DUP5 PUSH2 0x32A8 JUMP JUMPDEST PUSH2 0x2D0E SWAP2 SWAP1 PUSH2 0x32A8 JUMP JUMPDEST PUSH2 0x2D18 SWAP2 SWAP1 PUSH2 0x3171 JUMP JUMPDEST DUP6 PUSH1 0x60 ADD MLOAD PUSH2 0x2D27 SWAP2 SWAP1 PUSH2 0x3159 JUMP JUMPDEST SWAP6 SWAP5 POP POP POP POP POP JUMP JUMPDEST PUSH1 0x0 PUSH1 0x1 PUSH1 0xFF SHL DUP3 EQ ISZERO PUSH2 0x2D43 JUMPI PUSH1 0x0 DUP1 REVERT JUMPDEST PUSH1 0x0 DUP3 SLT PUSH2 0x2D51 JUMPI DUP2 PUSH2 0x2D5A JUMP JUMPDEST PUSH2 0x2D5A DUP3 PUSH2 0x3329 JUMP JUMPDEST SWAP1 POP JUMPDEST SWAP2 SWAP1 POP JUMP JUMPDEST PUSH1 0x0 PUSH1 0x3 DUP3 GT ISZERO PUSH2 0x2DC3 JUMPI POP DUP1 PUSH1 0x0 PUSH2 0x2D7C PUSH1 0x2 DUP4 PUSH2 0x3171 JUMP JUMPDEST PUSH2 0x2D87 SWAP1 PUSH1 0x1 PUSH2 0x3159 JUMP JUMPDEST SWAP1 POP JUMPDEST DUP2 DUP2 LT ISZERO PUSH2 0x2DBD JUMPI SWAP1 POP DUP1 PUSH1 0x2 DUP2 PUSH2 0x2DA2 DUP2 DUP7 PUSH2 0x3171 JUMP JUMPDEST PUSH2 0x2DAC SWAP2 SWAP1 PUSH2 0x3159 JUMP JUMPDEST PUSH2 0x2DB6 SWAP2 SWAP1 PUSH2 0x3171 JUMP JUMPDEST SWAP1 POP PUSH2 0x2D8A JUMP JUMPDEST POP PUSH2 0x2D5D JUMP JUMPDEST DUP2 ISZERO PUSH2 0x2D5D JUMPI POP PUSH1 0x1 SWAP2 SWAP1 POP JUMP JUMPDEST DUP1 MLOAD PUSH2 0x2D5D DUP2 PUSH2 0x336F JUMP JUMPDEST PUSH1 0x0 PUSH1 0x20 DUP3 DUP5 SUB SLT ISZERO PUSH2 0x2DED JUMPI DUP1 DUP2 REVERT JUMPDEST DUP2 CALLDATALOAD PUSH2 0x5DB DUP2 PUSH2 0x336F JUMP JUMPDEST PUSH1 0x0 PUSH1 0x20 DUP3 DUP5 SUB SLT ISZERO PUSH2 0x2E09 JUMPI DUP1 DUP2 REVERT JUMPDEST DUP2 MLOAD PUSH2 0x5DB DUP2 PUSH2 0x336F JUMP JUMPDEST PUSH1 0x0 DUP1 PUSH1 0x40 DUP4 DUP6 SUB SLT ISZERO PUSH2 0x2E26 JUMPI DUP1 DUP2 REVERT JUMPDEST DUP3 CALLDATALOAD PUSH2 0x2E31 DUP2 PUSH2 0x336F JUMP JUMPDEST SWAP2 POP PUSH1 0x20 DUP4 ADD CALLDATALOAD PUSH2 0x2E41 DUP2 PUSH2 0x336F JUMP JUMPDEST DUP1 SWAP2 POP POP SWAP3 POP SWAP3 SWAP1 POP JUMP JUMPDEST PUSH1 0x0 DUP1 PUSH1 0x0 PUSH1 0x60 DUP5 DUP7 SUB SLT ISZERO PUSH2 0x2E60 JUMPI DUP1 DUP2 REVERT JUMPDEST DUP4 CALLDATALOAD PUSH2 0x2E6B DUP2 PUSH2 0x336F JUMP JUMPDEST SWAP3 POP PUSH1 0x20 DUP5 ADD CALLDATALOAD PUSH2 0x2E7B DUP2 PUSH2 0x336F JUMP JUMPDEST SWAP3 SWAP6 SWAP3 SWAP5 POP POP POP PUSH1 0x40 SWAP2 SWAP1 SWAP2 ADD CALLDATALOAD SWAP1 JUMP JUMPDEST PUSH1 0x0 DUP1 PUSH1 0x0 DUP1 PUSH1 0x0 DUP1 PUSH1 0x0 PUSH1 0xE0 DUP9 DUP11 SUB SLT ISZERO PUSH2 0x2EA6 JUMPI DUP3 DUP4 REVERT JUMPDEST DUP8 CALLDATALOAD PUSH2 0x2EB1 DUP2 PUSH2 0x336F JUMP JUMPDEST SWAP7 POP PUSH1 0x20 DUP9 ADD CALLDATALOAD PUSH2 0x2EC1 DUP2 PUSH2 0x336F JUMP JUMPDEST SWAP6 POP PUSH1 0x40 DUP9 ADD CALLDATALOAD SWAP5 POP PUSH1 0x60 DUP9 ADD CALLDATALOAD SWAP4 POP PUSH1 0x80 DUP9 ADD CALLDATALOAD PUSH2 0x2EDF DUP2 PUSH2 0x3384 JUMP JUMPDEST SWAP7 SWAP10 SWAP6 SWAP9 POP SWAP4 SWAP7 SWAP3 SWAP6 SWAP5 PUSH1 0xA0 DUP5 ADD CALLDATALOAD SWAP5 POP PUSH1 0xC0 SWAP1 SWAP4 ADD CALLDATALOAD SWAP3 SWAP2 POP POP JUMP JUMPDEST PUSH1 0x0 DUP1 PUSH1 0x40 DUP4 DUP6 SUB SLT ISZERO PUSH2 0x2E26 JUMPI DUP2 DUP3 REVERT JUMPDEST PUSH1 0x0 DUP1 PUSH1 0x40 DUP4 DUP6 SUB SLT ISZERO PUSH2 0x2F20 JUMPI DUP2 DUP3 REVERT JUMPDEST DUP3 CALLDATALOAD PUSH2 0x2F2B DUP2 PUSH2 0x336F JUMP JUMPDEST SWAP5 PUSH1 0x20 SWAP4 SWAP1 SWAP4 ADD CALLDATALOAD SWAP4 POP POP POP JUMP JUMPDEST PUSH1 0x0 PUSH1 0x20 DUP1 DUP4 DUP6 SUB SLT ISZERO PUSH2 0x2F4B JUMPI DUP2 DUP3 REVERT JUMPDEST DUP3 MLOAD PUSH8 0xFFFFFFFFFFFFFFFF DUP1 DUP3 GT ISZERO PUSH2 0x2F62 JUMPI DUP4 DUP5 REVERT JUMPDEST DUP2 DUP6 ADD SWAP2 POP DUP6 PUSH1 0x1F DUP4 ADD SLT PUSH2 0x2F75 JUMPI DUP4 DUP5 REVERT JUMPDEST DUP2 MLOAD DUP2 DUP2 GT ISZERO PUSH2 0x2F87 JUMPI PUSH2 0x2F87 PUSH2 0x3359 JUMP JUMPDEST DUP1 PUSH1 0x5 SHL PUSH1 0x40 MLOAD PUSH1 0x1F NOT PUSH1 0x3F DUP4 ADD AND DUP2 ADD DUP2 DUP2 LT DUP6 DUP3 GT OR ISZERO PUSH2 0x2FAC JUMPI PUSH2 0x2FAC PUSH2 0x3359 JUMP JUMPDEST PUSH1 0x40 MSTORE DUP3 DUP2 MSTORE DUP6 DUP2 ADD SWAP4 POP DUP5 DUP7 ADD DUP3 DUP7 ADD DUP8 ADD DUP11 LT ISZERO PUSH2 0x2FCA JUMPI DUP8 DUP9 REVERT JUMPDEST DUP8 SWAP6 POP JUMPDEST DUP4 DUP7 LT ISZERO PUSH2 0x2FF3 JUMPI PUSH2 0x2FDF DUP2 PUSH2 0x2DD1 JUMP JUMPDEST DUP6 MSTORE PUSH1 0x1 SWAP6 SWAP1 SWAP6 ADD SWAP5 SWAP4 DUP7 ADD SWAP4 DUP7 ADD PUSH2 0x2FCE JUMP JUMPDEST POP SWAP9 SWAP8 POP POP POP POP POP POP POP POP JUMP JUMPDEST PUSH1 0x0 PUSH1 0x20 DUP3 DUP5 SUB SLT ISZERO PUSH2 0x3011 JUMPI DUP1 DUP2 REVERT JUMPDEST DUP2 MLOAD DUP1 ISZERO ISZERO DUP2 EQ PUSH2 0x5DB JUMPI DUP2 DUP3 REVERT JUMPDEST PUSH1 0x0 PUSH1 0x20 DUP3 DUP5 SUB SLT ISZERO PUSH2 0x3031 JUMPI DUP1 DUP2 REVERT JUMPDEST DUP2 MLOAD PUSH1 0x2 DUP2 LT PUSH2 0x5DB JUMPI DUP2 DUP3 REVERT JUMPDEST PUSH1 0x0 PUSH1 0x20 DUP3 DUP5 SUB SLT ISZERO PUSH2 0x3050 JUMPI DUP1 DUP2 REVERT JUMPDEST POP MLOAD SWAP2 SWAP1 POP JUMP JUMPDEST PUSH1 0x0 DUP1 PUSH1 0x40 DUP4 DUP6 SUB SLT ISZERO PUSH2 0x3069 JUMPI DUP2 DUP3 REVERT JUMPDEST POP POP DUP1 MLOAD PUSH1 0x20 SWAP1 SWAP2 ADD MLOAD SWAP1 SWAP3 SWAP1 SWAP2 POP JUMP JUMPDEST PUSH1 0x0 PUSH1 0x20 DUP3 DUP5 SUB SLT ISZERO PUSH2 0x308B JUMPI DUP1 DUP2 REVERT JUMPDEST DUP2 MLOAD PUSH2 0x5DB DUP2 PUSH2 0x3384 JUMP JUMPDEST PUSH1 0x0 DUP3 MLOAD PUSH2 0x30A8 DUP2 DUP5 PUSH1 0x20 DUP8 ADD PUSH2 0x32DE JUMP JUMPDEST SWAP2 SWAP1 SWAP2 ADD SWAP3 SWAP2 POP POP JUMP JUMPDEST PUSH1 0x0 PUSH1 0x20 DUP3 MSTORE DUP3 MLOAD DUP1 PUSH1 0x20 DUP5 ADD MSTORE PUSH2 0x30D1 DUP2 PUSH1 0x40 DUP6 ADD PUSH1 0x20 DUP8 ADD PUSH2 0x32DE JUMP JUMPDEST PUSH1 0x1F ADD PUSH1 0x1F NOT AND SWAP2 SWAP1 SWAP2 ADD PUSH1 0x40 ADD SWAP3 SWAP2 POP POP JUMP JUMPDEST PUSH1 0x20 DUP1 DUP3 MSTORE PUSH1 0xC SWAP1 DUP3 ADD MSTORE PUSH12 0x10D09090CE881313D0D2D151 PUSH1 0xA2 SHL PUSH1 0x40 DUP3 ADD MSTORE PUSH1 0x60 ADD SWAP1 JUMP JUMPDEST PUSH1 0x20 DUP1 DUP3 MSTORE PUSH1 0x2E SWAP1 DUP3 ADD MSTORE PUSH32 0x436F6E747261637420696E7374616E63652068617320616C7265616479206265 PUSH1 0x40 DUP3 ADD MSTORE PUSH14 0x195B881A5B9A5D1A585B1A5E9959 PUSH1 0x92 SHL PUSH1 0x60 DUP3 ADD MSTORE PUSH1 0x80 ADD SWAP1 JUMP JUMPDEST PUSH1 0x0 DUP3 NOT DUP3 GT ISZERO PUSH2 0x316C JUMPI PUSH2 0x316C PUSH2 0x3343 JUMP JUMPDEST POP ADD SWAP1 JUMP JUMPDEST PUSH1 0x0 DUP3 PUSH2 0x318C JUMPI PUSH4 0x4E487B71 PUSH1 0xE0 SHL DUP2 MSTORE PUSH1 0x12 PUSH1 0x4 MSTORE PUSH1 0x24 DUP2 REVERT JUMPDEST POP DIV SWAP1 JUMP JUMPDEST DUP1 DUP3 JUMPDEST PUSH1 0x1 DUP1 DUP7 GT PUSH2 0x31A3 JUMPI POP PUSH2 0x31CE JUMP JUMPDEST DUP2 DUP8 DIV DUP3 GT ISZERO PUSH2 0x31B5 JUMPI PUSH2 0x31B5 PUSH2 0x3343 JUMP JUMPDEST DUP1 DUP7 AND ISZERO PUSH2 0x31C2 JUMPI SWAP2 DUP2 MUL SWAP2 JUMPDEST SWAP5 SWAP1 SWAP5 SHR SWAP4 DUP1 MUL PUSH2 0x3194 JUMP JUMPDEST SWAP5 POP SWAP5 SWAP3 POP POP POP JUMP JUMPDEST PUSH1 0x0 PUSH2 0x5DB PUSH1 0x0 NOT PUSH1 0xFF DUP6 AND DUP5 PUSH1 0x0 DUP3 PUSH2 0x31F3 JUMPI POP PUSH1 0x1 PUSH2 0x5DB JUMP JUMPDEST DUP2 PUSH2 0x3200 JUMPI POP PUSH1 0x0 PUSH2 0x5DB JUMP JUMPDEST DUP2 PUSH1 0x1 DUP2 EQ PUSH2 0x3216 JUMPI PUSH1 0x2 DUP2 EQ PUSH2 0x3220 JUMPI PUSH2 0x324D JUMP JUMPDEST PUSH1 0x1 SWAP2 POP POP PUSH2 0x5DB JUMP JUMPDEST PUSH1 0xFF DUP5 GT ISZERO PUSH2 0x3231 JUMPI PUSH2 0x3231 PUSH2 0x3343 JUMP JUMPDEST PUSH1 0x1 DUP5 SHL SWAP2 POP DUP5 DUP3 GT ISZERO PUSH2 0x3247 JUMPI PUSH2 0x3247 PUSH2 0x3343 JUMP JUMPDEST POP PUSH2 0x5DB JUMP JUMPDEST POP PUSH1 0x20 DUP4 LT PUSH2 0x133 DUP4 LT AND PUSH1 0x4E DUP5 LT PUSH1 0xB DUP5 LT AND OR ISZERO PUSH2 0x3280 JUMPI POP DUP2 DUP2 EXP DUP4 DUP2 GT ISZERO PUSH2 0x327B JUMPI PUSH2 0x327B PUSH2 0x3343 JUMP JUMPDEST PUSH2 0x5DB JUMP JUMPDEST PUSH2 0x328D DUP5 DUP5 DUP5 PUSH1 0x1 PUSH2 0x3191 JUMP JUMPDEST DUP1 DUP7 DIV DUP3 GT ISZERO PUSH2 0x329F JUMPI PUSH2 0x329F PUSH2 0x3343 JUMP JUMPDEST MUL SWAP5 SWAP4 POP POP POP POP JUMP JUMPDEST PUSH1 0x0 DUP2 PUSH1 0x0 NOT DIV DUP4 GT DUP3 ISZERO ISZERO AND ISZERO PUSH2 0x32C2 JUMPI PUSH2 0x32C2 PUSH2 0x3343 JUMP JUMPDEST POP MUL SWAP1 JUMP JUMPDEST PUSH1 0x0 DUP3 DUP3 LT ISZERO PUSH2 0x32D9 JUMPI PUSH2 0x32D9 PUSH2 0x3343 JUMP JUMPDEST POP SUB SWAP1 JUMP JUMPDEST PUSH1 0x0 JUMPDEST DUP4 DUP2 LT ISZERO PUSH2 0x32F9 JUMPI DUP2 DUP2 ADD MLOAD DUP4 DUP3 ADD MSTORE PUSH1 0x20 ADD PUSH2 0x32E1 JUMP JUMPDEST DUP4 DUP2 GT ISZERO PUSH2 0x3308 JUMPI PUSH1 0x0 DUP5 DUP5 ADD MSTORE JUMPDEST POP POP POP POP JUMP JUMPDEST PUSH1 0x0 PUSH1 0x0 NOT DUP3 EQ ISZERO PUSH2 0x3322 JUMPI PUSH2 0x3322 PUSH2 0x3343 JUMP JUMPDEST POP PUSH1 0x1 ADD SWAP1 JUMP JUMPDEST PUSH1 0x0 PUSH1 0x1 PUSH1 0xFF SHL DUP3 EQ ISZERO PUSH2 0x333F JUMPI PUSH2 0x333F PUSH2 0x3343 JUMP JUMPDEST SUB SWAP1 JUMP JUMPDEST PUSH4 0x4E487B71 PUSH1 0xE0 SHL PUSH1 0x0 MSTORE PUSH1 0x11 PUSH1 0x4 MSTORE PUSH1 0x24 PUSH1 0x0 REVERT JUMPDEST PUSH4 0x4E487B71 PUSH1 0xE0 SHL PUSH1 0x0 MSTORE PUSH1 0x41 PUSH1 0x4 MSTORE PUSH1 0x24 PUSH1 0x0 REVERT JUMPDEST PUSH1 0x1 PUSH1 0x1 PUSH1 0xA0 SHL SUB DUP2 AND DUP2 EQ PUSH2 0x148C JUMPI PUSH1 0x0 DUP1 REVERT JUMPDEST PUSH1 0xFF DUP2 AND DUP2 EQ PUSH2 0x148C JUMPI PUSH1 0x0 DUP1 REVERT INVALID LOG2 PUSH5 0x6970667358 0x22 SLT KECCAK256 GAS 0xAE 0xB2 SWAP9 PUSH24 0x98DF396AEB0EDEC82EB320669B7B6763C1164916E465B951 NUMBER LOG2 0xFC PUSH5 0x736F6C6343 STOP ADDMOD SUB STOP CALLER "
		},
		"gasEstimates": {
			"creation": {
				"codeDepositCost": "2651400",
				"executionCost": "43202",
				"totalCost": "2694602"
			},
			"external": {
				"DOMAIN_SEPARATOR()": "1041",
				"MINIMUM_LIQUIDITY()": "284",
				"PERMIT_TYPEHASH()": "285",
				"allowance(address,address)": "infinite",
				"approve(address,uint256)": "22513",
				"balanceOf(address)": "1258",
				"burnLiquidityToken(address)": "infinite",
				"decimals()": "316",
				"factory()": "1148",
				"getTotalLiabilities()": "infinite",
				"initialize(address)": "44481",
				"initialize(address,address)": "infinite",
				"isOwner()": "1114",
				"mintLiquidityToken(address)": "infinite",
				"name()": "infinite",
				"nonces(address)": "1324",
				"owner()": "1115",
				"permit(address,address,uint256,uint256,uint8,bytes32,bytes32)": "infinite",
				"renounceOwnership()": "23869",
				"reserve()": "1106",
				"settleToken()": "1126",
				"symbol()": "infinite",
				"totalSupply()": "1041",
				"transfer(address,uint256)": "44334",
				"transferFrom(address,address,uint256)": "infinite",
				"transferOwnership(address)": "infinite",
				"transferSettleToken(address,uint256)": "infinite",
				"updateAfterReceive()": "infinite",
				"updateAfterWithdraw()": "infinite"
			},
			"internal": {
				"_safeTransfer(address,address,uint256)": "infinite"
			}
		},
		"methodIdentifiers": {
			"DOMAIN_SEPARATOR()": "3644e515",
			"MINIMUM_LIQUIDITY()": "ba9a7a56",
			"PERMIT_TYPEHASH()": "30adf81f",
			"allowance(address,address)": "dd62ed3e",
			"approve(address,uint256)": "095ea7b3",
			"balanceOf(address)": "70a08231",
			"burnLiquidityToken(address)": "c7343b9f",
			"decimals()": "313ce567",
			"factory()": "c45a0155",
			"getTotalLiabilities()": "ca149504",
			"initialize(address)": "c4d66de8",
			"initialize(address,address)": "485cc955",
			"isOwner()": "8f32d59b",
			"mintLiquidityToken(address)": "6ffd3fe8",
			"name()": "06fdde03",
			"nonces(address)": "7ecebe00",
			"owner()": "8da5cb5b",
			"permit(address,address,uint256,uint256,uint8,bytes32,bytes32)": "d505accf",
			"renounceOwnership()": "715018a6",
			"reserve()": "cd3293de",
			"settleToken()": "74e14eb8",
			"symbol()": "95d89b41",
			"totalSupply()": "18160ddd",
			"transfer(address,uint256)": "a9059cbb",
			"transferFrom(address,address,uint256)": "23b872dd",
			"transferOwnership(address)": "f2fde38b",
			"transferSettleToken(address,uint256)": "ce2d30dd",
			"updateAfterReceive()": "872c6795",
			"updateAfterWithdraw()": "09287c6e"
		}
	},
	"abi": [
		{
			"anonymous": false,
			"inputs": [
				{
					"indexed": true,
					"internalType": "address",
					"name": "owner",
					"type": "address"
				},
				{
					"indexed": true,
					"internalType": "address",
					"name": "spender",
					"type": "address"
				},
				{
					"indexed": false,
					"internalType": "uint256",
					"name": "value",
					"type": "uint256"
				}
			],
			"name": "Approval",
			"type": "event"
		},
		{
			"anonymous": false,
			"inputs": [
				{
					"indexed": true,
					"internalType": "address",
					"name": "sender",
					"type": "address"
				},
				{
					"indexed": false,
					"internalType": "uint256",
					"name": "amount",
					"type": "uint256"
				},
				{
					"indexed": true,
					"internalType": "address",
					"name": "to",
					"type": "address"
				}
			],
			"name": "Burn",
			"type": "event"
		},
		{
			"anonymous": false,
			"inputs": [
				{
					"indexed": true,
					"internalType": "address",
					"name": "settleToken",
					"type": "address"
				},
				{
					"indexed": true,
					"internalType": "address",
					"name": "liquidityToken",
					"type": "address"
				}
			],
			"name": "LiquidityTokenCreated",
			"type": "event"
		},
		{
			"anonymous": false,
			"inputs": [
				{
					"indexed": true,
					"internalType": "address",
					"name": "sender",
					"type": "address"
				},
				{
					"indexed": false,
					"internalType": "uint256",
					"name": "amount",
					"type": "uint256"
				}
			],
			"name": "Mint",
			"type": "event"
		},
		{
			"anonymous": false,
			"inputs": [
				{
					"indexed": true,
					"internalType": "address",
					"name": "previousOwner",
					"type": "address"
				}
			],
			"name": "OwnershipRenounced",
			"type": "event"
		},
		{
			"anonymous": false,
			"inputs": [
				{
					"indexed": true,
					"internalType": "address",
					"name": "previousOwner",
					"type": "address"
				},
				{
					"indexed": true,
					"internalType": "address",
					"name": "newOwner",
					"type": "address"
				}
			],
			"name": "OwnershipTransferred",
			"type": "event"
		},
		{
			"anonymous": false,
			"inputs": [
				{
					"indexed": true,
					"internalType": "address",
					"name": "from",
					"type": "address"
				},
				{
					"indexed": true,
					"internalType": "address",
					"name": "to",
					"type": "address"
				},
				{
					"indexed": false,
					"internalType": "uint256",
					"name": "value",
					"type": "uint256"
				}
			],
			"name": "Transfer",
			"type": "event"
		},
		{
			"inputs": [],
			"name": "DOMAIN_SEPARATOR",
			"outputs": [
				{
					"internalType": "bytes32",
					"name": "",
					"type": "bytes32"
				}
			],
			"stateMutability": "view",
			"type": "function"
		},
		{
			"inputs": [],
			"name": "MINIMUM_LIQUIDITY",
			"outputs": [
				{
					"internalType": "uint256",
					"name": "",
					"type": "uint256"
				}
			],
			"stateMutability": "view",
			"type": "function"
		},
		{
			"inputs": [],
			"name": "PERMIT_TYPEHASH",
			"outputs": [
				{
					"internalType": "bytes32",
					"name": "",
					"type": "bytes32"
				}
			],
			"stateMutability": "view",
			"type": "function"
		},
		{
			"inputs": [
				{
					"internalType": "address",
					"name": "",
					"type": "address"
				},
				{
					"internalType": "address",
					"name": "",
					"type": "address"
				}
			],
			"name": "allowance",
			"outputs": [
				{
					"internalType": "uint256",
					"name": "",
					"type": "uint256"
				}
			],
			"stateMutability": "view",
			"type": "function"
		},
		{
			"inputs": [
				{
					"internalType": "address",
					"name": "spender",
					"type": "address"
				},
				{
					"internalType": "uint256",
					"name": "value",
					"type": "uint256"
				}
			],
			"name": "approve",
			"outputs": [
				{
					"internalType": "bool",
					"name": "",
					"type": "bool"
				}
			],
			"stateMutability": "nonpayable",
			"type": "function"
		},
		{
			"inputs": [
				{
					"internalType": "address",
					"name": "",
					"type": "address"
				}
			],
			"name": "balanceOf",
			"outputs": [
				{
					"internalType": "uint256",
					"name": "",
					"type": "uint256"
				}
			],
			"stateMutability": "view",
			"type": "function"
		},
		{
			"inputs": [
				{
					"internalType": "address",
					"name": "to",
					"type": "address"
				}
			],
			"name": "burnLiquidityToken",
			"outputs": [
				{
					"internalType": "uint256",
					"name": "amount",
					"type": "uint256"
				}
			],
			"stateMutability": "nonpayable",
			"type": "function"
		},
		{
			"inputs": [],
			"name": "decimals",
			"outputs": [
				{
					"internalType": "uint8",
					"name": "",
					"type": "uint8"
				}
			],
			"stateMutability": "view",
			"type": "function"
		},
		{
			"inputs": [],
			"name": "factory",
			"outputs": [
				{
					"internalType": "contract ICbbcFactory",
					"name": "",
					"type": "address"
				}
			],
			"stateMutability": "view",
			"type": "function"
		},
		{
			"inputs": [],
			"name": "getTotalLiabilities",
			"outputs": [
				{
					"internalType": "uint256",
					"name": "totalLiabilities",
					"type": "uint256"
				}
			],
			"stateMutability": "view",
			"type": "function"
		},
		{
			"inputs": [
				{
					"internalType": "address",
					"name": "settleToken_",
					"type": "address"
				},
				{
					"internalType": "contract ICbbcFactory",
					"name": "factory_",
					"type": "address"
				}
			],
			"name": "initialize",
			"outputs": [],
			"stateMutability": "nonpayable",
			"type": "function"
		},
		{
			"inputs": [
				{
					"internalType": "address",
					"name": "sender",
					"type": "address"
				}
			],
			"name": "initialize",
			"outputs": [],
			"stateMutability": "nonpayable",
			"type": "function"
		},
		{
			"inputs": [],
			"name": "isOwner",
			"outputs": [
				{
					"internalType": "bool",
					"name": "",
					"type": "bool"
				}
			],
			"stateMutability": "view",
			"type": "function"
		},
		{
			"inputs": [
				{
					"internalType": "address",
					"name": "to",
					"type": "address"
				}
			],
			"name": "mintLiquidityToken",
			"outputs": [
				{
					"internalType": "uint256",
					"name": "liquidity",
					"type": "uint256"
				}
			],
			"stateMutability": "nonpayable",
			"type": "function"
		},
		{
			"inputs": [],
			"name": "name",
			"outputs": [
				{
					"internalType": "string",
					"name": "",
					"type": "string"
				}
			],
			"stateMutability": "view",
			"type": "function"
		},
		{
			"inputs": [
				{
					"internalType": "address",
					"name": "",
					"type": "address"
				}
			],
			"name": "nonces",
			"outputs": [
				{
					"internalType": "uint256",
					"name": "",
					"type": "uint256"
				}
			],
			"stateMutability": "view",
			"type": "function"
		},
		{
			"inputs": [],
			"name": "owner",
			"outputs": [
				{
					"internalType": "address",
					"name": "",
					"type": "address"
				}
			],
			"stateMutability": "view",
			"type": "function"
		},
		{
			"inputs": [
				{
					"internalType": "address",
					"name": "owner",
					"type": "address"
				},
				{
					"internalType": "address",
					"name": "spender",
					"type": "address"
				},
				{
					"internalType": "uint256",
					"name": "value",
					"type": "uint256"
				},
				{
					"internalType": "uint256",
					"name": "deadline",
					"type": "uint256"
				},
				{
					"internalType": "uint8",
					"name": "v",
					"type": "uint8"
				},
				{
					"internalType": "bytes32",
					"name": "r",
					"type": "bytes32"
				},
				{
					"internalType": "bytes32",
					"name": "s",
					"type": "bytes32"
				}
			],
			"name": "permit",
			"outputs": [],
			"stateMutability": "nonpayable",
			"type": "function"
		},
		{
			"inputs": [],
			"name": "renounceOwnership",
			"outputs": [],
			"stateMutability": "nonpayable",
			"type": "function"
		},
		{
			"inputs": [],
			"name": "reserve",
			"outputs": [
				{
					"internalType": "uint256",
					"name": "",
					"type": "uint256"
				}
			],
			"stateMutability": "view",
			"type": "function"
		},
		{
			"inputs": [],
			"name": "settleToken",
			"outputs": [
				{
					"internalType": "address",
					"name": "",
					"type": "address"
				}
			],
			"stateMutability": "view",
			"type": "function"
		},
		{
			"inputs": [],
			"name": "symbol",
			"outputs": [
				{
					"internalType": "string",
					"name": "",
					"type": "string"
				}
			],
			"stateMutability": "view",
			"type": "function"
		},
		{
			"inputs": [],
			"name": "totalSupply",
			"outputs": [
				{
					"internalType": "uint256",
					"name": "",
					"type": "uint256"
				}
			],
			"stateMutability": "view",
			"type": "function"
		},
		{
			"inputs": [
				{
					"internalType": "address",
					"name": "to",
					"type": "address"
				},
				{
					"internalType": "uint256",
					"name": "value",
					"type": "uint256"
				}
			],
			"name": "transfer",
			"outputs": [
				{
					"internalType": "bool",
					"name": "",
					"type": "bool"
				}
			],
			"stateMutability": "nonpayable",
			"type": "function"
		},
		{
			"inputs": [
				{
					"internalType": "address",
					"name": "from",
					"type": "address"
				},
				{
					"internalType": "address",
					"name": "to",
					"type": "address"
				},
				{
					"internalType": "uint256",
					"name": "value",
					"type": "uint256"
				}
			],
			"name": "transferFrom",
			"outputs": [
				{
					"internalType": "bool",
					"name": "",
					"type": "bool"
				}
			],
			"stateMutability": "nonpayable",
			"type": "function"
		},
		{
			"inputs": [
				{
					"internalType": "address",
					"name": "newOwner",
					"type": "address"
				}
			],
			"name": "transferOwnership",
			"outputs": [],
			"stateMutability": "nonpayable",
			"type": "function"
		},
		{
			"inputs": [
				{
					"internalType": "address",
					"name": "to",
					"type": "address"
				},
				{
					"internalType": "uint256",
					"name": "value",
					"type": "uint256"
				}
			],
			"name": "transferSettleToken",
			"outputs": [],
			"stateMutability": "nonpayable",
			"type": "function"
		},
		{
			"inputs": [],
			"name": "updateAfterReceive",
			"outputs": [
				{
					"internalType": "uint256",
					"name": "",
					"type": "uint256"
				}
			],
			"stateMutability": "nonpayable",
			"type": "function"
		},
		{
			"inputs": [],
			"name": "updateAfterWithdraw",
			"outputs": [
				{
					"internalType": "uint256",
					"name": "",
					"type": "uint256"
				}
			],
			"stateMutability": "nonpayable",
			"type": "function"
		}
	]
}