{
	"data": {
		"bytecode": {
			"linkReferences": {},
			"object": "608060405234801561001057600080fd5b5061281f806100206000396000f3fe608060405234801561001057600080fd5b506004361061014d5760003560e01c8063715018a6116100c3578063af14052c1161007c578063af14052c14610289578063b74795d914610291578063c4d66de8146102a4578063cd28ef0d146102b7578063d94ad837146102ca578063f2fde38b146102d35761014d565b8063715018a6146102375780638da5cb5b1461023f5780638f32d59b14610250578063900cf0cf146102645780639466120f1461026d5780639e30bac5146102765761014d565b806320ce83891161011557806320ce8389146101e35780633a93069b146101f6578063485cc955146101ff578063609615281461021257806363f6d4c8146102255780637052b9021461022e5761014d565b806302101899146101525780630e1b04ae1461016e578063105bad4f14610199578063111d0498146101b657806316250fd4146101ce575b600080fd5b61015b606a5481565b6040519081526020015b60405180910390f35b606654610181906001600160a01b031681565b6040516001600160a01b039091168152602001610165565b6101a16102e6565b60408051928352602083019190915201610165565b6101be61037a565b6040519015158152602001610165565b6101e16101dc366004612467565b6103ba565b005b6101e16101f136600461242c565b6104ff565b61015b606b5481565b6101e161020d3660046123bd565b6105a1565b606754610181906001600160a01b031681565b61015b60695481565b61015b606c5481565b6101e16106a9565b6033546001600160a01b0316610181565b6101be6033546001600160a01b0316331490565b61015b606e5481565b61015b606d5481565b6101e1610284366004612385565b610710565b6101e161074f565b606f54610181906001600160a01b031681565b6101e16102b2366004612385565b610b29565b6101e16102c5366004612385565b610bad565b61015b60685481565b6101e16102e1366004612385565b610bec565b600080606e54606660009054906101000a90046001600160a01b03166001600160a01b03166318160ddd6040518163ffffffff1660e01b815260040160206040518083038186803b15801561033a57600080fd5b505afa15801561034e573d6000803e3d6000fd5b505050506040513d601f19601f820116820180604052508101906103729190612414565b915091509091565b6000606c54606a544261038d919061277a565b101580156103b55750606d54606c546103a69190612501565b606a546103b3904261277a565b105b905090565b6103ce6033546001600160a01b0316331490565b6103d757600080fd5b6000831161045d5760405162461bcd60e51b815260206004820152604260248201527f43626263526562617365506f6c6963793a206d696e52656261736554696d654960448201527f6e74657276616c536563206d7573742062652067726561746572207468616e20606482015261181760f11b608482015260a4015b60405180910390fd5b8282106104f15760405162461bcd60e51b815260206004820152605660248201527f43626263526562617365506f6c6963793a206d696e52656261736554696d654960448201527f6e74657276616c536563206d7573742062652067726561746572207468616e206064820152753932b130b9b2abb4b73237bba7b33339b2ba29b2b19760511b608482015260a401610454565b606a92909255606c55606d55565b6105136033546001600160a01b0316331490565b61051c57600080fd5b6000811161059c5760405162461bcd60e51b815260206004820152604160248201527f43626263526562617365506f6c6963793a3a7365745265626173654c61673a2060448201527f7265626173654c6167206d7573742062652067726561746572207468616e20306064820152601760f91b608482015260a401610454565b606955565b600054610100900460ff16806105b65750303b155b806105c4575060005460ff16155b6105e05760405162461bcd60e51b8152600401610454906124b3565b6000805461ffff19811661010117909155610100900460ff1661060283610b29565b60016069819055606a556000606c819055600f606d55606b819055606e55606680546001600160a01b0319166001600160a01b0384169081179091556040516337e259d560e21b815230600482015263df89675490602401600060405180830381600087803b15801561067457600080fd5b505af1158015610688573d6000803e3d6000fd5b5050600080549315156101000261ff00199094169390931790925550505050565b6106bd6033546001600160a01b0316331490565b6106c657600080fd5b6033546040516001600160a01b03909116907ff8df31144d9c2f0f6b59d69b8b98abd5459d07f2742c4df920b25aae33c6482090600090a2603380546001600160a01b0319169055565b6107246033546001600160a01b0316331490565b61072d57600080fd5b606780546001600160a01b0319166001600160a01b0392909216919091179055565b606f546001600160a01b031633146107a95760405162461bcd60e51b815260206004820181905260248201527f434242433a204f4e4c595f4f7243484553545241544f525f414c4c4f5745442e6044820152606401610454565b6107b161037a565b6107fd5760405162461bcd60e51b815260206004820152601b60248201527f434242433a204e4f545f494e5f5245424153455f57494e444f572e00000000006044820152606401610454565b42606a54606b5461080e9190612501565b1061081857600080fd5b606c54606a54610828904261277a565b6108329042612763565b61083c9190612501565b606b55606e5461084d906001612501565b606e55600061085e6012600a6125a1565b60665490915060009061087c906001600160a01b0316828080610c15565b905061088a6012600a6125a1565b61089590600a612705565b8111156108b6576108a86012600a6125a1565b6108b390600a612705565b90505b60006108c28284611883565b90506108d96108d260695461195a565b8290611978565b905060008113801561099657506108f26012600a6125a1565b6108fd90600a612705565b61090e906001600160ff1b03612547565b606654604080516318160ddd60e01b8152905184926001600160a01b0316916318160ddd916004808301926020929190829003018186803b15801561095257600080fd5b505afa158015610966573d6000803e3d6000fd5b505050506040513d601f19601f8201168201806040525081019061098a9190612414565b6109949190612501565b115b15610a5357606654604080516318160ddd60e01b81529051610a50926001600160a01b0316916318160ddd916004808301926020929190829003018186803b1580156109e157600080fd5b505afa1580156109f5573d6000803e3d6000fd5b505050506040513d601f19601f82011682018060405250810190610a199190612414565b610a256012600a6125a1565b610a3090600a612705565b610a41906001600160ff1b03612547565b610a4b9190612763565b61195a565b90505b606654606e54604051637a43e23f60e01b81526001600160a01b0390921691637a43e23f91610a8f918590600401918252602082015260400190565b602060405180830381600087803b158015610aa957600080fd5b505af1158015610abd573d6000803e3d6000fd5b505050506040513d601f19601f82011682018060405250810190610ae19190612414565b50606e546040805184815260208101849052428183015290517f7f5c8486e564c1d27c32da42b1ba6a909114d7bbea36de9a66bc0bebfba26bc39181900360600190a2505050565b600054610100900460ff1680610b3e5750303b155b80610b4c575060005460ff16155b610b685760405162461bcd60e51b8152600401610454906124b3565b60008054603380546001600160a01b0319166001600160a01b03949094169390931790925561ffff1982166101009283900460ff161515909202919091176001179055565b610bc16033546001600160a01b0316331490565b610bca57600080fd5b606f80546001600160a01b0319166001600160a01b0392909216919091179055565b610c006033546001600160a01b0316331490565b610c0957600080fd5b610c12816119a9565b50565b6000831580610c22575082155b610c7a5760405162461bcd60e51b8152602060048201526024808201527f434242433a204255595f414e445f53454c4c5f41545f5448455f53414d455f5460448201526324a6a29760e11b6064820152608401610454565b610ca56040518060800160405280600081526020016000815260200160008152602001600081525090565b610ce56040518060e00160405280600081526020016000815260200160008152602001600081526020016000815260200160008152602001600081525090565b6040805160c081018252600080825260208201819052918101829052606081018290526080810182905260a0810191909152876001600160a01b031663c45a01556040518163ffffffff1660e01b815260040160206040518083038186803b158015610d5057600080fd5b505afa158015610d64573d6000803e3d6000fd5b505050506040513d601f19601f82011682018060405250810190610d8891906123a1565b6001600160a01b03908116825260408051630e9c29d760e31b81529051918a16916374e14eb891600480820192602092909190829003018186803b158015610dcf57600080fd5b505afa158015610de3573d6000803e3d6000fd5b505050506040513d601f19601f82011682018060405250810190610e0791906123a1565b81602001906001600160a01b031690816001600160a01b031681525050876001600160a01b031663d83678ac6040518163ffffffff1660e01b815260040160206040518083038186803b158015610e5d57600080fd5b505afa158015610e71573d6000803e3d6000fd5b505050506040513d601f19601f82011682018060405250810190610e9591906123a1565b81604001906001600160a01b031690816001600160a01b031681525050876001600160a01b0316632c86d98e6040518163ffffffff1660e01b815260040160206040518083038186803b158015610eeb57600080fd5b505afa158015610eff573d6000803e3d6000fd5b505050506040513d601f19601f82011682018060405250810190610f239190612492565b60ff16816060018181525050876001600160a01b0316633c9749466040518163ffffffff1660e01b815260040160206040518083038186803b158015610f6857600080fd5b505afa158015610f7c573d6000803e3d6000fd5b505050506040513d601f19601f82011682018060405250810190610fa091906123f5565b81608001906001811115610fc457634e487b7160e01b600052602160045260246000fd5b90816001811115610fe557634e487b7160e01b600052602160045260246000fd5b81525050876001600160a01b031663bbb1863a6040518163ffffffff1660e01b815260040160206040518083038186803b15801561102257600080fd5b505afa158015611036573d6000803e3d6000fd5b505050506040513d601f19601f8201168201806040525081019061105a91906123a1565b6001600160a01b031663609615286040518163ffffffff1660e01b815260040160206040518083038186803b15801561109257600080fd5b505afa1580156110a6573d6000803e3d6000fd5b505050506040513d601f19601f820116820180604052508101906110ca91906123a1565b8160a001906001600160a01b031690816001600160a01b031681525050876001600160a01b031663ddd6f9626040518163ffffffff1660e01b815260040160206040518083038186803b15801561112057600080fd5b505afa158015611134573d6000803e3d6000fd5b505050506040513d601f19601f820116820180604052508101906111589190612414565b836000018181525050876001600160a01b03166308a3809d6040518163ffffffff1660e01b815260040160206040518083038186803b15801561119a57600080fd5b505afa1580156111ae573d6000803e3d6000fd5b505050506040513d601f19601f820116820180604052508101906111d29190612414565b602084015242606084015260a081015160408083015190516341976e0960e01b81526001600160a01b0391821660048201529116906341976e0990602401604080518083038186803b15801561122757600080fd5b505afa15801561123b573d6000803e3d6000fd5b505050506040513d601f19601f8201168201806040525081019061125f9190612444565b50604084018190526112b35760405162461bcd60e51b815260206004820152601a60248201527f434242433a20494c4c4547414c5f54524144455f50524943452e0000000000006044820152606401610454565b82516112cb5760408301518352606083015160208401525b876001600160a01b0316639faa3c916040518163ffffffff1660e01b815260040160206040518083038186803b15801561130457600080fd5b505afa158015611318573d6000803e3d6000fd5b505050506040513d601f19601f8201168201806040525081019061133c9190612414565b82600001818152505080600001516001600160a01b03166388e97c3c6040518163ffffffff1660e01b815260040160206040518083038186803b15801561138257600080fd5b505afa158015611396573d6000803e3d6000fd5b505050506040513d601f19601f820116820180604052508101906113ba9190612414565b82602001818152505080600001516001600160a01b031663cbd17c676040518163ffffffff1660e01b815260040160206040518083038186803b15801561140057600080fd5b505afa158015611414573d6000803e3d6000fd5b505050506040513d601f19601f820116820180604052508101906114389190612414565b60408084019190915260a0820151828201519151634094f10b60e01b81526001600160a01b039283166004820152911690634094f10b9060240160206040518083038186803b15801561148a57600080fd5b505afa15801561149e573d6000803e3d6000fd5b505050506040513d601f19601f820116820180604052508101906114c29190612414565b606083015260a0810151604080830151905163d3ea0f8960e01b81526001600160a01b03918216600482015291169063d3ea0f899060240160206040518083038186803b15801561151257600080fd5b505afa158015611526573d6000803e3d6000fd5b505050506040513d601f19601f8201168201806040525081019061154a9190612414565b608083015260a08101516040808301519051634189c95d60e01b81526001600160a01b039182166004820152911690634189c95d9060240160206040518083038186803b15801561159a57600080fd5b505afa1580156115ae573d6000803e3d6000fd5b505050506040513d601f19601f820116820180604052508101906115d29190612414565b60a08381019190915281015160408083015190516384f4b61f60e01b81526001600160a01b0391821660048201529116906384f4b61f9060240160206040518083038186803b15801561162457600080fd5b505afa158015611638573d6000803e3d6000fd5b505050506040513d601f19601f8201168201806040525081019061165c9190612414565b60c083018190526116af5760405162461bcd60e51b815260206004820152601b60248201527f434242433a20494c4c4547414c5f4441494c595f564f4c554d452e00000000006044820152606401610454565b6000871580156116bd575086155b156116db576116d084838560008a611a18565b94505050505061187b565b60006116eb85848660008b611a18565b90506000856040015184604001516001600160a01b031663313ce5676040518163ffffffff1660e01b815260040160206040518083038186803b15801561173157600080fd5b505afa158015611745573d6000803e3d6000fd5b505050506040513d601f19601f820116820180604052508101906117699190612492565b61177490600a6125b0565b85606001518b87602001516001600160a01b031663313ce5676040518163ffffffff1660e01b815260040160206040518083038186803b1580156117b757600080fd5b505afa1580156117cb573d6000803e3d6000fd5b505050506040513d601f19601f820116820180604052508101906117ef9190612492565b6117fa90600a6125b0565b868f670de0b6b3a764000061180f9190612705565b6118199190612547565b61182b90670de0b6b3a7640000612705565b6118359190612547565b61183f9190612501565b6118499190612705565b6118539190612705565b61185d9190612547565b905061186a85828a612126565b925050506116d0848385848a611a18565b949350505050565b600061188f83836121cd565b1561189c57506000611954565b60006118a78361195a565b905080816118b48661195a565b6118be9190612724565b606654604080516318160ddd60e01b8152905161193c926001600160a01b0316916318160ddd916004808301926020929190829003018186803b15801561190457600080fd5b505afa158015611918573d6000803e3d6000fd5b505050506040513d601f19601f82011682018060405250810190610a4b9190612414565b6119469190612682565b6119509190612519565b9150505b92915050565b60006001600160ff1b0382111561197057600080fd5b50805b919050565b60008160001914158061198f5750600160ff1b8314155b61199857600080fd5b6119a28284612519565b9392505050565b6001600160a01b0381166119bc57600080fd5b6033546040516001600160a01b038084169216907f8be0079c531659141344cd1fd0a4f28419497f9722a3daafe3b4186f6b6457e090600090a3603380546001600160a01b0319166001600160a01b0392909216919091179055565b8451604086015160608601518551600093929190848285611a3a826001612501565b611a449190612705565b611a4e9190612547565b905060008386611a5f600183612763565b611a699190612705565b611a739190612547565b905060008082871015611a8857829650611a94565b83871115611a94578396505b60018d608001516001811115611aba57634e487b7160e01b600052602160045260246000fd5b1415611dbb5760008a6001811115611ae257634e487b7160e01b600052602160045260246000fd5b1415611af957611af28b88612501565b9650611b10565b611b038b88612231565b611b0d9088612763565b96505b6000851315611bc65786611b248482612763565b611b2e8987612763565b611b37886122ec565b611b419190612705565b611b4b9190612705565b611b559190612547565b611b61886103e8612705565b611b6b9190612501565b915087611b788482612763565b611b828a87612763565b611b8b886122ec565b611b959190612705565b611b9f9190612705565b611ba99190612547565b611bb5896103e8612705565b611bbf9190612501565b9050611c6f565b86611bd18482612763565b611bdb8987612763565b611be4886122ec565b611bee9190612705565b611bf89190612705565b611c029190612547565b611c0e886103e8612705565b611c189190612763565b915087611c258482612763565b611c2f8a87612763565b611c38886122ec565b611c429190612705565b611c4c9190612705565b611c569190612547565b611c62896103e8612705565b611c6c9190612763565b90505b6301e133808e602001518f60600151611c889190612763565b8d60800151611c979190612705565b611ca790651cae8c13e000612501565b611cb2600189612763565b611cc19064e8d4a51000612705565b611ccb9190612705565b611cd59190612547565b611ce590655af3107a4000612501565b81611cf08489612705565b611d0290670de0b6b3a7640000612705565b611d0c9190612547565b11611d1d57655af3107a4000611db4565b6301e133808e602001518f60600151611d369190612763565b8d60800151611d459190612705565b611d5590651cae8c13e000612501565b611d60600189612763565b611d6f9064e8d4a51000612705565b611d799190612705565b611d839190612547565b81611d8e8489612705565b611da090670de0b6b3a7640000612705565b611daa9190612547565b611db49190612763565b9850612115565b60008d608001516001811115611de157634e487b7160e01b600052602160045260246000fd5b14156120db5760008a6001811115611e0957634e487b7160e01b600052602160045260246000fd5b1415611e2a57611e198b88612231565b611e239088612763565b9650611e37565b611e348b88612501565b96505b6000851315611f3b57651cae8c13e0008e602001518f60600151611e5b9190612763565b8d60800151611e6a9190612705565b611e7a906502de41353000612501565b88611e858682612763565b611e8f8b89612763565b611e988a6122ec565b611ea29190612705565b611eac9190612705565b611eb69190612547565b611ec28a6103e8612705565b611ecc9190612501565b611ed69190612705565b611ee09190612547565b915087611eed8482612763565b611ef78a87612763565b611f00886122ec565b611f0a9190612705565b611f149190612705565b611f1e9190612547565b611f2a896103e8612705565b611f349190612501565b9050612032565b651cae8c13e0008e602001518f60600151611f569190612763565b8d60800151611f659190612705565b611f75906502de41353000612501565b88611f808682612763565b611f8a8b89612763565b611f938a6122ec565b611f9d9190612705565b611fa79190612705565b611fb19190612547565b611fbd8a6103e8612705565b611fc79190612763565b611fd19190612705565b611fdb9190612547565b915087611fe88482612763565b611ff28a87612763565b611ffb886122ec565b6120059190612705565b61200f9190612705565b6120199190612547565b612025896103e8612705565b61202f9190612763565b90505b8061203d8388612705565b61204f90670de0b6b3a7640000612705565b6120599190612547565b61206990655af3107a4000612501565b612074876001612501565b61208690670de0b6b3a7640000612705565b1161209757655af3107a4000611db4565b806120a28388612705565b6120b490670de0b6b3a7640000612705565b6120be9190612547565b6120c9876001612501565b611daa90670de0b6b3a7640000612705565b60405162461bcd60e51b815260206004820152600f60248201526e434242433a57524f4e475f5459504560881b6044820152606401610454565b505050505050505095945050505050565b6000808083600181111561214a57634e487b7160e01b600052602160045260246000fd5b141561215b57506020840151612162565b5060408401515b633b9aca006121928660c0015186670de0b6b3a76400006121839190612705565b61218d9190612547565b612316565b60a08701516121a19084612705565b6121ab9190612705565b6121b59190612547565b85606001516121c49190612501565b95945050505050565b6000806121dc6012600a6125a1565b6068546121e99085612705565b6121f39190612547565b905082841015801561220d57508061220b8486612763565b105b80611950575082841080156119505750806122288585612763565b10949350505050565b60006014612240836013612705565b61224a9190612547565b83116122575750816122c6565b612262836064612705565b601461226f846013612705565b6122799190612547565b6122839085612763565b61228d9084612705565b612298906004612705565b6122a29190612547565b60146122af846013612705565b6122b99190612547565b6122c39190612501565b90505b818310806122d2575081155b61195457634e487b7160e01b600052600160045260246000fd5b6000600160ff1b8214156122ff57600080fd5b6000821261230d5781611954565b6119548261278e565b600060038211156123775750806000612330600283612547565b61233b906001612501565b90505b81811015612371579050806002816123568186612547565b6123609190612501565b61236a9190612547565b905061233e565b50611973565b811561197357506001919050565b600060208284031215612396578081fd5b81356119a2816127d4565b6000602082840312156123b2578081fd5b81516119a2816127d4565b600080604083850312156123cf578081fd5b82356123da816127d4565b915060208301356123ea816127d4565b809150509250929050565b600060208284031215612406578081fd5b8151600281106119a2578182fd5b600060208284031215612425578081fd5b5051919050565b60006020828403121561243d578081fd5b5035919050565b60008060408385031215612456578182fd5b505080516020909101519092909150565b60008060006060848603121561247b578081fd5b505081359360208301359350604090920135919050565b6000602082840312156124a3578081fd5b815160ff811681146119a2578182fd5b6020808252602e908201527f436f6e747261637420696e7374616e63652068617320616c726561647920626560408201526d195b881a5b9a5d1a585b1a5e995960921b606082015260800190565b60008219821115612514576125146127a8565b500190565b600082612528576125286127be565b600160ff1b821460001984141615612542576125426127a8565b500590565b600082612556576125566127be565b500490565b80825b600180861161256d5750612598565b81870482111561257f5761257f6127a8565b8086161561258c57918102915b9490941c93800261255e565b94509492505050565b60006119a260001984846125be565b60006119a260001960ff8516845b6000826125cd575060016119a2565b816125da575060006119a2565b81600181146125f057600281146125fa57612627565b60019150506119a2565b60ff84111561260b5761260b6127a8565b6001841b915084821115612621576126216127a8565b506119a2565b5060208310610133831016604e8410600b841016171561265a575081810a83811115612655576126556127a8565b6119a2565b612667848484600161255b565b808604821115612679576126796127a8565b02949350505050565b60006001600160ff1b03818413828413808216868404861116156126a8576126a86127a8565b600160ff1b848712828116878305891216156126c6576126c66127a8565b8587129250878205871284841616156126e1576126e16127a8565b878505871281841616156126f7576126f76127a8565b505050929093029392505050565b600081600019048311821515161561271f5761271f6127a8565b500290565b60008083128015600160ff1b850184121615612742576127426127a8565b6001600160ff1b038401831381161561275d5761275d6127a8565b50500390565b600082821015612775576127756127a8565b500390565b600082612789576127896127be565b500690565b6000600160ff1b8214156127a4576127a46127a8565b0390565b634e487b7160e01b600052601160045260246000fd5b634e487b7160e01b600052601260045260246000fd5b6001600160a01b0381168114610c1257600080fdfea264697066735822122019e6722f2999b1b1ef0d2d53fd291e58e4f8f912cf52d05d99c84147aadc944064736f6c63430008030033",
			"opcodes": "PUSH1 0x80 PUSH1 0x40 MSTORE CALLVALUE DUP1 ISZERO PUSH2 0x10 JUMPI PUSH1 0x0 DUP1 REVERT JUMPDEST POP PUSH2 0x281F DUP1 PUSH2 0x20 PUSH1 0x0 CODECOPY PUSH1 0x0 RETURN INVALID PUSH1 0x80 PUSH1 0x40 MSTORE CALLVALUE DUP1 ISZERO PUSH2 0x10 JUMPI PUSH1 0x0 DUP1 REVERT JUMPDEST POP PUSH1 0x4 CALLDATASIZE LT PUSH2 0x14D JUMPI PUSH1 0x0 CALLDATALOAD PUSH1 0xE0 SHR DUP1 PUSH4 0x715018A6 GT PUSH2 0xC3 JUMPI DUP1 PUSH4 0xAF14052C GT PUSH2 0x7C JUMPI DUP1 PUSH4 0xAF14052C EQ PUSH2 0x289 JUMPI DUP1 PUSH4 0xB74795D9 EQ PUSH2 0x291 JUMPI DUP1 PUSH4 0xC4D66DE8 EQ PUSH2 0x2A4 JUMPI DUP1 PUSH4 0xCD28EF0D EQ PUSH2 0x2B7 JUMPI DUP1 PUSH4 0xD94AD837 EQ PUSH2 0x2CA JUMPI DUP1 PUSH4 0xF2FDE38B EQ PUSH2 0x2D3 JUMPI PUSH2 0x14D JUMP JUMPDEST DUP1 PUSH4 0x715018A6 EQ PUSH2 0x237 JUMPI DUP1 PUSH4 0x8DA5CB5B EQ PUSH2 0x23F JUMPI DUP1 PUSH4 0x8F32D59B EQ PUSH2 0x250 JUMPI DUP1 PUSH4 0x900CF0CF EQ PUSH2 0x264 JUMPI DUP1 PUSH4 0x9466120F EQ PUSH2 0x26D JUMPI DUP1 PUSH4 0x9E30BAC5 EQ PUSH2 0x276 JUMPI PUSH2 0x14D JUMP JUMPDEST DUP1 PUSH4 0x20CE8389 GT PUSH2 0x115 JUMPI DUP1 PUSH4 0x20CE8389 EQ PUSH2 0x1E3 JUMPI DUP1 PUSH4 0x3A93069B EQ PUSH2 0x1F6 JUMPI DUP1 PUSH4 0x485CC955 EQ PUSH2 0x1FF JUMPI DUP1 PUSH4 0x60961528 EQ PUSH2 0x212 JUMPI DUP1 PUSH4 0x63F6D4C8 EQ PUSH2 0x225 JUMPI DUP1 PUSH4 0x7052B902 EQ PUSH2 0x22E JUMPI PUSH2 0x14D JUMP JUMPDEST DUP1 PUSH4 0x2101899 EQ PUSH2 0x152 JUMPI DUP1 PUSH4 0xE1B04AE EQ PUSH2 0x16E JUMPI DUP1 PUSH4 0x105BAD4F EQ PUSH2 0x199 JUMPI DUP1 PUSH4 0x111D0498 EQ PUSH2 0x1B6 JUMPI DUP1 PUSH4 0x16250FD4 EQ PUSH2 0x1CE JUMPI JUMPDEST PUSH1 0x0 DUP1 REVERT JUMPDEST PUSH2 0x15B PUSH1 0x6A SLOAD DUP2 JUMP JUMPDEST PUSH1 0x40 MLOAD SWAP1 DUP2 MSTORE PUSH1 0x20 ADD JUMPDEST PUSH1 0x40 MLOAD DUP1 SWAP2 SUB SWAP1 RETURN JUMPDEST PUSH1 0x66 SLOAD PUSH2 0x181 SWAP1 PUSH1 0x1 PUSH1 0x1 PUSH1 0xA0 SHL SUB AND DUP2 JUMP JUMPDEST PUSH1 0x40 MLOAD PUSH1 0x1 PUSH1 0x1 PUSH1 0xA0 SHL SUB SWAP1 SWAP2 AND DUP2 MSTORE PUSH1 0x20 ADD PUSH2 0x165 JUMP JUMPDEST PUSH2 0x1A1 PUSH2 0x2E6 JUMP JUMPDEST PUSH1 0x40 DUP1 MLOAD SWAP3 DUP4 MSTORE PUSH1 0x20 DUP4 ADD SWAP2 SWAP1 SWAP2 MSTORE ADD PUSH2 0x165 JUMP JUMPDEST PUSH2 0x1BE PUSH2 0x37A JUMP JUMPDEST PUSH1 0x40 MLOAD SWAP1 ISZERO ISZERO DUP2 MSTORE PUSH1 0x20 ADD PUSH2 0x165 JUMP JUMPDEST PUSH2 0x1E1 PUSH2 0x1DC CALLDATASIZE PUSH1 0x4 PUSH2 0x2467 JUMP JUMPDEST PUSH2 0x3BA JUMP JUMPDEST STOP JUMPDEST PUSH2 0x1E1 PUSH2 0x1F1 CALLDATASIZE PUSH1 0x4 PUSH2 0x242C JUMP JUMPDEST PUSH2 0x4FF JUMP JUMPDEST PUSH2 0x15B PUSH1 0x6B SLOAD DUP2 JUMP JUMPDEST PUSH2 0x1E1 PUSH2 0x20D CALLDATASIZE PUSH1 0x4 PUSH2 0x23BD JUMP JUMPDEST PUSH2 0x5A1 JUMP JUMPDEST PUSH1 0x67 SLOAD PUSH2 0x181 SWAP1 PUSH1 0x1 PUSH1 0x1 PUSH1 0xA0 SHL SUB AND DUP2 JUMP JUMPDEST PUSH2 0x15B PUSH1 0x69 SLOAD DUP2 JUMP JUMPDEST PUSH2 0x15B PUSH1 0x6C SLOAD DUP2 JUMP JUMPDEST PUSH2 0x1E1 PUSH2 0x6A9 JUMP JUMPDEST PUSH1 0x33 SLOAD PUSH1 0x1 PUSH1 0x1 PUSH1 0xA0 SHL SUB AND PUSH2 0x181 JUMP JUMPDEST PUSH2 0x1BE PUSH1 0x33 SLOAD PUSH1 0x1 PUSH1 0x1 PUSH1 0xA0 SHL SUB AND CALLER EQ SWAP1 JUMP JUMPDEST PUSH2 0x15B PUSH1 0x6E SLOAD DUP2 JUMP JUMPDEST PUSH2 0x15B PUSH1 0x6D SLOAD DUP2 JUMP JUMPDEST PUSH2 0x1E1 PUSH2 0x284 CALLDATASIZE PUSH1 0x4 PUSH2 0x2385 JUMP JUMPDEST PUSH2 0x710 JUMP JUMPDEST PUSH2 0x1E1 PUSH2 0x74F JUMP JUMPDEST PUSH1 0x6F SLOAD PUSH2 0x181 SWAP1 PUSH1 0x1 PUSH1 0x1 PUSH1 0xA0 SHL SUB AND DUP2 JUMP JUMPDEST PUSH2 0x1E1 PUSH2 0x2B2 CALLDATASIZE PUSH1 0x4 PUSH2 0x2385 JUMP JUMPDEST PUSH2 0xB29 JUMP JUMPDEST PUSH2 0x1E1 PUSH2 0x2C5 CALLDATASIZE PUSH1 0x4 PUSH2 0x2385 JUMP JUMPDEST PUSH2 0xBAD JUMP JUMPDEST PUSH2 0x15B PUSH1 0x68 SLOAD DUP2 JUMP JUMPDEST PUSH2 0x1E1 PUSH2 0x2E1 CALLDATASIZE PUSH1 0x4 PUSH2 0x2385 JUMP JUMPDEST PUSH2 0xBEC JUMP JUMPDEST PUSH1 0x0 DUP1 PUSH1 0x6E SLOAD PUSH1 0x66 PUSH1 0x0 SWAP1 SLOAD SWAP1 PUSH2 0x100 EXP SWAP1 DIV PUSH1 0x1 PUSH1 0x1 PUSH1 0xA0 SHL SUB AND PUSH1 0x1 PUSH1 0x1 PUSH1 0xA0 SHL SUB AND PUSH4 0x18160DDD PUSH1 0x40 MLOAD DUP2 PUSH4 0xFFFFFFFF AND PUSH1 0xE0 SHL DUP2 MSTORE PUSH1 0x4 ADD PUSH1 0x20 PUSH1 0x40 MLOAD DUP1 DUP4 SUB DUP2 DUP7 DUP1 EXTCODESIZE ISZERO DUP1 ISZERO PUSH2 0x33A JUMPI PUSH1 0x0 DUP1 REVERT JUMPDEST POP GAS STATICCALL ISZERO DUP1 ISZERO PUSH2 0x34E JUMPI RETURNDATASIZE PUSH1 0x0 DUP1 RETURNDATACOPY RETURNDATASIZE PUSH1 0x0 REVERT JUMPDEST POP POP POP POP PUSH1 0x40 MLOAD RETURNDATASIZE PUSH1 0x1F NOT PUSH1 0x1F DUP3 ADD AND DUP3 ADD DUP1 PUSH1 0x40 MSTORE POP DUP2 ADD SWAP1 PUSH2 0x372 SWAP2 SWAP1 PUSH2 0x2414 JUMP JUMPDEST SWAP2 POP SWAP2 POP SWAP1 SWAP2 JUMP JUMPDEST PUSH1 0x0 PUSH1 0x6C SLOAD PUSH1 0x6A SLOAD TIMESTAMP PUSH2 0x38D SWAP2 SWAP1 PUSH2 0x277A JUMP JUMPDEST LT ISZERO DUP1 ISZERO PUSH2 0x3B5 JUMPI POP PUSH1 0x6D SLOAD PUSH1 0x6C SLOAD PUSH2 0x3A6 SWAP2 SWAP1 PUSH2 0x2501 JUMP JUMPDEST PUSH1 0x6A SLOAD PUSH2 0x3B3 SWAP1 TIMESTAMP PUSH2 0x277A JUMP JUMPDEST LT JUMPDEST SWAP1 POP SWAP1 JUMP JUMPDEST PUSH2 0x3CE PUSH1 0x33 SLOAD PUSH1 0x1 PUSH1 0x1 PUSH1 0xA0 SHL SUB AND CALLER EQ SWAP1 JUMP JUMPDEST PUSH2 0x3D7 JUMPI PUSH1 0x0 DUP1 REVERT JUMPDEST PUSH1 0x0 DUP4 GT PUSH2 0x45D JUMPI PUSH1 0x40 MLOAD PUSH3 0x461BCD PUSH1 0xE5 SHL DUP2 MSTORE PUSH1 0x20 PUSH1 0x4 DUP3 ADD MSTORE PUSH1 0x42 PUSH1 0x24 DUP3 ADD MSTORE PUSH32 0x43626263526562617365506F6C6963793A206D696E52656261736554696D6549 PUSH1 0x44 DUP3 ADD MSTORE PUSH32 0x6E74657276616C536563206D7573742062652067726561746572207468616E20 PUSH1 0x64 DUP3 ADD MSTORE PUSH2 0x1817 PUSH1 0xF1 SHL PUSH1 0x84 DUP3 ADD MSTORE PUSH1 0xA4 ADD JUMPDEST PUSH1 0x40 MLOAD DUP1 SWAP2 SUB SWAP1 REVERT JUMPDEST DUP3 DUP3 LT PUSH2 0x4F1 JUMPI PUSH1 0x40 MLOAD PUSH3 0x461BCD PUSH1 0xE5 SHL DUP2 MSTORE PUSH1 0x20 PUSH1 0x4 DUP3 ADD MSTORE PUSH1 0x56 PUSH1 0x24 DUP3 ADD MSTORE PUSH32 0x43626263526562617365506F6C6963793A206D696E52656261736554696D6549 PUSH1 0x44 DUP3 ADD MSTORE PUSH32 0x6E74657276616C536563206D7573742062652067726561746572207468616E20 PUSH1 0x64 DUP3 ADD MSTORE PUSH22 0x3932B130B9B2ABB4B73237BBA7B33339B2BA29B2B197 PUSH1 0x51 SHL PUSH1 0x84 DUP3 ADD MSTORE PUSH1 0xA4 ADD PUSH2 0x454 JUMP JUMPDEST PUSH1 0x6A SWAP3 SWAP1 SWAP3 SSTORE PUSH1 0x6C SSTORE PUSH1 0x6D SSTORE JUMP JUMPDEST PUSH2 0x513 PUSH1 0x33 SLOAD PUSH1 0x1 PUSH1 0x1 PUSH1 0xA0 SHL SUB AND CALLER EQ SWAP1 JUMP JUMPDEST PUSH2 0x51C JUMPI PUSH1 0x0 DUP1 REVERT JUMPDEST PUSH1 0x0 DUP2 GT PUSH2 0x59C JUMPI PUSH1 0x40 MLOAD PUSH3 0x461BCD PUSH1 0xE5 SHL DUP2 MSTORE PUSH1 0x20 PUSH1 0x4 DUP3 ADD MSTORE PUSH1 0x41 PUSH1 0x24 DUP3 ADD MSTORE PUSH32 0x43626263526562617365506F6C6963793A3A7365745265626173654C61673A20 PUSH1 0x44 DUP3 ADD MSTORE PUSH32 0x7265626173654C6167206D7573742062652067726561746572207468616E2030 PUSH1 0x64 DUP3 ADD MSTORE PUSH1 0x17 PUSH1 0xF9 SHL PUSH1 0x84 DUP3 ADD MSTORE PUSH1 0xA4 ADD PUSH2 0x454 JUMP JUMPDEST PUSH1 0x69 SSTORE JUMP JUMPDEST PUSH1 0x0 SLOAD PUSH2 0x100 SWAP1 DIV PUSH1 0xFF AND DUP1 PUSH2 0x5B6 JUMPI POP ADDRESS EXTCODESIZE ISZERO JUMPDEST DUP1 PUSH2 0x5C4 JUMPI POP PUSH1 0x0 SLOAD PUSH1 0xFF AND ISZERO JUMPDEST PUSH2 0x5E0 JUMPI PUSH1 0x40 MLOAD PUSH3 0x461BCD PUSH1 0xE5 SHL DUP2 MSTORE PUSH1 0x4 ADD PUSH2 0x454 SWAP1 PUSH2 0x24B3 JUMP JUMPDEST PUSH1 0x0 DUP1 SLOAD PUSH2 0xFFFF NOT DUP2 AND PUSH2 0x101 OR SWAP1 SWAP2 SSTORE PUSH2 0x100 SWAP1 DIV PUSH1 0xFF AND PUSH2 0x602 DUP4 PUSH2 0xB29 JUMP JUMPDEST PUSH1 0x1 PUSH1 0x69 DUP2 SWAP1 SSTORE PUSH1 0x6A SSTORE PUSH1 0x0 PUSH1 0x6C DUP2 SWAP1 SSTORE PUSH1 0xF PUSH1 0x6D SSTORE PUSH1 0x6B DUP2 SWAP1 SSTORE PUSH1 0x6E SSTORE PUSH1 0x66 DUP1 SLOAD PUSH1 0x1 PUSH1 0x1 PUSH1 0xA0 SHL SUB NOT AND PUSH1 0x1 PUSH1 0x1 PUSH1 0xA0 SHL SUB DUP5 AND SWAP1 DUP2 OR SWAP1 SWAP2 SSTORE PUSH1 0x40 MLOAD PUSH4 0x37E259D5 PUSH1 0xE2 SHL DUP2 MSTORE ADDRESS PUSH1 0x4 DUP3 ADD MSTORE PUSH4 0xDF896754 SWAP1 PUSH1 0x24 ADD PUSH1 0x0 PUSH1 0x40 MLOAD DUP1 DUP4 SUB DUP2 PUSH1 0x0 DUP8 DUP1 EXTCODESIZE ISZERO DUP1 ISZERO PUSH2 0x674 JUMPI PUSH1 0x0 DUP1 REVERT JUMPDEST POP GAS CALL ISZERO DUP1 ISZERO PUSH2 0x688 JUMPI RETURNDATASIZE PUSH1 0x0 DUP1 RETURNDATACOPY RETURNDATASIZE PUSH1 0x0 REVERT JUMPDEST POP POP PUSH1 0x0 DUP1 SLOAD SWAP4 ISZERO ISZERO PUSH2 0x100 MUL PUSH2 0xFF00 NOT SWAP1 SWAP5 AND SWAP4 SWAP1 SWAP4 OR SWAP1 SWAP3 SSTORE POP POP POP POP JUMP JUMPDEST PUSH2 0x6BD PUSH1 0x33 SLOAD PUSH1 0x1 PUSH1 0x1 PUSH1 0xA0 SHL SUB AND CALLER EQ SWAP1 JUMP JUMPDEST PUSH2 0x6C6 JUMPI PUSH1 0x0 DUP1 REVERT JUMPDEST PUSH1 0x33 SLOAD PUSH1 0x40 MLOAD PUSH1 0x1 PUSH1 0x1 PUSH1 0xA0 SHL SUB SWAP1 SWAP2 AND SWAP1 PUSH32 0xF8DF31144D9C2F0F6B59D69B8B98ABD5459D07F2742C4DF920B25AAE33C64820 SWAP1 PUSH1 0x0 SWAP1 LOG2 PUSH1 0x33 DUP1 SLOAD PUSH1 0x1 PUSH1 0x1 PUSH1 0xA0 SHL SUB NOT AND SWAP1 SSTORE JUMP JUMPDEST PUSH2 0x724 PUSH1 0x33 SLOAD PUSH1 0x1 PUSH1 0x1 PUSH1 0xA0 SHL SUB AND CALLER EQ SWAP1 JUMP JUMPDEST PUSH2 0x72D JUMPI PUSH1 0x0 DUP1 REVERT JUMPDEST PUSH1 0x67 DUP1 SLOAD PUSH1 0x1 PUSH1 0x1 PUSH1 0xA0 SHL SUB NOT AND PUSH1 0x1 PUSH1 0x1 PUSH1 0xA0 SHL SUB SWAP3 SWAP1 SWAP3 AND SWAP2 SWAP1 SWAP2 OR SWAP1 SSTORE JUMP JUMPDEST PUSH1 0x6F SLOAD PUSH1 0x1 PUSH1 0x1 PUSH1 0xA0 SHL SUB AND CALLER EQ PUSH2 0x7A9 JUMPI PUSH1 0x40 MLOAD PUSH3 0x461BCD PUSH1 0xE5 SHL DUP2 MSTORE PUSH1 0x20 PUSH1 0x4 DUP3 ADD DUP2 SWAP1 MSTORE PUSH1 0x24 DUP3 ADD MSTORE PUSH32 0x434242433A204F4E4C595F4F7243484553545241544F525F414C4C4F5745442E PUSH1 0x44 DUP3 ADD MSTORE PUSH1 0x64 ADD PUSH2 0x454 JUMP JUMPDEST PUSH2 0x7B1 PUSH2 0x37A JUMP JUMPDEST PUSH2 0x7FD JUMPI PUSH1 0x40 MLOAD PUSH3 0x461BCD PUSH1 0xE5 SHL DUP2 MSTORE PUSH1 0x20 PUSH1 0x4 DUP3 ADD MSTORE PUSH1 0x1B PUSH1 0x24 DUP3 ADD MSTORE PUSH32 0x434242433A204E4F545F494E5F5245424153455F57494E444F572E0000000000 PUSH1 0x44 DUP3 ADD MSTORE PUSH1 0x64 ADD PUSH2 0x454 JUMP JUMPDEST TIMESTAMP PUSH1 0x6A SLOAD PUSH1 0x6B SLOAD PUSH2 0x80E SWAP2 SWAP1 PUSH2 0x2501 JUMP JUMPDEST LT PUSH2 0x818 JUMPI PUSH1 0x0 DUP1 REVERT JUMPDEST PUSH1 0x6C SLOAD PUSH1 0x6A SLOAD PUSH2 0x828 SWAP1 TIMESTAMP PUSH2 0x277A JUMP JUMPDEST PUSH2 0x832 SWAP1 TIMESTAMP PUSH2 0x2763 JUMP JUMPDEST PUSH2 0x83C SWAP2 SWAP1 PUSH2 0x2501 JUMP JUMPDEST PUSH1 0x6B SSTORE PUSH1 0x6E SLOAD PUSH2 0x84D SWAP1 PUSH1 0x1 PUSH2 0x2501 JUMP JUMPDEST PUSH1 0x6E SSTORE PUSH1 0x0 PUSH2 0x85E PUSH1 0x12 PUSH1 0xA PUSH2 0x25A1 JUMP JUMPDEST PUSH1 0x66 SLOAD SWAP1 SWAP2 POP PUSH1 0x0 SWAP1 PUSH2 0x87C SWAP1 PUSH1 0x1 PUSH1 0x1 PUSH1 0xA0 SHL SUB AND DUP3 DUP1 DUP1 PUSH2 0xC15 JUMP JUMPDEST SWAP1 POP PUSH2 0x88A PUSH1 0x12 PUSH1 0xA PUSH2 0x25A1 JUMP JUMPDEST PUSH2 0x895 SWAP1 PUSH1 0xA PUSH2 0x2705 JUMP JUMPDEST DUP2 GT ISZERO PUSH2 0x8B6 JUMPI PUSH2 0x8A8 PUSH1 0x12 PUSH1 0xA PUSH2 0x25A1 JUMP JUMPDEST PUSH2 0x8B3 SWAP1 PUSH1 0xA PUSH2 0x2705 JUMP JUMPDEST SWAP1 POP JUMPDEST PUSH1 0x0 PUSH2 0x8C2 DUP3 DUP5 PUSH2 0x1883 JUMP JUMPDEST SWAP1 POP PUSH2 0x8D9 PUSH2 0x8D2 PUSH1 0x69 SLOAD PUSH2 0x195A JUMP JUMPDEST DUP3 SWAP1 PUSH2 0x1978 JUMP JUMPDEST SWAP1 POP PUSH1 0x0 DUP2 SGT DUP1 ISZERO PUSH2 0x996 JUMPI POP PUSH2 0x8F2 PUSH1 0x12 PUSH1 0xA PUSH2 0x25A1 JUMP JUMPDEST PUSH2 0x8FD SWAP1 PUSH1 0xA PUSH2 0x2705 JUMP JUMPDEST PUSH2 0x90E SWAP1 PUSH1 0x1 PUSH1 0x1 PUSH1 0xFF SHL SUB PUSH2 0x2547 JUMP JUMPDEST PUSH1 0x66 SLOAD PUSH1 0x40 DUP1 MLOAD PUSH4 0x18160DDD PUSH1 0xE0 SHL DUP2 MSTORE SWAP1 MLOAD DUP5 SWAP3 PUSH1 0x1 PUSH1 0x1 PUSH1 0xA0 SHL SUB AND SWAP2 PUSH4 0x18160DDD SWAP2 PUSH1 0x4 DUP1 DUP4 ADD SWAP3 PUSH1 0x20 SWAP3 SWAP2 SWAP1 DUP3 SWAP1 SUB ADD DUP2 DUP7 DUP1 EXTCODESIZE ISZERO DUP1 ISZERO PUSH2 0x952 JUMPI PUSH1 0x0 DUP1 REVERT JUMPDEST POP GAS STATICCALL ISZERO DUP1 ISZERO PUSH2 0x966 JUMPI RETURNDATASIZE PUSH1 0x0 DUP1 RETURNDATACOPY RETURNDATASIZE PUSH1 0x0 REVERT JUMPDEST POP POP POP POP PUSH1 0x40 MLOAD RETURNDATASIZE PUSH1 0x1F NOT PUSH1 0x1F DUP3 ADD AND DUP3 ADD DUP1 PUSH1 0x40 MSTORE POP DUP2 ADD SWAP1 PUSH2 0x98A SWAP2 SWAP1 PUSH2 0x2414 JUMP JUMPDEST PUSH2 0x994 SWAP2 SWAP1 PUSH2 0x2501 JUMP JUMPDEST GT JUMPDEST ISZERO PUSH2 0xA53 JUMPI PUSH1 0x66 SLOAD PUSH1 0x40 DUP1 MLOAD PUSH4 0x18160DDD PUSH1 0xE0 SHL DUP2 MSTORE SWAP1 MLOAD PUSH2 0xA50 SWAP3 PUSH1 0x1 PUSH1 0x1 PUSH1 0xA0 SHL SUB AND SWAP2 PUSH4 0x18160DDD SWAP2 PUSH1 0x4 DUP1 DUP4 ADD SWAP3 PUSH1 0x20 SWAP3 SWAP2 SWAP1 DUP3 SWAP1 SUB ADD DUP2 DUP7 DUP1 EXTCODESIZE ISZERO DUP1 ISZERO PUSH2 0x9E1 JUMPI PUSH1 0x0 DUP1 REVERT JUMPDEST POP GAS STATICCALL ISZERO DUP1 ISZERO PUSH2 0x9F5 JUMPI RETURNDATASIZE PUSH1 0x0 DUP1 RETURNDATACOPY RETURNDATASIZE PUSH1 0x0 REVERT JUMPDEST POP POP POP POP PUSH1 0x40 MLOAD RETURNDATASIZE PUSH1 0x1F NOT PUSH1 0x1F DUP3 ADD AND DUP3 ADD DUP1 PUSH1 0x40 MSTORE POP DUP2 ADD SWAP1 PUSH2 0xA19 SWAP2 SWAP1 PUSH2 0x2414 JUMP JUMPDEST PUSH2 0xA25 PUSH1 0x12 PUSH1 0xA PUSH2 0x25A1 JUMP JUMPDEST PUSH2 0xA30 SWAP1 PUSH1 0xA PUSH2 0x2705 JUMP JUMPDEST PUSH2 0xA41 SWAP1 PUSH1 0x1 PUSH1 0x1 PUSH1 0xFF SHL SUB PUSH2 0x2547 JUMP JUMPDEST PUSH2 0xA4B SWAP2 SWAP1 PUSH2 0x2763 JUMP JUMPDEST PUSH2 0x195A JUMP JUMPDEST SWAP1 POP JUMPDEST PUSH1 0x66 SLOAD PUSH1 0x6E SLOAD PUSH1 0x40 MLOAD PUSH4 0x7A43E23F PUSH1 0xE0 SHL DUP2 MSTORE PUSH1 0x1 PUSH1 0x1 PUSH1 0xA0 SHL SUB SWAP1 SWAP3 AND SWAP2 PUSH4 0x7A43E23F SWAP2 PUSH2 0xA8F SWAP2 DUP6 SWAP1 PUSH1 0x4 ADD SWAP2 DUP3 MSTORE PUSH1 0x20 DUP3 ADD MSTORE PUSH1 0x40 ADD SWAP1 JUMP JUMPDEST PUSH1 0x20 PUSH1 0x40 MLOAD DUP1 DUP4 SUB DUP2 PUSH1 0x0 DUP8 DUP1 EXTCODESIZE ISZERO DUP1 ISZERO PUSH2 0xAA9 JUMPI PUSH1 0x0 DUP1 REVERT JUMPDEST POP GAS CALL ISZERO DUP1 ISZERO PUSH2 0xABD JUMPI RETURNDATASIZE PUSH1 0x0 DUP1 RETURNDATACOPY RETURNDATASIZE PUSH1 0x0 REVERT JUMPDEST POP POP POP POP PUSH1 0x40 MLOAD RETURNDATASIZE PUSH1 0x1F NOT PUSH1 0x1F DUP3 ADD AND DUP3 ADD DUP1 PUSH1 0x40 MSTORE POP DUP2 ADD SWAP1 PUSH2 0xAE1 SWAP2 SWAP1 PUSH2 0x2414 JUMP JUMPDEST POP PUSH1 0x6E SLOAD PUSH1 0x40 DUP1 MLOAD DUP5 DUP2 MSTORE PUSH1 0x20 DUP2 ADD DUP5 SWAP1 MSTORE TIMESTAMP DUP2 DUP4 ADD MSTORE SWAP1 MLOAD PUSH32 0x7F5C8486E564C1D27C32DA42B1BA6A909114D7BBEA36DE9A66BC0BEBFBA26BC3 SWAP2 DUP2 SWAP1 SUB PUSH1 0x60 ADD SWAP1 LOG2 POP POP POP JUMP JUMPDEST PUSH1 0x0 SLOAD PUSH2 0x100 SWAP1 DIV PUSH1 0xFF AND DUP1 PUSH2 0xB3E JUMPI POP ADDRESS EXTCODESIZE ISZERO JUMPDEST DUP1 PUSH2 0xB4C JUMPI POP PUSH1 0x0 SLOAD PUSH1 0xFF AND ISZERO JUMPDEST PUSH2 0xB68 JUMPI PUSH1 0x40 MLOAD PUSH3 0x461BCD PUSH1 0xE5 SHL DUP2 MSTORE PUSH1 0x4 ADD PUSH2 0x454 SWAP1 PUSH2 0x24B3 JUMP JUMPDEST PUSH1 0x0 DUP1 SLOAD PUSH1 0x33 DUP1 SLOAD PUSH1 0x1 PUSH1 0x1 PUSH1 0xA0 SHL SUB NOT AND PUSH1 0x1 PUSH1 0x1 PUSH1 0xA0 SHL SUB SWAP5 SWAP1 SWAP5 AND SWAP4 SWAP1 SWAP4 OR SWAP1 SWAP3 SSTORE PUSH2 0xFFFF NOT DUP3 AND PUSH2 0x100 SWAP3 DUP4 SWAP1 DIV PUSH1 0xFF AND ISZERO ISZERO SWAP1 SWAP3 MUL SWAP2 SWAP1 SWAP2 OR PUSH1 0x1 OR SWAP1 SSTORE JUMP JUMPDEST PUSH2 0xBC1 PUSH1 0x33 SLOAD PUSH1 0x1 PUSH1 0x1 PUSH1 0xA0 SHL SUB AND CALLER EQ SWAP1 JUMP JUMPDEST PUSH2 0xBCA JUMPI PUSH1 0x0 DUP1 REVERT JUMPDEST PUSH1 0x6F DUP1 SLOAD PUSH1 0x1 PUSH1 0x1 PUSH1 0xA0 SHL SUB NOT AND PUSH1 0x1 PUSH1 0x1 PUSH1 0xA0 SHL SUB SWAP3 SWAP1 SWAP3 AND SWAP2 SWAP1 SWAP2 OR SWAP1 SSTORE JUMP JUMPDEST PUSH2 0xC00 PUSH1 0x33 SLOAD PUSH1 0x1 PUSH1 0x1 PUSH1 0xA0 SHL SUB AND CALLER EQ SWAP1 JUMP JUMPDEST PUSH2 0xC09 JUMPI PUSH1 0x0 DUP1 REVERT JUMPDEST PUSH2 0xC12 DUP2 PUSH2 0x19A9 JUMP JUMPDEST POP JUMP JUMPDEST PUSH1 0x0 DUP4 ISZERO DUP1 PUSH2 0xC22 JUMPI POP DUP3 ISZERO JUMPDEST PUSH2 0xC7A JUMPI PUSH1 0x40 MLOAD PUSH3 0x461BCD PUSH1 0xE5 SHL DUP2 MSTORE PUSH1 0x20 PUSH1 0x4 DUP3 ADD MSTORE PUSH1 0x24 DUP1 DUP3 ADD MSTORE PUSH32 0x434242433A204255595F414E445F53454C4C5F41545F5448455F53414D455F54 PUSH1 0x44 DUP3 ADD MSTORE PUSH4 0x24A6A297 PUSH1 0xE1 SHL PUSH1 0x64 DUP3 ADD MSTORE PUSH1 0x84 ADD PUSH2 0x454 JUMP JUMPDEST PUSH2 0xCA5 PUSH1 0x40 MLOAD DUP1 PUSH1 0x80 ADD PUSH1 0x40 MSTORE DUP1 PUSH1 0x0 DUP2 MSTORE PUSH1 0x20 ADD PUSH1 0x0 DUP2 MSTORE PUSH1 0x20 ADD PUSH1 0x0 DUP2 MSTORE PUSH1 0x20 ADD PUSH1 0x0 DUP2 MSTORE POP SWAP1 JUMP JUMPDEST PUSH2 0xCE5 PUSH1 0x40 MLOAD DUP1 PUSH1 0xE0 ADD PUSH1 0x40 MSTORE DUP1 PUSH1 0x0 DUP2 MSTORE PUSH1 0x20 ADD PUSH1 0x0 DUP2 MSTORE PUSH1 0x20 ADD PUSH1 0x0 DUP2 MSTORE PUSH1 0x20 ADD PUSH1 0x0 DUP2 MSTORE PUSH1 0x20 ADD PUSH1 0x0 DUP2 MSTORE PUSH1 0x20 ADD PUSH1 0x0 DUP2 MSTORE PUSH1 0x20 ADD PUSH1 0x0 DUP2 MSTORE POP SWAP1 JUMP JUMPDEST PUSH1 0x40 DUP1 MLOAD PUSH1 0xC0 DUP2 ADD DUP3 MSTORE PUSH1 0x0 DUP1 DUP3 MSTORE PUSH1 0x20 DUP3 ADD DUP2 SWAP1 MSTORE SWAP2 DUP2 ADD DUP3 SWAP1 MSTORE PUSH1 0x60 DUP2 ADD DUP3 SWAP1 MSTORE PUSH1 0x80 DUP2 ADD DUP3 SWAP1 MSTORE PUSH1 0xA0 DUP2 ADD SWAP2 SWAP1 SWAP2 MSTORE DUP8 PUSH1 0x1 PUSH1 0x1 PUSH1 0xA0 SHL SUB AND PUSH4 0xC45A0155 PUSH1 0x40 MLOAD DUP2 PUSH4 0xFFFFFFFF AND PUSH1 0xE0 SHL DUP2 MSTORE PUSH1 0x4 ADD PUSH1 0x20 PUSH1 0x40 MLOAD DUP1 DUP4 SUB DUP2 DUP7 DUP1 EXTCODESIZE ISZERO DUP1 ISZERO PUSH2 0xD50 JUMPI PUSH1 0x0 DUP1 REVERT JUMPDEST POP GAS STATICCALL ISZERO DUP1 ISZERO PUSH2 0xD64 JUMPI RETURNDATASIZE PUSH1 0x0 DUP1 RETURNDATACOPY RETURNDATASIZE PUSH1 0x0 REVERT JUMPDEST POP POP POP POP PUSH1 0x40 MLOAD RETURNDATASIZE PUSH1 0x1F NOT PUSH1 0x1F DUP3 ADD AND DUP3 ADD DUP1 PUSH1 0x40 MSTORE POP DUP2 ADD SWAP1 PUSH2 0xD88 SWAP2 SWAP1 PUSH2 0x23A1 JUMP JUMPDEST PUSH1 0x1 PUSH1 0x1 PUSH1 0xA0 SHL SUB SWAP1 DUP2 AND DUP3 MSTORE PUSH1 0x40 DUP1 MLOAD PUSH4 0xE9C29D7 PUSH1 0xE3 SHL DUP2 MSTORE SWAP1 MLOAD SWAP2 DUP11 AND SWAP2 PUSH4 0x74E14EB8 SWAP2 PUSH1 0x4 DUP1 DUP3 ADD SWAP3 PUSH1 0x20 SWAP3 SWAP1 SWAP2 SWAP1 DUP3 SWAP1 SUB ADD DUP2 DUP7 DUP1 EXTCODESIZE ISZERO DUP1 ISZERO PUSH2 0xDCF JUMPI PUSH1 0x0 DUP1 REVERT JUMPDEST POP GAS STATICCALL ISZERO DUP1 ISZERO PUSH2 0xDE3 JUMPI RETURNDATASIZE PUSH1 0x0 DUP1 RETURNDATACOPY RETURNDATASIZE PUSH1 0x0 REVERT JUMPDEST POP POP POP POP PUSH1 0x40 MLOAD RETURNDATASIZE PUSH1 0x1F NOT PUSH1 0x1F DUP3 ADD AND DUP3 ADD DUP1 PUSH1 0x40 MSTORE POP DUP2 ADD SWAP1 PUSH2 0xE07 SWAP2 SWAP1 PUSH2 0x23A1 JUMP JUMPDEST DUP2 PUSH1 0x20 ADD SWAP1 PUSH1 0x1 PUSH1 0x1 PUSH1 0xA0 SHL SUB AND SWAP1 DUP2 PUSH1 0x1 PUSH1 0x1 PUSH1 0xA0 SHL SUB AND DUP2 MSTORE POP POP DUP8 PUSH1 0x1 PUSH1 0x1 PUSH1 0xA0 SHL SUB AND PUSH4 0xD83678AC PUSH1 0x40 MLOAD DUP2 PUSH4 0xFFFFFFFF AND PUSH1 0xE0 SHL DUP2 MSTORE PUSH1 0x4 ADD PUSH1 0x20 PUSH1 0x40 MLOAD DUP1 DUP4 SUB DUP2 DUP7 DUP1 EXTCODESIZE ISZERO DUP1 ISZERO PUSH2 0xE5D JUMPI PUSH1 0x0 DUP1 REVERT JUMPDEST POP GAS STATICCALL ISZERO DUP1 ISZERO PUSH2 0xE71 JUMPI RETURNDATASIZE PUSH1 0x0 DUP1 RETURNDATACOPY RETURNDATASIZE PUSH1 0x0 REVERT JUMPDEST POP POP POP POP PUSH1 0x40 MLOAD RETURNDATASIZE PUSH1 0x1F NOT PUSH1 0x1F DUP3 ADD AND DUP3 ADD DUP1 PUSH1 0x40 MSTORE POP DUP2 ADD SWAP1 PUSH2 0xE95 SWAP2 SWAP1 PUSH2 0x23A1 JUMP JUMPDEST DUP2 PUSH1 0x40 ADD SWAP1 PUSH1 0x1 PUSH1 0x1 PUSH1 0xA0 SHL SUB AND SWAP1 DUP2 PUSH1 0x1 PUSH1 0x1 PUSH1 0xA0 SHL SUB AND DUP2 MSTORE POP POP DUP8 PUSH1 0x1 PUSH1 0x1 PUSH1 0xA0 SHL SUB AND PUSH4 0x2C86D98E PUSH1 0x40 MLOAD DUP2 PUSH4 0xFFFFFFFF AND PUSH1 0xE0 SHL DUP2 MSTORE PUSH1 0x4 ADD PUSH1 0x20 PUSH1 0x40 MLOAD DUP1 DUP4 SUB DUP2 DUP7 DUP1 EXTCODESIZE ISZERO DUP1 ISZERO PUSH2 0xEEB JUMPI PUSH1 0x0 DUP1 REVERT JUMPDEST POP GAS STATICCALL ISZERO DUP1 ISZERO PUSH2 0xEFF JUMPI RETURNDATASIZE PUSH1 0x0 DUP1 RETURNDATACOPY RETURNDATASIZE PUSH1 0x0 REVERT JUMPDEST POP POP POP POP PUSH1 0x40 MLOAD RETURNDATASIZE PUSH1 0x1F NOT PUSH1 0x1F DUP3 ADD AND DUP3 ADD DUP1 PUSH1 0x40 MSTORE POP DUP2 ADD SWAP1 PUSH2 0xF23 SWAP2 SWAP1 PUSH2 0x2492 JUMP JUMPDEST PUSH1 0xFF AND DUP2 PUSH1 0x60 ADD DUP2 DUP2 MSTORE POP POP DUP8 PUSH1 0x1 PUSH1 0x1 PUSH1 0xA0 SHL SUB AND PUSH4 0x3C974946 PUSH1 0x40 MLOAD DUP2 PUSH4 0xFFFFFFFF AND PUSH1 0xE0 SHL DUP2 MSTORE PUSH1 0x4 ADD PUSH1 0x20 PUSH1 0x40 MLOAD DUP1 DUP4 SUB DUP2 DUP7 DUP1 EXTCODESIZE ISZERO DUP1 ISZERO PUSH2 0xF68 JUMPI PUSH1 0x0 DUP1 REVERT JUMPDEST POP GAS STATICCALL ISZERO DUP1 ISZERO PUSH2 0xF7C JUMPI RETURNDATASIZE PUSH1 0x0 DUP1 RETURNDATACOPY RETURNDATASIZE PUSH1 0x0 REVERT JUMPDEST POP POP POP POP PUSH1 0x40 MLOAD RETURNDATASIZE PUSH1 0x1F NOT PUSH1 0x1F DUP3 ADD AND DUP3 ADD DUP1 PUSH1 0x40 MSTORE POP DUP2 ADD SWAP1 PUSH2 0xFA0 SWAP2 SWAP1 PUSH2 0x23F5 JUMP JUMPDEST DUP2 PUSH1 0x80 ADD SWAP1 PUSH1 0x1 DUP2 GT ISZERO PUSH2 0xFC4 JUMPI PUSH4 0x4E487B71 PUSH1 0xE0 SHL PUSH1 0x0 MSTORE PUSH1 0x21 PUSH1 0x4 MSTORE PUSH1 0x24 PUSH1 0x0 REVERT JUMPDEST SWAP1 DUP2 PUSH1 0x1 DUP2 GT ISZERO PUSH2 0xFE5 JUMPI PUSH4 0x4E487B71 PUSH1 0xE0 SHL PUSH1 0x0 MSTORE PUSH1 0x21 PUSH1 0x4 MSTORE PUSH1 0x24 PUSH1 0x0 REVERT JUMPDEST DUP2 MSTORE POP POP DUP8 PUSH1 0x1 PUSH1 0x1 PUSH1 0xA0 SHL SUB AND PUSH4 0xBBB1863A PUSH1 0x40 MLOAD DUP2 PUSH4 0xFFFFFFFF AND PUSH1 0xE0 SHL DUP2 MSTORE PUSH1 0x4 ADD PUSH1 0x20 PUSH1 0x40 MLOAD DUP1 DUP4 SUB DUP2 DUP7 DUP1 EXTCODESIZE ISZERO DUP1 ISZERO PUSH2 0x1022 JUMPI PUSH1 0x0 DUP1 REVERT JUMPDEST POP GAS STATICCALL ISZERO DUP1 ISZERO PUSH2 0x1036 JUMPI RETURNDATASIZE PUSH1 0x0 DUP1 RETURNDATACOPY RETURNDATASIZE PUSH1 0x0 REVERT JUMPDEST POP POP POP POP PUSH1 0x40 MLOAD RETURNDATASIZE PUSH1 0x1F NOT PUSH1 0x1F DUP3 ADD AND DUP3 ADD DUP1 PUSH1 0x40 MSTORE POP DUP2 ADD SWAP1 PUSH2 0x105A SWAP2 SWAP1 PUSH2 0x23A1 JUMP JUMPDEST PUSH1 0x1 PUSH1 0x1 PUSH1 0xA0 SHL SUB AND PUSH4 0x60961528 PUSH1 0x40 MLOAD DUP2 PUSH4 0xFFFFFFFF AND PUSH1 0xE0 SHL DUP2 MSTORE PUSH1 0x4 ADD PUSH1 0x20 PUSH1 0x40 MLOAD DUP1 DUP4 SUB DUP2 DUP7 DUP1 EXTCODESIZE ISZERO DUP1 ISZERO PUSH2 0x1092 JUMPI PUSH1 0x0 DUP1 REVERT JUMPDEST POP GAS STATICCALL ISZERO DUP1 ISZERO PUSH2 0x10A6 JUMPI RETURNDATASIZE PUSH1 0x0 DUP1 RETURNDATACOPY RETURNDATASIZE PUSH1 0x0 REVERT JUMPDEST POP POP POP POP PUSH1 0x40 MLOAD RETURNDATASIZE PUSH1 0x1F NOT PUSH1 0x1F DUP3 ADD AND DUP3 ADD DUP1 PUSH1 0x40 MSTORE POP DUP2 ADD SWAP1 PUSH2 0x10CA SWAP2 SWAP1 PUSH2 0x23A1 JUMP JUMPDEST DUP2 PUSH1 0xA0 ADD SWAP1 PUSH1 0x1 PUSH1 0x1 PUSH1 0xA0 SHL SUB AND SWAP1 DUP2 PUSH1 0x1 PUSH1 0x1 PUSH1 0xA0 SHL SUB AND DUP2 MSTORE POP POP DUP8 PUSH1 0x1 PUSH1 0x1 PUSH1 0xA0 SHL SUB AND PUSH4 0xDDD6F962 PUSH1 0x40 MLOAD DUP2 PUSH4 0xFFFFFFFF AND PUSH1 0xE0 SHL DUP2 MSTORE PUSH1 0x4 ADD PUSH1 0x20 PUSH1 0x40 MLOAD DUP1 DUP4 SUB DUP2 DUP7 DUP1 EXTCODESIZE ISZERO DUP1 ISZERO PUSH2 0x1120 JUMPI PUSH1 0x0 DUP1 REVERT JUMPDEST POP GAS STATICCALL ISZERO DUP1 ISZERO PUSH2 0x1134 JUMPI RETURNDATASIZE PUSH1 0x0 DUP1 RETURNDATACOPY RETURNDATASIZE PUSH1 0x0 REVERT JUMPDEST POP POP POP POP PUSH1 0x40 MLOAD RETURNDATASIZE PUSH1 0x1F NOT PUSH1 0x1F DUP3 ADD AND DUP3 ADD DUP1 PUSH1 0x40 MSTORE POP DUP2 ADD SWAP1 PUSH2 0x1158 SWAP2 SWAP1 PUSH2 0x2414 JUMP JUMPDEST DUP4 PUSH1 0x0 ADD DUP2 DUP2 MSTORE POP POP DUP8 PUSH1 0x1 PUSH1 0x1 PUSH1 0xA0 SHL SUB AND PUSH4 0x8A3809D PUSH1 0x40 MLOAD DUP2 PUSH4 0xFFFFFFFF AND PUSH1 0xE0 SHL DUP2 MSTORE PUSH1 0x4 ADD PUSH1 0x20 PUSH1 0x40 MLOAD DUP1 DUP4 SUB DUP2 DUP7 DUP1 EXTCODESIZE ISZERO DUP1 ISZERO PUSH2 0x119A JUMPI PUSH1 0x0 DUP1 REVERT JUMPDEST POP GAS STATICCALL ISZERO DUP1 ISZERO PUSH2 0x11AE JUMPI RETURNDATASIZE PUSH1 0x0 DUP1 RETURNDATACOPY RETURNDATASIZE PUSH1 0x0 REVERT JUMPDEST POP POP POP POP PUSH1 0x40 MLOAD RETURNDATASIZE PUSH1 0x1F NOT PUSH1 0x1F DUP3 ADD AND DUP3 ADD DUP1 PUSH1 0x40 MSTORE POP DUP2 ADD SWAP1 PUSH2 0x11D2 SWAP2 SWAP1 PUSH2 0x2414 JUMP JUMPDEST PUSH1 0x20 DUP5 ADD MSTORE TIMESTAMP PUSH1 0x60 DUP5 ADD MSTORE PUSH1 0xA0 DUP2 ADD MLOAD PUSH1 0x40 DUP1 DUP4 ADD MLOAD SWAP1 MLOAD PUSH4 0x41976E09 PUSH1 0xE0 SHL DUP2 MSTORE PUSH1 0x1 PUSH1 0x1 PUSH1 0xA0 SHL SUB SWAP2 DUP3 AND PUSH1 0x4 DUP3 ADD MSTORE SWAP2 AND SWAP1 PUSH4 0x41976E09 SWAP1 PUSH1 0x24 ADD PUSH1 0x40 DUP1 MLOAD DUP1 DUP4 SUB DUP2 DUP7 DUP1 EXTCODESIZE ISZERO DUP1 ISZERO PUSH2 0x1227 JUMPI PUSH1 0x0 DUP1 REVERT JUMPDEST POP GAS STATICCALL ISZERO DUP1 ISZERO PUSH2 0x123B JUMPI RETURNDATASIZE PUSH1 0x0 DUP1 RETURNDATACOPY RETURNDATASIZE PUSH1 0x0 REVERT JUMPDEST POP POP POP POP PUSH1 0x40 MLOAD RETURNDATASIZE PUSH1 0x1F NOT PUSH1 0x1F DUP3 ADD AND DUP3 ADD DUP1 PUSH1 0x40 MSTORE POP DUP2 ADD SWAP1 PUSH2 0x125F SWAP2 SWAP1 PUSH2 0x2444 JUMP JUMPDEST POP PUSH1 0x40 DUP5 ADD DUP2 SWAP1 MSTORE PUSH2 0x12B3 JUMPI PUSH1 0x40 MLOAD PUSH3 0x461BCD PUSH1 0xE5 SHL DUP2 MSTORE PUSH1 0x20 PUSH1 0x4 DUP3 ADD MSTORE PUSH1 0x1A PUSH1 0x24 DUP3 ADD MSTORE PUSH32 0x434242433A20494C4C4547414C5F54524144455F50524943452E000000000000 PUSH1 0x44 DUP3 ADD MSTORE PUSH1 0x64 ADD PUSH2 0x454 JUMP JUMPDEST DUP3 MLOAD PUSH2 0x12CB JUMPI PUSH1 0x40 DUP4 ADD MLOAD DUP4 MSTORE PUSH1 0x60 DUP4 ADD MLOAD PUSH1 0x20 DUP5 ADD MSTORE JUMPDEST DUP8 PUSH1 0x1 PUSH1 0x1 PUSH1 0xA0 SHL SUB AND PUSH4 0x9FAA3C91 PUSH1 0x40 MLOAD DUP2 PUSH4 0xFFFFFFFF AND PUSH1 0xE0 SHL DUP2 MSTORE PUSH1 0x4 ADD PUSH1 0x20 PUSH1 0x40 MLOAD DUP1 DUP4 SUB DUP2 DUP7 DUP1 EXTCODESIZE ISZERO DUP1 ISZERO PUSH2 0x1304 JUMPI PUSH1 0x0 DUP1 REVERT JUMPDEST POP GAS STATICCALL ISZERO DUP1 ISZERO PUSH2 0x1318 JUMPI RETURNDATASIZE PUSH1 0x0 DUP1 RETURNDATACOPY RETURNDATASIZE PUSH1 0x0 REVERT JUMPDEST POP POP POP POP PUSH1 0x40 MLOAD RETURNDATASIZE PUSH1 0x1F NOT PUSH1 0x1F DUP3 ADD AND DUP3 ADD DUP1 PUSH1 0x40 MSTORE POP DUP2 ADD SWAP1 PUSH2 0x133C SWAP2 SWAP1 PUSH2 0x2414 JUMP JUMPDEST DUP3 PUSH1 0x0 ADD DUP2 DUP2 MSTORE POP POP DUP1 PUSH1 0x0 ADD MLOAD PUSH1 0x1 PUSH1 0x1 PUSH1 0xA0 SHL SUB AND PUSH4 0x88E97C3C PUSH1 0x40 MLOAD DUP2 PUSH4 0xFFFFFFFF AND PUSH1 0xE0 SHL DUP2 MSTORE PUSH1 0x4 ADD PUSH1 0x20 PUSH1 0x40 MLOAD DUP1 DUP4 SUB DUP2 DUP7 DUP1 EXTCODESIZE ISZERO DUP1 ISZERO PUSH2 0x1382 JUMPI PUSH1 0x0 DUP1 REVERT JUMPDEST POP GAS STATICCALL ISZERO DUP1 ISZERO PUSH2 0x1396 JUMPI RETURNDATASIZE PUSH1 0x0 DUP1 RETURNDATACOPY RETURNDATASIZE PUSH1 0x0 REVERT JUMPDEST POP POP POP POP PUSH1 0x40 MLOAD RETURNDATASIZE PUSH1 0x1F NOT PUSH1 0x1F DUP3 ADD AND DUP3 ADD DUP1 PUSH1 0x40 MSTORE POP DUP2 ADD SWAP1 PUSH2 0x13BA SWAP2 SWAP1 PUSH2 0x2414 JUMP JUMPDEST DUP3 PUSH1 0x20 ADD DUP2 DUP2 MSTORE POP POP DUP1 PUSH1 0x0 ADD MLOAD PUSH1 0x1 PUSH1 0x1 PUSH1 0xA0 SHL SUB AND PUSH4 0xCBD17C67 PUSH1 0x40 MLOAD DUP2 PUSH4 0xFFFFFFFF AND PUSH1 0xE0 SHL DUP2 MSTORE PUSH1 0x4 ADD PUSH1 0x20 PUSH1 0x40 MLOAD DUP1 DUP4 SUB DUP2 DUP7 DUP1 EXTCODESIZE ISZERO DUP1 ISZERO PUSH2 0x1400 JUMPI PUSH1 0x0 DUP1 REVERT JUMPDEST POP GAS STATICCALL ISZERO DUP1 ISZERO PUSH2 0x1414 JUMPI RETURNDATASIZE PUSH1 0x0 DUP1 RETURNDATACOPY RETURNDATASIZE PUSH1 0x0 REVERT JUMPDEST POP POP POP POP PUSH1 0x40 MLOAD RETURNDATASIZE PUSH1 0x1F NOT PUSH1 0x1F DUP3 ADD AND DUP3 ADD DUP1 PUSH1 0x40 MSTORE POP DUP2 ADD SWAP1 PUSH2 0x1438 SWAP2 SWAP1 PUSH2 0x2414 JUMP JUMPDEST PUSH1 0x40 DUP1 DUP5 ADD SWAP2 SWAP1 SWAP2 MSTORE PUSH1 0xA0 DUP3 ADD MLOAD DUP3 DUP3 ADD MLOAD SWAP2 MLOAD PUSH4 0x4094F10B PUSH1 0xE0 SHL DUP2 MSTORE PUSH1 0x1 PUSH1 0x1 PUSH1 0xA0 SHL SUB SWAP3 DUP4 AND PUSH1 0x4 DUP3 ADD MSTORE SWAP2 AND SWAP1 PUSH4 0x4094F10B SWAP1 PUSH1 0x24 ADD PUSH1 0x20 PUSH1 0x40 MLOAD DUP1 DUP4 SUB DUP2 DUP7 DUP1 EXTCODESIZE ISZERO DUP1 ISZERO PUSH2 0x148A JUMPI PUSH1 0x0 DUP1 REVERT JUMPDEST POP GAS STATICCALL ISZERO DUP1 ISZERO PUSH2 0x149E JUMPI RETURNDATASIZE PUSH1 0x0 DUP1 RETURNDATACOPY RETURNDATASIZE PUSH1 0x0 REVERT JUMPDEST POP POP POP POP PUSH1 0x40 MLOAD RETURNDATASIZE PUSH1 0x1F NOT PUSH1 0x1F DUP3 ADD AND DUP3 ADD DUP1 PUSH1 0x40 MSTORE POP DUP2 ADD SWAP1 PUSH2 0x14C2 SWAP2 SWAP1 PUSH2 0x2414 JUMP JUMPDEST PUSH1 0x60 DUP4 ADD MSTORE PUSH1 0xA0 DUP2 ADD MLOAD PUSH1 0x40 DUP1 DUP4 ADD MLOAD SWAP1 MLOAD PUSH4 0xD3EA0F89 PUSH1 0xE0 SHL DUP2 MSTORE PUSH1 0x1 PUSH1 0x1 PUSH1 0xA0 SHL SUB SWAP2 DUP3 AND PUSH1 0x4 DUP3 ADD MSTORE SWAP2 AND SWAP1 PUSH4 0xD3EA0F89 SWAP1 PUSH1 0x24 ADD PUSH1 0x20 PUSH1 0x40 MLOAD DUP1 DUP4 SUB DUP2 DUP7 DUP1 EXTCODESIZE ISZERO DUP1 ISZERO PUSH2 0x1512 JUMPI PUSH1 0x0 DUP1 REVERT JUMPDEST POP GAS STATICCALL ISZERO DUP1 ISZERO PUSH2 0x1526 JUMPI RETURNDATASIZE PUSH1 0x0 DUP1 RETURNDATACOPY RETURNDATASIZE PUSH1 0x0 REVERT JUMPDEST POP POP POP POP PUSH1 0x40 MLOAD RETURNDATASIZE PUSH1 0x1F NOT PUSH1 0x1F DUP3 ADD AND DUP3 ADD DUP1 PUSH1 0x40 MSTORE POP DUP2 ADD SWAP1 PUSH2 0x154A SWAP2 SWAP1 PUSH2 0x2414 JUMP JUMPDEST PUSH1 0x80 DUP4 ADD MSTORE PUSH1 0xA0 DUP2 ADD MLOAD PUSH1 0x40 DUP1 DUP4 ADD MLOAD SWAP1 MLOAD PUSH4 0x4189C95D PUSH1 0xE0 SHL DUP2 MSTORE PUSH1 0x1 PUSH1 0x1 PUSH1 0xA0 SHL SUB SWAP2 DUP3 AND PUSH1 0x4 DUP3 ADD MSTORE SWAP2 AND SWAP1 PUSH4 0x4189C95D SWAP1 PUSH1 0x24 ADD PUSH1 0x20 PUSH1 0x40 MLOAD DUP1 DUP4 SUB DUP2 DUP7 DUP1 EXTCODESIZE ISZERO DUP1 ISZERO PUSH2 0x159A JUMPI PUSH1 0x0 DUP1 REVERT JUMPDEST POP GAS STATICCALL ISZERO DUP1 ISZERO PUSH2 0x15AE JUMPI RETURNDATASIZE PUSH1 0x0 DUP1 RETURNDATACOPY RETURNDATASIZE PUSH1 0x0 REVERT JUMPDEST POP POP POP POP PUSH1 0x40 MLOAD RETURNDATASIZE PUSH1 0x1F NOT PUSH1 0x1F DUP3 ADD AND DUP3 ADD DUP1 PUSH1 0x40 MSTORE POP DUP2 ADD SWAP1 PUSH2 0x15D2 SWAP2 SWAP1 PUSH2 0x2414 JUMP JUMPDEST PUSH1 0xA0 DUP4 DUP2 ADD SWAP2 SWAP1 SWAP2 MSTORE DUP2 ADD MLOAD PUSH1 0x40 DUP1 DUP4 ADD MLOAD SWAP1 MLOAD PUSH4 0x84F4B61F PUSH1 0xE0 SHL DUP2 MSTORE PUSH1 0x1 PUSH1 0x1 PUSH1 0xA0 SHL SUB SWAP2 DUP3 AND PUSH1 0x4 DUP3 ADD MSTORE SWAP2 AND SWAP1 PUSH4 0x84F4B61F SWAP1 PUSH1 0x24 ADD PUSH1 0x20 PUSH1 0x40 MLOAD DUP1 DUP4 SUB DUP2 DUP7 DUP1 EXTCODESIZE ISZERO DUP1 ISZERO PUSH2 0x1624 JUMPI PUSH1 0x0 DUP1 REVERT JUMPDEST POP GAS STATICCALL ISZERO DUP1 ISZERO PUSH2 0x1638 JUMPI RETURNDATASIZE PUSH1 0x0 DUP1 RETURNDATACOPY RETURNDATASIZE PUSH1 0x0 REVERT JUMPDEST POP POP POP POP PUSH1 0x40 MLOAD RETURNDATASIZE PUSH1 0x1F NOT PUSH1 0x1F DUP3 ADD AND DUP3 ADD DUP1 PUSH1 0x40 MSTORE POP DUP2 ADD SWAP1 PUSH2 0x165C SWAP2 SWAP1 PUSH2 0x2414 JUMP JUMPDEST PUSH1 0xC0 DUP4 ADD DUP2 SWAP1 MSTORE PUSH2 0x16AF JUMPI PUSH1 0x40 MLOAD PUSH3 0x461BCD PUSH1 0xE5 SHL DUP2 MSTORE PUSH1 0x20 PUSH1 0x4 DUP3 ADD MSTORE PUSH1 0x1B PUSH1 0x24 DUP3 ADD MSTORE PUSH32 0x434242433A20494C4C4547414C5F4441494C595F564F4C554D452E0000000000 PUSH1 0x44 DUP3 ADD MSTORE PUSH1 0x64 ADD PUSH2 0x454 JUMP JUMPDEST PUSH1 0x0 DUP8 ISZERO DUP1 ISZERO PUSH2 0x16BD JUMPI POP DUP7 ISZERO JUMPDEST ISZERO PUSH2 0x16DB JUMPI PUSH2 0x16D0 DUP5 DUP4 DUP6 PUSH1 0x0 DUP11 PUSH2 0x1A18 JUMP JUMPDEST SWAP5 POP POP POP POP POP PUSH2 0x187B JUMP JUMPDEST PUSH1 0x0 PUSH2 0x16EB DUP6 DUP5 DUP7 PUSH1 0x0 DUP12 PUSH2 0x1A18 JUMP JUMPDEST SWAP1 POP PUSH1 0x0 DUP6 PUSH1 0x40 ADD MLOAD DUP5 PUSH1 0x40 ADD MLOAD PUSH1 0x1 PUSH1 0x1 PUSH1 0xA0 SHL SUB AND PUSH4 0x313CE567 PUSH1 0x40 MLOAD DUP2 PUSH4 0xFFFFFFFF AND PUSH1 0xE0 SHL DUP2 MSTORE PUSH1 0x4 ADD PUSH1 0x20 PUSH1 0x40 MLOAD DUP1 DUP4 SUB DUP2 DUP7 DUP1 EXTCODESIZE ISZERO DUP1 ISZERO PUSH2 0x1731 JUMPI PUSH1 0x0 DUP1 REVERT JUMPDEST POP GAS STATICCALL ISZERO DUP1 ISZERO PUSH2 0x1745 JUMPI RETURNDATASIZE PUSH1 0x0 DUP1 RETURNDATACOPY RETURNDATASIZE PUSH1 0x0 REVERT JUMPDEST POP POP POP POP PUSH1 0x40 MLOAD RETURNDATASIZE PUSH1 0x1F NOT PUSH1 0x1F DUP3 ADD AND DUP3 ADD DUP1 PUSH1 0x40 MSTORE POP DUP2 ADD SWAP1 PUSH2 0x1769 SWAP2 SWAP1 PUSH2 0x2492 JUMP JUMPDEST PUSH2 0x1774 SWAP1 PUSH1 0xA PUSH2 0x25B0 JUMP JUMPDEST DUP6 PUSH1 0x60 ADD MLOAD DUP12 DUP8 PUSH1 0x20 ADD MLOAD PUSH1 0x1 PUSH1 0x1 PUSH1 0xA0 SHL SUB AND PUSH4 0x313CE567 PUSH1 0x40 MLOAD DUP2 PUSH4 0xFFFFFFFF AND PUSH1 0xE0 SHL DUP2 MSTORE PUSH1 0x4 ADD PUSH1 0x20 PUSH1 0x40 MLOAD DUP1 DUP4 SUB DUP2 DUP7 DUP1 EXTCODESIZE ISZERO DUP1 ISZERO PUSH2 0x17B7 JUMPI PUSH1 0x0 DUP1 REVERT JUMPDEST POP GAS STATICCALL ISZERO DUP1 ISZERO PUSH2 0x17CB JUMPI RETURNDATASIZE PUSH1 0x0 DUP1 RETURNDATACOPY RETURNDATASIZE PUSH1 0x0 REVERT JUMPDEST POP POP POP POP PUSH1 0x40 MLOAD RETURNDATASIZE PUSH1 0x1F NOT PUSH1 0x1F DUP3 ADD AND DUP3 ADD DUP1 PUSH1 0x40 MSTORE POP DUP2 ADD SWAP1 PUSH2 0x17EF SWAP2 SWAP1 PUSH2 0x2492 JUMP JUMPDEST PUSH2 0x17FA SWAP1 PUSH1 0xA PUSH2 0x25B0 JUMP JUMPDEST DUP7 DUP16 PUSH8 0xDE0B6B3A7640000 PUSH2 0x180F SWAP2 SWAP1 PUSH2 0x2705 JUMP JUMPDEST PUSH2 0x1819 SWAP2 SWAP1 PUSH2 0x2547 JUMP JUMPDEST PUSH2 0x182B SWAP1 PUSH8 0xDE0B6B3A7640000 PUSH2 0x2705 JUMP JUMPDEST PUSH2 0x1835 SWAP2 SWAP1 PUSH2 0x2547 JUMP JUMPDEST PUSH2 0x183F SWAP2 SWAP1 PUSH2 0x2501 JUMP JUMPDEST PUSH2 0x1849 SWAP2 SWAP1 PUSH2 0x2705 JUMP JUMPDEST PUSH2 0x1853 SWAP2 SWAP1 PUSH2 0x2705 JUMP JUMPDEST PUSH2 0x185D SWAP2 SWAP1 PUSH2 0x2547 JUMP JUMPDEST SWAP1 POP PUSH2 0x186A DUP6 DUP3 DUP11 PUSH2 0x2126 JUMP JUMPDEST SWAP3 POP POP POP PUSH2 0x16D0 DUP5 DUP4 DUP6 DUP5 DUP11 PUSH2 0x1A18 JUMP JUMPDEST SWAP5 SWAP4 POP POP POP POP JUMP JUMPDEST PUSH1 0x0 PUSH2 0x188F DUP4 DUP4 PUSH2 0x21CD JUMP JUMPDEST ISZERO PUSH2 0x189C JUMPI POP PUSH1 0x0 PUSH2 0x1954 JUMP JUMPDEST PUSH1 0x0 PUSH2 0x18A7 DUP4 PUSH2 0x195A JUMP JUMPDEST SWAP1 POP DUP1 DUP2 PUSH2 0x18B4 DUP7 PUSH2 0x195A JUMP JUMPDEST PUSH2 0x18BE SWAP2 SWAP1 PUSH2 0x2724 JUMP JUMPDEST PUSH1 0x66 SLOAD PUSH1 0x40 DUP1 MLOAD PUSH4 0x18160DDD PUSH1 0xE0 SHL DUP2 MSTORE SWAP1 MLOAD PUSH2 0x193C SWAP3 PUSH1 0x1 PUSH1 0x1 PUSH1 0xA0 SHL SUB AND SWAP2 PUSH4 0x18160DDD SWAP2 PUSH1 0x4 DUP1 DUP4 ADD SWAP3 PUSH1 0x20 SWAP3 SWAP2 SWAP1 DUP3 SWAP1 SUB ADD DUP2 DUP7 DUP1 EXTCODESIZE ISZERO DUP1 ISZERO PUSH2 0x1904 JUMPI PUSH1 0x0 DUP1 REVERT JUMPDEST POP GAS STATICCALL ISZERO DUP1 ISZERO PUSH2 0x1918 JUMPI RETURNDATASIZE PUSH1 0x0 DUP1 RETURNDATACOPY RETURNDATASIZE PUSH1 0x0 REVERT JUMPDEST POP POP POP POP PUSH1 0x40 MLOAD RETURNDATASIZE PUSH1 0x1F NOT PUSH1 0x1F DUP3 ADD AND DUP3 ADD DUP1 PUSH1 0x40 MSTORE POP DUP2 ADD SWAP1 PUSH2 0xA4B SWAP2 SWAP1 PUSH2 0x2414 JUMP JUMPDEST PUSH2 0x1946 SWAP2 SWAP1 PUSH2 0x2682 JUMP JUMPDEST PUSH2 0x1950 SWAP2 SWAP1 PUSH2 0x2519 JUMP JUMPDEST SWAP2 POP POP JUMPDEST SWAP3 SWAP2 POP POP JUMP JUMPDEST PUSH1 0x0 PUSH1 0x1 PUSH1 0x1 PUSH1 0xFF SHL SUB DUP3 GT ISZERO PUSH2 0x1970 JUMPI PUSH1 0x0 DUP1 REVERT JUMPDEST POP DUP1 JUMPDEST SWAP2 SWAP1 POP JUMP JUMPDEST PUSH1 0x0 DUP2 PUSH1 0x0 NOT EQ ISZERO DUP1 PUSH2 0x198F JUMPI POP PUSH1 0x1 PUSH1 0xFF SHL DUP4 EQ ISZERO JUMPDEST PUSH2 0x1998 JUMPI PUSH1 0x0 DUP1 REVERT JUMPDEST PUSH2 0x19A2 DUP3 DUP5 PUSH2 0x2519 JUMP JUMPDEST SWAP4 SWAP3 POP POP POP JUMP JUMPDEST PUSH1 0x1 PUSH1 0x1 PUSH1 0xA0 SHL SUB DUP2 AND PUSH2 0x19BC JUMPI PUSH1 0x0 DUP1 REVERT JUMPDEST PUSH1 0x33 SLOAD PUSH1 0x40 MLOAD PUSH1 0x1 PUSH1 0x1 PUSH1 0xA0 SHL SUB DUP1 DUP5 AND SWAP3 AND SWAP1 PUSH32 0x8BE0079C531659141344CD1FD0A4F28419497F9722A3DAAFE3B4186F6B6457E0 SWAP1 PUSH1 0x0 SWAP1 LOG3 PUSH1 0x33 DUP1 SLOAD PUSH1 0x1 PUSH1 0x1 PUSH1 0xA0 SHL SUB NOT AND PUSH1 0x1 PUSH1 0x1 PUSH1 0xA0 SHL SUB SWAP3 SWAP1 SWAP3 AND SWAP2 SWAP1 SWAP2 OR SWAP1 SSTORE JUMP JUMPDEST DUP5 MLOAD PUSH1 0x40 DUP7 ADD MLOAD PUSH1 0x60 DUP7 ADD MLOAD DUP6 MLOAD PUSH1 0x0 SWAP4 SWAP3 SWAP2 SWAP1 DUP5 DUP3 DUP6 PUSH2 0x1A3A DUP3 PUSH1 0x1 PUSH2 0x2501 JUMP JUMPDEST PUSH2 0x1A44 SWAP2 SWAP1 PUSH2 0x2705 JUMP JUMPDEST PUSH2 0x1A4E SWAP2 SWAP1 PUSH2 0x2547 JUMP JUMPDEST SWAP1 POP PUSH1 0x0 DUP4 DUP7 PUSH2 0x1A5F PUSH1 0x1 DUP4 PUSH2 0x2763 JUMP JUMPDEST PUSH2 0x1A69 SWAP2 SWAP1 PUSH2 0x2705 JUMP JUMPDEST PUSH2 0x1A73 SWAP2 SWAP1 PUSH2 0x2547 JUMP JUMPDEST SWAP1 POP PUSH1 0x0 DUP1 DUP3 DUP8 LT ISZERO PUSH2 0x1A88 JUMPI DUP3 SWAP7 POP PUSH2 0x1A94 JUMP JUMPDEST DUP4 DUP8 GT ISZERO PUSH2 0x1A94 JUMPI DUP4 SWAP7 POP JUMPDEST PUSH1 0x1 DUP14 PUSH1 0x80 ADD MLOAD PUSH1 0x1 DUP2 GT ISZERO PUSH2 0x1ABA JUMPI PUSH4 0x4E487B71 PUSH1 0xE0 SHL PUSH1 0x0 MSTORE PUSH1 0x21 PUSH1 0x4 MSTORE PUSH1 0x24 PUSH1 0x0 REVERT JUMPDEST EQ ISZERO PUSH2 0x1DBB JUMPI PUSH1 0x0 DUP11 PUSH1 0x1 DUP2 GT ISZERO PUSH2 0x1AE2 JUMPI PUSH4 0x4E487B71 PUSH1 0xE0 SHL PUSH1 0x0 MSTORE PUSH1 0x21 PUSH1 0x4 MSTORE PUSH1 0x24 PUSH1 0x0 REVERT JUMPDEST EQ ISZERO PUSH2 0x1AF9 JUMPI PUSH2 0x1AF2 DUP12 DUP9 PUSH2 0x2501 JUMP JUMPDEST SWAP7 POP PUSH2 0x1B10 JUMP JUMPDEST PUSH2 0x1B03 DUP12 DUP9 PUSH2 0x2231 JUMP JUMPDEST PUSH2 0x1B0D SWAP1 DUP9 PUSH2 0x2763 JUMP JUMPDEST SWAP7 POP JUMPDEST PUSH1 0x0 DUP6 SGT ISZERO PUSH2 0x1BC6 JUMPI DUP7 PUSH2 0x1B24 DUP5 DUP3 PUSH2 0x2763 JUMP JUMPDEST PUSH2 0x1B2E DUP10 DUP8 PUSH2 0x2763 JUMP JUMPDEST PUSH2 0x1B37 DUP9 PUSH2 0x22EC JUMP JUMPDEST PUSH2 0x1B41 SWAP2 SWAP1 PUSH2 0x2705 JUMP JUMPDEST PUSH2 0x1B4B SWAP2 SWAP1 PUSH2 0x2705 JUMP JUMPDEST PUSH2 0x1B55 SWAP2 SWAP1 PUSH2 0x2547 JUMP JUMPDEST PUSH2 0x1B61 DUP9 PUSH2 0x3E8 PUSH2 0x2705 JUMP JUMPDEST PUSH2 0x1B6B SWAP2 SWAP1 PUSH2 0x2501 JUMP JUMPDEST SWAP2 POP DUP8 PUSH2 0x1B78 DUP5 DUP3 PUSH2 0x2763 JUMP JUMPDEST PUSH2 0x1B82 DUP11 DUP8 PUSH2 0x2763 JUMP JUMPDEST PUSH2 0x1B8B DUP9 PUSH2 0x22EC JUMP JUMPDEST PUSH2 0x1B95 SWAP2 SWAP1 PUSH2 0x2705 JUMP JUMPDEST PUSH2 0x1B9F SWAP2 SWAP1 PUSH2 0x2705 JUMP JUMPDEST PUSH2 0x1BA9 SWAP2 SWAP1 PUSH2 0x2547 JUMP JUMPDEST PUSH2 0x1BB5 DUP10 PUSH2 0x3E8 PUSH2 0x2705 JUMP JUMPDEST PUSH2 0x1BBF SWAP2 SWAP1 PUSH2 0x2501 JUMP JUMPDEST SWAP1 POP PUSH2 0x1C6F JUMP JUMPDEST DUP7 PUSH2 0x1BD1 DUP5 DUP3 PUSH2 0x2763 JUMP JUMPDEST PUSH2 0x1BDB DUP10 DUP8 PUSH2 0x2763 JUMP JUMPDEST PUSH2 0x1BE4 DUP9 PUSH2 0x22EC JUMP JUMPDEST PUSH2 0x1BEE SWAP2 SWAP1 PUSH2 0x2705 JUMP JUMPDEST PUSH2 0x1BF8 SWAP2 SWAP1 PUSH2 0x2705 JUMP JUMPDEST PUSH2 0x1C02 SWAP2 SWAP1 PUSH2 0x2547 JUMP JUMPDEST PUSH2 0x1C0E DUP9 PUSH2 0x3E8 PUSH2 0x2705 JUMP JUMPDEST PUSH2 0x1C18 SWAP2 SWAP1 PUSH2 0x2763 JUMP JUMPDEST SWAP2 POP DUP8 PUSH2 0x1C25 DUP5 DUP3 PUSH2 0x2763 JUMP JUMPDEST PUSH2 0x1C2F DUP11 DUP8 PUSH2 0x2763 JUMP JUMPDEST PUSH2 0x1C38 DUP9 PUSH2 0x22EC JUMP JUMPDEST PUSH2 0x1C42 SWAP2 SWAP1 PUSH2 0x2705 JUMP JUMPDEST PUSH2 0x1C4C SWAP2 SWAP1 PUSH2 0x2705 JUMP JUMPDEST PUSH2 0x1C56 SWAP2 SWAP1 PUSH2 0x2547 JUMP JUMPDEST PUSH2 0x1C62 DUP10 PUSH2 0x3E8 PUSH2 0x2705 JUMP JUMPDEST PUSH2 0x1C6C SWAP2 SWAP1 PUSH2 0x2763 JUMP JUMPDEST SWAP1 POP JUMPDEST PUSH4 0x1E13380 DUP15 PUSH1 0x20 ADD MLOAD DUP16 PUSH1 0x60 ADD MLOAD PUSH2 0x1C88 SWAP2 SWAP1 PUSH2 0x2763 JUMP JUMPDEST DUP14 PUSH1 0x80 ADD MLOAD PUSH2 0x1C97 SWAP2 SWAP1 PUSH2 0x2705 JUMP JUMPDEST PUSH2 0x1CA7 SWAP1 PUSH6 0x1CAE8C13E000 PUSH2 0x2501 JUMP JUMPDEST PUSH2 0x1CB2 PUSH1 0x1 DUP10 PUSH2 0x2763 JUMP JUMPDEST PUSH2 0x1CC1 SWAP1 PUSH5 0xE8D4A51000 PUSH2 0x2705 JUMP JUMPDEST PUSH2 0x1CCB SWAP2 SWAP1 PUSH2 0x2705 JUMP JUMPDEST PUSH2 0x1CD5 SWAP2 SWAP1 PUSH2 0x2547 JUMP JUMPDEST PUSH2 0x1CE5 SWAP1 PUSH6 0x5AF3107A4000 PUSH2 0x2501 JUMP JUMPDEST DUP2 PUSH2 0x1CF0 DUP5 DUP10 PUSH2 0x2705 JUMP JUMPDEST PUSH2 0x1D02 SWAP1 PUSH8 0xDE0B6B3A7640000 PUSH2 0x2705 JUMP JUMPDEST PUSH2 0x1D0C SWAP2 SWAP1 PUSH2 0x2547 JUMP JUMPDEST GT PUSH2 0x1D1D JUMPI PUSH6 0x5AF3107A4000 PUSH2 0x1DB4 JUMP JUMPDEST PUSH4 0x1E13380 DUP15 PUSH1 0x20 ADD MLOAD DUP16 PUSH1 0x60 ADD MLOAD PUSH2 0x1D36 SWAP2 SWAP1 PUSH2 0x2763 JUMP JUMPDEST DUP14 PUSH1 0x80 ADD MLOAD PUSH2 0x1D45 SWAP2 SWAP1 PUSH2 0x2705 JUMP JUMPDEST PUSH2 0x1D55 SWAP1 PUSH6 0x1CAE8C13E000 PUSH2 0x2501 JUMP JUMPDEST PUSH2 0x1D60 PUSH1 0x1 DUP10 PUSH2 0x2763 JUMP JUMPDEST PUSH2 0x1D6F SWAP1 PUSH5 0xE8D4A51000 PUSH2 0x2705 JUMP JUMPDEST PUSH2 0x1D79 SWAP2 SWAP1 PUSH2 0x2705 JUMP JUMPDEST PUSH2 0x1D83 SWAP2 SWAP1 PUSH2 0x2547 JUMP JUMPDEST DUP2 PUSH2 0x1D8E DUP5 DUP10 PUSH2 0x2705 JUMP JUMPDEST PUSH2 0x1DA0 SWAP1 PUSH8 0xDE0B6B3A7640000 PUSH2 0x2705 JUMP JUMPDEST PUSH2 0x1DAA SWAP2 SWAP1 PUSH2 0x2547 JUMP JUMPDEST PUSH2 0x1DB4 SWAP2 SWAP1 PUSH2 0x2763 JUMP JUMPDEST SWAP9 POP PUSH2 0x2115 JUMP JUMPDEST PUSH1 0x0 DUP14 PUSH1 0x80 ADD MLOAD PUSH1 0x1 DUP2 GT ISZERO PUSH2 0x1DE1 JUMPI PUSH4 0x4E487B71 PUSH1 0xE0 SHL PUSH1 0x0 MSTORE PUSH1 0x21 PUSH1 0x4 MSTORE PUSH1 0x24 PUSH1 0x0 REVERT JUMPDEST EQ ISZERO PUSH2 0x20DB JUMPI PUSH1 0x0 DUP11 PUSH1 0x1 DUP2 GT ISZERO PUSH2 0x1E09 JUMPI PUSH4 0x4E487B71 PUSH1 0xE0 SHL PUSH1 0x0 MSTORE PUSH1 0x21 PUSH1 0x4 MSTORE PUSH1 0x24 PUSH1 0x0 REVERT JUMPDEST EQ ISZERO PUSH2 0x1E2A JUMPI PUSH2 0x1E19 DUP12 DUP9 PUSH2 0x2231 JUMP JUMPDEST PUSH2 0x1E23 SWAP1 DUP9 PUSH2 0x2763 JUMP JUMPDEST SWAP7 POP PUSH2 0x1E37 JUMP JUMPDEST PUSH2 0x1E34 DUP12 DUP9 PUSH2 0x2501 JUMP JUMPDEST SWAP7 POP JUMPDEST PUSH1 0x0 DUP6 SGT ISZERO PUSH2 0x1F3B JUMPI PUSH6 0x1CAE8C13E000 DUP15 PUSH1 0x20 ADD MLOAD DUP16 PUSH1 0x60 ADD MLOAD PUSH2 0x1E5B SWAP2 SWAP1 PUSH2 0x2763 JUMP JUMPDEST DUP14 PUSH1 0x80 ADD MLOAD PUSH2 0x1E6A SWAP2 SWAP1 PUSH2 0x2705 JUMP JUMPDEST PUSH2 0x1E7A SWAP1 PUSH6 0x2DE41353000 PUSH2 0x2501 JUMP JUMPDEST DUP9 PUSH2 0x1E85 DUP7 DUP3 PUSH2 0x2763 JUMP JUMPDEST PUSH2 0x1E8F DUP12 DUP10 PUSH2 0x2763 JUMP JUMPDEST PUSH2 0x1E98 DUP11 PUSH2 0x22EC JUMP JUMPDEST PUSH2 0x1EA2 SWAP2 SWAP1 PUSH2 0x2705 JUMP JUMPDEST PUSH2 0x1EAC SWAP2 SWAP1 PUSH2 0x2705 JUMP JUMPDEST PUSH2 0x1EB6 SWAP2 SWAP1 PUSH2 0x2547 JUMP JUMPDEST PUSH2 0x1EC2 DUP11 PUSH2 0x3E8 PUSH2 0x2705 JUMP JUMPDEST PUSH2 0x1ECC SWAP2 SWAP1 PUSH2 0x2501 JUMP JUMPDEST PUSH2 0x1ED6 SWAP2 SWAP1 PUSH2 0x2705 JUMP JUMPDEST PUSH2 0x1EE0 SWAP2 SWAP1 PUSH2 0x2547 JUMP JUMPDEST SWAP2 POP DUP8 PUSH2 0x1EED DUP5 DUP3 PUSH2 0x2763 JUMP JUMPDEST PUSH2 0x1EF7 DUP11 DUP8 PUSH2 0x2763 JUMP JUMPDEST PUSH2 0x1F00 DUP9 PUSH2 0x22EC JUMP JUMPDEST PUSH2 0x1F0A SWAP2 SWAP1 PUSH2 0x2705 JUMP JUMPDEST PUSH2 0x1F14 SWAP2 SWAP1 PUSH2 0x2705 JUMP JUMPDEST PUSH2 0x1F1E SWAP2 SWAP1 PUSH2 0x2547 JUMP JUMPDEST PUSH2 0x1F2A DUP10 PUSH2 0x3E8 PUSH2 0x2705 JUMP JUMPDEST PUSH2 0x1F34 SWAP2 SWAP1 PUSH2 0x2501 JUMP JUMPDEST SWAP1 POP PUSH2 0x2032 JUMP JUMPDEST PUSH6 0x1CAE8C13E000 DUP15 PUSH1 0x20 ADD MLOAD DUP16 PUSH1 0x60 ADD MLOAD PUSH2 0x1F56 SWAP2 SWAP1 PUSH2 0x2763 JUMP JUMPDEST DUP14 PUSH1 0x80 ADD MLOAD PUSH2 0x1F65 SWAP2 SWAP1 PUSH2 0x2705 JUMP JUMPDEST PUSH2 0x1F75 SWAP1 PUSH6 0x2DE41353000 PUSH2 0x2501 JUMP JUMPDEST DUP9 PUSH2 0x1F80 DUP7 DUP3 PUSH2 0x2763 JUMP JUMPDEST PUSH2 0x1F8A DUP12 DUP10 PUSH2 0x2763 JUMP JUMPDEST PUSH2 0x1F93 DUP11 PUSH2 0x22EC JUMP JUMPDEST PUSH2 0x1F9D SWAP2 SWAP1 PUSH2 0x2705 JUMP JUMPDEST PUSH2 0x1FA7 SWAP2 SWAP1 PUSH2 0x2705 JUMP JUMPDEST PUSH2 0x1FB1 SWAP2 SWAP1 PUSH2 0x2547 JUMP JUMPDEST PUSH2 0x1FBD DUP11 PUSH2 0x3E8 PUSH2 0x2705 JUMP JUMPDEST PUSH2 0x1FC7 SWAP2 SWAP1 PUSH2 0x2763 JUMP JUMPDEST PUSH2 0x1FD1 SWAP2 SWAP1 PUSH2 0x2705 JUMP JUMPDEST PUSH2 0x1FDB SWAP2 SWAP1 PUSH2 0x2547 JUMP JUMPDEST SWAP2 POP DUP8 PUSH2 0x1FE8 DUP5 DUP3 PUSH2 0x2763 JUMP JUMPDEST PUSH2 0x1FF2 DUP11 DUP8 PUSH2 0x2763 JUMP JUMPDEST PUSH2 0x1FFB DUP9 PUSH2 0x22EC JUMP JUMPDEST PUSH2 0x2005 SWAP2 SWAP1 PUSH2 0x2705 JUMP JUMPDEST PUSH2 0x200F SWAP2 SWAP1 PUSH2 0x2705 JUMP JUMPDEST PUSH2 0x2019 SWAP2 SWAP1 PUSH2 0x2547 JUMP JUMPDEST PUSH2 0x2025 DUP10 PUSH2 0x3E8 PUSH2 0x2705 JUMP JUMPDEST PUSH2 0x202F SWAP2 SWAP1 PUSH2 0x2763 JUMP JUMPDEST SWAP1 POP JUMPDEST DUP1 PUSH2 0x203D DUP4 DUP9 PUSH2 0x2705 JUMP JUMPDEST PUSH2 0x204F SWAP1 PUSH8 0xDE0B6B3A7640000 PUSH2 0x2705 JUMP JUMPDEST PUSH2 0x2059 SWAP2 SWAP1 PUSH2 0x2547 JUMP JUMPDEST PUSH2 0x2069 SWAP1 PUSH6 0x5AF3107A4000 PUSH2 0x2501 JUMP JUMPDEST PUSH2 0x2074 DUP8 PUSH1 0x1 PUSH2 0x2501 JUMP JUMPDEST PUSH2 0x2086 SWAP1 PUSH8 0xDE0B6B3A7640000 PUSH2 0x2705 JUMP JUMPDEST GT PUSH2 0x2097 JUMPI PUSH6 0x5AF3107A4000 PUSH2 0x1DB4 JUMP JUMPDEST DUP1 PUSH2 0x20A2 DUP4 DUP9 PUSH2 0x2705 JUMP JUMPDEST PUSH2 0x20B4 SWAP1 PUSH8 0xDE0B6B3A7640000 PUSH2 0x2705 JUMP JUMPDEST PUSH2 0x20BE SWAP2 SWAP1 PUSH2 0x2547 JUMP JUMPDEST PUSH2 0x20C9 DUP8 PUSH1 0x1 PUSH2 0x2501 JUMP JUMPDEST PUSH2 0x1DAA SWAP1 PUSH8 0xDE0B6B3A7640000 PUSH2 0x2705 JUMP JUMPDEST PUSH1 0x40 MLOAD PUSH3 0x461BCD PUSH1 0xE5 SHL DUP2 MSTORE PUSH1 0x20 PUSH1 0x4 DUP3 ADD MSTORE PUSH1 0xF PUSH1 0x24 DUP3 ADD MSTORE PUSH15 0x434242433A57524F4E475F54595045 PUSH1 0x88 SHL PUSH1 0x44 DUP3 ADD MSTORE PUSH1 0x64 ADD PUSH2 0x454 JUMP JUMPDEST POP POP POP POP POP POP POP POP SWAP6 SWAP5 POP POP POP POP POP JUMP JUMPDEST PUSH1 0x0 DUP1 DUP1 DUP4 PUSH1 0x1 DUP2 GT ISZERO PUSH2 0x214A JUMPI PUSH4 0x4E487B71 PUSH1 0xE0 SHL PUSH1 0x0 MSTORE PUSH1 0x21 PUSH1 0x4 MSTORE PUSH1 0x24 PUSH1 0x0 REVERT JUMPDEST EQ ISZERO PUSH2 0x215B JUMPI POP PUSH1 0x20 DUP5 ADD MLOAD PUSH2 0x2162 JUMP JUMPDEST POP PUSH1 0x40 DUP5 ADD MLOAD JUMPDEST PUSH4 0x3B9ACA00 PUSH2 0x2192 DUP7 PUSH1 0xC0 ADD MLOAD DUP7 PUSH8 0xDE0B6B3A7640000 PUSH2 0x2183 SWAP2 SWAP1 PUSH2 0x2705 JUMP JUMPDEST PUSH2 0x218D SWAP2 SWAP1 PUSH2 0x2547 JUMP JUMPDEST PUSH2 0x2316 JUMP JUMPDEST PUSH1 0xA0 DUP8 ADD MLOAD PUSH2 0x21A1 SWAP1 DUP5 PUSH2 0x2705 JUMP JUMPDEST PUSH2 0x21AB SWAP2 SWAP1 PUSH2 0x2705 JUMP JUMPDEST PUSH2 0x21B5 SWAP2 SWAP1 PUSH2 0x2547 JUMP JUMPDEST DUP6 PUSH1 0x60 ADD MLOAD PUSH2 0x21C4 SWAP2 SWAP1 PUSH2 0x2501 JUMP JUMPDEST SWAP6 SWAP5 POP POP POP POP POP JUMP JUMPDEST PUSH1 0x0 DUP1 PUSH2 0x21DC PUSH1 0x12 PUSH1 0xA PUSH2 0x25A1 JUMP JUMPDEST PUSH1 0x68 SLOAD PUSH2 0x21E9 SWAP1 DUP6 PUSH2 0x2705 JUMP JUMPDEST PUSH2 0x21F3 SWAP2 SWAP1 PUSH2 0x2547 JUMP JUMPDEST SWAP1 POP DUP3 DUP5 LT ISZERO DUP1 ISZERO PUSH2 0x220D JUMPI POP DUP1 PUSH2 0x220B DUP5 DUP7 PUSH2 0x2763 JUMP JUMPDEST LT JUMPDEST DUP1 PUSH2 0x1950 JUMPI POP DUP3 DUP5 LT DUP1 ISZERO PUSH2 0x1950 JUMPI POP DUP1 PUSH2 0x2228 DUP6 DUP6 PUSH2 0x2763 JUMP JUMPDEST LT SWAP5 SWAP4 POP POP POP POP JUMP JUMPDEST PUSH1 0x0 PUSH1 0x14 PUSH2 0x2240 DUP4 PUSH1 0x13 PUSH2 0x2705 JUMP JUMPDEST PUSH2 0x224A SWAP2 SWAP1 PUSH2 0x2547 JUMP JUMPDEST DUP4 GT PUSH2 0x2257 JUMPI POP DUP2 PUSH2 0x22C6 JUMP JUMPDEST PUSH2 0x2262 DUP4 PUSH1 0x64 PUSH2 0x2705 JUMP JUMPDEST PUSH1 0x14 PUSH2 0x226F DUP5 PUSH1 0x13 PUSH2 0x2705 JUMP JUMPDEST PUSH2 0x2279 SWAP2 SWAP1 PUSH2 0x2547 JUMP JUMPDEST PUSH2 0x2283 SWAP1 DUP6 PUSH2 0x2763 JUMP JUMPDEST PUSH2 0x228D SWAP1 DUP5 PUSH2 0x2705 JUMP JUMPDEST PUSH2 0x2298 SWAP1 PUSH1 0x4 PUSH2 0x2705 JUMP JUMPDEST PUSH2 0x22A2 SWAP2 SWAP1 PUSH2 0x2547 JUMP JUMPDEST PUSH1 0x14 PUSH2 0x22AF DUP5 PUSH1 0x13 PUSH2 0x2705 JUMP JUMPDEST PUSH2 0x22B9 SWAP2 SWAP1 PUSH2 0x2547 JUMP JUMPDEST PUSH2 0x22C3 SWAP2 SWAP1 PUSH2 0x2501 JUMP JUMPDEST SWAP1 POP JUMPDEST DUP2 DUP4 LT DUP1 PUSH2 0x22D2 JUMPI POP DUP2 ISZERO JUMPDEST PUSH2 0x1954 JUMPI PUSH4 0x4E487B71 PUSH1 0xE0 SHL PUSH1 0x0 MSTORE PUSH1 0x1 PUSH1 0x4 MSTORE PUSH1 0x24 PUSH1 0x0 REVERT JUMPDEST PUSH1 0x0 PUSH1 0x1 PUSH1 0xFF SHL DUP3 EQ ISZERO PUSH2 0x22FF JUMPI PUSH1 0x0 DUP1 REVERT JUMPDEST PUSH1 0x0 DUP3 SLT PUSH2 0x230D JUMPI DUP2 PUSH2 0x1954 JUMP JUMPDEST PUSH2 0x1954 DUP3 PUSH2 0x278E JUMP JUMPDEST PUSH1 0x0 PUSH1 0x3 DUP3 GT ISZERO PUSH2 0x2377 JUMPI POP DUP1 PUSH1 0x0 PUSH2 0x2330 PUSH1 0x2 DUP4 PUSH2 0x2547 JUMP JUMPDEST PUSH2 0x233B SWAP1 PUSH1 0x1 PUSH2 0x2501 JUMP JUMPDEST SWAP1 POP JUMPDEST DUP2 DUP2 LT ISZERO PUSH2 0x2371 JUMPI SWAP1 POP DUP1 PUSH1 0x2 DUP2 PUSH2 0x2356 DUP2 DUP7 PUSH2 0x2547 JUMP JUMPDEST PUSH2 0x2360 SWAP2 SWAP1 PUSH2 0x2501 JUMP JUMPDEST PUSH2 0x236A SWAP2 SWAP1 PUSH2 0x2547 JUMP JUMPDEST SWAP1 POP PUSH2 0x233E JUMP JUMPDEST POP PUSH2 0x1973 JUMP JUMPDEST DUP2 ISZERO PUSH2 0x1973 JUMPI POP PUSH1 0x1 SWAP2 SWAP1 POP JUMP JUMPDEST PUSH1 0x0 PUSH1 0x20 DUP3 DUP5 SUB SLT ISZERO PUSH2 0x2396 JUMPI DUP1 DUP2 REVERT JUMPDEST DUP2 CALLDATALOAD PUSH2 0x19A2 DUP2 PUSH2 0x27D4 JUMP JUMPDEST PUSH1 0x0 PUSH1 0x20 DUP3 DUP5 SUB SLT ISZERO PUSH2 0x23B2 JUMPI DUP1 DUP2 REVERT JUMPDEST DUP2 MLOAD PUSH2 0x19A2 DUP2 PUSH2 0x27D4 JUMP JUMPDEST PUSH1 0x0 DUP1 PUSH1 0x40 DUP4 DUP6 SUB SLT ISZERO PUSH2 0x23CF JUMPI DUP1 DUP2 REVERT JUMPDEST DUP3 CALLDATALOAD PUSH2 0x23DA DUP2 PUSH2 0x27D4 JUMP JUMPDEST SWAP2 POP PUSH1 0x20 DUP4 ADD CALLDATALOAD PUSH2 0x23EA DUP2 PUSH2 0x27D4 JUMP JUMPDEST DUP1 SWAP2 POP POP SWAP3 POP SWAP3 SWAP1 POP JUMP JUMPDEST PUSH1 0x0 PUSH1 0x20 DUP3 DUP5 SUB SLT ISZERO PUSH2 0x2406 JUMPI DUP1 DUP2 REVERT JUMPDEST DUP2 MLOAD PUSH1 0x2 DUP2 LT PUSH2 0x19A2 JUMPI DUP2 DUP3 REVERT JUMPDEST PUSH1 0x0 PUSH1 0x20 DUP3 DUP5 SUB SLT ISZERO PUSH2 0x2425 JUMPI DUP1 DUP2 REVERT JUMPDEST POP MLOAD SWAP2 SWAP1 POP JUMP JUMPDEST PUSH1 0x0 PUSH1 0x20 DUP3 DUP5 SUB SLT ISZERO PUSH2 0x243D JUMPI DUP1 DUP2 REVERT JUMPDEST POP CALLDATALOAD SWAP2 SWAP1 POP JUMP JUMPDEST PUSH1 0x0 DUP1 PUSH1 0x40 DUP4 DUP6 SUB SLT ISZERO PUSH2 0x2456 JUMPI DUP2 DUP3 REVERT JUMPDEST POP POP DUP1 MLOAD PUSH1 0x20 SWAP1 SWAP2 ADD MLOAD SWAP1 SWAP3 SWAP1 SWAP2 POP JUMP JUMPDEST PUSH1 0x0 DUP1 PUSH1 0x0 PUSH1 0x60 DUP5 DUP7 SUB SLT ISZERO PUSH2 0x247B JUMPI DUP1 DUP2 REVERT JUMPDEST POP POP DUP2 CALLDATALOAD SWAP4 PUSH1 0x20 DUP4 ADD CALLDATALOAD SWAP4 POP PUSH1 0x40 SWAP1 SWAP3 ADD CALLDATALOAD SWAP2 SWAP1 POP JUMP JUMPDEST PUSH1 0x0 PUSH1 0x20 DUP3 DUP5 SUB SLT ISZERO PUSH2 0x24A3 JUMPI DUP1 DUP2 REVERT JUMPDEST DUP2 MLOAD PUSH1 0xFF DUP2 AND DUP2 EQ PUSH2 0x19A2 JUMPI DUP2 DUP3 REVERT JUMPDEST PUSH1 0x20 DUP1 DUP3 MSTORE PUSH1 0x2E SWAP1 DUP3 ADD MSTORE PUSH32 0x436F6E747261637420696E7374616E63652068617320616C7265616479206265 PUSH1 0x40 DUP3 ADD MSTORE PUSH14 0x195B881A5B9A5D1A585B1A5E9959 PUSH1 0x92 SHL PUSH1 0x60 DUP3 ADD MSTORE PUSH1 0x80 ADD SWAP1 JUMP JUMPDEST PUSH1 0x0 DUP3 NOT DUP3 GT ISZERO PUSH2 0x2514 JUMPI PUSH2 0x2514 PUSH2 0x27A8 JUMP JUMPDEST POP ADD SWAP1 JUMP JUMPDEST PUSH1 0x0 DUP3 PUSH2 0x2528 JUMPI PUSH2 0x2528 PUSH2 0x27BE JUMP JUMPDEST PUSH1 0x1 PUSH1 0xFF SHL DUP3 EQ PUSH1 0x0 NOT DUP5 EQ AND ISZERO PUSH2 0x2542 JUMPI PUSH2 0x2542 PUSH2 0x27A8 JUMP JUMPDEST POP SDIV SWAP1 JUMP JUMPDEST PUSH1 0x0 DUP3 PUSH2 0x2556 JUMPI PUSH2 0x2556 PUSH2 0x27BE JUMP JUMPDEST POP DIV SWAP1 JUMP JUMPDEST DUP1 DUP3 JUMPDEST PUSH1 0x1 DUP1 DUP7 GT PUSH2 0x256D JUMPI POP PUSH2 0x2598 JUMP JUMPDEST DUP2 DUP8 DIV DUP3 GT ISZERO PUSH2 0x257F JUMPI PUSH2 0x257F PUSH2 0x27A8 JUMP JUMPDEST DUP1 DUP7 AND ISZERO PUSH2 0x258C JUMPI SWAP2 DUP2 MUL SWAP2 JUMPDEST SWAP5 SWAP1 SWAP5 SHR SWAP4 DUP1 MUL PUSH2 0x255E JUMP JUMPDEST SWAP5 POP SWAP5 SWAP3 POP POP POP JUMP JUMPDEST PUSH1 0x0 PUSH2 0x19A2 PUSH1 0x0 NOT DUP5 DUP5 PUSH2 0x25BE JUMP JUMPDEST PUSH1 0x0 PUSH2 0x19A2 PUSH1 0x0 NOT PUSH1 0xFF DUP6 AND DUP5 JUMPDEST PUSH1 0x0 DUP3 PUSH2 0x25CD JUMPI POP PUSH1 0x1 PUSH2 0x19A2 JUMP JUMPDEST DUP2 PUSH2 0x25DA JUMPI POP PUSH1 0x0 PUSH2 0x19A2 JUMP JUMPDEST DUP2 PUSH1 0x1 DUP2 EQ PUSH2 0x25F0 JUMPI PUSH1 0x2 DUP2 EQ PUSH2 0x25FA JUMPI PUSH2 0x2627 JUMP JUMPDEST PUSH1 0x1 SWAP2 POP POP PUSH2 0x19A2 JUMP JUMPDEST PUSH1 0xFF DUP5 GT ISZERO PUSH2 0x260B JUMPI PUSH2 0x260B PUSH2 0x27A8 JUMP JUMPDEST PUSH1 0x1 DUP5 SHL SWAP2 POP DUP5 DUP3 GT ISZERO PUSH2 0x2621 JUMPI PUSH2 0x2621 PUSH2 0x27A8 JUMP JUMPDEST POP PUSH2 0x19A2 JUMP JUMPDEST POP PUSH1 0x20 DUP4 LT PUSH2 0x133 DUP4 LT AND PUSH1 0x4E DUP5 LT PUSH1 0xB DUP5 LT AND OR ISZERO PUSH2 0x265A JUMPI POP DUP2 DUP2 EXP DUP4 DUP2 GT ISZERO PUSH2 0x2655 JUMPI PUSH2 0x2655 PUSH2 0x27A8 JUMP JUMPDEST PUSH2 0x19A2 JUMP JUMPDEST PUSH2 0x2667 DUP5 DUP5 DUP5 PUSH1 0x1 PUSH2 0x255B JUMP JUMPDEST DUP1 DUP7 DIV DUP3 GT ISZERO PUSH2 0x2679 JUMPI PUSH2 0x2679 PUSH2 0x27A8 JUMP JUMPDEST MUL SWAP5 SWAP4 POP POP POP POP JUMP JUMPDEST PUSH1 0x0 PUSH1 0x1 PUSH1 0x1 PUSH1 0xFF SHL SUB DUP2 DUP5 SGT DUP3 DUP5 SGT DUP1 DUP3 AND DUP7 DUP5 DIV DUP7 GT AND ISZERO PUSH2 0x26A8 JUMPI PUSH2 0x26A8 PUSH2 0x27A8 JUMP JUMPDEST PUSH1 0x1 PUSH1 0xFF SHL DUP5 DUP8 SLT DUP3 DUP2 AND DUP8 DUP4 SDIV DUP10 SLT AND ISZERO PUSH2 0x26C6 JUMPI PUSH2 0x26C6 PUSH2 0x27A8 JUMP JUMPDEST DUP6 DUP8 SLT SWAP3 POP DUP8 DUP3 SDIV DUP8 SLT DUP5 DUP5 AND AND ISZERO PUSH2 0x26E1 JUMPI PUSH2 0x26E1 PUSH2 0x27A8 JUMP JUMPDEST DUP8 DUP6 SDIV DUP8 SLT DUP2 DUP5 AND AND ISZERO PUSH2 0x26F7 JUMPI PUSH2 0x26F7 PUSH2 0x27A8 JUMP JUMPDEST POP POP POP SWAP3 SWAP1 SWAP4 MUL SWAP4 SWAP3 POP POP POP JUMP JUMPDEST PUSH1 0x0 DUP2 PUSH1 0x0 NOT DIV DUP4 GT DUP3 ISZERO ISZERO AND ISZERO PUSH2 0x271F JUMPI PUSH2 0x271F PUSH2 0x27A8 JUMP JUMPDEST POP MUL SWAP1 JUMP JUMPDEST PUSH1 0x0 DUP1 DUP4 SLT DUP1 ISZERO PUSH1 0x1 PUSH1 0xFF SHL DUP6 ADD DUP5 SLT AND ISZERO PUSH2 0x2742 JUMPI PUSH2 0x2742 PUSH2 0x27A8 JUMP JUMPDEST PUSH1 0x1 PUSH1 0x1 PUSH1 0xFF SHL SUB DUP5 ADD DUP4 SGT DUP2 AND ISZERO PUSH2 0x275D JUMPI PUSH2 0x275D PUSH2 0x27A8 JUMP JUMPDEST POP POP SUB SWAP1 JUMP JUMPDEST PUSH1 0x0 DUP3 DUP3 LT ISZERO PUSH2 0x2775 JUMPI PUSH2 0x2775 PUSH2 0x27A8 JUMP JUMPDEST POP SUB SWAP1 JUMP JUMPDEST PUSH1 0x0 DUP3 PUSH2 0x2789 JUMPI PUSH2 0x2789 PUSH2 0x27BE JUMP JUMPDEST POP MOD SWAP1 JUMP JUMPDEST PUSH1 0x0 PUSH1 0x1 PUSH1 0xFF SHL DUP3 EQ ISZERO PUSH2 0x27A4 JUMPI PUSH2 0x27A4 PUSH2 0x27A8 JUMP JUMPDEST SUB SWAP1 JUMP JUMPDEST PUSH4 0x4E487B71 PUSH1 0xE0 SHL PUSH1 0x0 MSTORE PUSH1 0x11 PUSH1 0x4 MSTORE PUSH1 0x24 PUSH1 0x0 REVERT JUMPDEST PUSH4 0x4E487B71 PUSH1 0xE0 SHL PUSH1 0x0 MSTORE PUSH1 0x12 PUSH1 0x4 MSTORE PUSH1 0x24 PUSH1 0x0 REVERT JUMPDEST PUSH1 0x1 PUSH1 0x1 PUSH1 0xA0 SHL SUB DUP2 AND DUP2 EQ PUSH2 0xC12 JUMPI PUSH1 0x0 DUP1 REVERT INVALID LOG2 PUSH5 0x6970667358 0x22 SLT KECCAK256 NOT 0xE6 PUSH19 0x2F2999B1B1EF0D2D53FD291E58E4F8F912CF52 0xD0 0x5D SWAP10 0xC8 COINBASE SELFBALANCE 0xAA 0xDC SWAP5 BLOCKHASH PUSH5 0x736F6C6343 STOP ADDMOD SUB STOP CALLER "
		},
		"gasEstimates": {
			"creation": {
				"codeDepositCost": "2054200",
				"executionCost": "2178",
				"totalCost": "2056378"
			},
			"external": {
				"cbbcToken()": "1083",
				"deviationThreshold()": "1094",
				"epoch()": "1073",
				"globalAmpleforthEpochAndAMPLSupply()": "infinite",
				"inRebaseWindow()": "infinite",
				"initialize(address)": "44502",
				"initialize(address,address)": "infinite",
				"isOwner()": "1091",
				"lastRebaseTimestampSec()": "1029",
				"marketOracle()": "1126",
				"minRebaseTimeIntervalSec()": "1008",
				"orchestrator()": "1081",
				"owner()": "1076",
				"rebase()": "infinite",
				"rebaseLag()": "1095",
				"rebaseWindowLengthSec()": "1095",
				"rebaseWindowOffsetSec()": "1117",
				"renounceOwnership()": "23825",
				"setMarketOracle(address)": "22153",
				"setOrchestrator(address)": "22108",
				"setRebaseLag(uint256)": "21125",
				"setRebaseTimingParameters(uint256,uint256,uint256)": "61298",
				"transferOwnership(address)": "infinite"
			},
			"internal": {
				"computeSupplyDelta(uint256,uint256)": "infinite",
				"withinDeviationThreshold(uint256,uint256)": "infinite"
			}
		},
		"methodIdentifiers": {
			"cbbcToken()": "0e1b04ae",
			"deviationThreshold()": "d94ad837",
			"epoch()": "900cf0cf",
			"globalAmpleforthEpochAndAMPLSupply()": "105bad4f",
			"inRebaseWindow()": "111d0498",
			"initialize(address)": "c4d66de8",
			"initialize(address,address)": "485cc955",
			"isOwner()": "8f32d59b",
			"lastRebaseTimestampSec()": "3a93069b",
			"marketOracle()": "60961528",
			"minRebaseTimeIntervalSec()": "02101899",
			"orchestrator()": "b74795d9",
			"owner()": "8da5cb5b",
			"rebase()": "af14052c",
			"rebaseLag()": "63f6d4c8",
			"rebaseWindowLengthSec()": "9466120f",
			"rebaseWindowOffsetSec()": "7052b902",
			"renounceOwnership()": "715018a6",
			"setMarketOracle(address)": "9e30bac5",
			"setOrchestrator(address)": "cd28ef0d",
			"setRebaseLag(uint256)": "20ce8389",
			"setRebaseTimingParameters(uint256,uint256,uint256)": "16250fd4",
			"transferOwnership(address)": "f2fde38b"
		}
	},
	"abi": [
		{
			"anonymous": false,
			"inputs": [
				{
					"indexed": true,
					"internalType": "uint256",
					"name": "epoch",
					"type": "uint256"
				},
				{
					"indexed": false,
					"internalType": "uint256",
					"name": "exchangeRate",
					"type": "uint256"
				},
				{
					"indexed": false,
					"internalType": "int256",
					"name": "requestedSupplyAdjustment",
					"type": "int256"
				},
				{
					"indexed": false,
					"internalType": "uint256",
					"name": "timestampSec",
					"type": "uint256"
				}
			],
			"name": "LogRebase",
			"type": "event"
		},
		{
			"anonymous": false,
			"inputs": [
				{
					"indexed": true,
					"internalType": "address",
					"name": "previousOwner",
					"type": "address"
				}
			],
			"name": "OwnershipRenounced",
			"type": "event"
		},
		{
			"anonymous": false,
			"inputs": [
				{
					"indexed": true,
					"internalType": "address",
					"name": "previousOwner",
					"type": "address"
				},
				{
					"indexed": true,
					"internalType": "address",
					"name": "newOwner",
					"type": "address"
				}
			],
			"name": "OwnershipTransferred",
			"type": "event"
		},
		{
			"inputs": [],
			"name": "cbbcToken",
			"outputs": [
				{
					"internalType": "contract ICbbcToken",
					"name": "",
					"type": "address"
				}
			],
			"stateMutability": "view",
			"type": "function"
		},
		{
			"inputs": [],
			"name": "deviationThreshold",
			"outputs": [
				{
					"internalType": "uint256",
					"name": "",
					"type": "uint256"
				}
			],
			"stateMutability": "view",
			"type": "function"
		},
		{
			"inputs": [],
			"name": "epoch",
			"outputs": [
				{
					"internalType": "uint256",
					"name": "",
					"type": "uint256"
				}
			],
			"stateMutability": "view",
			"type": "function"
		},
		{
			"inputs": [],
			"name": "globalAmpleforthEpochAndAMPLSupply",
			"outputs": [
				{
					"internalType": "uint256",
					"name": "",
					"type": "uint256"
				},
				{
					"internalType": "uint256",
					"name": "",
					"type": "uint256"
				}
			],
			"stateMutability": "view",
			"type": "function"
		},
		{
			"inputs": [],
			"name": "inRebaseWindow",
			"outputs": [
				{
					"internalType": "bool",
					"name": "",
					"type": "bool"
				}
			],
			"stateMutability": "view",
			"type": "function"
		},
		{
			"inputs": [
				{
					"internalType": "address",
					"name": "owner_",
					"type": "address"
				},
				{
					"internalType": "contract ICbbcToken",
					"name": "cbbcToken_",
					"type": "address"
				}
			],
			"name": "initialize",
			"outputs": [],
			"stateMutability": "nonpayable",
			"type": "function"
		},
		{
			"inputs": [
				{
					"internalType": "address",
					"name": "sender",
					"type": "address"
				}
			],
			"name": "initialize",
			"outputs": [],
			"stateMutability": "nonpayable",
			"type": "function"
		},
		{
			"inputs": [],
			"name": "isOwner",
			"outputs": [
				{
					"internalType": "bool",
					"name": "",
					"type": "bool"
				}
			],
			"stateMutability": "view",
			"type": "function"
		},
		{
			"inputs": [],
			"name": "lastRebaseTimestampSec",
			"outputs": [
				{
					"internalType": "uint256",
					"name": "",
					"type": "uint256"
				}
			],
			"stateMutability": "view",
			"type": "function"
		},
		{
			"inputs": [],
			"name": "marketOracle",
			"outputs": [
				{
					"internalType": "contract IMarketOracle",
					"name": "",
					"type": "address"
				}
			],
			"stateMutability": "view",
			"type": "function"
		},
		{
			"inputs": [],
			"name": "minRebaseTimeIntervalSec",
			"outputs": [
				{
					"internalType": "uint256",
					"name": "",
					"type": "uint256"
				}
			],
			"stateMutability": "view",
			"type": "function"
		},
		{
			"inputs": [],
			"name": "orchestrator",
			"outputs": [
				{
					"internalType": "address",
					"name": "",
					"type": "address"
				}
			],
			"stateMutability": "view",
			"type": "function"
		},
		{
			"inputs": [],
			"name": "owner",
			"outputs": [
				{
					"internalType": "address",
					"name": "",
					"type": "address"
				}
			],
			"stateMutability": "view",
			"type": "function"
		},
		{
			"inputs": [],
			"name": "rebase",
			"outputs": [],
			"stateMutability": "nonpayable",
			"type": "function"
		},
		{
			"inputs": [],
			"name": "rebaseLag",
			"outputs": [
				{
					"internalType": "uint256",
					"name": "",
					"type": "uint256"
				}
			],
			"stateMutability": "view",
			"type": "function"
		},
		{
			"inputs": [],
			"name": "rebaseWindowLengthSec",
			"outputs": [
				{
					"internalType": "uint256",
					"name": "",
					"type": "uint256"
				}
			],
			"stateMutability": "view",
			"type": "function"
		},
		{
			"inputs": [],
			"name": "rebaseWindowOffsetSec",
			"outputs": [
				{
					"internalType": "uint256",
					"name": "",
					"type": "uint256"
				}
			],
			"stateMutability": "view",
			"type": "function"
		},
		{
			"inputs": [],
			"name": "renounceOwnership",
			"outputs": [],
			"stateMutability": "nonpayable",
			"type": "function"
		},
		{
			"inputs": [
				{
					"internalType": "contract IMarketOracle",
					"name": "marketOracle_",
					"type": "address"
				}
			],
			"name": "setMarketOracle",
			"outputs": [],
			"stateMutability": "nonpayable",
			"type": "function"
		},
		{
			"inputs": [
				{
					"internalType": "address",
					"name": "orchestrator_",
					"type": "address"
				}
			],
			"name": "setOrchestrator",
			"outputs": [],
			"stateMutability": "nonpayable",
			"type": "function"
		},
		{
			"inputs": [
				{
					"internalType": "uint256",
					"name": "rebaseLag_",
					"type": "uint256"
				}
			],
			"name": "setRebaseLag",
			"outputs": [],
			"stateMutability": "nonpayable",
			"type": "function"
		},
		{
			"inputs": [
				{
					"internalType": "uint256",
					"name": "minRebaseTimeIntervalSec_",
					"type": "uint256"
				},
				{
					"internalType": "uint256",
					"name": "rebaseWindowOffsetSec_",
					"type": "uint256"
				},
				{
					"internalType": "uint256",
					"name": "rebaseWindowLengthSec_",
					"type": "uint256"
				}
			],
			"name": "setRebaseTimingParameters",
			"outputs": [],
			"stateMutability": "nonpayable",
			"type": "function"
		},
		{
			"inputs": [
				{
					"internalType": "address",
					"name": "newOwner",
					"type": "address"
				}
			],
			"name": "transferOwnership",
			"outputs": [],
			"stateMutability": "nonpayable",
			"type": "function"
		}
	]
}