{
	"data": {
		"bytecode": {
			"linkReferences": {},
			"object": "60046066556006606781905561014060405260016080908152600260a052600360c052600560e052600a610100526014610120526200004291606f919062000057565b503480156200005057600080fd5b506200011b565b82805482825590600052602060002090601f01602090048101928215620000f25791602002820160005b83821115620000c157835183826101000a81548160ff021916908360ff160217905550926020019260010160208160000104928301926001030262000081565b8015620000f05782816101000a81549060ff0219169055600101602081600001049283019260010302620000c1565b505b506200010092915062000104565b5090565b5b8082111562000100576000815560010162000105565b611ff9806200012b6000396000f3fe608060405234801561001057600080fd5b50600436106102325760003560e01c80638fadeee811610130578063c4d66de8116100b8578063eacadd7b1161007c578063eacadd7b14610504578063ec671f1d1461050c578063ed0ff2c71461051f578063f2fde38b14610532578063fb0b2b361461054557610232565b8063c4d66de8146104ba578063c7598260146104cd578063cbd17c67146104d5578063dd58816b146104de578063e76f19aa146104f157610232565b8063a1983b53116100ff578063a1983b5314610466578063a7dd0b6614610479578063a86c6bf114610481578063b5663a9914610494578063c14bb40b146104a757610232565b80638fadeee81461040d57806393e0a07114610420578063976847f2146104285780639845e9121461043d57610232565b80636ac3aa42116101be5780637f92763e116101825780637f92763e146103ac57806381a73ad5146103bf57806388e97c3c146103df5780638da5cb5b146103e85780638f32d59b146103f957610232565b80636ac3aa4214610316578063715018a61461035957806373f1c6b81461036157806379832635146103765780637f78ffc41461039957610232565b80632657bd16116102055780632657bd161461029f5780633e783030146102b257806348bcef38146102dd57806351685876146102f0578063661ad0cc1461030357610232565b80631422bac71461023757806314d5e5a71461025d578063154abf4a146102655780631a5863c01461028a575b600080fd5b61024a610245366004611b72565b610558565b6040519081526020015b60405180910390f35b606c5461024a565b610278610273366004611d23565b610577565b60405160ff9091168152602001610254565b61029d610298366004611d53565b6105ab565b005b61029d6102ad366004611b93565b6105d3565b6102c56102c0366004611d23565b6106ea565b6040516001600160a01b039091168152602001610254565b6102c56102eb366004611d23565b610714565b61029d6102fe366004611d74565b610724565b6102c5610311366004611d23565b6107d9565b6102c5610324366004611bc5565b60686020908152600094855260408086208252938552838520815291845282842090915282529020546001600160a01b031681565b61029d6107e9565b610369610850565b6040516102549190611ddb565b610389610384366004611b72565b6108c6565b6040519015158152602001610254565b6103896103a7366004611b72565b61094b565b6102c56103ba366004611cfa565b6109ba565b6103d26103cd366004611b72565b6109f2565b6040516102549190611e45565b61024a60665481565b6033546001600160a01b03166102c5565b6103896033546001600160a01b0316331490565b61038961041b366004611b72565b610a9e565b606e5461024a565b610430610b1d565b6040516102549190611d8e565b6102c561044b366004611b72565b606a602052600090815260409020546001600160a01b031681565b61029d610474366004611c7c565b610b7e565b606f5461024a565b61029d61048f366004611c7c565b610c12565b61029d6104a2366004611c18565b610c3a565b6103896104b5366004611b72565b610f92565b61029d6104c8366004611b72565b610fff565b61043061107b565b61024a60675481565b61024a6104ec366004611b72565b6110db565b6104306104ff366004611b72565b61125b565b606d5461024a565b61038961051a366004611d74565b6112d0565b61038961052d366004611d74565b611330565b61029d610540366004611b72565b6113b3565b6103d2610553366004611b72565b6113dc565b6001600160a01b0381166000908152606960205260409020545b919050565b606f818154811061058757600080fd5b9060005260206000209060209182820401919006915054906101000a900460ff1681565b6105bf6033546001600160a01b0316331490565b6105c857600080fd5b606691909155606755565b336001600160a01b038216146106235760405162461bcd60e51b815260206004820152601060248201526f21a121219d102327a92124a22222a71760811b60448201526064015b60405180910390fd5b61062c82610f92565b6106485760405162461bcd60e51b815260040161061a90611ee6565b6001600160a01b038281166000908152606a602052604090205416156106bc5760405162461bcd60e51b8152602060048201526024808201527f434242433a204c49515549444954595f544f4b454e5f414c52454144595f45586044820152634953545360e01b606482015260840161061a565b6001600160a01b039182166000908152606a6020526040902080546001600160a01b03191691909216179055565b606c81815481106106fa57600080fd5b6000918252602090912001546001600160a01b0316905081565b606e81815481106106fa57600080fd5b6107386033546001600160a01b0316331490565b61074157600080fd5b60648160ff1611156107955760405162461bcd60e51b815260206004820152601860248201527f434242433a204c455645524147455f544f4f5f484947482e0000000000000000604482015260640161061a565b6107a0606f82611476565b60405160ff821681527f901c0ad94e5ba2e908beff5989a38e07db9377bd6f9f25679cdad38451a2333e9060200160405180910390a150565b606d81815481106106fa57600080fd5b6107fd6033546001600160a01b0316331490565b61080657600080fd5b6033546040516001600160a01b03909116907ff8df31144d9c2f0f6b59d69b8b98abd5459d07f2742c4df920b25aae33c6482090600090a2603380546001600160a01b0319169055565b6060606f8054806020026020016040519081016040528092919081815260200182805480156108bc57602002820191906000526020600020906000905b825461010083900a900460ff1681526020600192830181810494850194909303909202910180841161088d5790505b5050505050905090565b60006108dc6033546001600160a01b0316331490565b6108e557600080fd5b6001600160a01b0382166000908152606b6020526040812061090691611a66565b6040516001600160a01b038316907f3a7838af6fbcc0d838ecfc8f9a237cc24993c55a0ce09f717cd43cdd67c2061290600090a2610945606d8361152a565b92915050565b600061094582606e8054806020026020016040519081016040528092919081815260200182805480156109a757602002820191906000526020600020905b81546001600160a01b03168152600190910190602001808311610989575b505050505061169c90919063ffffffff16565b606960205281600052604060002081815481106109d657600080fd5b6000918252602090912001546001600160a01b03169150829050565b6001600160a01b0381166000908152606b60205260409020805460609190610a1990611f57565b80601f0160208091040260200160405190810160405280929190818152602001828054610a4590611f57565b8015610a925780601f10610a6757610100808354040283529160200191610a92565b820191906000526020600020905b815481529060010190602001808311610a7557829003601f168201915b50505050509050919050565b6000610ab46033546001600160a01b0316331490565b610abd57600080fd5b6001600160a01b0382166000908152606b60205260408120610ade91611a66565b6040516001600160a01b038316907f3a7838af6fbcc0d838ecfc8f9a237cc24993c55a0ce09f717cd43cdd67c2061290600090a2610945606e8361152a565b6060606d8054806020026020016040519081016040528092919081815260200182805480156108bc57602002820191906000526020600020905b81546001600160a01b03168152600190910190602001808311610b57575050505050905090565b610b926033546001600160a01b0316331490565b610b9b57600080fd5b610ba6606d84611709565b6001600160a01b0383166000908152606b60205260409020610bc9908383611aa2565b50826001600160a01b03167f57c22f474101374a849a4f8abd1a64ff1c772d32f6ea7e00f1eb0c6ec167c1338383604051610c05929190611e16565b60405180910390a2505050565b610c266033546001600160a01b0316331490565b610c2f57600080fd5b610ba6606e84611709565b336001600160a01b03821614610c855760405162461bcd60e51b815260206004820152601060248201526f21a121219d102327a92124a22222a71760811b604482015260640161061a565b610c8e85610f92565b610caa5760405162461bcd60e51b815260040161061a90611ee6565b610cb38461094b565b610cff5760405162461bcd60e51b815260206004820152601d60248201527f434242433a204e4f545f414c4c4f5745445f54524144455f544f4b454e000000604482015260640161061a565b610d0883611330565b610d545760405162461bcd60e51b815260206004820152601a60248201527f434242433a204e4f545f414c4c4f5745445f4c45564552414745000000000000604482015260640161061a565b6001600160a01b038581166000908152606a602052604090205416610dbb5760405162461bcd60e51b815260206004820181905260248201527f434242433a204c49515549444954595f544f4b454e5f4e4f545f455849535453604482015260640161061a565b6001600160a01b038581166000908152606860209081526040808320938816835292815282822060ff87168352905290812081846001811115610e0e57634e487b7160e01b600052602160045260246000fd5b6001811115610e2d57634e487b7160e01b600052602160045260246000fd5b81526020810191909152604001600020546001600160a01b031614610e8b5760405162461bcd60e51b8152602060048201526014602482015273434242433a20414c52454144595f45584953545360601b604482015260640161061a565b6001600160a01b038086166000908152606860209081526040808320938816835292815282822060ff8716835290529081208291846001811115610edf57634e487b7160e01b600052602160045260246000fd5b6001811115610efe57634e487b7160e01b600052602160045260246000fd5b81526020808201929092526040908101600090812080546001600160a01b039586166001600160a01b031991821617909155606c805460018181019092557f2b4a51ab505fc96a0952efda2ba61bcd3078d4c02c39a186ec16f21883fbe016018054978716978316881790559990941681526069835290812080549889018155815220909501805490951617909355505050565b600061094582606d8054806020026020016040519081016040528092919081815260200182805480156109a7576020028201919060005260206000209081546001600160a01b0316815260019091019060200180831161098957505050505061169c90919063ffffffff16565b600054610100900460ff16806110145750303b155b80611022575060005460ff16155b61103e5760405162461bcd60e51b815260040161061a90611e98565b6000805461ffff19811661010117909155610100900460ff16611060826117a1565b600080549115156101000261ff001990921691909117905550565b6060606e8054806020026020016040519081016040528092919081815260200182805480156108bc576020028201919060005260206000209081546001600160a01b03168152600190910190602001808311610b57575050505050905090565b60006110e682610f92565b6111025760405162461bcd60e51b815260040161061a90611ee6565b6001600160a01b03821660009081526069602090815260408083208054825181850281018501909352808352919290919083018282801561116c57602002820191906000526020600020905b81546001600160a01b0316815260019091019060200180831161114e575b505083519394505050811515905061118957600092505050610572565b60008060005b83811015611250578481815181106111b757634e487b7160e01b600052603260045260246000fd5b60200260200101519150816001600160a01b03166318160ddd6040518163ffffffff1660e01b815260040160206040518083038186803b1580156111fa57600080fd5b505afa15801561120e573d6000803e3d6000fd5b505050506040513d601f19601f820116820180604052508101906112329190611d3b565b61123c9084611f28565b92508061124881611f92565b91505061118f565b509095945050505050565b6001600160a01b038116600090815260696020908152604091829020805483518184028101840190945280845260609392830182828015610a9257602002820191906000526020600020905b81546001600160a01b031681526001909101906020018083116112a75750505050509050919050565b60006112e66033546001600160a01b0316331490565b6112ef57600080fd5b60405160ff831681527f807a478ec66599a3c39cd76c43164703fbacef18f2ede420de3c58e5bf54bac99060200160405180910390a1610945606f83611825565b600061094582606f8054806020026020016040519081016040528092919081815260200182805480156113a057602002820191906000526020600020906000905b825461010083900a900460ff168152602060019283018181049485019490930390920291018084116113715790505b505050505061199690919063ffffffff16565b6113c76033546001600160a01b0316331490565b6113d057600080fd5b6113d9816119f7565b50565b606b60205260009081526040902080546113f590611f57565b80601f016020809104026020016040519081016040528092919081815260200182805461142190611f57565b801561146e5780601f106114435761010080835404028352916020019161146e565b820191906000526020600020905b81548152906001019060200180831161145157829003601f168201915b505050505081565b6114ed828054806020026020016040519081016040528092919081815260200182805480156114e257602002820191906000526020600020906000905b825461010083900a900460ff168152602060019283018181049485019490930390920291018084116114b35790505b505050505082611996565b611526578154600181018355600083815260209081902090820401805460ff808516601f9094166101000a938402930219169190911790555b5050565b8154600090815b8181101561159557836001600160a01b031685828154811061156357634e487b7160e01b600052603260045260246000fd5b6000918252602090912001546001600160a01b0316141561158357611595565b8061158d81611f92565b915050611531565b81811015611691576115a8600183611f40565b811461164557846115ba600184611f40565b815481106115d857634e487b7160e01b600052603260045260246000fd5b9060005260206000200160009054906101000a90046001600160a01b031685828154811061161657634e487b7160e01b600052603260045260246000fd5b9060005260206000200160006101000a8154816001600160a01b0302191690836001600160a01b031602179055505b8480548061166357634e487b7160e01b600052603160045260246000fd5b600082815260209020810160001990810180546001600160a01b031916905501905550600191506109459050565b506000949350505050565b8151600090815b8181101561169157836001600160a01b03168582815181106116d557634e487b7160e01b600052603260045260246000fd5b60200260200101516001600160a01b031614156116f757600192505050610945565b8061170181611f92565b9150506116a3565b61176c8280548060200260200160405190810160405280929190818152602001828054801561176157602002820191906000526020600020905b81546001600160a01b03168152600190910190602001808311611743575b50505050508261169c565b6115265781546001810183556000838152602090200180546001600160a01b0383166001600160a01b03199091161790555050565b600054610100900460ff16806117b65750303b155b806117c4575060005460ff16155b6117e05760405162461bcd60e51b815260040161061a90611e98565b60008054603380546001600160a01b0319166001600160a01b03949094169390931790925561ffff1982166101009283900460ff161515909202919091176001179055565b8154600090815b81811015611895578360ff1685828154811061185857634e487b7160e01b600052603260045260246000fd5b60009182526020918290209181049091015460ff601f9092166101000a900416141561188357611895565b8061188d81611f92565b91505061182c565b81811015611691576118a8600183611f40565b811461194357846118ba600184611f40565b815481106118d857634e487b7160e01b600052603260045260246000fd5b90600052602060002090602091828204019190069054906101000a900460ff1685828154811061191857634e487b7160e01b600052603260045260246000fd5b90600052602060002090602091828204019190066101000a81548160ff021916908360ff1602179055505b8480548061196157634e487b7160e01b600052603160045260246000fd5b60019003818190600052602060002090602091828204019190066101000a81549060ff02191690559055600192505050610945565b8151600090815b81811015611691578360ff168582815181106119c957634e487b7160e01b600052603260045260246000fd5b602002602001015160ff1614156119e557600192505050610945565b806119ef81611f92565b91505061199d565b6001600160a01b038116611a0a57600080fd5b6033546040516001600160a01b038084169216907f8be0079c531659141344cd1fd0a4f28419497f9722a3daafe3b4186f6b6457e090600090a3603380546001600160a01b0319166001600160a01b0392909216919091179055565b508054611a7290611f57565b6000825580601f10611a8457506113d9565b601f0160209004906000526020600020908101906113d99190611b26565b828054611aae90611f57565b90600052602060002090601f016020900481019282611ad05760008555611b16565b82601f10611ae95782800160ff19823516178555611b16565b82800160010185558215611b16579182015b82811115611b16578235825591602001919060010190611afb565b50611b22929150611b26565b5090565b5b80821115611b225760008155600101611b27565b80356001600160a01b038116811461057257600080fd5b80356002811061057257600080fd5b803560ff8116811461057257600080fd5b600060208284031215611b83578081fd5b611b8c82611b3b565b9392505050565b60008060408385031215611ba5578081fd5b611bae83611b3b565b9150611bbc60208401611b3b565b90509250929050565b60008060008060808587031215611bda578182fd5b611be385611b3b565b9350611bf160208601611b3b565b9250611bff60408601611b61565b9150611c0d60608601611b52565b905092959194509250565b600080600080600060a08688031215611c2f578081fd5b611c3886611b3b565b9450611c4660208701611b3b565b9350611c5460408701611b61565b9250611c6260608701611b52565b9150611c7060808701611b3b565b90509295509295909350565b600080600060408486031215611c90578283fd5b611c9984611b3b565b9250602084013567ffffffffffffffff80821115611cb5578384fd5b818601915086601f830112611cc8578384fd5b813581811115611cd6578485fd5b876020828501011115611ce7578485fd5b6020830194508093505050509250925092565b60008060408385031215611d0c578182fd5b611d1583611b3b565b946020939093013593505050565b600060208284031215611d34578081fd5b5035919050565b600060208284031215611d4c578081fd5b5051919050565b60008060408385031215611d65578182fd5b50508035926020909101359150565b600060208284031215611d85578081fd5b611b8c82611b61565b6020808252825182820181905260009190848201906040850190845b81811015611dcf5783516001600160a01b031683529284019291840191600101611daa565b50909695505050505050565b6020808252825182820181905260009190848201906040850190845b81811015611dcf57835160ff1683529284019291840191600101611df7565b60006020825282602083015282846040840137818301604090810191909152601f909201601f19160101919050565b6000602080835283518082850152825b81811015611e7157858101830151858201604001528201611e55565b81811115611e825783604083870101525b50601f01601f1916929092016040019392505050565b6020808252602e908201527f436f6e747261637420696e7374616e63652068617320616c726561647920626560408201526d195b881a5b9a5d1a585b1a5e995960921b606082015260800190565b60208082526022908201527f434242433a204e4f545f414c4c4f5745445f534554544c454d454e545f544f4b60408201526122a760f11b606082015260800190565b60008219821115611f3b57611f3b611fad565b500190565b600082821015611f5257611f52611fad565b500390565b600181811c90821680611f6b57607f821691505b60208210811415611f8c57634e487b7160e01b600052602260045260246000fd5b50919050565b6000600019821415611fa657611fa6611fad565b5060010190565b634e487b7160e01b600052601160045260246000fdfea2646970667358221220612bb245fda439975ba5dc553620543e9e86e95f23f5ed3349728a461cc14b9464736f6c63430008030033",
			"opcodes": "PUSH1 0x4 PUSH1 0x66 SSTORE PUSH1 0x6 PUSH1 0x67 DUP2 SWAP1 SSTORE PUSH2 0x140 PUSH1 0x40 MSTORE PUSH1 0x1 PUSH1 0x80 SWAP1 DUP2 MSTORE PUSH1 0x2 PUSH1 0xA0 MSTORE PUSH1 0x3 PUSH1 0xC0 MSTORE PUSH1 0x5 PUSH1 0xE0 MSTORE PUSH1 0xA PUSH2 0x100 MSTORE PUSH1 0x14 PUSH2 0x120 MSTORE PUSH3 0x42 SWAP2 PUSH1 0x6F SWAP2 SWAP1 PUSH3 0x57 JUMP JUMPDEST POP CALLVALUE DUP1 ISZERO PUSH3 0x50 JUMPI PUSH1 0x0 DUP1 REVERT JUMPDEST POP PUSH3 0x11B JUMP JUMPDEST DUP3 DUP1 SLOAD DUP3 DUP3 SSTORE SWAP1 PUSH1 0x0 MSTORE PUSH1 0x20 PUSH1 0x0 KECCAK256 SWAP1 PUSH1 0x1F ADD PUSH1 0x20 SWAP1 DIV DUP2 ADD SWAP3 DUP3 ISZERO PUSH3 0xF2 JUMPI SWAP2 PUSH1 0x20 MUL DUP3 ADD PUSH1 0x0 JUMPDEST DUP4 DUP3 GT ISZERO PUSH3 0xC1 JUMPI DUP4 MLOAD DUP4 DUP3 PUSH2 0x100 EXP DUP2 SLOAD DUP2 PUSH1 0xFF MUL NOT AND SWAP1 DUP4 PUSH1 0xFF AND MUL OR SWAP1 SSTORE POP SWAP3 PUSH1 0x20 ADD SWAP3 PUSH1 0x1 ADD PUSH1 0x20 DUP2 PUSH1 0x0 ADD DIV SWAP3 DUP4 ADD SWAP3 PUSH1 0x1 SUB MUL PUSH3 0x81 JUMP JUMPDEST DUP1 ISZERO PUSH3 0xF0 JUMPI DUP3 DUP2 PUSH2 0x100 EXP DUP2 SLOAD SWAP1 PUSH1 0xFF MUL NOT AND SWAP1 SSTORE PUSH1 0x1 ADD PUSH1 0x20 DUP2 PUSH1 0x0 ADD DIV SWAP3 DUP4 ADD SWAP3 PUSH1 0x1 SUB MUL PUSH3 0xC1 JUMP JUMPDEST POP JUMPDEST POP PUSH3 0x100 SWAP3 SWAP2 POP PUSH3 0x104 JUMP JUMPDEST POP SWAP1 JUMP JUMPDEST JUMPDEST DUP1 DUP3 GT ISZERO PUSH3 0x100 JUMPI PUSH1 0x0 DUP2 SSTORE PUSH1 0x1 ADD PUSH3 0x105 JUMP JUMPDEST PUSH2 0x1FF9 DUP1 PUSH3 0x12B PUSH1 0x0 CODECOPY PUSH1 0x0 RETURN INVALID PUSH1 0x80 PUSH1 0x40 MSTORE CALLVALUE DUP1 ISZERO PUSH2 0x10 JUMPI PUSH1 0x0 DUP1 REVERT JUMPDEST POP PUSH1 0x4 CALLDATASIZE LT PUSH2 0x232 JUMPI PUSH1 0x0 CALLDATALOAD PUSH1 0xE0 SHR DUP1 PUSH4 0x8FADEEE8 GT PUSH2 0x130 JUMPI DUP1 PUSH4 0xC4D66DE8 GT PUSH2 0xB8 JUMPI DUP1 PUSH4 0xEACADD7B GT PUSH2 0x7C JUMPI DUP1 PUSH4 0xEACADD7B EQ PUSH2 0x504 JUMPI DUP1 PUSH4 0xEC671F1D EQ PUSH2 0x50C JUMPI DUP1 PUSH4 0xED0FF2C7 EQ PUSH2 0x51F JUMPI DUP1 PUSH4 0xF2FDE38B EQ PUSH2 0x532 JUMPI DUP1 PUSH4 0xFB0B2B36 EQ PUSH2 0x545 JUMPI PUSH2 0x232 JUMP JUMPDEST DUP1 PUSH4 0xC4D66DE8 EQ PUSH2 0x4BA JUMPI DUP1 PUSH4 0xC7598260 EQ PUSH2 0x4CD JUMPI DUP1 PUSH4 0xCBD17C67 EQ PUSH2 0x4D5 JUMPI DUP1 PUSH4 0xDD58816B EQ PUSH2 0x4DE JUMPI DUP1 PUSH4 0xE76F19AA EQ PUSH2 0x4F1 JUMPI PUSH2 0x232 JUMP JUMPDEST DUP1 PUSH4 0xA1983B53 GT PUSH2 0xFF JUMPI DUP1 PUSH4 0xA1983B53 EQ PUSH2 0x466 JUMPI DUP1 PUSH4 0xA7DD0B66 EQ PUSH2 0x479 JUMPI DUP1 PUSH4 0xA86C6BF1 EQ PUSH2 0x481 JUMPI DUP1 PUSH4 0xB5663A99 EQ PUSH2 0x494 JUMPI DUP1 PUSH4 0xC14BB40B EQ PUSH2 0x4A7 JUMPI PUSH2 0x232 JUMP JUMPDEST DUP1 PUSH4 0x8FADEEE8 EQ PUSH2 0x40D JUMPI DUP1 PUSH4 0x93E0A071 EQ PUSH2 0x420 JUMPI DUP1 PUSH4 0x976847F2 EQ PUSH2 0x428 JUMPI DUP1 PUSH4 0x9845E912 EQ PUSH2 0x43D JUMPI PUSH2 0x232 JUMP JUMPDEST DUP1 PUSH4 0x6AC3AA42 GT PUSH2 0x1BE JUMPI DUP1 PUSH4 0x7F92763E GT PUSH2 0x182 JUMPI DUP1 PUSH4 0x7F92763E EQ PUSH2 0x3AC JUMPI DUP1 PUSH4 0x81A73AD5 EQ PUSH2 0x3BF JUMPI DUP1 PUSH4 0x88E97C3C EQ PUSH2 0x3DF JUMPI DUP1 PUSH4 0x8DA5CB5B EQ PUSH2 0x3E8 JUMPI DUP1 PUSH4 0x8F32D59B EQ PUSH2 0x3F9 JUMPI PUSH2 0x232 JUMP JUMPDEST DUP1 PUSH4 0x6AC3AA42 EQ PUSH2 0x316 JUMPI DUP1 PUSH4 0x715018A6 EQ PUSH2 0x359 JUMPI DUP1 PUSH4 0x73F1C6B8 EQ PUSH2 0x361 JUMPI DUP1 PUSH4 0x79832635 EQ PUSH2 0x376 JUMPI DUP1 PUSH4 0x7F78FFC4 EQ PUSH2 0x399 JUMPI PUSH2 0x232 JUMP JUMPDEST DUP1 PUSH4 0x2657BD16 GT PUSH2 0x205 JUMPI DUP1 PUSH4 0x2657BD16 EQ PUSH2 0x29F JUMPI DUP1 PUSH4 0x3E783030 EQ PUSH2 0x2B2 JUMPI DUP1 PUSH4 0x48BCEF38 EQ PUSH2 0x2DD JUMPI DUP1 PUSH4 0x51685876 EQ PUSH2 0x2F0 JUMPI DUP1 PUSH4 0x661AD0CC EQ PUSH2 0x303 JUMPI PUSH2 0x232 JUMP JUMPDEST DUP1 PUSH4 0x1422BAC7 EQ PUSH2 0x237 JUMPI DUP1 PUSH4 0x14D5E5A7 EQ PUSH2 0x25D JUMPI DUP1 PUSH4 0x154ABF4A EQ PUSH2 0x265 JUMPI DUP1 PUSH4 0x1A5863C0 EQ PUSH2 0x28A JUMPI JUMPDEST PUSH1 0x0 DUP1 REVERT JUMPDEST PUSH2 0x24A PUSH2 0x245 CALLDATASIZE PUSH1 0x4 PUSH2 0x1B72 JUMP JUMPDEST PUSH2 0x558 JUMP JUMPDEST PUSH1 0x40 MLOAD SWAP1 DUP2 MSTORE PUSH1 0x20 ADD JUMPDEST PUSH1 0x40 MLOAD DUP1 SWAP2 SUB SWAP1 RETURN JUMPDEST PUSH1 0x6C SLOAD PUSH2 0x24A JUMP JUMPDEST PUSH2 0x278 PUSH2 0x273 CALLDATASIZE PUSH1 0x4 PUSH2 0x1D23 JUMP JUMPDEST PUSH2 0x577 JUMP JUMPDEST PUSH1 0x40 MLOAD PUSH1 0xFF SWAP1 SWAP2 AND DUP2 MSTORE PUSH1 0x20 ADD PUSH2 0x254 JUMP JUMPDEST PUSH2 0x29D PUSH2 0x298 CALLDATASIZE PUSH1 0x4 PUSH2 0x1D53 JUMP JUMPDEST PUSH2 0x5AB JUMP JUMPDEST STOP JUMPDEST PUSH2 0x29D PUSH2 0x2AD CALLDATASIZE PUSH1 0x4 PUSH2 0x1B93 JUMP JUMPDEST PUSH2 0x5D3 JUMP JUMPDEST PUSH2 0x2C5 PUSH2 0x2C0 CALLDATASIZE PUSH1 0x4 PUSH2 0x1D23 JUMP JUMPDEST PUSH2 0x6EA JUMP JUMPDEST PUSH1 0x40 MLOAD PUSH1 0x1 PUSH1 0x1 PUSH1 0xA0 SHL SUB SWAP1 SWAP2 AND DUP2 MSTORE PUSH1 0x20 ADD PUSH2 0x254 JUMP JUMPDEST PUSH2 0x2C5 PUSH2 0x2EB CALLDATASIZE PUSH1 0x4 PUSH2 0x1D23 JUMP JUMPDEST PUSH2 0x714 JUMP JUMPDEST PUSH2 0x29D PUSH2 0x2FE CALLDATASIZE PUSH1 0x4 PUSH2 0x1D74 JUMP JUMPDEST PUSH2 0x724 JUMP JUMPDEST PUSH2 0x2C5 PUSH2 0x311 CALLDATASIZE PUSH1 0x4 PUSH2 0x1D23 JUMP JUMPDEST PUSH2 0x7D9 JUMP JUMPDEST PUSH2 0x2C5 PUSH2 0x324 CALLDATASIZE PUSH1 0x4 PUSH2 0x1BC5 JUMP JUMPDEST PUSH1 0x68 PUSH1 0x20 SWAP1 DUP2 MSTORE PUSH1 0x0 SWAP5 DUP6 MSTORE PUSH1 0x40 DUP1 DUP7 KECCAK256 DUP3 MSTORE SWAP4 DUP6 MSTORE DUP4 DUP6 KECCAK256 DUP2 MSTORE SWAP2 DUP5 MSTORE DUP3 DUP5 KECCAK256 SWAP1 SWAP2 MSTORE DUP3 MSTORE SWAP1 KECCAK256 SLOAD PUSH1 0x1 PUSH1 0x1 PUSH1 0xA0 SHL SUB AND DUP2 JUMP JUMPDEST PUSH2 0x29D PUSH2 0x7E9 JUMP JUMPDEST PUSH2 0x369 PUSH2 0x850 JUMP JUMPDEST PUSH1 0x40 MLOAD PUSH2 0x254 SWAP2 SWAP1 PUSH2 0x1DDB JUMP JUMPDEST PUSH2 0x389 PUSH2 0x384 CALLDATASIZE PUSH1 0x4 PUSH2 0x1B72 JUMP JUMPDEST PUSH2 0x8C6 JUMP JUMPDEST PUSH1 0x40 MLOAD SWAP1 ISZERO ISZERO DUP2 MSTORE PUSH1 0x20 ADD PUSH2 0x254 JUMP JUMPDEST PUSH2 0x389 PUSH2 0x3A7 CALLDATASIZE PUSH1 0x4 PUSH2 0x1B72 JUMP JUMPDEST PUSH2 0x94B JUMP JUMPDEST PUSH2 0x2C5 PUSH2 0x3BA CALLDATASIZE PUSH1 0x4 PUSH2 0x1CFA JUMP JUMPDEST PUSH2 0x9BA JUMP JUMPDEST PUSH2 0x3D2 PUSH2 0x3CD CALLDATASIZE PUSH1 0x4 PUSH2 0x1B72 JUMP JUMPDEST PUSH2 0x9F2 JUMP JUMPDEST PUSH1 0x40 MLOAD PUSH2 0x254 SWAP2 SWAP1 PUSH2 0x1E45 JUMP JUMPDEST PUSH2 0x24A PUSH1 0x66 SLOAD DUP2 JUMP JUMPDEST PUSH1 0x33 SLOAD PUSH1 0x1 PUSH1 0x1 PUSH1 0xA0 SHL SUB AND PUSH2 0x2C5 JUMP JUMPDEST PUSH2 0x389 PUSH1 0x33 SLOAD PUSH1 0x1 PUSH1 0x1 PUSH1 0xA0 SHL SUB AND CALLER EQ SWAP1 JUMP JUMPDEST PUSH2 0x389 PUSH2 0x41B CALLDATASIZE PUSH1 0x4 PUSH2 0x1B72 JUMP JUMPDEST PUSH2 0xA9E JUMP JUMPDEST PUSH1 0x6E SLOAD PUSH2 0x24A JUMP JUMPDEST PUSH2 0x430 PUSH2 0xB1D JUMP JUMPDEST PUSH1 0x40 MLOAD PUSH2 0x254 SWAP2 SWAP1 PUSH2 0x1D8E JUMP JUMPDEST PUSH2 0x2C5 PUSH2 0x44B CALLDATASIZE PUSH1 0x4 PUSH2 0x1B72 JUMP JUMPDEST PUSH1 0x6A PUSH1 0x20 MSTORE PUSH1 0x0 SWAP1 DUP2 MSTORE PUSH1 0x40 SWAP1 KECCAK256 SLOAD PUSH1 0x1 PUSH1 0x1 PUSH1 0xA0 SHL SUB AND DUP2 JUMP JUMPDEST PUSH2 0x29D PUSH2 0x474 CALLDATASIZE PUSH1 0x4 PUSH2 0x1C7C JUMP JUMPDEST PUSH2 0xB7E JUMP JUMPDEST PUSH1 0x6F SLOAD PUSH2 0x24A JUMP JUMPDEST PUSH2 0x29D PUSH2 0x48F CALLDATASIZE PUSH1 0x4 PUSH2 0x1C7C JUMP JUMPDEST PUSH2 0xC12 JUMP JUMPDEST PUSH2 0x29D PUSH2 0x4A2 CALLDATASIZE PUSH1 0x4 PUSH2 0x1C18 JUMP JUMPDEST PUSH2 0xC3A JUMP JUMPDEST PUSH2 0x389 PUSH2 0x4B5 CALLDATASIZE PUSH1 0x4 PUSH2 0x1B72 JUMP JUMPDEST PUSH2 0xF92 JUMP JUMPDEST PUSH2 0x29D PUSH2 0x4C8 CALLDATASIZE PUSH1 0x4 PUSH2 0x1B72 JUMP JUMPDEST PUSH2 0xFFF JUMP JUMPDEST PUSH2 0x430 PUSH2 0x107B JUMP JUMPDEST PUSH2 0x24A PUSH1 0x67 SLOAD DUP2 JUMP JUMPDEST PUSH2 0x24A PUSH2 0x4EC CALLDATASIZE PUSH1 0x4 PUSH2 0x1B72 JUMP JUMPDEST PUSH2 0x10DB JUMP JUMPDEST PUSH2 0x430 PUSH2 0x4FF CALLDATASIZE PUSH1 0x4 PUSH2 0x1B72 JUMP JUMPDEST PUSH2 0x125B JUMP JUMPDEST PUSH1 0x6D SLOAD PUSH2 0x24A JUMP JUMPDEST PUSH2 0x389 PUSH2 0x51A CALLDATASIZE PUSH1 0x4 PUSH2 0x1D74 JUMP JUMPDEST PUSH2 0x12D0 JUMP JUMPDEST PUSH2 0x389 PUSH2 0x52D CALLDATASIZE PUSH1 0x4 PUSH2 0x1D74 JUMP JUMPDEST PUSH2 0x1330 JUMP JUMPDEST PUSH2 0x29D PUSH2 0x540 CALLDATASIZE PUSH1 0x4 PUSH2 0x1B72 JUMP JUMPDEST PUSH2 0x13B3 JUMP JUMPDEST PUSH2 0x3D2 PUSH2 0x553 CALLDATASIZE PUSH1 0x4 PUSH2 0x1B72 JUMP JUMPDEST PUSH2 0x13DC JUMP JUMPDEST PUSH1 0x1 PUSH1 0x1 PUSH1 0xA0 SHL SUB DUP2 AND PUSH1 0x0 SWAP1 DUP2 MSTORE PUSH1 0x69 PUSH1 0x20 MSTORE PUSH1 0x40 SWAP1 KECCAK256 SLOAD JUMPDEST SWAP2 SWAP1 POP JUMP JUMPDEST PUSH1 0x6F DUP2 DUP2 SLOAD DUP2 LT PUSH2 0x587 JUMPI PUSH1 0x0 DUP1 REVERT JUMPDEST SWAP1 PUSH1 0x0 MSTORE PUSH1 0x20 PUSH1 0x0 KECCAK256 SWAP1 PUSH1 0x20 SWAP2 DUP3 DUP3 DIV ADD SWAP2 SWAP1 MOD SWAP2 POP SLOAD SWAP1 PUSH2 0x100 EXP SWAP1 DIV PUSH1 0xFF AND DUP2 JUMP JUMPDEST PUSH2 0x5BF PUSH1 0x33 SLOAD PUSH1 0x1 PUSH1 0x1 PUSH1 0xA0 SHL SUB AND CALLER EQ SWAP1 JUMP JUMPDEST PUSH2 0x5C8 JUMPI PUSH1 0x0 DUP1 REVERT JUMPDEST PUSH1 0x66 SWAP2 SWAP1 SWAP2 SSTORE PUSH1 0x67 SSTORE JUMP JUMPDEST CALLER PUSH1 0x1 PUSH1 0x1 PUSH1 0xA0 SHL SUB DUP3 AND EQ PUSH2 0x623 JUMPI PUSH1 0x40 MLOAD PUSH3 0x461BCD PUSH1 0xE5 SHL DUP2 MSTORE PUSH1 0x20 PUSH1 0x4 DUP3 ADD MSTORE PUSH1 0x10 PUSH1 0x24 DUP3 ADD MSTORE PUSH16 0x21A121219D102327A92124A22222A717 PUSH1 0x81 SHL PUSH1 0x44 DUP3 ADD MSTORE PUSH1 0x64 ADD JUMPDEST PUSH1 0x40 MLOAD DUP1 SWAP2 SUB SWAP1 REVERT JUMPDEST PUSH2 0x62C DUP3 PUSH2 0xF92 JUMP JUMPDEST PUSH2 0x648 JUMPI PUSH1 0x40 MLOAD PUSH3 0x461BCD PUSH1 0xE5 SHL DUP2 MSTORE PUSH1 0x4 ADD PUSH2 0x61A SWAP1 PUSH2 0x1EE6 JUMP JUMPDEST PUSH1 0x1 PUSH1 0x1 PUSH1 0xA0 SHL SUB DUP3 DUP2 AND PUSH1 0x0 SWAP1 DUP2 MSTORE PUSH1 0x6A PUSH1 0x20 MSTORE PUSH1 0x40 SWAP1 KECCAK256 SLOAD AND ISZERO PUSH2 0x6BC JUMPI PUSH1 0x40 MLOAD PUSH3 0x461BCD PUSH1 0xE5 SHL DUP2 MSTORE PUSH1 0x20 PUSH1 0x4 DUP3 ADD MSTORE PUSH1 0x24 DUP1 DUP3 ADD MSTORE PUSH32 0x434242433A204C49515549444954595F544F4B454E5F414C52454144595F4558 PUSH1 0x44 DUP3 ADD MSTORE PUSH4 0x49535453 PUSH1 0xE0 SHL PUSH1 0x64 DUP3 ADD MSTORE PUSH1 0x84 ADD PUSH2 0x61A JUMP JUMPDEST PUSH1 0x1 PUSH1 0x1 PUSH1 0xA0 SHL SUB SWAP2 DUP3 AND PUSH1 0x0 SWAP1 DUP2 MSTORE PUSH1 0x6A PUSH1 0x20 MSTORE PUSH1 0x40 SWAP1 KECCAK256 DUP1 SLOAD PUSH1 0x1 PUSH1 0x1 PUSH1 0xA0 SHL SUB NOT AND SWAP2 SWAP1 SWAP3 AND OR SWAP1 SSTORE JUMP JUMPDEST PUSH1 0x6C DUP2 DUP2 SLOAD DUP2 LT PUSH2 0x6FA JUMPI PUSH1 0x0 DUP1 REVERT JUMPDEST PUSH1 0x0 SWAP2 DUP3 MSTORE PUSH1 0x20 SWAP1 SWAP2 KECCAK256 ADD SLOAD PUSH1 0x1 PUSH1 0x1 PUSH1 0xA0 SHL SUB AND SWAP1 POP DUP2 JUMP JUMPDEST PUSH1 0x6E DUP2 DUP2 SLOAD DUP2 LT PUSH2 0x6FA JUMPI PUSH1 0x0 DUP1 REVERT JUMPDEST PUSH2 0x738 PUSH1 0x33 SLOAD PUSH1 0x1 PUSH1 0x1 PUSH1 0xA0 SHL SUB AND CALLER EQ SWAP1 JUMP JUMPDEST PUSH2 0x741 JUMPI PUSH1 0x0 DUP1 REVERT JUMPDEST PUSH1 0x64 DUP2 PUSH1 0xFF AND GT ISZERO PUSH2 0x795 JUMPI PUSH1 0x40 MLOAD PUSH3 0x461BCD PUSH1 0xE5 SHL DUP2 MSTORE PUSH1 0x20 PUSH1 0x4 DUP3 ADD MSTORE PUSH1 0x18 PUSH1 0x24 DUP3 ADD MSTORE PUSH32 0x434242433A204C455645524147455F544F4F5F484947482E0000000000000000 PUSH1 0x44 DUP3 ADD MSTORE PUSH1 0x64 ADD PUSH2 0x61A JUMP JUMPDEST PUSH2 0x7A0 PUSH1 0x6F DUP3 PUSH2 0x1476 JUMP JUMPDEST PUSH1 0x40 MLOAD PUSH1 0xFF DUP3 AND DUP2 MSTORE PUSH32 0x901C0AD94E5BA2E908BEFF5989A38E07DB9377BD6F9F25679CDAD38451A2333E SWAP1 PUSH1 0x20 ADD PUSH1 0x40 MLOAD DUP1 SWAP2 SUB SWAP1 LOG1 POP JUMP JUMPDEST PUSH1 0x6D DUP2 DUP2 SLOAD DUP2 LT PUSH2 0x6FA JUMPI PUSH1 0x0 DUP1 REVERT JUMPDEST PUSH2 0x7FD PUSH1 0x33 SLOAD PUSH1 0x1 PUSH1 0x1 PUSH1 0xA0 SHL SUB AND CALLER EQ SWAP1 JUMP JUMPDEST PUSH2 0x806 JUMPI PUSH1 0x0 DUP1 REVERT JUMPDEST PUSH1 0x33 SLOAD PUSH1 0x40 MLOAD PUSH1 0x1 PUSH1 0x1 PUSH1 0xA0 SHL SUB SWAP1 SWAP2 AND SWAP1 PUSH32 0xF8DF31144D9C2F0F6B59D69B8B98ABD5459D07F2742C4DF920B25AAE33C64820 SWAP1 PUSH1 0x0 SWAP1 LOG2 PUSH1 0x33 DUP1 SLOAD PUSH1 0x1 PUSH1 0x1 PUSH1 0xA0 SHL SUB NOT AND SWAP1 SSTORE JUMP JUMPDEST PUSH1 0x60 PUSH1 0x6F DUP1 SLOAD DUP1 PUSH1 0x20 MUL PUSH1 0x20 ADD PUSH1 0x40 MLOAD SWAP1 DUP2 ADD PUSH1 0x40 MSTORE DUP1 SWAP3 SWAP2 SWAP1 DUP2 DUP2 MSTORE PUSH1 0x20 ADD DUP3 DUP1 SLOAD DUP1 ISZERO PUSH2 0x8BC JUMPI PUSH1 0x20 MUL DUP3 ADD SWAP2 SWAP1 PUSH1 0x0 MSTORE PUSH1 0x20 PUSH1 0x0 KECCAK256 SWAP1 PUSH1 0x0 SWAP1 JUMPDEST DUP3 SLOAD PUSH2 0x100 DUP4 SWAP1 EXP SWAP1 DIV PUSH1 0xFF AND DUP2 MSTORE PUSH1 0x20 PUSH1 0x1 SWAP3 DUP4 ADD DUP2 DUP2 DIV SWAP5 DUP6 ADD SWAP5 SWAP1 SWAP4 SUB SWAP1 SWAP3 MUL SWAP2 ADD DUP1 DUP5 GT PUSH2 0x88D JUMPI SWAP1 POP JUMPDEST POP POP POP POP POP SWAP1 POP SWAP1 JUMP JUMPDEST PUSH1 0x0 PUSH2 0x8DC PUSH1 0x33 SLOAD PUSH1 0x1 PUSH1 0x1 PUSH1 0xA0 SHL SUB AND CALLER EQ SWAP1 JUMP JUMPDEST PUSH2 0x8E5 JUMPI PUSH1 0x0 DUP1 REVERT JUMPDEST PUSH1 0x1 PUSH1 0x1 PUSH1 0xA0 SHL SUB DUP3 AND PUSH1 0x0 SWAP1 DUP2 MSTORE PUSH1 0x6B PUSH1 0x20 MSTORE PUSH1 0x40 DUP2 KECCAK256 PUSH2 0x906 SWAP2 PUSH2 0x1A66 JUMP JUMPDEST PUSH1 0x40 MLOAD PUSH1 0x1 PUSH1 0x1 PUSH1 0xA0 SHL SUB DUP4 AND SWAP1 PUSH32 0x3A7838AF6FBCC0D838ECFC8F9A237CC24993C55A0CE09F717CD43CDD67C20612 SWAP1 PUSH1 0x0 SWAP1 LOG2 PUSH2 0x945 PUSH1 0x6D DUP4 PUSH2 0x152A JUMP JUMPDEST SWAP3 SWAP2 POP POP JUMP JUMPDEST PUSH1 0x0 PUSH2 0x945 DUP3 PUSH1 0x6E DUP1 SLOAD DUP1 PUSH1 0x20 MUL PUSH1 0x20 ADD PUSH1 0x40 MLOAD SWAP1 DUP2 ADD PUSH1 0x40 MSTORE DUP1 SWAP3 SWAP2 SWAP1 DUP2 DUP2 MSTORE PUSH1 0x20 ADD DUP3 DUP1 SLOAD DUP1 ISZERO PUSH2 0x9A7 JUMPI PUSH1 0x20 MUL DUP3 ADD SWAP2 SWAP1 PUSH1 0x0 MSTORE PUSH1 0x20 PUSH1 0x0 KECCAK256 SWAP1 JUMPDEST DUP2 SLOAD PUSH1 0x1 PUSH1 0x1 PUSH1 0xA0 SHL SUB AND DUP2 MSTORE PUSH1 0x1 SWAP1 SWAP2 ADD SWAP1 PUSH1 0x20 ADD DUP1 DUP4 GT PUSH2 0x989 JUMPI JUMPDEST POP POP POP POP POP PUSH2 0x169C SWAP1 SWAP2 SWAP1 PUSH4 0xFFFFFFFF AND JUMP JUMPDEST PUSH1 0x69 PUSH1 0x20 MSTORE DUP2 PUSH1 0x0 MSTORE PUSH1 0x40 PUSH1 0x0 KECCAK256 DUP2 DUP2 SLOAD DUP2 LT PUSH2 0x9D6 JUMPI PUSH1 0x0 DUP1 REVERT JUMPDEST PUSH1 0x0 SWAP2 DUP3 MSTORE PUSH1 0x20 SWAP1 SWAP2 KECCAK256 ADD SLOAD PUSH1 0x1 PUSH1 0x1 PUSH1 0xA0 SHL SUB AND SWAP2 POP DUP3 SWAP1 POP JUMP JUMPDEST PUSH1 0x1 PUSH1 0x1 PUSH1 0xA0 SHL SUB DUP2 AND PUSH1 0x0 SWAP1 DUP2 MSTORE PUSH1 0x6B PUSH1 0x20 MSTORE PUSH1 0x40 SWAP1 KECCAK256 DUP1 SLOAD PUSH1 0x60 SWAP2 SWAP1 PUSH2 0xA19 SWAP1 PUSH2 0x1F57 JUMP JUMPDEST DUP1 PUSH1 0x1F ADD PUSH1 0x20 DUP1 SWAP2 DIV MUL PUSH1 0x20 ADD PUSH1 0x40 MLOAD SWAP1 DUP2 ADD PUSH1 0x40 MSTORE DUP1 SWAP3 SWAP2 SWAP1 DUP2 DUP2 MSTORE PUSH1 0x20 ADD DUP3 DUP1 SLOAD PUSH2 0xA45 SWAP1 PUSH2 0x1F57 JUMP JUMPDEST DUP1 ISZERO PUSH2 0xA92 JUMPI DUP1 PUSH1 0x1F LT PUSH2 0xA67 JUMPI PUSH2 0x100 DUP1 DUP4 SLOAD DIV MUL DUP4 MSTORE SWAP2 PUSH1 0x20 ADD SWAP2 PUSH2 0xA92 JUMP JUMPDEST DUP3 ADD SWAP2 SWAP1 PUSH1 0x0 MSTORE PUSH1 0x20 PUSH1 0x0 KECCAK256 SWAP1 JUMPDEST DUP2 SLOAD DUP2 MSTORE SWAP1 PUSH1 0x1 ADD SWAP1 PUSH1 0x20 ADD DUP1 DUP4 GT PUSH2 0xA75 JUMPI DUP3 SWAP1 SUB PUSH1 0x1F AND DUP3 ADD SWAP2 JUMPDEST POP POP POP POP POP SWAP1 POP SWAP2 SWAP1 POP JUMP JUMPDEST PUSH1 0x0 PUSH2 0xAB4 PUSH1 0x33 SLOAD PUSH1 0x1 PUSH1 0x1 PUSH1 0xA0 SHL SUB AND CALLER EQ SWAP1 JUMP JUMPDEST PUSH2 0xABD JUMPI PUSH1 0x0 DUP1 REVERT JUMPDEST PUSH1 0x1 PUSH1 0x1 PUSH1 0xA0 SHL SUB DUP3 AND PUSH1 0x0 SWAP1 DUP2 MSTORE PUSH1 0x6B PUSH1 0x20 MSTORE PUSH1 0x40 DUP2 KECCAK256 PUSH2 0xADE SWAP2 PUSH2 0x1A66 JUMP JUMPDEST PUSH1 0x40 MLOAD PUSH1 0x1 PUSH1 0x1 PUSH1 0xA0 SHL SUB DUP4 AND SWAP1 PUSH32 0x3A7838AF6FBCC0D838ECFC8F9A237CC24993C55A0CE09F717CD43CDD67C20612 SWAP1 PUSH1 0x0 SWAP1 LOG2 PUSH2 0x945 PUSH1 0x6E DUP4 PUSH2 0x152A JUMP JUMPDEST PUSH1 0x60 PUSH1 0x6D DUP1 SLOAD DUP1 PUSH1 0x20 MUL PUSH1 0x20 ADD PUSH1 0x40 MLOAD SWAP1 DUP2 ADD PUSH1 0x40 MSTORE DUP1 SWAP3 SWAP2 SWAP1 DUP2 DUP2 MSTORE PUSH1 0x20 ADD DUP3 DUP1 SLOAD DUP1 ISZERO PUSH2 0x8BC JUMPI PUSH1 0x20 MUL DUP3 ADD SWAP2 SWAP1 PUSH1 0x0 MSTORE PUSH1 0x20 PUSH1 0x0 KECCAK256 SWAP1 JUMPDEST DUP2 SLOAD PUSH1 0x1 PUSH1 0x1 PUSH1 0xA0 SHL SUB AND DUP2 MSTORE PUSH1 0x1 SWAP1 SWAP2 ADD SWAP1 PUSH1 0x20 ADD DUP1 DUP4 GT PUSH2 0xB57 JUMPI POP POP POP POP POP SWAP1 POP SWAP1 JUMP JUMPDEST PUSH2 0xB92 PUSH1 0x33 SLOAD PUSH1 0x1 PUSH1 0x1 PUSH1 0xA0 SHL SUB AND CALLER EQ SWAP1 JUMP JUMPDEST PUSH2 0xB9B JUMPI PUSH1 0x0 DUP1 REVERT JUMPDEST PUSH2 0xBA6 PUSH1 0x6D DUP5 PUSH2 0x1709 JUMP JUMPDEST PUSH1 0x1 PUSH1 0x1 PUSH1 0xA0 SHL SUB DUP4 AND PUSH1 0x0 SWAP1 DUP2 MSTORE PUSH1 0x6B PUSH1 0x20 MSTORE PUSH1 0x40 SWAP1 KECCAK256 PUSH2 0xBC9 SWAP1 DUP4 DUP4 PUSH2 0x1AA2 JUMP JUMPDEST POP DUP3 PUSH1 0x1 PUSH1 0x1 PUSH1 0xA0 SHL SUB AND PUSH32 0x57C22F474101374A849A4F8ABD1A64FF1C772D32F6EA7E00F1EB0C6EC167C133 DUP4 DUP4 PUSH1 0x40 MLOAD PUSH2 0xC05 SWAP3 SWAP2 SWAP1 PUSH2 0x1E16 JUMP JUMPDEST PUSH1 0x40 MLOAD DUP1 SWAP2 SUB SWAP1 LOG2 POP POP POP JUMP JUMPDEST PUSH2 0xC26 PUSH1 0x33 SLOAD PUSH1 0x1 PUSH1 0x1 PUSH1 0xA0 SHL SUB AND CALLER EQ SWAP1 JUMP JUMPDEST PUSH2 0xC2F JUMPI PUSH1 0x0 DUP1 REVERT JUMPDEST PUSH2 0xBA6 PUSH1 0x6E DUP5 PUSH2 0x1709 JUMP JUMPDEST CALLER PUSH1 0x1 PUSH1 0x1 PUSH1 0xA0 SHL SUB DUP3 AND EQ PUSH2 0xC85 JUMPI PUSH1 0x40 MLOAD PUSH3 0x461BCD PUSH1 0xE5 SHL DUP2 MSTORE PUSH1 0x20 PUSH1 0x4 DUP3 ADD MSTORE PUSH1 0x10 PUSH1 0x24 DUP3 ADD MSTORE PUSH16 0x21A121219D102327A92124A22222A717 PUSH1 0x81 SHL PUSH1 0x44 DUP3 ADD MSTORE PUSH1 0x64 ADD PUSH2 0x61A JUMP JUMPDEST PUSH2 0xC8E DUP6 PUSH2 0xF92 JUMP JUMPDEST PUSH2 0xCAA JUMPI PUSH1 0x40 MLOAD PUSH3 0x461BCD PUSH1 0xE5 SHL DUP2 MSTORE PUSH1 0x4 ADD PUSH2 0x61A SWAP1 PUSH2 0x1EE6 JUMP JUMPDEST PUSH2 0xCB3 DUP5 PUSH2 0x94B JUMP JUMPDEST PUSH2 0xCFF JUMPI PUSH1 0x40 MLOAD PUSH3 0x461BCD PUSH1 0xE5 SHL DUP2 MSTORE PUSH1 0x20 PUSH1 0x4 DUP3 ADD MSTORE PUSH1 0x1D PUSH1 0x24 DUP3 ADD MSTORE PUSH32 0x434242433A204E4F545F414C4C4F5745445F54524144455F544F4B454E000000 PUSH1 0x44 DUP3 ADD MSTORE PUSH1 0x64 ADD PUSH2 0x61A JUMP JUMPDEST PUSH2 0xD08 DUP4 PUSH2 0x1330 JUMP JUMPDEST PUSH2 0xD54 JUMPI PUSH1 0x40 MLOAD PUSH3 0x461BCD PUSH1 0xE5 SHL DUP2 MSTORE PUSH1 0x20 PUSH1 0x4 DUP3 ADD MSTORE PUSH1 0x1A PUSH1 0x24 DUP3 ADD MSTORE PUSH32 0x434242433A204E4F545F414C4C4F5745445F4C45564552414745000000000000 PUSH1 0x44 DUP3 ADD MSTORE PUSH1 0x64 ADD PUSH2 0x61A JUMP JUMPDEST PUSH1 0x1 PUSH1 0x1 PUSH1 0xA0 SHL SUB DUP6 DUP2 AND PUSH1 0x0 SWAP1 DUP2 MSTORE PUSH1 0x6A PUSH1 0x20 MSTORE PUSH1 0x40 SWAP1 KECCAK256 SLOAD AND PUSH2 0xDBB JUMPI PUSH1 0x40 MLOAD PUSH3 0x461BCD PUSH1 0xE5 SHL DUP2 MSTORE PUSH1 0x20 PUSH1 0x4 DUP3 ADD DUP2 SWAP1 MSTORE PUSH1 0x24 DUP3 ADD MSTORE PUSH32 0x434242433A204C49515549444954595F544F4B454E5F4E4F545F455849535453 PUSH1 0x44 DUP3 ADD MSTORE PUSH1 0x64 ADD PUSH2 0x61A JUMP JUMPDEST PUSH1 0x1 PUSH1 0x1 PUSH1 0xA0 SHL SUB DUP6 DUP2 AND PUSH1 0x0 SWAP1 DUP2 MSTORE PUSH1 0x68 PUSH1 0x20 SWAP1 DUP2 MSTORE PUSH1 0x40 DUP1 DUP4 KECCAK256 SWAP4 DUP9 AND DUP4 MSTORE SWAP3 DUP2 MSTORE DUP3 DUP3 KECCAK256 PUSH1 0xFF DUP8 AND DUP4 MSTORE SWAP1 MSTORE SWAP1 DUP2 KECCAK256 DUP2 DUP5 PUSH1 0x1 DUP2 GT ISZERO PUSH2 0xE0E JUMPI PUSH4 0x4E487B71 PUSH1 0xE0 SHL PUSH1 0x0 MSTORE PUSH1 0x21 PUSH1 0x4 MSTORE PUSH1 0x24 PUSH1 0x0 REVERT JUMPDEST PUSH1 0x1 DUP2 GT ISZERO PUSH2 0xE2D JUMPI PUSH4 0x4E487B71 PUSH1 0xE0 SHL PUSH1 0x0 MSTORE PUSH1 0x21 PUSH1 0x4 MSTORE PUSH1 0x24 PUSH1 0x0 REVERT JUMPDEST DUP2 MSTORE PUSH1 0x20 DUP2 ADD SWAP2 SWAP1 SWAP2 MSTORE PUSH1 0x40 ADD PUSH1 0x0 KECCAK256 SLOAD PUSH1 0x1 PUSH1 0x1 PUSH1 0xA0 SHL SUB AND EQ PUSH2 0xE8B JUMPI PUSH1 0x40 MLOAD PUSH3 0x461BCD PUSH1 0xE5 SHL DUP2 MSTORE PUSH1 0x20 PUSH1 0x4 DUP3 ADD MSTORE PUSH1 0x14 PUSH1 0x24 DUP3 ADD MSTORE PUSH20 0x434242433A20414C52454144595F455849535453 PUSH1 0x60 SHL PUSH1 0x44 DUP3 ADD MSTORE PUSH1 0x64 ADD PUSH2 0x61A JUMP JUMPDEST PUSH1 0x1 PUSH1 0x1 PUSH1 0xA0 SHL SUB DUP1 DUP7 AND PUSH1 0x0 SWAP1 DUP2 MSTORE PUSH1 0x68 PUSH1 0x20 SWAP1 DUP2 MSTORE PUSH1 0x40 DUP1 DUP4 KECCAK256 SWAP4 DUP9 AND DUP4 MSTORE SWAP3 DUP2 MSTORE DUP3 DUP3 KECCAK256 PUSH1 0xFF DUP8 AND DUP4 MSTORE SWAP1 MSTORE SWAP1 DUP2 KECCAK256 DUP3 SWAP2 DUP5 PUSH1 0x1 DUP2 GT ISZERO PUSH2 0xEDF JUMPI PUSH4 0x4E487B71 PUSH1 0xE0 SHL PUSH1 0x0 MSTORE PUSH1 0x21 PUSH1 0x4 MSTORE PUSH1 0x24 PUSH1 0x0 REVERT JUMPDEST PUSH1 0x1 DUP2 GT ISZERO PUSH2 0xEFE JUMPI PUSH4 0x4E487B71 PUSH1 0xE0 SHL PUSH1 0x0 MSTORE PUSH1 0x21 PUSH1 0x4 MSTORE PUSH1 0x24 PUSH1 0x0 REVERT JUMPDEST DUP2 MSTORE PUSH1 0x20 DUP1 DUP3 ADD SWAP3 SWAP1 SWAP3 MSTORE PUSH1 0x40 SWAP1 DUP2 ADD PUSH1 0x0 SWAP1 DUP2 KECCAK256 DUP1 SLOAD PUSH1 0x1 PUSH1 0x1 PUSH1 0xA0 SHL SUB SWAP6 DUP7 AND PUSH1 0x1 PUSH1 0x1 PUSH1 0xA0 SHL SUB NOT SWAP2 DUP3 AND OR SWAP1 SWAP2 SSTORE PUSH1 0x6C DUP1 SLOAD PUSH1 0x1 DUP2 DUP2 ADD SWAP1 SWAP3 SSTORE PUSH32 0x2B4A51AB505FC96A0952EFDA2BA61BCD3078D4C02C39A186EC16F21883FBE016 ADD DUP1 SLOAD SWAP8 DUP8 AND SWAP8 DUP4 AND DUP9 OR SWAP1 SSTORE SWAP10 SWAP1 SWAP5 AND DUP2 MSTORE PUSH1 0x69 DUP4 MSTORE SWAP1 DUP2 KECCAK256 DUP1 SLOAD SWAP9 DUP10 ADD DUP2 SSTORE DUP2 MSTORE KECCAK256 SWAP1 SWAP6 ADD DUP1 SLOAD SWAP1 SWAP6 AND OR SWAP1 SWAP4 SSTORE POP POP POP JUMP JUMPDEST PUSH1 0x0 PUSH2 0x945 DUP3 PUSH1 0x6D DUP1 SLOAD DUP1 PUSH1 0x20 MUL PUSH1 0x20 ADD PUSH1 0x40 MLOAD SWAP1 DUP2 ADD PUSH1 0x40 MSTORE DUP1 SWAP3 SWAP2 SWAP1 DUP2 DUP2 MSTORE PUSH1 0x20 ADD DUP3 DUP1 SLOAD DUP1 ISZERO PUSH2 0x9A7 JUMPI PUSH1 0x20 MUL DUP3 ADD SWAP2 SWAP1 PUSH1 0x0 MSTORE PUSH1 0x20 PUSH1 0x0 KECCAK256 SWAP1 DUP2 SLOAD PUSH1 0x1 PUSH1 0x1 PUSH1 0xA0 SHL SUB AND DUP2 MSTORE PUSH1 0x1 SWAP1 SWAP2 ADD SWAP1 PUSH1 0x20 ADD DUP1 DUP4 GT PUSH2 0x989 JUMPI POP POP POP POP POP PUSH2 0x169C SWAP1 SWAP2 SWAP1 PUSH4 0xFFFFFFFF AND JUMP JUMPDEST PUSH1 0x0 SLOAD PUSH2 0x100 SWAP1 DIV PUSH1 0xFF AND DUP1 PUSH2 0x1014 JUMPI POP ADDRESS EXTCODESIZE ISZERO JUMPDEST DUP1 PUSH2 0x1022 JUMPI POP PUSH1 0x0 SLOAD PUSH1 0xFF AND ISZERO JUMPDEST PUSH2 0x103E JUMPI PUSH1 0x40 MLOAD PUSH3 0x461BCD PUSH1 0xE5 SHL DUP2 MSTORE PUSH1 0x4 ADD PUSH2 0x61A SWAP1 PUSH2 0x1E98 JUMP JUMPDEST PUSH1 0x0 DUP1 SLOAD PUSH2 0xFFFF NOT DUP2 AND PUSH2 0x101 OR SWAP1 SWAP2 SSTORE PUSH2 0x100 SWAP1 DIV PUSH1 0xFF AND PUSH2 0x1060 DUP3 PUSH2 0x17A1 JUMP JUMPDEST PUSH1 0x0 DUP1 SLOAD SWAP2 ISZERO ISZERO PUSH2 0x100 MUL PUSH2 0xFF00 NOT SWAP1 SWAP3 AND SWAP2 SWAP1 SWAP2 OR SWAP1 SSTORE POP JUMP JUMPDEST PUSH1 0x60 PUSH1 0x6E DUP1 SLOAD DUP1 PUSH1 0x20 MUL PUSH1 0x20 ADD PUSH1 0x40 MLOAD SWAP1 DUP2 ADD PUSH1 0x40 MSTORE DUP1 SWAP3 SWAP2 SWAP1 DUP2 DUP2 MSTORE PUSH1 0x20 ADD DUP3 DUP1 SLOAD DUP1 ISZERO PUSH2 0x8BC JUMPI PUSH1 0x20 MUL DUP3 ADD SWAP2 SWAP1 PUSH1 0x0 MSTORE PUSH1 0x20 PUSH1 0x0 KECCAK256 SWAP1 DUP2 SLOAD PUSH1 0x1 PUSH1 0x1 PUSH1 0xA0 SHL SUB AND DUP2 MSTORE PUSH1 0x1 SWAP1 SWAP2 ADD SWAP1 PUSH1 0x20 ADD DUP1 DUP4 GT PUSH2 0xB57 JUMPI POP POP POP POP POP SWAP1 POP SWAP1 JUMP JUMPDEST PUSH1 0x0 PUSH2 0x10E6 DUP3 PUSH2 0xF92 JUMP JUMPDEST PUSH2 0x1102 JUMPI PUSH1 0x40 MLOAD PUSH3 0x461BCD PUSH1 0xE5 SHL DUP2 MSTORE PUSH1 0x4 ADD PUSH2 0x61A SWAP1 PUSH2 0x1EE6 JUMP JUMPDEST PUSH1 0x1 PUSH1 0x1 PUSH1 0xA0 SHL SUB DUP3 AND PUSH1 0x0 SWAP1 DUP2 MSTORE PUSH1 0x69 PUSH1 0x20 SWAP1 DUP2 MSTORE PUSH1 0x40 DUP1 DUP4 KECCAK256 DUP1 SLOAD DUP3 MLOAD DUP2 DUP6 MUL DUP2 ADD DUP6 ADD SWAP1 SWAP4 MSTORE DUP1 DUP4 MSTORE SWAP2 SWAP3 SWAP1 SWAP2 SWAP1 DUP4 ADD DUP3 DUP3 DUP1 ISZERO PUSH2 0x116C JUMPI PUSH1 0x20 MUL DUP3 ADD SWAP2 SWAP1 PUSH1 0x0 MSTORE PUSH1 0x20 PUSH1 0x0 KECCAK256 SWAP1 JUMPDEST DUP2 SLOAD PUSH1 0x1 PUSH1 0x1 PUSH1 0xA0 SHL SUB AND DUP2 MSTORE PUSH1 0x1 SWAP1 SWAP2 ADD SWAP1 PUSH1 0x20 ADD DUP1 DUP4 GT PUSH2 0x114E JUMPI JUMPDEST POP POP DUP4 MLOAD SWAP4 SWAP5 POP POP POP DUP2 ISZERO ISZERO SWAP1 POP PUSH2 0x1189 JUMPI PUSH1 0x0 SWAP3 POP POP POP PUSH2 0x572 JUMP JUMPDEST PUSH1 0x0 DUP1 PUSH1 0x0 JUMPDEST DUP4 DUP2 LT ISZERO PUSH2 0x1250 JUMPI DUP5 DUP2 DUP2 MLOAD DUP2 LT PUSH2 0x11B7 JUMPI PUSH4 0x4E487B71 PUSH1 0xE0 SHL PUSH1 0x0 MSTORE PUSH1 0x32 PUSH1 0x4 MSTORE PUSH1 0x24 PUSH1 0x0 REVERT JUMPDEST PUSH1 0x20 MUL PUSH1 0x20 ADD ADD MLOAD SWAP2 POP DUP2 PUSH1 0x1 PUSH1 0x1 PUSH1 0xA0 SHL SUB AND PUSH4 0x18160DDD PUSH1 0x40 MLOAD DUP2 PUSH4 0xFFFFFFFF AND PUSH1 0xE0 SHL DUP2 MSTORE PUSH1 0x4 ADD PUSH1 0x20 PUSH1 0x40 MLOAD DUP1 DUP4 SUB DUP2 DUP7 DUP1 EXTCODESIZE ISZERO DUP1 ISZERO PUSH2 0x11FA JUMPI PUSH1 0x0 DUP1 REVERT JUMPDEST POP GAS STATICCALL ISZERO DUP1 ISZERO PUSH2 0x120E JUMPI RETURNDATASIZE PUSH1 0x0 DUP1 RETURNDATACOPY RETURNDATASIZE PUSH1 0x0 REVERT JUMPDEST POP POP POP POP PUSH1 0x40 MLOAD RETURNDATASIZE PUSH1 0x1F NOT PUSH1 0x1F DUP3 ADD AND DUP3 ADD DUP1 PUSH1 0x40 MSTORE POP DUP2 ADD SWAP1 PUSH2 0x1232 SWAP2 SWAP1 PUSH2 0x1D3B JUMP JUMPDEST PUSH2 0x123C SWAP1 DUP5 PUSH2 0x1F28 JUMP JUMPDEST SWAP3 POP DUP1 PUSH2 0x1248 DUP2 PUSH2 0x1F92 JUMP JUMPDEST SWAP2 POP POP PUSH2 0x118F JUMP JUMPDEST POP SWAP1 SWAP6 SWAP5 POP POP POP POP POP JUMP JUMPDEST PUSH1 0x1 PUSH1 0x1 PUSH1 0xA0 SHL SUB DUP2 AND PUSH1 0x0 SWAP1 DUP2 MSTORE PUSH1 0x69 PUSH1 0x20 SWAP1 DUP2 MSTORE PUSH1 0x40 SWAP2 DUP3 SWAP1 KECCAK256 DUP1 SLOAD DUP4 MLOAD DUP2 DUP5 MUL DUP2 ADD DUP5 ADD SWAP1 SWAP5 MSTORE DUP1 DUP5 MSTORE PUSH1 0x60 SWAP4 SWAP3 DUP4 ADD DUP3 DUP3 DUP1 ISZERO PUSH2 0xA92 JUMPI PUSH1 0x20 MUL DUP3 ADD SWAP2 SWAP1 PUSH1 0x0 MSTORE PUSH1 0x20 PUSH1 0x0 KECCAK256 SWAP1 JUMPDEST DUP2 SLOAD PUSH1 0x1 PUSH1 0x1 PUSH1 0xA0 SHL SUB AND DUP2 MSTORE PUSH1 0x1 SWAP1 SWAP2 ADD SWAP1 PUSH1 0x20 ADD DUP1 DUP4 GT PUSH2 0x12A7 JUMPI POP POP POP POP POP SWAP1 POP SWAP2 SWAP1 POP JUMP JUMPDEST PUSH1 0x0 PUSH2 0x12E6 PUSH1 0x33 SLOAD PUSH1 0x1 PUSH1 0x1 PUSH1 0xA0 SHL SUB AND CALLER EQ SWAP1 JUMP JUMPDEST PUSH2 0x12EF JUMPI PUSH1 0x0 DUP1 REVERT JUMPDEST PUSH1 0x40 MLOAD PUSH1 0xFF DUP4 AND DUP2 MSTORE PUSH32 0x807A478EC66599A3C39CD76C43164703FBACEF18F2EDE420DE3C58E5BF54BAC9 SWAP1 PUSH1 0x20 ADD PUSH1 0x40 MLOAD DUP1 SWAP2 SUB SWAP1 LOG1 PUSH2 0x945 PUSH1 0x6F DUP4 PUSH2 0x1825 JUMP JUMPDEST PUSH1 0x0 PUSH2 0x945 DUP3 PUSH1 0x6F DUP1 SLOAD DUP1 PUSH1 0x20 MUL PUSH1 0x20 ADD PUSH1 0x40 MLOAD SWAP1 DUP2 ADD PUSH1 0x40 MSTORE DUP1 SWAP3 SWAP2 SWAP1 DUP2 DUP2 MSTORE PUSH1 0x20 ADD DUP3 DUP1 SLOAD DUP1 ISZERO PUSH2 0x13A0 JUMPI PUSH1 0x20 MUL DUP3 ADD SWAP2 SWAP1 PUSH1 0x0 MSTORE PUSH1 0x20 PUSH1 0x0 KECCAK256 SWAP1 PUSH1 0x0 SWAP1 JUMPDEST DUP3 SLOAD PUSH2 0x100 DUP4 SWAP1 EXP SWAP1 DIV PUSH1 0xFF AND DUP2 MSTORE PUSH1 0x20 PUSH1 0x1 SWAP3 DUP4 ADD DUP2 DUP2 DIV SWAP5 DUP6 ADD SWAP5 SWAP1 SWAP4 SUB SWAP1 SWAP3 MUL SWAP2 ADD DUP1 DUP5 GT PUSH2 0x1371 JUMPI SWAP1 POP JUMPDEST POP POP POP POP POP PUSH2 0x1996 SWAP1 SWAP2 SWAP1 PUSH4 0xFFFFFFFF AND JUMP JUMPDEST PUSH2 0x13C7 PUSH1 0x33 SLOAD PUSH1 0x1 PUSH1 0x1 PUSH1 0xA0 SHL SUB AND CALLER EQ SWAP1 JUMP JUMPDEST PUSH2 0x13D0 JUMPI PUSH1 0x0 DUP1 REVERT JUMPDEST PUSH2 0x13D9 DUP2 PUSH2 0x19F7 JUMP JUMPDEST POP JUMP JUMPDEST PUSH1 0x6B PUSH1 0x20 MSTORE PUSH1 0x0 SWAP1 DUP2 MSTORE PUSH1 0x40 SWAP1 KECCAK256 DUP1 SLOAD PUSH2 0x13F5 SWAP1 PUSH2 0x1F57 JUMP JUMPDEST DUP1 PUSH1 0x1F ADD PUSH1 0x20 DUP1 SWAP2 DIV MUL PUSH1 0x20 ADD PUSH1 0x40 MLOAD SWAP1 DUP2 ADD PUSH1 0x40 MSTORE DUP1 SWAP3 SWAP2 SWAP1 DUP2 DUP2 MSTORE PUSH1 0x20 ADD DUP3 DUP1 SLOAD PUSH2 0x1421 SWAP1 PUSH2 0x1F57 JUMP JUMPDEST DUP1 ISZERO PUSH2 0x146E JUMPI DUP1 PUSH1 0x1F LT PUSH2 0x1443 JUMPI PUSH2 0x100 DUP1 DUP4 SLOAD DIV MUL DUP4 MSTORE SWAP2 PUSH1 0x20 ADD SWAP2 PUSH2 0x146E JUMP JUMPDEST DUP3 ADD SWAP2 SWAP1 PUSH1 0x0 MSTORE PUSH1 0x20 PUSH1 0x0 KECCAK256 SWAP1 JUMPDEST DUP2 SLOAD DUP2 MSTORE SWAP1 PUSH1 0x1 ADD SWAP1 PUSH1 0x20 ADD DUP1 DUP4 GT PUSH2 0x1451 JUMPI DUP3 SWAP1 SUB PUSH1 0x1F AND DUP3 ADD SWAP2 JUMPDEST POP POP POP POP POP DUP2 JUMP JUMPDEST PUSH2 0x14ED DUP3 DUP1 SLOAD DUP1 PUSH1 0x20 MUL PUSH1 0x20 ADD PUSH1 0x40 MLOAD SWAP1 DUP2 ADD PUSH1 0x40 MSTORE DUP1 SWAP3 SWAP2 SWAP1 DUP2 DUP2 MSTORE PUSH1 0x20 ADD DUP3 DUP1 SLOAD DUP1 ISZERO PUSH2 0x14E2 JUMPI PUSH1 0x20 MUL DUP3 ADD SWAP2 SWAP1 PUSH1 0x0 MSTORE PUSH1 0x20 PUSH1 0x0 KECCAK256 SWAP1 PUSH1 0x0 SWAP1 JUMPDEST DUP3 SLOAD PUSH2 0x100 DUP4 SWAP1 EXP SWAP1 DIV PUSH1 0xFF AND DUP2 MSTORE PUSH1 0x20 PUSH1 0x1 SWAP3 DUP4 ADD DUP2 DUP2 DIV SWAP5 DUP6 ADD SWAP5 SWAP1 SWAP4 SUB SWAP1 SWAP3 MUL SWAP2 ADD DUP1 DUP5 GT PUSH2 0x14B3 JUMPI SWAP1 POP JUMPDEST POP POP POP POP POP DUP3 PUSH2 0x1996 JUMP JUMPDEST PUSH2 0x1526 JUMPI DUP2 SLOAD PUSH1 0x1 DUP2 ADD DUP4 SSTORE PUSH1 0x0 DUP4 DUP2 MSTORE PUSH1 0x20 SWAP1 DUP2 SWAP1 KECCAK256 SWAP1 DUP3 DIV ADD DUP1 SLOAD PUSH1 0xFF DUP1 DUP6 AND PUSH1 0x1F SWAP1 SWAP5 AND PUSH2 0x100 EXP SWAP4 DUP5 MUL SWAP4 MUL NOT AND SWAP2 SWAP1 SWAP2 OR SWAP1 SSTORE JUMPDEST POP POP JUMP JUMPDEST DUP2 SLOAD PUSH1 0x0 SWAP1 DUP2 JUMPDEST DUP2 DUP2 LT ISZERO PUSH2 0x1595 JUMPI DUP4 PUSH1 0x1 PUSH1 0x1 PUSH1 0xA0 SHL SUB AND DUP6 DUP3 DUP2 SLOAD DUP2 LT PUSH2 0x1563 JUMPI PUSH4 0x4E487B71 PUSH1 0xE0 SHL PUSH1 0x0 MSTORE PUSH1 0x32 PUSH1 0x4 MSTORE PUSH1 0x24 PUSH1 0x0 REVERT JUMPDEST PUSH1 0x0 SWAP2 DUP3 MSTORE PUSH1 0x20 SWAP1 SWAP2 KECCAK256 ADD SLOAD PUSH1 0x1 PUSH1 0x1 PUSH1 0xA0 SHL SUB AND EQ ISZERO PUSH2 0x1583 JUMPI PUSH2 0x1595 JUMP JUMPDEST DUP1 PUSH2 0x158D DUP2 PUSH2 0x1F92 JUMP JUMPDEST SWAP2 POP POP PUSH2 0x1531 JUMP JUMPDEST DUP2 DUP2 LT ISZERO PUSH2 0x1691 JUMPI PUSH2 0x15A8 PUSH1 0x1 DUP4 PUSH2 0x1F40 JUMP JUMPDEST DUP2 EQ PUSH2 0x1645 JUMPI DUP5 PUSH2 0x15BA PUSH1 0x1 DUP5 PUSH2 0x1F40 JUMP JUMPDEST DUP2 SLOAD DUP2 LT PUSH2 0x15D8 JUMPI PUSH4 0x4E487B71 PUSH1 0xE0 SHL PUSH1 0x0 MSTORE PUSH1 0x32 PUSH1 0x4 MSTORE PUSH1 0x24 PUSH1 0x0 REVERT JUMPDEST SWAP1 PUSH1 0x0 MSTORE PUSH1 0x20 PUSH1 0x0 KECCAK256 ADD PUSH1 0x0 SWAP1 SLOAD SWAP1 PUSH2 0x100 EXP SWAP1 DIV PUSH1 0x1 PUSH1 0x1 PUSH1 0xA0 SHL SUB AND DUP6 DUP3 DUP2 SLOAD DUP2 LT PUSH2 0x1616 JUMPI PUSH4 0x4E487B71 PUSH1 0xE0 SHL PUSH1 0x0 MSTORE PUSH1 0x32 PUSH1 0x4 MSTORE PUSH1 0x24 PUSH1 0x0 REVERT JUMPDEST SWAP1 PUSH1 0x0 MSTORE PUSH1 0x20 PUSH1 0x0 KECCAK256 ADD PUSH1 0x0 PUSH2 0x100 EXP DUP2 SLOAD DUP2 PUSH1 0x1 PUSH1 0x1 PUSH1 0xA0 SHL SUB MUL NOT AND SWAP1 DUP4 PUSH1 0x1 PUSH1 0x1 PUSH1 0xA0 SHL SUB AND MUL OR SWAP1 SSTORE POP JUMPDEST DUP5 DUP1 SLOAD DUP1 PUSH2 0x1663 JUMPI PUSH4 0x4E487B71 PUSH1 0xE0 SHL PUSH1 0x0 MSTORE PUSH1 0x31 PUSH1 0x4 MSTORE PUSH1 0x24 PUSH1 0x0 REVERT JUMPDEST PUSH1 0x0 DUP3 DUP2 MSTORE PUSH1 0x20 SWAP1 KECCAK256 DUP2 ADD PUSH1 0x0 NOT SWAP1 DUP2 ADD DUP1 SLOAD PUSH1 0x1 PUSH1 0x1 PUSH1 0xA0 SHL SUB NOT AND SWAP1 SSTORE ADD SWAP1 SSTORE POP PUSH1 0x1 SWAP2 POP PUSH2 0x945 SWAP1 POP JUMP JUMPDEST POP PUSH1 0x0 SWAP5 SWAP4 POP POP POP POP JUMP JUMPDEST DUP2 MLOAD PUSH1 0x0 SWAP1 DUP2 JUMPDEST DUP2 DUP2 LT ISZERO PUSH2 0x1691 JUMPI DUP4 PUSH1 0x1 PUSH1 0x1 PUSH1 0xA0 SHL SUB AND DUP6 DUP3 DUP2 MLOAD DUP2 LT PUSH2 0x16D5 JUMPI PUSH4 0x4E487B71 PUSH1 0xE0 SHL PUSH1 0x0 MSTORE PUSH1 0x32 PUSH1 0x4 MSTORE PUSH1 0x24 PUSH1 0x0 REVERT JUMPDEST PUSH1 0x20 MUL PUSH1 0x20 ADD ADD MLOAD PUSH1 0x1 PUSH1 0x1 PUSH1 0xA0 SHL SUB AND EQ ISZERO PUSH2 0x16F7 JUMPI PUSH1 0x1 SWAP3 POP POP POP PUSH2 0x945 JUMP JUMPDEST DUP1 PUSH2 0x1701 DUP2 PUSH2 0x1F92 JUMP JUMPDEST SWAP2 POP POP PUSH2 0x16A3 JUMP JUMPDEST PUSH2 0x176C DUP3 DUP1 SLOAD DUP1 PUSH1 0x20 MUL PUSH1 0x20 ADD PUSH1 0x40 MLOAD SWAP1 DUP2 ADD PUSH1 0x40 MSTORE DUP1 SWAP3 SWAP2 SWAP1 DUP2 DUP2 MSTORE PUSH1 0x20 ADD DUP3 DUP1 SLOAD DUP1 ISZERO PUSH2 0x1761 JUMPI PUSH1 0x20 MUL DUP3 ADD SWAP2 SWAP1 PUSH1 0x0 MSTORE PUSH1 0x20 PUSH1 0x0 KECCAK256 SWAP1 JUMPDEST DUP2 SLOAD PUSH1 0x1 PUSH1 0x1 PUSH1 0xA0 SHL SUB AND DUP2 MSTORE PUSH1 0x1 SWAP1 SWAP2 ADD SWAP1 PUSH1 0x20 ADD DUP1 DUP4 GT PUSH2 0x1743 JUMPI JUMPDEST POP POP POP POP POP DUP3 PUSH2 0x169C JUMP JUMPDEST PUSH2 0x1526 JUMPI DUP2 SLOAD PUSH1 0x1 DUP2 ADD DUP4 SSTORE PUSH1 0x0 DUP4 DUP2 MSTORE PUSH1 0x20 SWAP1 KECCAK256 ADD DUP1 SLOAD PUSH1 0x1 PUSH1 0x1 PUSH1 0xA0 SHL SUB DUP4 AND PUSH1 0x1 PUSH1 0x1 PUSH1 0xA0 SHL SUB NOT SWAP1 SWAP2 AND OR SWAP1 SSTORE POP POP JUMP JUMPDEST PUSH1 0x0 SLOAD PUSH2 0x100 SWAP1 DIV PUSH1 0xFF AND DUP1 PUSH2 0x17B6 JUMPI POP ADDRESS EXTCODESIZE ISZERO JUMPDEST DUP1 PUSH2 0x17C4 JUMPI POP PUSH1 0x0 SLOAD PUSH1 0xFF AND ISZERO JUMPDEST PUSH2 0x17E0 JUMPI PUSH1 0x40 MLOAD PUSH3 0x461BCD PUSH1 0xE5 SHL DUP2 MSTORE PUSH1 0x4 ADD PUSH2 0x61A SWAP1 PUSH2 0x1E98 JUMP JUMPDEST PUSH1 0x0 DUP1 SLOAD PUSH1 0x33 DUP1 SLOAD PUSH1 0x1 PUSH1 0x1 PUSH1 0xA0 SHL SUB NOT AND PUSH1 0x1 PUSH1 0x1 PUSH1 0xA0 SHL SUB SWAP5 SWAP1 SWAP5 AND SWAP4 SWAP1 SWAP4 OR SWAP1 SWAP3 SSTORE PUSH2 0xFFFF NOT DUP3 AND PUSH2 0x100 SWAP3 DUP4 SWAP1 DIV PUSH1 0xFF AND ISZERO ISZERO SWAP1 SWAP3 MUL SWAP2 SWAP1 SWAP2 OR PUSH1 0x1 OR SWAP1 SSTORE JUMP JUMPDEST DUP2 SLOAD PUSH1 0x0 SWAP1 DUP2 JUMPDEST DUP2 DUP2 LT ISZERO PUSH2 0x1895 JUMPI DUP4 PUSH1 0xFF AND DUP6 DUP3 DUP2 SLOAD DUP2 LT PUSH2 0x1858 JUMPI PUSH4 0x4E487B71 PUSH1 0xE0 SHL PUSH1 0x0 MSTORE PUSH1 0x32 PUSH1 0x4 MSTORE PUSH1 0x24 PUSH1 0x0 REVERT JUMPDEST PUSH1 0x0 SWAP2 DUP3 MSTORE PUSH1 0x20 SWAP2 DUP3 SWAP1 KECCAK256 SWAP2 DUP2 DIV SWAP1 SWAP2 ADD SLOAD PUSH1 0xFF PUSH1 0x1F SWAP1 SWAP3 AND PUSH2 0x100 EXP SWAP1 DIV AND EQ ISZERO PUSH2 0x1883 JUMPI PUSH2 0x1895 JUMP JUMPDEST DUP1 PUSH2 0x188D DUP2 PUSH2 0x1F92 JUMP JUMPDEST SWAP2 POP POP PUSH2 0x182C JUMP JUMPDEST DUP2 DUP2 LT ISZERO PUSH2 0x1691 JUMPI PUSH2 0x18A8 PUSH1 0x1 DUP4 PUSH2 0x1F40 JUMP JUMPDEST DUP2 EQ PUSH2 0x1943 JUMPI DUP5 PUSH2 0x18BA PUSH1 0x1 DUP5 PUSH2 0x1F40 JUMP JUMPDEST DUP2 SLOAD DUP2 LT PUSH2 0x18D8 JUMPI PUSH4 0x4E487B71 PUSH1 0xE0 SHL PUSH1 0x0 MSTORE PUSH1 0x32 PUSH1 0x4 MSTORE PUSH1 0x24 PUSH1 0x0 REVERT JUMPDEST SWAP1 PUSH1 0x0 MSTORE PUSH1 0x20 PUSH1 0x0 KECCAK256 SWAP1 PUSH1 0x20 SWAP2 DUP3 DUP3 DIV ADD SWAP2 SWAP1 MOD SWAP1 SLOAD SWAP1 PUSH2 0x100 EXP SWAP1 DIV PUSH1 0xFF AND DUP6 DUP3 DUP2 SLOAD DUP2 LT PUSH2 0x1918 JUMPI PUSH4 0x4E487B71 PUSH1 0xE0 SHL PUSH1 0x0 MSTORE PUSH1 0x32 PUSH1 0x4 MSTORE PUSH1 0x24 PUSH1 0x0 REVERT JUMPDEST SWAP1 PUSH1 0x0 MSTORE PUSH1 0x20 PUSH1 0x0 KECCAK256 SWAP1 PUSH1 0x20 SWAP2 DUP3 DUP3 DIV ADD SWAP2 SWAP1 MOD PUSH2 0x100 EXP DUP2 SLOAD DUP2 PUSH1 0xFF MUL NOT AND SWAP1 DUP4 PUSH1 0xFF AND MUL OR SWAP1 SSTORE POP JUMPDEST DUP5 DUP1 SLOAD DUP1 PUSH2 0x1961 JUMPI PUSH4 0x4E487B71 PUSH1 0xE0 SHL PUSH1 0x0 MSTORE PUSH1 0x31 PUSH1 0x4 MSTORE PUSH1 0x24 PUSH1 0x0 REVERT JUMPDEST PUSH1 0x1 SWAP1 SUB DUP2 DUP2 SWAP1 PUSH1 0x0 MSTORE PUSH1 0x20 PUSH1 0x0 KECCAK256 SWAP1 PUSH1 0x20 SWAP2 DUP3 DUP3 DIV ADD SWAP2 SWAP1 MOD PUSH2 0x100 EXP DUP2 SLOAD SWAP1 PUSH1 0xFF MUL NOT AND SWAP1 SSTORE SWAP1 SSTORE PUSH1 0x1 SWAP3 POP POP POP PUSH2 0x945 JUMP JUMPDEST DUP2 MLOAD PUSH1 0x0 SWAP1 DUP2 JUMPDEST DUP2 DUP2 LT ISZERO PUSH2 0x1691 JUMPI DUP4 PUSH1 0xFF AND DUP6 DUP3 DUP2 MLOAD DUP2 LT PUSH2 0x19C9 JUMPI PUSH4 0x4E487B71 PUSH1 0xE0 SHL PUSH1 0x0 MSTORE PUSH1 0x32 PUSH1 0x4 MSTORE PUSH1 0x24 PUSH1 0x0 REVERT JUMPDEST PUSH1 0x20 MUL PUSH1 0x20 ADD ADD MLOAD PUSH1 0xFF AND EQ ISZERO PUSH2 0x19E5 JUMPI PUSH1 0x1 SWAP3 POP POP POP PUSH2 0x945 JUMP JUMPDEST DUP1 PUSH2 0x19EF DUP2 PUSH2 0x1F92 JUMP JUMPDEST SWAP2 POP POP PUSH2 0x199D JUMP JUMPDEST PUSH1 0x1 PUSH1 0x1 PUSH1 0xA0 SHL SUB DUP2 AND PUSH2 0x1A0A JUMPI PUSH1 0x0 DUP1 REVERT JUMPDEST PUSH1 0x33 SLOAD PUSH1 0x40 MLOAD PUSH1 0x1 PUSH1 0x1 PUSH1 0xA0 SHL SUB DUP1 DUP5 AND SWAP3 AND SWAP1 PUSH32 0x8BE0079C531659141344CD1FD0A4F28419497F9722A3DAAFE3B4186F6B6457E0 SWAP1 PUSH1 0x0 SWAP1 LOG3 PUSH1 0x33 DUP1 SLOAD PUSH1 0x1 PUSH1 0x1 PUSH1 0xA0 SHL SUB NOT AND PUSH1 0x1 PUSH1 0x1 PUSH1 0xA0 SHL SUB SWAP3 SWAP1 SWAP3 AND SWAP2 SWAP1 SWAP2 OR SWAP1 SSTORE JUMP JUMPDEST POP DUP1 SLOAD PUSH2 0x1A72 SWAP1 PUSH2 0x1F57 JUMP JUMPDEST PUSH1 0x0 DUP3 SSTORE DUP1 PUSH1 0x1F LT PUSH2 0x1A84 JUMPI POP PUSH2 0x13D9 JUMP JUMPDEST PUSH1 0x1F ADD PUSH1 0x20 SWAP1 DIV SWAP1 PUSH1 0x0 MSTORE PUSH1 0x20 PUSH1 0x0 KECCAK256 SWAP1 DUP2 ADD SWAP1 PUSH2 0x13D9 SWAP2 SWAP1 PUSH2 0x1B26 JUMP JUMPDEST DUP3 DUP1 SLOAD PUSH2 0x1AAE SWAP1 PUSH2 0x1F57 JUMP JUMPDEST SWAP1 PUSH1 0x0 MSTORE PUSH1 0x20 PUSH1 0x0 KECCAK256 SWAP1 PUSH1 0x1F ADD PUSH1 0x20 SWAP1 DIV DUP2 ADD SWAP3 DUP3 PUSH2 0x1AD0 JUMPI PUSH1 0x0 DUP6 SSTORE PUSH2 0x1B16 JUMP JUMPDEST DUP3 PUSH1 0x1F LT PUSH2 0x1AE9 JUMPI DUP3 DUP1 ADD PUSH1 0xFF NOT DUP3 CALLDATALOAD AND OR DUP6 SSTORE PUSH2 0x1B16 JUMP JUMPDEST DUP3 DUP1 ADD PUSH1 0x1 ADD DUP6 SSTORE DUP3 ISZERO PUSH2 0x1B16 JUMPI SWAP2 DUP3 ADD JUMPDEST DUP3 DUP2 GT ISZERO PUSH2 0x1B16 JUMPI DUP3 CALLDATALOAD DUP3 SSTORE SWAP2 PUSH1 0x20 ADD SWAP2 SWAP1 PUSH1 0x1 ADD SWAP1 PUSH2 0x1AFB JUMP JUMPDEST POP PUSH2 0x1B22 SWAP3 SWAP2 POP PUSH2 0x1B26 JUMP JUMPDEST POP SWAP1 JUMP JUMPDEST JUMPDEST DUP1 DUP3 GT ISZERO PUSH2 0x1B22 JUMPI PUSH1 0x0 DUP2 SSTORE PUSH1 0x1 ADD PUSH2 0x1B27 JUMP JUMPDEST DUP1 CALLDATALOAD PUSH1 0x1 PUSH1 0x1 PUSH1 0xA0 SHL SUB DUP2 AND DUP2 EQ PUSH2 0x572 JUMPI PUSH1 0x0 DUP1 REVERT JUMPDEST DUP1 CALLDATALOAD PUSH1 0x2 DUP2 LT PUSH2 0x572 JUMPI PUSH1 0x0 DUP1 REVERT JUMPDEST DUP1 CALLDATALOAD PUSH1 0xFF DUP2 AND DUP2 EQ PUSH2 0x572 JUMPI PUSH1 0x0 DUP1 REVERT JUMPDEST PUSH1 0x0 PUSH1 0x20 DUP3 DUP5 SUB SLT ISZERO PUSH2 0x1B83 JUMPI DUP1 DUP2 REVERT JUMPDEST PUSH2 0x1B8C DUP3 PUSH2 0x1B3B JUMP JUMPDEST SWAP4 SWAP3 POP POP POP JUMP JUMPDEST PUSH1 0x0 DUP1 PUSH1 0x40 DUP4 DUP6 SUB SLT ISZERO PUSH2 0x1BA5 JUMPI DUP1 DUP2 REVERT JUMPDEST PUSH2 0x1BAE DUP4 PUSH2 0x1B3B JUMP JUMPDEST SWAP2 POP PUSH2 0x1BBC PUSH1 0x20 DUP5 ADD PUSH2 0x1B3B JUMP JUMPDEST SWAP1 POP SWAP3 POP SWAP3 SWAP1 POP JUMP JUMPDEST PUSH1 0x0 DUP1 PUSH1 0x0 DUP1 PUSH1 0x80 DUP6 DUP8 SUB SLT ISZERO PUSH2 0x1BDA JUMPI DUP2 DUP3 REVERT JUMPDEST PUSH2 0x1BE3 DUP6 PUSH2 0x1B3B JUMP JUMPDEST SWAP4 POP PUSH2 0x1BF1 PUSH1 0x20 DUP7 ADD PUSH2 0x1B3B JUMP JUMPDEST SWAP3 POP PUSH2 0x1BFF PUSH1 0x40 DUP7 ADD PUSH2 0x1B61 JUMP JUMPDEST SWAP2 POP PUSH2 0x1C0D PUSH1 0x60 DUP7 ADD PUSH2 0x1B52 JUMP JUMPDEST SWAP1 POP SWAP3 SWAP6 SWAP2 SWAP5 POP SWAP3 POP JUMP JUMPDEST PUSH1 0x0 DUP1 PUSH1 0x0 DUP1 PUSH1 0x0 PUSH1 0xA0 DUP7 DUP9 SUB SLT ISZERO PUSH2 0x1C2F JUMPI DUP1 DUP2 REVERT JUMPDEST PUSH2 0x1C38 DUP7 PUSH2 0x1B3B JUMP JUMPDEST SWAP5 POP PUSH2 0x1C46 PUSH1 0x20 DUP8 ADD PUSH2 0x1B3B JUMP JUMPDEST SWAP4 POP PUSH2 0x1C54 PUSH1 0x40 DUP8 ADD PUSH2 0x1B61 JUMP JUMPDEST SWAP3 POP PUSH2 0x1C62 PUSH1 0x60 DUP8 ADD PUSH2 0x1B52 JUMP JUMPDEST SWAP2 POP PUSH2 0x1C70 PUSH1 0x80 DUP8 ADD PUSH2 0x1B3B JUMP JUMPDEST SWAP1 POP SWAP3 SWAP6 POP SWAP3 SWAP6 SWAP1 SWAP4 POP JUMP JUMPDEST PUSH1 0x0 DUP1 PUSH1 0x0 PUSH1 0x40 DUP5 DUP7 SUB SLT ISZERO PUSH2 0x1C90 JUMPI DUP3 DUP4 REVERT JUMPDEST PUSH2 0x1C99 DUP5 PUSH2 0x1B3B JUMP JUMPDEST SWAP3 POP PUSH1 0x20 DUP5 ADD CALLDATALOAD PUSH8 0xFFFFFFFFFFFFFFFF DUP1 DUP3 GT ISZERO PUSH2 0x1CB5 JUMPI DUP4 DUP5 REVERT JUMPDEST DUP2 DUP7 ADD SWAP2 POP DUP7 PUSH1 0x1F DUP4 ADD SLT PUSH2 0x1CC8 JUMPI DUP4 DUP5 REVERT JUMPDEST DUP2 CALLDATALOAD DUP2 DUP2 GT ISZERO PUSH2 0x1CD6 JUMPI DUP5 DUP6 REVERT JUMPDEST DUP8 PUSH1 0x20 DUP3 DUP6 ADD ADD GT ISZERO PUSH2 0x1CE7 JUMPI DUP5 DUP6 REVERT JUMPDEST PUSH1 0x20 DUP4 ADD SWAP5 POP DUP1 SWAP4 POP POP POP POP SWAP3 POP SWAP3 POP SWAP3 JUMP JUMPDEST PUSH1 0x0 DUP1 PUSH1 0x40 DUP4 DUP6 SUB SLT ISZERO PUSH2 0x1D0C JUMPI DUP2 DUP3 REVERT JUMPDEST PUSH2 0x1D15 DUP4 PUSH2 0x1B3B JUMP JUMPDEST SWAP5 PUSH1 0x20 SWAP4 SWAP1 SWAP4 ADD CALLDATALOAD SWAP4 POP POP POP JUMP JUMPDEST PUSH1 0x0 PUSH1 0x20 DUP3 DUP5 SUB SLT ISZERO PUSH2 0x1D34 JUMPI DUP1 DUP2 REVERT JUMPDEST POP CALLDATALOAD SWAP2 SWAP1 POP JUMP JUMPDEST PUSH1 0x0 PUSH1 0x20 DUP3 DUP5 SUB SLT ISZERO PUSH2 0x1D4C JUMPI DUP1 DUP2 REVERT JUMPDEST POP MLOAD SWAP2 SWAP1 POP JUMP JUMPDEST PUSH1 0x0 DUP1 PUSH1 0x40 DUP4 DUP6 SUB SLT ISZERO PUSH2 0x1D65 JUMPI DUP2 DUP3 REVERT JUMPDEST POP POP DUP1 CALLDATALOAD SWAP3 PUSH1 0x20 SWAP1 SWAP2 ADD CALLDATALOAD SWAP2 POP JUMP JUMPDEST PUSH1 0x0 PUSH1 0x20 DUP3 DUP5 SUB SLT ISZERO PUSH2 0x1D85 JUMPI DUP1 DUP2 REVERT JUMPDEST PUSH2 0x1B8C DUP3 PUSH2 0x1B61 JUMP JUMPDEST PUSH1 0x20 DUP1 DUP3 MSTORE DUP3 MLOAD DUP3 DUP3 ADD DUP2 SWAP1 MSTORE PUSH1 0x0 SWAP2 SWAP1 DUP5 DUP3 ADD SWAP1 PUSH1 0x40 DUP6 ADD SWAP1 DUP5 JUMPDEST DUP2 DUP2 LT ISZERO PUSH2 0x1DCF JUMPI DUP4 MLOAD PUSH1 0x1 PUSH1 0x1 PUSH1 0xA0 SHL SUB AND DUP4 MSTORE SWAP3 DUP5 ADD SWAP3 SWAP2 DUP5 ADD SWAP2 PUSH1 0x1 ADD PUSH2 0x1DAA JUMP JUMPDEST POP SWAP1 SWAP7 SWAP6 POP POP POP POP POP POP JUMP JUMPDEST PUSH1 0x20 DUP1 DUP3 MSTORE DUP3 MLOAD DUP3 DUP3 ADD DUP2 SWAP1 MSTORE PUSH1 0x0 SWAP2 SWAP1 DUP5 DUP3 ADD SWAP1 PUSH1 0x40 DUP6 ADD SWAP1 DUP5 JUMPDEST DUP2 DUP2 LT ISZERO PUSH2 0x1DCF JUMPI DUP4 MLOAD PUSH1 0xFF AND DUP4 MSTORE SWAP3 DUP5 ADD SWAP3 SWAP2 DUP5 ADD SWAP2 PUSH1 0x1 ADD PUSH2 0x1DF7 JUMP JUMPDEST PUSH1 0x0 PUSH1 0x20 DUP3 MSTORE DUP3 PUSH1 0x20 DUP4 ADD MSTORE DUP3 DUP5 PUSH1 0x40 DUP5 ADD CALLDATACOPY DUP2 DUP4 ADD PUSH1 0x40 SWAP1 DUP2 ADD SWAP2 SWAP1 SWAP2 MSTORE PUSH1 0x1F SWAP1 SWAP3 ADD PUSH1 0x1F NOT AND ADD ADD SWAP2 SWAP1 POP JUMP JUMPDEST PUSH1 0x0 PUSH1 0x20 DUP1 DUP4 MSTORE DUP4 MLOAD DUP1 DUP3 DUP6 ADD MSTORE DUP3 JUMPDEST DUP2 DUP2 LT ISZERO PUSH2 0x1E71 JUMPI DUP6 DUP2 ADD DUP4 ADD MLOAD DUP6 DUP3 ADD PUSH1 0x40 ADD MSTORE DUP3 ADD PUSH2 0x1E55 JUMP JUMPDEST DUP2 DUP2 GT ISZERO PUSH2 0x1E82 JUMPI DUP4 PUSH1 0x40 DUP4 DUP8 ADD ADD MSTORE JUMPDEST POP PUSH1 0x1F ADD PUSH1 0x1F NOT AND SWAP3 SWAP1 SWAP3 ADD PUSH1 0x40 ADD SWAP4 SWAP3 POP POP POP JUMP JUMPDEST PUSH1 0x20 DUP1 DUP3 MSTORE PUSH1 0x2E SWAP1 DUP3 ADD MSTORE PUSH32 0x436F6E747261637420696E7374616E63652068617320616C7265616479206265 PUSH1 0x40 DUP3 ADD MSTORE PUSH14 0x195B881A5B9A5D1A585B1A5E9959 PUSH1 0x92 SHL PUSH1 0x60 DUP3 ADD MSTORE PUSH1 0x80 ADD SWAP1 JUMP JUMPDEST PUSH1 0x20 DUP1 DUP3 MSTORE PUSH1 0x22 SWAP1 DUP3 ADD MSTORE PUSH32 0x434242433A204E4F545F414C4C4F5745445F534554544C454D454E545F544F4B PUSH1 0x40 DUP3 ADD MSTORE PUSH2 0x22A7 PUSH1 0xF1 SHL PUSH1 0x60 DUP3 ADD MSTORE PUSH1 0x80 ADD SWAP1 JUMP JUMPDEST PUSH1 0x0 DUP3 NOT DUP3 GT ISZERO PUSH2 0x1F3B JUMPI PUSH2 0x1F3B PUSH2 0x1FAD JUMP JUMPDEST POP ADD SWAP1 JUMP JUMPDEST PUSH1 0x0 DUP3 DUP3 LT ISZERO PUSH2 0x1F52 JUMPI PUSH2 0x1F52 PUSH2 0x1FAD JUMP JUMPDEST POP SUB SWAP1 JUMP JUMPDEST PUSH1 0x1 DUP2 DUP2 SHR SWAP1 DUP3 AND DUP1 PUSH2 0x1F6B JUMPI PUSH1 0x7F DUP3 AND SWAP2 POP JUMPDEST PUSH1 0x20 DUP3 LT DUP2 EQ ISZERO PUSH2 0x1F8C JUMPI PUSH4 0x4E487B71 PUSH1 0xE0 SHL PUSH1 0x0 MSTORE PUSH1 0x22 PUSH1 0x4 MSTORE PUSH1 0x24 PUSH1 0x0 REVERT JUMPDEST POP SWAP2 SWAP1 POP JUMP JUMPDEST PUSH1 0x0 PUSH1 0x0 NOT DUP3 EQ ISZERO PUSH2 0x1FA6 JUMPI PUSH2 0x1FA6 PUSH2 0x1FAD JUMP JUMPDEST POP PUSH1 0x1 ADD SWAP1 JUMP JUMPDEST PUSH4 0x4E487B71 PUSH1 0xE0 SHL PUSH1 0x0 MSTORE PUSH1 0x11 PUSH1 0x4 MSTORE PUSH1 0x24 PUSH1 0x0 REVERT INVALID LOG2 PUSH5 0x6970667358 0x22 SLT KECCAK256 PUSH2 0x2BB2 GASLIMIT REVERT LOG4 CODECOPY SWAP8 JUMPDEST 0xA5 0xDC SSTORE CALLDATASIZE KECCAK256 SLOAD RETURNDATACOPY SWAP15 DUP7 0xE9 0x5F 0x23 CREATE2 0xED CALLER 0x49 PUSH19 0x8A461CC14B9464736F6C634300080300330000 "
		},
		"gasEstimates": {
			"creation": {
				"codeDepositCost": "1637000",
				"executionCost": "infinite",
				"totalCost": "infinite"
			},
			"external": {
				"addLeverage(uint8)": "infinite",
				"addSettleToken(address,string)": "infinite",
				"addTradeToken(address,string)": "infinite",
				"allCbbcs(uint256)": "2082",
				"allCbbcsForOneSettleToken(address,uint256)": "2229",
				"allCbbcsForSettleToken(address)": "infinite",
				"allCbbcsLength()": "1050",
				"allCbbcsLengthForSettleToken(address)": "infinite",
				"allowedLeveragSize()": "1048",
				"allowedLeverages(uint256)": "3730",
				"allowedSettleTokenSize()": "1025",
				"allowedSettleTokens(uint256)": "2148",
				"allowedTradeTokenSize()": "1049",
				"allowedTradeTokens(uint256)": "2104",
				"alpha_buy()": "1073",
				"alpha_sell()": "1073",
				"getAllowedLeverageList()": "infinite",
				"getAllowedSettleTokenList()": "infinite",
				"getAllowedTradeTokenList()": "infinite",
				"getCbbc(address,address,uint8,uint8)": "infinite",
				"getLiquidityToken(address)": "1370",
				"getTokenSymbol(address)": "infinite",
				"initialize(address)": "87791",
				"isAllowedLeverage(uint8)": "infinite",
				"isAllowedSettleToken(address)": "infinite",
				"isAllowedTradeToken(address)": "infinite",
				"isOwner()": "1157",
				"owner()": "1142",
				"removeLeverage(uint8)": "infinite",
				"removeSettleToken(address)": "infinite",
				"removeTradeToken(address)": "infinite",
				"renounceOwnership()": "23870",
				"setAlpha(uint256,uint256)": "41227",
				"setCbbcToken(address,address,uint8,uint8,address)": "infinite",
				"setLiquidityToken(address,address)": "infinite",
				"tokenSymbols(address)": "infinite",
				"totalLiabilitiesInCbbcForSettleToken(address)": "infinite",
				"transferOwnership(address)": "24554"
			}
		},
		"methodIdentifiers": {
			"addLeverage(uint8)": "51685876",
			"addSettleToken(address,string)": "a1983b53",
			"addTradeToken(address,string)": "a86c6bf1",
			"allCbbcs(uint256)": "3e783030",
			"allCbbcsForOneSettleToken(address,uint256)": "7f92763e",
			"allCbbcsForSettleToken(address)": "e76f19aa",
			"allCbbcsLength()": "14d5e5a7",
			"allCbbcsLengthForSettleToken(address)": "1422bac7",
			"allowedLeveragSize()": "a7dd0b66",
			"allowedLeverages(uint256)": "154abf4a",
			"allowedSettleTokenSize()": "eacadd7b",
			"allowedSettleTokens(uint256)": "661ad0cc",
			"allowedTradeTokenSize()": "93e0a071",
			"allowedTradeTokens(uint256)": "48bcef38",
			"alpha_buy()": "88e97c3c",
			"alpha_sell()": "cbd17c67",
			"getAllowedLeverageList()": "73f1c6b8",
			"getAllowedSettleTokenList()": "976847f2",
			"getAllowedTradeTokenList()": "c7598260",
			"getCbbc(address,address,uint8,uint8)": "6ac3aa42",
			"getLiquidityToken(address)": "9845e912",
			"getTokenSymbol(address)": "81a73ad5",
			"initialize(address)": "c4d66de8",
			"isAllowedLeverage(uint8)": "ed0ff2c7",
			"isAllowedSettleToken(address)": "c14bb40b",
			"isAllowedTradeToken(address)": "7f78ffc4",
			"isOwner()": "8f32d59b",
			"owner()": "8da5cb5b",
			"removeLeverage(uint8)": "ec671f1d",
			"removeSettleToken(address)": "79832635",
			"removeTradeToken(address)": "8fadeee8",
			"renounceOwnership()": "715018a6",
			"setAlpha(uint256,uint256)": "1a5863c0",
			"setCbbcToken(address,address,uint8,uint8,address)": "b5663a99",
			"setLiquidityToken(address,address)": "2657bd16",
			"tokenSymbols(address)": "fb0b2b36",
			"totalLiabilitiesInCbbcForSettleToken(address)": "dd58816b",
			"transferOwnership(address)": "f2fde38b"
		}
	},
	"abi": [
		{
			"anonymous": false,
			"inputs": [
				{
					"indexed": false,
					"internalType": "uint8",
					"name": "leverage",
					"type": "uint8"
				}
			],
			"name": "AddAllowedLeverage",
			"type": "event"
		},
		{
			"anonymous": false,
			"inputs": [
				{
					"indexed": true,
					"internalType": "address",
					"name": "token",
					"type": "address"
				},
				{
					"indexed": false,
					"internalType": "string",
					"name": "symbol",
					"type": "string"
				}
			],
			"name": "AddAllowedToken",
			"type": "event"
		},
		{
			"anonymous": false,
			"inputs": [
				{
					"indexed": true,
					"internalType": "address",
					"name": "settleToken",
					"type": "address"
				},
				{
					"indexed": true,
					"internalType": "address",
					"name": "tradeToken",
					"type": "address"
				},
				{
					"indexed": false,
					"internalType": "address",
					"name": "cbbc",
					"type": "address"
				},
				{
					"indexed": false,
					"internalType": "uint8",
					"name": "leverage",
					"type": "uint8"
				},
				{
					"indexed": false,
					"internalType": "enum ICbbcToken.CbbcType",
					"name": "cbbcType",
					"type": "uint8"
				},
				{
					"indexed": false,
					"internalType": "uint256",
					"name": "",
					"type": "uint256"
				}
			],
			"name": "CbbcCreated",
			"type": "event"
		},
		{
			"anonymous": false,
			"inputs": [
				{
					"indexed": true,
					"internalType": "address",
					"name": "settleToken",
					"type": "address"
				},
				{
					"indexed": true,
					"internalType": "address",
					"name": "liquidityToken",
					"type": "address"
				}
			],
			"name": "LiquidityTokenCreated",
			"type": "event"
		},
		{
			"anonymous": false,
			"inputs": [
				{
					"indexed": true,
					"internalType": "address",
					"name": "previousOwner",
					"type": "address"
				}
			],
			"name": "OwnershipRenounced",
			"type": "event"
		},
		{
			"anonymous": false,
			"inputs": [
				{
					"indexed": true,
					"internalType": "address",
					"name": "previousOwner",
					"type": "address"
				},
				{
					"indexed": true,
					"internalType": "address",
					"name": "newOwner",
					"type": "address"
				}
			],
			"name": "OwnershipTransferred",
			"type": "event"
		},
		{
			"anonymous": false,
			"inputs": [
				{
					"indexed": false,
					"internalType": "uint8",
					"name": "leverage",
					"type": "uint8"
				}
			],
			"name": "RemoveAllowedLeverage",
			"type": "event"
		},
		{
			"anonymous": false,
			"inputs": [
				{
					"indexed": true,
					"internalType": "address",
					"name": "token",
					"type": "address"
				}
			],
			"name": "RemoveAllowedToken",
			"type": "event"
		},
		{
			"inputs": [
				{
					"internalType": "uint8",
					"name": "leverage",
					"type": "uint8"
				}
			],
			"name": "addLeverage",
			"outputs": [],
			"stateMutability": "nonpayable",
			"type": "function"
		},
		{
			"inputs": [
				{
					"internalType": "address",
					"name": "addAddress",
					"type": "address"
				},
				{
					"internalType": "string",
					"name": "symbol",
					"type": "string"
				}
			],
			"name": "addSettleToken",
			"outputs": [],
			"stateMutability": "nonpayable",
			"type": "function"
		},
		{
			"inputs": [
				{
					"internalType": "address",
					"name": "addAddress",
					"type": "address"
				},
				{
					"internalType": "string",
					"name": "symbol",
					"type": "string"
				}
			],
			"name": "addTradeToken",
			"outputs": [],
			"stateMutability": "nonpayable",
			"type": "function"
		},
		{
			"inputs": [
				{
					"internalType": "uint256",
					"name": "",
					"type": "uint256"
				}
			],
			"name": "allCbbcs",
			"outputs": [
				{
					"internalType": "address",
					"name": "",
					"type": "address"
				}
			],
			"stateMutability": "view",
			"type": "function"
		},
		{
			"inputs": [
				{
					"internalType": "address",
					"name": "",
					"type": "address"
				},
				{
					"internalType": "uint256",
					"name": "",
					"type": "uint256"
				}
			],
			"name": "allCbbcsForOneSettleToken",
			"outputs": [
				{
					"internalType": "address",
					"name": "",
					"type": "address"
				}
			],
			"stateMutability": "view",
			"type": "function"
		},
		{
			"inputs": [
				{
					"internalType": "address",
					"name": "settleToken_",
					"type": "address"
				}
			],
			"name": "allCbbcsForSettleToken",
			"outputs": [
				{
					"internalType": "address[]",
					"name": "",
					"type": "address[]"
				}
			],
			"stateMutability": "view",
			"type": "function"
		},
		{
			"inputs": [],
			"name": "allCbbcsLength",
			"outputs": [
				{
					"internalType": "uint256",
					"name": "",
					"type": "uint256"
				}
			],
			"stateMutability": "view",
			"type": "function"
		},
		{
			"inputs": [
				{
					"internalType": "address",
					"name": "settleToken_",
					"type": "address"
				}
			],
			"name": "allCbbcsLengthForSettleToken",
			"outputs": [
				{
					"internalType": "uint256",
					"name": "",
					"type": "uint256"
				}
			],
			"stateMutability": "view",
			"type": "function"
		},
		{
			"inputs": [],
			"name": "allowedLeveragSize",
			"outputs": [
				{
					"internalType": "uint256",
					"name": "",
					"type": "uint256"
				}
			],
			"stateMutability": "view",
			"type": "function"
		},
		{
			"inputs": [
				{
					"internalType": "uint256",
					"name": "",
					"type": "uint256"
				}
			],
			"name": "allowedLeverages",
			"outputs": [
				{
					"internalType": "uint8",
					"name": "",
					"type": "uint8"
				}
			],
			"stateMutability": "view",
			"type": "function"
		},
		{
			"inputs": [],
			"name": "allowedSettleTokenSize",
			"outputs": [
				{
					"internalType": "uint256",
					"name": "",
					"type": "uint256"
				}
			],
			"stateMutability": "view",
			"type": "function"
		},
		{
			"inputs": [
				{
					"internalType": "uint256",
					"name": "",
					"type": "uint256"
				}
			],
			"name": "allowedSettleTokens",
			"outputs": [
				{
					"internalType": "address",
					"name": "",
					"type": "address"
				}
			],
			"stateMutability": "view",
			"type": "function"
		},
		{
			"inputs": [],
			"name": "allowedTradeTokenSize",
			"outputs": [
				{
					"internalType": "uint256",
					"name": "",
					"type": "uint256"
				}
			],
			"stateMutability": "view",
			"type": "function"
		},
		{
			"inputs": [
				{
					"internalType": "uint256",
					"name": "",
					"type": "uint256"
				}
			],
			"name": "allowedTradeTokens",
			"outputs": [
				{
					"internalType": "address",
					"name": "",
					"type": "address"
				}
			],
			"stateMutability": "view",
			"type": "function"
		},
		{
			"inputs": [],
			"name": "alpha_buy",
			"outputs": [
				{
					"internalType": "uint256",
					"name": "",
					"type": "uint256"
				}
			],
			"stateMutability": "view",
			"type": "function"
		},
		{
			"inputs": [],
			"name": "alpha_sell",
			"outputs": [
				{
					"internalType": "uint256",
					"name": "",
					"type": "uint256"
				}
			],
			"stateMutability": "view",
			"type": "function"
		},
		{
			"inputs": [],
			"name": "getAllowedLeverageList",
			"outputs": [
				{
					"internalType": "uint8[]",
					"name": "",
					"type": "uint8[]"
				}
			],
			"stateMutability": "view",
			"type": "function"
		},
		{
			"inputs": [],
			"name": "getAllowedSettleTokenList",
			"outputs": [
				{
					"internalType": "address[]",
					"name": "",
					"type": "address[]"
				}
			],
			"stateMutability": "view",
			"type": "function"
		},
		{
			"inputs": [],
			"name": "getAllowedTradeTokenList",
			"outputs": [
				{
					"internalType": "address[]",
					"name": "",
					"type": "address[]"
				}
			],
			"stateMutability": "view",
			"type": "function"
		},
		{
			"inputs": [
				{
					"internalType": "address",
					"name": "",
					"type": "address"
				},
				{
					"internalType": "address",
					"name": "",
					"type": "address"
				},
				{
					"internalType": "uint8",
					"name": "",
					"type": "uint8"
				},
				{
					"internalType": "enum ICbbcToken.CbbcType",
					"name": "",
					"type": "uint8"
				}
			],
			"name": "getCbbc",
			"outputs": [
				{
					"internalType": "address",
					"name": "",
					"type": "address"
				}
			],
			"stateMutability": "view",
			"type": "function"
		},
		{
			"inputs": [
				{
					"internalType": "address",
					"name": "",
					"type": "address"
				}
			],
			"name": "getLiquidityToken",
			"outputs": [
				{
					"internalType": "address",
					"name": "",
					"type": "address"
				}
			],
			"stateMutability": "view",
			"type": "function"
		},
		{
			"inputs": [
				{
					"internalType": "address",
					"name": "token",
					"type": "address"
				}
			],
			"name": "getTokenSymbol",
			"outputs": [
				{
					"internalType": "string",
					"name": "",
					"type": "string"
				}
			],
			"stateMutability": "view",
			"type": "function"
		},
		{
			"inputs": [
				{
					"internalType": "address",
					"name": "owner_",
					"type": "address"
				}
			],
			"name": "initialize",
			"outputs": [],
			"stateMutability": "nonpayable",
			"type": "function"
		},
		{
			"inputs": [
				{
					"internalType": "uint8",
					"name": "leverage",
					"type": "uint8"
				}
			],
			"name": "isAllowedLeverage",
			"outputs": [
				{
					"internalType": "bool",
					"name": "",
					"type": "bool"
				}
			],
			"stateMutability": "view",
			"type": "function"
		},
		{
			"inputs": [
				{
					"internalType": "address",
					"name": "tmpAddress",
					"type": "address"
				}
			],
			"name": "isAllowedSettleToken",
			"outputs": [
				{
					"internalType": "bool",
					"name": "",
					"type": "bool"
				}
			],
			"stateMutability": "view",
			"type": "function"
		},
		{
			"inputs": [
				{
					"internalType": "address",
					"name": "tmpAddress",
					"type": "address"
				}
			],
			"name": "isAllowedTradeToken",
			"outputs": [
				{
					"internalType": "bool",
					"name": "",
					"type": "bool"
				}
			],
			"stateMutability": "view",
			"type": "function"
		},
		{
			"inputs": [],
			"name": "isOwner",
			"outputs": [
				{
					"internalType": "bool",
					"name": "",
					"type": "bool"
				}
			],
			"stateMutability": "view",
			"type": "function"
		},
		{
			"inputs": [],
			"name": "owner",
			"outputs": [
				{
					"internalType": "address",
					"name": "",
					"type": "address"
				}
			],
			"stateMutability": "view",
			"type": "function"
		},
		{
			"inputs": [
				{
					"internalType": "uint8",
					"name": "leverage",
					"type": "uint8"
				}
			],
			"name": "removeLeverage",
			"outputs": [
				{
					"internalType": "bool",
					"name": "",
					"type": "bool"
				}
			],
			"stateMutability": "nonpayable",
			"type": "function"
		},
		{
			"inputs": [
				{
					"internalType": "address",
					"name": "removeAddress",
					"type": "address"
				}
			],
			"name": "removeSettleToken",
			"outputs": [
				{
					"internalType": "bool",
					"name": "",
					"type": "bool"
				}
			],
			"stateMutability": "nonpayable",
			"type": "function"
		},
		{
			"inputs": [
				{
					"internalType": "address",
					"name": "removeAddress",
					"type": "address"
				}
			],
			"name": "removeTradeToken",
			"outputs": [
				{
					"internalType": "bool",
					"name": "",
					"type": "bool"
				}
			],
			"stateMutability": "nonpayable",
			"type": "function"
		},
		{
			"inputs": [],
			"name": "renounceOwnership",
			"outputs": [],
			"stateMutability": "nonpayable",
			"type": "function"
		},
		{
			"inputs": [
				{
					"internalType": "uint256",
					"name": "alpha_buy_",
					"type": "uint256"
				},
				{
					"internalType": "uint256",
					"name": "alpha_sell_",
					"type": "uint256"
				}
			],
			"name": "setAlpha",
			"outputs": [],
			"stateMutability": "nonpayable",
			"type": "function"
		},
		{
			"inputs": [
				{
					"internalType": "address",
					"name": "settleToken",
					"type": "address"
				},
				{
					"internalType": "address",
					"name": "tradeToken",
					"type": "address"
				},
				{
					"internalType": "uint8",
					"name": "leverage",
					"type": "uint8"
				},
				{
					"internalType": "enum ICbbcToken.CbbcType",
					"name": "cbbcType",
					"type": "uint8"
				},
				{
					"internalType": "address",
					"name": "cbbcToken",
					"type": "address"
				}
			],
			"name": "setCbbcToken",
			"outputs": [],
			"stateMutability": "nonpayable",
			"type": "function"
		},
		{
			"inputs": [
				{
					"internalType": "address",
					"name": "settleToken",
					"type": "address"
				},
				{
					"internalType": "address",
					"name": "liquidityToken",
					"type": "address"
				}
			],
			"name": "setLiquidityToken",
			"outputs": [],
			"stateMutability": "nonpayable",
			"type": "function"
		},
		{
			"inputs": [
				{
					"internalType": "address",
					"name": "",
					"type": "address"
				}
			],
			"name": "tokenSymbols",
			"outputs": [
				{
					"internalType": "string",
					"name": "",
					"type": "string"
				}
			],
			"stateMutability": "view",
			"type": "function"
		},
		{
			"inputs": [
				{
					"internalType": "address",
					"name": "settleToken",
					"type": "address"
				}
			],
			"name": "totalLiabilitiesInCbbcForSettleToken",
			"outputs": [
				{
					"internalType": "uint256",
					"name": "",
					"type": "uint256"
				}
			],
			"stateMutability": "view",
			"type": "function"
		},
		{
			"inputs": [
				{
					"internalType": "address",
					"name": "newOwner",
					"type": "address"
				}
			],
			"name": "transferOwnership",
			"outputs": [],
			"stateMutability": "nonpayable",
			"type": "function"
		}
	]
}