{
	"data": {
		"bytecode": {
			"linkReferences": {},
			"object": "6080604052670de0b6b3a7640000609c55600160a85534801561002157600080fd5b50615085806100316000396000f3fe608060405234801561001057600080fd5b506004361061027f5760003560e01c80638da5cb5b1161015c578063c0d78655116100ce578063dd62ed3e11610087578063dd62ed3e146105a5578063ddd6f962146105de578063df896754146105e7578063e1b11da4146105fa578063f2fde38b14610621578063f887ea40146106345761027f565b8063c0d7865514610533578063c45a015514610546578063c4d66de814610559578063d505accf1461056c578063d83678ac1461057f578063d9131384146105925761027f565b80639faa3c91116101205780639faa3c91146104d6578063a3a7e7f3146104df578063a457c2d7146104f2578063a9059cbb14610505578063b1bf962d14610518578063bbb1863a146105205761027f565b80638da5cb5b1461048e5780638f32d59b1461049f578063903cd3e3146104b357806395d89b41146104c65780639d1b464a146104ce5761027f565b80633644e515116101f5578063715018a6116101b9578063715018a6146103ec57806374e14eb8146103f4578063781603761461041f5780637a43e23f1461043f5780637ecebe001461045257806384d4b4101461047b5761027f565b80633644e5151461038a5780633697c5621461039257806339509351146103a55780633c974946146103b857806370a08231146103d95761027f565b80631da24f3e116102475780631da24f3e146102f957806323b872dd1461030c5780632c86d98e1461031f5780632d54a21b1461034557806330adf81f14610358578063313ce5671461037f5761027f565b806306fdde031461028457806308a3809d146102a2578063095ea7b3146102b95780631624f6c6146102dc57806318160ddd146102f1575b600080fd5b61028c610647565b6040516102999190614c01565b60405180910390f35b6102ab609d5481565b604051908152602001610299565b6102cc6102c73660046147d2565b6106da565b6040519015158152602001610299565b6102ef6102ea36600461492c565b610735565b005b609b546102ab565b6102ab6103073660046146b2565b6107f2565b6102cc61031a366004614722565b610811565b60a75461033390600160a01b900460ff1681565b60405160ff9091168152602001610299565b6102ab6103533660046147d2565b6109b4565b6102ab7f6e71edae12b1b97f4d1f60370fef10105fa2faae0126114a169c64845d6126c981565b60355460ff16610333565b6102ab610bef565b6102ab6103a03660046147d2565b610c9b565b6102cc6103b33660046147d2565b610f44565b60a7546103cc90600160a81b900460ff1681565b6040516102999190614bf3565b6102ab6103e73660046146b2565b610fee565b6102ef611015565b60a754610407906001600160a01b031681565b6040516001600160a01b039091168152602001610299565b61028c604051806040016040528060018152602001603160f81b81525081565b6102ab61044d3660046149a1565b61107c565b6102ab6104603660046146b2565b6001600160a01b0316600090815260a0602052604090205490565b6102cc6104893660046146ea565b61142b565b6068546001600160a01b0316610407565b6102cc6068546001600160a01b0316331490565b6102ef6104c13660046147fd565b6115ae565b61028c611cdd565b6102ab611cec565b6102ab609f5481565b6102cc6104ed3660046146b2565b611d1a565b6102cc6105003660046147d2565b611e24565b6102cc6105133660046147d2565b611ee2565b6102ab611ff5565b60a454610407906001600160a01b031681565b6102ef6105413660046146b2565b61200c565b60a354610407906001600160a01b031681565b6102ef6105673660046146b2565b61207d565b6102ef61057a366004614762565b612101565b60a654610407906001600160a01b031681565b6102ef6105a0366004614889565b61233c565b6102ab6105b33660046146ea565b6001600160a01b03918216600090815260a26020908152604080832093909416825291909152205490565b6102ab609e5481565b6102ef6105f53660046146b2565b61238e565b6102ab7f8b73c3c69bb8fe3d512ecc4cf759cc79239f7b179b0ffacaa9a75d522b39400f81565b6102ef61062f3660046146b2565b61245a565b60a554610407906001600160a01b031681565b60606033805461065690614f1e565b80601f016020809104026020016040519081016040528092919081815260200182805461068290614f1e565b80156106cf5780601f106106a4576101008083540402835291602001916106cf565b820191906000526020600020905b8154815290600101906020018083116106b257829003601f168201915b505050505090505b90565b33600081815260a2602090815260408083206001600160a01b03871680855292528083208590555191929091600080516020615030833981519152906107239086815260200190565b60405180910390a35060015b92915050565b600054610100900460ff168061074a5750303b155b80610758575060005460ff16155b61077d5760405162461bcd60e51b815260040161077490614cbe565b60405180910390fd5b6000805461ffff19811661010117909155835161010090910460ff16906107ab9060339060208701906145c8565b5082516107bf9060349060208601906145c8565b506035805460ff90931660ff1990931692909217909155600080549115156101000261ff00199092169190911790555050565b6001600160a01b038116600090815260a160205260409020545b919050565b6000826001600160a01b03811661083a5760405162461bcd60e51b815260040161077490614c7c565b73eb31973e0febf3e3d7058234a5ebbae1ab4b8c236001600160a01b03821614156108775760405162461bcd60e51b815260040161077490614c34565b6001600160a01b038516600090815260a260209081526040808320338452909152902054600019146108f7576001600160a01b038516600090815260a2602090815260408083203384529091529020546108d2908490614ed7565b6001600160a01b038616600090815260a2602090815260408083203384529091529020555b6000609c54846109079190614eb8565b6001600160a01b038716600090815260a1602052604090205490915061092e908290614ed7565b6001600160a01b03808816600090815260a16020526040808220939093559087168152205461095e908290614d65565b6001600160a01b03808716600081815260a160205260409081902093909355915190881690600080516020615010833981519152906109a09088815260200190565b60405180910390a350600195945050505050565b600060a8546001146109f75760405162461bcd60e51b815260206004820152600c60248201526b10d09090ce881313d0d2d15160a21b6044820152606401610774565b600060a85560a5546001600160a01b03163314610a495760405162461bcd60e51b815260206004820152601060248201526f21a121219d102727aa2fa927aaaa22a960811b6044820152606401610774565b610a533083612483565b905060008111610ab15760405162461bcd60e51b8152602060048201526024808201527f434242433a20494e53554646494349454e545f534554544c455f544f4b454e5f60448201526327aaaa1760e11b6064820152608401610774565b60a35460a754604051634c22f48960e11b81526001600160a01b0391821660048201526000929190911690639845e9129060240160206040518083038186803b158015610afd57600080fd5b505afa158015610b11573d6000803e3d6000fd5b505050506040513d601f19601f82011682018060405250810190610b3591906146ce565b9050610b41308461298b565b60405163ce2d30dd60e01b81526001600160a01b0385811660048301526024820184905282169063ce2d30dd90604401600060405180830381600087803b158015610b8b57600080fd5b505af1158015610b9f573d6000803e3d6000fd5b50506040518481526001600160a01b03871692503391507fdbdf9b8e4b75e75b162d151ec8fc7f0561cabab5fcccfa2600be62223e4300c49060200160405180910390a350600160a85592915050565b6000467f8b73c3c69bb8fe3d512ecc4cf759cc79239f7b179b0ffacaa9a75d522b39400f610c1b610647565b805160209182012060408051808201825260018152603160f81b90840152805192830193909352918101919091527fc89efdaa54c0f20c7adf612882df0950f5a951637e0307cdcb4c672f298b8bc66060820152608081018290523060a082015260c0016040516020818303038152906040528051906020012091505090565b600060a854600114610cde5760405162461bcd60e51b815260206004820152600c60248201526b10d09090ce881313d0d2d15160a21b6044820152606401610774565b600060a85560a5546001600160a01b03163314610d305760405162461bcd60e51b815260206004820152601060248201526f21a121219d102727aa2fa927aaaa22a960811b6044820152606401610774565b609b54610e855742609d5560a45460408051630c12c2a560e31b815290516001600160a01b0390921691636096152891600480820192602092909190829003018186803b158015610d8057600080fd5b505afa158015610d94573d6000803e3d6000fd5b505050506040513d601f19601f82011682018060405250810190610db891906146ce565b60a6546040516341976e0960e01b81526001600160a01b0391821660048201529116906341976e0990602401604080518083038186803b158015610dfb57600080fd5b505afa158015610e0f573d6000803e3d6000fd5b505050506040513d601f19601f82011682018060405250810190610e3391906149c2565b50609e819055610e855760405162461bcd60e51b815260206004820152601a60248201527f434242433a20494c4c4547414c5f54524144455f50524943452e0000000000006044820152606401610774565b610e8f3083612a12565b905060008111610eec5760405162461bcd60e51b815260206004820152602260248201527f434242433a20494e53554646494349454e545f434242435f544f4b454e5f4f556044820152612a1760f11b6064820152608401610774565b610ef68382612d18565b826001600160a01b03167f0f6798a560793a54c3bcfe86a93cde1e73087d944c0ea20544137d412139688582604051610f3191815260200190565b60405180910390a2600160a85592915050565b33600090815260a2602090815260408083206001600160a01b038616845290915281205460001914610fa95733600090815260a2602090815260408083206001600160a01b038716845290915281208054849290610fa3908490614d65565b90915550505b33600081815260a2602090815260408083206001600160a01b038816808552908352928190205490519081529192916000805160206150308339815191529101610723565b609c546001600160a01b038216600090815260a16020526040812054909161072f91614d7d565b6110296068546001600160a01b0316331490565b61103257600080fd5b6068546040516001600160a01b03909116907ff8df31144d9c2f0f6b59d69b8b98abd5459d07f2742c4df920b25aae33c6482090600090a2606880546001600160a01b0319169055565b60a4546000906001600160a01b031633146110d95760405162461bcd60e51b815260206004820152601760248201527f434242433a204e4f545f5245424153455f504f4c4943590000000000000000006044820152606401610774565b816112385742609d5560a45460408051630c12c2a560e31b815290516001600160a01b0390921691636096152891600480820192602092909190829003018186803b15801561112757600080fd5b505afa15801561113b573d6000803e3d6000fd5b505050506040513d601f19601f8201168201806040525081019061115f91906146ce565b60a6546040516341976e0960e01b81526001600160a01b0391821660048201529116906341976e0990602401604080518083038186803b1580156111a257600080fd5b505afa1580156111b6573d6000803e3d6000fd5b505050506040513d601f19601f820116820180604052508101906111da91906149c2565b50609e819055609d54609b5460405186937fa9219328b62d2057317e0a7d7634032c7caca3f5b8230d51b25e957efc67dbf493611227939083526020830191909152604082015260600190565b60405180910390a250609b5461072f565b609b54600090818412156112605761124f84612d95565b6112599082614ed7565b9150611286565b61126a8482614d65565b91506001600160801b03821115611286576001600160801b0391505b8181609c546112959190614eb8565b61129f9190614d7d565b609c556112b56001600160801b03600019614d7d565b609c5411156112d5576112d16001600160801b03600019614d7d565b609c555b609b82905542609d5560a45460408051630c12c2a560e31b815290516001600160a01b0390921691636096152891600480820192602092909190829003018186803b15801561132357600080fd5b505afa158015611337573d6000803e3d6000fd5b505050506040513d601f19601f8201168201806040525081019061135b91906146ce565b60a6546040516341976e0960e01b81526001600160a01b0391821660048201529116906341976e0990602401604080518083038186803b15801561139e57600080fd5b505afa1580156113b2573d6000803e3d6000fd5b505050506040513d601f19601f820116820180604052508101906113d691906149c2565b50609e819055609d5460408051918252602082019290925290810183905285907fa9219328b62d2057317e0a7d7634032c7caca3f5b8230d51b25e957efc67dbf49060600160405180910390a2509392505050565b6000816001600160a01b0381166114545760405162461bcd60e51b815260040161077490614c7c565b73eb31973e0febf3e3d7058234a5ebbae1ab4b8c236001600160a01b03821614156114915760405162461bcd60e51b815260040161077490614c34565b6001600160a01b038416600090815260a16020526040812054609c549091906114ba9083614d7d565b6001600160a01b038716600090815260a2602090815260408083203384529091529020549091506000191461153d576001600160a01b038616600090815260a260209081526040808320338452909152902054611518908290614ed7565b6001600160a01b038716600090815260a2602090815260408083203384529091529020555b6001600160a01b03808716600090815260a160205260408082208290559187168152205461156c908390614d65565b6001600160a01b03808716600081815260a160205260409081902093909355915190881690600080516020615010833981519152906109a09085815260200190565b600054610100900460ff16806115c35750303b155b806115d1575060005460ff16155b6115ed5760405162461bcd60e51b815260040161077490614cbe565b6000805461ffff198116610101178255610100900460ff1690606090819084600181111561162b57634e487b7160e01b600052602160045260246000fd5b14156118885761163d8560ff16612dbf565b604051637d85959b60e11b81526001600160a01b0388811660048301528a169063fb0b2b369060240160006040518083038186803b15801561167e57600080fd5b505afa158015611692573d6000803e3d6000fd5b505050506040513d6000823e601f3d908101601f191682016040526116ba91908101906148b9565b604051637d85959b60e11b81526001600160a01b038a811660048301528b169063fb0b2b369060240160006040518083038186803b1580156116fb57600080fd5b505afa15801561170f573d6000803e3d6000fd5b505050506040513d6000823e601f3d908101601f1916820160405261173791908101906148b9565b60405160200161174993929190614ac6565b60405160208183030381529060405291506117668560ff16612dbf565b604051637d85959b60e11b81526001600160a01b0388811660048301528a169063fb0b2b369060240160006040518083038186803b1580156117a757600080fd5b505afa1580156117bb573d6000803e3d6000fd5b505050506040513d6000823e601f3d908101601f191682016040526117e391908101906148b9565b604051637d85959b60e11b81526001600160a01b038a811660048301528b169063fb0b2b369060240160006040518083038186803b15801561182457600080fd5b505afa158015611838573d6000803e3d6000fd5b505050506040513d6000823e601f3d908101601f1916820160405261186091908101906148b9565b60405160200161187293929190614b37565b6040516020818303038152906040529050611b2c565b60018460018111156118aa57634e487b7160e01b600052602160045260246000fd5b1415611af1576118bc8560ff16612dbf565b604051637d85959b60e11b81526001600160a01b0388811660048301528a169063fb0b2b369060240160006040518083038186803b1580156118fd57600080fd5b505afa158015611911573d6000803e3d6000fd5b505050506040513d6000823e601f3d908101601f1916820160405261193991908101906148b9565b604051637d85959b60e11b81526001600160a01b038a811660048301528b169063fb0b2b369060240160006040518083038186803b15801561197a57600080fd5b505afa15801561198e573d6000803e3d6000fd5b505050506040513d6000823e601f3d908101601f191682016040526119b691908101906148b9565b6040516020016119c893929190614a66565b60405160208183030381529060405291506119e58560ff16612dbf565b604051637d85959b60e11b81526001600160a01b0388811660048301528a169063fb0b2b369060240160006040518083038186803b158015611a2657600080fd5b505afa158015611a3a573d6000803e3d6000fd5b505050506040513d6000823e601f3d908101601f19168201604052611a6291908101906148b9565b604051637d85959b60e11b81526001600160a01b038a811660048301528b169063fb0b2b369060240160006040518083038186803b158015611aa357600080fd5b505afa158015611ab7573d6000803e3d6000fd5b505050506040513d6000823e601f3d908101601f19168201604052611adf91908101906148b9565b60405160200161187293929190614a23565b60405162461bcd60e51b815260206004820152601060248201526f434242433a2057524f4e475f5459504560801b6044820152606401610774565b611b3882826012610735565b611b413361207d565b60a380546001600160a01b03199081166001600160a01b038b81169190911790925560a7805460a680549093168a8516179092559189166001600160a81b031990911617600160a01b60ff8816021780825585919060ff60a81b1916600160a81b836001811115611bc257634e487b7160e01b600052602160045260246000fd5b021790555060a75460a65460405163b5663a9960e01b81526001600160a01b03808c169363b5663a9993611c199382841693919091169160ff600160a01b8204811692600160a81b90920416903090600401614b8a565b600060405180830381600087803b158015611c3357600080fd5b505af1158015611c47573d6000803e3d6000fd5b505060a65460a7546040516001600160a01b03928316945091811692507fca8075cefdc80bb9531729cb4dfb80aaa9cb4932af090e52cfbddd81c187ad8e91611ca691309160ff600160a01b8304811692600160a81b90041690614bcd565b60405180910390a3505060a7805461ffff60b01b19169055600080549115156101000261ff00199092169190911790555050505050565b60606034805461065690614f1e565b6000609b5460001415611d0c57611d056012600a614dd7565b90506106d7565b611d05306000806000612f55565b6000816001600160a01b038116611d435760405162461bcd60e51b815260040161077490614c7c565b73eb31973e0febf3e3d7058234a5ebbae1ab4b8c236001600160a01b0382161415611d805760405162461bcd60e51b815260040161077490614c34565b33600090815260a16020526040812054609c54909190611da09083614d7d565b33600090815260a160205260408082208290556001600160a01b0388168252902054909150611dd0908390614d65565b6001600160a01b038616600081815260a1602052604090819020929092559051339060008051602061501083398151915290611e0f9085815260200190565b60405180910390a36001935050505b50919050565b33600090815260a2602090815260408083206001600160a01b03861684529091528120546000198114611e905780831015611e6857611e638382614ed7565b611e6b565b60005b33600090815260a2602090815260408083206001600160a01b03891684529091529020555b33600081815260a2602090815260408083206001600160a01b03891680855290835292819020549051908152919291600080516020615030833981519152910160405180910390a35060019392505050565b6000826001600160a01b038116611f0b5760405162461bcd60e51b815260040161077490614c7c565b73eb31973e0febf3e3d7058234a5ebbae1ab4b8c236001600160a01b0382161415611f485760405162461bcd60e51b815260040161077490614c34565b6000609c5484611f589190614eb8565b33600090815260a16020526040902054909150611f76908290614ed7565b33600090815260a16020526040808220929092556001600160a01b03871681522054611fa3908290614d65565b6001600160a01b038616600081815260a1602052604090819020929092559051339060008051602061501083398151915290611fe29088815260200190565b60405180910390a3506001949350505050565b6000609c54609b546120079190614eb8565b905090565b6120206068546001600160a01b0316331490565b61202957600080fd5b60a580546001600160a01b0319166001600160a01b0383169081179091556040519081527e4a100c1311e1c30d22c9ee16306a164be79db67aedef8b90ffc4d244cd003a906020015b60405180910390a150565b600054610100900460ff16806120925750303b155b806120a0575060005460ff16155b6120bc5760405162461bcd60e51b815260040161077490614cbe565b60008054606880546001600160a01b0319166001600160a01b03949094169390931790925561ffff1982166101009283900460ff161515909202919091176001179055565b8342111561214a5760405162461bcd60e51b8152602060048201526016602482015275434242433a3a7065726d69743a20455850495245442160501b6044820152606401610774565b6001600160a01b03878116600081815260a0602081815260408084205481517f6e71edae12b1b97f4d1f60370fef10105fa2faae0126114a169c64845d6126c99381019390935290820194909452938a16606085015260808401899052830182905260c08301879052909160e00160405160208183030381529060405280519060200120905060006121da610bef565b60405161190160f01b602082015260228101919091526042810183905260620160408051601f1981840301815282825280516020918201206000845290830180835281905260ff8916918301919091526060820187905260808201869052915060019060a0016020604051602081039080840390855afa158015612262573d6000803e3d6000fd5b505050602060405103516001600160a01b03168a6001600160a01b0316146122cc5760405162461bcd60e51b815260206004820152601760248201527f434242433a20494e56414c49445f5349474e41545552450000000000000000006044820152606401610774565b6122d7836001614d65565b6001600160a01b038b8116600081815260a0602090815260408083209590955560a28152848220938e16808352938152908490208c905592518b815291929091600080516020615030833981519152910160405180910390a350505050505050505050565b6123506068546001600160a01b0316331490565b61235957600080fd5b609f8190556040518181527f72263207fb67ff82292d08dcd9e132bfd605a952099610b513982c70b38616e390602001612072565b6123a26068546001600160a01b0316331490565b806123b55750336001600160a01b038216145b61240c5760405162461bcd60e51b815260206004820152602260248201527f434242433a205345545f5245424153455f504f4c4943595f464f524249444445604482015261271760f11b6064820152608401610774565b60a480546001600160a01b0319166001600160a01b0383169081179091556040519081527f1b2a6eed04caac6e24de29faf0d56a1000f33980e10f682e1a01e7caa097e7ed90602001612072565b61246e6068546001600160a01b0316331490565b61247757600080fd5b61248081613a46565b50565b600080836001600160a01b031663bbb1863a6040518163ffffffff1660e01b815260040160206040518083038186803b1580156124bf57600080fd5b505afa1580156124d3573d6000803e3d6000fd5b505050506040513d601f19601f820116820180604052508101906124f791906146ce565b6001600160a01b031663609615286040518163ffffffff1660e01b815260040160206040518083038186803b15801561252f57600080fd5b505afa158015612543573d6000803e3d6000fd5b505050506040513d601f19601f8201168201806040525081019061256791906146ce565b6001600160a01b03166341976e09856001600160a01b031663d83678ac6040518163ffffffff1660e01b815260040160206040518083038186803b1580156125ae57600080fd5b505afa1580156125c2573d6000803e3d6000fd5b505050506040513d601f19601f820116820180604052508101906125e691906146ce565b6040516001600160e01b031960e084901b1681526001600160a01b039091166004820152602401604080518083038186803b15801561262457600080fd5b505afa158015612638573d6000803e3d6000fd5b505050506040513d601f19601f8201168201806040525081019061265c91906149c2565b915043905061266c60c883614d65565b10156126ba5760405162461bcd60e51b815260206004820152601b60248201527f434242433a20544f4b454e5f50524943455f4f555444415445442e00000000006044820152606401610774565b6000846001600160a01b03166374e14eb86040518163ffffffff1660e01b815260040160206040518083038186803b1580156126f557600080fd5b505afa158015612709573d6000803e3d6000fd5b505050506040513d601f19601f8201168201806040525081019061272d91906146ce565b90506000856001600160a01b0316632c86d98e6040518163ffffffff1660e01b815260040160206040518083038186803b15801561276a57600080fd5b505afa15801561277e573d6000803e3d6000fd5b505050506040513d601f19601f820116820180604052508101906127a291906149e5565b60ff1690506000866001600160a01b031663c45a01556040518163ffffffff1660e01b815260040160206040518083038186803b1580156127e257600080fd5b505afa1580156127f6573d6000803e3d6000fd5b505050506040513d601f19601f8201168201806040525081019061281a91906146ce565b604051634c22f48960e11b81526001600160a01b0385811660048301529190911690639845e9129060240160206040518083038186803b15801561285d57600080fd5b505afa158015612871573d6000803e3d6000fd5b505050506040513d601f19601f8201168201806040525081019061289591906146ce565b905060006128a7886000896001612f55565b905060006127106128b9856003614eb8565b6128c590612710614ed7565b670de0b6b3a76400006128d8858c614eb8565b6128e29190614d7d565b6128ec9190614eb8565b6128f69190614d7d565b6040516370a0823160e01b81526001600160a01b03858116600483015291925061297e918391908816906370a082319060240160206040518083038186803b15801561294157600080fd5b505afa158015612955573d6000803e3d6000fd5b505050506040513d601f19601f8201168201806040525081019061297991906148a1565b613ab5565b9998505050505050505050565b609c546129989082614eb8565b6001600160a01b038316600090815260a16020526040812080549091906129c0908490614ed7565b9250508190555080609b60008282546129d99190614ed7565b90915550506040518181526000906001600160a01b03841690600080516020615010833981519152906020015b60405180910390a35050565b600080836001600160a01b031663bbb1863a6040518163ffffffff1660e01b815260040160206040518083038186803b158015612a4e57600080fd5b505afa158015612a62573d6000803e3d6000fd5b505050506040513d601f19601f82011682018060405250810190612a8691906146ce565b6001600160a01b031663609615286040518163ffffffff1660e01b815260040160206040518083038186803b158015612abe57600080fd5b505afa158015612ad2573d6000803e3d6000fd5b505050506040513d601f19601f82011682018060405250810190612af691906146ce565b6001600160a01b03166341976e09856001600160a01b031663d83678ac6040518163ffffffff1660e01b815260040160206040518083038186803b158015612b3d57600080fd5b505afa158015612b51573d6000803e3d6000fd5b505050506040513d601f19601f82011682018060405250810190612b7591906146ce565b6040516001600160e01b031960e084901b1681526001600160a01b039091166004820152602401604080518083038186803b158015612bb357600080fd5b505afa158015612bc7573d6000803e3d6000fd5b505050506040513d601f19601f82011682018060405250810190612beb91906149c2565b9150439050612bfb60c883614d65565b1015612c495760405162461bcd60e51b815260206004820152601b60248201527f434242433a2054524144455f50524943455f4f555444415445442e00000000006044820152606401610774565b6000846001600160a01b0316632c86d98e6040518163ffffffff1660e01b815260040160206040518083038186803b158015612c8457600080fd5b505afa158015612c98573d6000803e3d6000fd5b505050506040513d601f19601f82011682018060405250810190612cbc91906149e5565b60ff1690506000612cd08686600080612f55565b905080612cde836003614eb8565b612cea90612710614ed7565b612cf49087614eb8565b612d0490655af3107a4000614eb8565b612d0e9190614d7d565b9695505050505050565b80609b6000828254612d2a9190614d65565b9091555050609c54612d3c9082614eb8565b6001600160a01b038316600090815260a1602052604081208054909190612d64908490614d65565b90915550506040518181526001600160a01b0383169060009060008051602061501083398151915290602001612a06565b6000600160ff1b821415612da857600080fd5b60008212612db6578161072f565b61072f82614f82565b60408051606480825260a08201909252606091906000908260208201818036833701905050905060005b8415612e61576000612dfc600a87614f6e565b9050612e09600a87614d7d565b9550612e16816030614d65565b60f81b8383612e2481614f53565b945081518110612e4457634e487b7160e01b600052603260045260246000fd5b60200101906001600160f81b031916908160001a90535050612de9565b60008167ffffffffffffffff811115612e8a57634e487b7160e01b600052604160045260246000fd5b6040519080825280601f01601f191660200182016040528015612eb4576020820181803683370190505b50905060005b82811015612f4b578381612ecf600186614ed7565b612ed99190614ed7565b81518110612ef757634e487b7160e01b600052603260045260246000fd5b602001015160f81c60f81b828281518110612f2257634e487b7160e01b600052603260045260246000fd5b60200101906001600160f81b031916908160001a90535080612f4381614f53565b915050612eba565b5095945050505050565b6000831580612f62575082155b612fba5760405162461bcd60e51b8152602060048201526024808201527f434242433a204255595f414e445f53454c4c5f41545f5448455f53414d455f5460448201526324a6a29760e11b6064820152608401610774565b612fe56040518060800160405280600081526020016000815260200160008152602001600081525090565b6130256040518060e00160405280600081526020016000815260200160008152602001600081526020016000815260200160008152602001600081525090565b6040805160c081018252600080825260208201819052918101829052606081018290526080810182905260a0810191909152876001600160a01b031663c45a01556040518163ffffffff1660e01b815260040160206040518083038186803b15801561309057600080fd5b505afa1580156130a4573d6000803e3d6000fd5b505050506040513d601f19601f820116820180604052508101906130c891906146ce565b6001600160a01b03908116825260408051630e9c29d760e31b81529051918a16916374e14eb891600480820192602092909190829003018186803b15801561310f57600080fd5b505afa158015613123573d6000803e3d6000fd5b505050506040513d601f19601f8201168201806040525081019061314791906146ce565b81602001906001600160a01b031690816001600160a01b031681525050876001600160a01b031663d83678ac6040518163ffffffff1660e01b815260040160206040518083038186803b15801561319d57600080fd5b505afa1580156131b1573d6000803e3d6000fd5b505050506040513d601f19601f820116820180604052508101906131d591906146ce565b81604001906001600160a01b031690816001600160a01b031681525050876001600160a01b0316632c86d98e6040518163ffffffff1660e01b815260040160206040518083038186803b15801561322b57600080fd5b505afa15801561323f573d6000803e3d6000fd5b505050506040513d601f19601f8201168201806040525081019061326391906149e5565b60ff16816060018181525050876001600160a01b0316633c9749466040518163ffffffff1660e01b815260040160206040518083038186803b1580156132a857600080fd5b505afa1580156132bc573d6000803e3d6000fd5b505050506040513d601f19601f820116820180604052508101906132e0919061486d565b8160800190600181111561330457634e487b7160e01b600052602160045260246000fd5b9081600181111561332557634e487b7160e01b600052602160045260246000fd5b81525050876001600160a01b031663bbb1863a6040518163ffffffff1660e01b815260040160206040518083038186803b15801561336257600080fd5b505afa158015613376573d6000803e3d6000fd5b505050506040513d601f19601f8201168201806040525081019061339a91906146ce565b6001600160a01b031663609615286040518163ffffffff1660e01b815260040160206040518083038186803b1580156133d257600080fd5b505afa1580156133e6573d6000803e3d6000fd5b505050506040513d601f19601f8201168201806040525081019061340a91906146ce565b8160a001906001600160a01b031690816001600160a01b031681525050876001600160a01b031663ddd6f9626040518163ffffffff1660e01b815260040160206040518083038186803b15801561346057600080fd5b505afa158015613474573d6000803e3d6000fd5b505050506040513d601f19601f8201168201806040525081019061349891906148a1565b836000018181525050876001600160a01b03166308a3809d6040518163ffffffff1660e01b815260040160206040518083038186803b1580156134da57600080fd5b505afa1580156134ee573d6000803e3d6000fd5b505050506040513d601f19601f8201168201806040525081019061351291906148a1565b602084015242606084015260a081015160408083015190516341976e0960e01b81526001600160a01b0391821660048201529116906341976e0990602401604080518083038186803b15801561356757600080fd5b505afa15801561357b573d6000803e3d6000fd5b505050506040513d601f19601f8201168201806040525081019061359f91906149c2565b50604084018190526135f35760405162461bcd60e51b815260206004820152601a60248201527f434242433a20494c4c4547414c5f54524144455f50524943452e0000000000006044820152606401610774565b825161360b5760408301518352606083015160208401525b876001600160a01b0316639faa3c916040518163ffffffff1660e01b815260040160206040518083038186803b15801561364457600080fd5b505afa158015613658573d6000803e3d6000fd5b505050506040513d601f19601f8201168201806040525081019061367c91906148a1565b82600001818152505080600001516001600160a01b03166388e97c3c6040518163ffffffff1660e01b815260040160206040518083038186803b1580156136c257600080fd5b505afa1580156136d6573d6000803e3d6000fd5b505050506040513d601f19601f820116820180604052508101906136fa91906148a1565b82602001818152505080600001516001600160a01b031663cbd17c676040518163ffffffff1660e01b815260040160206040518083038186803b15801561374057600080fd5b505afa158015613754573d6000803e3d6000fd5b505050506040513d601f19601f8201168201806040525081019061377891906148a1565b60408084019190915260a0820151828201519151634094f10b60e01b81526001600160a01b039283166004820152911690634094f10b9060240160206040518083038186803b1580156137ca57600080fd5b505afa1580156137de573d6000803e3d6000fd5b505050506040513d601f19601f8201168201806040525081019061380291906148a1565b606083015260a0810151604080830151905163d3ea0f8960e01b81526001600160a01b03918216600482015291169063d3ea0f899060240160206040518083038186803b15801561385257600080fd5b505afa158015613866573d6000803e3d6000fd5b505050506040513d601f19601f8201168201806040525081019061388a91906148a1565b608083015260a08101516040808301519051634189c95d60e01b81526001600160a01b039182166004820152911690634189c95d9060240160206040518083038186803b1580156138da57600080fd5b505afa1580156138ee573d6000803e3d6000fd5b505050506040513d601f19601f8201168201806040525081019061391291906148a1565b60a08381019190915281015160408083015190516384f4b61f60e01b81526001600160a01b0391821660048201529116906384f4b61f9060240160206040518083038186803b15801561396457600080fd5b505afa158015613978573d6000803e3d6000fd5b505050506040513d601f19601f8201168201806040525081019061399c91906148a1565b60c083018190526139ef5760405162461bcd60e51b815260206004820152601b60248201527f434242433a20494c4c4547414c5f4441494c595f564f4c554d452e00000000006044820152606401610774565b861580156139fb575085155b15613a1857613a0e838284600089613b7f565b9350505050613a3e565b6000613a288483858b8b8b61428d565b9050613a37848385848a613b7f565b9450505050505b949350505050565b6001600160a01b038116613a5957600080fd5b6068546040516001600160a01b038084169216907f8be0079c531659141344cd1fd0a4f28419497f9722a3daafe3b4186f6b6457e090600090a3606880546001600160a01b0319166001600160a01b0392909216919091179055565b60008082613ac757600091505061072f565b6014613ad4846013614eb8565b613ade9190614d7d565b841015613aec575082613b5b565b613af7846064614eb8565b6014613b04856013614eb8565b613b0e9190614d7d565b613b189086614ed7565b613b229085614eb8565b613b2d906004614eb8565b613b379190614d7d565b6014613b44856013614eb8565b613b4e9190614d7d565b613b589190614d65565b90505b828110613b7857634e487b7160e01b600052600160045260246000fd5b9392505050565b8451604086015160608601518551600093929190848285613ba1826001614d65565b613bab9190614eb8565b613bb59190614d7d565b905060008386613bc6600183614ed7565b613bd09190614eb8565b613bda9190614d7d565b905060008082871015613bef57829650613bfb565b83871115613bfb578396505b60018d608001516001811115613c2157634e487b7160e01b600052602160045260246000fd5b1415613f225760008a6001811115613c4957634e487b7160e01b600052602160045260246000fd5b1415613c6057613c598b88614d65565b9650613c77565b613c6a8b88613ab5565b613c749088614ed7565b96505b6000851315613d2d5786613c8b8482614ed7565b613c958987614ed7565b613c9e88612d95565b613ca89190614eb8565b613cb29190614eb8565b613cbc9190614d7d565b613cc8886103e8614eb8565b613cd29190614d65565b915087613cdf8482614ed7565b613ce98a87614ed7565b613cf288612d95565b613cfc9190614eb8565b613d069190614eb8565b613d109190614d7d565b613d1c896103e8614eb8565b613d269190614d65565b9050613dd6565b86613d388482614ed7565b613d428987614ed7565b613d4b88612d95565b613d559190614eb8565b613d5f9190614eb8565b613d699190614d7d565b613d75886103e8614eb8565b613d7f9190614ed7565b915087613d8c8482614ed7565b613d968a87614ed7565b613d9f88612d95565b613da99190614eb8565b613db39190614eb8565b613dbd9190614d7d565b613dc9896103e8614eb8565b613dd39190614ed7565b90505b6301e133808e602001518f60600151613def9190614ed7565b8d60800151613dfe9190614eb8565b613e0e90651cae8c13e000614d65565b613e19600189614ed7565b613e289064e8d4a51000614eb8565b613e329190614eb8565b613e3c9190614d7d565b613e4c90655af3107a4000614d65565b81613e578489614eb8565b613e6990670de0b6b3a7640000614eb8565b613e739190614d7d565b11613e8457655af3107a4000613f1b565b6301e133808e602001518f60600151613e9d9190614ed7565b8d60800151613eac9190614eb8565b613ebc90651cae8c13e000614d65565b613ec7600189614ed7565b613ed69064e8d4a51000614eb8565b613ee09190614eb8565b613eea9190614d7d565b81613ef58489614eb8565b613f0790670de0b6b3a7640000614eb8565b613f119190614d7d565b613f1b9190614ed7565b985061427c565b60008d608001516001811115613f4857634e487b7160e01b600052602160045260246000fd5b14156142425760008a6001811115613f7057634e487b7160e01b600052602160045260246000fd5b1415613f9157613f808b88613ab5565b613f8a9088614ed7565b9650613f9e565b613f9b8b88614d65565b96505b60008513156140a257651cae8c13e0008e602001518f60600151613fc29190614ed7565b8d60800151613fd19190614eb8565b613fe190651cae8c13e000614d65565b88613fec8682614ed7565b613ff68b89614ed7565b613fff8a612d95565b6140099190614eb8565b6140139190614eb8565b61401d9190614d7d565b6140298a6103e8614eb8565b6140339190614d65565b61403d9190614eb8565b6140479190614d7d565b9150876140548482614ed7565b61405e8a87614ed7565b61406788612d95565b6140719190614eb8565b61407b9190614eb8565b6140859190614d7d565b614091896103e8614eb8565b61409b9190614d65565b9050614199565b651cae8c13e0008e602001518f606001516140bd9190614ed7565b8d608001516140cc9190614eb8565b6140dc90651cae8c13e000614d65565b886140e78682614ed7565b6140f18b89614ed7565b6140fa8a612d95565b6141049190614eb8565b61410e9190614eb8565b6141189190614d7d565b6141248a6103e8614eb8565b61412e9190614ed7565b6141389190614eb8565b6141429190614d7d565b91508761414f8482614ed7565b6141598a87614ed7565b61416288612d95565b61416c9190614eb8565b6141769190614eb8565b6141809190614d7d565b61418c896103e8614eb8565b6141969190614ed7565b90505b806141a48388614eb8565b6141b690670de0b6b3a7640000614eb8565b6141c09190614d7d565b6141d090655af3107a4000614d65565b6141db876001614d65565b6141ed90670de0b6b3a7640000614eb8565b116141fe57655af3107a4000613f1b565b806142098388614eb8565b61421b90670de0b6b3a7640000614eb8565b6142259190614d7d565b614230876001614d65565b613f1190670de0b6b3a7640000614eb8565b60405162461bcd60e51b815260206004820152600f60248201526e434242433a57524f4e475f5459504560881b6044820152606401610774565b505050505050505095945050505050565b600080808360018111156142b157634e487b7160e01b600052602160045260246000fd5b14156142c2575060208501516142c9565b5060408501515b841580156142d5575083155b156142e3576000915061454e565b60006142f3898989600088613b7f565b60a089015160208a01516040516341976e0960e01b81526001600160a01b0391821660048201529293506000929116906341976e0990602401604080518083038186803b15801561434357600080fd5b505afa158015614357573d6000803e3d6000fd5b505050506040513d601f19601f8201168201806040525081019061437b91906149c2565b50905060008a604001518a604001516001600160a01b031663313ce5676040518163ffffffff1660e01b815260040160206040518083038186803b1580156143c257600080fd5b505afa1580156143d6573d6000803e3d6000fd5b505050506040513d601f19601f820116820180604052508101906143fa91906149e5565b61440590600a614de6565b8b60600151898d602001516001600160a01b031663313ce5676040518163ffffffff1660e01b815260040160206040518083038186803b15801561444857600080fd5b505afa15801561445c573d6000803e3d6000fd5b505050506040513d601f19601f8201168201806040525081019061448091906149e5565b61448b90600a614de6565b87614496888f614eb8565b6144a09190614d7d565b6144b290670de0b6b3a7640000614eb8565b6144bc9190614d7d565b6144c69190614d65565b6144d09190614eb8565b6144da9190614eb8565b6144e49190614d7d565b9050633b9aca006145168a60c0015183670de0b6b3a76400006145079190614eb8565b6145119190614d7d565b614559565b60a08b01516145259087614eb8565b61452f9190614eb8565b6145399190614d7d565b89606001516145489190614d65565b94505050505b509695505050505050565b600060038211156145ba5750806000614573600283614d7d565b61457e906001614d65565b90505b818110156145b4579050806002816145998186614d7d565b6145a39190614d65565b6145ad9190614d7d565b9050614581565b5061080c565b811561080c57506001919050565b8280546145d490614f1e565b90600052602060002090601f0160209004810192826145f6576000855561463c565b82601f1061460f57805160ff191683800117855561463c565b8280016001018555821561463c579182015b8281111561463c578251825591602001919060010190614621565b5061464892915061464c565b5090565b5b80821115614648576000815560010161464d565b600082601f830112614671578081fd5b813561468461467f82614d3d565b614d0c565b818152846020838601011115614698578283fd5b816020850160208301379081016020019190915292915050565b6000602082840312156146c3578081fd5b8135613b7881614fde565b6000602082840312156146df578081fd5b8151613b7881614fde565b600080604083850312156146fc578081fd5b823561470781614fde565b9150602083013561471781614fde565b809150509250929050565b600080600060608486031215614736578081fd5b833561474181614fde565b9250602084013561475181614fde565b929592945050506040919091013590565b600080600080600080600060e0888a03121561477c578283fd5b873561478781614fde565b9650602088013561479781614fde565b9550604088013594506060880135935060808801356147b581615000565b9699959850939692959460a0840135945060c09093013592915050565b600080604083850312156147e4578182fd5b82356147ef81614fde565b946020939093013593505050565b600080600080600060a08688031215614814578283fd5b853561481f81614fde565b9450602086013561482f81614fde565b9350604086013561483f81614fde565b9250606086013561484f81615000565b9150608086013561485f81614ff3565b809150509295509295909350565b60006020828403121561487e578081fd5b8151613b7881614ff3565b60006020828403121561489a578081fd5b5035919050565b6000602082840312156148b2578081fd5b5051919050565b6000602082840312156148ca578081fd5b815167ffffffffffffffff8111156148e0578182fd5b8201601f810184136148f0578182fd5b80516148fe61467f82614d3d565b818152856020838501011115614912578384fd5b614923826020830160208601614eee565b95945050505050565b600080600060608486031215614940578081fd5b833567ffffffffffffffff80821115614957578283fd5b61496387838801614661565b94506020860135915080821115614978578283fd5b5061498586828701614661565b925050604084013561499681615000565b809150509250925092565b600080604083850312156149b3578182fd5b50508035926020909101359150565b600080604083850312156149d4578182fd5b505080516020909101519092909150565b6000602082840312156149f6578081fd5b8151613b7881615000565b60028110614a1f57634e487b7160e01b600052602160045260246000fd5b9052565b60008451614a35818460208901614eee565b845190830190614a49818360208901614eee565b8451910190614a5c818360208801614eee565b0195945050505050565b60008451614a78818460208901614eee565b6102c160f51b9083019081528451614a97816002840160208901614eee565b600160fd1b600292909101918201528351614ab9816003840160208801614eee565b0160030195945050505050565b60008451614ad8818460208901614eee565b6102c160f51b90830190815267024b73b32b939b2960c51b60028201528451614b0881600a840160208901614eee565b600160fd1b600a92909101918201528351614b2a81600b840160208801614eee565b01600b0195945050505050565b60008451614b49818460208901614eee565b604960f81b9083019081528451614b67816001840160208901614eee565b8451910190614b7d816001840160208801614eee565b0160010195945050505050565b6001600160a01b038681168252858116602083015260ff8516604083015260a0820190614bba6060840186614a01565b8084166080840152509695505050505050565b6001600160a01b038416815260ff8316602082015260608101613a3e6040830184614a01565b6020810161072f8284614a01565b6000602082528251806020840152614c20816040850160208701614eee565b601f01601f19169190910160400192915050565b60208082526028908201527f434242433a20544f5f535553504943494f55535f414444524553535f4e4f545f60408201526720a62627aba2a21760c11b606082015260800190565b60208082526022908201527f434242433a20544f5f5a45524f5f414444524553535f4e4f545f414c4c4f5745604082015261221760f11b606082015260800190565b6020808252602e908201527f436f6e747261637420696e7374616e63652068617320616c726561647920626560408201526d195b881a5b9a5d1a585b1a5e995960921b606082015260800190565b604051601f8201601f1916810167ffffffffffffffff81118282101715614d3557614d35614fc8565b604052919050565b600067ffffffffffffffff821115614d5757614d57614fc8565b50601f01601f191660200190565b60008219821115614d7857614d78614f9c565b500190565b600082614d8c57614d8c614fb2565b500490565b80825b6001808611614da35750614dce565b818704821115614db557614db5614f9c565b80861615614dc257918102915b9490941c938002614d94565b94509492505050565b6000613b786000198484614df4565b6000613b7860001960ff8516845b600082614e0357506001613b78565b81614e1057506000613b78565b8160018114614e265760028114614e3057614e5d565b6001915050613b78565b60ff841115614e4157614e41614f9c565b6001841b915084821115614e5757614e57614f9c565b50613b78565b5060208310610133831016604e8410600b8410161715614e90575081810a83811115614e8b57614e8b614f9c565b613b78565b614e9d8484846001614d91565b808604821115614eaf57614eaf614f9c565b02949350505050565b6000816000190483118215151615614ed257614ed2614f9c565b500290565b600082821015614ee957614ee9614f9c565b500390565b60005b83811015614f09578181015183820152602001614ef1565b83811115614f18576000848401525b50505050565b600181811c90821680614f3257607f821691505b60208210811415611e1e57634e487b7160e01b600052602260045260246000fd5b6000600019821415614f6757614f67614f9c565b5060010190565b600082614f7d57614f7d614fb2565b500690565b6000600160ff1b821415614f9857614f98614f9c565b0390565b634e487b7160e01b600052601160045260246000fd5b634e487b7160e01b600052601260045260246000fd5b634e487b7160e01b600052604160045260246000fd5b6001600160a01b038116811461248057600080fd5b6002811061248057600080fd5b60ff8116811461248057600080fdfeddf252ad1be2c89b69c2b068fc378daa952ba7f163c4a11628f55a4df523b3ef8c5be1e5ebec7d5bd14f71427d1e84f3dd0314c0f7b2291e5b200ac8c7c3b925a2646970667358221220d48bc1971ecc5569f5cad0b015a7c6f1564b5b7ca6469b87a620a06a93f8bada64736f6c63430008030033",
			"opcodes": "PUSH1 0x80 PUSH1 0x40 MSTORE PUSH8 0xDE0B6B3A7640000 PUSH1 0x9C SSTORE PUSH1 0x1 PUSH1 0xA8 SSTORE CALLVALUE DUP1 ISZERO PUSH2 0x21 JUMPI PUSH1 0x0 DUP1 REVERT JUMPDEST POP PUSH2 0x5085 DUP1 PUSH2 0x31 PUSH1 0x0 CODECOPY PUSH1 0x0 RETURN INVALID PUSH1 0x80 PUSH1 0x40 MSTORE CALLVALUE DUP1 ISZERO PUSH2 0x10 JUMPI PUSH1 0x0 DUP1 REVERT JUMPDEST POP PUSH1 0x4 CALLDATASIZE LT PUSH2 0x27F JUMPI PUSH1 0x0 CALLDATALOAD PUSH1 0xE0 SHR DUP1 PUSH4 0x8DA5CB5B GT PUSH2 0x15C JUMPI DUP1 PUSH4 0xC0D78655 GT PUSH2 0xCE JUMPI DUP1 PUSH4 0xDD62ED3E GT PUSH2 0x87 JUMPI DUP1 PUSH4 0xDD62ED3E EQ PUSH2 0x5A5 JUMPI DUP1 PUSH4 0xDDD6F962 EQ PUSH2 0x5DE JUMPI DUP1 PUSH4 0xDF896754 EQ PUSH2 0x5E7 JUMPI DUP1 PUSH4 0xE1B11DA4 EQ PUSH2 0x5FA JUMPI DUP1 PUSH4 0xF2FDE38B EQ PUSH2 0x621 JUMPI DUP1 PUSH4 0xF887EA40 EQ PUSH2 0x634 JUMPI PUSH2 0x27F JUMP JUMPDEST DUP1 PUSH4 0xC0D78655 EQ PUSH2 0x533 JUMPI DUP1 PUSH4 0xC45A0155 EQ PUSH2 0x546 JUMPI DUP1 PUSH4 0xC4D66DE8 EQ PUSH2 0x559 JUMPI DUP1 PUSH4 0xD505ACCF EQ PUSH2 0x56C JUMPI DUP1 PUSH4 0xD83678AC EQ PUSH2 0x57F JUMPI DUP1 PUSH4 0xD9131384 EQ PUSH2 0x592 JUMPI PUSH2 0x27F JUMP JUMPDEST DUP1 PUSH4 0x9FAA3C91 GT PUSH2 0x120 JUMPI DUP1 PUSH4 0x9FAA3C91 EQ PUSH2 0x4D6 JUMPI DUP1 PUSH4 0xA3A7E7F3 EQ PUSH2 0x4DF JUMPI DUP1 PUSH4 0xA457C2D7 EQ PUSH2 0x4F2 JUMPI DUP1 PUSH4 0xA9059CBB EQ PUSH2 0x505 JUMPI DUP1 PUSH4 0xB1BF962D EQ PUSH2 0x518 JUMPI DUP1 PUSH4 0xBBB1863A EQ PUSH2 0x520 JUMPI PUSH2 0x27F JUMP JUMPDEST DUP1 PUSH4 0x8DA5CB5B EQ PUSH2 0x48E JUMPI DUP1 PUSH4 0x8F32D59B EQ PUSH2 0x49F JUMPI DUP1 PUSH4 0x903CD3E3 EQ PUSH2 0x4B3 JUMPI DUP1 PUSH4 0x95D89B41 EQ PUSH2 0x4C6 JUMPI DUP1 PUSH4 0x9D1B464A EQ PUSH2 0x4CE JUMPI PUSH2 0x27F JUMP JUMPDEST DUP1 PUSH4 0x3644E515 GT PUSH2 0x1F5 JUMPI DUP1 PUSH4 0x715018A6 GT PUSH2 0x1B9 JUMPI DUP1 PUSH4 0x715018A6 EQ PUSH2 0x3EC JUMPI DUP1 PUSH4 0x74E14EB8 EQ PUSH2 0x3F4 JUMPI DUP1 PUSH4 0x78160376 EQ PUSH2 0x41F JUMPI DUP1 PUSH4 0x7A43E23F EQ PUSH2 0x43F JUMPI DUP1 PUSH4 0x7ECEBE00 EQ PUSH2 0x452 JUMPI DUP1 PUSH4 0x84D4B410 EQ PUSH2 0x47B JUMPI PUSH2 0x27F JUMP JUMPDEST DUP1 PUSH4 0x3644E515 EQ PUSH2 0x38A JUMPI DUP1 PUSH4 0x3697C562 EQ PUSH2 0x392 JUMPI DUP1 PUSH4 0x39509351 EQ PUSH2 0x3A5 JUMPI DUP1 PUSH4 0x3C974946 EQ PUSH2 0x3B8 JUMPI DUP1 PUSH4 0x70A08231 EQ PUSH2 0x3D9 JUMPI PUSH2 0x27F JUMP JUMPDEST DUP1 PUSH4 0x1DA24F3E GT PUSH2 0x247 JUMPI DUP1 PUSH4 0x1DA24F3E EQ PUSH2 0x2F9 JUMPI DUP1 PUSH4 0x23B872DD EQ PUSH2 0x30C JUMPI DUP1 PUSH4 0x2C86D98E EQ PUSH2 0x31F JUMPI DUP1 PUSH4 0x2D54A21B EQ PUSH2 0x345 JUMPI DUP1 PUSH4 0x30ADF81F EQ PUSH2 0x358 JUMPI DUP1 PUSH4 0x313CE567 EQ PUSH2 0x37F JUMPI PUSH2 0x27F JUMP JUMPDEST DUP1 PUSH4 0x6FDDE03 EQ PUSH2 0x284 JUMPI DUP1 PUSH4 0x8A3809D EQ PUSH2 0x2A2 JUMPI DUP1 PUSH4 0x95EA7B3 EQ PUSH2 0x2B9 JUMPI DUP1 PUSH4 0x1624F6C6 EQ PUSH2 0x2DC JUMPI DUP1 PUSH4 0x18160DDD EQ PUSH2 0x2F1 JUMPI JUMPDEST PUSH1 0x0 DUP1 REVERT JUMPDEST PUSH2 0x28C PUSH2 0x647 JUMP JUMPDEST PUSH1 0x40 MLOAD PUSH2 0x299 SWAP2 SWAP1 PUSH2 0x4C01 JUMP JUMPDEST PUSH1 0x40 MLOAD DUP1 SWAP2 SUB SWAP1 RETURN JUMPDEST PUSH2 0x2AB PUSH1 0x9D SLOAD DUP2 JUMP JUMPDEST PUSH1 0x40 MLOAD SWAP1 DUP2 MSTORE PUSH1 0x20 ADD PUSH2 0x299 JUMP JUMPDEST PUSH2 0x2CC PUSH2 0x2C7 CALLDATASIZE PUSH1 0x4 PUSH2 0x47D2 JUMP JUMPDEST PUSH2 0x6DA JUMP JUMPDEST PUSH1 0x40 MLOAD SWAP1 ISZERO ISZERO DUP2 MSTORE PUSH1 0x20 ADD PUSH2 0x299 JUMP JUMPDEST PUSH2 0x2EF PUSH2 0x2EA CALLDATASIZE PUSH1 0x4 PUSH2 0x492C JUMP JUMPDEST PUSH2 0x735 JUMP JUMPDEST STOP JUMPDEST PUSH1 0x9B SLOAD PUSH2 0x2AB JUMP JUMPDEST PUSH2 0x2AB PUSH2 0x307 CALLDATASIZE PUSH1 0x4 PUSH2 0x46B2 JUMP JUMPDEST PUSH2 0x7F2 JUMP JUMPDEST PUSH2 0x2CC PUSH2 0x31A CALLDATASIZE PUSH1 0x4 PUSH2 0x4722 JUMP JUMPDEST PUSH2 0x811 JUMP JUMPDEST PUSH1 0xA7 SLOAD PUSH2 0x333 SWAP1 PUSH1 0x1 PUSH1 0xA0 SHL SWAP1 DIV PUSH1 0xFF AND DUP2 JUMP JUMPDEST PUSH1 0x40 MLOAD PUSH1 0xFF SWAP1 SWAP2 AND DUP2 MSTORE PUSH1 0x20 ADD PUSH2 0x299 JUMP JUMPDEST PUSH2 0x2AB PUSH2 0x353 CALLDATASIZE PUSH1 0x4 PUSH2 0x47D2 JUMP JUMPDEST PUSH2 0x9B4 JUMP JUMPDEST PUSH2 0x2AB PUSH32 0x6E71EDAE12B1B97F4D1F60370FEF10105FA2FAAE0126114A169C64845D6126C9 DUP2 JUMP JUMPDEST PUSH1 0x35 SLOAD PUSH1 0xFF AND PUSH2 0x333 JUMP JUMPDEST PUSH2 0x2AB PUSH2 0xBEF JUMP JUMPDEST PUSH2 0x2AB PUSH2 0x3A0 CALLDATASIZE PUSH1 0x4 PUSH2 0x47D2 JUMP JUMPDEST PUSH2 0xC9B JUMP JUMPDEST PUSH2 0x2CC PUSH2 0x3B3 CALLDATASIZE PUSH1 0x4 PUSH2 0x47D2 JUMP JUMPDEST PUSH2 0xF44 JUMP JUMPDEST PUSH1 0xA7 SLOAD PUSH2 0x3CC SWAP1 PUSH1 0x1 PUSH1 0xA8 SHL SWAP1 DIV PUSH1 0xFF AND DUP2 JUMP JUMPDEST PUSH1 0x40 MLOAD PUSH2 0x299 SWAP2 SWAP1 PUSH2 0x4BF3 JUMP JUMPDEST PUSH2 0x2AB PUSH2 0x3E7 CALLDATASIZE PUSH1 0x4 PUSH2 0x46B2 JUMP JUMPDEST PUSH2 0xFEE JUMP JUMPDEST PUSH2 0x2EF PUSH2 0x1015 JUMP JUMPDEST PUSH1 0xA7 SLOAD PUSH2 0x407 SWAP1 PUSH1 0x1 PUSH1 0x1 PUSH1 0xA0 SHL SUB AND DUP2 JUMP JUMPDEST PUSH1 0x40 MLOAD PUSH1 0x1 PUSH1 0x1 PUSH1 0xA0 SHL SUB SWAP1 SWAP2 AND DUP2 MSTORE PUSH1 0x20 ADD PUSH2 0x299 JUMP JUMPDEST PUSH2 0x28C PUSH1 0x40 MLOAD DUP1 PUSH1 0x40 ADD PUSH1 0x40 MSTORE DUP1 PUSH1 0x1 DUP2 MSTORE PUSH1 0x20 ADD PUSH1 0x31 PUSH1 0xF8 SHL DUP2 MSTORE POP DUP2 JUMP JUMPDEST PUSH2 0x2AB PUSH2 0x44D CALLDATASIZE PUSH1 0x4 PUSH2 0x49A1 JUMP JUMPDEST PUSH2 0x107C JUMP JUMPDEST PUSH2 0x2AB PUSH2 0x460 CALLDATASIZE PUSH1 0x4 PUSH2 0x46B2 JUMP JUMPDEST PUSH1 0x1 PUSH1 0x1 PUSH1 0xA0 SHL SUB AND PUSH1 0x0 SWAP1 DUP2 MSTORE PUSH1 0xA0 PUSH1 0x20 MSTORE PUSH1 0x40 SWAP1 KECCAK256 SLOAD SWAP1 JUMP JUMPDEST PUSH2 0x2CC PUSH2 0x489 CALLDATASIZE PUSH1 0x4 PUSH2 0x46EA JUMP JUMPDEST PUSH2 0x142B JUMP JUMPDEST PUSH1 0x68 SLOAD PUSH1 0x1 PUSH1 0x1 PUSH1 0xA0 SHL SUB AND PUSH2 0x407 JUMP JUMPDEST PUSH2 0x2CC PUSH1 0x68 SLOAD PUSH1 0x1 PUSH1 0x1 PUSH1 0xA0 SHL SUB AND CALLER EQ SWAP1 JUMP JUMPDEST PUSH2 0x2EF PUSH2 0x4C1 CALLDATASIZE PUSH1 0x4 PUSH2 0x47FD JUMP JUMPDEST PUSH2 0x15AE JUMP JUMPDEST PUSH2 0x28C PUSH2 0x1CDD JUMP JUMPDEST PUSH2 0x2AB PUSH2 0x1CEC JUMP JUMPDEST PUSH2 0x2AB PUSH1 0x9F SLOAD DUP2 JUMP JUMPDEST PUSH2 0x2CC PUSH2 0x4ED CALLDATASIZE PUSH1 0x4 PUSH2 0x46B2 JUMP JUMPDEST PUSH2 0x1D1A JUMP JUMPDEST PUSH2 0x2CC PUSH2 0x500 CALLDATASIZE PUSH1 0x4 PUSH2 0x47D2 JUMP JUMPDEST PUSH2 0x1E24 JUMP JUMPDEST PUSH2 0x2CC PUSH2 0x513 CALLDATASIZE PUSH1 0x4 PUSH2 0x47D2 JUMP JUMPDEST PUSH2 0x1EE2 JUMP JUMPDEST PUSH2 0x2AB PUSH2 0x1FF5 JUMP JUMPDEST PUSH1 0xA4 SLOAD PUSH2 0x407 SWAP1 PUSH1 0x1 PUSH1 0x1 PUSH1 0xA0 SHL SUB AND DUP2 JUMP JUMPDEST PUSH2 0x2EF PUSH2 0x541 CALLDATASIZE PUSH1 0x4 PUSH2 0x46B2 JUMP JUMPDEST PUSH2 0x200C JUMP JUMPDEST PUSH1 0xA3 SLOAD PUSH2 0x407 SWAP1 PUSH1 0x1 PUSH1 0x1 PUSH1 0xA0 SHL SUB AND DUP2 JUMP JUMPDEST PUSH2 0x2EF PUSH2 0x567 CALLDATASIZE PUSH1 0x4 PUSH2 0x46B2 JUMP JUMPDEST PUSH2 0x207D JUMP JUMPDEST PUSH2 0x2EF PUSH2 0x57A CALLDATASIZE PUSH1 0x4 PUSH2 0x4762 JUMP JUMPDEST PUSH2 0x2101 JUMP JUMPDEST PUSH1 0xA6 SLOAD PUSH2 0x407 SWAP1 PUSH1 0x1 PUSH1 0x1 PUSH1 0xA0 SHL SUB AND DUP2 JUMP JUMPDEST PUSH2 0x2EF PUSH2 0x5A0 CALLDATASIZE PUSH1 0x4 PUSH2 0x4889 JUMP JUMPDEST PUSH2 0x233C JUMP JUMPDEST PUSH2 0x2AB PUSH2 0x5B3 CALLDATASIZE PUSH1 0x4 PUSH2 0x46EA JUMP JUMPDEST PUSH1 0x1 PUSH1 0x1 PUSH1 0xA0 SHL SUB SWAP2 DUP3 AND PUSH1 0x0 SWAP1 DUP2 MSTORE PUSH1 0xA2 PUSH1 0x20 SWAP1 DUP2 MSTORE PUSH1 0x40 DUP1 DUP4 KECCAK256 SWAP4 SWAP1 SWAP5 AND DUP3 MSTORE SWAP2 SWAP1 SWAP2 MSTORE KECCAK256 SLOAD SWAP1 JUMP JUMPDEST PUSH2 0x2AB PUSH1 0x9E SLOAD DUP2 JUMP JUMPDEST PUSH2 0x2EF PUSH2 0x5F5 CALLDATASIZE PUSH1 0x4 PUSH2 0x46B2 JUMP JUMPDEST PUSH2 0x238E JUMP JUMPDEST PUSH2 0x2AB PUSH32 0x8B73C3C69BB8FE3D512ECC4CF759CC79239F7B179B0FFACAA9A75D522B39400F DUP2 JUMP JUMPDEST PUSH2 0x2EF PUSH2 0x62F CALLDATASIZE PUSH1 0x4 PUSH2 0x46B2 JUMP JUMPDEST PUSH2 0x245A JUMP JUMPDEST PUSH1 0xA5 SLOAD PUSH2 0x407 SWAP1 PUSH1 0x1 PUSH1 0x1 PUSH1 0xA0 SHL SUB AND DUP2 JUMP JUMPDEST PUSH1 0x60 PUSH1 0x33 DUP1 SLOAD PUSH2 0x656 SWAP1 PUSH2 0x4F1E JUMP JUMPDEST DUP1 PUSH1 0x1F ADD PUSH1 0x20 DUP1 SWAP2 DIV MUL PUSH1 0x20 ADD PUSH1 0x40 MLOAD SWAP1 DUP2 ADD PUSH1 0x40 MSTORE DUP1 SWAP3 SWAP2 SWAP1 DUP2 DUP2 MSTORE PUSH1 0x20 ADD DUP3 DUP1 SLOAD PUSH2 0x682 SWAP1 PUSH2 0x4F1E JUMP JUMPDEST DUP1 ISZERO PUSH2 0x6CF JUMPI DUP1 PUSH1 0x1F LT PUSH2 0x6A4 JUMPI PUSH2 0x100 DUP1 DUP4 SLOAD DIV MUL DUP4 MSTORE SWAP2 PUSH1 0x20 ADD SWAP2 PUSH2 0x6CF JUMP JUMPDEST DUP3 ADD SWAP2 SWAP1 PUSH1 0x0 MSTORE PUSH1 0x20 PUSH1 0x0 KECCAK256 SWAP1 JUMPDEST DUP2 SLOAD DUP2 MSTORE SWAP1 PUSH1 0x1 ADD SWAP1 PUSH1 0x20 ADD DUP1 DUP4 GT PUSH2 0x6B2 JUMPI DUP3 SWAP1 SUB PUSH1 0x1F AND DUP3 ADD SWAP2 JUMPDEST POP POP POP POP POP SWAP1 POP JUMPDEST SWAP1 JUMP JUMPDEST CALLER PUSH1 0x0 DUP2 DUP2 MSTORE PUSH1 0xA2 PUSH1 0x20 SWAP1 DUP2 MSTORE PUSH1 0x40 DUP1 DUP4 KECCAK256 PUSH1 0x1 PUSH1 0x1 PUSH1 0xA0 SHL SUB DUP8 AND DUP1 DUP6 MSTORE SWAP3 MSTORE DUP1 DUP4 KECCAK256 DUP6 SWAP1 SSTORE MLOAD SWAP2 SWAP3 SWAP1 SWAP2 PUSH1 0x0 DUP1 MLOAD PUSH1 0x20 PUSH2 0x5030 DUP4 CODECOPY DUP2 MLOAD SWAP2 MSTORE SWAP1 PUSH2 0x723 SWAP1 DUP7 DUP2 MSTORE PUSH1 0x20 ADD SWAP1 JUMP JUMPDEST PUSH1 0x40 MLOAD DUP1 SWAP2 SUB SWAP1 LOG3 POP PUSH1 0x1 JUMPDEST SWAP3 SWAP2 POP POP JUMP JUMPDEST PUSH1 0x0 SLOAD PUSH2 0x100 SWAP1 DIV PUSH1 0xFF AND DUP1 PUSH2 0x74A JUMPI POP ADDRESS EXTCODESIZE ISZERO JUMPDEST DUP1 PUSH2 0x758 JUMPI POP PUSH1 0x0 SLOAD PUSH1 0xFF AND ISZERO JUMPDEST PUSH2 0x77D JUMPI PUSH1 0x40 MLOAD PUSH3 0x461BCD PUSH1 0xE5 SHL DUP2 MSTORE PUSH1 0x4 ADD PUSH2 0x774 SWAP1 PUSH2 0x4CBE JUMP JUMPDEST PUSH1 0x40 MLOAD DUP1 SWAP2 SUB SWAP1 REVERT JUMPDEST PUSH1 0x0 DUP1 SLOAD PUSH2 0xFFFF NOT DUP2 AND PUSH2 0x101 OR SWAP1 SWAP2 SSTORE DUP4 MLOAD PUSH2 0x100 SWAP1 SWAP2 DIV PUSH1 0xFF AND SWAP1 PUSH2 0x7AB SWAP1 PUSH1 0x33 SWAP1 PUSH1 0x20 DUP8 ADD SWAP1 PUSH2 0x45C8 JUMP JUMPDEST POP DUP3 MLOAD PUSH2 0x7BF SWAP1 PUSH1 0x34 SWAP1 PUSH1 0x20 DUP7 ADD SWAP1 PUSH2 0x45C8 JUMP JUMPDEST POP PUSH1 0x35 DUP1 SLOAD PUSH1 0xFF SWAP1 SWAP4 AND PUSH1 0xFF NOT SWAP1 SWAP4 AND SWAP3 SWAP1 SWAP3 OR SWAP1 SWAP2 SSTORE PUSH1 0x0 DUP1 SLOAD SWAP2 ISZERO ISZERO PUSH2 0x100 MUL PUSH2 0xFF00 NOT SWAP1 SWAP3 AND SWAP2 SWAP1 SWAP2 OR SWAP1 SSTORE POP POP JUMP JUMPDEST PUSH1 0x1 PUSH1 0x1 PUSH1 0xA0 SHL SUB DUP2 AND PUSH1 0x0 SWAP1 DUP2 MSTORE PUSH1 0xA1 PUSH1 0x20 MSTORE PUSH1 0x40 SWAP1 KECCAK256 SLOAD JUMPDEST SWAP2 SWAP1 POP JUMP JUMPDEST PUSH1 0x0 DUP3 PUSH1 0x1 PUSH1 0x1 PUSH1 0xA0 SHL SUB DUP2 AND PUSH2 0x83A JUMPI PUSH1 0x40 MLOAD PUSH3 0x461BCD PUSH1 0xE5 SHL DUP2 MSTORE PUSH1 0x4 ADD PUSH2 0x774 SWAP1 PUSH2 0x4C7C JUMP JUMPDEST PUSH20 0xEB31973E0FEBF3E3D7058234A5EBBAE1AB4B8C23 PUSH1 0x1 PUSH1 0x1 PUSH1 0xA0 SHL SUB DUP3 AND EQ ISZERO PUSH2 0x877 JUMPI PUSH1 0x40 MLOAD PUSH3 0x461BCD PUSH1 0xE5 SHL DUP2 MSTORE PUSH1 0x4 ADD PUSH2 0x774 SWAP1 PUSH2 0x4C34 JUMP JUMPDEST PUSH1 0x1 PUSH1 0x1 PUSH1 0xA0 SHL SUB DUP6 AND PUSH1 0x0 SWAP1 DUP2 MSTORE PUSH1 0xA2 PUSH1 0x20 SWAP1 DUP2 MSTORE PUSH1 0x40 DUP1 DUP4 KECCAK256 CALLER DUP5 MSTORE SWAP1 SWAP2 MSTORE SWAP1 KECCAK256 SLOAD PUSH1 0x0 NOT EQ PUSH2 0x8F7 JUMPI PUSH1 0x1 PUSH1 0x1 PUSH1 0xA0 SHL SUB DUP6 AND PUSH1 0x0 SWAP1 DUP2 MSTORE PUSH1 0xA2 PUSH1 0x20 SWAP1 DUP2 MSTORE PUSH1 0x40 DUP1 DUP4 KECCAK256 CALLER DUP5 MSTORE SWAP1 SWAP2 MSTORE SWAP1 KECCAK256 SLOAD PUSH2 0x8D2 SWAP1 DUP5 SWAP1 PUSH2 0x4ED7 JUMP JUMPDEST PUSH1 0x1 PUSH1 0x1 PUSH1 0xA0 SHL SUB DUP7 AND PUSH1 0x0 SWAP1 DUP2 MSTORE PUSH1 0xA2 PUSH1 0x20 SWAP1 DUP2 MSTORE PUSH1 0x40 DUP1 DUP4 KECCAK256 CALLER DUP5 MSTORE SWAP1 SWAP2 MSTORE SWAP1 KECCAK256 SSTORE JUMPDEST PUSH1 0x0 PUSH1 0x9C SLOAD DUP5 PUSH2 0x907 SWAP2 SWAP1 PUSH2 0x4EB8 JUMP JUMPDEST PUSH1 0x1 PUSH1 0x1 PUSH1 0xA0 SHL SUB DUP8 AND PUSH1 0x0 SWAP1 DUP2 MSTORE PUSH1 0xA1 PUSH1 0x20 MSTORE PUSH1 0x40 SWAP1 KECCAK256 SLOAD SWAP1 SWAP2 POP PUSH2 0x92E SWAP1 DUP3 SWAP1 PUSH2 0x4ED7 JUMP JUMPDEST PUSH1 0x1 PUSH1 0x1 PUSH1 0xA0 SHL SUB DUP1 DUP9 AND PUSH1 0x0 SWAP1 DUP2 MSTORE PUSH1 0xA1 PUSH1 0x20 MSTORE PUSH1 0x40 DUP1 DUP3 KECCAK256 SWAP4 SWAP1 SWAP4 SSTORE SWAP1 DUP8 AND DUP2 MSTORE KECCAK256 SLOAD PUSH2 0x95E SWAP1 DUP3 SWAP1 PUSH2 0x4D65 JUMP JUMPDEST PUSH1 0x1 PUSH1 0x1 PUSH1 0xA0 SHL SUB DUP1 DUP8 AND PUSH1 0x0 DUP2 DUP2 MSTORE PUSH1 0xA1 PUSH1 0x20 MSTORE PUSH1 0x40 SWAP1 DUP2 SWAP1 KECCAK256 SWAP4 SWAP1 SWAP4 SSTORE SWAP2 MLOAD SWAP1 DUP9 AND SWAP1 PUSH1 0x0 DUP1 MLOAD PUSH1 0x20 PUSH2 0x5010 DUP4 CODECOPY DUP2 MLOAD SWAP2 MSTORE SWAP1 PUSH2 0x9A0 SWAP1 DUP9 DUP2 MSTORE PUSH1 0x20 ADD SWAP1 JUMP JUMPDEST PUSH1 0x40 MLOAD DUP1 SWAP2 SUB SWAP1 LOG3 POP PUSH1 0x1 SWAP6 SWAP5 POP POP POP POP POP JUMP JUMPDEST PUSH1 0x0 PUSH1 0xA8 SLOAD PUSH1 0x1 EQ PUSH2 0x9F7 JUMPI PUSH1 0x40 MLOAD PUSH3 0x461BCD PUSH1 0xE5 SHL DUP2 MSTORE PUSH1 0x20 PUSH1 0x4 DUP3 ADD MSTORE PUSH1 0xC PUSH1 0x24 DUP3 ADD MSTORE PUSH12 0x10D09090CE881313D0D2D151 PUSH1 0xA2 SHL PUSH1 0x44 DUP3 ADD MSTORE PUSH1 0x64 ADD PUSH2 0x774 JUMP JUMPDEST PUSH1 0x0 PUSH1 0xA8 SSTORE PUSH1 0xA5 SLOAD PUSH1 0x1 PUSH1 0x1 PUSH1 0xA0 SHL SUB AND CALLER EQ PUSH2 0xA49 JUMPI PUSH1 0x40 MLOAD PUSH3 0x461BCD PUSH1 0xE5 SHL DUP2 MSTORE PUSH1 0x20 PUSH1 0x4 DUP3 ADD MSTORE PUSH1 0x10 PUSH1 0x24 DUP3 ADD MSTORE PUSH16 0x21A121219D102727AA2FA927AAAA22A9 PUSH1 0x81 SHL PUSH1 0x44 DUP3 ADD MSTORE PUSH1 0x64 ADD PUSH2 0x774 JUMP JUMPDEST PUSH2 0xA53 ADDRESS DUP4 PUSH2 0x2483 JUMP JUMPDEST SWAP1 POP PUSH1 0x0 DUP2 GT PUSH2 0xAB1 JUMPI PUSH1 0x40 MLOAD PUSH3 0x461BCD PUSH1 0xE5 SHL DUP2 MSTORE PUSH1 0x20 PUSH1 0x4 DUP3 ADD MSTORE PUSH1 0x24 DUP1 DUP3 ADD MSTORE PUSH32 0x434242433A20494E53554646494349454E545F534554544C455F544F4B454E5F PUSH1 0x44 DUP3 ADD MSTORE PUSH4 0x27AAAA17 PUSH1 0xE1 SHL PUSH1 0x64 DUP3 ADD MSTORE PUSH1 0x84 ADD PUSH2 0x774 JUMP JUMPDEST PUSH1 0xA3 SLOAD PUSH1 0xA7 SLOAD PUSH1 0x40 MLOAD PUSH4 0x4C22F489 PUSH1 0xE1 SHL DUP2 MSTORE PUSH1 0x1 PUSH1 0x1 PUSH1 0xA0 SHL SUB SWAP2 DUP3 AND PUSH1 0x4 DUP3 ADD MSTORE PUSH1 0x0 SWAP3 SWAP2 SWAP1 SWAP2 AND SWAP1 PUSH4 0x9845E912 SWAP1 PUSH1 0x24 ADD PUSH1 0x20 PUSH1 0x40 MLOAD DUP1 DUP4 SUB DUP2 DUP7 DUP1 EXTCODESIZE ISZERO DUP1 ISZERO PUSH2 0xAFD JUMPI PUSH1 0x0 DUP1 REVERT JUMPDEST POP GAS STATICCALL ISZERO DUP1 ISZERO PUSH2 0xB11 JUMPI RETURNDATASIZE PUSH1 0x0 DUP1 RETURNDATACOPY RETURNDATASIZE PUSH1 0x0 REVERT JUMPDEST POP POP POP POP PUSH1 0x40 MLOAD RETURNDATASIZE PUSH1 0x1F NOT PUSH1 0x1F DUP3 ADD AND DUP3 ADD DUP1 PUSH1 0x40 MSTORE POP DUP2 ADD SWAP1 PUSH2 0xB35 SWAP2 SWAP1 PUSH2 0x46CE JUMP JUMPDEST SWAP1 POP PUSH2 0xB41 ADDRESS DUP5 PUSH2 0x298B JUMP JUMPDEST PUSH1 0x40 MLOAD PUSH4 0xCE2D30DD PUSH1 0xE0 SHL DUP2 MSTORE PUSH1 0x1 PUSH1 0x1 PUSH1 0xA0 SHL SUB DUP6 DUP2 AND PUSH1 0x4 DUP4 ADD MSTORE PUSH1 0x24 DUP3 ADD DUP5 SWAP1 MSTORE DUP3 AND SWAP1 PUSH4 0xCE2D30DD SWAP1 PUSH1 0x44 ADD PUSH1 0x0 PUSH1 0x40 MLOAD DUP1 DUP4 SUB DUP2 PUSH1 0x0 DUP8 DUP1 EXTCODESIZE ISZERO DUP1 ISZERO PUSH2 0xB8B JUMPI PUSH1 0x0 DUP1 REVERT JUMPDEST POP GAS CALL ISZERO DUP1 ISZERO PUSH2 0xB9F JUMPI RETURNDATASIZE PUSH1 0x0 DUP1 RETURNDATACOPY RETURNDATASIZE PUSH1 0x0 REVERT JUMPDEST POP POP PUSH1 0x40 MLOAD DUP5 DUP2 MSTORE PUSH1 0x1 PUSH1 0x1 PUSH1 0xA0 SHL SUB DUP8 AND SWAP3 POP CALLER SWAP2 POP PUSH32 0xDBDF9B8E4B75E75B162D151EC8FC7F0561CABAB5FCCCFA2600BE62223E4300C4 SWAP1 PUSH1 0x20 ADD PUSH1 0x40 MLOAD DUP1 SWAP2 SUB SWAP1 LOG3 POP PUSH1 0x1 PUSH1 0xA8 SSTORE SWAP3 SWAP2 POP POP JUMP JUMPDEST PUSH1 0x0 CHAINID PUSH32 0x8B73C3C69BB8FE3D512ECC4CF759CC79239F7B179B0FFACAA9A75D522B39400F PUSH2 0xC1B PUSH2 0x647 JUMP JUMPDEST DUP1 MLOAD PUSH1 0x20 SWAP2 DUP3 ADD KECCAK256 PUSH1 0x40 DUP1 MLOAD DUP1 DUP3 ADD DUP3 MSTORE PUSH1 0x1 DUP2 MSTORE PUSH1 0x31 PUSH1 0xF8 SHL SWAP1 DUP5 ADD MSTORE DUP1 MLOAD SWAP3 DUP4 ADD SWAP4 SWAP1 SWAP4 MSTORE SWAP2 DUP2 ADD SWAP2 SWAP1 SWAP2 MSTORE PUSH32 0xC89EFDAA54C0F20C7ADF612882DF0950F5A951637E0307CDCB4C672F298B8BC6 PUSH1 0x60 DUP3 ADD MSTORE PUSH1 0x80 DUP2 ADD DUP3 SWAP1 MSTORE ADDRESS PUSH1 0xA0 DUP3 ADD MSTORE PUSH1 0xC0 ADD PUSH1 0x40 MLOAD PUSH1 0x20 DUP2 DUP4 SUB SUB DUP2 MSTORE SWAP1 PUSH1 0x40 MSTORE DUP1 MLOAD SWAP1 PUSH1 0x20 ADD KECCAK256 SWAP2 POP POP SWAP1 JUMP JUMPDEST PUSH1 0x0 PUSH1 0xA8 SLOAD PUSH1 0x1 EQ PUSH2 0xCDE JUMPI PUSH1 0x40 MLOAD PUSH3 0x461BCD PUSH1 0xE5 SHL DUP2 MSTORE PUSH1 0x20 PUSH1 0x4 DUP3 ADD MSTORE PUSH1 0xC PUSH1 0x24 DUP3 ADD MSTORE PUSH12 0x10D09090CE881313D0D2D151 PUSH1 0xA2 SHL PUSH1 0x44 DUP3 ADD MSTORE PUSH1 0x64 ADD PUSH2 0x774 JUMP JUMPDEST PUSH1 0x0 PUSH1 0xA8 SSTORE PUSH1 0xA5 SLOAD PUSH1 0x1 PUSH1 0x1 PUSH1 0xA0 SHL SUB AND CALLER EQ PUSH2 0xD30 JUMPI PUSH1 0x40 MLOAD PUSH3 0x461BCD PUSH1 0xE5 SHL DUP2 MSTORE PUSH1 0x20 PUSH1 0x4 DUP3 ADD MSTORE PUSH1 0x10 PUSH1 0x24 DUP3 ADD MSTORE PUSH16 0x21A121219D102727AA2FA927AAAA22A9 PUSH1 0x81 SHL PUSH1 0x44 DUP3 ADD MSTORE PUSH1 0x64 ADD PUSH2 0x774 JUMP JUMPDEST PUSH1 0x9B SLOAD PUSH2 0xE85 JUMPI TIMESTAMP PUSH1 0x9D SSTORE PUSH1 0xA4 SLOAD PUSH1 0x40 DUP1 MLOAD PUSH4 0xC12C2A5 PUSH1 0xE3 SHL DUP2 MSTORE SWAP1 MLOAD PUSH1 0x1 PUSH1 0x1 PUSH1 0xA0 SHL SUB SWAP1 SWAP3 AND SWAP2 PUSH4 0x60961528 SWAP2 PUSH1 0x4 DUP1 DUP3 ADD SWAP3 PUSH1 0x20 SWAP3 SWAP1 SWAP2 SWAP1 DUP3 SWAP1 SUB ADD DUP2 DUP7 DUP1 EXTCODESIZE ISZERO DUP1 ISZERO PUSH2 0xD80 JUMPI PUSH1 0x0 DUP1 REVERT JUMPDEST POP GAS STATICCALL ISZERO DUP1 ISZERO PUSH2 0xD94 JUMPI RETURNDATASIZE PUSH1 0x0 DUP1 RETURNDATACOPY RETURNDATASIZE PUSH1 0x0 REVERT JUMPDEST POP POP POP POP PUSH1 0x40 MLOAD RETURNDATASIZE PUSH1 0x1F NOT PUSH1 0x1F DUP3 ADD AND DUP3 ADD DUP1 PUSH1 0x40 MSTORE POP DUP2 ADD SWAP1 PUSH2 0xDB8 SWAP2 SWAP1 PUSH2 0x46CE JUMP JUMPDEST PUSH1 0xA6 SLOAD PUSH1 0x40 MLOAD PUSH4 0x41976E09 PUSH1 0xE0 SHL DUP2 MSTORE PUSH1 0x1 PUSH1 0x1 PUSH1 0xA0 SHL SUB SWAP2 DUP3 AND PUSH1 0x4 DUP3 ADD MSTORE SWAP2 AND SWAP1 PUSH4 0x41976E09 SWAP1 PUSH1 0x24 ADD PUSH1 0x40 DUP1 MLOAD DUP1 DUP4 SUB DUP2 DUP7 DUP1 EXTCODESIZE ISZERO DUP1 ISZERO PUSH2 0xDFB JUMPI PUSH1 0x0 DUP1 REVERT JUMPDEST POP GAS STATICCALL ISZERO DUP1 ISZERO PUSH2 0xE0F JUMPI RETURNDATASIZE PUSH1 0x0 DUP1 RETURNDATACOPY RETURNDATASIZE PUSH1 0x0 REVERT JUMPDEST POP POP POP POP PUSH1 0x40 MLOAD RETURNDATASIZE PUSH1 0x1F NOT PUSH1 0x1F DUP3 ADD AND DUP3 ADD DUP1 PUSH1 0x40 MSTORE POP DUP2 ADD SWAP1 PUSH2 0xE33 SWAP2 SWAP1 PUSH2 0x49C2 JUMP JUMPDEST POP PUSH1 0x9E DUP2 SWAP1 SSTORE PUSH2 0xE85 JUMPI PUSH1 0x40 MLOAD PUSH3 0x461BCD PUSH1 0xE5 SHL DUP2 MSTORE PUSH1 0x20 PUSH1 0x4 DUP3 ADD MSTORE PUSH1 0x1A PUSH1 0x24 DUP3 ADD MSTORE PUSH32 0x434242433A20494C4C4547414C5F54524144455F50524943452E000000000000 PUSH1 0x44 DUP3 ADD MSTORE PUSH1 0x64 ADD PUSH2 0x774 JUMP JUMPDEST PUSH2 0xE8F ADDRESS DUP4 PUSH2 0x2A12 JUMP JUMPDEST SWAP1 POP PUSH1 0x0 DUP2 GT PUSH2 0xEEC JUMPI PUSH1 0x40 MLOAD PUSH3 0x461BCD PUSH1 0xE5 SHL DUP2 MSTORE PUSH1 0x20 PUSH1 0x4 DUP3 ADD MSTORE PUSH1 0x22 PUSH1 0x24 DUP3 ADD MSTORE PUSH32 0x434242433A20494E53554646494349454E545F434242435F544F4B454E5F4F55 PUSH1 0x44 DUP3 ADD MSTORE PUSH2 0x2A17 PUSH1 0xF1 SHL PUSH1 0x64 DUP3 ADD MSTORE PUSH1 0x84 ADD PUSH2 0x774 JUMP JUMPDEST PUSH2 0xEF6 DUP4 DUP3 PUSH2 0x2D18 JUMP JUMPDEST DUP3 PUSH1 0x1 PUSH1 0x1 PUSH1 0xA0 SHL SUB AND PUSH32 0xF6798A560793A54C3BCFE86A93CDE1E73087D944C0EA20544137D4121396885 DUP3 PUSH1 0x40 MLOAD PUSH2 0xF31 SWAP2 DUP2 MSTORE PUSH1 0x20 ADD SWAP1 JUMP JUMPDEST PUSH1 0x40 MLOAD DUP1 SWAP2 SUB SWAP1 LOG2 PUSH1 0x1 PUSH1 0xA8 SSTORE SWAP3 SWAP2 POP POP JUMP JUMPDEST CALLER PUSH1 0x0 SWAP1 DUP2 MSTORE PUSH1 0xA2 PUSH1 0x20 SWAP1 DUP2 MSTORE PUSH1 0x40 DUP1 DUP4 KECCAK256 PUSH1 0x1 PUSH1 0x1 PUSH1 0xA0 SHL SUB DUP7 AND DUP5 MSTORE SWAP1 SWAP2 MSTORE DUP2 KECCAK256 SLOAD PUSH1 0x0 NOT EQ PUSH2 0xFA9 JUMPI CALLER PUSH1 0x0 SWAP1 DUP2 MSTORE PUSH1 0xA2 PUSH1 0x20 SWAP1 DUP2 MSTORE PUSH1 0x40 DUP1 DUP4 KECCAK256 PUSH1 0x1 PUSH1 0x1 PUSH1 0xA0 SHL SUB DUP8 AND DUP5 MSTORE SWAP1 SWAP2 MSTORE DUP2 KECCAK256 DUP1 SLOAD DUP5 SWAP3 SWAP1 PUSH2 0xFA3 SWAP1 DUP5 SWAP1 PUSH2 0x4D65 JUMP JUMPDEST SWAP1 SWAP2 SSTORE POP POP JUMPDEST CALLER PUSH1 0x0 DUP2 DUP2 MSTORE PUSH1 0xA2 PUSH1 0x20 SWAP1 DUP2 MSTORE PUSH1 0x40 DUP1 DUP4 KECCAK256 PUSH1 0x1 PUSH1 0x1 PUSH1 0xA0 SHL SUB DUP9 AND DUP1 DUP6 MSTORE SWAP1 DUP4 MSTORE SWAP3 DUP2 SWAP1 KECCAK256 SLOAD SWAP1 MLOAD SWAP1 DUP2 MSTORE SWAP2 SWAP3 SWAP2 PUSH1 0x0 DUP1 MLOAD PUSH1 0x20 PUSH2 0x5030 DUP4 CODECOPY DUP2 MLOAD SWAP2 MSTORE SWAP2 ADD PUSH2 0x723 JUMP JUMPDEST PUSH1 0x9C SLOAD PUSH1 0x1 PUSH1 0x1 PUSH1 0xA0 SHL SUB DUP3 AND PUSH1 0x0 SWAP1 DUP2 MSTORE PUSH1 0xA1 PUSH1 0x20 MSTORE PUSH1 0x40 DUP2 KECCAK256 SLOAD SWAP1 SWAP2 PUSH2 0x72F SWAP2 PUSH2 0x4D7D JUMP JUMPDEST PUSH2 0x1029 PUSH1 0x68 SLOAD PUSH1 0x1 PUSH1 0x1 PUSH1 0xA0 SHL SUB AND CALLER EQ SWAP1 JUMP JUMPDEST PUSH2 0x1032 JUMPI PUSH1 0x0 DUP1 REVERT JUMPDEST PUSH1 0x68 SLOAD PUSH1 0x40 MLOAD PUSH1 0x1 PUSH1 0x1 PUSH1 0xA0 SHL SUB SWAP1 SWAP2 AND SWAP1 PUSH32 0xF8DF31144D9C2F0F6B59D69B8B98ABD5459D07F2742C4DF920B25AAE33C64820 SWAP1 PUSH1 0x0 SWAP1 LOG2 PUSH1 0x68 DUP1 SLOAD PUSH1 0x1 PUSH1 0x1 PUSH1 0xA0 SHL SUB NOT AND SWAP1 SSTORE JUMP JUMPDEST PUSH1 0xA4 SLOAD PUSH1 0x0 SWAP1 PUSH1 0x1 PUSH1 0x1 PUSH1 0xA0 SHL SUB AND CALLER EQ PUSH2 0x10D9 JUMPI PUSH1 0x40 MLOAD PUSH3 0x461BCD PUSH1 0xE5 SHL DUP2 MSTORE PUSH1 0x20 PUSH1 0x4 DUP3 ADD MSTORE PUSH1 0x17 PUSH1 0x24 DUP3 ADD MSTORE PUSH32 0x434242433A204E4F545F5245424153455F504F4C494359000000000000000000 PUSH1 0x44 DUP3 ADD MSTORE PUSH1 0x64 ADD PUSH2 0x774 JUMP JUMPDEST DUP2 PUSH2 0x1238 JUMPI TIMESTAMP PUSH1 0x9D SSTORE PUSH1 0xA4 SLOAD PUSH1 0x40 DUP1 MLOAD PUSH4 0xC12C2A5 PUSH1 0xE3 SHL DUP2 MSTORE SWAP1 MLOAD PUSH1 0x1 PUSH1 0x1 PUSH1 0xA0 SHL SUB SWAP1 SWAP3 AND SWAP2 PUSH4 0x60961528 SWAP2 PUSH1 0x4 DUP1 DUP3 ADD SWAP3 PUSH1 0x20 SWAP3 SWAP1 SWAP2 SWAP1 DUP3 SWAP1 SUB ADD DUP2 DUP7 DUP1 EXTCODESIZE ISZERO DUP1 ISZERO PUSH2 0x1127 JUMPI PUSH1 0x0 DUP1 REVERT JUMPDEST POP GAS STATICCALL ISZERO DUP1 ISZERO PUSH2 0x113B JUMPI RETURNDATASIZE PUSH1 0x0 DUP1 RETURNDATACOPY RETURNDATASIZE PUSH1 0x0 REVERT JUMPDEST POP POP POP POP PUSH1 0x40 MLOAD RETURNDATASIZE PUSH1 0x1F NOT PUSH1 0x1F DUP3 ADD AND DUP3 ADD DUP1 PUSH1 0x40 MSTORE POP DUP2 ADD SWAP1 PUSH2 0x115F SWAP2 SWAP1 PUSH2 0x46CE JUMP JUMPDEST PUSH1 0xA6 SLOAD PUSH1 0x40 MLOAD PUSH4 0x41976E09 PUSH1 0xE0 SHL DUP2 MSTORE PUSH1 0x1 PUSH1 0x1 PUSH1 0xA0 SHL SUB SWAP2 DUP3 AND PUSH1 0x4 DUP3 ADD MSTORE SWAP2 AND SWAP1 PUSH4 0x41976E09 SWAP1 PUSH1 0x24 ADD PUSH1 0x40 DUP1 MLOAD DUP1 DUP4 SUB DUP2 DUP7 DUP1 EXTCODESIZE ISZERO DUP1 ISZERO PUSH2 0x11A2 JUMPI PUSH1 0x0 DUP1 REVERT JUMPDEST POP GAS STATICCALL ISZERO DUP1 ISZERO PUSH2 0x11B6 JUMPI RETURNDATASIZE PUSH1 0x0 DUP1 RETURNDATACOPY RETURNDATASIZE PUSH1 0x0 REVERT JUMPDEST POP POP POP POP PUSH1 0x40 MLOAD RETURNDATASIZE PUSH1 0x1F NOT PUSH1 0x1F DUP3 ADD AND DUP3 ADD DUP1 PUSH1 0x40 MSTORE POP DUP2 ADD SWAP1 PUSH2 0x11DA SWAP2 SWAP1 PUSH2 0x49C2 JUMP JUMPDEST POP PUSH1 0x9E DUP2 SWAP1 SSTORE PUSH1 0x9D SLOAD PUSH1 0x9B SLOAD PUSH1 0x40 MLOAD DUP7 SWAP4 PUSH32 0xA9219328B62D2057317E0A7D7634032C7CACA3F5B8230D51B25E957EFC67DBF4 SWAP4 PUSH2 0x1227 SWAP4 SWAP1 DUP4 MSTORE PUSH1 0x20 DUP4 ADD SWAP2 SWAP1 SWAP2 MSTORE PUSH1 0x40 DUP3 ADD MSTORE PUSH1 0x60 ADD SWAP1 JUMP JUMPDEST PUSH1 0x40 MLOAD DUP1 SWAP2 SUB SWAP1 LOG2 POP PUSH1 0x9B SLOAD PUSH2 0x72F JUMP JUMPDEST PUSH1 0x9B SLOAD PUSH1 0x0 SWAP1 DUP2 DUP5 SLT ISZERO PUSH2 0x1260 JUMPI PUSH2 0x124F DUP5 PUSH2 0x2D95 JUMP JUMPDEST PUSH2 0x1259 SWAP1 DUP3 PUSH2 0x4ED7 JUMP JUMPDEST SWAP2 POP PUSH2 0x1286 JUMP JUMPDEST PUSH2 0x126A DUP5 DUP3 PUSH2 0x4D65 JUMP JUMPDEST SWAP2 POP PUSH1 0x1 PUSH1 0x1 PUSH1 0x80 SHL SUB DUP3 GT ISZERO PUSH2 0x1286 JUMPI PUSH1 0x1 PUSH1 0x1 PUSH1 0x80 SHL SUB SWAP2 POP JUMPDEST DUP2 DUP2 PUSH1 0x9C SLOAD PUSH2 0x1295 SWAP2 SWAP1 PUSH2 0x4EB8 JUMP JUMPDEST PUSH2 0x129F SWAP2 SWAP1 PUSH2 0x4D7D JUMP JUMPDEST PUSH1 0x9C SSTORE PUSH2 0x12B5 PUSH1 0x1 PUSH1 0x1 PUSH1 0x80 SHL SUB PUSH1 0x0 NOT PUSH2 0x4D7D JUMP JUMPDEST PUSH1 0x9C SLOAD GT ISZERO PUSH2 0x12D5 JUMPI PUSH2 0x12D1 PUSH1 0x1 PUSH1 0x1 PUSH1 0x80 SHL SUB PUSH1 0x0 NOT PUSH2 0x4D7D JUMP JUMPDEST PUSH1 0x9C SSTORE JUMPDEST PUSH1 0x9B DUP3 SWAP1 SSTORE TIMESTAMP PUSH1 0x9D SSTORE PUSH1 0xA4 SLOAD PUSH1 0x40 DUP1 MLOAD PUSH4 0xC12C2A5 PUSH1 0xE3 SHL DUP2 MSTORE SWAP1 MLOAD PUSH1 0x1 PUSH1 0x1 PUSH1 0xA0 SHL SUB SWAP1 SWAP3 AND SWAP2 PUSH4 0x60961528 SWAP2 PUSH1 0x4 DUP1 DUP3 ADD SWAP3 PUSH1 0x20 SWAP3 SWAP1 SWAP2 SWAP1 DUP3 SWAP1 SUB ADD DUP2 DUP7 DUP1 EXTCODESIZE ISZERO DUP1 ISZERO PUSH2 0x1323 JUMPI PUSH1 0x0 DUP1 REVERT JUMPDEST POP GAS STATICCALL ISZERO DUP1 ISZERO PUSH2 0x1337 JUMPI RETURNDATASIZE PUSH1 0x0 DUP1 RETURNDATACOPY RETURNDATASIZE PUSH1 0x0 REVERT JUMPDEST POP POP POP POP PUSH1 0x40 MLOAD RETURNDATASIZE PUSH1 0x1F NOT PUSH1 0x1F DUP3 ADD AND DUP3 ADD DUP1 PUSH1 0x40 MSTORE POP DUP2 ADD SWAP1 PUSH2 0x135B SWAP2 SWAP1 PUSH2 0x46CE JUMP JUMPDEST PUSH1 0xA6 SLOAD PUSH1 0x40 MLOAD PUSH4 0x41976E09 PUSH1 0xE0 SHL DUP2 MSTORE PUSH1 0x1 PUSH1 0x1 PUSH1 0xA0 SHL SUB SWAP2 DUP3 AND PUSH1 0x4 DUP3 ADD MSTORE SWAP2 AND SWAP1 PUSH4 0x41976E09 SWAP1 PUSH1 0x24 ADD PUSH1 0x40 DUP1 MLOAD DUP1 DUP4 SUB DUP2 DUP7 DUP1 EXTCODESIZE ISZERO DUP1 ISZERO PUSH2 0x139E JUMPI PUSH1 0x0 DUP1 REVERT JUMPDEST POP GAS STATICCALL ISZERO DUP1 ISZERO PUSH2 0x13B2 JUMPI RETURNDATASIZE PUSH1 0x0 DUP1 RETURNDATACOPY RETURNDATASIZE PUSH1 0x0 REVERT JUMPDEST POP POP POP POP PUSH1 0x40 MLOAD RETURNDATASIZE PUSH1 0x1F NOT PUSH1 0x1F DUP3 ADD AND DUP3 ADD DUP1 PUSH1 0x40 MSTORE POP DUP2 ADD SWAP1 PUSH2 0x13D6 SWAP2 SWAP1 PUSH2 0x49C2 JUMP JUMPDEST POP PUSH1 0x9E DUP2 SWAP1 SSTORE PUSH1 0x9D SLOAD PUSH1 0x40 DUP1 MLOAD SWAP2 DUP3 MSTORE PUSH1 0x20 DUP3 ADD SWAP3 SWAP1 SWAP3 MSTORE SWAP1 DUP2 ADD DUP4 SWAP1 MSTORE DUP6 SWAP1 PUSH32 0xA9219328B62D2057317E0A7D7634032C7CACA3F5B8230D51B25E957EFC67DBF4 SWAP1 PUSH1 0x60 ADD PUSH1 0x40 MLOAD DUP1 SWAP2 SUB SWAP1 LOG2 POP SWAP4 SWAP3 POP POP POP JUMP JUMPDEST PUSH1 0x0 DUP2 PUSH1 0x1 PUSH1 0x1 PUSH1 0xA0 SHL SUB DUP2 AND PUSH2 0x1454 JUMPI PUSH1 0x40 MLOAD PUSH3 0x461BCD PUSH1 0xE5 SHL DUP2 MSTORE PUSH1 0x4 ADD PUSH2 0x774 SWAP1 PUSH2 0x4C7C JUMP JUMPDEST PUSH20 0xEB31973E0FEBF3E3D7058234A5EBBAE1AB4B8C23 PUSH1 0x1 PUSH1 0x1 PUSH1 0xA0 SHL SUB DUP3 AND EQ ISZERO PUSH2 0x1491 JUMPI PUSH1 0x40 MLOAD PUSH3 0x461BCD PUSH1 0xE5 SHL DUP2 MSTORE PUSH1 0x4 ADD PUSH2 0x774 SWAP1 PUSH2 0x4C34 JUMP JUMPDEST PUSH1 0x1 PUSH1 0x1 PUSH1 0xA0 SHL SUB DUP5 AND PUSH1 0x0 SWAP1 DUP2 MSTORE PUSH1 0xA1 PUSH1 0x20 MSTORE PUSH1 0x40 DUP2 KECCAK256 SLOAD PUSH1 0x9C SLOAD SWAP1 SWAP2 SWAP1 PUSH2 0x14BA SWAP1 DUP4 PUSH2 0x4D7D JUMP JUMPDEST PUSH1 0x1 PUSH1 0x1 PUSH1 0xA0 SHL SUB DUP8 AND PUSH1 0x0 SWAP1 DUP2 MSTORE PUSH1 0xA2 PUSH1 0x20 SWAP1 DUP2 MSTORE PUSH1 0x40 DUP1 DUP4 KECCAK256 CALLER DUP5 MSTORE SWAP1 SWAP2 MSTORE SWAP1 KECCAK256 SLOAD SWAP1 SWAP2 POP PUSH1 0x0 NOT EQ PUSH2 0x153D JUMPI PUSH1 0x1 PUSH1 0x1 PUSH1 0xA0 SHL SUB DUP7 AND PUSH1 0x0 SWAP1 DUP2 MSTORE PUSH1 0xA2 PUSH1 0x20 SWAP1 DUP2 MSTORE PUSH1 0x40 DUP1 DUP4 KECCAK256 CALLER DUP5 MSTORE SWAP1 SWAP2 MSTORE SWAP1 KECCAK256 SLOAD PUSH2 0x1518 SWAP1 DUP3 SWAP1 PUSH2 0x4ED7 JUMP JUMPDEST PUSH1 0x1 PUSH1 0x1 PUSH1 0xA0 SHL SUB DUP8 AND PUSH1 0x0 SWAP1 DUP2 MSTORE PUSH1 0xA2 PUSH1 0x20 SWAP1 DUP2 MSTORE PUSH1 0x40 DUP1 DUP4 KECCAK256 CALLER DUP5 MSTORE SWAP1 SWAP2 MSTORE SWAP1 KECCAK256 SSTORE JUMPDEST PUSH1 0x1 PUSH1 0x1 PUSH1 0xA0 SHL SUB DUP1 DUP8 AND PUSH1 0x0 SWAP1 DUP2 MSTORE PUSH1 0xA1 PUSH1 0x20 MSTORE PUSH1 0x40 DUP1 DUP3 KECCAK256 DUP3 SWAP1 SSTORE SWAP2 DUP8 AND DUP2 MSTORE KECCAK256 SLOAD PUSH2 0x156C SWAP1 DUP4 SWAP1 PUSH2 0x4D65 JUMP JUMPDEST PUSH1 0x1 PUSH1 0x1 PUSH1 0xA0 SHL SUB DUP1 DUP8 AND PUSH1 0x0 DUP2 DUP2 MSTORE PUSH1 0xA1 PUSH1 0x20 MSTORE PUSH1 0x40 SWAP1 DUP2 SWAP1 KECCAK256 SWAP4 SWAP1 SWAP4 SSTORE SWAP2 MLOAD SWAP1 DUP9 AND SWAP1 PUSH1 0x0 DUP1 MLOAD PUSH1 0x20 PUSH2 0x5010 DUP4 CODECOPY DUP2 MLOAD SWAP2 MSTORE SWAP1 PUSH2 0x9A0 SWAP1 DUP6 DUP2 MSTORE PUSH1 0x20 ADD SWAP1 JUMP JUMPDEST PUSH1 0x0 SLOAD PUSH2 0x100 SWAP1 DIV PUSH1 0xFF AND DUP1 PUSH2 0x15C3 JUMPI POP ADDRESS EXTCODESIZE ISZERO JUMPDEST DUP1 PUSH2 0x15D1 JUMPI POP PUSH1 0x0 SLOAD PUSH1 0xFF AND ISZERO JUMPDEST PUSH2 0x15ED JUMPI PUSH1 0x40 MLOAD PUSH3 0x461BCD PUSH1 0xE5 SHL DUP2 MSTORE PUSH1 0x4 ADD PUSH2 0x774 SWAP1 PUSH2 0x4CBE JUMP JUMPDEST PUSH1 0x0 DUP1 SLOAD PUSH2 0xFFFF NOT DUP2 AND PUSH2 0x101 OR DUP3 SSTORE PUSH2 0x100 SWAP1 DIV PUSH1 0xFF AND SWAP1 PUSH1 0x60 SWAP1 DUP2 SWAP1 DUP5 PUSH1 0x1 DUP2 GT ISZERO PUSH2 0x162B JUMPI PUSH4 0x4E487B71 PUSH1 0xE0 SHL PUSH1 0x0 MSTORE PUSH1 0x21 PUSH1 0x4 MSTORE PUSH1 0x24 PUSH1 0x0 REVERT JUMPDEST EQ ISZERO PUSH2 0x1888 JUMPI PUSH2 0x163D DUP6 PUSH1 0xFF AND PUSH2 0x2DBF JUMP JUMPDEST PUSH1 0x40 MLOAD PUSH4 0x7D85959B PUSH1 0xE1 SHL DUP2 MSTORE PUSH1 0x1 PUSH1 0x1 PUSH1 0xA0 SHL SUB DUP9 DUP2 AND PUSH1 0x4 DUP4 ADD MSTORE DUP11 AND SWAP1 PUSH4 0xFB0B2B36 SWAP1 PUSH1 0x24 ADD PUSH1 0x0 PUSH1 0x40 MLOAD DUP1 DUP4 SUB DUP2 DUP7 DUP1 EXTCODESIZE ISZERO DUP1 ISZERO PUSH2 0x167E JUMPI PUSH1 0x0 DUP1 REVERT JUMPDEST POP GAS STATICCALL ISZERO DUP1 ISZERO PUSH2 0x1692 JUMPI RETURNDATASIZE PUSH1 0x0 DUP1 RETURNDATACOPY RETURNDATASIZE PUSH1 0x0 REVERT JUMPDEST POP POP POP POP PUSH1 0x40 MLOAD RETURNDATASIZE PUSH1 0x0 DUP3 RETURNDATACOPY PUSH1 0x1F RETURNDATASIZE SWAP1 DUP2 ADD PUSH1 0x1F NOT AND DUP3 ADD PUSH1 0x40 MSTORE PUSH2 0x16BA SWAP2 SWAP1 DUP2 ADD SWAP1 PUSH2 0x48B9 JUMP JUMPDEST PUSH1 0x40 MLOAD PUSH4 0x7D85959B PUSH1 0xE1 SHL DUP2 MSTORE PUSH1 0x1 PUSH1 0x1 PUSH1 0xA0 SHL SUB DUP11 DUP2 AND PUSH1 0x4 DUP4 ADD MSTORE DUP12 AND SWAP1 PUSH4 0xFB0B2B36 SWAP1 PUSH1 0x24 ADD PUSH1 0x0 PUSH1 0x40 MLOAD DUP1 DUP4 SUB DUP2 DUP7 DUP1 EXTCODESIZE ISZERO DUP1 ISZERO PUSH2 0x16FB JUMPI PUSH1 0x0 DUP1 REVERT JUMPDEST POP GAS STATICCALL ISZERO DUP1 ISZERO PUSH2 0x170F JUMPI RETURNDATASIZE PUSH1 0x0 DUP1 RETURNDATACOPY RETURNDATASIZE PUSH1 0x0 REVERT JUMPDEST POP POP POP POP PUSH1 0x40 MLOAD RETURNDATASIZE PUSH1 0x0 DUP3 RETURNDATACOPY PUSH1 0x1F RETURNDATASIZE SWAP1 DUP2 ADD PUSH1 0x1F NOT AND DUP3 ADD PUSH1 0x40 MSTORE PUSH2 0x1737 SWAP2 SWAP1 DUP2 ADD SWAP1 PUSH2 0x48B9 JUMP JUMPDEST PUSH1 0x40 MLOAD PUSH1 0x20 ADD PUSH2 0x1749 SWAP4 SWAP3 SWAP2 SWAP1 PUSH2 0x4AC6 JUMP JUMPDEST PUSH1 0x40 MLOAD PUSH1 0x20 DUP2 DUP4 SUB SUB DUP2 MSTORE SWAP1 PUSH1 0x40 MSTORE SWAP2 POP PUSH2 0x1766 DUP6 PUSH1 0xFF AND PUSH2 0x2DBF JUMP JUMPDEST PUSH1 0x40 MLOAD PUSH4 0x7D85959B PUSH1 0xE1 SHL DUP2 MSTORE PUSH1 0x1 PUSH1 0x1 PUSH1 0xA0 SHL SUB DUP9 DUP2 AND PUSH1 0x4 DUP4 ADD MSTORE DUP11 AND SWAP1 PUSH4 0xFB0B2B36 SWAP1 PUSH1 0x24 ADD PUSH1 0x0 PUSH1 0x40 MLOAD DUP1 DUP4 SUB DUP2 DUP7 DUP1 EXTCODESIZE ISZERO DUP1 ISZERO PUSH2 0x17A7 JUMPI PUSH1 0x0 DUP1 REVERT JUMPDEST POP GAS STATICCALL ISZERO DUP1 ISZERO PUSH2 0x17BB JUMPI RETURNDATASIZE PUSH1 0x0 DUP1 RETURNDATACOPY RETURNDATASIZE PUSH1 0x0 REVERT JUMPDEST POP POP POP POP PUSH1 0x40 MLOAD RETURNDATASIZE PUSH1 0x0 DUP3 RETURNDATACOPY PUSH1 0x1F RETURNDATASIZE SWAP1 DUP2 ADD PUSH1 0x1F NOT AND DUP3 ADD PUSH1 0x40 MSTORE PUSH2 0x17E3 SWAP2 SWAP1 DUP2 ADD SWAP1 PUSH2 0x48B9 JUMP JUMPDEST PUSH1 0x40 MLOAD PUSH4 0x7D85959B PUSH1 0xE1 SHL DUP2 MSTORE PUSH1 0x1 PUSH1 0x1 PUSH1 0xA0 SHL SUB DUP11 DUP2 AND PUSH1 0x4 DUP4 ADD MSTORE DUP12 AND SWAP1 PUSH4 0xFB0B2B36 SWAP1 PUSH1 0x24 ADD PUSH1 0x0 PUSH1 0x40 MLOAD DUP1 DUP4 SUB DUP2 DUP7 DUP1 EXTCODESIZE ISZERO DUP1 ISZERO PUSH2 0x1824 JUMPI PUSH1 0x0 DUP1 REVERT JUMPDEST POP GAS STATICCALL ISZERO DUP1 ISZERO PUSH2 0x1838 JUMPI RETURNDATASIZE PUSH1 0x0 DUP1 RETURNDATACOPY RETURNDATASIZE PUSH1 0x0 REVERT JUMPDEST POP POP POP POP PUSH1 0x40 MLOAD RETURNDATASIZE PUSH1 0x0 DUP3 RETURNDATACOPY PUSH1 0x1F RETURNDATASIZE SWAP1 DUP2 ADD PUSH1 0x1F NOT AND DUP3 ADD PUSH1 0x40 MSTORE PUSH2 0x1860 SWAP2 SWAP1 DUP2 ADD SWAP1 PUSH2 0x48B9 JUMP JUMPDEST PUSH1 0x40 MLOAD PUSH1 0x20 ADD PUSH2 0x1872 SWAP4 SWAP3 SWAP2 SWAP1 PUSH2 0x4B37 JUMP JUMPDEST PUSH1 0x40 MLOAD PUSH1 0x20 DUP2 DUP4 SUB SUB DUP2 MSTORE SWAP1 PUSH1 0x40 MSTORE SWAP1 POP PUSH2 0x1B2C JUMP JUMPDEST PUSH1 0x1 DUP5 PUSH1 0x1 DUP2 GT ISZERO PUSH2 0x18AA JUMPI PUSH4 0x4E487B71 PUSH1 0xE0 SHL PUSH1 0x0 MSTORE PUSH1 0x21 PUSH1 0x4 MSTORE PUSH1 0x24 PUSH1 0x0 REVERT JUMPDEST EQ ISZERO PUSH2 0x1AF1 JUMPI PUSH2 0x18BC DUP6 PUSH1 0xFF AND PUSH2 0x2DBF JUMP JUMPDEST PUSH1 0x40 MLOAD PUSH4 0x7D85959B PUSH1 0xE1 SHL DUP2 MSTORE PUSH1 0x1 PUSH1 0x1 PUSH1 0xA0 SHL SUB DUP9 DUP2 AND PUSH1 0x4 DUP4 ADD MSTORE DUP11 AND SWAP1 PUSH4 0xFB0B2B36 SWAP1 PUSH1 0x24 ADD PUSH1 0x0 PUSH1 0x40 MLOAD DUP1 DUP4 SUB DUP2 DUP7 DUP1 EXTCODESIZE ISZERO DUP1 ISZERO PUSH2 0x18FD JUMPI PUSH1 0x0 DUP1 REVERT JUMPDEST POP GAS STATICCALL ISZERO DUP1 ISZERO PUSH2 0x1911 JUMPI RETURNDATASIZE PUSH1 0x0 DUP1 RETURNDATACOPY RETURNDATASIZE PUSH1 0x0 REVERT JUMPDEST POP POP POP POP PUSH1 0x40 MLOAD RETURNDATASIZE PUSH1 0x0 DUP3 RETURNDATACOPY PUSH1 0x1F RETURNDATASIZE SWAP1 DUP2 ADD PUSH1 0x1F NOT AND DUP3 ADD PUSH1 0x40 MSTORE PUSH2 0x1939 SWAP2 SWAP1 DUP2 ADD SWAP1 PUSH2 0x48B9 JUMP JUMPDEST PUSH1 0x40 MLOAD PUSH4 0x7D85959B PUSH1 0xE1 SHL DUP2 MSTORE PUSH1 0x1 PUSH1 0x1 PUSH1 0xA0 SHL SUB DUP11 DUP2 AND PUSH1 0x4 DUP4 ADD MSTORE DUP12 AND SWAP1 PUSH4 0xFB0B2B36 SWAP1 PUSH1 0x24 ADD PUSH1 0x0 PUSH1 0x40 MLOAD DUP1 DUP4 SUB DUP2 DUP7 DUP1 EXTCODESIZE ISZERO DUP1 ISZERO PUSH2 0x197A JUMPI PUSH1 0x0 DUP1 REVERT JUMPDEST POP GAS STATICCALL ISZERO DUP1 ISZERO PUSH2 0x198E JUMPI RETURNDATASIZE PUSH1 0x0 DUP1 RETURNDATACOPY RETURNDATASIZE PUSH1 0x0 REVERT JUMPDEST POP POP POP POP PUSH1 0x40 MLOAD RETURNDATASIZE PUSH1 0x0 DUP3 RETURNDATACOPY PUSH1 0x1F RETURNDATASIZE SWAP1 DUP2 ADD PUSH1 0x1F NOT AND DUP3 ADD PUSH1 0x40 MSTORE PUSH2 0x19B6 SWAP2 SWAP1 DUP2 ADD SWAP1 PUSH2 0x48B9 JUMP JUMPDEST PUSH1 0x40 MLOAD PUSH1 0x20 ADD PUSH2 0x19C8 SWAP4 SWAP3 SWAP2 SWAP1 PUSH2 0x4A66 JUMP JUMPDEST PUSH1 0x40 MLOAD PUSH1 0x20 DUP2 DUP4 SUB SUB DUP2 MSTORE SWAP1 PUSH1 0x40 MSTORE SWAP2 POP PUSH2 0x19E5 DUP6 PUSH1 0xFF AND PUSH2 0x2DBF JUMP JUMPDEST PUSH1 0x40 MLOAD PUSH4 0x7D85959B PUSH1 0xE1 SHL DUP2 MSTORE PUSH1 0x1 PUSH1 0x1 PUSH1 0xA0 SHL SUB DUP9 DUP2 AND PUSH1 0x4 DUP4 ADD MSTORE DUP11 AND SWAP1 PUSH4 0xFB0B2B36 SWAP1 PUSH1 0x24 ADD PUSH1 0x0 PUSH1 0x40 MLOAD DUP1 DUP4 SUB DUP2 DUP7 DUP1 EXTCODESIZE ISZERO DUP1 ISZERO PUSH2 0x1A26 JUMPI PUSH1 0x0 DUP1 REVERT JUMPDEST POP GAS STATICCALL ISZERO DUP1 ISZERO PUSH2 0x1A3A JUMPI RETURNDATASIZE PUSH1 0x0 DUP1 RETURNDATACOPY RETURNDATASIZE PUSH1 0x0 REVERT JUMPDEST POP POP POP POP PUSH1 0x40 MLOAD RETURNDATASIZE PUSH1 0x0 DUP3 RETURNDATACOPY PUSH1 0x1F RETURNDATASIZE SWAP1 DUP2 ADD PUSH1 0x1F NOT AND DUP3 ADD PUSH1 0x40 MSTORE PUSH2 0x1A62 SWAP2 SWAP1 DUP2 ADD SWAP1 PUSH2 0x48B9 JUMP JUMPDEST PUSH1 0x40 MLOAD PUSH4 0x7D85959B PUSH1 0xE1 SHL DUP2 MSTORE PUSH1 0x1 PUSH1 0x1 PUSH1 0xA0 SHL SUB DUP11 DUP2 AND PUSH1 0x4 DUP4 ADD MSTORE DUP12 AND SWAP1 PUSH4 0xFB0B2B36 SWAP1 PUSH1 0x24 ADD PUSH1 0x0 PUSH1 0x40 MLOAD DUP1 DUP4 SUB DUP2 DUP7 DUP1 EXTCODESIZE ISZERO DUP1 ISZERO PUSH2 0x1AA3 JUMPI PUSH1 0x0 DUP1 REVERT JUMPDEST POP GAS STATICCALL ISZERO DUP1 ISZERO PUSH2 0x1AB7 JUMPI RETURNDATASIZE PUSH1 0x0 DUP1 RETURNDATACOPY RETURNDATASIZE PUSH1 0x0 REVERT JUMPDEST POP POP POP POP PUSH1 0x40 MLOAD RETURNDATASIZE PUSH1 0x0 DUP3 RETURNDATACOPY PUSH1 0x1F RETURNDATASIZE SWAP1 DUP2 ADD PUSH1 0x1F NOT AND DUP3 ADD PUSH1 0x40 MSTORE PUSH2 0x1ADF SWAP2 SWAP1 DUP2 ADD SWAP1 PUSH2 0x48B9 JUMP JUMPDEST PUSH1 0x40 MLOAD PUSH1 0x20 ADD PUSH2 0x1872 SWAP4 SWAP3 SWAP2 SWAP1 PUSH2 0x4A23 JUMP JUMPDEST PUSH1 0x40 MLOAD PUSH3 0x461BCD PUSH1 0xE5 SHL DUP2 MSTORE PUSH1 0x20 PUSH1 0x4 DUP3 ADD MSTORE PUSH1 0x10 PUSH1 0x24 DUP3 ADD MSTORE PUSH16 0x434242433A2057524F4E475F54595045 PUSH1 0x80 SHL PUSH1 0x44 DUP3 ADD MSTORE PUSH1 0x64 ADD PUSH2 0x774 JUMP JUMPDEST PUSH2 0x1B38 DUP3 DUP3 PUSH1 0x12 PUSH2 0x735 JUMP JUMPDEST PUSH2 0x1B41 CALLER PUSH2 0x207D JUMP JUMPDEST PUSH1 0xA3 DUP1 SLOAD PUSH1 0x1 PUSH1 0x1 PUSH1 0xA0 SHL SUB NOT SWAP1 DUP2 AND PUSH1 0x1 PUSH1 0x1 PUSH1 0xA0 SHL SUB DUP12 DUP2 AND SWAP2 SWAP1 SWAP2 OR SWAP1 SWAP3 SSTORE PUSH1 0xA7 DUP1 SLOAD PUSH1 0xA6 DUP1 SLOAD SWAP1 SWAP4 AND DUP11 DUP6 AND OR SWAP1 SWAP3 SSTORE SWAP2 DUP10 AND PUSH1 0x1 PUSH1 0x1 PUSH1 0xA8 SHL SUB NOT SWAP1 SWAP2 AND OR PUSH1 0x1 PUSH1 0xA0 SHL PUSH1 0xFF DUP9 AND MUL OR DUP1 DUP3 SSTORE DUP6 SWAP2 SWAP1 PUSH1 0xFF PUSH1 0xA8 SHL NOT AND PUSH1 0x1 PUSH1 0xA8 SHL DUP4 PUSH1 0x1 DUP2 GT ISZERO PUSH2 0x1BC2 JUMPI PUSH4 0x4E487B71 PUSH1 0xE0 SHL PUSH1 0x0 MSTORE PUSH1 0x21 PUSH1 0x4 MSTORE PUSH1 0x24 PUSH1 0x0 REVERT JUMPDEST MUL OR SWAP1 SSTORE POP PUSH1 0xA7 SLOAD PUSH1 0xA6 SLOAD PUSH1 0x40 MLOAD PUSH4 0xB5663A99 PUSH1 0xE0 SHL DUP2 MSTORE PUSH1 0x1 PUSH1 0x1 PUSH1 0xA0 SHL SUB DUP1 DUP13 AND SWAP4 PUSH4 0xB5663A99 SWAP4 PUSH2 0x1C19 SWAP4 DUP3 DUP5 AND SWAP4 SWAP2 SWAP1 SWAP2 AND SWAP2 PUSH1 0xFF PUSH1 0x1 PUSH1 0xA0 SHL DUP3 DIV DUP2 AND SWAP3 PUSH1 0x1 PUSH1 0xA8 SHL SWAP1 SWAP3 DIV AND SWAP1 ADDRESS SWAP1 PUSH1 0x4 ADD PUSH2 0x4B8A JUMP JUMPDEST PUSH1 0x0 PUSH1 0x40 MLOAD DUP1 DUP4 SUB DUP2 PUSH1 0x0 DUP8 DUP1 EXTCODESIZE ISZERO DUP1 ISZERO PUSH2 0x1C33 JUMPI PUSH1 0x0 DUP1 REVERT JUMPDEST POP GAS CALL ISZERO DUP1 ISZERO PUSH2 0x1C47 JUMPI RETURNDATASIZE PUSH1 0x0 DUP1 RETURNDATACOPY RETURNDATASIZE PUSH1 0x0 REVERT JUMPDEST POP POP PUSH1 0xA6 SLOAD PUSH1 0xA7 SLOAD PUSH1 0x40 MLOAD PUSH1 0x1 PUSH1 0x1 PUSH1 0xA0 SHL SUB SWAP3 DUP4 AND SWAP5 POP SWAP2 DUP2 AND SWAP3 POP PUSH32 0xCA8075CEFDC80BB9531729CB4DFB80AAA9CB4932AF090E52CFBDDD81C187AD8E SWAP2 PUSH2 0x1CA6 SWAP2 ADDRESS SWAP2 PUSH1 0xFF PUSH1 0x1 PUSH1 0xA0 SHL DUP4 DIV DUP2 AND SWAP3 PUSH1 0x1 PUSH1 0xA8 SHL SWAP1 DIV AND SWAP1 PUSH2 0x4BCD JUMP JUMPDEST PUSH1 0x40 MLOAD DUP1 SWAP2 SUB SWAP1 LOG3 POP POP PUSH1 0xA7 DUP1 SLOAD PUSH2 0xFFFF PUSH1 0xB0 SHL NOT AND SWAP1 SSTORE PUSH1 0x0 DUP1 SLOAD SWAP2 ISZERO ISZERO PUSH2 0x100 MUL PUSH2 0xFF00 NOT SWAP1 SWAP3 AND SWAP2 SWAP1 SWAP2 OR SWAP1 SSTORE POP POP POP POP POP JUMP JUMPDEST PUSH1 0x60 PUSH1 0x34 DUP1 SLOAD PUSH2 0x656 SWAP1 PUSH2 0x4F1E JUMP JUMPDEST PUSH1 0x0 PUSH1 0x9B SLOAD PUSH1 0x0 EQ ISZERO PUSH2 0x1D0C JUMPI PUSH2 0x1D05 PUSH1 0x12 PUSH1 0xA PUSH2 0x4DD7 JUMP JUMPDEST SWAP1 POP PUSH2 0x6D7 JUMP JUMPDEST PUSH2 0x1D05 ADDRESS PUSH1 0x0 DUP1 PUSH1 0x0 PUSH2 0x2F55 JUMP JUMPDEST PUSH1 0x0 DUP2 PUSH1 0x1 PUSH1 0x1 PUSH1 0xA0 SHL SUB DUP2 AND PUSH2 0x1D43 JUMPI PUSH1 0x40 MLOAD PUSH3 0x461BCD PUSH1 0xE5 SHL DUP2 MSTORE PUSH1 0x4 ADD PUSH2 0x774 SWAP1 PUSH2 0x4C7C JUMP JUMPDEST PUSH20 0xEB31973E0FEBF3E3D7058234A5EBBAE1AB4B8C23 PUSH1 0x1 PUSH1 0x1 PUSH1 0xA0 SHL SUB DUP3 AND EQ ISZERO PUSH2 0x1D80 JUMPI PUSH1 0x40 MLOAD PUSH3 0x461BCD PUSH1 0xE5 SHL DUP2 MSTORE PUSH1 0x4 ADD PUSH2 0x774 SWAP1 PUSH2 0x4C34 JUMP JUMPDEST CALLER PUSH1 0x0 SWAP1 DUP2 MSTORE PUSH1 0xA1 PUSH1 0x20 MSTORE PUSH1 0x40 DUP2 KECCAK256 SLOAD PUSH1 0x9C SLOAD SWAP1 SWAP2 SWAP1 PUSH2 0x1DA0 SWAP1 DUP4 PUSH2 0x4D7D JUMP JUMPDEST CALLER PUSH1 0x0 SWAP1 DUP2 MSTORE PUSH1 0xA1 PUSH1 0x20 MSTORE PUSH1 0x40 DUP1 DUP3 KECCAK256 DUP3 SWAP1 SSTORE PUSH1 0x1 PUSH1 0x1 PUSH1 0xA0 SHL SUB DUP9 AND DUP3 MSTORE SWAP1 KECCAK256 SLOAD SWAP1 SWAP2 POP PUSH2 0x1DD0 SWAP1 DUP4 SWAP1 PUSH2 0x4D65 JUMP JUMPDEST PUSH1 0x1 PUSH1 0x1 PUSH1 0xA0 SHL SUB DUP7 AND PUSH1 0x0 DUP2 DUP2 MSTORE PUSH1 0xA1 PUSH1 0x20 MSTORE PUSH1 0x40 SWAP1 DUP2 SWAP1 KECCAK256 SWAP3 SWAP1 SWAP3 SSTORE SWAP1 MLOAD CALLER SWAP1 PUSH1 0x0 DUP1 MLOAD PUSH1 0x20 PUSH2 0x5010 DUP4 CODECOPY DUP2 MLOAD SWAP2 MSTORE SWAP1 PUSH2 0x1E0F SWAP1 DUP6 DUP2 MSTORE PUSH1 0x20 ADD SWAP1 JUMP JUMPDEST PUSH1 0x40 MLOAD DUP1 SWAP2 SUB SWAP1 LOG3 PUSH1 0x1 SWAP4 POP POP POP JUMPDEST POP SWAP2 SWAP1 POP JUMP JUMPDEST CALLER PUSH1 0x0 SWAP1 DUP2 MSTORE PUSH1 0xA2 PUSH1 0x20 SWAP1 DUP2 MSTORE PUSH1 0x40 DUP1 DUP4 KECCAK256 PUSH1 0x1 PUSH1 0x1 PUSH1 0xA0 SHL SUB DUP7 AND DUP5 MSTORE SWAP1 SWAP2 MSTORE DUP2 KECCAK256 SLOAD PUSH1 0x0 NOT DUP2 EQ PUSH2 0x1E90 JUMPI DUP1 DUP4 LT ISZERO PUSH2 0x1E68 JUMPI PUSH2 0x1E63 DUP4 DUP3 PUSH2 0x4ED7 JUMP JUMPDEST PUSH2 0x1E6B JUMP JUMPDEST PUSH1 0x0 JUMPDEST CALLER PUSH1 0x0 SWAP1 DUP2 MSTORE PUSH1 0xA2 PUSH1 0x20 SWAP1 DUP2 MSTORE PUSH1 0x40 DUP1 DUP4 KECCAK256 PUSH1 0x1 PUSH1 0x1 PUSH1 0xA0 SHL SUB DUP10 AND DUP5 MSTORE SWAP1 SWAP2 MSTORE SWAP1 KECCAK256 SSTORE JUMPDEST CALLER PUSH1 0x0 DUP2 DUP2 MSTORE PUSH1 0xA2 PUSH1 0x20 SWAP1 DUP2 MSTORE PUSH1 0x40 DUP1 DUP4 KECCAK256 PUSH1 0x1 PUSH1 0x1 PUSH1 0xA0 SHL SUB DUP10 AND DUP1 DUP6 MSTORE SWAP1 DUP4 MSTORE SWAP3 DUP2 SWAP1 KECCAK256 SLOAD SWAP1 MLOAD SWAP1 DUP2 MSTORE SWAP2 SWAP3 SWAP2 PUSH1 0x0 DUP1 MLOAD PUSH1 0x20 PUSH2 0x5030 DUP4 CODECOPY DUP2 MLOAD SWAP2 MSTORE SWAP2 ADD PUSH1 0x40 MLOAD DUP1 SWAP2 SUB SWAP1 LOG3 POP PUSH1 0x1 SWAP4 SWAP3 POP POP POP JUMP JUMPDEST PUSH1 0x0 DUP3 PUSH1 0x1 PUSH1 0x1 PUSH1 0xA0 SHL SUB DUP2 AND PUSH2 0x1F0B JUMPI PUSH1 0x40 MLOAD PUSH3 0x461BCD PUSH1 0xE5 SHL DUP2 MSTORE PUSH1 0x4 ADD PUSH2 0x774 SWAP1 PUSH2 0x4C7C JUMP JUMPDEST PUSH20 0xEB31973E0FEBF3E3D7058234A5EBBAE1AB4B8C23 PUSH1 0x1 PUSH1 0x1 PUSH1 0xA0 SHL SUB DUP3 AND EQ ISZERO PUSH2 0x1F48 JUMPI PUSH1 0x40 MLOAD PUSH3 0x461BCD PUSH1 0xE5 SHL DUP2 MSTORE PUSH1 0x4 ADD PUSH2 0x774 SWAP1 PUSH2 0x4C34 JUMP JUMPDEST PUSH1 0x0 PUSH1 0x9C SLOAD DUP5 PUSH2 0x1F58 SWAP2 SWAP1 PUSH2 0x4EB8 JUMP JUMPDEST CALLER PUSH1 0x0 SWAP1 DUP2 MSTORE PUSH1 0xA1 PUSH1 0x20 MSTORE PUSH1 0x40 SWAP1 KECCAK256 SLOAD SWAP1 SWAP2 POP PUSH2 0x1F76 SWAP1 DUP3 SWAP1 PUSH2 0x4ED7 JUMP JUMPDEST CALLER PUSH1 0x0 SWAP1 DUP2 MSTORE PUSH1 0xA1 PUSH1 0x20 MSTORE PUSH1 0x40 DUP1 DUP3 KECCAK256 SWAP3 SWAP1 SWAP3 SSTORE PUSH1 0x1 PUSH1 0x1 PUSH1 0xA0 SHL SUB DUP8 AND DUP2 MSTORE KECCAK256 SLOAD PUSH2 0x1FA3 SWAP1 DUP3 SWAP1 PUSH2 0x4D65 JUMP JUMPDEST PUSH1 0x1 PUSH1 0x1 PUSH1 0xA0 SHL SUB DUP7 AND PUSH1 0x0 DUP2 DUP2 MSTORE PUSH1 0xA1 PUSH1 0x20 MSTORE PUSH1 0x40 SWAP1 DUP2 SWAP1 KECCAK256 SWAP3 SWAP1 SWAP3 SSTORE SWAP1 MLOAD CALLER SWAP1 PUSH1 0x0 DUP1 MLOAD PUSH1 0x20 PUSH2 0x5010 DUP4 CODECOPY DUP2 MLOAD SWAP2 MSTORE SWAP1 PUSH2 0x1FE2 SWAP1 DUP9 DUP2 MSTORE PUSH1 0x20 ADD SWAP1 JUMP JUMPDEST PUSH1 0x40 MLOAD DUP1 SWAP2 SUB SWAP1 LOG3 POP PUSH1 0x1 SWAP5 SWAP4 POP POP POP POP JUMP JUMPDEST PUSH1 0x0 PUSH1 0x9C SLOAD PUSH1 0x9B SLOAD PUSH2 0x2007 SWAP2 SWAP1 PUSH2 0x4EB8 JUMP JUMPDEST SWAP1 POP SWAP1 JUMP JUMPDEST PUSH2 0x2020 PUSH1 0x68 SLOAD PUSH1 0x1 PUSH1 0x1 PUSH1 0xA0 SHL SUB AND CALLER EQ SWAP1 JUMP JUMPDEST PUSH2 0x2029 JUMPI PUSH1 0x0 DUP1 REVERT JUMPDEST PUSH1 0xA5 DUP1 SLOAD PUSH1 0x1 PUSH1 0x1 PUSH1 0xA0 SHL SUB NOT AND PUSH1 0x1 PUSH1 0x1 PUSH1 0xA0 SHL SUB DUP4 AND SWAP1 DUP2 OR SWAP1 SWAP2 SSTORE PUSH1 0x40 MLOAD SWAP1 DUP2 MSTORE PUSH31 0x4A100C1311E1C30D22C9EE16306A164BE79DB67AEDEF8B90FFC4D244CD003A SWAP1 PUSH1 0x20 ADD JUMPDEST PUSH1 0x40 MLOAD DUP1 SWAP2 SUB SWAP1 LOG1 POP JUMP JUMPDEST PUSH1 0x0 SLOAD PUSH2 0x100 SWAP1 DIV PUSH1 0xFF AND DUP1 PUSH2 0x2092 JUMPI POP ADDRESS EXTCODESIZE ISZERO JUMPDEST DUP1 PUSH2 0x20A0 JUMPI POP PUSH1 0x0 SLOAD PUSH1 0xFF AND ISZERO JUMPDEST PUSH2 0x20BC JUMPI PUSH1 0x40 MLOAD PUSH3 0x461BCD PUSH1 0xE5 SHL DUP2 MSTORE PUSH1 0x4 ADD PUSH2 0x774 SWAP1 PUSH2 0x4CBE JUMP JUMPDEST PUSH1 0x0 DUP1 SLOAD PUSH1 0x68 DUP1 SLOAD PUSH1 0x1 PUSH1 0x1 PUSH1 0xA0 SHL SUB NOT AND PUSH1 0x1 PUSH1 0x1 PUSH1 0xA0 SHL SUB SWAP5 SWAP1 SWAP5 AND SWAP4 SWAP1 SWAP4 OR SWAP1 SWAP3 SSTORE PUSH2 0xFFFF NOT DUP3 AND PUSH2 0x100 SWAP3 DUP4 SWAP1 DIV PUSH1 0xFF AND ISZERO ISZERO SWAP1 SWAP3 MUL SWAP2 SWAP1 SWAP2 OR PUSH1 0x1 OR SWAP1 SSTORE JUMP JUMPDEST DUP4 TIMESTAMP GT ISZERO PUSH2 0x214A JUMPI PUSH1 0x40 MLOAD PUSH3 0x461BCD PUSH1 0xE5 SHL DUP2 MSTORE PUSH1 0x20 PUSH1 0x4 DUP3 ADD MSTORE PUSH1 0x16 PUSH1 0x24 DUP3 ADD MSTORE PUSH22 0x434242433A3A7065726D69743A204558504952454421 PUSH1 0x50 SHL PUSH1 0x44 DUP3 ADD MSTORE PUSH1 0x64 ADD PUSH2 0x774 JUMP JUMPDEST PUSH1 0x1 PUSH1 0x1 PUSH1 0xA0 SHL SUB DUP8 DUP2 AND PUSH1 0x0 DUP2 DUP2 MSTORE PUSH1 0xA0 PUSH1 0x20 DUP2 DUP2 MSTORE PUSH1 0x40 DUP1 DUP5 KECCAK256 SLOAD DUP2 MLOAD PUSH32 0x6E71EDAE12B1B97F4D1F60370FEF10105FA2FAAE0126114A169C64845D6126C9 SWAP4 DUP2 ADD SWAP4 SWAP1 SWAP4 MSTORE SWAP1 DUP3 ADD SWAP5 SWAP1 SWAP5 MSTORE SWAP4 DUP11 AND PUSH1 0x60 DUP6 ADD MSTORE PUSH1 0x80 DUP5 ADD DUP10 SWAP1 MSTORE DUP4 ADD DUP3 SWAP1 MSTORE PUSH1 0xC0 DUP4 ADD DUP8 SWAP1 MSTORE SWAP1 SWAP2 PUSH1 0xE0 ADD PUSH1 0x40 MLOAD PUSH1 0x20 DUP2 DUP4 SUB SUB DUP2 MSTORE SWAP1 PUSH1 0x40 MSTORE DUP1 MLOAD SWAP1 PUSH1 0x20 ADD KECCAK256 SWAP1 POP PUSH1 0x0 PUSH2 0x21DA PUSH2 0xBEF JUMP JUMPDEST PUSH1 0x40 MLOAD PUSH2 0x1901 PUSH1 0xF0 SHL PUSH1 0x20 DUP3 ADD MSTORE PUSH1 0x22 DUP2 ADD SWAP2 SWAP1 SWAP2 MSTORE PUSH1 0x42 DUP2 ADD DUP4 SWAP1 MSTORE PUSH1 0x62 ADD PUSH1 0x40 DUP1 MLOAD PUSH1 0x1F NOT DUP2 DUP5 SUB ADD DUP2 MSTORE DUP3 DUP3 MSTORE DUP1 MLOAD PUSH1 0x20 SWAP2 DUP3 ADD KECCAK256 PUSH1 0x0 DUP5 MSTORE SWAP1 DUP4 ADD DUP1 DUP4 MSTORE DUP2 SWAP1 MSTORE PUSH1 0xFF DUP10 AND SWAP2 DUP4 ADD SWAP2 SWAP1 SWAP2 MSTORE PUSH1 0x60 DUP3 ADD DUP8 SWAP1 MSTORE PUSH1 0x80 DUP3 ADD DUP7 SWAP1 MSTORE SWAP2 POP PUSH1 0x1 SWAP1 PUSH1 0xA0 ADD PUSH1 0x20 PUSH1 0x40 MLOAD PUSH1 0x20 DUP2 SUB SWAP1 DUP1 DUP5 SUB SWAP1 DUP6 GAS STATICCALL ISZERO DUP1 ISZERO PUSH2 0x2262 JUMPI RETURNDATASIZE PUSH1 0x0 DUP1 RETURNDATACOPY RETURNDATASIZE PUSH1 0x0 REVERT JUMPDEST POP POP POP PUSH1 0x20 PUSH1 0x40 MLOAD SUB MLOAD PUSH1 0x1 PUSH1 0x1 PUSH1 0xA0 SHL SUB AND DUP11 PUSH1 0x1 PUSH1 0x1 PUSH1 0xA0 SHL SUB AND EQ PUSH2 0x22CC JUMPI PUSH1 0x40 MLOAD PUSH3 0x461BCD PUSH1 0xE5 SHL DUP2 MSTORE PUSH1 0x20 PUSH1 0x4 DUP3 ADD MSTORE PUSH1 0x17 PUSH1 0x24 DUP3 ADD MSTORE PUSH32 0x434242433A20494E56414C49445F5349474E4154555245000000000000000000 PUSH1 0x44 DUP3 ADD MSTORE PUSH1 0x64 ADD PUSH2 0x774 JUMP JUMPDEST PUSH2 0x22D7 DUP4 PUSH1 0x1 PUSH2 0x4D65 JUMP JUMPDEST PUSH1 0x1 PUSH1 0x1 PUSH1 0xA0 SHL SUB DUP12 DUP2 AND PUSH1 0x0 DUP2 DUP2 MSTORE PUSH1 0xA0 PUSH1 0x20 SWAP1 DUP2 MSTORE PUSH1 0x40 DUP1 DUP4 KECCAK256 SWAP6 SWAP1 SWAP6 SSTORE PUSH1 0xA2 DUP2 MSTORE DUP5 DUP3 KECCAK256 SWAP4 DUP15 AND DUP1 DUP4 MSTORE SWAP4 DUP2 MSTORE SWAP1 DUP5 SWAP1 KECCAK256 DUP13 SWAP1 SSTORE SWAP3 MLOAD DUP12 DUP2 MSTORE SWAP2 SWAP3 SWAP1 SWAP2 PUSH1 0x0 DUP1 MLOAD PUSH1 0x20 PUSH2 0x5030 DUP4 CODECOPY DUP2 MLOAD SWAP2 MSTORE SWAP2 ADD PUSH1 0x40 MLOAD DUP1 SWAP2 SUB SWAP1 LOG3 POP POP POP POP POP POP POP POP POP POP JUMP JUMPDEST PUSH2 0x2350 PUSH1 0x68 SLOAD PUSH1 0x1 PUSH1 0x1 PUSH1 0xA0 SHL SUB AND CALLER EQ SWAP1 JUMP JUMPDEST PUSH2 0x2359 JUMPI PUSH1 0x0 DUP1 REVERT JUMPDEST PUSH1 0x9F DUP2 SWAP1 SSTORE PUSH1 0x40 MLOAD DUP2 DUP2 MSTORE PUSH32 0x72263207FB67FF82292D08DCD9E132BFD605A952099610B513982C70B38616E3 SWAP1 PUSH1 0x20 ADD PUSH2 0x2072 JUMP JUMPDEST PUSH2 0x23A2 PUSH1 0x68 SLOAD PUSH1 0x1 PUSH1 0x1 PUSH1 0xA0 SHL SUB AND CALLER EQ SWAP1 JUMP JUMPDEST DUP1 PUSH2 0x23B5 JUMPI POP CALLER PUSH1 0x1 PUSH1 0x1 PUSH1 0xA0 SHL SUB DUP3 AND EQ JUMPDEST PUSH2 0x240C JUMPI PUSH1 0x40 MLOAD PUSH3 0x461BCD PUSH1 0xE5 SHL DUP2 MSTORE PUSH1 0x20 PUSH1 0x4 DUP3 ADD MSTORE PUSH1 0x22 PUSH1 0x24 DUP3 ADD MSTORE PUSH32 0x434242433A205345545F5245424153455F504F4C4943595F464F524249444445 PUSH1 0x44 DUP3 ADD MSTORE PUSH2 0x2717 PUSH1 0xF1 SHL PUSH1 0x64 DUP3 ADD MSTORE PUSH1 0x84 ADD PUSH2 0x774 JUMP JUMPDEST PUSH1 0xA4 DUP1 SLOAD PUSH1 0x1 PUSH1 0x1 PUSH1 0xA0 SHL SUB NOT AND PUSH1 0x1 PUSH1 0x1 PUSH1 0xA0 SHL SUB DUP4 AND SWAP1 DUP2 OR SWAP1 SWAP2 SSTORE PUSH1 0x40 MLOAD SWAP1 DUP2 MSTORE PUSH32 0x1B2A6EED04CAAC6E24DE29FAF0D56A1000F33980E10F682E1A01E7CAA097E7ED SWAP1 PUSH1 0x20 ADD PUSH2 0x2072 JUMP JUMPDEST PUSH2 0x246E PUSH1 0x68 SLOAD PUSH1 0x1 PUSH1 0x1 PUSH1 0xA0 SHL SUB AND CALLER EQ SWAP1 JUMP JUMPDEST PUSH2 0x2477 JUMPI PUSH1 0x0 DUP1 REVERT JUMPDEST PUSH2 0x2480 DUP2 PUSH2 0x3A46 JUMP JUMPDEST POP JUMP JUMPDEST PUSH1 0x0 DUP1 DUP4 PUSH1 0x1 PUSH1 0x1 PUSH1 0xA0 SHL SUB AND PUSH4 0xBBB1863A PUSH1 0x40 MLOAD DUP2 PUSH4 0xFFFFFFFF AND PUSH1 0xE0 SHL DUP2 MSTORE PUSH1 0x4 ADD PUSH1 0x20 PUSH1 0x40 MLOAD DUP1 DUP4 SUB DUP2 DUP7 DUP1 EXTCODESIZE ISZERO DUP1 ISZERO PUSH2 0x24BF JUMPI PUSH1 0x0 DUP1 REVERT JUMPDEST POP GAS STATICCALL ISZERO DUP1 ISZERO PUSH2 0x24D3 JUMPI RETURNDATASIZE PUSH1 0x0 DUP1 RETURNDATACOPY RETURNDATASIZE PUSH1 0x0 REVERT JUMPDEST POP POP POP POP PUSH1 0x40 MLOAD RETURNDATASIZE PUSH1 0x1F NOT PUSH1 0x1F DUP3 ADD AND DUP3 ADD DUP1 PUSH1 0x40 MSTORE POP DUP2 ADD SWAP1 PUSH2 0x24F7 SWAP2 SWAP1 PUSH2 0x46CE JUMP JUMPDEST PUSH1 0x1 PUSH1 0x1 PUSH1 0xA0 SHL SUB AND PUSH4 0x60961528 PUSH1 0x40 MLOAD DUP2 PUSH4 0xFFFFFFFF AND PUSH1 0xE0 SHL DUP2 MSTORE PUSH1 0x4 ADD PUSH1 0x20 PUSH1 0x40 MLOAD DUP1 DUP4 SUB DUP2 DUP7 DUP1 EXTCODESIZE ISZERO DUP1 ISZERO PUSH2 0x252F JUMPI PUSH1 0x0 DUP1 REVERT JUMPDEST POP GAS STATICCALL ISZERO DUP1 ISZERO PUSH2 0x2543 JUMPI RETURNDATASIZE PUSH1 0x0 DUP1 RETURNDATACOPY RETURNDATASIZE PUSH1 0x0 REVERT JUMPDEST POP POP POP POP PUSH1 0x40 MLOAD RETURNDATASIZE PUSH1 0x1F NOT PUSH1 0x1F DUP3 ADD AND DUP3 ADD DUP1 PUSH1 0x40 MSTORE POP DUP2 ADD SWAP1 PUSH2 0x2567 SWAP2 SWAP1 PUSH2 0x46CE JUMP JUMPDEST PUSH1 0x1 PUSH1 0x1 PUSH1 0xA0 SHL SUB AND PUSH4 0x41976E09 DUP6 PUSH1 0x1 PUSH1 0x1 PUSH1 0xA0 SHL SUB AND PUSH4 0xD83678AC PUSH1 0x40 MLOAD DUP2 PUSH4 0xFFFFFFFF AND PUSH1 0xE0 SHL DUP2 MSTORE PUSH1 0x4 ADD PUSH1 0x20 PUSH1 0x40 MLOAD DUP1 DUP4 SUB DUP2 DUP7 DUP1 EXTCODESIZE ISZERO DUP1 ISZERO PUSH2 0x25AE JUMPI PUSH1 0x0 DUP1 REVERT JUMPDEST POP GAS STATICCALL ISZERO DUP1 ISZERO PUSH2 0x25C2 JUMPI RETURNDATASIZE PUSH1 0x0 DUP1 RETURNDATACOPY RETURNDATASIZE PUSH1 0x0 REVERT JUMPDEST POP POP POP POP PUSH1 0x40 MLOAD RETURNDATASIZE PUSH1 0x1F NOT PUSH1 0x1F DUP3 ADD AND DUP3 ADD DUP1 PUSH1 0x40 MSTORE POP DUP2 ADD SWAP1 PUSH2 0x25E6 SWAP2 SWAP1 PUSH2 0x46CE JUMP JUMPDEST PUSH1 0x40 MLOAD PUSH1 0x1 PUSH1 0x1 PUSH1 0xE0 SHL SUB NOT PUSH1 0xE0 DUP5 SWAP1 SHL AND DUP2 MSTORE PUSH1 0x1 PUSH1 0x1 PUSH1 0xA0 SHL SUB SWAP1 SWAP2 AND PUSH1 0x4 DUP3 ADD MSTORE PUSH1 0x24 ADD PUSH1 0x40 DUP1 MLOAD DUP1 DUP4 SUB DUP2 DUP7 DUP1 EXTCODESIZE ISZERO DUP1 ISZERO PUSH2 0x2624 JUMPI PUSH1 0x0 DUP1 REVERT JUMPDEST POP GAS STATICCALL ISZERO DUP1 ISZERO PUSH2 0x2638 JUMPI RETURNDATASIZE PUSH1 0x0 DUP1 RETURNDATACOPY RETURNDATASIZE PUSH1 0x0 REVERT JUMPDEST POP POP POP POP PUSH1 0x40 MLOAD RETURNDATASIZE PUSH1 0x1F NOT PUSH1 0x1F DUP3 ADD AND DUP3 ADD DUP1 PUSH1 0x40 MSTORE POP DUP2 ADD SWAP1 PUSH2 0x265C SWAP2 SWAP1 PUSH2 0x49C2 JUMP JUMPDEST SWAP2 POP NUMBER SWAP1 POP PUSH2 0x266C PUSH1 0xC8 DUP4 PUSH2 0x4D65 JUMP JUMPDEST LT ISZERO PUSH2 0x26BA JUMPI PUSH1 0x40 MLOAD PUSH3 0x461BCD PUSH1 0xE5 SHL DUP2 MSTORE PUSH1 0x20 PUSH1 0x4 DUP3 ADD MSTORE PUSH1 0x1B PUSH1 0x24 DUP3 ADD MSTORE PUSH32 0x434242433A20544F4B454E5F50524943455F4F555444415445442E0000000000 PUSH1 0x44 DUP3 ADD MSTORE PUSH1 0x64 ADD PUSH2 0x774 JUMP JUMPDEST PUSH1 0x0 DUP5 PUSH1 0x1 PUSH1 0x1 PUSH1 0xA0 SHL SUB AND PUSH4 0x74E14EB8 PUSH1 0x40 MLOAD DUP2 PUSH4 0xFFFFFFFF AND PUSH1 0xE0 SHL DUP2 MSTORE PUSH1 0x4 ADD PUSH1 0x20 PUSH1 0x40 MLOAD DUP1 DUP4 SUB DUP2 DUP7 DUP1 EXTCODESIZE ISZERO DUP1 ISZERO PUSH2 0x26F5 JUMPI PUSH1 0x0 DUP1 REVERT JUMPDEST POP GAS STATICCALL ISZERO DUP1 ISZERO PUSH2 0x2709 JUMPI RETURNDATASIZE PUSH1 0x0 DUP1 RETURNDATACOPY RETURNDATASIZE PUSH1 0x0 REVERT JUMPDEST POP POP POP POP PUSH1 0x40 MLOAD RETURNDATASIZE PUSH1 0x1F NOT PUSH1 0x1F DUP3 ADD AND DUP3 ADD DUP1 PUSH1 0x40 MSTORE POP DUP2 ADD SWAP1 PUSH2 0x272D SWAP2 SWAP1 PUSH2 0x46CE JUMP JUMPDEST SWAP1 POP PUSH1 0x0 DUP6 PUSH1 0x1 PUSH1 0x1 PUSH1 0xA0 SHL SUB AND PUSH4 0x2C86D98E PUSH1 0x40 MLOAD DUP2 PUSH4 0xFFFFFFFF AND PUSH1 0xE0 SHL DUP2 MSTORE PUSH1 0x4 ADD PUSH1 0x20 PUSH1 0x40 MLOAD DUP1 DUP4 SUB DUP2 DUP7 DUP1 EXTCODESIZE ISZERO DUP1 ISZERO PUSH2 0x276A JUMPI PUSH1 0x0 DUP1 REVERT JUMPDEST POP GAS STATICCALL ISZERO DUP1 ISZERO PUSH2 0x277E JUMPI RETURNDATASIZE PUSH1 0x0 DUP1 RETURNDATACOPY RETURNDATASIZE PUSH1 0x0 REVERT JUMPDEST POP POP POP POP PUSH1 0x40 MLOAD RETURNDATASIZE PUSH1 0x1F NOT PUSH1 0x1F DUP3 ADD AND DUP3 ADD DUP1 PUSH1 0x40 MSTORE POP DUP2 ADD SWAP1 PUSH2 0x27A2 SWAP2 SWAP1 PUSH2 0x49E5 JUMP JUMPDEST PUSH1 0xFF AND SWAP1 POP PUSH1 0x0 DUP7 PUSH1 0x1 PUSH1 0x1 PUSH1 0xA0 SHL SUB AND PUSH4 0xC45A0155 PUSH1 0x40 MLOAD DUP2 PUSH4 0xFFFFFFFF AND PUSH1 0xE0 SHL DUP2 MSTORE PUSH1 0x4 ADD PUSH1 0x20 PUSH1 0x40 MLOAD DUP1 DUP4 SUB DUP2 DUP7 DUP1 EXTCODESIZE ISZERO DUP1 ISZERO PUSH2 0x27E2 JUMPI PUSH1 0x0 DUP1 REVERT JUMPDEST POP GAS STATICCALL ISZERO DUP1 ISZERO PUSH2 0x27F6 JUMPI RETURNDATASIZE PUSH1 0x0 DUP1 RETURNDATACOPY RETURNDATASIZE PUSH1 0x0 REVERT JUMPDEST POP POP POP POP PUSH1 0x40 MLOAD RETURNDATASIZE PUSH1 0x1F NOT PUSH1 0x1F DUP3 ADD AND DUP3 ADD DUP1 PUSH1 0x40 MSTORE POP DUP2 ADD SWAP1 PUSH2 0x281A SWAP2 SWAP1 PUSH2 0x46CE JUMP JUMPDEST PUSH1 0x40 MLOAD PUSH4 0x4C22F489 PUSH1 0xE1 SHL DUP2 MSTORE PUSH1 0x1 PUSH1 0x1 PUSH1 0xA0 SHL SUB DUP6 DUP2 AND PUSH1 0x4 DUP4 ADD MSTORE SWAP2 SWAP1 SWAP2 AND SWAP1 PUSH4 0x9845E912 SWAP1 PUSH1 0x24 ADD PUSH1 0x20 PUSH1 0x40 MLOAD DUP1 DUP4 SUB DUP2 DUP7 DUP1 EXTCODESIZE ISZERO DUP1 ISZERO PUSH2 0x285D JUMPI PUSH1 0x0 DUP1 REVERT JUMPDEST POP GAS STATICCALL ISZERO DUP1 ISZERO PUSH2 0x2871 JUMPI RETURNDATASIZE PUSH1 0x0 DUP1 RETURNDATACOPY RETURNDATASIZE PUSH1 0x0 REVERT JUMPDEST POP POP POP POP PUSH1 0x40 MLOAD RETURNDATASIZE PUSH1 0x1F NOT PUSH1 0x1F DUP3 ADD AND DUP3 ADD DUP1 PUSH1 0x40 MSTORE POP DUP2 ADD SWAP1 PUSH2 0x2895 SWAP2 SWAP1 PUSH2 0x46CE JUMP JUMPDEST SWAP1 POP PUSH1 0x0 PUSH2 0x28A7 DUP9 PUSH1 0x0 DUP10 PUSH1 0x1 PUSH2 0x2F55 JUMP JUMPDEST SWAP1 POP PUSH1 0x0 PUSH2 0x2710 PUSH2 0x28B9 DUP6 PUSH1 0x3 PUSH2 0x4EB8 JUMP JUMPDEST PUSH2 0x28C5 SWAP1 PUSH2 0x2710 PUSH2 0x4ED7 JUMP JUMPDEST PUSH8 0xDE0B6B3A7640000 PUSH2 0x28D8 DUP6 DUP13 PUSH2 0x4EB8 JUMP JUMPDEST PUSH2 0x28E2 SWAP2 SWAP1 PUSH2 0x4D7D JUMP JUMPDEST PUSH2 0x28EC SWAP2 SWAP1 PUSH2 0x4EB8 JUMP JUMPDEST PUSH2 0x28F6 SWAP2 SWAP1 PUSH2 0x4D7D JUMP JUMPDEST PUSH1 0x40 MLOAD PUSH4 0x70A08231 PUSH1 0xE0 SHL DUP2 MSTORE PUSH1 0x1 PUSH1 0x1 PUSH1 0xA0 SHL SUB DUP6 DUP2 AND PUSH1 0x4 DUP4 ADD MSTORE SWAP2 SWAP3 POP PUSH2 0x297E SWAP2 DUP4 SWAP2 SWAP1 DUP9 AND SWAP1 PUSH4 0x70A08231 SWAP1 PUSH1 0x24 ADD PUSH1 0x20 PUSH1 0x40 MLOAD DUP1 DUP4 SUB DUP2 DUP7 DUP1 EXTCODESIZE ISZERO DUP1 ISZERO PUSH2 0x2941 JUMPI PUSH1 0x0 DUP1 REVERT JUMPDEST POP GAS STATICCALL ISZERO DUP1 ISZERO PUSH2 0x2955 JUMPI RETURNDATASIZE PUSH1 0x0 DUP1 RETURNDATACOPY RETURNDATASIZE PUSH1 0x0 REVERT JUMPDEST POP POP POP POP PUSH1 0x40 MLOAD RETURNDATASIZE PUSH1 0x1F NOT PUSH1 0x1F DUP3 ADD AND DUP3 ADD DUP1 PUSH1 0x40 MSTORE POP DUP2 ADD SWAP1 PUSH2 0x2979 SWAP2 SWAP1 PUSH2 0x48A1 JUMP JUMPDEST PUSH2 0x3AB5 JUMP JUMPDEST SWAP10 SWAP9 POP POP POP POP POP POP POP POP POP JUMP JUMPDEST PUSH1 0x9C SLOAD PUSH2 0x2998 SWAP1 DUP3 PUSH2 0x4EB8 JUMP JUMPDEST PUSH1 0x1 PUSH1 0x1 PUSH1 0xA0 SHL SUB DUP4 AND PUSH1 0x0 SWAP1 DUP2 MSTORE PUSH1 0xA1 PUSH1 0x20 MSTORE PUSH1 0x40 DUP2 KECCAK256 DUP1 SLOAD SWAP1 SWAP2 SWAP1 PUSH2 0x29C0 SWAP1 DUP5 SWAP1 PUSH2 0x4ED7 JUMP JUMPDEST SWAP3 POP POP DUP2 SWAP1 SSTORE POP DUP1 PUSH1 0x9B PUSH1 0x0 DUP3 DUP3 SLOAD PUSH2 0x29D9 SWAP2 SWAP1 PUSH2 0x4ED7 JUMP JUMPDEST SWAP1 SWAP2 SSTORE POP POP PUSH1 0x40 MLOAD DUP2 DUP2 MSTORE PUSH1 0x0 SWAP1 PUSH1 0x1 PUSH1 0x1 PUSH1 0xA0 SHL SUB DUP5 AND SWAP1 PUSH1 0x0 DUP1 MLOAD PUSH1 0x20 PUSH2 0x5010 DUP4 CODECOPY DUP2 MLOAD SWAP2 MSTORE SWAP1 PUSH1 0x20 ADD JUMPDEST PUSH1 0x40 MLOAD DUP1 SWAP2 SUB SWAP1 LOG3 POP POP JUMP JUMPDEST PUSH1 0x0 DUP1 DUP4 PUSH1 0x1 PUSH1 0x1 PUSH1 0xA0 SHL SUB AND PUSH4 0xBBB1863A PUSH1 0x40 MLOAD DUP2 PUSH4 0xFFFFFFFF AND PUSH1 0xE0 SHL DUP2 MSTORE PUSH1 0x4 ADD PUSH1 0x20 PUSH1 0x40 MLOAD DUP1 DUP4 SUB DUP2 DUP7 DUP1 EXTCODESIZE ISZERO DUP1 ISZERO PUSH2 0x2A4E JUMPI PUSH1 0x0 DUP1 REVERT JUMPDEST POP GAS STATICCALL ISZERO DUP1 ISZERO PUSH2 0x2A62 JUMPI RETURNDATASIZE PUSH1 0x0 DUP1 RETURNDATACOPY RETURNDATASIZE PUSH1 0x0 REVERT JUMPDEST POP POP POP POP PUSH1 0x40 MLOAD RETURNDATASIZE PUSH1 0x1F NOT PUSH1 0x1F DUP3 ADD AND DUP3 ADD DUP1 PUSH1 0x40 MSTORE POP DUP2 ADD SWAP1 PUSH2 0x2A86 SWAP2 SWAP1 PUSH2 0x46CE JUMP JUMPDEST PUSH1 0x1 PUSH1 0x1 PUSH1 0xA0 SHL SUB AND PUSH4 0x60961528 PUSH1 0x40 MLOAD DUP2 PUSH4 0xFFFFFFFF AND PUSH1 0xE0 SHL DUP2 MSTORE PUSH1 0x4 ADD PUSH1 0x20 PUSH1 0x40 MLOAD DUP1 DUP4 SUB DUP2 DUP7 DUP1 EXTCODESIZE ISZERO DUP1 ISZERO PUSH2 0x2ABE JUMPI PUSH1 0x0 DUP1 REVERT JUMPDEST POP GAS STATICCALL ISZERO DUP1 ISZERO PUSH2 0x2AD2 JUMPI RETURNDATASIZE PUSH1 0x0 DUP1 RETURNDATACOPY RETURNDATASIZE PUSH1 0x0 REVERT JUMPDEST POP POP POP POP PUSH1 0x40 MLOAD RETURNDATASIZE PUSH1 0x1F NOT PUSH1 0x1F DUP3 ADD AND DUP3 ADD DUP1 PUSH1 0x40 MSTORE POP DUP2 ADD SWAP1 PUSH2 0x2AF6 SWAP2 SWAP1 PUSH2 0x46CE JUMP JUMPDEST PUSH1 0x1 PUSH1 0x1 PUSH1 0xA0 SHL SUB AND PUSH4 0x41976E09 DUP6 PUSH1 0x1 PUSH1 0x1 PUSH1 0xA0 SHL SUB AND PUSH4 0xD83678AC PUSH1 0x40 MLOAD DUP2 PUSH4 0xFFFFFFFF AND PUSH1 0xE0 SHL DUP2 MSTORE PUSH1 0x4 ADD PUSH1 0x20 PUSH1 0x40 MLOAD DUP1 DUP4 SUB DUP2 DUP7 DUP1 EXTCODESIZE ISZERO DUP1 ISZERO PUSH2 0x2B3D JUMPI PUSH1 0x0 DUP1 REVERT JUMPDEST POP GAS STATICCALL ISZERO DUP1 ISZERO PUSH2 0x2B51 JUMPI RETURNDATASIZE PUSH1 0x0 DUP1 RETURNDATACOPY RETURNDATASIZE PUSH1 0x0 REVERT JUMPDEST POP POP POP POP PUSH1 0x40 MLOAD RETURNDATASIZE PUSH1 0x1F NOT PUSH1 0x1F DUP3 ADD AND DUP3 ADD DUP1 PUSH1 0x40 MSTORE POP DUP2 ADD SWAP1 PUSH2 0x2B75 SWAP2 SWAP1 PUSH2 0x46CE JUMP JUMPDEST PUSH1 0x40 MLOAD PUSH1 0x1 PUSH1 0x1 PUSH1 0xE0 SHL SUB NOT PUSH1 0xE0 DUP5 SWAP1 SHL AND DUP2 MSTORE PUSH1 0x1 PUSH1 0x1 PUSH1 0xA0 SHL SUB SWAP1 SWAP2 AND PUSH1 0x4 DUP3 ADD MSTORE PUSH1 0x24 ADD PUSH1 0x40 DUP1 MLOAD DUP1 DUP4 SUB DUP2 DUP7 DUP1 EXTCODESIZE ISZERO DUP1 ISZERO PUSH2 0x2BB3 JUMPI PUSH1 0x0 DUP1 REVERT JUMPDEST POP GAS STATICCALL ISZERO DUP1 ISZERO PUSH2 0x2BC7 JUMPI RETURNDATASIZE PUSH1 0x0 DUP1 RETURNDATACOPY RETURNDATASIZE PUSH1 0x0 REVERT JUMPDEST POP POP POP POP PUSH1 0x40 MLOAD RETURNDATASIZE PUSH1 0x1F NOT PUSH1 0x1F DUP3 ADD AND DUP3 ADD DUP1 PUSH1 0x40 MSTORE POP DUP2 ADD SWAP1 PUSH2 0x2BEB SWAP2 SWAP1 PUSH2 0x49C2 JUMP JUMPDEST SWAP2 POP NUMBER SWAP1 POP PUSH2 0x2BFB PUSH1 0xC8 DUP4 PUSH2 0x4D65 JUMP JUMPDEST LT ISZERO PUSH2 0x2C49 JUMPI PUSH1 0x40 MLOAD PUSH3 0x461BCD PUSH1 0xE5 SHL DUP2 MSTORE PUSH1 0x20 PUSH1 0x4 DUP3 ADD MSTORE PUSH1 0x1B PUSH1 0x24 DUP3 ADD MSTORE PUSH32 0x434242433A2054524144455F50524943455F4F555444415445442E0000000000 PUSH1 0x44 DUP3 ADD MSTORE PUSH1 0x64 ADD PUSH2 0x774 JUMP JUMPDEST PUSH1 0x0 DUP5 PUSH1 0x1 PUSH1 0x1 PUSH1 0xA0 SHL SUB AND PUSH4 0x2C86D98E PUSH1 0x40 MLOAD DUP2 PUSH4 0xFFFFFFFF AND PUSH1 0xE0 SHL DUP2 MSTORE PUSH1 0x4 ADD PUSH1 0x20 PUSH1 0x40 MLOAD DUP1 DUP4 SUB DUP2 DUP7 DUP1 EXTCODESIZE ISZERO DUP1 ISZERO PUSH2 0x2C84 JUMPI PUSH1 0x0 DUP1 REVERT JUMPDEST POP GAS STATICCALL ISZERO DUP1 ISZERO PUSH2 0x2C98 JUMPI RETURNDATASIZE PUSH1 0x0 DUP1 RETURNDATACOPY RETURNDATASIZE PUSH1 0x0 REVERT JUMPDEST POP POP POP POP PUSH1 0x40 MLOAD RETURNDATASIZE PUSH1 0x1F NOT PUSH1 0x1F DUP3 ADD AND DUP3 ADD DUP1 PUSH1 0x40 MSTORE POP DUP2 ADD SWAP1 PUSH2 0x2CBC SWAP2 SWAP1 PUSH2 0x49E5 JUMP JUMPDEST PUSH1 0xFF AND SWAP1 POP PUSH1 0x0 PUSH2 0x2CD0 DUP7 DUP7 PUSH1 0x0 DUP1 PUSH2 0x2F55 JUMP JUMPDEST SWAP1 POP DUP1 PUSH2 0x2CDE DUP4 PUSH1 0x3 PUSH2 0x4EB8 JUMP JUMPDEST PUSH2 0x2CEA SWAP1 PUSH2 0x2710 PUSH2 0x4ED7 JUMP JUMPDEST PUSH2 0x2CF4 SWAP1 DUP8 PUSH2 0x4EB8 JUMP JUMPDEST PUSH2 0x2D04 SWAP1 PUSH6 0x5AF3107A4000 PUSH2 0x4EB8 JUMP JUMPDEST PUSH2 0x2D0E SWAP2 SWAP1 PUSH2 0x4D7D JUMP JUMPDEST SWAP7 SWAP6 POP POP POP POP POP POP JUMP JUMPDEST DUP1 PUSH1 0x9B PUSH1 0x0 DUP3 DUP3 SLOAD PUSH2 0x2D2A SWAP2 SWAP1 PUSH2 0x4D65 JUMP JUMPDEST SWAP1 SWAP2 SSTORE POP POP PUSH1 0x9C SLOAD PUSH2 0x2D3C SWAP1 DUP3 PUSH2 0x4EB8 JUMP JUMPDEST PUSH1 0x1 PUSH1 0x1 PUSH1 0xA0 SHL SUB DUP4 AND PUSH1 0x0 SWAP1 DUP2 MSTORE PUSH1 0xA1 PUSH1 0x20 MSTORE PUSH1 0x40 DUP2 KECCAK256 DUP1 SLOAD SWAP1 SWAP2 SWAP1 PUSH2 0x2D64 SWAP1 DUP5 SWAP1 PUSH2 0x4D65 JUMP JUMPDEST SWAP1 SWAP2 SSTORE POP POP PUSH1 0x40 MLOAD DUP2 DUP2 MSTORE PUSH1 0x1 PUSH1 0x1 PUSH1 0xA0 SHL SUB DUP4 AND SWAP1 PUSH1 0x0 SWAP1 PUSH1 0x0 DUP1 MLOAD PUSH1 0x20 PUSH2 0x5010 DUP4 CODECOPY DUP2 MLOAD SWAP2 MSTORE SWAP1 PUSH1 0x20 ADD PUSH2 0x2A06 JUMP JUMPDEST PUSH1 0x0 PUSH1 0x1 PUSH1 0xFF SHL DUP3 EQ ISZERO PUSH2 0x2DA8 JUMPI PUSH1 0x0 DUP1 REVERT JUMPDEST PUSH1 0x0 DUP3 SLT PUSH2 0x2DB6 JUMPI DUP2 PUSH2 0x72F JUMP JUMPDEST PUSH2 0x72F DUP3 PUSH2 0x4F82 JUMP JUMPDEST PUSH1 0x40 DUP1 MLOAD PUSH1 0x64 DUP1 DUP3 MSTORE PUSH1 0xA0 DUP3 ADD SWAP1 SWAP3 MSTORE PUSH1 0x60 SWAP2 SWAP1 PUSH1 0x0 SWAP1 DUP3 PUSH1 0x20 DUP3 ADD DUP2 DUP1 CALLDATASIZE DUP4 CALLDATACOPY ADD SWAP1 POP POP SWAP1 POP PUSH1 0x0 JUMPDEST DUP5 ISZERO PUSH2 0x2E61 JUMPI PUSH1 0x0 PUSH2 0x2DFC PUSH1 0xA DUP8 PUSH2 0x4F6E JUMP JUMPDEST SWAP1 POP PUSH2 0x2E09 PUSH1 0xA DUP8 PUSH2 0x4D7D JUMP JUMPDEST SWAP6 POP PUSH2 0x2E16 DUP2 PUSH1 0x30 PUSH2 0x4D65 JUMP JUMPDEST PUSH1 0xF8 SHL DUP4 DUP4 PUSH2 0x2E24 DUP2 PUSH2 0x4F53 JUMP JUMPDEST SWAP5 POP DUP2 MLOAD DUP2 LT PUSH2 0x2E44 JUMPI PUSH4 0x4E487B71 PUSH1 0xE0 SHL PUSH1 0x0 MSTORE PUSH1 0x32 PUSH1 0x4 MSTORE PUSH1 0x24 PUSH1 0x0 REVERT JUMPDEST PUSH1 0x20 ADD ADD SWAP1 PUSH1 0x1 PUSH1 0x1 PUSH1 0xF8 SHL SUB NOT AND SWAP1 DUP2 PUSH1 0x0 BYTE SWAP1 MSTORE8 POP POP PUSH2 0x2DE9 JUMP JUMPDEST PUSH1 0x0 DUP2 PUSH8 0xFFFFFFFFFFFFFFFF DUP2 GT ISZERO PUSH2 0x2E8A JUMPI PUSH4 0x4E487B71 PUSH1 0xE0 SHL PUSH1 0x0 MSTORE PUSH1 0x41 PUSH1 0x4 MSTORE PUSH1 0x24 PUSH1 0x0 REVERT JUMPDEST PUSH1 0x40 MLOAD SWAP1 DUP1 DUP3 MSTORE DUP1 PUSH1 0x1F ADD PUSH1 0x1F NOT AND PUSH1 0x20 ADD DUP3 ADD PUSH1 0x40 MSTORE DUP1 ISZERO PUSH2 0x2EB4 JUMPI PUSH1 0x20 DUP3 ADD DUP2 DUP1 CALLDATASIZE DUP4 CALLDATACOPY ADD SWAP1 POP JUMPDEST POP SWAP1 POP PUSH1 0x0 JUMPDEST DUP3 DUP2 LT ISZERO PUSH2 0x2F4B JUMPI DUP4 DUP2 PUSH2 0x2ECF PUSH1 0x1 DUP7 PUSH2 0x4ED7 JUMP JUMPDEST PUSH2 0x2ED9 SWAP2 SWAP1 PUSH2 0x4ED7 JUMP JUMPDEST DUP2 MLOAD DUP2 LT PUSH2 0x2EF7 JUMPI PUSH4 0x4E487B71 PUSH1 0xE0 SHL PUSH1 0x0 MSTORE PUSH1 0x32 PUSH1 0x4 MSTORE PUSH1 0x24 PUSH1 0x0 REVERT JUMPDEST PUSH1 0x20 ADD ADD MLOAD PUSH1 0xF8 SHR PUSH1 0xF8 SHL DUP3 DUP3 DUP2 MLOAD DUP2 LT PUSH2 0x2F22 JUMPI PUSH4 0x4E487B71 PUSH1 0xE0 SHL PUSH1 0x0 MSTORE PUSH1 0x32 PUSH1 0x4 MSTORE PUSH1 0x24 PUSH1 0x0 REVERT JUMPDEST PUSH1 0x20 ADD ADD SWAP1 PUSH1 0x1 PUSH1 0x1 PUSH1 0xF8 SHL SUB NOT AND SWAP1 DUP2 PUSH1 0x0 BYTE SWAP1 MSTORE8 POP DUP1 PUSH2 0x2F43 DUP2 PUSH2 0x4F53 JUMP JUMPDEST SWAP2 POP POP PUSH2 0x2EBA JUMP JUMPDEST POP SWAP6 SWAP5 POP POP POP POP POP JUMP JUMPDEST PUSH1 0x0 DUP4 ISZERO DUP1 PUSH2 0x2F62 JUMPI POP DUP3 ISZERO JUMPDEST PUSH2 0x2FBA JUMPI PUSH1 0x40 MLOAD PUSH3 0x461BCD PUSH1 0xE5 SHL DUP2 MSTORE PUSH1 0x20 PUSH1 0x4 DUP3 ADD MSTORE PUSH1 0x24 DUP1 DUP3 ADD MSTORE PUSH32 0x434242433A204255595F414E445F53454C4C5F41545F5448455F53414D455F54 PUSH1 0x44 DUP3 ADD MSTORE PUSH4 0x24A6A297 PUSH1 0xE1 SHL PUSH1 0x64 DUP3 ADD MSTORE PUSH1 0x84 ADD PUSH2 0x774 JUMP JUMPDEST PUSH2 0x2FE5 PUSH1 0x40 MLOAD DUP1 PUSH1 0x80 ADD PUSH1 0x40 MSTORE DUP1 PUSH1 0x0 DUP2 MSTORE PUSH1 0x20 ADD PUSH1 0x0 DUP2 MSTORE PUSH1 0x20 ADD PUSH1 0x0 DUP2 MSTORE PUSH1 0x20 ADD PUSH1 0x0 DUP2 MSTORE POP SWAP1 JUMP JUMPDEST PUSH2 0x3025 PUSH1 0x40 MLOAD DUP1 PUSH1 0xE0 ADD PUSH1 0x40 MSTORE DUP1 PUSH1 0x0 DUP2 MSTORE PUSH1 0x20 ADD PUSH1 0x0 DUP2 MSTORE PUSH1 0x20 ADD PUSH1 0x0 DUP2 MSTORE PUSH1 0x20 ADD PUSH1 0x0 DUP2 MSTORE PUSH1 0x20 ADD PUSH1 0x0 DUP2 MSTORE PUSH1 0x20 ADD PUSH1 0x0 DUP2 MSTORE PUSH1 0x20 ADD PUSH1 0x0 DUP2 MSTORE POP SWAP1 JUMP JUMPDEST PUSH1 0x40 DUP1 MLOAD PUSH1 0xC0 DUP2 ADD DUP3 MSTORE PUSH1 0x0 DUP1 DUP3 MSTORE PUSH1 0x20 DUP3 ADD DUP2 SWAP1 MSTORE SWAP2 DUP2 ADD DUP3 SWAP1 MSTORE PUSH1 0x60 DUP2 ADD DUP3 SWAP1 MSTORE PUSH1 0x80 DUP2 ADD DUP3 SWAP1 MSTORE PUSH1 0xA0 DUP2 ADD SWAP2 SWAP1 SWAP2 MSTORE DUP8 PUSH1 0x1 PUSH1 0x1 PUSH1 0xA0 SHL SUB AND PUSH4 0xC45A0155 PUSH1 0x40 MLOAD DUP2 PUSH4 0xFFFFFFFF AND PUSH1 0xE0 SHL DUP2 MSTORE PUSH1 0x4 ADD PUSH1 0x20 PUSH1 0x40 MLOAD DUP1 DUP4 SUB DUP2 DUP7 DUP1 EXTCODESIZE ISZERO DUP1 ISZERO PUSH2 0x3090 JUMPI PUSH1 0x0 DUP1 REVERT JUMPDEST POP GAS STATICCALL ISZERO DUP1 ISZERO PUSH2 0x30A4 JUMPI RETURNDATASIZE PUSH1 0x0 DUP1 RETURNDATACOPY RETURNDATASIZE PUSH1 0x0 REVERT JUMPDEST POP POP POP POP PUSH1 0x40 MLOAD RETURNDATASIZE PUSH1 0x1F NOT PUSH1 0x1F DUP3 ADD AND DUP3 ADD DUP1 PUSH1 0x40 MSTORE POP DUP2 ADD SWAP1 PUSH2 0x30C8 SWAP2 SWAP1 PUSH2 0x46CE JUMP JUMPDEST PUSH1 0x1 PUSH1 0x1 PUSH1 0xA0 SHL SUB SWAP1 DUP2 AND DUP3 MSTORE PUSH1 0x40 DUP1 MLOAD PUSH4 0xE9C29D7 PUSH1 0xE3 SHL DUP2 MSTORE SWAP1 MLOAD SWAP2 DUP11 AND SWAP2 PUSH4 0x74E14EB8 SWAP2 PUSH1 0x4 DUP1 DUP3 ADD SWAP3 PUSH1 0x20 SWAP3 SWAP1 SWAP2 SWAP1 DUP3 SWAP1 SUB ADD DUP2 DUP7 DUP1 EXTCODESIZE ISZERO DUP1 ISZERO PUSH2 0x310F JUMPI PUSH1 0x0 DUP1 REVERT JUMPDEST POP GAS STATICCALL ISZERO DUP1 ISZERO PUSH2 0x3123 JUMPI RETURNDATASIZE PUSH1 0x0 DUP1 RETURNDATACOPY RETURNDATASIZE PUSH1 0x0 REVERT JUMPDEST POP POP POP POP PUSH1 0x40 MLOAD RETURNDATASIZE PUSH1 0x1F NOT PUSH1 0x1F DUP3 ADD AND DUP3 ADD DUP1 PUSH1 0x40 MSTORE POP DUP2 ADD SWAP1 PUSH2 0x3147 SWAP2 SWAP1 PUSH2 0x46CE JUMP JUMPDEST DUP2 PUSH1 0x20 ADD SWAP1 PUSH1 0x1 PUSH1 0x1 PUSH1 0xA0 SHL SUB AND SWAP1 DUP2 PUSH1 0x1 PUSH1 0x1 PUSH1 0xA0 SHL SUB AND DUP2 MSTORE POP POP DUP8 PUSH1 0x1 PUSH1 0x1 PUSH1 0xA0 SHL SUB AND PUSH4 0xD83678AC PUSH1 0x40 MLOAD DUP2 PUSH4 0xFFFFFFFF AND PUSH1 0xE0 SHL DUP2 MSTORE PUSH1 0x4 ADD PUSH1 0x20 PUSH1 0x40 MLOAD DUP1 DUP4 SUB DUP2 DUP7 DUP1 EXTCODESIZE ISZERO DUP1 ISZERO PUSH2 0x319D JUMPI PUSH1 0x0 DUP1 REVERT JUMPDEST POP GAS STATICCALL ISZERO DUP1 ISZERO PUSH2 0x31B1 JUMPI RETURNDATASIZE PUSH1 0x0 DUP1 RETURNDATACOPY RETURNDATASIZE PUSH1 0x0 REVERT JUMPDEST POP POP POP POP PUSH1 0x40 MLOAD RETURNDATASIZE PUSH1 0x1F NOT PUSH1 0x1F DUP3 ADD AND DUP3 ADD DUP1 PUSH1 0x40 MSTORE POP DUP2 ADD SWAP1 PUSH2 0x31D5 SWAP2 SWAP1 PUSH2 0x46CE JUMP JUMPDEST DUP2 PUSH1 0x40 ADD SWAP1 PUSH1 0x1 PUSH1 0x1 PUSH1 0xA0 SHL SUB AND SWAP1 DUP2 PUSH1 0x1 PUSH1 0x1 PUSH1 0xA0 SHL SUB AND DUP2 MSTORE POP POP DUP8 PUSH1 0x1 PUSH1 0x1 PUSH1 0xA0 SHL SUB AND PUSH4 0x2C86D98E PUSH1 0x40 MLOAD DUP2 PUSH4 0xFFFFFFFF AND PUSH1 0xE0 SHL DUP2 MSTORE PUSH1 0x4 ADD PUSH1 0x20 PUSH1 0x40 MLOAD DUP1 DUP4 SUB DUP2 DUP7 DUP1 EXTCODESIZE ISZERO DUP1 ISZERO PUSH2 0x322B JUMPI PUSH1 0x0 DUP1 REVERT JUMPDEST POP GAS STATICCALL ISZERO DUP1 ISZERO PUSH2 0x323F JUMPI RETURNDATASIZE PUSH1 0x0 DUP1 RETURNDATACOPY RETURNDATASIZE PUSH1 0x0 REVERT JUMPDEST POP POP POP POP PUSH1 0x40 MLOAD RETURNDATASIZE PUSH1 0x1F NOT PUSH1 0x1F DUP3 ADD AND DUP3 ADD DUP1 PUSH1 0x40 MSTORE POP DUP2 ADD SWAP1 PUSH2 0x3263 SWAP2 SWAP1 PUSH2 0x49E5 JUMP JUMPDEST PUSH1 0xFF AND DUP2 PUSH1 0x60 ADD DUP2 DUP2 MSTORE POP POP DUP8 PUSH1 0x1 PUSH1 0x1 PUSH1 0xA0 SHL SUB AND PUSH4 0x3C974946 PUSH1 0x40 MLOAD DUP2 PUSH4 0xFFFFFFFF AND PUSH1 0xE0 SHL DUP2 MSTORE PUSH1 0x4 ADD PUSH1 0x20 PUSH1 0x40 MLOAD DUP1 DUP4 SUB DUP2 DUP7 DUP1 EXTCODESIZE ISZERO DUP1 ISZERO PUSH2 0x32A8 JUMPI PUSH1 0x0 DUP1 REVERT JUMPDEST POP GAS STATICCALL ISZERO DUP1 ISZERO PUSH2 0x32BC JUMPI RETURNDATASIZE PUSH1 0x0 DUP1 RETURNDATACOPY RETURNDATASIZE PUSH1 0x0 REVERT JUMPDEST POP POP POP POP PUSH1 0x40 MLOAD RETURNDATASIZE PUSH1 0x1F NOT PUSH1 0x1F DUP3 ADD AND DUP3 ADD DUP1 PUSH1 0x40 MSTORE POP DUP2 ADD SWAP1 PUSH2 0x32E0 SWAP2 SWAP1 PUSH2 0x486D JUMP JUMPDEST DUP2 PUSH1 0x80 ADD SWAP1 PUSH1 0x1 DUP2 GT ISZERO PUSH2 0x3304 JUMPI PUSH4 0x4E487B71 PUSH1 0xE0 SHL PUSH1 0x0 MSTORE PUSH1 0x21 PUSH1 0x4 MSTORE PUSH1 0x24 PUSH1 0x0 REVERT JUMPDEST SWAP1 DUP2 PUSH1 0x1 DUP2 GT ISZERO PUSH2 0x3325 JUMPI PUSH4 0x4E487B71 PUSH1 0xE0 SHL PUSH1 0x0 MSTORE PUSH1 0x21 PUSH1 0x4 MSTORE PUSH1 0x24 PUSH1 0x0 REVERT JUMPDEST DUP2 MSTORE POP POP DUP8 PUSH1 0x1 PUSH1 0x1 PUSH1 0xA0 SHL SUB AND PUSH4 0xBBB1863A PUSH1 0x40 MLOAD DUP2 PUSH4 0xFFFFFFFF AND PUSH1 0xE0 SHL DUP2 MSTORE PUSH1 0x4 ADD PUSH1 0x20 PUSH1 0x40 MLOAD DUP1 DUP4 SUB DUP2 DUP7 DUP1 EXTCODESIZE ISZERO DUP1 ISZERO PUSH2 0x3362 JUMPI PUSH1 0x0 DUP1 REVERT JUMPDEST POP GAS STATICCALL ISZERO DUP1 ISZERO PUSH2 0x3376 JUMPI RETURNDATASIZE PUSH1 0x0 DUP1 RETURNDATACOPY RETURNDATASIZE PUSH1 0x0 REVERT JUMPDEST POP POP POP POP PUSH1 0x40 MLOAD RETURNDATASIZE PUSH1 0x1F NOT PUSH1 0x1F DUP3 ADD AND DUP3 ADD DUP1 PUSH1 0x40 MSTORE POP DUP2 ADD SWAP1 PUSH2 0x339A SWAP2 SWAP1 PUSH2 0x46CE JUMP JUMPDEST PUSH1 0x1 PUSH1 0x1 PUSH1 0xA0 SHL SUB AND PUSH4 0x60961528 PUSH1 0x40 MLOAD DUP2 PUSH4 0xFFFFFFFF AND PUSH1 0xE0 SHL DUP2 MSTORE PUSH1 0x4 ADD PUSH1 0x20 PUSH1 0x40 MLOAD DUP1 DUP4 SUB DUP2 DUP7 DUP1 EXTCODESIZE ISZERO DUP1 ISZERO PUSH2 0x33D2 JUMPI PUSH1 0x0 DUP1 REVERT JUMPDEST POP GAS STATICCALL ISZERO DUP1 ISZERO PUSH2 0x33E6 JUMPI RETURNDATASIZE PUSH1 0x0 DUP1 RETURNDATACOPY RETURNDATASIZE PUSH1 0x0 REVERT JUMPDEST POP POP POP POP PUSH1 0x40 MLOAD RETURNDATASIZE PUSH1 0x1F NOT PUSH1 0x1F DUP3 ADD AND DUP3 ADD DUP1 PUSH1 0x40 MSTORE POP DUP2 ADD SWAP1 PUSH2 0x340A SWAP2 SWAP1 PUSH2 0x46CE JUMP JUMPDEST DUP2 PUSH1 0xA0 ADD SWAP1 PUSH1 0x1 PUSH1 0x1 PUSH1 0xA0 SHL SUB AND SWAP1 DUP2 PUSH1 0x1 PUSH1 0x1 PUSH1 0xA0 SHL SUB AND DUP2 MSTORE POP POP DUP8 PUSH1 0x1 PUSH1 0x1 PUSH1 0xA0 SHL SUB AND PUSH4 0xDDD6F962 PUSH1 0x40 MLOAD DUP2 PUSH4 0xFFFFFFFF AND PUSH1 0xE0 SHL DUP2 MSTORE PUSH1 0x4 ADD PUSH1 0x20 PUSH1 0x40 MLOAD DUP1 DUP4 SUB DUP2 DUP7 DUP1 EXTCODESIZE ISZERO DUP1 ISZERO PUSH2 0x3460 JUMPI PUSH1 0x0 DUP1 REVERT JUMPDEST POP GAS STATICCALL ISZERO DUP1 ISZERO PUSH2 0x3474 JUMPI RETURNDATASIZE PUSH1 0x0 DUP1 RETURNDATACOPY RETURNDATASIZE PUSH1 0x0 REVERT JUMPDEST POP POP POP POP PUSH1 0x40 MLOAD RETURNDATASIZE PUSH1 0x1F NOT PUSH1 0x1F DUP3 ADD AND DUP3 ADD DUP1 PUSH1 0x40 MSTORE POP DUP2 ADD SWAP1 PUSH2 0x3498 SWAP2 SWAP1 PUSH2 0x48A1 JUMP JUMPDEST DUP4 PUSH1 0x0 ADD DUP2 DUP2 MSTORE POP POP DUP8 PUSH1 0x1 PUSH1 0x1 PUSH1 0xA0 SHL SUB AND PUSH4 0x8A3809D PUSH1 0x40 MLOAD DUP2 PUSH4 0xFFFFFFFF AND PUSH1 0xE0 SHL DUP2 MSTORE PUSH1 0x4 ADD PUSH1 0x20 PUSH1 0x40 MLOAD DUP1 DUP4 SUB DUP2 DUP7 DUP1 EXTCODESIZE ISZERO DUP1 ISZERO PUSH2 0x34DA JUMPI PUSH1 0x0 DUP1 REVERT JUMPDEST POP GAS STATICCALL ISZERO DUP1 ISZERO PUSH2 0x34EE JUMPI RETURNDATASIZE PUSH1 0x0 DUP1 RETURNDATACOPY RETURNDATASIZE PUSH1 0x0 REVERT JUMPDEST POP POP POP POP PUSH1 0x40 MLOAD RETURNDATASIZE PUSH1 0x1F NOT PUSH1 0x1F DUP3 ADD AND DUP3 ADD DUP1 PUSH1 0x40 MSTORE POP DUP2 ADD SWAP1 PUSH2 0x3512 SWAP2 SWAP1 PUSH2 0x48A1 JUMP JUMPDEST PUSH1 0x20 DUP5 ADD MSTORE TIMESTAMP PUSH1 0x60 DUP5 ADD MSTORE PUSH1 0xA0 DUP2 ADD MLOAD PUSH1 0x40 DUP1 DUP4 ADD MLOAD SWAP1 MLOAD PUSH4 0x41976E09 PUSH1 0xE0 SHL DUP2 MSTORE PUSH1 0x1 PUSH1 0x1 PUSH1 0xA0 SHL SUB SWAP2 DUP3 AND PUSH1 0x4 DUP3 ADD MSTORE SWAP2 AND SWAP1 PUSH4 0x41976E09 SWAP1 PUSH1 0x24 ADD PUSH1 0x40 DUP1 MLOAD DUP1 DUP4 SUB DUP2 DUP7 DUP1 EXTCODESIZE ISZERO DUP1 ISZERO PUSH2 0x3567 JUMPI PUSH1 0x0 DUP1 REVERT JUMPDEST POP GAS STATICCALL ISZERO DUP1 ISZERO PUSH2 0x357B JUMPI RETURNDATASIZE PUSH1 0x0 DUP1 RETURNDATACOPY RETURNDATASIZE PUSH1 0x0 REVERT JUMPDEST POP POP POP POP PUSH1 0x40 MLOAD RETURNDATASIZE PUSH1 0x1F NOT PUSH1 0x1F DUP3 ADD AND DUP3 ADD DUP1 PUSH1 0x40 MSTORE POP DUP2 ADD SWAP1 PUSH2 0x359F SWAP2 SWAP1 PUSH2 0x49C2 JUMP JUMPDEST POP PUSH1 0x40 DUP5 ADD DUP2 SWAP1 MSTORE PUSH2 0x35F3 JUMPI PUSH1 0x40 MLOAD PUSH3 0x461BCD PUSH1 0xE5 SHL DUP2 MSTORE PUSH1 0x20 PUSH1 0x4 DUP3 ADD MSTORE PUSH1 0x1A PUSH1 0x24 DUP3 ADD MSTORE PUSH32 0x434242433A20494C4C4547414C5F54524144455F50524943452E000000000000 PUSH1 0x44 DUP3 ADD MSTORE PUSH1 0x64 ADD PUSH2 0x774 JUMP JUMPDEST DUP3 MLOAD PUSH2 0x360B JUMPI PUSH1 0x40 DUP4 ADD MLOAD DUP4 MSTORE PUSH1 0x60 DUP4 ADD MLOAD PUSH1 0x20 DUP5 ADD MSTORE JUMPDEST DUP8 PUSH1 0x1 PUSH1 0x1 PUSH1 0xA0 SHL SUB AND PUSH4 0x9FAA3C91 PUSH1 0x40 MLOAD DUP2 PUSH4 0xFFFFFFFF AND PUSH1 0xE0 SHL DUP2 MSTORE PUSH1 0x4 ADD PUSH1 0x20 PUSH1 0x40 MLOAD DUP1 DUP4 SUB DUP2 DUP7 DUP1 EXTCODESIZE ISZERO DUP1 ISZERO PUSH2 0x3644 JUMPI PUSH1 0x0 DUP1 REVERT JUMPDEST POP GAS STATICCALL ISZERO DUP1 ISZERO PUSH2 0x3658 JUMPI RETURNDATASIZE PUSH1 0x0 DUP1 RETURNDATACOPY RETURNDATASIZE PUSH1 0x0 REVERT JUMPDEST POP POP POP POP PUSH1 0x40 MLOAD RETURNDATASIZE PUSH1 0x1F NOT PUSH1 0x1F DUP3 ADD AND DUP3 ADD DUP1 PUSH1 0x40 MSTORE POP DUP2 ADD SWAP1 PUSH2 0x367C SWAP2 SWAP1 PUSH2 0x48A1 JUMP JUMPDEST DUP3 PUSH1 0x0 ADD DUP2 DUP2 MSTORE POP POP DUP1 PUSH1 0x0 ADD MLOAD PUSH1 0x1 PUSH1 0x1 PUSH1 0xA0 SHL SUB AND PUSH4 0x88E97C3C PUSH1 0x40 MLOAD DUP2 PUSH4 0xFFFFFFFF AND PUSH1 0xE0 SHL DUP2 MSTORE PUSH1 0x4 ADD PUSH1 0x20 PUSH1 0x40 MLOAD DUP1 DUP4 SUB DUP2 DUP7 DUP1 EXTCODESIZE ISZERO DUP1 ISZERO PUSH2 0x36C2 JUMPI PUSH1 0x0 DUP1 REVERT JUMPDEST POP GAS STATICCALL ISZERO DUP1 ISZERO PUSH2 0x36D6 JUMPI RETURNDATASIZE PUSH1 0x0 DUP1 RETURNDATACOPY RETURNDATASIZE PUSH1 0x0 REVERT JUMPDEST POP POP POP POP PUSH1 0x40 MLOAD RETURNDATASIZE PUSH1 0x1F NOT PUSH1 0x1F DUP3 ADD AND DUP3 ADD DUP1 PUSH1 0x40 MSTORE POP DUP2 ADD SWAP1 PUSH2 0x36FA SWAP2 SWAP1 PUSH2 0x48A1 JUMP JUMPDEST DUP3 PUSH1 0x20 ADD DUP2 DUP2 MSTORE POP POP DUP1 PUSH1 0x0 ADD MLOAD PUSH1 0x1 PUSH1 0x1 PUSH1 0xA0 SHL SUB AND PUSH4 0xCBD17C67 PUSH1 0x40 MLOAD DUP2 PUSH4 0xFFFFFFFF AND PUSH1 0xE0 SHL DUP2 MSTORE PUSH1 0x4 ADD PUSH1 0x20 PUSH1 0x40 MLOAD DUP1 DUP4 SUB DUP2 DUP7 DUP1 EXTCODESIZE ISZERO DUP1 ISZERO PUSH2 0x3740 JUMPI PUSH1 0x0 DUP1 REVERT JUMPDEST POP GAS STATICCALL ISZERO DUP1 ISZERO PUSH2 0x3754 JUMPI RETURNDATASIZE PUSH1 0x0 DUP1 RETURNDATACOPY RETURNDATASIZE PUSH1 0x0 REVERT JUMPDEST POP POP POP POP PUSH1 0x40 MLOAD RETURNDATASIZE PUSH1 0x1F NOT PUSH1 0x1F DUP3 ADD AND DUP3 ADD DUP1 PUSH1 0x40 MSTORE POP DUP2 ADD SWAP1 PUSH2 0x3778 SWAP2 SWAP1 PUSH2 0x48A1 JUMP JUMPDEST PUSH1 0x40 DUP1 DUP5 ADD SWAP2 SWAP1 SWAP2 MSTORE PUSH1 0xA0 DUP3 ADD MLOAD DUP3 DUP3 ADD MLOAD SWAP2 MLOAD PUSH4 0x4094F10B PUSH1 0xE0 SHL DUP2 MSTORE PUSH1 0x1 PUSH1 0x1 PUSH1 0xA0 SHL SUB SWAP3 DUP4 AND PUSH1 0x4 DUP3 ADD MSTORE SWAP2 AND SWAP1 PUSH4 0x4094F10B SWAP1 PUSH1 0x24 ADD PUSH1 0x20 PUSH1 0x40 MLOAD DUP1 DUP4 SUB DUP2 DUP7 DUP1 EXTCODESIZE ISZERO DUP1 ISZERO PUSH2 0x37CA JUMPI PUSH1 0x0 DUP1 REVERT JUMPDEST POP GAS STATICCALL ISZERO DUP1 ISZERO PUSH2 0x37DE JUMPI RETURNDATASIZE PUSH1 0x0 DUP1 RETURNDATACOPY RETURNDATASIZE PUSH1 0x0 REVERT JUMPDEST POP POP POP POP PUSH1 0x40 MLOAD RETURNDATASIZE PUSH1 0x1F NOT PUSH1 0x1F DUP3 ADD AND DUP3 ADD DUP1 PUSH1 0x40 MSTORE POP DUP2 ADD SWAP1 PUSH2 0x3802 SWAP2 SWAP1 PUSH2 0x48A1 JUMP JUMPDEST PUSH1 0x60 DUP4 ADD MSTORE PUSH1 0xA0 DUP2 ADD MLOAD PUSH1 0x40 DUP1 DUP4 ADD MLOAD SWAP1 MLOAD PUSH4 0xD3EA0F89 PUSH1 0xE0 SHL DUP2 MSTORE PUSH1 0x1 PUSH1 0x1 PUSH1 0xA0 SHL SUB SWAP2 DUP3 AND PUSH1 0x4 DUP3 ADD MSTORE SWAP2 AND SWAP1 PUSH4 0xD3EA0F89 SWAP1 PUSH1 0x24 ADD PUSH1 0x20 PUSH1 0x40 MLOAD DUP1 DUP4 SUB DUP2 DUP7 DUP1 EXTCODESIZE ISZERO DUP1 ISZERO PUSH2 0x3852 JUMPI PUSH1 0x0 DUP1 REVERT JUMPDEST POP GAS STATICCALL ISZERO DUP1 ISZERO PUSH2 0x3866 JUMPI RETURNDATASIZE PUSH1 0x0 DUP1 RETURNDATACOPY RETURNDATASIZE PUSH1 0x0 REVERT JUMPDEST POP POP POP POP PUSH1 0x40 MLOAD RETURNDATASIZE PUSH1 0x1F NOT PUSH1 0x1F DUP3 ADD AND DUP3 ADD DUP1 PUSH1 0x40 MSTORE POP DUP2 ADD SWAP1 PUSH2 0x388A SWAP2 SWAP1 PUSH2 0x48A1 JUMP JUMPDEST PUSH1 0x80 DUP4 ADD MSTORE PUSH1 0xA0 DUP2 ADD MLOAD PUSH1 0x40 DUP1 DUP4 ADD MLOAD SWAP1 MLOAD PUSH4 0x4189C95D PUSH1 0xE0 SHL DUP2 MSTORE PUSH1 0x1 PUSH1 0x1 PUSH1 0xA0 SHL SUB SWAP2 DUP3 AND PUSH1 0x4 DUP3 ADD MSTORE SWAP2 AND SWAP1 PUSH4 0x4189C95D SWAP1 PUSH1 0x24 ADD PUSH1 0x20 PUSH1 0x40 MLOAD DUP1 DUP4 SUB DUP2 DUP7 DUP1 EXTCODESIZE ISZERO DUP1 ISZERO PUSH2 0x38DA JUMPI PUSH1 0x0 DUP1 REVERT JUMPDEST POP GAS STATICCALL ISZERO DUP1 ISZERO PUSH2 0x38EE JUMPI RETURNDATASIZE PUSH1 0x0 DUP1 RETURNDATACOPY RETURNDATASIZE PUSH1 0x0 REVERT JUMPDEST POP POP POP POP PUSH1 0x40 MLOAD RETURNDATASIZE PUSH1 0x1F NOT PUSH1 0x1F DUP3 ADD AND DUP3 ADD DUP1 PUSH1 0x40 MSTORE POP DUP2 ADD SWAP1 PUSH2 0x3912 SWAP2 SWAP1 PUSH2 0x48A1 JUMP JUMPDEST PUSH1 0xA0 DUP4 DUP2 ADD SWAP2 SWAP1 SWAP2 MSTORE DUP2 ADD MLOAD PUSH1 0x40 DUP1 DUP4 ADD MLOAD SWAP1 MLOAD PUSH4 0x84F4B61F PUSH1 0xE0 SHL DUP2 MSTORE PUSH1 0x1 PUSH1 0x1 PUSH1 0xA0 SHL SUB SWAP2 DUP3 AND PUSH1 0x4 DUP3 ADD MSTORE SWAP2 AND SWAP1 PUSH4 0x84F4B61F SWAP1 PUSH1 0x24 ADD PUSH1 0x20 PUSH1 0x40 MLOAD DUP1 DUP4 SUB DUP2 DUP7 DUP1 EXTCODESIZE ISZERO DUP1 ISZERO PUSH2 0x3964 JUMPI PUSH1 0x0 DUP1 REVERT JUMPDEST POP GAS STATICCALL ISZERO DUP1 ISZERO PUSH2 0x3978 JUMPI RETURNDATASIZE PUSH1 0x0 DUP1 RETURNDATACOPY RETURNDATASIZE PUSH1 0x0 REVERT JUMPDEST POP POP POP POP PUSH1 0x40 MLOAD RETURNDATASIZE PUSH1 0x1F NOT PUSH1 0x1F DUP3 ADD AND DUP3 ADD DUP1 PUSH1 0x40 MSTORE POP DUP2 ADD SWAP1 PUSH2 0x399C SWAP2 SWAP1 PUSH2 0x48A1 JUMP JUMPDEST PUSH1 0xC0 DUP4 ADD DUP2 SWAP1 MSTORE PUSH2 0x39EF JUMPI PUSH1 0x40 MLOAD PUSH3 0x461BCD PUSH1 0xE5 SHL DUP2 MSTORE PUSH1 0x20 PUSH1 0x4 DUP3 ADD MSTORE PUSH1 0x1B PUSH1 0x24 DUP3 ADD MSTORE PUSH32 0x434242433A20494C4C4547414C5F4441494C595F564F4C554D452E0000000000 PUSH1 0x44 DUP3 ADD MSTORE PUSH1 0x64 ADD PUSH2 0x774 JUMP JUMPDEST DUP7 ISZERO DUP1 ISZERO PUSH2 0x39FB JUMPI POP DUP6 ISZERO JUMPDEST ISZERO PUSH2 0x3A18 JUMPI PUSH2 0x3A0E DUP4 DUP3 DUP5 PUSH1 0x0 DUP10 PUSH2 0x3B7F JUMP JUMPDEST SWAP4 POP POP POP POP PUSH2 0x3A3E JUMP JUMPDEST PUSH1 0x0 PUSH2 0x3A28 DUP5 DUP4 DUP6 DUP12 DUP12 DUP12 PUSH2 0x428D JUMP JUMPDEST SWAP1 POP PUSH2 0x3A37 DUP5 DUP4 DUP6 DUP5 DUP11 PUSH2 0x3B7F JUMP JUMPDEST SWAP5 POP POP POP POP POP JUMPDEST SWAP5 SWAP4 POP POP POP POP JUMP JUMPDEST PUSH1 0x1 PUSH1 0x1 PUSH1 0xA0 SHL SUB DUP2 AND PUSH2 0x3A59 JUMPI PUSH1 0x0 DUP1 REVERT JUMPDEST PUSH1 0x68 SLOAD PUSH1 0x40 MLOAD PUSH1 0x1 PUSH1 0x1 PUSH1 0xA0 SHL SUB DUP1 DUP5 AND SWAP3 AND SWAP1 PUSH32 0x8BE0079C531659141344CD1FD0A4F28419497F9722A3DAAFE3B4186F6B6457E0 SWAP1 PUSH1 0x0 SWAP1 LOG3 PUSH1 0x68 DUP1 SLOAD PUSH1 0x1 PUSH1 0x1 PUSH1 0xA0 SHL SUB NOT AND PUSH1 0x1 PUSH1 0x1 PUSH1 0xA0 SHL SUB SWAP3 SWAP1 SWAP3 AND SWAP2 SWAP1 SWAP2 OR SWAP1 SSTORE JUMP JUMPDEST PUSH1 0x0 DUP1 DUP3 PUSH2 0x3AC7 JUMPI PUSH1 0x0 SWAP2 POP POP PUSH2 0x72F JUMP JUMPDEST PUSH1 0x14 PUSH2 0x3AD4 DUP5 PUSH1 0x13 PUSH2 0x4EB8 JUMP JUMPDEST PUSH2 0x3ADE SWAP2 SWAP1 PUSH2 0x4D7D JUMP JUMPDEST DUP5 LT ISZERO PUSH2 0x3AEC JUMPI POP DUP3 PUSH2 0x3B5B JUMP JUMPDEST PUSH2 0x3AF7 DUP5 PUSH1 0x64 PUSH2 0x4EB8 JUMP JUMPDEST PUSH1 0x14 PUSH2 0x3B04 DUP6 PUSH1 0x13 PUSH2 0x4EB8 JUMP JUMPDEST PUSH2 0x3B0E SWAP2 SWAP1 PUSH2 0x4D7D JUMP JUMPDEST PUSH2 0x3B18 SWAP1 DUP7 PUSH2 0x4ED7 JUMP JUMPDEST PUSH2 0x3B22 SWAP1 DUP6 PUSH2 0x4EB8 JUMP JUMPDEST PUSH2 0x3B2D SWAP1 PUSH1 0x4 PUSH2 0x4EB8 JUMP JUMPDEST PUSH2 0x3B37 SWAP2 SWAP1 PUSH2 0x4D7D JUMP JUMPDEST PUSH1 0x14 PUSH2 0x3B44 DUP6 PUSH1 0x13 PUSH2 0x4EB8 JUMP JUMPDEST PUSH2 0x3B4E SWAP2 SWAP1 PUSH2 0x4D7D JUMP JUMPDEST PUSH2 0x3B58 SWAP2 SWAP1 PUSH2 0x4D65 JUMP JUMPDEST SWAP1 POP JUMPDEST DUP3 DUP2 LT PUSH2 0x3B78 JUMPI PUSH4 0x4E487B71 PUSH1 0xE0 SHL PUSH1 0x0 MSTORE PUSH1 0x1 PUSH1 0x4 MSTORE PUSH1 0x24 PUSH1 0x0 REVERT JUMPDEST SWAP4 SWAP3 POP POP POP JUMP JUMPDEST DUP5 MLOAD PUSH1 0x40 DUP7 ADD MLOAD PUSH1 0x60 DUP7 ADD MLOAD DUP6 MLOAD PUSH1 0x0 SWAP4 SWAP3 SWAP2 SWAP1 DUP5 DUP3 DUP6 PUSH2 0x3BA1 DUP3 PUSH1 0x1 PUSH2 0x4D65 JUMP JUMPDEST PUSH2 0x3BAB SWAP2 SWAP1 PUSH2 0x4EB8 JUMP JUMPDEST PUSH2 0x3BB5 SWAP2 SWAP1 PUSH2 0x4D7D JUMP JUMPDEST SWAP1 POP PUSH1 0x0 DUP4 DUP7 PUSH2 0x3BC6 PUSH1 0x1 DUP4 PUSH2 0x4ED7 JUMP JUMPDEST PUSH2 0x3BD0 SWAP2 SWAP1 PUSH2 0x4EB8 JUMP JUMPDEST PUSH2 0x3BDA SWAP2 SWAP1 PUSH2 0x4D7D JUMP JUMPDEST SWAP1 POP PUSH1 0x0 DUP1 DUP3 DUP8 LT ISZERO PUSH2 0x3BEF JUMPI DUP3 SWAP7 POP PUSH2 0x3BFB JUMP JUMPDEST DUP4 DUP8 GT ISZERO PUSH2 0x3BFB JUMPI DUP4 SWAP7 POP JUMPDEST PUSH1 0x1 DUP14 PUSH1 0x80 ADD MLOAD PUSH1 0x1 DUP2 GT ISZERO PUSH2 0x3C21 JUMPI PUSH4 0x4E487B71 PUSH1 0xE0 SHL PUSH1 0x0 MSTORE PUSH1 0x21 PUSH1 0x4 MSTORE PUSH1 0x24 PUSH1 0x0 REVERT JUMPDEST EQ ISZERO PUSH2 0x3F22 JUMPI PUSH1 0x0 DUP11 PUSH1 0x1 DUP2 GT ISZERO PUSH2 0x3C49 JUMPI PUSH4 0x4E487B71 PUSH1 0xE0 SHL PUSH1 0x0 MSTORE PUSH1 0x21 PUSH1 0x4 MSTORE PUSH1 0x24 PUSH1 0x0 REVERT JUMPDEST EQ ISZERO PUSH2 0x3C60 JUMPI PUSH2 0x3C59 DUP12 DUP9 PUSH2 0x4D65 JUMP JUMPDEST SWAP7 POP PUSH2 0x3C77 JUMP JUMPDEST PUSH2 0x3C6A DUP12 DUP9 PUSH2 0x3AB5 JUMP JUMPDEST PUSH2 0x3C74 SWAP1 DUP9 PUSH2 0x4ED7 JUMP JUMPDEST SWAP7 POP JUMPDEST PUSH1 0x0 DUP6 SGT ISZERO PUSH2 0x3D2D JUMPI DUP7 PUSH2 0x3C8B DUP5 DUP3 PUSH2 0x4ED7 JUMP JUMPDEST PUSH2 0x3C95 DUP10 DUP8 PUSH2 0x4ED7 JUMP JUMPDEST PUSH2 0x3C9E DUP9 PUSH2 0x2D95 JUMP JUMPDEST PUSH2 0x3CA8 SWAP2 SWAP1 PUSH2 0x4EB8 JUMP JUMPDEST PUSH2 0x3CB2 SWAP2 SWAP1 PUSH2 0x4EB8 JUMP JUMPDEST PUSH2 0x3CBC SWAP2 SWAP1 PUSH2 0x4D7D JUMP JUMPDEST PUSH2 0x3CC8 DUP9 PUSH2 0x3E8 PUSH2 0x4EB8 JUMP JUMPDEST PUSH2 0x3CD2 SWAP2 SWAP1 PUSH2 0x4D65 JUMP JUMPDEST SWAP2 POP DUP8 PUSH2 0x3CDF DUP5 DUP3 PUSH2 0x4ED7 JUMP JUMPDEST PUSH2 0x3CE9 DUP11 DUP8 PUSH2 0x4ED7 JUMP JUMPDEST PUSH2 0x3CF2 DUP9 PUSH2 0x2D95 JUMP JUMPDEST PUSH2 0x3CFC SWAP2 SWAP1 PUSH2 0x4EB8 JUMP JUMPDEST PUSH2 0x3D06 SWAP2 SWAP1 PUSH2 0x4EB8 JUMP JUMPDEST PUSH2 0x3D10 SWAP2 SWAP1 PUSH2 0x4D7D JUMP JUMPDEST PUSH2 0x3D1C DUP10 PUSH2 0x3E8 PUSH2 0x4EB8 JUMP JUMPDEST PUSH2 0x3D26 SWAP2 SWAP1 PUSH2 0x4D65 JUMP JUMPDEST SWAP1 POP PUSH2 0x3DD6 JUMP JUMPDEST DUP7 PUSH2 0x3D38 DUP5 DUP3 PUSH2 0x4ED7 JUMP JUMPDEST PUSH2 0x3D42 DUP10 DUP8 PUSH2 0x4ED7 JUMP JUMPDEST PUSH2 0x3D4B DUP9 PUSH2 0x2D95 JUMP JUMPDEST PUSH2 0x3D55 SWAP2 SWAP1 PUSH2 0x4EB8 JUMP JUMPDEST PUSH2 0x3D5F SWAP2 SWAP1 PUSH2 0x4EB8 JUMP JUMPDEST PUSH2 0x3D69 SWAP2 SWAP1 PUSH2 0x4D7D JUMP JUMPDEST PUSH2 0x3D75 DUP9 PUSH2 0x3E8 PUSH2 0x4EB8 JUMP JUMPDEST PUSH2 0x3D7F SWAP2 SWAP1 PUSH2 0x4ED7 JUMP JUMPDEST SWAP2 POP DUP8 PUSH2 0x3D8C DUP5 DUP3 PUSH2 0x4ED7 JUMP JUMPDEST PUSH2 0x3D96 DUP11 DUP8 PUSH2 0x4ED7 JUMP JUMPDEST PUSH2 0x3D9F DUP9 PUSH2 0x2D95 JUMP JUMPDEST PUSH2 0x3DA9 SWAP2 SWAP1 PUSH2 0x4EB8 JUMP JUMPDEST PUSH2 0x3DB3 SWAP2 SWAP1 PUSH2 0x4EB8 JUMP JUMPDEST PUSH2 0x3DBD SWAP2 SWAP1 PUSH2 0x4D7D JUMP JUMPDEST PUSH2 0x3DC9 DUP10 PUSH2 0x3E8 PUSH2 0x4EB8 JUMP JUMPDEST PUSH2 0x3DD3 SWAP2 SWAP1 PUSH2 0x4ED7 JUMP JUMPDEST SWAP1 POP JUMPDEST PUSH4 0x1E13380 DUP15 PUSH1 0x20 ADD MLOAD DUP16 PUSH1 0x60 ADD MLOAD PUSH2 0x3DEF SWAP2 SWAP1 PUSH2 0x4ED7 JUMP JUMPDEST DUP14 PUSH1 0x80 ADD MLOAD PUSH2 0x3DFE SWAP2 SWAP1 PUSH2 0x4EB8 JUMP JUMPDEST PUSH2 0x3E0E SWAP1 PUSH6 0x1CAE8C13E000 PUSH2 0x4D65 JUMP JUMPDEST PUSH2 0x3E19 PUSH1 0x1 DUP10 PUSH2 0x4ED7 JUMP JUMPDEST PUSH2 0x3E28 SWAP1 PUSH5 0xE8D4A51000 PUSH2 0x4EB8 JUMP JUMPDEST PUSH2 0x3E32 SWAP2 SWAP1 PUSH2 0x4EB8 JUMP JUMPDEST PUSH2 0x3E3C SWAP2 SWAP1 PUSH2 0x4D7D JUMP JUMPDEST PUSH2 0x3E4C SWAP1 PUSH6 0x5AF3107A4000 PUSH2 0x4D65 JUMP JUMPDEST DUP2 PUSH2 0x3E57 DUP5 DUP10 PUSH2 0x4EB8 JUMP JUMPDEST PUSH2 0x3E69 SWAP1 PUSH8 0xDE0B6B3A7640000 PUSH2 0x4EB8 JUMP JUMPDEST PUSH2 0x3E73 SWAP2 SWAP1 PUSH2 0x4D7D JUMP JUMPDEST GT PUSH2 0x3E84 JUMPI PUSH6 0x5AF3107A4000 PUSH2 0x3F1B JUMP JUMPDEST PUSH4 0x1E13380 DUP15 PUSH1 0x20 ADD MLOAD DUP16 PUSH1 0x60 ADD MLOAD PUSH2 0x3E9D SWAP2 SWAP1 PUSH2 0x4ED7 JUMP JUMPDEST DUP14 PUSH1 0x80 ADD MLOAD PUSH2 0x3EAC SWAP2 SWAP1 PUSH2 0x4EB8 JUMP JUMPDEST PUSH2 0x3EBC SWAP1 PUSH6 0x1CAE8C13E000 PUSH2 0x4D65 JUMP JUMPDEST PUSH2 0x3EC7 PUSH1 0x1 DUP10 PUSH2 0x4ED7 JUMP JUMPDEST PUSH2 0x3ED6 SWAP1 PUSH5 0xE8D4A51000 PUSH2 0x4EB8 JUMP JUMPDEST PUSH2 0x3EE0 SWAP2 SWAP1 PUSH2 0x4EB8 JUMP JUMPDEST PUSH2 0x3EEA SWAP2 SWAP1 PUSH2 0x4D7D JUMP JUMPDEST DUP2 PUSH2 0x3EF5 DUP5 DUP10 PUSH2 0x4EB8 JUMP JUMPDEST PUSH2 0x3F07 SWAP1 PUSH8 0xDE0B6B3A7640000 PUSH2 0x4EB8 JUMP JUMPDEST PUSH2 0x3F11 SWAP2 SWAP1 PUSH2 0x4D7D JUMP JUMPDEST PUSH2 0x3F1B SWAP2 SWAP1 PUSH2 0x4ED7 JUMP JUMPDEST SWAP9 POP PUSH2 0x427C JUMP JUMPDEST PUSH1 0x0 DUP14 PUSH1 0x80 ADD MLOAD PUSH1 0x1 DUP2 GT ISZERO PUSH2 0x3F48 JUMPI PUSH4 0x4E487B71 PUSH1 0xE0 SHL PUSH1 0x0 MSTORE PUSH1 0x21 PUSH1 0x4 MSTORE PUSH1 0x24 PUSH1 0x0 REVERT JUMPDEST EQ ISZERO PUSH2 0x4242 JUMPI PUSH1 0x0 DUP11 PUSH1 0x1 DUP2 GT ISZERO PUSH2 0x3F70 JUMPI PUSH4 0x4E487B71 PUSH1 0xE0 SHL PUSH1 0x0 MSTORE PUSH1 0x21 PUSH1 0x4 MSTORE PUSH1 0x24 PUSH1 0x0 REVERT JUMPDEST EQ ISZERO PUSH2 0x3F91 JUMPI PUSH2 0x3F80 DUP12 DUP9 PUSH2 0x3AB5 JUMP JUMPDEST PUSH2 0x3F8A SWAP1 DUP9 PUSH2 0x4ED7 JUMP JUMPDEST SWAP7 POP PUSH2 0x3F9E JUMP JUMPDEST PUSH2 0x3F9B DUP12 DUP9 PUSH2 0x4D65 JUMP JUMPDEST SWAP7 POP JUMPDEST PUSH1 0x0 DUP6 SGT ISZERO PUSH2 0x40A2 JUMPI PUSH6 0x1CAE8C13E000 DUP15 PUSH1 0x20 ADD MLOAD DUP16 PUSH1 0x60 ADD MLOAD PUSH2 0x3FC2 SWAP2 SWAP1 PUSH2 0x4ED7 JUMP JUMPDEST DUP14 PUSH1 0x80 ADD MLOAD PUSH2 0x3FD1 SWAP2 SWAP1 PUSH2 0x4EB8 JUMP JUMPDEST PUSH2 0x3FE1 SWAP1 PUSH6 0x1CAE8C13E000 PUSH2 0x4D65 JUMP JUMPDEST DUP9 PUSH2 0x3FEC DUP7 DUP3 PUSH2 0x4ED7 JUMP JUMPDEST PUSH2 0x3FF6 DUP12 DUP10 PUSH2 0x4ED7 JUMP JUMPDEST PUSH2 0x3FFF DUP11 PUSH2 0x2D95 JUMP JUMPDEST PUSH2 0x4009 SWAP2 SWAP1 PUSH2 0x4EB8 JUMP JUMPDEST PUSH2 0x4013 SWAP2 SWAP1 PUSH2 0x4EB8 JUMP JUMPDEST PUSH2 0x401D SWAP2 SWAP1 PUSH2 0x4D7D JUMP JUMPDEST PUSH2 0x4029 DUP11 PUSH2 0x3E8 PUSH2 0x4EB8 JUMP JUMPDEST PUSH2 0x4033 SWAP2 SWAP1 PUSH2 0x4D65 JUMP JUMPDEST PUSH2 0x403D SWAP2 SWAP1 PUSH2 0x4EB8 JUMP JUMPDEST PUSH2 0x4047 SWAP2 SWAP1 PUSH2 0x4D7D JUMP JUMPDEST SWAP2 POP DUP8 PUSH2 0x4054 DUP5 DUP3 PUSH2 0x4ED7 JUMP JUMPDEST PUSH2 0x405E DUP11 DUP8 PUSH2 0x4ED7 JUMP JUMPDEST PUSH2 0x4067 DUP9 PUSH2 0x2D95 JUMP JUMPDEST PUSH2 0x4071 SWAP2 SWAP1 PUSH2 0x4EB8 JUMP JUMPDEST PUSH2 0x407B SWAP2 SWAP1 PUSH2 0x4EB8 JUMP JUMPDEST PUSH2 0x4085 SWAP2 SWAP1 PUSH2 0x4D7D JUMP JUMPDEST PUSH2 0x4091 DUP10 PUSH2 0x3E8 PUSH2 0x4EB8 JUMP JUMPDEST PUSH2 0x409B SWAP2 SWAP1 PUSH2 0x4D65 JUMP JUMPDEST SWAP1 POP PUSH2 0x4199 JUMP JUMPDEST PUSH6 0x1CAE8C13E000 DUP15 PUSH1 0x20 ADD MLOAD DUP16 PUSH1 0x60 ADD MLOAD PUSH2 0x40BD SWAP2 SWAP1 PUSH2 0x4ED7 JUMP JUMPDEST DUP14 PUSH1 0x80 ADD MLOAD PUSH2 0x40CC SWAP2 SWAP1 PUSH2 0x4EB8 JUMP JUMPDEST PUSH2 0x40DC SWAP1 PUSH6 0x1CAE8C13E000 PUSH2 0x4D65 JUMP JUMPDEST DUP9 PUSH2 0x40E7 DUP7 DUP3 PUSH2 0x4ED7 JUMP JUMPDEST PUSH2 0x40F1 DUP12 DUP10 PUSH2 0x4ED7 JUMP JUMPDEST PUSH2 0x40FA DUP11 PUSH2 0x2D95 JUMP JUMPDEST PUSH2 0x4104 SWAP2 SWAP1 PUSH2 0x4EB8 JUMP JUMPDEST PUSH2 0x410E SWAP2 SWAP1 PUSH2 0x4EB8 JUMP JUMPDEST PUSH2 0x4118 SWAP2 SWAP1 PUSH2 0x4D7D JUMP JUMPDEST PUSH2 0x4124 DUP11 PUSH2 0x3E8 PUSH2 0x4EB8 JUMP JUMPDEST PUSH2 0x412E SWAP2 SWAP1 PUSH2 0x4ED7 JUMP JUMPDEST PUSH2 0x4138 SWAP2 SWAP1 PUSH2 0x4EB8 JUMP JUMPDEST PUSH2 0x4142 SWAP2 SWAP1 PUSH2 0x4D7D JUMP JUMPDEST SWAP2 POP DUP8 PUSH2 0x414F DUP5 DUP3 PUSH2 0x4ED7 JUMP JUMPDEST PUSH2 0x4159 DUP11 DUP8 PUSH2 0x4ED7 JUMP JUMPDEST PUSH2 0x4162 DUP9 PUSH2 0x2D95 JUMP JUMPDEST PUSH2 0x416C SWAP2 SWAP1 PUSH2 0x4EB8 JUMP JUMPDEST PUSH2 0x4176 SWAP2 SWAP1 PUSH2 0x4EB8 JUMP JUMPDEST PUSH2 0x4180 SWAP2 SWAP1 PUSH2 0x4D7D JUMP JUMPDEST PUSH2 0x418C DUP10 PUSH2 0x3E8 PUSH2 0x4EB8 JUMP JUMPDEST PUSH2 0x4196 SWAP2 SWAP1 PUSH2 0x4ED7 JUMP JUMPDEST SWAP1 POP JUMPDEST DUP1 PUSH2 0x41A4 DUP4 DUP9 PUSH2 0x4EB8 JUMP JUMPDEST PUSH2 0x41B6 SWAP1 PUSH8 0xDE0B6B3A7640000 PUSH2 0x4EB8 JUMP JUMPDEST PUSH2 0x41C0 SWAP2 SWAP1 PUSH2 0x4D7D JUMP JUMPDEST PUSH2 0x41D0 SWAP1 PUSH6 0x5AF3107A4000 PUSH2 0x4D65 JUMP JUMPDEST PUSH2 0x41DB DUP8 PUSH1 0x1 PUSH2 0x4D65 JUMP JUMPDEST PUSH2 0x41ED SWAP1 PUSH8 0xDE0B6B3A7640000 PUSH2 0x4EB8 JUMP JUMPDEST GT PUSH2 0x41FE JUMPI PUSH6 0x5AF3107A4000 PUSH2 0x3F1B JUMP JUMPDEST DUP1 PUSH2 0x4209 DUP4 DUP9 PUSH2 0x4EB8 JUMP JUMPDEST PUSH2 0x421B SWAP1 PUSH8 0xDE0B6B3A7640000 PUSH2 0x4EB8 JUMP JUMPDEST PUSH2 0x4225 SWAP2 SWAP1 PUSH2 0x4D7D JUMP JUMPDEST PUSH2 0x4230 DUP8 PUSH1 0x1 PUSH2 0x4D65 JUMP JUMPDEST PUSH2 0x3F11 SWAP1 PUSH8 0xDE0B6B3A7640000 PUSH2 0x4EB8 JUMP JUMPDEST PUSH1 0x40 MLOAD PUSH3 0x461BCD PUSH1 0xE5 SHL DUP2 MSTORE PUSH1 0x20 PUSH1 0x4 DUP3 ADD MSTORE PUSH1 0xF PUSH1 0x24 DUP3 ADD MSTORE PUSH15 0x434242433A57524F4E475F54595045 PUSH1 0x88 SHL PUSH1 0x44 DUP3 ADD MSTORE PUSH1 0x64 ADD PUSH2 0x774 JUMP JUMPDEST POP POP POP POP POP POP POP POP SWAP6 SWAP5 POP POP POP POP POP JUMP JUMPDEST PUSH1 0x0 DUP1 DUP1 DUP4 PUSH1 0x1 DUP2 GT ISZERO PUSH2 0x42B1 JUMPI PUSH4 0x4E487B71 PUSH1 0xE0 SHL PUSH1 0x0 MSTORE PUSH1 0x21 PUSH1 0x4 MSTORE PUSH1 0x24 PUSH1 0x0 REVERT JUMPDEST EQ ISZERO PUSH2 0x42C2 JUMPI POP PUSH1 0x20 DUP6 ADD MLOAD PUSH2 0x42C9 JUMP JUMPDEST POP PUSH1 0x40 DUP6 ADD MLOAD JUMPDEST DUP5 ISZERO DUP1 ISZERO PUSH2 0x42D5 JUMPI POP DUP4 ISZERO JUMPDEST ISZERO PUSH2 0x42E3 JUMPI PUSH1 0x0 SWAP2 POP PUSH2 0x454E JUMP JUMPDEST PUSH1 0x0 PUSH2 0x42F3 DUP10 DUP10 DUP10 PUSH1 0x0 DUP9 PUSH2 0x3B7F JUMP JUMPDEST PUSH1 0xA0 DUP10 ADD MLOAD PUSH1 0x20 DUP11 ADD MLOAD PUSH1 0x40 MLOAD PUSH4 0x41976E09 PUSH1 0xE0 SHL DUP2 MSTORE PUSH1 0x1 PUSH1 0x1 PUSH1 0xA0 SHL SUB SWAP2 DUP3 AND PUSH1 0x4 DUP3 ADD MSTORE SWAP3 SWAP4 POP PUSH1 0x0 SWAP3 SWAP2 AND SWAP1 PUSH4 0x41976E09 SWAP1 PUSH1 0x24 ADD PUSH1 0x40 DUP1 MLOAD DUP1 DUP4 SUB DUP2 DUP7 DUP1 EXTCODESIZE ISZERO DUP1 ISZERO PUSH2 0x4343 JUMPI PUSH1 0x0 DUP1 REVERT JUMPDEST POP GAS STATICCALL ISZERO DUP1 ISZERO PUSH2 0x4357 JUMPI RETURNDATASIZE PUSH1 0x0 DUP1 RETURNDATACOPY RETURNDATASIZE PUSH1 0x0 REVERT JUMPDEST POP POP POP POP PUSH1 0x40 MLOAD RETURNDATASIZE PUSH1 0x1F NOT PUSH1 0x1F DUP3 ADD AND DUP3 ADD DUP1 PUSH1 0x40 MSTORE POP DUP2 ADD SWAP1 PUSH2 0x437B SWAP2 SWAP1 PUSH2 0x49C2 JUMP JUMPDEST POP SWAP1 POP PUSH1 0x0 DUP11 PUSH1 0x40 ADD MLOAD DUP11 PUSH1 0x40 ADD MLOAD PUSH1 0x1 PUSH1 0x1 PUSH1 0xA0 SHL SUB AND PUSH4 0x313CE567 PUSH1 0x40 MLOAD DUP2 PUSH4 0xFFFFFFFF AND PUSH1 0xE0 SHL DUP2 MSTORE PUSH1 0x4 ADD PUSH1 0x20 PUSH1 0x40 MLOAD DUP1 DUP4 SUB DUP2 DUP7 DUP1 EXTCODESIZE ISZERO DUP1 ISZERO PUSH2 0x43C2 JUMPI PUSH1 0x0 DUP1 REVERT JUMPDEST POP GAS STATICCALL ISZERO DUP1 ISZERO PUSH2 0x43D6 JUMPI RETURNDATASIZE PUSH1 0x0 DUP1 RETURNDATACOPY RETURNDATASIZE PUSH1 0x0 REVERT JUMPDEST POP POP POP POP PUSH1 0x40 MLOAD RETURNDATASIZE PUSH1 0x1F NOT PUSH1 0x1F DUP3 ADD AND DUP3 ADD DUP1 PUSH1 0x40 MSTORE POP DUP2 ADD SWAP1 PUSH2 0x43FA SWAP2 SWAP1 PUSH2 0x49E5 JUMP JUMPDEST PUSH2 0x4405 SWAP1 PUSH1 0xA PUSH2 0x4DE6 JUMP JUMPDEST DUP12 PUSH1 0x60 ADD MLOAD DUP10 DUP14 PUSH1 0x20 ADD MLOAD PUSH1 0x1 PUSH1 0x1 PUSH1 0xA0 SHL SUB AND PUSH4 0x313CE567 PUSH1 0x40 MLOAD DUP2 PUSH4 0xFFFFFFFF AND PUSH1 0xE0 SHL DUP2 MSTORE PUSH1 0x4 ADD PUSH1 0x20 PUSH1 0x40 MLOAD DUP1 DUP4 SUB DUP2 DUP7 DUP1 EXTCODESIZE ISZERO DUP1 ISZERO PUSH2 0x4448 JUMPI PUSH1 0x0 DUP1 REVERT JUMPDEST POP GAS STATICCALL ISZERO DUP1 ISZERO PUSH2 0x445C JUMPI RETURNDATASIZE PUSH1 0x0 DUP1 RETURNDATACOPY RETURNDATASIZE PUSH1 0x0 REVERT JUMPDEST POP POP POP POP PUSH1 0x40 MLOAD RETURNDATASIZE PUSH1 0x1F NOT PUSH1 0x1F DUP3 ADD AND DUP3 ADD DUP1 PUSH1 0x40 MSTORE POP DUP2 ADD SWAP1 PUSH2 0x4480 SWAP2 SWAP1 PUSH2 0x49E5 JUMP JUMPDEST PUSH2 0x448B SWAP1 PUSH1 0xA PUSH2 0x4DE6 JUMP JUMPDEST DUP8 PUSH2 0x4496 DUP9 DUP16 PUSH2 0x4EB8 JUMP JUMPDEST PUSH2 0x44A0 SWAP2 SWAP1 PUSH2 0x4D7D JUMP JUMPDEST PUSH2 0x44B2 SWAP1 PUSH8 0xDE0B6B3A7640000 PUSH2 0x4EB8 JUMP JUMPDEST PUSH2 0x44BC SWAP2 SWAP1 PUSH2 0x4D7D JUMP JUMPDEST PUSH2 0x44C6 SWAP2 SWAP1 PUSH2 0x4D65 JUMP JUMPDEST PUSH2 0x44D0 SWAP2 SWAP1 PUSH2 0x4EB8 JUMP JUMPDEST PUSH2 0x44DA SWAP2 SWAP1 PUSH2 0x4EB8 JUMP JUMPDEST PUSH2 0x44E4 SWAP2 SWAP1 PUSH2 0x4D7D JUMP JUMPDEST SWAP1 POP PUSH4 0x3B9ACA00 PUSH2 0x4516 DUP11 PUSH1 0xC0 ADD MLOAD DUP4 PUSH8 0xDE0B6B3A7640000 PUSH2 0x4507 SWAP2 SWAP1 PUSH2 0x4EB8 JUMP JUMPDEST PUSH2 0x4511 SWAP2 SWAP1 PUSH2 0x4D7D JUMP JUMPDEST PUSH2 0x4559 JUMP JUMPDEST PUSH1 0xA0 DUP12 ADD MLOAD PUSH2 0x4525 SWAP1 DUP8 PUSH2 0x4EB8 JUMP JUMPDEST PUSH2 0x452F SWAP2 SWAP1 PUSH2 0x4EB8 JUMP JUMPDEST PUSH2 0x4539 SWAP2 SWAP1 PUSH2 0x4D7D JUMP JUMPDEST DUP10 PUSH1 0x60 ADD MLOAD PUSH2 0x4548 SWAP2 SWAP1 PUSH2 0x4D65 JUMP JUMPDEST SWAP5 POP POP POP POP JUMPDEST POP SWAP7 SWAP6 POP POP POP POP POP POP JUMP JUMPDEST PUSH1 0x0 PUSH1 0x3 DUP3 GT ISZERO PUSH2 0x45BA JUMPI POP DUP1 PUSH1 0x0 PUSH2 0x4573 PUSH1 0x2 DUP4 PUSH2 0x4D7D JUMP JUMPDEST PUSH2 0x457E SWAP1 PUSH1 0x1 PUSH2 0x4D65 JUMP JUMPDEST SWAP1 POP JUMPDEST DUP2 DUP2 LT ISZERO PUSH2 0x45B4 JUMPI SWAP1 POP DUP1 PUSH1 0x2 DUP2 PUSH2 0x4599 DUP2 DUP7 PUSH2 0x4D7D JUMP JUMPDEST PUSH2 0x45A3 SWAP2 SWAP1 PUSH2 0x4D65 JUMP JUMPDEST PUSH2 0x45AD SWAP2 SWAP1 PUSH2 0x4D7D JUMP JUMPDEST SWAP1 POP PUSH2 0x4581 JUMP JUMPDEST POP PUSH2 0x80C JUMP JUMPDEST DUP2 ISZERO PUSH2 0x80C JUMPI POP PUSH1 0x1 SWAP2 SWAP1 POP JUMP JUMPDEST DUP3 DUP1 SLOAD PUSH2 0x45D4 SWAP1 PUSH2 0x4F1E JUMP JUMPDEST SWAP1 PUSH1 0x0 MSTORE PUSH1 0x20 PUSH1 0x0 KECCAK256 SWAP1 PUSH1 0x1F ADD PUSH1 0x20 SWAP1 DIV DUP2 ADD SWAP3 DUP3 PUSH2 0x45F6 JUMPI PUSH1 0x0 DUP6 SSTORE PUSH2 0x463C JUMP JUMPDEST DUP3 PUSH1 0x1F LT PUSH2 0x460F JUMPI DUP1 MLOAD PUSH1 0xFF NOT AND DUP4 DUP1 ADD OR DUP6 SSTORE PUSH2 0x463C JUMP JUMPDEST DUP3 DUP1 ADD PUSH1 0x1 ADD DUP6 SSTORE DUP3 ISZERO PUSH2 0x463C JUMPI SWAP2 DUP3 ADD JUMPDEST DUP3 DUP2 GT ISZERO PUSH2 0x463C JUMPI DUP3 MLOAD DUP3 SSTORE SWAP2 PUSH1 0x20 ADD SWAP2 SWAP1 PUSH1 0x1 ADD SWAP1 PUSH2 0x4621 JUMP JUMPDEST POP PUSH2 0x4648 SWAP3 SWAP2 POP PUSH2 0x464C JUMP JUMPDEST POP SWAP1 JUMP JUMPDEST JUMPDEST DUP1 DUP3 GT ISZERO PUSH2 0x4648 JUMPI PUSH1 0x0 DUP2 SSTORE PUSH1 0x1 ADD PUSH2 0x464D JUMP JUMPDEST PUSH1 0x0 DUP3 PUSH1 0x1F DUP4 ADD SLT PUSH2 0x4671 JUMPI DUP1 DUP2 REVERT JUMPDEST DUP2 CALLDATALOAD PUSH2 0x4684 PUSH2 0x467F DUP3 PUSH2 0x4D3D JUMP JUMPDEST PUSH2 0x4D0C JUMP JUMPDEST DUP2 DUP2 MSTORE DUP5 PUSH1 0x20 DUP4 DUP7 ADD ADD GT ISZERO PUSH2 0x4698 JUMPI DUP3 DUP4 REVERT JUMPDEST DUP2 PUSH1 0x20 DUP6 ADD PUSH1 0x20 DUP4 ADD CALLDATACOPY SWAP1 DUP2 ADD PUSH1 0x20 ADD SWAP2 SWAP1 SWAP2 MSTORE SWAP3 SWAP2 POP POP JUMP JUMPDEST PUSH1 0x0 PUSH1 0x20 DUP3 DUP5 SUB SLT ISZERO PUSH2 0x46C3 JUMPI DUP1 DUP2 REVERT JUMPDEST DUP2 CALLDATALOAD PUSH2 0x3B78 DUP2 PUSH2 0x4FDE JUMP JUMPDEST PUSH1 0x0 PUSH1 0x20 DUP3 DUP5 SUB SLT ISZERO PUSH2 0x46DF JUMPI DUP1 DUP2 REVERT JUMPDEST DUP2 MLOAD PUSH2 0x3B78 DUP2 PUSH2 0x4FDE JUMP JUMPDEST PUSH1 0x0 DUP1 PUSH1 0x40 DUP4 DUP6 SUB SLT ISZERO PUSH2 0x46FC JUMPI DUP1 DUP2 REVERT JUMPDEST DUP3 CALLDATALOAD PUSH2 0x4707 DUP2 PUSH2 0x4FDE JUMP JUMPDEST SWAP2 POP PUSH1 0x20 DUP4 ADD CALLDATALOAD PUSH2 0x4717 DUP2 PUSH2 0x4FDE JUMP JUMPDEST DUP1 SWAP2 POP POP SWAP3 POP SWAP3 SWAP1 POP JUMP JUMPDEST PUSH1 0x0 DUP1 PUSH1 0x0 PUSH1 0x60 DUP5 DUP7 SUB SLT ISZERO PUSH2 0x4736 JUMPI DUP1 DUP2 REVERT JUMPDEST DUP4 CALLDATALOAD PUSH2 0x4741 DUP2 PUSH2 0x4FDE JUMP JUMPDEST SWAP3 POP PUSH1 0x20 DUP5 ADD CALLDATALOAD PUSH2 0x4751 DUP2 PUSH2 0x4FDE JUMP JUMPDEST SWAP3 SWAP6 SWAP3 SWAP5 POP POP POP PUSH1 0x40 SWAP2 SWAP1 SWAP2 ADD CALLDATALOAD SWAP1 JUMP JUMPDEST PUSH1 0x0 DUP1 PUSH1 0x0 DUP1 PUSH1 0x0 DUP1 PUSH1 0x0 PUSH1 0xE0 DUP9 DUP11 SUB SLT ISZERO PUSH2 0x477C JUMPI DUP3 DUP4 REVERT JUMPDEST DUP8 CALLDATALOAD PUSH2 0x4787 DUP2 PUSH2 0x4FDE JUMP JUMPDEST SWAP7 POP PUSH1 0x20 DUP9 ADD CALLDATALOAD PUSH2 0x4797 DUP2 PUSH2 0x4FDE JUMP JUMPDEST SWAP6 POP PUSH1 0x40 DUP9 ADD CALLDATALOAD SWAP5 POP PUSH1 0x60 DUP9 ADD CALLDATALOAD SWAP4 POP PUSH1 0x80 DUP9 ADD CALLDATALOAD PUSH2 0x47B5 DUP2 PUSH2 0x5000 JUMP JUMPDEST SWAP7 SWAP10 SWAP6 SWAP9 POP SWAP4 SWAP7 SWAP3 SWAP6 SWAP5 PUSH1 0xA0 DUP5 ADD CALLDATALOAD SWAP5 POP PUSH1 0xC0 SWAP1 SWAP4 ADD CALLDATALOAD SWAP3 SWAP2 POP POP JUMP JUMPDEST PUSH1 0x0 DUP1 PUSH1 0x40 DUP4 DUP6 SUB SLT ISZERO PUSH2 0x47E4 JUMPI DUP2 DUP3 REVERT JUMPDEST DUP3 CALLDATALOAD PUSH2 0x47EF DUP2 PUSH2 0x4FDE JUMP JUMPDEST SWAP5 PUSH1 0x20 SWAP4 SWAP1 SWAP4 ADD CALLDATALOAD SWAP4 POP POP POP JUMP JUMPDEST PUSH1 0x0 DUP1 PUSH1 0x0 DUP1 PUSH1 0x0 PUSH1 0xA0 DUP7 DUP9 SUB SLT ISZERO PUSH2 0x4814 JUMPI DUP3 DUP4 REVERT JUMPDEST DUP6 CALLDATALOAD PUSH2 0x481F DUP2 PUSH2 0x4FDE JUMP JUMPDEST SWAP5 POP PUSH1 0x20 DUP7 ADD CALLDATALOAD PUSH2 0x482F DUP2 PUSH2 0x4FDE JUMP JUMPDEST SWAP4 POP PUSH1 0x40 DUP7 ADD CALLDATALOAD PUSH2 0x483F DUP2 PUSH2 0x4FDE JUMP JUMPDEST SWAP3 POP PUSH1 0x60 DUP7 ADD CALLDATALOAD PUSH2 0x484F DUP2 PUSH2 0x5000 JUMP JUMPDEST SWAP2 POP PUSH1 0x80 DUP7 ADD CALLDATALOAD PUSH2 0x485F DUP2 PUSH2 0x4FF3 JUMP JUMPDEST DUP1 SWAP2 POP POP SWAP3 SWAP6 POP SWAP3 SWAP6 SWAP1 SWAP4 POP JUMP JUMPDEST PUSH1 0x0 PUSH1 0x20 DUP3 DUP5 SUB SLT ISZERO PUSH2 0x487E JUMPI DUP1 DUP2 REVERT JUMPDEST DUP2 MLOAD PUSH2 0x3B78 DUP2 PUSH2 0x4FF3 JUMP JUMPDEST PUSH1 0x0 PUSH1 0x20 DUP3 DUP5 SUB SLT ISZERO PUSH2 0x489A JUMPI DUP1 DUP2 REVERT JUMPDEST POP CALLDATALOAD SWAP2 SWAP1 POP JUMP JUMPDEST PUSH1 0x0 PUSH1 0x20 DUP3 DUP5 SUB SLT ISZERO PUSH2 0x48B2 JUMPI DUP1 DUP2 REVERT JUMPDEST POP MLOAD SWAP2 SWAP1 POP JUMP JUMPDEST PUSH1 0x0 PUSH1 0x20 DUP3 DUP5 SUB SLT ISZERO PUSH2 0x48CA JUMPI DUP1 DUP2 REVERT JUMPDEST DUP2 MLOAD PUSH8 0xFFFFFFFFFFFFFFFF DUP2 GT ISZERO PUSH2 0x48E0 JUMPI DUP2 DUP3 REVERT JUMPDEST DUP3 ADD PUSH1 0x1F DUP2 ADD DUP5 SGT PUSH2 0x48F0 JUMPI DUP2 DUP3 REVERT JUMPDEST DUP1 MLOAD PUSH2 0x48FE PUSH2 0x467F DUP3 PUSH2 0x4D3D JUMP JUMPDEST DUP2 DUP2 MSTORE DUP6 PUSH1 0x20 DUP4 DUP6 ADD ADD GT ISZERO PUSH2 0x4912 JUMPI DUP4 DUP5 REVERT JUMPDEST PUSH2 0x4923 DUP3 PUSH1 0x20 DUP4 ADD PUSH1 0x20 DUP7 ADD PUSH2 0x4EEE JUMP JUMPDEST SWAP6 SWAP5 POP POP POP POP POP JUMP JUMPDEST PUSH1 0x0 DUP1 PUSH1 0x0 PUSH1 0x60 DUP5 DUP7 SUB SLT ISZERO PUSH2 0x4940 JUMPI DUP1 DUP2 REVERT JUMPDEST DUP4 CALLDATALOAD PUSH8 0xFFFFFFFFFFFFFFFF DUP1 DUP3 GT ISZERO PUSH2 0x4957 JUMPI DUP3 DUP4 REVERT JUMPDEST PUSH2 0x4963 DUP8 DUP4 DUP9 ADD PUSH2 0x4661 JUMP JUMPDEST SWAP5 POP PUSH1 0x20 DUP7 ADD CALLDATALOAD SWAP2 POP DUP1 DUP3 GT ISZERO PUSH2 0x4978 JUMPI DUP3 DUP4 REVERT JUMPDEST POP PUSH2 0x4985 DUP7 DUP3 DUP8 ADD PUSH2 0x4661 JUMP JUMPDEST SWAP3 POP POP PUSH1 0x40 DUP5 ADD CALLDATALOAD PUSH2 0x4996 DUP2 PUSH2 0x5000 JUMP JUMPDEST DUP1 SWAP2 POP POP SWAP3 POP SWAP3 POP SWAP3 JUMP JUMPDEST PUSH1 0x0 DUP1 PUSH1 0x40 DUP4 DUP6 SUB SLT ISZERO PUSH2 0x49B3 JUMPI DUP2 DUP3 REVERT JUMPDEST POP POP DUP1 CALLDATALOAD SWAP3 PUSH1 0x20 SWAP1 SWAP2 ADD CALLDATALOAD SWAP2 POP JUMP JUMPDEST PUSH1 0x0 DUP1 PUSH1 0x40 DUP4 DUP6 SUB SLT ISZERO PUSH2 0x49D4 JUMPI DUP2 DUP3 REVERT JUMPDEST POP POP DUP1 MLOAD PUSH1 0x20 SWAP1 SWAP2 ADD MLOAD SWAP1 SWAP3 SWAP1 SWAP2 POP JUMP JUMPDEST PUSH1 0x0 PUSH1 0x20 DUP3 DUP5 SUB SLT ISZERO PUSH2 0x49F6 JUMPI DUP1 DUP2 REVERT JUMPDEST DUP2 MLOAD PUSH2 0x3B78 DUP2 PUSH2 0x5000 JUMP JUMPDEST PUSH1 0x2 DUP2 LT PUSH2 0x4A1F JUMPI PUSH4 0x4E487B71 PUSH1 0xE0 SHL PUSH1 0x0 MSTORE PUSH1 0x21 PUSH1 0x4 MSTORE PUSH1 0x24 PUSH1 0x0 REVERT JUMPDEST SWAP1 MSTORE JUMP JUMPDEST PUSH1 0x0 DUP5 MLOAD PUSH2 0x4A35 DUP2 DUP5 PUSH1 0x20 DUP10 ADD PUSH2 0x4EEE JUMP JUMPDEST DUP5 MLOAD SWAP1 DUP4 ADD SWAP1 PUSH2 0x4A49 DUP2 DUP4 PUSH1 0x20 DUP10 ADD PUSH2 0x4EEE JUMP JUMPDEST DUP5 MLOAD SWAP2 ADD SWAP1 PUSH2 0x4A5C DUP2 DUP4 PUSH1 0x20 DUP9 ADD PUSH2 0x4EEE JUMP JUMPDEST ADD SWAP6 SWAP5 POP POP POP POP POP JUMP JUMPDEST PUSH1 0x0 DUP5 MLOAD PUSH2 0x4A78 DUP2 DUP5 PUSH1 0x20 DUP10 ADD PUSH2 0x4EEE JUMP JUMPDEST PUSH2 0x2C1 PUSH1 0xF5 SHL SWAP1 DUP4 ADD SWAP1 DUP2 MSTORE DUP5 MLOAD PUSH2 0x4A97 DUP2 PUSH1 0x2 DUP5 ADD PUSH1 0x20 DUP10 ADD PUSH2 0x4EEE JUMP JUMPDEST PUSH1 0x1 PUSH1 0xFD SHL PUSH1 0x2 SWAP3 SWAP1 SWAP2 ADD SWAP2 DUP3 ADD MSTORE DUP4 MLOAD PUSH2 0x4AB9 DUP2 PUSH1 0x3 DUP5 ADD PUSH1 0x20 DUP9 ADD PUSH2 0x4EEE JUMP JUMPDEST ADD PUSH1 0x3 ADD SWAP6 SWAP5 POP POP POP POP POP JUMP JUMPDEST PUSH1 0x0 DUP5 MLOAD PUSH2 0x4AD8 DUP2 DUP5 PUSH1 0x20 DUP10 ADD PUSH2 0x4EEE JUMP JUMPDEST PUSH2 0x2C1 PUSH1 0xF5 SHL SWAP1 DUP4 ADD SWAP1 DUP2 MSTORE PUSH8 0x24B73B32B939B29 PUSH1 0xC5 SHL PUSH1 0x2 DUP3 ADD MSTORE DUP5 MLOAD PUSH2 0x4B08 DUP2 PUSH1 0xA DUP5 ADD PUSH1 0x20 DUP10 ADD PUSH2 0x4EEE JUMP JUMPDEST PUSH1 0x1 PUSH1 0xFD SHL PUSH1 0xA SWAP3 SWAP1 SWAP2 ADD SWAP2 DUP3 ADD MSTORE DUP4 MLOAD PUSH2 0x4B2A DUP2 PUSH1 0xB DUP5 ADD PUSH1 0x20 DUP9 ADD PUSH2 0x4EEE JUMP JUMPDEST ADD PUSH1 0xB ADD SWAP6 SWAP5 POP POP POP POP POP JUMP JUMPDEST PUSH1 0x0 DUP5 MLOAD PUSH2 0x4B49 DUP2 DUP5 PUSH1 0x20 DUP10 ADD PUSH2 0x4EEE JUMP JUMPDEST PUSH1 0x49 PUSH1 0xF8 SHL SWAP1 DUP4 ADD SWAP1 DUP2 MSTORE DUP5 MLOAD PUSH2 0x4B67 DUP2 PUSH1 0x1 DUP5 ADD PUSH1 0x20 DUP10 ADD PUSH2 0x4EEE JUMP JUMPDEST DUP5 MLOAD SWAP2 ADD SWAP1 PUSH2 0x4B7D DUP2 PUSH1 0x1 DUP5 ADD PUSH1 0x20 DUP9 ADD PUSH2 0x4EEE JUMP JUMPDEST ADD PUSH1 0x1 ADD SWAP6 SWAP5 POP POP POP POP POP JUMP JUMPDEST PUSH1 0x1 PUSH1 0x1 PUSH1 0xA0 SHL SUB DUP7 DUP2 AND DUP3 MSTORE DUP6 DUP2 AND PUSH1 0x20 DUP4 ADD MSTORE PUSH1 0xFF DUP6 AND PUSH1 0x40 DUP4 ADD MSTORE PUSH1 0xA0 DUP3 ADD SWAP1 PUSH2 0x4BBA PUSH1 0x60 DUP5 ADD DUP7 PUSH2 0x4A01 JUMP JUMPDEST DUP1 DUP5 AND PUSH1 0x80 DUP5 ADD MSTORE POP SWAP7 SWAP6 POP POP POP POP POP POP JUMP JUMPDEST PUSH1 0x1 PUSH1 0x1 PUSH1 0xA0 SHL SUB DUP5 AND DUP2 MSTORE PUSH1 0xFF DUP4 AND PUSH1 0x20 DUP3 ADD MSTORE PUSH1 0x60 DUP2 ADD PUSH2 0x3A3E PUSH1 0x40 DUP4 ADD DUP5 PUSH2 0x4A01 JUMP JUMPDEST PUSH1 0x20 DUP2 ADD PUSH2 0x72F DUP3 DUP5 PUSH2 0x4A01 JUMP JUMPDEST PUSH1 0x0 PUSH1 0x20 DUP3 MSTORE DUP3 MLOAD DUP1 PUSH1 0x20 DUP5 ADD MSTORE PUSH2 0x4C20 DUP2 PUSH1 0x40 DUP6 ADD PUSH1 0x20 DUP8 ADD PUSH2 0x4EEE JUMP JUMPDEST PUSH1 0x1F ADD PUSH1 0x1F NOT AND SWAP2 SWAP1 SWAP2 ADD PUSH1 0x40 ADD SWAP3 SWAP2 POP POP JUMP JUMPDEST PUSH1 0x20 DUP1 DUP3 MSTORE PUSH1 0x28 SWAP1 DUP3 ADD MSTORE PUSH32 0x434242433A20544F5F535553504943494F55535F414444524553535F4E4F545F PUSH1 0x40 DUP3 ADD MSTORE PUSH8 0x20A62627ABA2A217 PUSH1 0xC1 SHL PUSH1 0x60 DUP3 ADD MSTORE PUSH1 0x80 ADD SWAP1 JUMP JUMPDEST PUSH1 0x20 DUP1 DUP3 MSTORE PUSH1 0x22 SWAP1 DUP3 ADD MSTORE PUSH32 0x434242433A20544F5F5A45524F5F414444524553535F4E4F545F414C4C4F5745 PUSH1 0x40 DUP3 ADD MSTORE PUSH2 0x2217 PUSH1 0xF1 SHL PUSH1 0x60 DUP3 ADD MSTORE PUSH1 0x80 ADD SWAP1 JUMP JUMPDEST PUSH1 0x20 DUP1 DUP3 MSTORE PUSH1 0x2E SWAP1 DUP3 ADD MSTORE PUSH32 0x436F6E747261637420696E7374616E63652068617320616C7265616479206265 PUSH1 0x40 DUP3 ADD MSTORE PUSH14 0x195B881A5B9A5D1A585B1A5E9959 PUSH1 0x92 SHL PUSH1 0x60 DUP3 ADD MSTORE PUSH1 0x80 ADD SWAP1 JUMP JUMPDEST PUSH1 0x40 MLOAD PUSH1 0x1F DUP3 ADD PUSH1 0x1F NOT AND DUP2 ADD PUSH8 0xFFFFFFFFFFFFFFFF DUP2 GT DUP3 DUP3 LT OR ISZERO PUSH2 0x4D35 JUMPI PUSH2 0x4D35 PUSH2 0x4FC8 JUMP JUMPDEST PUSH1 0x40 MSTORE SWAP2 SWAP1 POP JUMP JUMPDEST PUSH1 0x0 PUSH8 0xFFFFFFFFFFFFFFFF DUP3 GT ISZERO PUSH2 0x4D57 JUMPI PUSH2 0x4D57 PUSH2 0x4FC8 JUMP JUMPDEST POP PUSH1 0x1F ADD PUSH1 0x1F NOT AND PUSH1 0x20 ADD SWAP1 JUMP JUMPDEST PUSH1 0x0 DUP3 NOT DUP3 GT ISZERO PUSH2 0x4D78 JUMPI PUSH2 0x4D78 PUSH2 0x4F9C JUMP JUMPDEST POP ADD SWAP1 JUMP JUMPDEST PUSH1 0x0 DUP3 PUSH2 0x4D8C JUMPI PUSH2 0x4D8C PUSH2 0x4FB2 JUMP JUMPDEST POP DIV SWAP1 JUMP JUMPDEST DUP1 DUP3 JUMPDEST PUSH1 0x1 DUP1 DUP7 GT PUSH2 0x4DA3 JUMPI POP PUSH2 0x4DCE JUMP JUMPDEST DUP2 DUP8 DIV DUP3 GT ISZERO PUSH2 0x4DB5 JUMPI PUSH2 0x4DB5 PUSH2 0x4F9C JUMP JUMPDEST DUP1 DUP7 AND ISZERO PUSH2 0x4DC2 JUMPI SWAP2 DUP2 MUL SWAP2 JUMPDEST SWAP5 SWAP1 SWAP5 SHR SWAP4 DUP1 MUL PUSH2 0x4D94 JUMP JUMPDEST SWAP5 POP SWAP5 SWAP3 POP POP POP JUMP JUMPDEST PUSH1 0x0 PUSH2 0x3B78 PUSH1 0x0 NOT DUP5 DUP5 PUSH2 0x4DF4 JUMP JUMPDEST PUSH1 0x0 PUSH2 0x3B78 PUSH1 0x0 NOT PUSH1 0xFF DUP6 AND DUP5 JUMPDEST PUSH1 0x0 DUP3 PUSH2 0x4E03 JUMPI POP PUSH1 0x1 PUSH2 0x3B78 JUMP JUMPDEST DUP2 PUSH2 0x4E10 JUMPI POP PUSH1 0x0 PUSH2 0x3B78 JUMP JUMPDEST DUP2 PUSH1 0x1 DUP2 EQ PUSH2 0x4E26 JUMPI PUSH1 0x2 DUP2 EQ PUSH2 0x4E30 JUMPI PUSH2 0x4E5D JUMP JUMPDEST PUSH1 0x1 SWAP2 POP POP PUSH2 0x3B78 JUMP JUMPDEST PUSH1 0xFF DUP5 GT ISZERO PUSH2 0x4E41 JUMPI PUSH2 0x4E41 PUSH2 0x4F9C JUMP JUMPDEST PUSH1 0x1 DUP5 SHL SWAP2 POP DUP5 DUP3 GT ISZERO PUSH2 0x4E57 JUMPI PUSH2 0x4E57 PUSH2 0x4F9C JUMP JUMPDEST POP PUSH2 0x3B78 JUMP JUMPDEST POP PUSH1 0x20 DUP4 LT PUSH2 0x133 DUP4 LT AND PUSH1 0x4E DUP5 LT PUSH1 0xB DUP5 LT AND OR ISZERO PUSH2 0x4E90 JUMPI POP DUP2 DUP2 EXP DUP4 DUP2 GT ISZERO PUSH2 0x4E8B JUMPI PUSH2 0x4E8B PUSH2 0x4F9C JUMP JUMPDEST PUSH2 0x3B78 JUMP JUMPDEST PUSH2 0x4E9D DUP5 DUP5 DUP5 PUSH1 0x1 PUSH2 0x4D91 JUMP JUMPDEST DUP1 DUP7 DIV DUP3 GT ISZERO PUSH2 0x4EAF JUMPI PUSH2 0x4EAF PUSH2 0x4F9C JUMP JUMPDEST MUL SWAP5 SWAP4 POP POP POP POP JUMP JUMPDEST PUSH1 0x0 DUP2 PUSH1 0x0 NOT DIV DUP4 GT DUP3 ISZERO ISZERO AND ISZERO PUSH2 0x4ED2 JUMPI PUSH2 0x4ED2 PUSH2 0x4F9C JUMP JUMPDEST POP MUL SWAP1 JUMP JUMPDEST PUSH1 0x0 DUP3 DUP3 LT ISZERO PUSH2 0x4EE9 JUMPI PUSH2 0x4EE9 PUSH2 0x4F9C JUMP JUMPDEST POP SUB SWAP1 JUMP JUMPDEST PUSH1 0x0 JUMPDEST DUP4 DUP2 LT ISZERO PUSH2 0x4F09 JUMPI DUP2 DUP2 ADD MLOAD DUP4 DUP3 ADD MSTORE PUSH1 0x20 ADD PUSH2 0x4EF1 JUMP JUMPDEST DUP4 DUP2 GT ISZERO PUSH2 0x4F18 JUMPI PUSH1 0x0 DUP5 DUP5 ADD MSTORE JUMPDEST POP POP POP POP JUMP JUMPDEST PUSH1 0x1 DUP2 DUP2 SHR SWAP1 DUP3 AND DUP1 PUSH2 0x4F32 JUMPI PUSH1 0x7F DUP3 AND SWAP2 POP JUMPDEST PUSH1 0x20 DUP3 LT DUP2 EQ ISZERO PUSH2 0x1E1E JUMPI PUSH4 0x4E487B71 PUSH1 0xE0 SHL PUSH1 0x0 MSTORE PUSH1 0x22 PUSH1 0x4 MSTORE PUSH1 0x24 PUSH1 0x0 REVERT JUMPDEST PUSH1 0x0 PUSH1 0x0 NOT DUP3 EQ ISZERO PUSH2 0x4F67 JUMPI PUSH2 0x4F67 PUSH2 0x4F9C JUMP JUMPDEST POP PUSH1 0x1 ADD SWAP1 JUMP JUMPDEST PUSH1 0x0 DUP3 PUSH2 0x4F7D JUMPI PUSH2 0x4F7D PUSH2 0x4FB2 JUMP JUMPDEST POP MOD SWAP1 JUMP JUMPDEST PUSH1 0x0 PUSH1 0x1 PUSH1 0xFF SHL DUP3 EQ ISZERO PUSH2 0x4F98 JUMPI PUSH2 0x4F98 PUSH2 0x4F9C JUMP JUMPDEST SUB SWAP1 JUMP JUMPDEST PUSH4 0x4E487B71 PUSH1 0xE0 SHL PUSH1 0x0 MSTORE PUSH1 0x11 PUSH1 0x4 MSTORE PUSH1 0x24 PUSH1 0x0 REVERT JUMPDEST PUSH4 0x4E487B71 PUSH1 0xE0 SHL PUSH1 0x0 MSTORE PUSH1 0x12 PUSH1 0x4 MSTORE PUSH1 0x24 PUSH1 0x0 REVERT JUMPDEST PUSH4 0x4E487B71 PUSH1 0xE0 SHL PUSH1 0x0 MSTORE PUSH1 0x41 PUSH1 0x4 MSTORE PUSH1 0x24 PUSH1 0x0 REVERT JUMPDEST PUSH1 0x1 PUSH1 0x1 PUSH1 0xA0 SHL SUB DUP2 AND DUP2 EQ PUSH2 0x2480 JUMPI PUSH1 0x0 DUP1 REVERT JUMPDEST PUSH1 0x2 DUP2 LT PUSH2 0x2480 JUMPI PUSH1 0x0 DUP1 REVERT JUMPDEST PUSH1 0xFF DUP2 AND DUP2 EQ PUSH2 0x2480 JUMPI PUSH1 0x0 DUP1 REVERT INVALID 0xDD CALLCODE MSTORE 0xAD SHL 0xE2 0xC8 SWAP12 PUSH10 0xC2B068FC378DAA952BA7 CALL PUSH4 0xC4A11628 CREATE2 GAS 0x4D CREATE2 0x23 0xB3 0xEF DUP13 JUMPDEST 0xE1 0xE5 0xEB 0xEC PUSH30 0x5BD14F71427D1E84F3DD0314C0F7B2291E5B200AC8C7C3B925A264697066 PUSH20 0x58221220D48BC1971ECC5569F5CAD0B015A7C6F1 JUMP 0x4B JUMPDEST PUSH29 0xA6469B87A620A06A93F8BADA64736F6C63430008030033000000000000 "
		},
		"gasEstimates": {
			"creation": {
				"codeDepositCost": "4122600",
				"executionCost": "44745",
				"totalCost": "4167345"
			},
			"external": {
				"DOMAIN_SEPARATOR()": "infinite",
				"EIP712_DOMAIN()": "305",
				"EIP712_REVISION()": "infinite",
				"PERMIT_TYPEHASH()": "329",
				"allowance(address,address)": "infinite",
				"approve(address,uint256)": "infinite",
				"balanceOf(address)": "2253",
				"beta()": "1040",
				"burnCbbc(address,uint256)": "infinite",
				"cbbcType()": "1214",
				"currentPrice()": "infinite",
				"decimals()": "1163",
				"decreaseAllowance(address,uint256)": "infinite",
				"factory()": "1104",
				"increaseAllowance(address,uint256)": "infinite",
				"initialize(address)": "44525",
				"initialize(address,address,address,uint8,uint8)": "infinite",
				"initialize(string,string,uint8)": "infinite",
				"isOwner()": "1092",
				"leverage()": "1120",
				"mintCbbc(address,uint256)": "infinite",
				"name()": "infinite",
				"nonces(address)": "1364",
				"owner()": "1077",
				"permit(address,address,uint256,uint256,uint8,bytes32,bytes32)": "infinite",
				"rebase(uint256,int256)": "infinite",
				"rebasePolicy()": "1192",
				"rebasePrice()": "1061",
				"rebaseTimestamp()": "1064",
				"renounceOwnership()": "23847",
				"router()": "1191",
				"scaledBalanceOf(address)": "1298",
				"scaledTotalSupply()": "2043",
				"setBeta(int256)": "22311",
				"setRebasePolicy(address)": "23218",
				"setRouter(address)": "23119",
				"settleToken()": "1104",
				"symbol()": "infinite",
				"totalSupply()": "1127",
				"tradeToken()": "1170",
				"transfer(address,uint256)": "infinite",
				"transferAll(address)": "infinite",
				"transferAllFrom(address,address)": "infinite",
				"transferFrom(address,address,uint256)": "infinite",
				"transferOwnership(address)": "infinite"
			},
			"internal": {
				"_burn(address,uint256)": "infinite",
				"_mint(address,uint256)": "infinite",
				"_safeTransfer(address,address,uint256)": "infinite"
			}
		},
		"methodIdentifiers": {
			"DOMAIN_SEPARATOR()": "3644e515",
			"EIP712_DOMAIN()": "e1b11da4",
			"EIP712_REVISION()": "78160376",
			"PERMIT_TYPEHASH()": "30adf81f",
			"allowance(address,address)": "dd62ed3e",
			"approve(address,uint256)": "095ea7b3",
			"balanceOf(address)": "70a08231",
			"beta()": "9faa3c91",
			"burnCbbc(address,uint256)": "2d54a21b",
			"cbbcType()": "3c974946",
			"currentPrice()": "9d1b464a",
			"decimals()": "313ce567",
			"decreaseAllowance(address,uint256)": "a457c2d7",
			"factory()": "c45a0155",
			"increaseAllowance(address,uint256)": "39509351",
			"initialize(address)": "c4d66de8",
			"initialize(address,address,address,uint8,uint8)": "903cd3e3",
			"initialize(string,string,uint8)": "1624f6c6",
			"isOwner()": "8f32d59b",
			"leverage()": "2c86d98e",
			"mintCbbc(address,uint256)": "3697c562",
			"name()": "06fdde03",
			"nonces(address)": "7ecebe00",
			"owner()": "8da5cb5b",
			"permit(address,address,uint256,uint256,uint8,bytes32,bytes32)": "d505accf",
			"rebase(uint256,int256)": "7a43e23f",
			"rebasePolicy()": "bbb1863a",
			"rebasePrice()": "ddd6f962",
			"rebaseTimestamp()": "08a3809d",
			"renounceOwnership()": "715018a6",
			"router()": "f887ea40",
			"scaledBalanceOf(address)": "1da24f3e",
			"scaledTotalSupply()": "b1bf962d",
			"setBeta(int256)": "d9131384",
			"setRebasePolicy(address)": "df896754",
			"setRouter(address)": "c0d78655",
			"settleToken()": "74e14eb8",
			"symbol()": "95d89b41",
			"totalSupply()": "18160ddd",
			"tradeToken()": "d83678ac",
			"transfer(address,uint256)": "a9059cbb",
			"transferAll(address)": "a3a7e7f3",
			"transferAllFrom(address,address)": "84d4b410",
			"transferFrom(address,address,uint256)": "23b872dd",
			"transferOwnership(address)": "f2fde38b"
		}
	},
	"abi": [
		{
			"anonymous": false,
			"inputs": [
				{
					"indexed": true,
					"internalType": "address",
					"name": "owner",
					"type": "address"
				},
				{
					"indexed": true,
					"internalType": "address",
					"name": "spender",
					"type": "address"
				},
				{
					"indexed": false,
					"internalType": "uint256",
					"name": "value",
					"type": "uint256"
				}
			],
			"name": "Approval",
			"type": "event"
		},
		{
			"anonymous": false,
			"inputs": [
				{
					"indexed": true,
					"internalType": "address",
					"name": "sender",
					"type": "address"
				},
				{
					"indexed": false,
					"internalType": "uint256",
					"name": "liquidity",
					"type": "uint256"
				},
				{
					"indexed": true,
					"internalType": "address",
					"name": "to",
					"type": "address"
				}
			],
			"name": "Burn",
			"type": "event"
		},
		{
			"anonymous": false,
			"inputs": [
				{
					"indexed": true,
					"internalType": "address",
					"name": "settleToken",
					"type": "address"
				},
				{
					"indexed": true,
					"internalType": "address",
					"name": "tradeToken",
					"type": "address"
				},
				{
					"indexed": false,
					"internalType": "address",
					"name": "cbbc",
					"type": "address"
				},
				{
					"indexed": false,
					"internalType": "uint8",
					"name": "leverage",
					"type": "uint8"
				},
				{
					"indexed": false,
					"internalType": "enum ICbbcToken.CbbcType",
					"name": "cbbcType",
					"type": "uint8"
				}
			],
			"name": "CbbcCreated",
			"type": "event"
		},
		{
			"anonymous": false,
			"inputs": [
				{
					"indexed": false,
					"internalType": "int256",
					"name": "beta_",
					"type": "int256"
				}
			],
			"name": "LogBetaUpdated",
			"type": "event"
		},
		{
			"anonymous": false,
			"inputs": [
				{
					"indexed": true,
					"internalType": "uint256",
					"name": "epoch",
					"type": "uint256"
				},
				{
					"indexed": false,
					"internalType": "uint256",
					"name": "",
					"type": "uint256"
				},
				{
					"indexed": false,
					"internalType": "uint256",
					"name": "price",
					"type": "uint256"
				},
				{
					"indexed": false,
					"internalType": "uint256",
					"name": "totalSupply",
					"type": "uint256"
				}
			],
			"name": "LogRebase",
			"type": "event"
		},
		{
			"anonymous": false,
			"inputs": [
				{
					"indexed": false,
					"internalType": "address",
					"name": "rebasePolicy",
					"type": "address"
				}
			],
			"name": "LogRebasePolicyUpdated",
			"type": "event"
		},
		{
			"anonymous": false,
			"inputs": [
				{
					"indexed": false,
					"internalType": "address",
					"name": "router_",
					"type": "address"
				}
			],
			"name": "LogRouterUpdated",
			"type": "event"
		},
		{
			"anonymous": false,
			"inputs": [
				{
					"indexed": true,
					"internalType": "address",
					"name": "sender",
					"type": "address"
				},
				{
					"indexed": false,
					"internalType": "uint256",
					"name": "liquidity",
					"type": "uint256"
				}
			],
			"name": "Mint",
			"type": "event"
		},
		{
			"anonymous": false,
			"inputs": [
				{
					"indexed": true,
					"internalType": "address",
					"name": "previousOwner",
					"type": "address"
				}
			],
			"name": "OwnershipRenounced",
			"type": "event"
		},
		{
			"anonymous": false,
			"inputs": [
				{
					"indexed": true,
					"internalType": "address",
					"name": "previousOwner",
					"type": "address"
				},
				{
					"indexed": true,
					"internalType": "address",
					"name": "newOwner",
					"type": "address"
				}
			],
			"name": "OwnershipTransferred",
			"type": "event"
		},
		{
			"anonymous": false,
			"inputs": [
				{
					"indexed": true,
					"internalType": "address",
					"name": "from",
					"type": "address"
				},
				{
					"indexed": true,
					"internalType": "address",
					"name": "to",
					"type": "address"
				},
				{
					"indexed": false,
					"internalType": "uint256",
					"name": "value",
					"type": "uint256"
				}
			],
			"name": "Transfer",
			"type": "event"
		},
		{
			"inputs": [],
			"name": "DOMAIN_SEPARATOR",
			"outputs": [
				{
					"internalType": "bytes32",
					"name": "",
					"type": "bytes32"
				}
			],
			"stateMutability": "view",
			"type": "function"
		},
		{
			"inputs": [],
			"name": "EIP712_DOMAIN",
			"outputs": [
				{
					"internalType": "bytes32",
					"name": "",
					"type": "bytes32"
				}
			],
			"stateMutability": "view",
			"type": "function"
		},
		{
			"inputs": [],
			"name": "EIP712_REVISION",
			"outputs": [
				{
					"internalType": "string",
					"name": "",
					"type": "string"
				}
			],
			"stateMutability": "view",
			"type": "function"
		},
		{
			"inputs": [],
			"name": "PERMIT_TYPEHASH",
			"outputs": [
				{
					"internalType": "bytes32",
					"name": "",
					"type": "bytes32"
				}
			],
			"stateMutability": "view",
			"type": "function"
		},
		{
			"inputs": [
				{
					"internalType": "address",
					"name": "owner_",
					"type": "address"
				},
				{
					"internalType": "address",
					"name": "spender",
					"type": "address"
				}
			],
			"name": "allowance",
			"outputs": [
				{
					"internalType": "uint256",
					"name": "",
					"type": "uint256"
				}
			],
			"stateMutability": "view",
			"type": "function"
		},
		{
			"inputs": [
				{
					"internalType": "address",
					"name": "spender",
					"type": "address"
				},
				{
					"internalType": "uint256",
					"name": "value",
					"type": "uint256"
				}
			],
			"name": "approve",
			"outputs": [
				{
					"internalType": "bool",
					"name": "",
					"type": "bool"
				}
			],
			"stateMutability": "nonpayable",
			"type": "function"
		},
		{
			"inputs": [
				{
					"internalType": "address",
					"name": "who",
					"type": "address"
				}
			],
			"name": "balanceOf",
			"outputs": [
				{
					"internalType": "uint256",
					"name": "",
					"type": "uint256"
				}
			],
			"stateMutability": "view",
			"type": "function"
		},
		{
			"inputs": [],
			"name": "beta",
			"outputs": [
				{
					"internalType": "int256",
					"name": "",
					"type": "int256"
				}
			],
			"stateMutability": "view",
			"type": "function"
		},
		{
			"inputs": [
				{
					"internalType": "address",
					"name": "to",
					"type": "address"
				},
				{
					"internalType": "uint256",
					"name": "cbbcAmount",
					"type": "uint256"
				}
			],
			"name": "burnCbbc",
			"outputs": [
				{
					"internalType": "uint256",
					"name": "settleAmount",
					"type": "uint256"
				}
			],
			"stateMutability": "nonpayable",
			"type": "function"
		},
		{
			"inputs": [],
			"name": "cbbcType",
			"outputs": [
				{
					"internalType": "enum ICbbcToken.CbbcType",
					"name": "",
					"type": "uint8"
				}
			],
			"stateMutability": "view",
			"type": "function"
		},
		{
			"inputs": [],
			"name": "currentPrice",
			"outputs": [
				{
					"internalType": "uint256",
					"name": "",
					"type": "uint256"
				}
			],
			"stateMutability": "view",
			"type": "function"
		},
		{
			"inputs": [],
			"name": "decimals",
			"outputs": [
				{
					"internalType": "uint8",
					"name": "",
					"type": "uint8"
				}
			],
			"stateMutability": "view",
			"type": "function"
		},
		{
			"inputs": [
				{
					"internalType": "address",
					"name": "spender",
					"type": "address"
				},
				{
					"internalType": "uint256",
					"name": "subtractedValue",
					"type": "uint256"
				}
			],
			"name": "decreaseAllowance",
			"outputs": [
				{
					"internalType": "bool",
					"name": "",
					"type": "bool"
				}
			],
			"stateMutability": "nonpayable",
			"type": "function"
		},
		{
			"inputs": [],
			"name": "factory",
			"outputs": [
				{
					"internalType": "contract ICbbcFactory",
					"name": "",
					"type": "address"
				}
			],
			"stateMutability": "view",
			"type": "function"
		},
		{
			"inputs": [
				{
					"internalType": "address",
					"name": "spender",
					"type": "address"
				},
				{
					"internalType": "uint256",
					"name": "addedValue",
					"type": "uint256"
				}
			],
			"name": "increaseAllowance",
			"outputs": [
				{
					"internalType": "bool",
					"name": "",
					"type": "bool"
				}
			],
			"stateMutability": "nonpayable",
			"type": "function"
		},
		{
			"inputs": [
				{
					"internalType": "string",
					"name": "name_",
					"type": "string"
				},
				{
					"internalType": "string",
					"name": "symbol_",
					"type": "string"
				},
				{
					"internalType": "uint8",
					"name": "decimals_",
					"type": "uint8"
				}
			],
			"name": "initialize",
			"outputs": [],
			"stateMutability": "nonpayable",
			"type": "function"
		},
		{
			"inputs": [
				{
					"internalType": "contract ICbbcFactory",
					"name": "factory_",
					"type": "address"
				},
				{
					"internalType": "address",
					"name": "settleToken_",
					"type": "address"
				},
				{
					"internalType": "address",
					"name": "tradeToken_",
					"type": "address"
				},
				{
					"internalType": "uint8",
					"name": "leverage_",
					"type": "uint8"
				},
				{
					"internalType": "enum ICbbcToken.CbbcType",
					"name": "cbbcType_",
					"type": "uint8"
				}
			],
			"name": "initialize",
			"outputs": [],
			"stateMutability": "nonpayable",
			"type": "function"
		},
		{
			"inputs": [
				{
					"internalType": "address",
					"name": "sender",
					"type": "address"
				}
			],
			"name": "initialize",
			"outputs": [],
			"stateMutability": "nonpayable",
			"type": "function"
		},
		{
			"inputs": [],
			"name": "isOwner",
			"outputs": [
				{
					"internalType": "bool",
					"name": "",
					"type": "bool"
				}
			],
			"stateMutability": "view",
			"type": "function"
		},
		{
			"inputs": [],
			"name": "leverage",
			"outputs": [
				{
					"internalType": "uint8",
					"name": "",
					"type": "uint8"
				}
			],
			"stateMutability": "view",
			"type": "function"
		},
		{
			"inputs": [
				{
					"internalType": "address",
					"name": "to",
					"type": "address"
				},
				{
					"internalType": "uint256",
					"name": "settleAmount",
					"type": "uint256"
				}
			],
			"name": "mintCbbc",
			"outputs": [
				{
					"internalType": "uint256",
					"name": "cbbcAmount",
					"type": "uint256"
				}
			],
			"stateMutability": "nonpayable",
			"type": "function"
		},
		{
			"inputs": [],
			"name": "name",
			"outputs": [
				{
					"internalType": "string",
					"name": "",
					"type": "string"
				}
			],
			"stateMutability": "view",
			"type": "function"
		},
		{
			"inputs": [
				{
					"internalType": "address",
					"name": "who",
					"type": "address"
				}
			],
			"name": "nonces",
			"outputs": [
				{
					"internalType": "uint256",
					"name": "",
					"type": "uint256"
				}
			],
			"stateMutability": "view",
			"type": "function"
		},
		{
			"inputs": [],
			"name": "owner",
			"outputs": [
				{
					"internalType": "address",
					"name": "",
					"type": "address"
				}
			],
			"stateMutability": "view",
			"type": "function"
		},
		{
			"inputs": [
				{
					"internalType": "address",
					"name": "owner",
					"type": "address"
				},
				{
					"internalType": "address",
					"name": "spender",
					"type": "address"
				},
				{
					"internalType": "uint256",
					"name": "value",
					"type": "uint256"
				},
				{
					"internalType": "uint256",
					"name": "deadline",
					"type": "uint256"
				},
				{
					"internalType": "uint8",
					"name": "v",
					"type": "uint8"
				},
				{
					"internalType": "bytes32",
					"name": "r",
					"type": "bytes32"
				},
				{
					"internalType": "bytes32",
					"name": "s",
					"type": "bytes32"
				}
			],
			"name": "permit",
			"outputs": [],
			"stateMutability": "nonpayable",
			"type": "function"
		},
		{
			"inputs": [
				{
					"internalType": "uint256",
					"name": "epoch",
					"type": "uint256"
				},
				{
					"internalType": "int256",
					"name": "supplyDelta",
					"type": "int256"
				}
			],
			"name": "rebase",
			"outputs": [
				{
					"internalType": "uint256",
					"name": "",
					"type": "uint256"
				}
			],
			"stateMutability": "nonpayable",
			"type": "function"
		},
		{
			"inputs": [],
			"name": "rebasePolicy",
			"outputs": [
				{
					"internalType": "contract ICbbcRebasePolicy",
					"name": "",
					"type": "address"
				}
			],
			"stateMutability": "view",
			"type": "function"
		},
		{
			"inputs": [],
			"name": "rebasePrice",
			"outputs": [
				{
					"internalType": "uint256",
					"name": "",
					"type": "uint256"
				}
			],
			"stateMutability": "view",
			"type": "function"
		},
		{
			"inputs": [],
			"name": "rebaseTimestamp",
			"outputs": [
				{
					"internalType": "uint256",
					"name": "",
					"type": "uint256"
				}
			],
			"stateMutability": "view",
			"type": "function"
		},
		{
			"inputs": [],
			"name": "renounceOwnership",
			"outputs": [],
			"stateMutability": "nonpayable",
			"type": "function"
		},
		{
			"inputs": [],
			"name": "router",
			"outputs": [
				{
					"internalType": "address",
					"name": "",
					"type": "address"
				}
			],
			"stateMutability": "view",
			"type": "function"
		},
		{
			"inputs": [
				{
					"internalType": "address",
					"name": "who",
					"type": "address"
				}
			],
			"name": "scaledBalanceOf",
			"outputs": [
				{
					"internalType": "uint256",
					"name": "",
					"type": "uint256"
				}
			],
			"stateMutability": "view",
			"type": "function"
		},
		{
			"inputs": [],
			"name": "scaledTotalSupply",
			"outputs": [
				{
					"internalType": "uint256",
					"name": "",
					"type": "uint256"
				}
			],
			"stateMutability": "view",
			"type": "function"
		},
		{
			"inputs": [
				{
					"internalType": "int256",
					"name": "beta_",
					"type": "int256"
				}
			],
			"name": "setBeta",
			"outputs": [],
			"stateMutability": "nonpayable",
			"type": "function"
		},
		{
			"inputs": [
				{
					"internalType": "address",
					"name": "rebasePolicy_",
					"type": "address"
				}
			],
			"name": "setRebasePolicy",
			"outputs": [],
			"stateMutability": "nonpayable",
			"type": "function"
		},
		{
			"inputs": [
				{
					"internalType": "address",
					"name": "router_",
					"type": "address"
				}
			],
			"name": "setRouter",
			"outputs": [],
			"stateMutability": "nonpayable",
			"type": "function"
		},
		{
			"inputs": [],
			"name": "settleToken",
			"outputs": [
				{
					"internalType": "address",
					"name": "",
					"type": "address"
				}
			],
			"stateMutability": "view",
			"type": "function"
		},
		{
			"inputs": [],
			"name": "symbol",
			"outputs": [
				{
					"internalType": "string",
					"name": "",
					"type": "string"
				}
			],
			"stateMutability": "view",
			"type": "function"
		},
		{
			"inputs": [],
			"name": "totalSupply",
			"outputs": [
				{
					"internalType": "uint256",
					"name": "",
					"type": "uint256"
				}
			],
			"stateMutability": "view",
			"type": "function"
		},
		{
			"inputs": [],
			"name": "tradeToken",
			"outputs": [
				{
					"internalType": "address",
					"name": "",
					"type": "address"
				}
			],
			"stateMutability": "view",
			"type": "function"
		},
		{
			"inputs": [
				{
					"internalType": "address",
					"name": "to",
					"type": "address"
				},
				{
					"internalType": "uint256",
					"name": "value",
					"type": "uint256"
				}
			],
			"name": "transfer",
			"outputs": [
				{
					"internalType": "bool",
					"name": "",
					"type": "bool"
				}
			],
			"stateMutability": "nonpayable",
			"type": "function"
		},
		{
			"inputs": [
				{
					"internalType": "address",
					"name": "to",
					"type": "address"
				}
			],
			"name": "transferAll",
			"outputs": [
				{
					"internalType": "bool",
					"name": "",
					"type": "bool"
				}
			],
			"stateMutability": "nonpayable",
			"type": "function"
		},
		{
			"inputs": [
				{
					"internalType": "address",
					"name": "from",
					"type": "address"
				},
				{
					"internalType": "address",
					"name": "to",
					"type": "address"
				}
			],
			"name": "transferAllFrom",
			"outputs": [
				{
					"internalType": "bool",
					"name": "",
					"type": "bool"
				}
			],
			"stateMutability": "nonpayable",
			"type": "function"
		},
		{
			"inputs": [
				{
					"internalType": "address",
					"name": "from",
					"type": "address"
				},
				{
					"internalType": "address",
					"name": "to",
					"type": "address"
				},
				{
					"internalType": "uint256",
					"name": "value",
					"type": "uint256"
				}
			],
			"name": "transferFrom",
			"outputs": [
				{
					"internalType": "bool",
					"name": "",
					"type": "bool"
				}
			],
			"stateMutability": "nonpayable",
			"type": "function"
		},
		{
			"inputs": [
				{
					"internalType": "address",
					"name": "newOwner",
					"type": "address"
				}
			],
			"name": "transferOwnership",
			"outputs": [],
			"stateMutability": "nonpayable",
			"type": "function"
		}
	]
}