{
	"data": {
		"bytecode": {
			"linkReferences": {},
			"object": "6080604052670de0b6b3a7640000609c55600160a85534801561002157600080fd5b506155cb80620000326000396000f3fe608060405234801561001057600080fd5b50600436106102745760003560e01c80638da5cb5b11610151578063c45a0155116100c3578063dd62ed3e11610087578063dd62ed3e14610592578063ddd6f962146105cb578063df896754146105d4578063e1b11da4146105e7578063f2fde38b1461060e578063f887ea401461062157610274565b8063c45a015514610533578063c4d66de814610546578063d505accf14610559578063d83678ac1461056c578063d91313841461057f57610274565b8063a3a7e7f311610115578063a3a7e7f3146104cc578063a457c2d7146104df578063a9059cbb146104f2578063b1bf962d14610505578063bbb1863a1461050d578063c0d786551461052057610274565b80638da5cb5b146104835780638f32d59b14610494578063903cd3e3146104a857806395d89b41146104bb5780639faa3c91146104c357610274565b806339509351116101ea578063715018a6116101ae578063715018a6146103e157806374e14eb8146103e957806378160376146104145780637a43e23f146104345780637ecebe001461044757806384d4b4101461047057610274565b806339509351146103745780633c974946146103875780634a02bd31146103a85780635f1a40a2146103bb57806370a08231146103ce57610274565b80631da24f3e1161023c5780631da24f3e146102ee57806323b872dd146103015780632c86d98e1461031457806330adf81f1461033a578063313ce567146103615780633644e5151461036c57610274565b806306fdde031461027957806308a3809d14610297578063095ea7b3146102ae5780631624f6c6146102d157806318160ddd146102e6575b600080fd5b610281610634565b60405161028e919061508c565b60405180910390f35b6102a0609d5481565b60405190815260200161028e565b6102c16102bc366004614c40565b6106c6565b604051901515815260200161028e565b6102e46102df366004614d91565b610721565b005b609b546102a0565b6102a06102fc366004614b19565b6107de565b6102c161030f366004614b90565b6107fd565b60a75461032890600160a01b900460ff1681565b60405160ff909116815260200161028e565b6102a07f6e71edae12b1b97f4d1f60370fef10105fa2faae0126114a169c64845d6126c981565b60355460ff16610328565b6102a06109a0565b6102c1610382366004614c40565b610a4c565b60a75461039b90600160a81b900460ff1681565b60405161028e919061507e565b6102a06103b6366004614b19565b610af6565b6102a06103c9366004614b19565b610e15565b6102a06103dc366004614b19565b6110aa565b6102e46110d1565b60a7546103fc906001600160a01b031681565b6040516001600160a01b03909116815260200161028e565b610281604051806040016040528060018152602001603160f81b81525081565b6102a0610442366004614e06565b611138565b6102a0610455366004614b19565b6001600160a01b0316600090815260a0602052604090205490565b6102c161047e366004614b58565b6114ea565b6068546001600160a01b03166103fc565b6102c16068546001600160a01b0316331490565b6102e46104b6366004614c6b565b61166d565b610281611d9c565b6102a0609f5481565b6102c16104da366004614b19565b611dab565b6102c16104ed366004614c40565b611eb5565b6102c1610500366004614c40565b611f73565b6102a0612086565b60a4546103fc906001600160a01b031681565b6102e461052e366004614b19565b61209d565b60a3546103fc906001600160a01b031681565b6102e4610554366004614b19565b61210e565b6102e4610567366004614bd0565b612192565b60a6546103fc906001600160a01b031681565b6102e461058d366004614cf7565b612391565b6102a06105a0366004614b58565b6001600160a01b03918216600090815260a26020908152604080832093909416825291909152205490565b6102a0609e5481565b6102e46105e2366004614b19565b6123e3565b6102a07f8b73c3c69bb8fe3d512ecc4cf759cc79239f7b179b0ffacaa9a75d522b39400f81565b6102e461061c366004614b19565b6124af565b60a5546103fc906001600160a01b031681565b60606033805461064390615464565b80601f016020809104026020016040519081016040528092919081815260200182805461066f90615464565b80156106bc5780601f10610691576101008083540402835291602001916106bc565b820191906000526020600020905b81548152906001019060200180831161069f57829003601f168201915b5050505050905090565b33600081815260a2602090815260408083206001600160a01b038716808552925280832085905551919290916000805160206155768339815191529061070f9086815260200190565b60405180910390a35060015b92915050565b600054610100900460ff16806107365750303b155b80610744575060005460ff16155b6107695760405162461bcd60e51b8152600401610760906151c0565b60405180910390fd5b6000805461ffff19811661010117909155835161010090910460ff1690610797906033906020870190614a2f565b5082516107ab906034906020860190614a2f565b506035805460ff90931660ff1990931692909217909155600080549115156101000261ff00199092169190911790555050565b6001600160a01b038116600090815260a160205260409020545b919050565b6000826001600160a01b0381166108265760405162461bcd60e51b8152600401610760906150bf565b73eb31973e0febf3e3d7058234a5ebbae1ab4b8c236001600160a01b03821614156108635760405162461bcd60e51b815260040161076090615142565b6001600160a01b038516600090815260a260209081526040808320338452909152902054600019146108e3576001600160a01b038516600090815260a2602090815260408083203384529091529020546108be90849061541d565b6001600160a01b038616600090815260a2602090815260408083203384529091529020555b6000609c54846108f391906153fe565b6001600160a01b038716600090815260a1602052604090205490915061091a90829061541d565b6001600160a01b03808816600090815260a16020526040808220939093559087168152205461094a9082906152ab565b6001600160a01b03808716600081815260a1602052604090819020939093559151908816906000805160206155568339815191529061098c9088815260200190565b60405180910390a350600195945050505050565b6000467f8b73c3c69bb8fe3d512ecc4cf759cc79239f7b179b0ffacaa9a75d522b39400f6109cc610634565b805160209182012060408051808201825260018152603160f81b90840152805192830193909352918101919091527fc89efdaa54c0f20c7adf612882df0950f5a951637e0307cdcb4c672f298b8bc66060820152608081018290523060a082015260c0016040516020818303038152906040528051906020012091505090565b33600090815260a2602090815260408083206001600160a01b038616845290915281205460001914610ab15733600090815260a2602090815260408083206001600160a01b038716845290915281208054849290610aab9084906152ab565b90915550505b33600081815260a2602090815260408083206001600160a01b03881680855290835292819020549051908152919291600080516020615576833981519152910161070f565b600060a854600114610b395760405162461bcd60e51b815260206004820152600c60248201526b10d09090ce881313d0d2d15160a21b6044820152606401610760565b600060a85560a5546001600160a01b03163314610b8b5760405162461bcd60e51b815260206004820152601060248201526f21a121219d102727aa2fa927aaaa22a960811b6044820152606401610760565b609b54610c935742609d5560a45460408051630c12c2a560e31b815290516001600160a01b0390921691636096152891600480820192602092909190829003018186803b158015610bdb57600080fd5b505afa158015610bef573d6000803e3d6000fd5b505050506040513d601f19601f82011682018060405250810190610c139190614b3c565b60a6546040516341976e0960e01b81526001600160a01b0391821660048201529116906341976e0990602401604080518083038186803b158015610c5657600080fd5b505afa158015610c6a573d6000803e3d6000fd5b505050506040513d601f19601f82011682018060405250810190610c8e9190614e27565b50609e555b60a35460a754604051634c22f48960e11b81526001600160a01b0391821660048201526000929190911690639845e9129060240160206040518083038186803b158015610cdf57600080fd5b505afa158015610cf3573d6000803e3d6000fd5b505050506040513d601f19601f82011682018060405250810190610d179190614b3c565b90506000816001600160a01b031663872c67956040518163ffffffff1660e01b8152600401602060405180830381600087803b158015610d5657600080fd5b505af1158015610d6a573d6000803e3d6000fd5b505050506040513d601f19601f82011682018060405250810190610d8e9190614d0f565b9050610d9a30826124d8565b925060008311610dbc5760405162461bcd60e51b815260040161076090615100565b610dc68484612a43565b836001600160a01b03167f0f6798a560793a54c3bcfe86a93cde1e73087d944c0ea20544137d412139688584604051610e0191815260200190565b60405180910390a25050600160a855919050565b600060a854600114610e585760405162461bcd60e51b815260206004820152600c60248201526b10d09090ce881313d0d2d15160a21b6044820152606401610760565b600060a85560a5546001600160a01b03163314610eaa5760405162461bcd60e51b815260206004820152601060248201526f21a121219d102727aa2fa927aaaa22a960811b6044820152606401610760565b609c5430600090815260a160205260408120549091610ec8916152c3565b9050610ed43082612ac8565b915060008211610ef65760405162461bcd60e51b81526004016107609061520e565b610f003082613234565b60a35460a754604051634c22f48960e11b81526001600160a01b0391821660048201526000929190911690639845e9129060240160206040518083038186803b158015610f4c57600080fd5b505afa158015610f60573d6000803e3d6000fd5b505050506040513d601f19601f82011682018060405250810190610f849190614b3c565b60405163ce2d30dd60e01b81526001600160a01b038681166004830152602482018690529192509082169063ce2d30dd90604401600060405180830381600087803b158015610fd257600080fd5b505af1158015610fe6573d6000803e3d6000fd5b50505050806001600160a01b03166309287c6e6040518163ffffffff1660e01b8152600401602060405180830381600087803b15801561102557600080fd5b505af1158015611039573d6000803e3d6000fd5b505050506040513d601f19601f8201168201806040525081019061105d9190614d0f565b506040518381526001600160a01b0385169033907fdbdf9b8e4b75e75b162d151ec8fc7f0561cabab5fcccfa2600be62223e4300c49060200160405180910390a35050600160a855919050565b609c546001600160a01b038216600090815260a16020526040812054909161071b916152c3565b6110e56068546001600160a01b0316331490565b6110ee57600080fd5b6068546040516001600160a01b03909116907ff8df31144d9c2f0f6b59d69b8b98abd5459d07f2742c4df920b25aae33c6482090600090a2606880546001600160a01b0319169055565b60a4546000906001600160a01b031633146111955760405162461bcd60e51b815260206004820152601760248201527f434242433a204e4f545f5245424153455f504f4c4943590000000000000000006044820152606401610760565b816112f45742609d5560a45460408051630c12c2a560e31b815290516001600160a01b0390921691636096152891600480820192602092909190829003018186803b1580156111e357600080fd5b505afa1580156111f7573d6000803e3d6000fd5b505050506040513d601f19601f8201168201806040525081019061121b9190614b3c565b60a6546040516341976e0960e01b81526001600160a01b0391821660048201529116906341976e0990602401604080518083038186803b15801561125e57600080fd5b505afa158015611272573d6000803e3d6000fd5b505050506040513d601f19601f820116820180604052508101906112969190614e27565b50609e819055609d54609b5460405186937fa9219328b62d2057317e0a7d7634032c7caca3f5b8230d51b25e957efc67dbf4936112e3939083526020830191909152604082015260600190565b60405180910390a250609b5461071b565b60008083121561131b57611307836132b3565b609b54611314919061541d565b9050611344565b82609b5461132991906152ab565b90506001600160801b0381111561134457506001600160801b035b80609b54609c5461135591906153fe565b61135f91906152c3565b609c556113756001600160801b036000196152c3565b609c541115611395576113916001600160801b036000196152c3565b609c555b609b81905542609d5560a45460408051630c12c2a560e31b815290516001600160a01b0390921691636096152891600480820192602092909190829003018186803b1580156113e357600080fd5b505afa1580156113f7573d6000803e3d6000fd5b505050506040513d601f19601f8201168201806040525081019061141b9190614b3c565b60a6546040516341976e0960e01b81526001600160a01b0391821660048201529116906341976e0990602401604080518083038186803b15801561145e57600080fd5b505afa158015611472573d6000803e3d6000fd5b505050506040513d601f19601f820116820180604052508101906114969190614e27565b50609e819055609d5460408051918252602082019290925290810182905284907fa9219328b62d2057317e0a7d7634032c7caca3f5b8230d51b25e957efc67dbf49060600160405180910390a29392505050565b6000816001600160a01b0381166115135760405162461bcd60e51b8152600401610760906150bf565b73eb31973e0febf3e3d7058234a5ebbae1ab4b8c236001600160a01b03821614156115505760405162461bcd60e51b815260040161076090615142565b6001600160a01b038416600090815260a16020526040812054609c5490919061157990836152c3565b6001600160a01b038716600090815260a260209081526040808320338452909152902054909150600019146115fc576001600160a01b038616600090815260a2602090815260408083203384529091529020546115d790829061541d565b6001600160a01b038716600090815260a2602090815260408083203384529091529020555b6001600160a01b03808716600090815260a160205260408082208290559187168152205461162b9083906152ab565b6001600160a01b03808716600081815260a1602052604090819020939093559151908816906000805160206155568339815191529061098c9085815260200190565b600054610100900460ff16806116825750303b155b80611690575060005460ff16155b6116ac5760405162461bcd60e51b8152600401610760906151c0565b6000805461ffff198116610101178255610100900460ff169060609081908460018111156116ea57634e487b7160e01b600052602160045260246000fd5b1415611947576116fc8560ff166132dd565b60405163015af31960e31b81526001600160a01b0388811660048301528a1690630ad798c89060240160006040518083038186803b15801561173d57600080fd5b505afa158015611751573d6000803e3d6000fd5b505050506040513d6000823e601f3d908101601f191682016040526117799190810190614d27565b60405163b8b705d360e01b81526001600160a01b038a811660048301528b169063b8b705d39060240160006040518083038186803b1580156117ba57600080fd5b505afa1580156117ce573d6000803e3d6000fd5b505050506040513d6000823e601f3d908101601f191682016040526117f69190810190614d27565b60405160200161180893929190614f3e565b60405160208183030381529060405291506118258560ff166132dd565b60405163015af31960e31b81526001600160a01b0388811660048301528a1690630ad798c89060240160006040518083038186803b15801561186657600080fd5b505afa15801561187a573d6000803e3d6000fd5b505050506040513d6000823e601f3d908101601f191682016040526118a29190810190614d27565b60405163b8b705d360e01b81526001600160a01b038a811660048301528b169063b8b705d39060240160006040518083038186803b1580156118e357600080fd5b505afa1580156118f7573d6000803e3d6000fd5b505050506040513d6000823e601f3d908101601f1916820160405261191f9190810190614d27565b60405160200161193193929190614fc2565b6040516020818303038152906040529050611beb565b600184600181111561196957634e487b7160e01b600052602160045260246000fd5b1415611bb05761197b8560ff166132dd565b60405163015af31960e31b81526001600160a01b0388811660048301528a1690630ad798c89060240160006040518083038186803b1580156119bc57600080fd5b505afa1580156119d0573d6000803e3d6000fd5b505050506040513d6000823e601f3d908101601f191682016040526119f89190810190614d27565b60405163b8b705d360e01b81526001600160a01b038a811660048301528b169063b8b705d39060240160006040518083038186803b158015611a3957600080fd5b505afa158015611a4d573d6000803e3d6000fd5b505050506040513d6000823e601f3d908101601f19168201604052611a759190810190614d27565b604051602001611a8793929190614ecb565b6040516020818303038152906040529150611aa48560ff166132dd565b60405163015af31960e31b81526001600160a01b0388811660048301528a1690630ad798c89060240160006040518083038186803b158015611ae557600080fd5b505afa158015611af9573d6000803e3d6000fd5b505050506040513d6000823e601f3d908101601f19168201604052611b219190810190614d27565b60405163b8b705d360e01b81526001600160a01b038a811660048301528b169063b8b705d39060240160006040518083038186803b158015611b6257600080fd5b505afa158015611b76573d6000803e3d6000fd5b505050506040513d6000823e601f3d908101601f19168201604052611b9e9190810190614d27565b60405160200161193193929190614e88565b60405162461bcd60e51b815260206004820152601060248201526f434242433a2057524f4e475f5459504560801b6044820152606401610760565b611bf782826012610721565b611c003361210e565b60a380546001600160a01b03199081166001600160a01b038b81169190911790925560a7805460a680549093168a8516179092559189166001600160a81b031990911617600160a01b60ff8816021780825585919060ff60a81b1916600160a81b836001811115611c8157634e487b7160e01b600052602160045260246000fd5b021790555060a75460a65460405163b5663a9960e01b81526001600160a01b03808c169363b5663a9993611cd89382841693919091169160ff600160a01b8204811692600160a81b90920416903090600401615015565b600060405180830381600087803b158015611cf257600080fd5b505af1158015611d06573d6000803e3d6000fd5b505060a65460a7546040516001600160a01b03928316945091811692507fca8075cefdc80bb9531729cb4dfb80aaa9cb4932af090e52cfbddd81c187ad8e91611d6591309160ff600160a01b8304811692600160a81b90041690615058565b60405180910390a3505060a7805461ffff60b01b19169055600080549115156101000261ff00199092169190911790555050505050565b60606034805461064390615464565b6000816001600160a01b038116611dd45760405162461bcd60e51b8152600401610760906150bf565b73eb31973e0febf3e3d7058234a5ebbae1ab4b8c236001600160a01b0382161415611e115760405162461bcd60e51b815260040161076090615142565b33600090815260a16020526040812054609c54909190611e3190836152c3565b33600090815260a160205260408082208290556001600160a01b0388168252902054909150611e619083906152ab565b6001600160a01b038616600081815260a1602052604090819020929092559051339060008051602061555683398151915290611ea09085815260200190565b60405180910390a36001935050505b50919050565b33600090815260a2602090815260408083206001600160a01b03861684529091528120546000198114611f215780831015611ef957611ef4838261541d565b611efc565b60005b33600090815260a2602090815260408083206001600160a01b03891684529091529020555b33600081815260a2602090815260408083206001600160a01b03891680855290835292819020549051908152919291600080516020615576833981519152910160405180910390a35060019392505050565b6000826001600160a01b038116611f9c5760405162461bcd60e51b8152600401610760906150bf565b73eb31973e0febf3e3d7058234a5ebbae1ab4b8c236001600160a01b0382161415611fd95760405162461bcd60e51b815260040161076090615142565b6000609c5484611fe991906153fe565b33600090815260a1602052604090205490915061200790829061541d565b33600090815260a16020526040808220929092556001600160a01b038716815220546120349082906152ab565b6001600160a01b038616600081815260a16020526040908190209290925590513390600080516020615556833981519152906120739088815260200190565b60405180910390a3506001949350505050565b6000609c54609b5461209891906153fe565b905090565b6120b16068546001600160a01b0316331490565b6120ba57600080fd5b60a580546001600160a01b0319166001600160a01b0383169081179091556040519081527e4a100c1311e1c30d22c9ee16306a164be79db67aedef8b90ffc4d244cd003a906020015b60405180910390a150565b600054610100900460ff16806121235750303b155b80612131575060005460ff16155b61214d5760405162461bcd60e51b8152600401610760906151c0565b60008054606880546001600160a01b0319166001600160a01b03949094169390931790925561ffff1982166101009283900460ff161515909202919091176001179055565b834211156121e25760405162461bcd60e51b815260206004820152601c60248201527f506567676564636f696e3a3a7065726d69743a204558504952454421000000006044820152606401610760565b6001600160a01b03878116600081815260a0602081815260408084205481517f6e71edae12b1b97f4d1f60370fef10105fa2faae0126114a169c64845d6126c99381019390935290820194909452938a16606085015260808401899052830182905260c08301879052909160e00160405160208183030381529060405280519060200120905060006122726109a0565b60405161190160f01b602082015260228101919091526042810183905260620160408051601f1981840301815282825280516020918201206000845290830180835281905260ff8916918301919091526060820187905260808201869052915060019060a0016020604051602081039080840390855afa1580156122fa573d6000803e3d6000fd5b505050602060405103516001600160a01b03168a6001600160a01b03161461232157600080fd5b61232c8360016152ab565b6001600160a01b038b8116600081815260a0602090815260408083209590955560a28152848220938e16808352938152908490208c905592518b815291929091600080516020615576833981519152910160405180910390a350505050505050505050565b6123a56068546001600160a01b0316331490565b6123ae57600080fd5b609f8190556040518181527f72263207fb67ff82292d08dcd9e132bfd605a952099610b513982c70b38616e390602001612103565b6123f76068546001600160a01b0316331490565b8061240a5750336001600160a01b038216145b6124615760405162461bcd60e51b815260206004820152602260248201527f434242433a205345545f5245424153455f504f4c4943595f464f524249444445604482015261271760f11b6064820152608401610760565b60a480546001600160a01b0319166001600160a01b0383169081179091556040519081527f1b2a6eed04caac6e24de29faf0d56a1000f33980e10f682e1a01e7caa097e7ed90602001612103565b6124c36068546001600160a01b0316331490565b6124cc57600080fd5b6124d581613473565b50565b600080836001600160a01b031663bbb1863a6040518163ffffffff1660e01b815260040160206040518083038186803b15801561251457600080fd5b505afa158015612528573d6000803e3d6000fd5b505050506040513d601f19601f8201168201806040525081019061254c9190614b3c565b6001600160a01b031663609615286040518163ffffffff1660e01b815260040160206040518083038186803b15801561258457600080fd5b505afa158015612598573d6000803e3d6000fd5b505050506040513d601f19601f820116820180604052508101906125bc9190614b3c565b6001600160a01b03166341976e09856001600160a01b031663d83678ac6040518163ffffffff1660e01b815260040160206040518083038186803b15801561260357600080fd5b505afa158015612617573d6000803e3d6000fd5b505050506040513d601f19601f8201168201806040525081019061263b9190614b3c565b6040516001600160e01b031960e084901b1681526001600160a01b039091166004820152602401604080518083038186803b15801561267957600080fd5b505afa15801561268d573d6000803e3d6000fd5b505050506040513d601f19601f820116820180604052508101906126b19190614e27565b91504390506126c160c8836152ab565b10156126df5760405162461bcd60e51b815260040161076090615189565b6000846001600160a01b03166374e14eb86040518163ffffffff1660e01b815260040160206040518083038186803b15801561271a57600080fd5b505afa15801561272e573d6000803e3d6000fd5b505050506040513d601f19601f820116820180604052508101906127529190614b3c565b90506000856001600160a01b031663bbb1863a6040518163ffffffff1660e01b815260040160206040518083038186803b15801561278f57600080fd5b505afa1580156127a3573d6000803e3d6000fd5b505050506040513d601f19601f820116820180604052508101906127c79190614b3c565b6001600160a01b031663609615286040518163ffffffff1660e01b815260040160206040518083038186803b1580156127ff57600080fd5b505afa158015612813573d6000803e3d6000fd5b505050506040513d601f19601f820116820180604052508101906128379190614b3c565b6040516341976e0960e01b81526001600160a01b03848116600483015291909116906341976e0990602401604080518083038186803b15801561287957600080fd5b505afa15801561288d573d6000803e3d6000fd5b505050506040513d601f19601f820116820180604052508101906128b19190614e27565b5090506000866001600160a01b0316632c86d98e6040518163ffffffff1660e01b815260040160206040518083038186803b1580156128ef57600080fd5b505afa158015612903573d6000803e3d6000fd5b505050506040513d601f19601f820116820180604052508101906129279190614e4a565b60ff1690506000836001600160a01b031663313ce5676040518163ffffffff1660e01b815260040160206040518083038186803b15801561296757600080fd5b505afa15801561297b573d6000803e3d6000fd5b505050506040513d601f19601f8201168201806040525081019061299f9190614e4a565b60ff16905060006129b389896000806134e2565b905060006129c283600a61531d565b6129cc868b6153fe565b6129d691906152c3565b9050816129e48560036153fe565b6129f09061271061541d565b6129fa90836153fe565b612a0a90655af3107a40006153fe565b612a1491906152c3565b975060008811612a365760405162461bcd60e51b815260040161076090615100565b5050505050505092915050565b80609b6000828254612a5591906152ab565b9091555050609c54612a6790826153fe565b6001600160a01b038316600090815260a1602052604081208054909190612a8f9084906152ab565b90915550506040518181526001600160a01b03831690600090600080516020615556833981519152906020015b60405180910390a35050565b600080836001600160a01b031663bbb1863a6040518163ffffffff1660e01b815260040160206040518083038186803b158015612b0457600080fd5b505afa158015612b18573d6000803e3d6000fd5b505050506040513d601f19601f82011682018060405250810190612b3c9190614b3c565b6001600160a01b031663609615286040518163ffffffff1660e01b815260040160206040518083038186803b158015612b7457600080fd5b505afa158015612b88573d6000803e3d6000fd5b505050506040513d601f19601f82011682018060405250810190612bac9190614b3c565b6001600160a01b03166341976e09856001600160a01b031663d83678ac6040518163ffffffff1660e01b815260040160206040518083038186803b158015612bf357600080fd5b505afa158015612c07573d6000803e3d6000fd5b505050506040513d601f19601f82011682018060405250810190612c2b9190614b3c565b6040516001600160e01b031960e084901b1681526001600160a01b039091166004820152602401604080518083038186803b158015612c6957600080fd5b505afa158015612c7d573d6000803e3d6000fd5b505050506040513d601f19601f82011682018060405250810190612ca19190614e27565b9150439050612cb160c8836152ab565b1015612ccf5760405162461bcd60e51b815260040161076090615189565b6000846001600160a01b03166374e14eb86040518163ffffffff1660e01b815260040160206040518083038186803b158015612d0a57600080fd5b505afa158015612d1e573d6000803e3d6000fd5b505050506040513d601f19601f82011682018060405250810190612d429190614b3c565b9050600080866001600160a01b031663bbb1863a6040518163ffffffff1660e01b815260040160206040518083038186803b158015612d8057600080fd5b505afa158015612d94573d6000803e3d6000fd5b505050506040513d601f19601f82011682018060405250810190612db89190614b3c565b6001600160a01b031663609615286040518163ffffffff1660e01b815260040160206040518083038186803b158015612df057600080fd5b505afa158015612e04573d6000803e3d6000fd5b505050506040513d601f19601f82011682018060405250810190612e289190614b3c565b6040516341976e0960e01b81526001600160a01b03858116600483015291909116906341976e0990602401604080518083038186803b158015612e6a57600080fd5b505afa158015612e7e573d6000803e3d6000fd5b505050506040513d601f19601f82011682018060405250810190612ea29190614e27565b909250905043612eb360c8836152ab565b1015612ed15760405162461bcd60e51b815260040161076090615189565b60008211612f215760405162461bcd60e51b815260206004820152601b60248201527f434242433a20494c4c4547414c5f534554544c455f50524943452e00000000006044820152606401610760565b6000876001600160a01b031663c45a01556040518163ffffffff1660e01b815260040160206040518083038186803b158015612f5c57600080fd5b505afa158015612f70573d6000803e3d6000fd5b505050506040513d601f19601f82011682018060405250810190612f949190614b3c565b604051634c22f48960e11b81526001600160a01b0386811660048301529190911690639845e9129060240160206040518083038186803b158015612fd757600080fd5b505afa158015612feb573d6000803e3d6000fd5b505050506040513d601f19601f8201168201806040525081019061300f9190614b3c565b90506000886001600160a01b0316632c86d98e6040518163ffffffff1660e01b815260040160206040518083038186803b15801561304c57600080fd5b505afa158015613060573d6000803e3d6000fd5b505050506040513d601f19601f820116820180604052508101906130849190614e4a565b60ff1690506000856001600160a01b031663313ce5676040518163ffffffff1660e01b815260040160206040518083038186803b1580156130c457600080fd5b505afa1580156130d8573d6000803e3d6000fd5b505050506040513d601f19601f820116820180604052508101906130fc9190614e4a565b60ff16905060006131118b60008c60016134e2565b905060006127106131238560036153fe565b61312f9061271061541d565b670de0b6b3a7640000613142858f6153fe565b61314c91906152c3565b61315691906153fe565b61316091906152c3565b90506132038761317185600a61531d565b61317b90846153fe565b61318591906152c3565b6040516370a0823160e01b81526001600160a01b0388811660048301528b16906370a082319060240160206040518083038186803b1580156131c657600080fd5b505afa1580156131da573d6000803e3d6000fd5b505050506040513d601f19601f820116820180604052508101906131fe9190614d0f565b614150565b995060008a116132255760405162461bcd60e51b81526004016107609061520e565b50505050505050505092915050565b609c5461324190826153fe565b6001600160a01b038316600090815260a160205260408120805490919061326990849061541d565b9250508190555080609b6000828254613282919061541d565b90915550506040518181526000906001600160a01b0384169060008051602061555683398151915290602001612abc565b6000600160ff1b8214156132c657600080fd5b600082126132d4578161071b565b61071b826154c8565b60408051606480825260a08201909252606091906000908260208201818036833701905050905060005b841561337f57600061331a600a876154b4565b9050613327600a876152c3565b95506133348160306152ab565b60f81b838361334281615499565b94508151811061336257634e487b7160e01b600052603260045260246000fd5b60200101906001600160f81b031916908160001a90535050613307565b60008167ffffffffffffffff8111156133a857634e487b7160e01b600052604160045260246000fd5b6040519080825280601f01601f1916602001820160405280156133d2576020820181803683370190505b50905060005b828110156134695783816133ed60018661541d565b6133f7919061541d565b8151811061341557634e487b7160e01b600052603260045260246000fd5b602001015160f81c60f81b82828151811061344057634e487b7160e01b600052603260045260246000fd5b60200101906001600160f81b031916908160001a9053508061346181615499565b9150506133d8565b5095945050505050565b6001600160a01b03811661348657600080fd5b6068546040516001600160a01b038084169216907f8be0079c531659141344cd1fd0a4f28419497f9722a3daafe3b4186f6b6457e090600090a3606880546001600160a01b0319166001600160a01b0392909216919091179055565b60008315806134ef575082155b6135475760405162461bcd60e51b8152602060048201526024808201527f434242433a204255595f414e445f53454c4c5f41545f5448455f53414d455f5460448201526324a6a29760e11b6064820152608401610760565b6135726040518060800160405280600081526020016000815260200160008152602001600081525090565b6135b26040518060e00160405280600081526020016000815260200160008152602001600081526020016000815260200160008152602001600081525090565b6040805160c081018252600080825260208201819052918101829052606081018290526080810182905260a0810191909152876001600160a01b031663c45a01556040518163ffffffff1660e01b815260040160206040518083038186803b15801561361d57600080fd5b505afa158015613631573d6000803e3d6000fd5b505050506040513d601f19601f820116820180604052508101906136559190614b3c565b6001600160a01b03908116825260408051630e9c29d760e31b81529051918a16916374e14eb891600480820192602092909190829003018186803b15801561369c57600080fd5b505afa1580156136b0573d6000803e3d6000fd5b505050506040513d601f19601f820116820180604052508101906136d49190614b3c565b81602001906001600160a01b031690816001600160a01b031681525050876001600160a01b031663d83678ac6040518163ffffffff1660e01b815260040160206040518083038186803b15801561372a57600080fd5b505afa15801561373e573d6000803e3d6000fd5b505050506040513d601f19601f820116820180604052508101906137629190614b3c565b81604001906001600160a01b031690816001600160a01b031681525050876001600160a01b0316632c86d98e6040518163ffffffff1660e01b815260040160206040518083038186803b1580156137b857600080fd5b505afa1580156137cc573d6000803e3d6000fd5b505050506040513d601f19601f820116820180604052508101906137f09190614e4a565b60ff16816060018181525050876001600160a01b0316633c9749466040518163ffffffff1660e01b815260040160206040518083038186803b15801561383557600080fd5b505afa158015613849573d6000803e3d6000fd5b505050506040513d601f19601f8201168201806040525081019061386d9190614cdb565b8160800190600181111561389157634e487b7160e01b600052602160045260246000fd5b908160018111156138b257634e487b7160e01b600052602160045260246000fd5b81525050876001600160a01b031663bbb1863a6040518163ffffffff1660e01b815260040160206040518083038186803b1580156138ef57600080fd5b505afa158015613903573d6000803e3d6000fd5b505050506040513d601f19601f820116820180604052508101906139279190614b3c565b6001600160a01b031663609615286040518163ffffffff1660e01b815260040160206040518083038186803b15801561395f57600080fd5b505afa158015613973573d6000803e3d6000fd5b505050506040513d601f19601f820116820180604052508101906139979190614b3c565b8160a001906001600160a01b031690816001600160a01b031681525050876001600160a01b031663ddd6f9626040518163ffffffff1660e01b815260040160206040518083038186803b1580156139ed57600080fd5b505afa158015613a01573d6000803e3d6000fd5b505050506040513d601f19601f82011682018060405250810190613a259190614d0f565b836000018181525050876001600160a01b03166308a3809d6040518163ffffffff1660e01b815260040160206040518083038186803b158015613a6757600080fd5b505afa158015613a7b573d6000803e3d6000fd5b505050506040513d601f19601f82011682018060405250810190613a9f9190614d0f565b602084015242606084015260a081015160408083015190516341976e0960e01b81526001600160a01b0391821660048201529116906341976e0990602401604080518083038186803b158015613af457600080fd5b505afa158015613b08573d6000803e3d6000fd5b505050506040513d601f19601f82011682018060405250810190613b2c9190614e27565b5060408401819052613b805760405162461bcd60e51b815260206004820152601a60248201527f434242433a20494c4c4547414c5f54524144455f50524943452e0000000000006044820152606401610760565b8251613b985760408301518352606083015160208401525b876001600160a01b0316639faa3c916040518163ffffffff1660e01b815260040160206040518083038186803b158015613bd157600080fd5b505afa158015613be5573d6000803e3d6000fd5b505050506040513d601f19601f82011682018060405250810190613c099190614d0f565b82600001818152505080600001516001600160a01b03166388e97c3c6040518163ffffffff1660e01b815260040160206040518083038186803b158015613c4f57600080fd5b505afa158015613c63573d6000803e3d6000fd5b505050506040513d601f19601f82011682018060405250810190613c879190614d0f565b82602001818152505080600001516001600160a01b031663cbd17c676040518163ffffffff1660e01b815260040160206040518083038186803b158015613ccd57600080fd5b505afa158015613ce1573d6000803e3d6000fd5b505050506040513d601f19601f82011682018060405250810190613d059190614d0f565b60408084019190915260a0820151828201519151634094f10b60e01b81526001600160a01b039283166004820152911690634094f10b9060240160206040518083038186803b158015613d5757600080fd5b505afa158015613d6b573d6000803e3d6000fd5b505050506040513d601f19601f82011682018060405250810190613d8f9190614d0f565b606083015260a0810151604080830151905163d3ea0f8960e01b81526001600160a01b03918216600482015291169063d3ea0f899060240160206040518083038186803b158015613ddf57600080fd5b505afa158015613df3573d6000803e3d6000fd5b505050506040513d601f19601f82011682018060405250810190613e179190614d0f565b608083015260a08101516040808301519051634189c95d60e01b81526001600160a01b039182166004820152911690634189c95d9060240160206040518083038186803b158015613e6757600080fd5b505afa158015613e7b573d6000803e3d6000fd5b505050506040513d601f19601f82011682018060405250810190613e9f9190614d0f565b60a08381019190915281015160408083015190516384f4b61f60e01b81526001600160a01b0391821660048201529116906384f4b61f9060240160206040518083038186803b158015613ef157600080fd5b505afa158015613f05573d6000803e3d6000fd5b505050506040513d601f19601f82011682018060405250810190613f299190614d0f565b60c08301819052613f7c5760405162461bcd60e51b815260206004820152601b60248201527f434242433a20494c4c4547414c5f4441494c595f564f4c554d452e00000000006044820152606401610760565b600087158015613f8a575086155b15613fa857613f9d84838560008a61420b565b945050505050614148565b6000613fb885848660008b61420b565b90506000856040015184604001516001600160a01b031663313ce5676040518163ffffffff1660e01b815260040160206040518083038186803b158015613ffe57600080fd5b505afa158015614012573d6000803e3d6000fd5b505050506040513d601f19601f820116820180604052508101906140369190614e4a565b61404190600a61532c565b85606001518b87602001516001600160a01b031663313ce5676040518163ffffffff1660e01b815260040160206040518083038186803b15801561408457600080fd5b505afa158015614098573d6000803e3d6000fd5b505050506040513d601f19601f820116820180604052508101906140bc9190614e4a565b6140c790600a61532c565b868f670de0b6b3a76400006140dc91906153fe565b6140e691906152c3565b6140f890670de0b6b3a76400006153fe565b61410291906152c3565b61410c91906152ab565b61411691906153fe565b61412091906153fe565b61412a91906152c3565b905061413785828a614919565b92505050613f9d848385848a61420b565b949350505050565b6000601461415f8360136153fe565b61416991906152c3565b83116141765750816141e5565b6141818360646153fe565b601461418e8460136153fe565b61419891906152c3565b6141a2908561541d565b6141ac90846153fe565b6141b79060046153fe565b6141c191906152c3565b60146141ce8460136153fe565b6141d891906152c3565b6141e291906152ab565b90505b818310806141f1575081155b61071b57634e487b7160e01b600052600160045260246000fd5b845160408601516060860151855160009392919084828561422d8260016152ab565b61423791906153fe565b61424191906152c3565b90506000838661425260018361541d565b61425c91906153fe565b61426691906152c3565b90506000808287101561427b57829650614287565b83871115614287578396505b60018d6080015160018111156142ad57634e487b7160e01b600052602160045260246000fd5b14156145ae5760008a60018111156142d557634e487b7160e01b600052602160045260246000fd5b14156142ec576142e58b886152ab565b9650614303565b6142f68b88614150565b614300908861541d565b96505b60008513156143b95786614317848261541d565b614321898761541d565b61432a886132b3565b61433491906153fe565b61433e91906153fe565b61434891906152c3565b614354886103e86153fe565b61435e91906152ab565b91508761436b848261541d565b6143758a8761541d565b61437e886132b3565b61438891906153fe565b61439291906153fe565b61439c91906152c3565b6143a8896103e86153fe565b6143b291906152ab565b9050614462565b866143c4848261541d565b6143ce898761541d565b6143d7886132b3565b6143e191906153fe565b6143eb91906153fe565b6143f591906152c3565b614401886103e86153fe565b61440b919061541d565b915087614418848261541d565b6144228a8761541d565b61442b886132b3565b61443591906153fe565b61443f91906153fe565b61444991906152c3565b614455896103e86153fe565b61445f919061541d565b90505b6301e133808e602001518f6060015161447b919061541d565b8d6080015161448a91906153fe565b61449a90651cae8c13e0006152ab565b6144a560018961541d565b6144b49064e8d4a510006153fe565b6144be91906153fe565b6144c891906152c3565b6144d890655af3107a40006152ab565b816144e384896153fe565b6144f590670de0b6b3a76400006153fe565b6144ff91906152c3565b1161451057655af3107a40006145a7565b6301e133808e602001518f60600151614529919061541d565b8d6080015161453891906153fe565b61454890651cae8c13e0006152ab565b61455360018961541d565b6145629064e8d4a510006153fe565b61456c91906153fe565b61457691906152c3565b8161458184896153fe565b61459390670de0b6b3a76400006153fe565b61459d91906152c3565b6145a7919061541d565b9850614908565b60008d6080015160018111156145d457634e487b7160e01b600052602160045260246000fd5b14156148ce5760008a60018111156145fc57634e487b7160e01b600052602160045260246000fd5b141561461d5761460c8b88614150565b614616908861541d565b965061462a565b6146278b886152ab565b96505b600085131561472e57651cae8c13e0008e602001518f6060015161464e919061541d565b8d6080015161465d91906153fe565b61466d906502de413530006152ab565b88614678868261541d565b6146828b8961541d565b61468b8a6132b3565b61469591906153fe565b61469f91906153fe565b6146a991906152c3565b6146b58a6103e86153fe565b6146bf91906152ab565b6146c991906153fe565b6146d391906152c3565b9150876146e0848261541d565b6146ea8a8761541d565b6146f3886132b3565b6146fd91906153fe565b61470791906153fe565b61471191906152c3565b61471d896103e86153fe565b61472791906152ab565b9050614825565b651cae8c13e0008e602001518f60600151614749919061541d565b8d6080015161475891906153fe565b614768906502de413530006152ab565b88614773868261541d565b61477d8b8961541d565b6147868a6132b3565b61479091906153fe565b61479a91906153fe565b6147a491906152c3565b6147b08a6103e86153fe565b6147ba919061541d565b6147c491906153fe565b6147ce91906152c3565b9150876147db848261541d565b6147e58a8761541d565b6147ee886132b3565b6147f891906153fe565b61480291906153fe565b61480c91906152c3565b614818896103e86153fe565b614822919061541d565b90505b8061483083886153fe565b61484290670de0b6b3a76400006153fe565b61484c91906152c3565b61485c90655af3107a40006152ab565b6148678760016152ab565b61487990670de0b6b3a76400006153fe565b1161488a57655af3107a40006145a7565b8061489583886153fe565b6148a790670de0b6b3a76400006153fe565b6148b191906152c3565b6148bc8760016152ab565b61459d90670de0b6b3a76400006153fe565b60405162461bcd60e51b815260206004820152600f60248201526e434242433a57524f4e475f5459504560881b6044820152606401610760565b505050505050505095945050505050565b6000808083600181111561493d57634e487b7160e01b600052602160045260246000fd5b141561494e57506020840151614955565b5060408401515b633b9aca006149858660c0015186670de0b6b3a764000061497691906153fe565b61498091906152c3565b6149c0565b60a087015161499490846153fe565b61499e91906153fe565b6149a891906152c3565b85606001516149b791906152ab565b95945050505050565b60006003821115614a2157508060006149da6002836152c3565b6149e59060016152ab565b90505b81811015614a1b57905080600281614a0081866152c3565b614a0a91906152ab565b614a1491906152c3565b90506149e8565b506107f8565b81156107f857506001919050565b828054614a3b90615464565b90600052602060002090601f016020900481019282614a5d5760008555614aa3565b82601f10614a7657805160ff1916838001178555614aa3565b82800160010185558215614aa3579182015b82811115614aa3578251825591602001919060010190614a88565b50614aaf929150614ab3565b5090565b5b80821115614aaf5760008155600101614ab4565b600082601f830112614ad8578081fd5b8135614aeb614ae682615283565b615252565b818152846020838601011115614aff578283fd5b816020850160208301379081016020019190915292915050565b600060208284031215614b2a578081fd5b8135614b3581615524565b9392505050565b600060208284031215614b4d578081fd5b8151614b3581615524565b60008060408385031215614b6a578081fd5b8235614b7581615524565b91506020830135614b8581615524565b809150509250929050565b600080600060608486031215614ba4578081fd5b8335614baf81615524565b92506020840135614bbf81615524565b929592945050506040919091013590565b600080600080600080600060e0888a031215614bea578283fd5b8735614bf581615524565b96506020880135614c0581615524565b955060408801359450606088013593506080880135614c2381615546565b9699959850939692959460a0840135945060c09093013592915050565b60008060408385031215614c52578182fd5b8235614c5d81615524565b946020939093013593505050565b600080600080600060a08688031215614c82578283fd5b8535614c8d81615524565b94506020860135614c9d81615524565b93506040860135614cad81615524565b92506060860135614cbd81615546565b91506080860135614ccd81615539565b809150509295509295909350565b600060208284031215614cec578081fd5b8151614b3581615539565b600060208284031215614d08578081fd5b5035919050565b600060208284031215614d20578081fd5b5051919050565b600060208284031215614d38578081fd5b815167ffffffffffffffff811115614d4e578182fd5b8201601f81018413614d5e578182fd5b8051614d6c614ae682615283565b818152856020838501011115614d80578384fd5b6149b7826020830160208601615434565b600080600060608486031215614da5578081fd5b833567ffffffffffffffff80821115614dbc578283fd5b614dc887838801614ac8565b94506020860135915080821115614ddd578283fd5b50614dea86828701614ac8565b9250506040840135614dfb81615546565b809150509250925092565b60008060408385031215614e18578182fd5b50508035926020909101359150565b60008060408385031215614e39578182fd5b505080516020909101519092909150565b600060208284031215614e5b578081fd5b8151614b3581615546565b60028110614e8457634e487b7160e01b600052602160045260246000fd5b9052565b60008451614e9a818460208901615434565b845190830190614eae818360208901615434565b8451910190614ec1818360208801615434565b0195945050505050565b60008451614edd818460208901615434565b6102c160f51b9083019081528451614efc816002840160208901615434565b600160fd1b600292909101918201528351614f1e816003840160208801615434565b651021a121219760d11b6003929091019182015260090195945050505050565b60008451614f50818460208901615434565b6102c160f51b90830190815267024b73b32b939b2960c51b60028201528451614f8081600a840160208901615434565b600160fd1b600a92909101918201528351614fa281600b840160208801615434565b651021a121219760d11b600b929091019182015260110195945050505050565b60008451614fd4818460208901615434565b604960f81b9083019081528451614ff2816001840160208901615434565b8451910190615008816001840160208801615434565b0160010195945050505050565b6001600160a01b038681168252858116602083015260ff8516604083015260a08201906150456060840186614e66565b8084166080840152509695505050505050565b6001600160a01b038416815260ff83166020820152606081016141486040830184614e66565b6020810161071b8284614e66565b60006020825282518060208401526150ab816040850160208701615434565b601f01601f19169190910160400192915050565b60208082526021908201527f434242435f544f5f5a45524f5f414444524553535f4e4f545f414c4c4f5745446040820152601760f91b606082015260800190565b60208082526022908201527f434242433a20494e53554646494349454e545f434242435f544f4b454e5f4f556040820152612a1760f11b606082015260800190565b60208082526027908201527f434242435f544f5f535553504943494f55535f414444524553535f4e4f545f41604082015266262627aba2a21760c91b606082015260800190565b6020808252601b908201527f434242433a20544f4b454e5f50524943455f4f555444415445442e0000000000604082015260600190565b6020808252602e908201527f436f6e747261637420696e7374616e63652068617320616c726561647920626560408201526d195b881a5b9a5d1a585b1a5e995960921b606082015260800190565b60208082526024908201527f434242433a20494e53554646494349454e545f534554544c455f544f4b454e5f60408201526327aaaa1760e11b606082015260800190565b604051601f8201601f1916810167ffffffffffffffff8111828210171561527b5761527b61550e565b604052919050565b600067ffffffffffffffff82111561529d5761529d61550e565b50601f01601f191660200190565b600082198211156152be576152be6154e2565b500190565b6000826152d2576152d26154f8565b500490565b80825b60018086116152e95750615314565b8187048211156152fb576152fb6154e2565b8086161561530857918102915b9490941c9380026152da565b94509492505050565b6000614b35600019848461533a565b6000614b3560001960ff8516845b60008261534957506001614b35565b8161535657506000614b35565b816001811461536c5760028114615376576153a3565b6001915050614b35565b60ff841115615387576153876154e2565b6001841b91508482111561539d5761539d6154e2565b50614b35565b5060208310610133831016604e8410600b84101617156153d6575081810a838111156153d1576153d16154e2565b614b35565b6153e384848460016152d7565b8086048211156153f5576153f56154e2565b02949350505050565b6000816000190483118215151615615418576154186154e2565b500290565b60008282101561542f5761542f6154e2565b500390565b60005b8381101561544f578181015183820152602001615437565b8381111561545e576000848401525b50505050565b600181811c9082168061547857607f821691505b60208210811415611eaf57634e487b7160e01b600052602260045260246000fd5b60006000198214156154ad576154ad6154e2565b5060010190565b6000826154c3576154c36154f8565b500690565b6000600160ff1b8214156154de576154de6154e2565b0390565b634e487b7160e01b600052601160045260246000fd5b634e487b7160e01b600052601260045260246000fd5b634e487b7160e01b600052604160045260246000fd5b6001600160a01b03811681146124d557600080fd5b600281106124d557600080fd5b60ff811681146124d557600080fdfeddf252ad1be2c89b69c2b068fc378daa952ba7f163c4a11628f55a4df523b3ef8c5be1e5ebec7d5bd14f71427d1e84f3dd0314c0f7b2291e5b200ac8c7c3b925a2646970667358221220520845a816cd081b4266319410d387f1b87b439eb9c00690003e5ec847aa13c864736f6c63430008030033",
			"opcodes": "PUSH1 0x80 PUSH1 0x40 MSTORE PUSH8 0xDE0B6B3A7640000 PUSH1 0x9C SSTORE PUSH1 0x1 PUSH1 0xA8 SSTORE CALLVALUE DUP1 ISZERO PUSH2 0x21 JUMPI PUSH1 0x0 DUP1 REVERT JUMPDEST POP PUSH2 0x55CB DUP1 PUSH3 0x32 PUSH1 0x0 CODECOPY PUSH1 0x0 RETURN INVALID PUSH1 0x80 PUSH1 0x40 MSTORE CALLVALUE DUP1 ISZERO PUSH2 0x10 JUMPI PUSH1 0x0 DUP1 REVERT JUMPDEST POP PUSH1 0x4 CALLDATASIZE LT PUSH2 0x274 JUMPI PUSH1 0x0 CALLDATALOAD PUSH1 0xE0 SHR DUP1 PUSH4 0x8DA5CB5B GT PUSH2 0x151 JUMPI DUP1 PUSH4 0xC45A0155 GT PUSH2 0xC3 JUMPI DUP1 PUSH4 0xDD62ED3E GT PUSH2 0x87 JUMPI DUP1 PUSH4 0xDD62ED3E EQ PUSH2 0x592 JUMPI DUP1 PUSH4 0xDDD6F962 EQ PUSH2 0x5CB JUMPI DUP1 PUSH4 0xDF896754 EQ PUSH2 0x5D4 JUMPI DUP1 PUSH4 0xE1B11DA4 EQ PUSH2 0x5E7 JUMPI DUP1 PUSH4 0xF2FDE38B EQ PUSH2 0x60E JUMPI DUP1 PUSH4 0xF887EA40 EQ PUSH2 0x621 JUMPI PUSH2 0x274 JUMP JUMPDEST DUP1 PUSH4 0xC45A0155 EQ PUSH2 0x533 JUMPI DUP1 PUSH4 0xC4D66DE8 EQ PUSH2 0x546 JUMPI DUP1 PUSH4 0xD505ACCF EQ PUSH2 0x559 JUMPI DUP1 PUSH4 0xD83678AC EQ PUSH2 0x56C JUMPI DUP1 PUSH4 0xD9131384 EQ PUSH2 0x57F JUMPI PUSH2 0x274 JUMP JUMPDEST DUP1 PUSH4 0xA3A7E7F3 GT PUSH2 0x115 JUMPI DUP1 PUSH4 0xA3A7E7F3 EQ PUSH2 0x4CC JUMPI DUP1 PUSH4 0xA457C2D7 EQ PUSH2 0x4DF JUMPI DUP1 PUSH4 0xA9059CBB EQ PUSH2 0x4F2 JUMPI DUP1 PUSH4 0xB1BF962D EQ PUSH2 0x505 JUMPI DUP1 PUSH4 0xBBB1863A EQ PUSH2 0x50D JUMPI DUP1 PUSH4 0xC0D78655 EQ PUSH2 0x520 JUMPI PUSH2 0x274 JUMP JUMPDEST DUP1 PUSH4 0x8DA5CB5B EQ PUSH2 0x483 JUMPI DUP1 PUSH4 0x8F32D59B EQ PUSH2 0x494 JUMPI DUP1 PUSH4 0x903CD3E3 EQ PUSH2 0x4A8 JUMPI DUP1 PUSH4 0x95D89B41 EQ PUSH2 0x4BB JUMPI DUP1 PUSH4 0x9FAA3C91 EQ PUSH2 0x4C3 JUMPI PUSH2 0x274 JUMP JUMPDEST DUP1 PUSH4 0x39509351 GT PUSH2 0x1EA JUMPI DUP1 PUSH4 0x715018A6 GT PUSH2 0x1AE JUMPI DUP1 PUSH4 0x715018A6 EQ PUSH2 0x3E1 JUMPI DUP1 PUSH4 0x74E14EB8 EQ PUSH2 0x3E9 JUMPI DUP1 PUSH4 0x78160376 EQ PUSH2 0x414 JUMPI DUP1 PUSH4 0x7A43E23F EQ PUSH2 0x434 JUMPI DUP1 PUSH4 0x7ECEBE00 EQ PUSH2 0x447 JUMPI DUP1 PUSH4 0x84D4B410 EQ PUSH2 0x470 JUMPI PUSH2 0x274 JUMP JUMPDEST DUP1 PUSH4 0x39509351 EQ PUSH2 0x374 JUMPI DUP1 PUSH4 0x3C974946 EQ PUSH2 0x387 JUMPI DUP1 PUSH4 0x4A02BD31 EQ PUSH2 0x3A8 JUMPI DUP1 PUSH4 0x5F1A40A2 EQ PUSH2 0x3BB JUMPI DUP1 PUSH4 0x70A08231 EQ PUSH2 0x3CE JUMPI PUSH2 0x274 JUMP JUMPDEST DUP1 PUSH4 0x1DA24F3E GT PUSH2 0x23C JUMPI DUP1 PUSH4 0x1DA24F3E EQ PUSH2 0x2EE JUMPI DUP1 PUSH4 0x23B872DD EQ PUSH2 0x301 JUMPI DUP1 PUSH4 0x2C86D98E EQ PUSH2 0x314 JUMPI DUP1 PUSH4 0x30ADF81F EQ PUSH2 0x33A JUMPI DUP1 PUSH4 0x313CE567 EQ PUSH2 0x361 JUMPI DUP1 PUSH4 0x3644E515 EQ PUSH2 0x36C JUMPI PUSH2 0x274 JUMP JUMPDEST DUP1 PUSH4 0x6FDDE03 EQ PUSH2 0x279 JUMPI DUP1 PUSH4 0x8A3809D EQ PUSH2 0x297 JUMPI DUP1 PUSH4 0x95EA7B3 EQ PUSH2 0x2AE JUMPI DUP1 PUSH4 0x1624F6C6 EQ PUSH2 0x2D1 JUMPI DUP1 PUSH4 0x18160DDD EQ PUSH2 0x2E6 JUMPI JUMPDEST PUSH1 0x0 DUP1 REVERT JUMPDEST PUSH2 0x281 PUSH2 0x634 JUMP JUMPDEST PUSH1 0x40 MLOAD PUSH2 0x28E SWAP2 SWAP1 PUSH2 0x508C JUMP JUMPDEST PUSH1 0x40 MLOAD DUP1 SWAP2 SUB SWAP1 RETURN JUMPDEST PUSH2 0x2A0 PUSH1 0x9D SLOAD DUP2 JUMP JUMPDEST PUSH1 0x40 MLOAD SWAP1 DUP2 MSTORE PUSH1 0x20 ADD PUSH2 0x28E JUMP JUMPDEST PUSH2 0x2C1 PUSH2 0x2BC CALLDATASIZE PUSH1 0x4 PUSH2 0x4C40 JUMP JUMPDEST PUSH2 0x6C6 JUMP JUMPDEST PUSH1 0x40 MLOAD SWAP1 ISZERO ISZERO DUP2 MSTORE PUSH1 0x20 ADD PUSH2 0x28E JUMP JUMPDEST PUSH2 0x2E4 PUSH2 0x2DF CALLDATASIZE PUSH1 0x4 PUSH2 0x4D91 JUMP JUMPDEST PUSH2 0x721 JUMP JUMPDEST STOP JUMPDEST PUSH1 0x9B SLOAD PUSH2 0x2A0 JUMP JUMPDEST PUSH2 0x2A0 PUSH2 0x2FC CALLDATASIZE PUSH1 0x4 PUSH2 0x4B19 JUMP JUMPDEST PUSH2 0x7DE JUMP JUMPDEST PUSH2 0x2C1 PUSH2 0x30F CALLDATASIZE PUSH1 0x4 PUSH2 0x4B90 JUMP JUMPDEST PUSH2 0x7FD JUMP JUMPDEST PUSH1 0xA7 SLOAD PUSH2 0x328 SWAP1 PUSH1 0x1 PUSH1 0xA0 SHL SWAP1 DIV PUSH1 0xFF AND DUP2 JUMP JUMPDEST PUSH1 0x40 MLOAD PUSH1 0xFF SWAP1 SWAP2 AND DUP2 MSTORE PUSH1 0x20 ADD PUSH2 0x28E JUMP JUMPDEST PUSH2 0x2A0 PUSH32 0x6E71EDAE12B1B97F4D1F60370FEF10105FA2FAAE0126114A169C64845D6126C9 DUP2 JUMP JUMPDEST PUSH1 0x35 SLOAD PUSH1 0xFF AND PUSH2 0x328 JUMP JUMPDEST PUSH2 0x2A0 PUSH2 0x9A0 JUMP JUMPDEST PUSH2 0x2C1 PUSH2 0x382 CALLDATASIZE PUSH1 0x4 PUSH2 0x4C40 JUMP JUMPDEST PUSH2 0xA4C JUMP JUMPDEST PUSH1 0xA7 SLOAD PUSH2 0x39B SWAP1 PUSH1 0x1 PUSH1 0xA8 SHL SWAP1 DIV PUSH1 0xFF AND DUP2 JUMP JUMPDEST PUSH1 0x40 MLOAD PUSH2 0x28E SWAP2 SWAP1 PUSH2 0x507E JUMP JUMPDEST PUSH2 0x2A0 PUSH2 0x3B6 CALLDATASIZE PUSH1 0x4 PUSH2 0x4B19 JUMP JUMPDEST PUSH2 0xAF6 JUMP JUMPDEST PUSH2 0x2A0 PUSH2 0x3C9 CALLDATASIZE PUSH1 0x4 PUSH2 0x4B19 JUMP JUMPDEST PUSH2 0xE15 JUMP JUMPDEST PUSH2 0x2A0 PUSH2 0x3DC CALLDATASIZE PUSH1 0x4 PUSH2 0x4B19 JUMP JUMPDEST PUSH2 0x10AA JUMP JUMPDEST PUSH2 0x2E4 PUSH2 0x10D1 JUMP JUMPDEST PUSH1 0xA7 SLOAD PUSH2 0x3FC SWAP1 PUSH1 0x1 PUSH1 0x1 PUSH1 0xA0 SHL SUB AND DUP2 JUMP JUMPDEST PUSH1 0x40 MLOAD PUSH1 0x1 PUSH1 0x1 PUSH1 0xA0 SHL SUB SWAP1 SWAP2 AND DUP2 MSTORE PUSH1 0x20 ADD PUSH2 0x28E JUMP JUMPDEST PUSH2 0x281 PUSH1 0x40 MLOAD DUP1 PUSH1 0x40 ADD PUSH1 0x40 MSTORE DUP1 PUSH1 0x1 DUP2 MSTORE PUSH1 0x20 ADD PUSH1 0x31 PUSH1 0xF8 SHL DUP2 MSTORE POP DUP2 JUMP JUMPDEST PUSH2 0x2A0 PUSH2 0x442 CALLDATASIZE PUSH1 0x4 PUSH2 0x4E06 JUMP JUMPDEST PUSH2 0x1138 JUMP JUMPDEST PUSH2 0x2A0 PUSH2 0x455 CALLDATASIZE PUSH1 0x4 PUSH2 0x4B19 JUMP JUMPDEST PUSH1 0x1 PUSH1 0x1 PUSH1 0xA0 SHL SUB AND PUSH1 0x0 SWAP1 DUP2 MSTORE PUSH1 0xA0 PUSH1 0x20 MSTORE PUSH1 0x40 SWAP1 KECCAK256 SLOAD SWAP1 JUMP JUMPDEST PUSH2 0x2C1 PUSH2 0x47E CALLDATASIZE PUSH1 0x4 PUSH2 0x4B58 JUMP JUMPDEST PUSH2 0x14EA JUMP JUMPDEST PUSH1 0x68 SLOAD PUSH1 0x1 PUSH1 0x1 PUSH1 0xA0 SHL SUB AND PUSH2 0x3FC JUMP JUMPDEST PUSH2 0x2C1 PUSH1 0x68 SLOAD PUSH1 0x1 PUSH1 0x1 PUSH1 0xA0 SHL SUB AND CALLER EQ SWAP1 JUMP JUMPDEST PUSH2 0x2E4 PUSH2 0x4B6 CALLDATASIZE PUSH1 0x4 PUSH2 0x4C6B JUMP JUMPDEST PUSH2 0x166D JUMP JUMPDEST PUSH2 0x281 PUSH2 0x1D9C JUMP JUMPDEST PUSH2 0x2A0 PUSH1 0x9F SLOAD DUP2 JUMP JUMPDEST PUSH2 0x2C1 PUSH2 0x4DA CALLDATASIZE PUSH1 0x4 PUSH2 0x4B19 JUMP JUMPDEST PUSH2 0x1DAB JUMP JUMPDEST PUSH2 0x2C1 PUSH2 0x4ED CALLDATASIZE PUSH1 0x4 PUSH2 0x4C40 JUMP JUMPDEST PUSH2 0x1EB5 JUMP JUMPDEST PUSH2 0x2C1 PUSH2 0x500 CALLDATASIZE PUSH1 0x4 PUSH2 0x4C40 JUMP JUMPDEST PUSH2 0x1F73 JUMP JUMPDEST PUSH2 0x2A0 PUSH2 0x2086 JUMP JUMPDEST PUSH1 0xA4 SLOAD PUSH2 0x3FC SWAP1 PUSH1 0x1 PUSH1 0x1 PUSH1 0xA0 SHL SUB AND DUP2 JUMP JUMPDEST PUSH2 0x2E4 PUSH2 0x52E CALLDATASIZE PUSH1 0x4 PUSH2 0x4B19 JUMP JUMPDEST PUSH2 0x209D JUMP JUMPDEST PUSH1 0xA3 SLOAD PUSH2 0x3FC SWAP1 PUSH1 0x1 PUSH1 0x1 PUSH1 0xA0 SHL SUB AND DUP2 JUMP JUMPDEST PUSH2 0x2E4 PUSH2 0x554 CALLDATASIZE PUSH1 0x4 PUSH2 0x4B19 JUMP JUMPDEST PUSH2 0x210E JUMP JUMPDEST PUSH2 0x2E4 PUSH2 0x567 CALLDATASIZE PUSH1 0x4 PUSH2 0x4BD0 JUMP JUMPDEST PUSH2 0x2192 JUMP JUMPDEST PUSH1 0xA6 SLOAD PUSH2 0x3FC SWAP1 PUSH1 0x1 PUSH1 0x1 PUSH1 0xA0 SHL SUB AND DUP2 JUMP JUMPDEST PUSH2 0x2E4 PUSH2 0x58D CALLDATASIZE PUSH1 0x4 PUSH2 0x4CF7 JUMP JUMPDEST PUSH2 0x2391 JUMP JUMPDEST PUSH2 0x2A0 PUSH2 0x5A0 CALLDATASIZE PUSH1 0x4 PUSH2 0x4B58 JUMP JUMPDEST PUSH1 0x1 PUSH1 0x1 PUSH1 0xA0 SHL SUB SWAP2 DUP3 AND PUSH1 0x0 SWAP1 DUP2 MSTORE PUSH1 0xA2 PUSH1 0x20 SWAP1 DUP2 MSTORE PUSH1 0x40 DUP1 DUP4 KECCAK256 SWAP4 SWAP1 SWAP5 AND DUP3 MSTORE SWAP2 SWAP1 SWAP2 MSTORE KECCAK256 SLOAD SWAP1 JUMP JUMPDEST PUSH2 0x2A0 PUSH1 0x9E SLOAD DUP2 JUMP JUMPDEST PUSH2 0x2E4 PUSH2 0x5E2 CALLDATASIZE PUSH1 0x4 PUSH2 0x4B19 JUMP JUMPDEST PUSH2 0x23E3 JUMP JUMPDEST PUSH2 0x2A0 PUSH32 0x8B73C3C69BB8FE3D512ECC4CF759CC79239F7B179B0FFACAA9A75D522B39400F DUP2 JUMP JUMPDEST PUSH2 0x2E4 PUSH2 0x61C CALLDATASIZE PUSH1 0x4 PUSH2 0x4B19 JUMP JUMPDEST PUSH2 0x24AF JUMP JUMPDEST PUSH1 0xA5 SLOAD PUSH2 0x3FC SWAP1 PUSH1 0x1 PUSH1 0x1 PUSH1 0xA0 SHL SUB AND DUP2 JUMP JUMPDEST PUSH1 0x60 PUSH1 0x33 DUP1 SLOAD PUSH2 0x643 SWAP1 PUSH2 0x5464 JUMP JUMPDEST DUP1 PUSH1 0x1F ADD PUSH1 0x20 DUP1 SWAP2 DIV MUL PUSH1 0x20 ADD PUSH1 0x40 MLOAD SWAP1 DUP2 ADD PUSH1 0x40 MSTORE DUP1 SWAP3 SWAP2 SWAP1 DUP2 DUP2 MSTORE PUSH1 0x20 ADD DUP3 DUP1 SLOAD PUSH2 0x66F SWAP1 PUSH2 0x5464 JUMP JUMPDEST DUP1 ISZERO PUSH2 0x6BC JUMPI DUP1 PUSH1 0x1F LT PUSH2 0x691 JUMPI PUSH2 0x100 DUP1 DUP4 SLOAD DIV MUL DUP4 MSTORE SWAP2 PUSH1 0x20 ADD SWAP2 PUSH2 0x6BC JUMP JUMPDEST DUP3 ADD SWAP2 SWAP1 PUSH1 0x0 MSTORE PUSH1 0x20 PUSH1 0x0 KECCAK256 SWAP1 JUMPDEST DUP2 SLOAD DUP2 MSTORE SWAP1 PUSH1 0x1 ADD SWAP1 PUSH1 0x20 ADD DUP1 DUP4 GT PUSH2 0x69F JUMPI DUP3 SWAP1 SUB PUSH1 0x1F AND DUP3 ADD SWAP2 JUMPDEST POP POP POP POP POP SWAP1 POP SWAP1 JUMP JUMPDEST CALLER PUSH1 0x0 DUP2 DUP2 MSTORE PUSH1 0xA2 PUSH1 0x20 SWAP1 DUP2 MSTORE PUSH1 0x40 DUP1 DUP4 KECCAK256 PUSH1 0x1 PUSH1 0x1 PUSH1 0xA0 SHL SUB DUP8 AND DUP1 DUP6 MSTORE SWAP3 MSTORE DUP1 DUP4 KECCAK256 DUP6 SWAP1 SSTORE MLOAD SWAP2 SWAP3 SWAP1 SWAP2 PUSH1 0x0 DUP1 MLOAD PUSH1 0x20 PUSH2 0x5576 DUP4 CODECOPY DUP2 MLOAD SWAP2 MSTORE SWAP1 PUSH2 0x70F SWAP1 DUP7 DUP2 MSTORE PUSH1 0x20 ADD SWAP1 JUMP JUMPDEST PUSH1 0x40 MLOAD DUP1 SWAP2 SUB SWAP1 LOG3 POP PUSH1 0x1 JUMPDEST SWAP3 SWAP2 POP POP JUMP JUMPDEST PUSH1 0x0 SLOAD PUSH2 0x100 SWAP1 DIV PUSH1 0xFF AND DUP1 PUSH2 0x736 JUMPI POP ADDRESS EXTCODESIZE ISZERO JUMPDEST DUP1 PUSH2 0x744 JUMPI POP PUSH1 0x0 SLOAD PUSH1 0xFF AND ISZERO JUMPDEST PUSH2 0x769 JUMPI PUSH1 0x40 MLOAD PUSH3 0x461BCD PUSH1 0xE5 SHL DUP2 MSTORE PUSH1 0x4 ADD PUSH2 0x760 SWAP1 PUSH2 0x51C0 JUMP JUMPDEST PUSH1 0x40 MLOAD DUP1 SWAP2 SUB SWAP1 REVERT JUMPDEST PUSH1 0x0 DUP1 SLOAD PUSH2 0xFFFF NOT DUP2 AND PUSH2 0x101 OR SWAP1 SWAP2 SSTORE DUP4 MLOAD PUSH2 0x100 SWAP1 SWAP2 DIV PUSH1 0xFF AND SWAP1 PUSH2 0x797 SWAP1 PUSH1 0x33 SWAP1 PUSH1 0x20 DUP8 ADD SWAP1 PUSH2 0x4A2F JUMP JUMPDEST POP DUP3 MLOAD PUSH2 0x7AB SWAP1 PUSH1 0x34 SWAP1 PUSH1 0x20 DUP7 ADD SWAP1 PUSH2 0x4A2F JUMP JUMPDEST POP PUSH1 0x35 DUP1 SLOAD PUSH1 0xFF SWAP1 SWAP4 AND PUSH1 0xFF NOT SWAP1 SWAP4 AND SWAP3 SWAP1 SWAP3 OR SWAP1 SWAP2 SSTORE PUSH1 0x0 DUP1 SLOAD SWAP2 ISZERO ISZERO PUSH2 0x100 MUL PUSH2 0xFF00 NOT SWAP1 SWAP3 AND SWAP2 SWAP1 SWAP2 OR SWAP1 SSTORE POP POP JUMP JUMPDEST PUSH1 0x1 PUSH1 0x1 PUSH1 0xA0 SHL SUB DUP2 AND PUSH1 0x0 SWAP1 DUP2 MSTORE PUSH1 0xA1 PUSH1 0x20 MSTORE PUSH1 0x40 SWAP1 KECCAK256 SLOAD JUMPDEST SWAP2 SWAP1 POP JUMP JUMPDEST PUSH1 0x0 DUP3 PUSH1 0x1 PUSH1 0x1 PUSH1 0xA0 SHL SUB DUP2 AND PUSH2 0x826 JUMPI PUSH1 0x40 MLOAD PUSH3 0x461BCD PUSH1 0xE5 SHL DUP2 MSTORE PUSH1 0x4 ADD PUSH2 0x760 SWAP1 PUSH2 0x50BF JUMP JUMPDEST PUSH20 0xEB31973E0FEBF3E3D7058234A5EBBAE1AB4B8C23 PUSH1 0x1 PUSH1 0x1 PUSH1 0xA0 SHL SUB DUP3 AND EQ ISZERO PUSH2 0x863 JUMPI PUSH1 0x40 MLOAD PUSH3 0x461BCD PUSH1 0xE5 SHL DUP2 MSTORE PUSH1 0x4 ADD PUSH2 0x760 SWAP1 PUSH2 0x5142 JUMP JUMPDEST PUSH1 0x1 PUSH1 0x1 PUSH1 0xA0 SHL SUB DUP6 AND PUSH1 0x0 SWAP1 DUP2 MSTORE PUSH1 0xA2 PUSH1 0x20 SWAP1 DUP2 MSTORE PUSH1 0x40 DUP1 DUP4 KECCAK256 CALLER DUP5 MSTORE SWAP1 SWAP2 MSTORE SWAP1 KECCAK256 SLOAD PUSH1 0x0 NOT EQ PUSH2 0x8E3 JUMPI PUSH1 0x1 PUSH1 0x1 PUSH1 0xA0 SHL SUB DUP6 AND PUSH1 0x0 SWAP1 DUP2 MSTORE PUSH1 0xA2 PUSH1 0x20 SWAP1 DUP2 MSTORE PUSH1 0x40 DUP1 DUP4 KECCAK256 CALLER DUP5 MSTORE SWAP1 SWAP2 MSTORE SWAP1 KECCAK256 SLOAD PUSH2 0x8BE SWAP1 DUP5 SWAP1 PUSH2 0x541D JUMP JUMPDEST PUSH1 0x1 PUSH1 0x1 PUSH1 0xA0 SHL SUB DUP7 AND PUSH1 0x0 SWAP1 DUP2 MSTORE PUSH1 0xA2 PUSH1 0x20 SWAP1 DUP2 MSTORE PUSH1 0x40 DUP1 DUP4 KECCAK256 CALLER DUP5 MSTORE SWAP1 SWAP2 MSTORE SWAP1 KECCAK256 SSTORE JUMPDEST PUSH1 0x0 PUSH1 0x9C SLOAD DUP5 PUSH2 0x8F3 SWAP2 SWAP1 PUSH2 0x53FE JUMP JUMPDEST PUSH1 0x1 PUSH1 0x1 PUSH1 0xA0 SHL SUB DUP8 AND PUSH1 0x0 SWAP1 DUP2 MSTORE PUSH1 0xA1 PUSH1 0x20 MSTORE PUSH1 0x40 SWAP1 KECCAK256 SLOAD SWAP1 SWAP2 POP PUSH2 0x91A SWAP1 DUP3 SWAP1 PUSH2 0x541D JUMP JUMPDEST PUSH1 0x1 PUSH1 0x1 PUSH1 0xA0 SHL SUB DUP1 DUP9 AND PUSH1 0x0 SWAP1 DUP2 MSTORE PUSH1 0xA1 PUSH1 0x20 MSTORE PUSH1 0x40 DUP1 DUP3 KECCAK256 SWAP4 SWAP1 SWAP4 SSTORE SWAP1 DUP8 AND DUP2 MSTORE KECCAK256 SLOAD PUSH2 0x94A SWAP1 DUP3 SWAP1 PUSH2 0x52AB JUMP JUMPDEST PUSH1 0x1 PUSH1 0x1 PUSH1 0xA0 SHL SUB DUP1 DUP8 AND PUSH1 0x0 DUP2 DUP2 MSTORE PUSH1 0xA1 PUSH1 0x20 MSTORE PUSH1 0x40 SWAP1 DUP2 SWAP1 KECCAK256 SWAP4 SWAP1 SWAP4 SSTORE SWAP2 MLOAD SWAP1 DUP9 AND SWAP1 PUSH1 0x0 DUP1 MLOAD PUSH1 0x20 PUSH2 0x5556 DUP4 CODECOPY DUP2 MLOAD SWAP2 MSTORE SWAP1 PUSH2 0x98C SWAP1 DUP9 DUP2 MSTORE PUSH1 0x20 ADD SWAP1 JUMP JUMPDEST PUSH1 0x40 MLOAD DUP1 SWAP2 SUB SWAP1 LOG3 POP PUSH1 0x1 SWAP6 SWAP5 POP POP POP POP POP JUMP JUMPDEST PUSH1 0x0 CHAINID PUSH32 0x8B73C3C69BB8FE3D512ECC4CF759CC79239F7B179B0FFACAA9A75D522B39400F PUSH2 0x9CC PUSH2 0x634 JUMP JUMPDEST DUP1 MLOAD PUSH1 0x20 SWAP2 DUP3 ADD KECCAK256 PUSH1 0x40 DUP1 MLOAD DUP1 DUP3 ADD DUP3 MSTORE PUSH1 0x1 DUP2 MSTORE PUSH1 0x31 PUSH1 0xF8 SHL SWAP1 DUP5 ADD MSTORE DUP1 MLOAD SWAP3 DUP4 ADD SWAP4 SWAP1 SWAP4 MSTORE SWAP2 DUP2 ADD SWAP2 SWAP1 SWAP2 MSTORE PUSH32 0xC89EFDAA54C0F20C7ADF612882DF0950F5A951637E0307CDCB4C672F298B8BC6 PUSH1 0x60 DUP3 ADD MSTORE PUSH1 0x80 DUP2 ADD DUP3 SWAP1 MSTORE ADDRESS PUSH1 0xA0 DUP3 ADD MSTORE PUSH1 0xC0 ADD PUSH1 0x40 MLOAD PUSH1 0x20 DUP2 DUP4 SUB SUB DUP2 MSTORE SWAP1 PUSH1 0x40 MSTORE DUP1 MLOAD SWAP1 PUSH1 0x20 ADD KECCAK256 SWAP2 POP POP SWAP1 JUMP JUMPDEST CALLER PUSH1 0x0 SWAP1 DUP2 MSTORE PUSH1 0xA2 PUSH1 0x20 SWAP1 DUP2 MSTORE PUSH1 0x40 DUP1 DUP4 KECCAK256 PUSH1 0x1 PUSH1 0x1 PUSH1 0xA0 SHL SUB DUP7 AND DUP5 MSTORE SWAP1 SWAP2 MSTORE DUP2 KECCAK256 SLOAD PUSH1 0x0 NOT EQ PUSH2 0xAB1 JUMPI CALLER PUSH1 0x0 SWAP1 DUP2 MSTORE PUSH1 0xA2 PUSH1 0x20 SWAP1 DUP2 MSTORE PUSH1 0x40 DUP1 DUP4 KECCAK256 PUSH1 0x1 PUSH1 0x1 PUSH1 0xA0 SHL SUB DUP8 AND DUP5 MSTORE SWAP1 SWAP2 MSTORE DUP2 KECCAK256 DUP1 SLOAD DUP5 SWAP3 SWAP1 PUSH2 0xAAB SWAP1 DUP5 SWAP1 PUSH2 0x52AB JUMP JUMPDEST SWAP1 SWAP2 SSTORE POP POP JUMPDEST CALLER PUSH1 0x0 DUP2 DUP2 MSTORE PUSH1 0xA2 PUSH1 0x20 SWAP1 DUP2 MSTORE PUSH1 0x40 DUP1 DUP4 KECCAK256 PUSH1 0x1 PUSH1 0x1 PUSH1 0xA0 SHL SUB DUP9 AND DUP1 DUP6 MSTORE SWAP1 DUP4 MSTORE SWAP3 DUP2 SWAP1 KECCAK256 SLOAD SWAP1 MLOAD SWAP1 DUP2 MSTORE SWAP2 SWAP3 SWAP2 PUSH1 0x0 DUP1 MLOAD PUSH1 0x20 PUSH2 0x5576 DUP4 CODECOPY DUP2 MLOAD SWAP2 MSTORE SWAP2 ADD PUSH2 0x70F JUMP JUMPDEST PUSH1 0x0 PUSH1 0xA8 SLOAD PUSH1 0x1 EQ PUSH2 0xB39 JUMPI PUSH1 0x40 MLOAD PUSH3 0x461BCD PUSH1 0xE5 SHL DUP2 MSTORE PUSH1 0x20 PUSH1 0x4 DUP3 ADD MSTORE PUSH1 0xC PUSH1 0x24 DUP3 ADD MSTORE PUSH12 0x10D09090CE881313D0D2D151 PUSH1 0xA2 SHL PUSH1 0x44 DUP3 ADD MSTORE PUSH1 0x64 ADD PUSH2 0x760 JUMP JUMPDEST PUSH1 0x0 PUSH1 0xA8 SSTORE PUSH1 0xA5 SLOAD PUSH1 0x1 PUSH1 0x1 PUSH1 0xA0 SHL SUB AND CALLER EQ PUSH2 0xB8B JUMPI PUSH1 0x40 MLOAD PUSH3 0x461BCD PUSH1 0xE5 SHL DUP2 MSTORE PUSH1 0x20 PUSH1 0x4 DUP3 ADD MSTORE PUSH1 0x10 PUSH1 0x24 DUP3 ADD MSTORE PUSH16 0x21A121219D102727AA2FA927AAAA22A9 PUSH1 0x81 SHL PUSH1 0x44 DUP3 ADD MSTORE PUSH1 0x64 ADD PUSH2 0x760 JUMP JUMPDEST PUSH1 0x9B SLOAD PUSH2 0xC93 JUMPI TIMESTAMP PUSH1 0x9D SSTORE PUSH1 0xA4 SLOAD PUSH1 0x40 DUP1 MLOAD PUSH4 0xC12C2A5 PUSH1 0xE3 SHL DUP2 MSTORE SWAP1 MLOAD PUSH1 0x1 PUSH1 0x1 PUSH1 0xA0 SHL SUB SWAP1 SWAP3 AND SWAP2 PUSH4 0x60961528 SWAP2 PUSH1 0x4 DUP1 DUP3 ADD SWAP3 PUSH1 0x20 SWAP3 SWAP1 SWAP2 SWAP1 DUP3 SWAP1 SUB ADD DUP2 DUP7 DUP1 EXTCODESIZE ISZERO DUP1 ISZERO PUSH2 0xBDB JUMPI PUSH1 0x0 DUP1 REVERT JUMPDEST POP GAS STATICCALL ISZERO DUP1 ISZERO PUSH2 0xBEF JUMPI RETURNDATASIZE PUSH1 0x0 DUP1 RETURNDATACOPY RETURNDATASIZE PUSH1 0x0 REVERT JUMPDEST POP POP POP POP PUSH1 0x40 MLOAD RETURNDATASIZE PUSH1 0x1F NOT PUSH1 0x1F DUP3 ADD AND DUP3 ADD DUP1 PUSH1 0x40 MSTORE POP DUP2 ADD SWAP1 PUSH2 0xC13 SWAP2 SWAP1 PUSH2 0x4B3C JUMP JUMPDEST PUSH1 0xA6 SLOAD PUSH1 0x40 MLOAD PUSH4 0x41976E09 PUSH1 0xE0 SHL DUP2 MSTORE PUSH1 0x1 PUSH1 0x1 PUSH1 0xA0 SHL SUB SWAP2 DUP3 AND PUSH1 0x4 DUP3 ADD MSTORE SWAP2 AND SWAP1 PUSH4 0x41976E09 SWAP1 PUSH1 0x24 ADD PUSH1 0x40 DUP1 MLOAD DUP1 DUP4 SUB DUP2 DUP7 DUP1 EXTCODESIZE ISZERO DUP1 ISZERO PUSH2 0xC56 JUMPI PUSH1 0x0 DUP1 REVERT JUMPDEST POP GAS STATICCALL ISZERO DUP1 ISZERO PUSH2 0xC6A JUMPI RETURNDATASIZE PUSH1 0x0 DUP1 RETURNDATACOPY RETURNDATASIZE PUSH1 0x0 REVERT JUMPDEST POP POP POP POP PUSH1 0x40 MLOAD RETURNDATASIZE PUSH1 0x1F NOT PUSH1 0x1F DUP3 ADD AND DUP3 ADD DUP1 PUSH1 0x40 MSTORE POP DUP2 ADD SWAP1 PUSH2 0xC8E SWAP2 SWAP1 PUSH2 0x4E27 JUMP JUMPDEST POP PUSH1 0x9E SSTORE JUMPDEST PUSH1 0xA3 SLOAD PUSH1 0xA7 SLOAD PUSH1 0x40 MLOAD PUSH4 0x4C22F489 PUSH1 0xE1 SHL DUP2 MSTORE PUSH1 0x1 PUSH1 0x1 PUSH1 0xA0 SHL SUB SWAP2 DUP3 AND PUSH1 0x4 DUP3 ADD MSTORE PUSH1 0x0 SWAP3 SWAP2 SWAP1 SWAP2 AND SWAP1 PUSH4 0x9845E912 SWAP1 PUSH1 0x24 ADD PUSH1 0x20 PUSH1 0x40 MLOAD DUP1 DUP4 SUB DUP2 DUP7 DUP1 EXTCODESIZE ISZERO DUP1 ISZERO PUSH2 0xCDF JUMPI PUSH1 0x0 DUP1 REVERT JUMPDEST POP GAS STATICCALL ISZERO DUP1 ISZERO PUSH2 0xCF3 JUMPI RETURNDATASIZE PUSH1 0x0 DUP1 RETURNDATACOPY RETURNDATASIZE PUSH1 0x0 REVERT JUMPDEST POP POP POP POP PUSH1 0x40 MLOAD RETURNDATASIZE PUSH1 0x1F NOT PUSH1 0x1F DUP3 ADD AND DUP3 ADD DUP1 PUSH1 0x40 MSTORE POP DUP2 ADD SWAP1 PUSH2 0xD17 SWAP2 SWAP1 PUSH2 0x4B3C JUMP JUMPDEST SWAP1 POP PUSH1 0x0 DUP2 PUSH1 0x1 PUSH1 0x1 PUSH1 0xA0 SHL SUB AND PUSH4 0x872C6795 PUSH1 0x40 MLOAD DUP2 PUSH4 0xFFFFFFFF AND PUSH1 0xE0 SHL DUP2 MSTORE PUSH1 0x4 ADD PUSH1 0x20 PUSH1 0x40 MLOAD DUP1 DUP4 SUB DUP2 PUSH1 0x0 DUP8 DUP1 EXTCODESIZE ISZERO DUP1 ISZERO PUSH2 0xD56 JUMPI PUSH1 0x0 DUP1 REVERT JUMPDEST POP GAS CALL ISZERO DUP1 ISZERO PUSH2 0xD6A JUMPI RETURNDATASIZE PUSH1 0x0 DUP1 RETURNDATACOPY RETURNDATASIZE PUSH1 0x0 REVERT JUMPDEST POP POP POP POP PUSH1 0x40 MLOAD RETURNDATASIZE PUSH1 0x1F NOT PUSH1 0x1F DUP3 ADD AND DUP3 ADD DUP1 PUSH1 0x40 MSTORE POP DUP2 ADD SWAP1 PUSH2 0xD8E SWAP2 SWAP1 PUSH2 0x4D0F JUMP JUMPDEST SWAP1 POP PUSH2 0xD9A ADDRESS DUP3 PUSH2 0x24D8 JUMP JUMPDEST SWAP3 POP PUSH1 0x0 DUP4 GT PUSH2 0xDBC JUMPI PUSH1 0x40 MLOAD PUSH3 0x461BCD PUSH1 0xE5 SHL DUP2 MSTORE PUSH1 0x4 ADD PUSH2 0x760 SWAP1 PUSH2 0x5100 JUMP JUMPDEST PUSH2 0xDC6 DUP5 DUP5 PUSH2 0x2A43 JUMP JUMPDEST DUP4 PUSH1 0x1 PUSH1 0x1 PUSH1 0xA0 SHL SUB AND PUSH32 0xF6798A560793A54C3BCFE86A93CDE1E73087D944C0EA20544137D4121396885 DUP5 PUSH1 0x40 MLOAD PUSH2 0xE01 SWAP2 DUP2 MSTORE PUSH1 0x20 ADD SWAP1 JUMP JUMPDEST PUSH1 0x40 MLOAD DUP1 SWAP2 SUB SWAP1 LOG2 POP POP PUSH1 0x1 PUSH1 0xA8 SSTORE SWAP2 SWAP1 POP JUMP JUMPDEST PUSH1 0x0 PUSH1 0xA8 SLOAD PUSH1 0x1 EQ PUSH2 0xE58 JUMPI PUSH1 0x40 MLOAD PUSH3 0x461BCD PUSH1 0xE5 SHL DUP2 MSTORE PUSH1 0x20 PUSH1 0x4 DUP3 ADD MSTORE PUSH1 0xC PUSH1 0x24 DUP3 ADD MSTORE PUSH12 0x10D09090CE881313D0D2D151 PUSH1 0xA2 SHL PUSH1 0x44 DUP3 ADD MSTORE PUSH1 0x64 ADD PUSH2 0x760 JUMP JUMPDEST PUSH1 0x0 PUSH1 0xA8 SSTORE PUSH1 0xA5 SLOAD PUSH1 0x1 PUSH1 0x1 PUSH1 0xA0 SHL SUB AND CALLER EQ PUSH2 0xEAA JUMPI PUSH1 0x40 MLOAD PUSH3 0x461BCD PUSH1 0xE5 SHL DUP2 MSTORE PUSH1 0x20 PUSH1 0x4 DUP3 ADD MSTORE PUSH1 0x10 PUSH1 0x24 DUP3 ADD MSTORE PUSH16 0x21A121219D102727AA2FA927AAAA22A9 PUSH1 0x81 SHL PUSH1 0x44 DUP3 ADD MSTORE PUSH1 0x64 ADD PUSH2 0x760 JUMP JUMPDEST PUSH1 0x9C SLOAD ADDRESS PUSH1 0x0 SWAP1 DUP2 MSTORE PUSH1 0xA1 PUSH1 0x20 MSTORE PUSH1 0x40 DUP2 KECCAK256 SLOAD SWAP1 SWAP2 PUSH2 0xEC8 SWAP2 PUSH2 0x52C3 JUMP JUMPDEST SWAP1 POP PUSH2 0xED4 ADDRESS DUP3 PUSH2 0x2AC8 JUMP JUMPDEST SWAP2 POP PUSH1 0x0 DUP3 GT PUSH2 0xEF6 JUMPI PUSH1 0x40 MLOAD PUSH3 0x461BCD PUSH1 0xE5 SHL DUP2 MSTORE PUSH1 0x4 ADD PUSH2 0x760 SWAP1 PUSH2 0x520E JUMP JUMPDEST PUSH2 0xF00 ADDRESS DUP3 PUSH2 0x3234 JUMP JUMPDEST PUSH1 0xA3 SLOAD PUSH1 0xA7 SLOAD PUSH1 0x40 MLOAD PUSH4 0x4C22F489 PUSH1 0xE1 SHL DUP2 MSTORE PUSH1 0x1 PUSH1 0x1 PUSH1 0xA0 SHL SUB SWAP2 DUP3 AND PUSH1 0x4 DUP3 ADD MSTORE PUSH1 0x0 SWAP3 SWAP2 SWAP1 SWAP2 AND SWAP1 PUSH4 0x9845E912 SWAP1 PUSH1 0x24 ADD PUSH1 0x20 PUSH1 0x40 MLOAD DUP1 DUP4 SUB DUP2 DUP7 DUP1 EXTCODESIZE ISZERO DUP1 ISZERO PUSH2 0xF4C JUMPI PUSH1 0x0 DUP1 REVERT JUMPDEST POP GAS STATICCALL ISZERO DUP1 ISZERO PUSH2 0xF60 JUMPI RETURNDATASIZE PUSH1 0x0 DUP1 RETURNDATACOPY RETURNDATASIZE PUSH1 0x0 REVERT JUMPDEST POP POP POP POP PUSH1 0x40 MLOAD RETURNDATASIZE PUSH1 0x1F NOT PUSH1 0x1F DUP3 ADD AND DUP3 ADD DUP1 PUSH1 0x40 MSTORE POP DUP2 ADD SWAP1 PUSH2 0xF84 SWAP2 SWAP1 PUSH2 0x4B3C JUMP JUMPDEST PUSH1 0x40 MLOAD PUSH4 0xCE2D30DD PUSH1 0xE0 SHL DUP2 MSTORE PUSH1 0x1 PUSH1 0x1 PUSH1 0xA0 SHL SUB DUP7 DUP2 AND PUSH1 0x4 DUP4 ADD MSTORE PUSH1 0x24 DUP3 ADD DUP7 SWAP1 MSTORE SWAP2 SWAP3 POP SWAP1 DUP3 AND SWAP1 PUSH4 0xCE2D30DD SWAP1 PUSH1 0x44 ADD PUSH1 0x0 PUSH1 0x40 MLOAD DUP1 DUP4 SUB DUP2 PUSH1 0x0 DUP8 DUP1 EXTCODESIZE ISZERO DUP1 ISZERO PUSH2 0xFD2 JUMPI PUSH1 0x0 DUP1 REVERT JUMPDEST POP GAS CALL ISZERO DUP1 ISZERO PUSH2 0xFE6 JUMPI RETURNDATASIZE PUSH1 0x0 DUP1 RETURNDATACOPY RETURNDATASIZE PUSH1 0x0 REVERT JUMPDEST POP POP POP POP DUP1 PUSH1 0x1 PUSH1 0x1 PUSH1 0xA0 SHL SUB AND PUSH4 0x9287C6E PUSH1 0x40 MLOAD DUP2 PUSH4 0xFFFFFFFF AND PUSH1 0xE0 SHL DUP2 MSTORE PUSH1 0x4 ADD PUSH1 0x20 PUSH1 0x40 MLOAD DUP1 DUP4 SUB DUP2 PUSH1 0x0 DUP8 DUP1 EXTCODESIZE ISZERO DUP1 ISZERO PUSH2 0x1025 JUMPI PUSH1 0x0 DUP1 REVERT JUMPDEST POP GAS CALL ISZERO DUP1 ISZERO PUSH2 0x1039 JUMPI RETURNDATASIZE PUSH1 0x0 DUP1 RETURNDATACOPY RETURNDATASIZE PUSH1 0x0 REVERT JUMPDEST POP POP POP POP PUSH1 0x40 MLOAD RETURNDATASIZE PUSH1 0x1F NOT PUSH1 0x1F DUP3 ADD AND DUP3 ADD DUP1 PUSH1 0x40 MSTORE POP DUP2 ADD SWAP1 PUSH2 0x105D SWAP2 SWAP1 PUSH2 0x4D0F JUMP JUMPDEST POP PUSH1 0x40 MLOAD DUP4 DUP2 MSTORE PUSH1 0x1 PUSH1 0x1 PUSH1 0xA0 SHL SUB DUP6 AND SWAP1 CALLER SWAP1 PUSH32 0xDBDF9B8E4B75E75B162D151EC8FC7F0561CABAB5FCCCFA2600BE62223E4300C4 SWAP1 PUSH1 0x20 ADD PUSH1 0x40 MLOAD DUP1 SWAP2 SUB SWAP1 LOG3 POP POP PUSH1 0x1 PUSH1 0xA8 SSTORE SWAP2 SWAP1 POP JUMP JUMPDEST PUSH1 0x9C SLOAD PUSH1 0x1 PUSH1 0x1 PUSH1 0xA0 SHL SUB DUP3 AND PUSH1 0x0 SWAP1 DUP2 MSTORE PUSH1 0xA1 PUSH1 0x20 MSTORE PUSH1 0x40 DUP2 KECCAK256 SLOAD SWAP1 SWAP2 PUSH2 0x71B SWAP2 PUSH2 0x52C3 JUMP JUMPDEST PUSH2 0x10E5 PUSH1 0x68 SLOAD PUSH1 0x1 PUSH1 0x1 PUSH1 0xA0 SHL SUB AND CALLER EQ SWAP1 JUMP JUMPDEST PUSH2 0x10EE JUMPI PUSH1 0x0 DUP1 REVERT JUMPDEST PUSH1 0x68 SLOAD PUSH1 0x40 MLOAD PUSH1 0x1 PUSH1 0x1 PUSH1 0xA0 SHL SUB SWAP1 SWAP2 AND SWAP1 PUSH32 0xF8DF31144D9C2F0F6B59D69B8B98ABD5459D07F2742C4DF920B25AAE33C64820 SWAP1 PUSH1 0x0 SWAP1 LOG2 PUSH1 0x68 DUP1 SLOAD PUSH1 0x1 PUSH1 0x1 PUSH1 0xA0 SHL SUB NOT AND SWAP1 SSTORE JUMP JUMPDEST PUSH1 0xA4 SLOAD PUSH1 0x0 SWAP1 PUSH1 0x1 PUSH1 0x1 PUSH1 0xA0 SHL SUB AND CALLER EQ PUSH2 0x1195 JUMPI PUSH1 0x40 MLOAD PUSH3 0x461BCD PUSH1 0xE5 SHL DUP2 MSTORE PUSH1 0x20 PUSH1 0x4 DUP3 ADD MSTORE PUSH1 0x17 PUSH1 0x24 DUP3 ADD MSTORE PUSH32 0x434242433A204E4F545F5245424153455F504F4C494359000000000000000000 PUSH1 0x44 DUP3 ADD MSTORE PUSH1 0x64 ADD PUSH2 0x760 JUMP JUMPDEST DUP2 PUSH2 0x12F4 JUMPI TIMESTAMP PUSH1 0x9D SSTORE PUSH1 0xA4 SLOAD PUSH1 0x40 DUP1 MLOAD PUSH4 0xC12C2A5 PUSH1 0xE3 SHL DUP2 MSTORE SWAP1 MLOAD PUSH1 0x1 PUSH1 0x1 PUSH1 0xA0 SHL SUB SWAP1 SWAP3 AND SWAP2 PUSH4 0x60961528 SWAP2 PUSH1 0x4 DUP1 DUP3 ADD SWAP3 PUSH1 0x20 SWAP3 SWAP1 SWAP2 SWAP1 DUP3 SWAP1 SUB ADD DUP2 DUP7 DUP1 EXTCODESIZE ISZERO DUP1 ISZERO PUSH2 0x11E3 JUMPI PUSH1 0x0 DUP1 REVERT JUMPDEST POP GAS STATICCALL ISZERO DUP1 ISZERO PUSH2 0x11F7 JUMPI RETURNDATASIZE PUSH1 0x0 DUP1 RETURNDATACOPY RETURNDATASIZE PUSH1 0x0 REVERT JUMPDEST POP POP POP POP PUSH1 0x40 MLOAD RETURNDATASIZE PUSH1 0x1F NOT PUSH1 0x1F DUP3 ADD AND DUP3 ADD DUP1 PUSH1 0x40 MSTORE POP DUP2 ADD SWAP1 PUSH2 0x121B SWAP2 SWAP1 PUSH2 0x4B3C JUMP JUMPDEST PUSH1 0xA6 SLOAD PUSH1 0x40 MLOAD PUSH4 0x41976E09 PUSH1 0xE0 SHL DUP2 MSTORE PUSH1 0x1 PUSH1 0x1 PUSH1 0xA0 SHL SUB SWAP2 DUP3 AND PUSH1 0x4 DUP3 ADD MSTORE SWAP2 AND SWAP1 PUSH4 0x41976E09 SWAP1 PUSH1 0x24 ADD PUSH1 0x40 DUP1 MLOAD DUP1 DUP4 SUB DUP2 DUP7 DUP1 EXTCODESIZE ISZERO DUP1 ISZERO PUSH2 0x125E JUMPI PUSH1 0x0 DUP1 REVERT JUMPDEST POP GAS STATICCALL ISZERO DUP1 ISZERO PUSH2 0x1272 JUMPI RETURNDATASIZE PUSH1 0x0 DUP1 RETURNDATACOPY RETURNDATASIZE PUSH1 0x0 REVERT JUMPDEST POP POP POP POP PUSH1 0x40 MLOAD RETURNDATASIZE PUSH1 0x1F NOT PUSH1 0x1F DUP3 ADD AND DUP3 ADD DUP1 PUSH1 0x40 MSTORE POP DUP2 ADD SWAP1 PUSH2 0x1296 SWAP2 SWAP1 PUSH2 0x4E27 JUMP JUMPDEST POP PUSH1 0x9E DUP2 SWAP1 SSTORE PUSH1 0x9D SLOAD PUSH1 0x9B SLOAD PUSH1 0x40 MLOAD DUP7 SWAP4 PUSH32 0xA9219328B62D2057317E0A7D7634032C7CACA3F5B8230D51B25E957EFC67DBF4 SWAP4 PUSH2 0x12E3 SWAP4 SWAP1 DUP4 MSTORE PUSH1 0x20 DUP4 ADD SWAP2 SWAP1 SWAP2 MSTORE PUSH1 0x40 DUP3 ADD MSTORE PUSH1 0x60 ADD SWAP1 JUMP JUMPDEST PUSH1 0x40 MLOAD DUP1 SWAP2 SUB SWAP1 LOG2 POP PUSH1 0x9B SLOAD PUSH2 0x71B JUMP JUMPDEST PUSH1 0x0 DUP1 DUP4 SLT ISZERO PUSH2 0x131B JUMPI PUSH2 0x1307 DUP4 PUSH2 0x32B3 JUMP JUMPDEST PUSH1 0x9B SLOAD PUSH2 0x1314 SWAP2 SWAP1 PUSH2 0x541D JUMP JUMPDEST SWAP1 POP PUSH2 0x1344 JUMP JUMPDEST DUP3 PUSH1 0x9B SLOAD PUSH2 0x1329 SWAP2 SWAP1 PUSH2 0x52AB JUMP JUMPDEST SWAP1 POP PUSH1 0x1 PUSH1 0x1 PUSH1 0x80 SHL SUB DUP2 GT ISZERO PUSH2 0x1344 JUMPI POP PUSH1 0x1 PUSH1 0x1 PUSH1 0x80 SHL SUB JUMPDEST DUP1 PUSH1 0x9B SLOAD PUSH1 0x9C SLOAD PUSH2 0x1355 SWAP2 SWAP1 PUSH2 0x53FE JUMP JUMPDEST PUSH2 0x135F SWAP2 SWAP1 PUSH2 0x52C3 JUMP JUMPDEST PUSH1 0x9C SSTORE PUSH2 0x1375 PUSH1 0x1 PUSH1 0x1 PUSH1 0x80 SHL SUB PUSH1 0x0 NOT PUSH2 0x52C3 JUMP JUMPDEST PUSH1 0x9C SLOAD GT ISZERO PUSH2 0x1395 JUMPI PUSH2 0x1391 PUSH1 0x1 PUSH1 0x1 PUSH1 0x80 SHL SUB PUSH1 0x0 NOT PUSH2 0x52C3 JUMP JUMPDEST PUSH1 0x9C SSTORE JUMPDEST PUSH1 0x9B DUP2 SWAP1 SSTORE TIMESTAMP PUSH1 0x9D SSTORE PUSH1 0xA4 SLOAD PUSH1 0x40 DUP1 MLOAD PUSH4 0xC12C2A5 PUSH1 0xE3 SHL DUP2 MSTORE SWAP1 MLOAD PUSH1 0x1 PUSH1 0x1 PUSH1 0xA0 SHL SUB SWAP1 SWAP3 AND SWAP2 PUSH4 0x60961528 SWAP2 PUSH1 0x4 DUP1 DUP3 ADD SWAP3 PUSH1 0x20 SWAP3 SWAP1 SWAP2 SWAP1 DUP3 SWAP1 SUB ADD DUP2 DUP7 DUP1 EXTCODESIZE ISZERO DUP1 ISZERO PUSH2 0x13E3 JUMPI PUSH1 0x0 DUP1 REVERT JUMPDEST POP GAS STATICCALL ISZERO DUP1 ISZERO PUSH2 0x13F7 JUMPI RETURNDATASIZE PUSH1 0x0 DUP1 RETURNDATACOPY RETURNDATASIZE PUSH1 0x0 REVERT JUMPDEST POP POP POP POP PUSH1 0x40 MLOAD RETURNDATASIZE PUSH1 0x1F NOT PUSH1 0x1F DUP3 ADD AND DUP3 ADD DUP1 PUSH1 0x40 MSTORE POP DUP2 ADD SWAP1 PUSH2 0x141B SWAP2 SWAP1 PUSH2 0x4B3C JUMP JUMPDEST PUSH1 0xA6 SLOAD PUSH1 0x40 MLOAD PUSH4 0x41976E09 PUSH1 0xE0 SHL DUP2 MSTORE PUSH1 0x1 PUSH1 0x1 PUSH1 0xA0 SHL SUB SWAP2 DUP3 AND PUSH1 0x4 DUP3 ADD MSTORE SWAP2 AND SWAP1 PUSH4 0x41976E09 SWAP1 PUSH1 0x24 ADD PUSH1 0x40 DUP1 MLOAD DUP1 DUP4 SUB DUP2 DUP7 DUP1 EXTCODESIZE ISZERO DUP1 ISZERO PUSH2 0x145E JUMPI PUSH1 0x0 DUP1 REVERT JUMPDEST POP GAS STATICCALL ISZERO DUP1 ISZERO PUSH2 0x1472 JUMPI RETURNDATASIZE PUSH1 0x0 DUP1 RETURNDATACOPY RETURNDATASIZE PUSH1 0x0 REVERT JUMPDEST POP POP POP POP PUSH1 0x40 MLOAD RETURNDATASIZE PUSH1 0x1F NOT PUSH1 0x1F DUP3 ADD AND DUP3 ADD DUP1 PUSH1 0x40 MSTORE POP DUP2 ADD SWAP1 PUSH2 0x1496 SWAP2 SWAP1 PUSH2 0x4E27 JUMP JUMPDEST POP PUSH1 0x9E DUP2 SWAP1 SSTORE PUSH1 0x9D SLOAD PUSH1 0x40 DUP1 MLOAD SWAP2 DUP3 MSTORE PUSH1 0x20 DUP3 ADD SWAP3 SWAP1 SWAP3 MSTORE SWAP1 DUP2 ADD DUP3 SWAP1 MSTORE DUP5 SWAP1 PUSH32 0xA9219328B62D2057317E0A7D7634032C7CACA3F5B8230D51B25E957EFC67DBF4 SWAP1 PUSH1 0x60 ADD PUSH1 0x40 MLOAD DUP1 SWAP2 SUB SWAP1 LOG2 SWAP4 SWAP3 POP POP POP JUMP JUMPDEST PUSH1 0x0 DUP2 PUSH1 0x1 PUSH1 0x1 PUSH1 0xA0 SHL SUB DUP2 AND PUSH2 0x1513 JUMPI PUSH1 0x40 MLOAD PUSH3 0x461BCD PUSH1 0xE5 SHL DUP2 MSTORE PUSH1 0x4 ADD PUSH2 0x760 SWAP1 PUSH2 0x50BF JUMP JUMPDEST PUSH20 0xEB31973E0FEBF3E3D7058234A5EBBAE1AB4B8C23 PUSH1 0x1 PUSH1 0x1 PUSH1 0xA0 SHL SUB DUP3 AND EQ ISZERO PUSH2 0x1550 JUMPI PUSH1 0x40 MLOAD PUSH3 0x461BCD PUSH1 0xE5 SHL DUP2 MSTORE PUSH1 0x4 ADD PUSH2 0x760 SWAP1 PUSH2 0x5142 JUMP JUMPDEST PUSH1 0x1 PUSH1 0x1 PUSH1 0xA0 SHL SUB DUP5 AND PUSH1 0x0 SWAP1 DUP2 MSTORE PUSH1 0xA1 PUSH1 0x20 MSTORE PUSH1 0x40 DUP2 KECCAK256 SLOAD PUSH1 0x9C SLOAD SWAP1 SWAP2 SWAP1 PUSH2 0x1579 SWAP1 DUP4 PUSH2 0x52C3 JUMP JUMPDEST PUSH1 0x1 PUSH1 0x1 PUSH1 0xA0 SHL SUB DUP8 AND PUSH1 0x0 SWAP1 DUP2 MSTORE PUSH1 0xA2 PUSH1 0x20 SWAP1 DUP2 MSTORE PUSH1 0x40 DUP1 DUP4 KECCAK256 CALLER DUP5 MSTORE SWAP1 SWAP2 MSTORE SWAP1 KECCAK256 SLOAD SWAP1 SWAP2 POP PUSH1 0x0 NOT EQ PUSH2 0x15FC JUMPI PUSH1 0x1 PUSH1 0x1 PUSH1 0xA0 SHL SUB DUP7 AND PUSH1 0x0 SWAP1 DUP2 MSTORE PUSH1 0xA2 PUSH1 0x20 SWAP1 DUP2 MSTORE PUSH1 0x40 DUP1 DUP4 KECCAK256 CALLER DUP5 MSTORE SWAP1 SWAP2 MSTORE SWAP1 KECCAK256 SLOAD PUSH2 0x15D7 SWAP1 DUP3 SWAP1 PUSH2 0x541D JUMP JUMPDEST PUSH1 0x1 PUSH1 0x1 PUSH1 0xA0 SHL SUB DUP8 AND PUSH1 0x0 SWAP1 DUP2 MSTORE PUSH1 0xA2 PUSH1 0x20 SWAP1 DUP2 MSTORE PUSH1 0x40 DUP1 DUP4 KECCAK256 CALLER DUP5 MSTORE SWAP1 SWAP2 MSTORE SWAP1 KECCAK256 SSTORE JUMPDEST PUSH1 0x1 PUSH1 0x1 PUSH1 0xA0 SHL SUB DUP1 DUP8 AND PUSH1 0x0 SWAP1 DUP2 MSTORE PUSH1 0xA1 PUSH1 0x20 MSTORE PUSH1 0x40 DUP1 DUP3 KECCAK256 DUP3 SWAP1 SSTORE SWAP2 DUP8 AND DUP2 MSTORE KECCAK256 SLOAD PUSH2 0x162B SWAP1 DUP4 SWAP1 PUSH2 0x52AB JUMP JUMPDEST PUSH1 0x1 PUSH1 0x1 PUSH1 0xA0 SHL SUB DUP1 DUP8 AND PUSH1 0x0 DUP2 DUP2 MSTORE PUSH1 0xA1 PUSH1 0x20 MSTORE PUSH1 0x40 SWAP1 DUP2 SWAP1 KECCAK256 SWAP4 SWAP1 SWAP4 SSTORE SWAP2 MLOAD SWAP1 DUP9 AND SWAP1 PUSH1 0x0 DUP1 MLOAD PUSH1 0x20 PUSH2 0x5556 DUP4 CODECOPY DUP2 MLOAD SWAP2 MSTORE SWAP1 PUSH2 0x98C SWAP1 DUP6 DUP2 MSTORE PUSH1 0x20 ADD SWAP1 JUMP JUMPDEST PUSH1 0x0 SLOAD PUSH2 0x100 SWAP1 DIV PUSH1 0xFF AND DUP1 PUSH2 0x1682 JUMPI POP ADDRESS EXTCODESIZE ISZERO JUMPDEST DUP1 PUSH2 0x1690 JUMPI POP PUSH1 0x0 SLOAD PUSH1 0xFF AND ISZERO JUMPDEST PUSH2 0x16AC JUMPI PUSH1 0x40 MLOAD PUSH3 0x461BCD PUSH1 0xE5 SHL DUP2 MSTORE PUSH1 0x4 ADD PUSH2 0x760 SWAP1 PUSH2 0x51C0 JUMP JUMPDEST PUSH1 0x0 DUP1 SLOAD PUSH2 0xFFFF NOT DUP2 AND PUSH2 0x101 OR DUP3 SSTORE PUSH2 0x100 SWAP1 DIV PUSH1 0xFF AND SWAP1 PUSH1 0x60 SWAP1 DUP2 SWAP1 DUP5 PUSH1 0x1 DUP2 GT ISZERO PUSH2 0x16EA JUMPI PUSH4 0x4E487B71 PUSH1 0xE0 SHL PUSH1 0x0 MSTORE PUSH1 0x21 PUSH1 0x4 MSTORE PUSH1 0x24 PUSH1 0x0 REVERT JUMPDEST EQ ISZERO PUSH2 0x1947 JUMPI PUSH2 0x16FC DUP6 PUSH1 0xFF AND PUSH2 0x32DD JUMP JUMPDEST PUSH1 0x40 MLOAD PUSH4 0x15AF319 PUSH1 0xE3 SHL DUP2 MSTORE PUSH1 0x1 PUSH1 0x1 PUSH1 0xA0 SHL SUB DUP9 DUP2 AND PUSH1 0x4 DUP4 ADD MSTORE DUP11 AND SWAP1 PUSH4 0xAD798C8 SWAP1 PUSH1 0x24 ADD PUSH1 0x0 PUSH1 0x40 MLOAD DUP1 DUP4 SUB DUP2 DUP7 DUP1 EXTCODESIZE ISZERO DUP1 ISZERO PUSH2 0x173D JUMPI PUSH1 0x0 DUP1 REVERT JUMPDEST POP GAS STATICCALL ISZERO DUP1 ISZERO PUSH2 0x1751 JUMPI RETURNDATASIZE PUSH1 0x0 DUP1 RETURNDATACOPY RETURNDATASIZE PUSH1 0x0 REVERT JUMPDEST POP POP POP POP PUSH1 0x40 MLOAD RETURNDATASIZE PUSH1 0x0 DUP3 RETURNDATACOPY PUSH1 0x1F RETURNDATASIZE SWAP1 DUP2 ADD PUSH1 0x1F NOT AND DUP3 ADD PUSH1 0x40 MSTORE PUSH2 0x1779 SWAP2 SWAP1 DUP2 ADD SWAP1 PUSH2 0x4D27 JUMP JUMPDEST PUSH1 0x40 MLOAD PUSH4 0xB8B705D3 PUSH1 0xE0 SHL DUP2 MSTORE PUSH1 0x1 PUSH1 0x1 PUSH1 0xA0 SHL SUB DUP11 DUP2 AND PUSH1 0x4 DUP4 ADD MSTORE DUP12 AND SWAP1 PUSH4 0xB8B705D3 SWAP1 PUSH1 0x24 ADD PUSH1 0x0 PUSH1 0x40 MLOAD DUP1 DUP4 SUB DUP2 DUP7 DUP1 EXTCODESIZE ISZERO DUP1 ISZERO PUSH2 0x17BA JUMPI PUSH1 0x0 DUP1 REVERT JUMPDEST POP GAS STATICCALL ISZERO DUP1 ISZERO PUSH2 0x17CE JUMPI RETURNDATASIZE PUSH1 0x0 DUP1 RETURNDATACOPY RETURNDATASIZE PUSH1 0x0 REVERT JUMPDEST POP POP POP POP PUSH1 0x40 MLOAD RETURNDATASIZE PUSH1 0x0 DUP3 RETURNDATACOPY PUSH1 0x1F RETURNDATASIZE SWAP1 DUP2 ADD PUSH1 0x1F NOT AND DUP3 ADD PUSH1 0x40 MSTORE PUSH2 0x17F6 SWAP2 SWAP1 DUP2 ADD SWAP1 PUSH2 0x4D27 JUMP JUMPDEST PUSH1 0x40 MLOAD PUSH1 0x20 ADD PUSH2 0x1808 SWAP4 SWAP3 SWAP2 SWAP1 PUSH2 0x4F3E JUMP JUMPDEST PUSH1 0x40 MLOAD PUSH1 0x20 DUP2 DUP4 SUB SUB DUP2 MSTORE SWAP1 PUSH1 0x40 MSTORE SWAP2 POP PUSH2 0x1825 DUP6 PUSH1 0xFF AND PUSH2 0x32DD JUMP JUMPDEST PUSH1 0x40 MLOAD PUSH4 0x15AF319 PUSH1 0xE3 SHL DUP2 MSTORE PUSH1 0x1 PUSH1 0x1 PUSH1 0xA0 SHL SUB DUP9 DUP2 AND PUSH1 0x4 DUP4 ADD MSTORE DUP11 AND SWAP1 PUSH4 0xAD798C8 SWAP1 PUSH1 0x24 ADD PUSH1 0x0 PUSH1 0x40 MLOAD DUP1 DUP4 SUB DUP2 DUP7 DUP1 EXTCODESIZE ISZERO DUP1 ISZERO PUSH2 0x1866 JUMPI PUSH1 0x0 DUP1 REVERT JUMPDEST POP GAS STATICCALL ISZERO DUP1 ISZERO PUSH2 0x187A JUMPI RETURNDATASIZE PUSH1 0x0 DUP1 RETURNDATACOPY RETURNDATASIZE PUSH1 0x0 REVERT JUMPDEST POP POP POP POP PUSH1 0x40 MLOAD RETURNDATASIZE PUSH1 0x0 DUP3 RETURNDATACOPY PUSH1 0x1F RETURNDATASIZE SWAP1 DUP2 ADD PUSH1 0x1F NOT AND DUP3 ADD PUSH1 0x40 MSTORE PUSH2 0x18A2 SWAP2 SWAP1 DUP2 ADD SWAP1 PUSH2 0x4D27 JUMP JUMPDEST PUSH1 0x40 MLOAD PUSH4 0xB8B705D3 PUSH1 0xE0 SHL DUP2 MSTORE PUSH1 0x1 PUSH1 0x1 PUSH1 0xA0 SHL SUB DUP11 DUP2 AND PUSH1 0x4 DUP4 ADD MSTORE DUP12 AND SWAP1 PUSH4 0xB8B705D3 SWAP1 PUSH1 0x24 ADD PUSH1 0x0 PUSH1 0x40 MLOAD DUP1 DUP4 SUB DUP2 DUP7 DUP1 EXTCODESIZE ISZERO DUP1 ISZERO PUSH2 0x18E3 JUMPI PUSH1 0x0 DUP1 REVERT JUMPDEST POP GAS STATICCALL ISZERO DUP1 ISZERO PUSH2 0x18F7 JUMPI RETURNDATASIZE PUSH1 0x0 DUP1 RETURNDATACOPY RETURNDATASIZE PUSH1 0x0 REVERT JUMPDEST POP POP POP POP PUSH1 0x40 MLOAD RETURNDATASIZE PUSH1 0x0 DUP3 RETURNDATACOPY PUSH1 0x1F RETURNDATASIZE SWAP1 DUP2 ADD PUSH1 0x1F NOT AND DUP3 ADD PUSH1 0x40 MSTORE PUSH2 0x191F SWAP2 SWAP1 DUP2 ADD SWAP1 PUSH2 0x4D27 JUMP JUMPDEST PUSH1 0x40 MLOAD PUSH1 0x20 ADD PUSH2 0x1931 SWAP4 SWAP3 SWAP2 SWAP1 PUSH2 0x4FC2 JUMP JUMPDEST PUSH1 0x40 MLOAD PUSH1 0x20 DUP2 DUP4 SUB SUB DUP2 MSTORE SWAP1 PUSH1 0x40 MSTORE SWAP1 POP PUSH2 0x1BEB JUMP JUMPDEST PUSH1 0x1 DUP5 PUSH1 0x1 DUP2 GT ISZERO PUSH2 0x1969 JUMPI PUSH4 0x4E487B71 PUSH1 0xE0 SHL PUSH1 0x0 MSTORE PUSH1 0x21 PUSH1 0x4 MSTORE PUSH1 0x24 PUSH1 0x0 REVERT JUMPDEST EQ ISZERO PUSH2 0x1BB0 JUMPI PUSH2 0x197B DUP6 PUSH1 0xFF AND PUSH2 0x32DD JUMP JUMPDEST PUSH1 0x40 MLOAD PUSH4 0x15AF319 PUSH1 0xE3 SHL DUP2 MSTORE PUSH1 0x1 PUSH1 0x1 PUSH1 0xA0 SHL SUB DUP9 DUP2 AND PUSH1 0x4 DUP4 ADD MSTORE DUP11 AND SWAP1 PUSH4 0xAD798C8 SWAP1 PUSH1 0x24 ADD PUSH1 0x0 PUSH1 0x40 MLOAD DUP1 DUP4 SUB DUP2 DUP7 DUP1 EXTCODESIZE ISZERO DUP1 ISZERO PUSH2 0x19BC JUMPI PUSH1 0x0 DUP1 REVERT JUMPDEST POP GAS STATICCALL ISZERO DUP1 ISZERO PUSH2 0x19D0 JUMPI RETURNDATASIZE PUSH1 0x0 DUP1 RETURNDATACOPY RETURNDATASIZE PUSH1 0x0 REVERT JUMPDEST POP POP POP POP PUSH1 0x40 MLOAD RETURNDATASIZE PUSH1 0x0 DUP3 RETURNDATACOPY PUSH1 0x1F RETURNDATASIZE SWAP1 DUP2 ADD PUSH1 0x1F NOT AND DUP3 ADD PUSH1 0x40 MSTORE PUSH2 0x19F8 SWAP2 SWAP1 DUP2 ADD SWAP1 PUSH2 0x4D27 JUMP JUMPDEST PUSH1 0x40 MLOAD PUSH4 0xB8B705D3 PUSH1 0xE0 SHL DUP2 MSTORE PUSH1 0x1 PUSH1 0x1 PUSH1 0xA0 SHL SUB DUP11 DUP2 AND PUSH1 0x4 DUP4 ADD MSTORE DUP12 AND SWAP1 PUSH4 0xB8B705D3 SWAP1 PUSH1 0x24 ADD PUSH1 0x0 PUSH1 0x40 MLOAD DUP1 DUP4 SUB DUP2 DUP7 DUP1 EXTCODESIZE ISZERO DUP1 ISZERO PUSH2 0x1A39 JUMPI PUSH1 0x0 DUP1 REVERT JUMPDEST POP GAS STATICCALL ISZERO DUP1 ISZERO PUSH2 0x1A4D JUMPI RETURNDATASIZE PUSH1 0x0 DUP1 RETURNDATACOPY RETURNDATASIZE PUSH1 0x0 REVERT JUMPDEST POP POP POP POP PUSH1 0x40 MLOAD RETURNDATASIZE PUSH1 0x0 DUP3 RETURNDATACOPY PUSH1 0x1F RETURNDATASIZE SWAP1 DUP2 ADD PUSH1 0x1F NOT AND DUP3 ADD PUSH1 0x40 MSTORE PUSH2 0x1A75 SWAP2 SWAP1 DUP2 ADD SWAP1 PUSH2 0x4D27 JUMP JUMPDEST PUSH1 0x40 MLOAD PUSH1 0x20 ADD PUSH2 0x1A87 SWAP4 SWAP3 SWAP2 SWAP1 PUSH2 0x4ECB JUMP JUMPDEST PUSH1 0x40 MLOAD PUSH1 0x20 DUP2 DUP4 SUB SUB DUP2 MSTORE SWAP1 PUSH1 0x40 MSTORE SWAP2 POP PUSH2 0x1AA4 DUP6 PUSH1 0xFF AND PUSH2 0x32DD JUMP JUMPDEST PUSH1 0x40 MLOAD PUSH4 0x15AF319 PUSH1 0xE3 SHL DUP2 MSTORE PUSH1 0x1 PUSH1 0x1 PUSH1 0xA0 SHL SUB DUP9 DUP2 AND PUSH1 0x4 DUP4 ADD MSTORE DUP11 AND SWAP1 PUSH4 0xAD798C8 SWAP1 PUSH1 0x24 ADD PUSH1 0x0 PUSH1 0x40 MLOAD DUP1 DUP4 SUB DUP2 DUP7 DUP1 EXTCODESIZE ISZERO DUP1 ISZERO PUSH2 0x1AE5 JUMPI PUSH1 0x0 DUP1 REVERT JUMPDEST POP GAS STATICCALL ISZERO DUP1 ISZERO PUSH2 0x1AF9 JUMPI RETURNDATASIZE PUSH1 0x0 DUP1 RETURNDATACOPY RETURNDATASIZE PUSH1 0x0 REVERT JUMPDEST POP POP POP POP PUSH1 0x40 MLOAD RETURNDATASIZE PUSH1 0x0 DUP3 RETURNDATACOPY PUSH1 0x1F RETURNDATASIZE SWAP1 DUP2 ADD PUSH1 0x1F NOT AND DUP3 ADD PUSH1 0x40 MSTORE PUSH2 0x1B21 SWAP2 SWAP1 DUP2 ADD SWAP1 PUSH2 0x4D27 JUMP JUMPDEST PUSH1 0x40 MLOAD PUSH4 0xB8B705D3 PUSH1 0xE0 SHL DUP2 MSTORE PUSH1 0x1 PUSH1 0x1 PUSH1 0xA0 SHL SUB DUP11 DUP2 AND PUSH1 0x4 DUP4 ADD MSTORE DUP12 AND SWAP1 PUSH4 0xB8B705D3 SWAP1 PUSH1 0x24 ADD PUSH1 0x0 PUSH1 0x40 MLOAD DUP1 DUP4 SUB DUP2 DUP7 DUP1 EXTCODESIZE ISZERO DUP1 ISZERO PUSH2 0x1B62 JUMPI PUSH1 0x0 DUP1 REVERT JUMPDEST POP GAS STATICCALL ISZERO DUP1 ISZERO PUSH2 0x1B76 JUMPI RETURNDATASIZE PUSH1 0x0 DUP1 RETURNDATACOPY RETURNDATASIZE PUSH1 0x0 REVERT JUMPDEST POP POP POP POP PUSH1 0x40 MLOAD RETURNDATASIZE PUSH1 0x0 DUP3 RETURNDATACOPY PUSH1 0x1F RETURNDATASIZE SWAP1 DUP2 ADD PUSH1 0x1F NOT AND DUP3 ADD PUSH1 0x40 MSTORE PUSH2 0x1B9E SWAP2 SWAP1 DUP2 ADD SWAP1 PUSH2 0x4D27 JUMP JUMPDEST PUSH1 0x40 MLOAD PUSH1 0x20 ADD PUSH2 0x1931 SWAP4 SWAP3 SWAP2 SWAP1 PUSH2 0x4E88 JUMP JUMPDEST PUSH1 0x40 MLOAD PUSH3 0x461BCD PUSH1 0xE5 SHL DUP2 MSTORE PUSH1 0x20 PUSH1 0x4 DUP3 ADD MSTORE PUSH1 0x10 PUSH1 0x24 DUP3 ADD MSTORE PUSH16 0x434242433A2057524F4E475F54595045 PUSH1 0x80 SHL PUSH1 0x44 DUP3 ADD MSTORE PUSH1 0x64 ADD PUSH2 0x760 JUMP JUMPDEST PUSH2 0x1BF7 DUP3 DUP3 PUSH1 0x12 PUSH2 0x721 JUMP JUMPDEST PUSH2 0x1C00 CALLER PUSH2 0x210E JUMP JUMPDEST PUSH1 0xA3 DUP1 SLOAD PUSH1 0x1 PUSH1 0x1 PUSH1 0xA0 SHL SUB NOT SWAP1 DUP2 AND PUSH1 0x1 PUSH1 0x1 PUSH1 0xA0 SHL SUB DUP12 DUP2 AND SWAP2 SWAP1 SWAP2 OR SWAP1 SWAP3 SSTORE PUSH1 0xA7 DUP1 SLOAD PUSH1 0xA6 DUP1 SLOAD SWAP1 SWAP4 AND DUP11 DUP6 AND OR SWAP1 SWAP3 SSTORE SWAP2 DUP10 AND PUSH1 0x1 PUSH1 0x1 PUSH1 0xA8 SHL SUB NOT SWAP1 SWAP2 AND OR PUSH1 0x1 PUSH1 0xA0 SHL PUSH1 0xFF DUP9 AND MUL OR DUP1 DUP3 SSTORE DUP6 SWAP2 SWAP1 PUSH1 0xFF PUSH1 0xA8 SHL NOT AND PUSH1 0x1 PUSH1 0xA8 SHL DUP4 PUSH1 0x1 DUP2 GT ISZERO PUSH2 0x1C81 JUMPI PUSH4 0x4E487B71 PUSH1 0xE0 SHL PUSH1 0x0 MSTORE PUSH1 0x21 PUSH1 0x4 MSTORE PUSH1 0x24 PUSH1 0x0 REVERT JUMPDEST MUL OR SWAP1 SSTORE POP PUSH1 0xA7 SLOAD PUSH1 0xA6 SLOAD PUSH1 0x40 MLOAD PUSH4 0xB5663A99 PUSH1 0xE0 SHL DUP2 MSTORE PUSH1 0x1 PUSH1 0x1 PUSH1 0xA0 SHL SUB DUP1 DUP13 AND SWAP4 PUSH4 0xB5663A99 SWAP4 PUSH2 0x1CD8 SWAP4 DUP3 DUP5 AND SWAP4 SWAP2 SWAP1 SWAP2 AND SWAP2 PUSH1 0xFF PUSH1 0x1 PUSH1 0xA0 SHL DUP3 DIV DUP2 AND SWAP3 PUSH1 0x1 PUSH1 0xA8 SHL SWAP1 SWAP3 DIV AND SWAP1 ADDRESS SWAP1 PUSH1 0x4 ADD PUSH2 0x5015 JUMP JUMPDEST PUSH1 0x0 PUSH1 0x40 MLOAD DUP1 DUP4 SUB DUP2 PUSH1 0x0 DUP8 DUP1 EXTCODESIZE ISZERO DUP1 ISZERO PUSH2 0x1CF2 JUMPI PUSH1 0x0 DUP1 REVERT JUMPDEST POP GAS CALL ISZERO DUP1 ISZERO PUSH2 0x1D06 JUMPI RETURNDATASIZE PUSH1 0x0 DUP1 RETURNDATACOPY RETURNDATASIZE PUSH1 0x0 REVERT JUMPDEST POP POP PUSH1 0xA6 SLOAD PUSH1 0xA7 SLOAD PUSH1 0x40 MLOAD PUSH1 0x1 PUSH1 0x1 PUSH1 0xA0 SHL SUB SWAP3 DUP4 AND SWAP5 POP SWAP2 DUP2 AND SWAP3 POP PUSH32 0xCA8075CEFDC80BB9531729CB4DFB80AAA9CB4932AF090E52CFBDDD81C187AD8E SWAP2 PUSH2 0x1D65 SWAP2 ADDRESS SWAP2 PUSH1 0xFF PUSH1 0x1 PUSH1 0xA0 SHL DUP4 DIV DUP2 AND SWAP3 PUSH1 0x1 PUSH1 0xA8 SHL SWAP1 DIV AND SWAP1 PUSH2 0x5058 JUMP JUMPDEST PUSH1 0x40 MLOAD DUP1 SWAP2 SUB SWAP1 LOG3 POP POP PUSH1 0xA7 DUP1 SLOAD PUSH2 0xFFFF PUSH1 0xB0 SHL NOT AND SWAP1 SSTORE PUSH1 0x0 DUP1 SLOAD SWAP2 ISZERO ISZERO PUSH2 0x100 MUL PUSH2 0xFF00 NOT SWAP1 SWAP3 AND SWAP2 SWAP1 SWAP2 OR SWAP1 SSTORE POP POP POP POP POP JUMP JUMPDEST PUSH1 0x60 PUSH1 0x34 DUP1 SLOAD PUSH2 0x643 SWAP1 PUSH2 0x5464 JUMP JUMPDEST PUSH1 0x0 DUP2 PUSH1 0x1 PUSH1 0x1 PUSH1 0xA0 SHL SUB DUP2 AND PUSH2 0x1DD4 JUMPI PUSH1 0x40 MLOAD PUSH3 0x461BCD PUSH1 0xE5 SHL DUP2 MSTORE PUSH1 0x4 ADD PUSH2 0x760 SWAP1 PUSH2 0x50BF JUMP JUMPDEST PUSH20 0xEB31973E0FEBF3E3D7058234A5EBBAE1AB4B8C23 PUSH1 0x1 PUSH1 0x1 PUSH1 0xA0 SHL SUB DUP3 AND EQ ISZERO PUSH2 0x1E11 JUMPI PUSH1 0x40 MLOAD PUSH3 0x461BCD PUSH1 0xE5 SHL DUP2 MSTORE PUSH1 0x4 ADD PUSH2 0x760 SWAP1 PUSH2 0x5142 JUMP JUMPDEST CALLER PUSH1 0x0 SWAP1 DUP2 MSTORE PUSH1 0xA1 PUSH1 0x20 MSTORE PUSH1 0x40 DUP2 KECCAK256 SLOAD PUSH1 0x9C SLOAD SWAP1 SWAP2 SWAP1 PUSH2 0x1E31 SWAP1 DUP4 PUSH2 0x52C3 JUMP JUMPDEST CALLER PUSH1 0x0 SWAP1 DUP2 MSTORE PUSH1 0xA1 PUSH1 0x20 MSTORE PUSH1 0x40 DUP1 DUP3 KECCAK256 DUP3 SWAP1 SSTORE PUSH1 0x1 PUSH1 0x1 PUSH1 0xA0 SHL SUB DUP9 AND DUP3 MSTORE SWAP1 KECCAK256 SLOAD SWAP1 SWAP2 POP PUSH2 0x1E61 SWAP1 DUP4 SWAP1 PUSH2 0x52AB JUMP JUMPDEST PUSH1 0x1 PUSH1 0x1 PUSH1 0xA0 SHL SUB DUP7 AND PUSH1 0x0 DUP2 DUP2 MSTORE PUSH1 0xA1 PUSH1 0x20 MSTORE PUSH1 0x40 SWAP1 DUP2 SWAP1 KECCAK256 SWAP3 SWAP1 SWAP3 SSTORE SWAP1 MLOAD CALLER SWAP1 PUSH1 0x0 DUP1 MLOAD PUSH1 0x20 PUSH2 0x5556 DUP4 CODECOPY DUP2 MLOAD SWAP2 MSTORE SWAP1 PUSH2 0x1EA0 SWAP1 DUP6 DUP2 MSTORE PUSH1 0x20 ADD SWAP1 JUMP JUMPDEST PUSH1 0x40 MLOAD DUP1 SWAP2 SUB SWAP1 LOG3 PUSH1 0x1 SWAP4 POP POP POP JUMPDEST POP SWAP2 SWAP1 POP JUMP JUMPDEST CALLER PUSH1 0x0 SWAP1 DUP2 MSTORE PUSH1 0xA2 PUSH1 0x20 SWAP1 DUP2 MSTORE PUSH1 0x40 DUP1 DUP4 KECCAK256 PUSH1 0x1 PUSH1 0x1 PUSH1 0xA0 SHL SUB DUP7 AND DUP5 MSTORE SWAP1 SWAP2 MSTORE DUP2 KECCAK256 SLOAD PUSH1 0x0 NOT DUP2 EQ PUSH2 0x1F21 JUMPI DUP1 DUP4 LT ISZERO PUSH2 0x1EF9 JUMPI PUSH2 0x1EF4 DUP4 DUP3 PUSH2 0x541D JUMP JUMPDEST PUSH2 0x1EFC JUMP JUMPDEST PUSH1 0x0 JUMPDEST CALLER PUSH1 0x0 SWAP1 DUP2 MSTORE PUSH1 0xA2 PUSH1 0x20 SWAP1 DUP2 MSTORE PUSH1 0x40 DUP1 DUP4 KECCAK256 PUSH1 0x1 PUSH1 0x1 PUSH1 0xA0 SHL SUB DUP10 AND DUP5 MSTORE SWAP1 SWAP2 MSTORE SWAP1 KECCAK256 SSTORE JUMPDEST CALLER PUSH1 0x0 DUP2 DUP2 MSTORE PUSH1 0xA2 PUSH1 0x20 SWAP1 DUP2 MSTORE PUSH1 0x40 DUP1 DUP4 KECCAK256 PUSH1 0x1 PUSH1 0x1 PUSH1 0xA0 SHL SUB DUP10 AND DUP1 DUP6 MSTORE SWAP1 DUP4 MSTORE SWAP3 DUP2 SWAP1 KECCAK256 SLOAD SWAP1 MLOAD SWAP1 DUP2 MSTORE SWAP2 SWAP3 SWAP2 PUSH1 0x0 DUP1 MLOAD PUSH1 0x20 PUSH2 0x5576 DUP4 CODECOPY DUP2 MLOAD SWAP2 MSTORE SWAP2 ADD PUSH1 0x40 MLOAD DUP1 SWAP2 SUB SWAP1 LOG3 POP PUSH1 0x1 SWAP4 SWAP3 POP POP POP JUMP JUMPDEST PUSH1 0x0 DUP3 PUSH1 0x1 PUSH1 0x1 PUSH1 0xA0 SHL SUB DUP2 AND PUSH2 0x1F9C JUMPI PUSH1 0x40 MLOAD PUSH3 0x461BCD PUSH1 0xE5 SHL DUP2 MSTORE PUSH1 0x4 ADD PUSH2 0x760 SWAP1 PUSH2 0x50BF JUMP JUMPDEST PUSH20 0xEB31973E0FEBF3E3D7058234A5EBBAE1AB4B8C23 PUSH1 0x1 PUSH1 0x1 PUSH1 0xA0 SHL SUB DUP3 AND EQ ISZERO PUSH2 0x1FD9 JUMPI PUSH1 0x40 MLOAD PUSH3 0x461BCD PUSH1 0xE5 SHL DUP2 MSTORE PUSH1 0x4 ADD PUSH2 0x760 SWAP1 PUSH2 0x5142 JUMP JUMPDEST PUSH1 0x0 PUSH1 0x9C SLOAD DUP5 PUSH2 0x1FE9 SWAP2 SWAP1 PUSH2 0x53FE JUMP JUMPDEST CALLER PUSH1 0x0 SWAP1 DUP2 MSTORE PUSH1 0xA1 PUSH1 0x20 MSTORE PUSH1 0x40 SWAP1 KECCAK256 SLOAD SWAP1 SWAP2 POP PUSH2 0x2007 SWAP1 DUP3 SWAP1 PUSH2 0x541D JUMP JUMPDEST CALLER PUSH1 0x0 SWAP1 DUP2 MSTORE PUSH1 0xA1 PUSH1 0x20 MSTORE PUSH1 0x40 DUP1 DUP3 KECCAK256 SWAP3 SWAP1 SWAP3 SSTORE PUSH1 0x1 PUSH1 0x1 PUSH1 0xA0 SHL SUB DUP8 AND DUP2 MSTORE KECCAK256 SLOAD PUSH2 0x2034 SWAP1 DUP3 SWAP1 PUSH2 0x52AB JUMP JUMPDEST PUSH1 0x1 PUSH1 0x1 PUSH1 0xA0 SHL SUB DUP7 AND PUSH1 0x0 DUP2 DUP2 MSTORE PUSH1 0xA1 PUSH1 0x20 MSTORE PUSH1 0x40 SWAP1 DUP2 SWAP1 KECCAK256 SWAP3 SWAP1 SWAP3 SSTORE SWAP1 MLOAD CALLER SWAP1 PUSH1 0x0 DUP1 MLOAD PUSH1 0x20 PUSH2 0x5556 DUP4 CODECOPY DUP2 MLOAD SWAP2 MSTORE SWAP1 PUSH2 0x2073 SWAP1 DUP9 DUP2 MSTORE PUSH1 0x20 ADD SWAP1 JUMP JUMPDEST PUSH1 0x40 MLOAD DUP1 SWAP2 SUB SWAP1 LOG3 POP PUSH1 0x1 SWAP5 SWAP4 POP POP POP POP JUMP JUMPDEST PUSH1 0x0 PUSH1 0x9C SLOAD PUSH1 0x9B SLOAD PUSH2 0x2098 SWAP2 SWAP1 PUSH2 0x53FE JUMP JUMPDEST SWAP1 POP SWAP1 JUMP JUMPDEST PUSH2 0x20B1 PUSH1 0x68 SLOAD PUSH1 0x1 PUSH1 0x1 PUSH1 0xA0 SHL SUB AND CALLER EQ SWAP1 JUMP JUMPDEST PUSH2 0x20BA JUMPI PUSH1 0x0 DUP1 REVERT JUMPDEST PUSH1 0xA5 DUP1 SLOAD PUSH1 0x1 PUSH1 0x1 PUSH1 0xA0 SHL SUB NOT AND PUSH1 0x1 PUSH1 0x1 PUSH1 0xA0 SHL SUB DUP4 AND SWAP1 DUP2 OR SWAP1 SWAP2 SSTORE PUSH1 0x40 MLOAD SWAP1 DUP2 MSTORE PUSH31 0x4A100C1311E1C30D22C9EE16306A164BE79DB67AEDEF8B90FFC4D244CD003A SWAP1 PUSH1 0x20 ADD JUMPDEST PUSH1 0x40 MLOAD DUP1 SWAP2 SUB SWAP1 LOG1 POP JUMP JUMPDEST PUSH1 0x0 SLOAD PUSH2 0x100 SWAP1 DIV PUSH1 0xFF AND DUP1 PUSH2 0x2123 JUMPI POP ADDRESS EXTCODESIZE ISZERO JUMPDEST DUP1 PUSH2 0x2131 JUMPI POP PUSH1 0x0 SLOAD PUSH1 0xFF AND ISZERO JUMPDEST PUSH2 0x214D JUMPI PUSH1 0x40 MLOAD PUSH3 0x461BCD PUSH1 0xE5 SHL DUP2 MSTORE PUSH1 0x4 ADD PUSH2 0x760 SWAP1 PUSH2 0x51C0 JUMP JUMPDEST PUSH1 0x0 DUP1 SLOAD PUSH1 0x68 DUP1 SLOAD PUSH1 0x1 PUSH1 0x1 PUSH1 0xA0 SHL SUB NOT AND PUSH1 0x1 PUSH1 0x1 PUSH1 0xA0 SHL SUB SWAP5 SWAP1 SWAP5 AND SWAP4 SWAP1 SWAP4 OR SWAP1 SWAP3 SSTORE PUSH2 0xFFFF NOT DUP3 AND PUSH2 0x100 SWAP3 DUP4 SWAP1 DIV PUSH1 0xFF AND ISZERO ISZERO SWAP1 SWAP3 MUL SWAP2 SWAP1 SWAP2 OR PUSH1 0x1 OR SWAP1 SSTORE JUMP JUMPDEST DUP4 TIMESTAMP GT ISZERO PUSH2 0x21E2 JUMPI PUSH1 0x40 MLOAD PUSH3 0x461BCD PUSH1 0xE5 SHL DUP2 MSTORE PUSH1 0x20 PUSH1 0x4 DUP3 ADD MSTORE PUSH1 0x1C PUSH1 0x24 DUP3 ADD MSTORE PUSH32 0x506567676564636F696E3A3A7065726D69743A20455850495245442100000000 PUSH1 0x44 DUP3 ADD MSTORE PUSH1 0x64 ADD PUSH2 0x760 JUMP JUMPDEST PUSH1 0x1 PUSH1 0x1 PUSH1 0xA0 SHL SUB DUP8 DUP2 AND PUSH1 0x0 DUP2 DUP2 MSTORE PUSH1 0xA0 PUSH1 0x20 DUP2 DUP2 MSTORE PUSH1 0x40 DUP1 DUP5 KECCAK256 SLOAD DUP2 MLOAD PUSH32 0x6E71EDAE12B1B97F4D1F60370FEF10105FA2FAAE0126114A169C64845D6126C9 SWAP4 DUP2 ADD SWAP4 SWAP1 SWAP4 MSTORE SWAP1 DUP3 ADD SWAP5 SWAP1 SWAP5 MSTORE SWAP4 DUP11 AND PUSH1 0x60 DUP6 ADD MSTORE PUSH1 0x80 DUP5 ADD DUP10 SWAP1 MSTORE DUP4 ADD DUP3 SWAP1 MSTORE PUSH1 0xC0 DUP4 ADD DUP8 SWAP1 MSTORE SWAP1 SWAP2 PUSH1 0xE0 ADD PUSH1 0x40 MLOAD PUSH1 0x20 DUP2 DUP4 SUB SUB DUP2 MSTORE SWAP1 PUSH1 0x40 MSTORE DUP1 MLOAD SWAP1 PUSH1 0x20 ADD KECCAK256 SWAP1 POP PUSH1 0x0 PUSH2 0x2272 PUSH2 0x9A0 JUMP JUMPDEST PUSH1 0x40 MLOAD PUSH2 0x1901 PUSH1 0xF0 SHL PUSH1 0x20 DUP3 ADD MSTORE PUSH1 0x22 DUP2 ADD SWAP2 SWAP1 SWAP2 MSTORE PUSH1 0x42 DUP2 ADD DUP4 SWAP1 MSTORE PUSH1 0x62 ADD PUSH1 0x40 DUP1 MLOAD PUSH1 0x1F NOT DUP2 DUP5 SUB ADD DUP2 MSTORE DUP3 DUP3 MSTORE DUP1 MLOAD PUSH1 0x20 SWAP2 DUP3 ADD KECCAK256 PUSH1 0x0 DUP5 MSTORE SWAP1 DUP4 ADD DUP1 DUP4 MSTORE DUP2 SWAP1 MSTORE PUSH1 0xFF DUP10 AND SWAP2 DUP4 ADD SWAP2 SWAP1 SWAP2 MSTORE PUSH1 0x60 DUP3 ADD DUP8 SWAP1 MSTORE PUSH1 0x80 DUP3 ADD DUP7 SWAP1 MSTORE SWAP2 POP PUSH1 0x1 SWAP1 PUSH1 0xA0 ADD PUSH1 0x20 PUSH1 0x40 MLOAD PUSH1 0x20 DUP2 SUB SWAP1 DUP1 DUP5 SUB SWAP1 DUP6 GAS STATICCALL ISZERO DUP1 ISZERO PUSH2 0x22FA JUMPI RETURNDATASIZE PUSH1 0x0 DUP1 RETURNDATACOPY RETURNDATASIZE PUSH1 0x0 REVERT JUMPDEST POP POP POP PUSH1 0x20 PUSH1 0x40 MLOAD SUB MLOAD PUSH1 0x1 PUSH1 0x1 PUSH1 0xA0 SHL SUB AND DUP11 PUSH1 0x1 PUSH1 0x1 PUSH1 0xA0 SHL SUB AND EQ PUSH2 0x2321 JUMPI PUSH1 0x0 DUP1 REVERT JUMPDEST PUSH2 0x232C DUP4 PUSH1 0x1 PUSH2 0x52AB JUMP JUMPDEST PUSH1 0x1 PUSH1 0x1 PUSH1 0xA0 SHL SUB DUP12 DUP2 AND PUSH1 0x0 DUP2 DUP2 MSTORE PUSH1 0xA0 PUSH1 0x20 SWAP1 DUP2 MSTORE PUSH1 0x40 DUP1 DUP4 KECCAK256 SWAP6 SWAP1 SWAP6 SSTORE PUSH1 0xA2 DUP2 MSTORE DUP5 DUP3 KECCAK256 SWAP4 DUP15 AND DUP1 DUP4 MSTORE SWAP4 DUP2 MSTORE SWAP1 DUP5 SWAP1 KECCAK256 DUP13 SWAP1 SSTORE SWAP3 MLOAD DUP12 DUP2 MSTORE SWAP2 SWAP3 SWAP1 SWAP2 PUSH1 0x0 DUP1 MLOAD PUSH1 0x20 PUSH2 0x5576 DUP4 CODECOPY DUP2 MLOAD SWAP2 MSTORE SWAP2 ADD PUSH1 0x40 MLOAD DUP1 SWAP2 SUB SWAP1 LOG3 POP POP POP POP POP POP POP POP POP POP JUMP JUMPDEST PUSH2 0x23A5 PUSH1 0x68 SLOAD PUSH1 0x1 PUSH1 0x1 PUSH1 0xA0 SHL SUB AND CALLER EQ SWAP1 JUMP JUMPDEST PUSH2 0x23AE JUMPI PUSH1 0x0 DUP1 REVERT JUMPDEST PUSH1 0x9F DUP2 SWAP1 SSTORE PUSH1 0x40 MLOAD DUP2 DUP2 MSTORE PUSH32 0x72263207FB67FF82292D08DCD9E132BFD605A952099610B513982C70B38616E3 SWAP1 PUSH1 0x20 ADD PUSH2 0x2103 JUMP JUMPDEST PUSH2 0x23F7 PUSH1 0x68 SLOAD PUSH1 0x1 PUSH1 0x1 PUSH1 0xA0 SHL SUB AND CALLER EQ SWAP1 JUMP JUMPDEST DUP1 PUSH2 0x240A JUMPI POP CALLER PUSH1 0x1 PUSH1 0x1 PUSH1 0xA0 SHL SUB DUP3 AND EQ JUMPDEST PUSH2 0x2461 JUMPI PUSH1 0x40 MLOAD PUSH3 0x461BCD PUSH1 0xE5 SHL DUP2 MSTORE PUSH1 0x20 PUSH1 0x4 DUP3 ADD MSTORE PUSH1 0x22 PUSH1 0x24 DUP3 ADD MSTORE PUSH32 0x434242433A205345545F5245424153455F504F4C4943595F464F524249444445 PUSH1 0x44 DUP3 ADD MSTORE PUSH2 0x2717 PUSH1 0xF1 SHL PUSH1 0x64 DUP3 ADD MSTORE PUSH1 0x84 ADD PUSH2 0x760 JUMP JUMPDEST PUSH1 0xA4 DUP1 SLOAD PUSH1 0x1 PUSH1 0x1 PUSH1 0xA0 SHL SUB NOT AND PUSH1 0x1 PUSH1 0x1 PUSH1 0xA0 SHL SUB DUP4 AND SWAP1 DUP2 OR SWAP1 SWAP2 SSTORE PUSH1 0x40 MLOAD SWAP1 DUP2 MSTORE PUSH32 0x1B2A6EED04CAAC6E24DE29FAF0D56A1000F33980E10F682E1A01E7CAA097E7ED SWAP1 PUSH1 0x20 ADD PUSH2 0x2103 JUMP JUMPDEST PUSH2 0x24C3 PUSH1 0x68 SLOAD PUSH1 0x1 PUSH1 0x1 PUSH1 0xA0 SHL SUB AND CALLER EQ SWAP1 JUMP JUMPDEST PUSH2 0x24CC JUMPI PUSH1 0x0 DUP1 REVERT JUMPDEST PUSH2 0x24D5 DUP2 PUSH2 0x3473 JUMP JUMPDEST POP JUMP JUMPDEST PUSH1 0x0 DUP1 DUP4 PUSH1 0x1 PUSH1 0x1 PUSH1 0xA0 SHL SUB AND PUSH4 0xBBB1863A PUSH1 0x40 MLOAD DUP2 PUSH4 0xFFFFFFFF AND PUSH1 0xE0 SHL DUP2 MSTORE PUSH1 0x4 ADD PUSH1 0x20 PUSH1 0x40 MLOAD DUP1 DUP4 SUB DUP2 DUP7 DUP1 EXTCODESIZE ISZERO DUP1 ISZERO PUSH2 0x2514 JUMPI PUSH1 0x0 DUP1 REVERT JUMPDEST POP GAS STATICCALL ISZERO DUP1 ISZERO PUSH2 0x2528 JUMPI RETURNDATASIZE PUSH1 0x0 DUP1 RETURNDATACOPY RETURNDATASIZE PUSH1 0x0 REVERT JUMPDEST POP POP POP POP PUSH1 0x40 MLOAD RETURNDATASIZE PUSH1 0x1F NOT PUSH1 0x1F DUP3 ADD AND DUP3 ADD DUP1 PUSH1 0x40 MSTORE POP DUP2 ADD SWAP1 PUSH2 0x254C SWAP2 SWAP1 PUSH2 0x4B3C JUMP JUMPDEST PUSH1 0x1 PUSH1 0x1 PUSH1 0xA0 SHL SUB AND PUSH4 0x60961528 PUSH1 0x40 MLOAD DUP2 PUSH4 0xFFFFFFFF AND PUSH1 0xE0 SHL DUP2 MSTORE PUSH1 0x4 ADD PUSH1 0x20 PUSH1 0x40 MLOAD DUP1 DUP4 SUB DUP2 DUP7 DUP1 EXTCODESIZE ISZERO DUP1 ISZERO PUSH2 0x2584 JUMPI PUSH1 0x0 DUP1 REVERT JUMPDEST POP GAS STATICCALL ISZERO DUP1 ISZERO PUSH2 0x2598 JUMPI RETURNDATASIZE PUSH1 0x0 DUP1 RETURNDATACOPY RETURNDATASIZE PUSH1 0x0 REVERT JUMPDEST POP POP POP POP PUSH1 0x40 MLOAD RETURNDATASIZE PUSH1 0x1F NOT PUSH1 0x1F DUP3 ADD AND DUP3 ADD DUP1 PUSH1 0x40 MSTORE POP DUP2 ADD SWAP1 PUSH2 0x25BC SWAP2 SWAP1 PUSH2 0x4B3C JUMP JUMPDEST PUSH1 0x1 PUSH1 0x1 PUSH1 0xA0 SHL SUB AND PUSH4 0x41976E09 DUP6 PUSH1 0x1 PUSH1 0x1 PUSH1 0xA0 SHL SUB AND PUSH4 0xD83678AC PUSH1 0x40 MLOAD DUP2 PUSH4 0xFFFFFFFF AND PUSH1 0xE0 SHL DUP2 MSTORE PUSH1 0x4 ADD PUSH1 0x20 PUSH1 0x40 MLOAD DUP1 DUP4 SUB DUP2 DUP7 DUP1 EXTCODESIZE ISZERO DUP1 ISZERO PUSH2 0x2603 JUMPI PUSH1 0x0 DUP1 REVERT JUMPDEST POP GAS STATICCALL ISZERO DUP1 ISZERO PUSH2 0x2617 JUMPI RETURNDATASIZE PUSH1 0x0 DUP1 RETURNDATACOPY RETURNDATASIZE PUSH1 0x0 REVERT JUMPDEST POP POP POP POP PUSH1 0x40 MLOAD RETURNDATASIZE PUSH1 0x1F NOT PUSH1 0x1F DUP3 ADD AND DUP3 ADD DUP1 PUSH1 0x40 MSTORE POP DUP2 ADD SWAP1 PUSH2 0x263B SWAP2 SWAP1 PUSH2 0x4B3C JUMP JUMPDEST PUSH1 0x40 MLOAD PUSH1 0x1 PUSH1 0x1 PUSH1 0xE0 SHL SUB NOT PUSH1 0xE0 DUP5 SWAP1 SHL AND DUP2 MSTORE PUSH1 0x1 PUSH1 0x1 PUSH1 0xA0 SHL SUB SWAP1 SWAP2 AND PUSH1 0x4 DUP3 ADD MSTORE PUSH1 0x24 ADD PUSH1 0x40 DUP1 MLOAD DUP1 DUP4 SUB DUP2 DUP7 DUP1 EXTCODESIZE ISZERO DUP1 ISZERO PUSH2 0x2679 JUMPI PUSH1 0x0 DUP1 REVERT JUMPDEST POP GAS STATICCALL ISZERO DUP1 ISZERO PUSH2 0x268D JUMPI RETURNDATASIZE PUSH1 0x0 DUP1 RETURNDATACOPY RETURNDATASIZE PUSH1 0x0 REVERT JUMPDEST POP POP POP POP PUSH1 0x40 MLOAD RETURNDATASIZE PUSH1 0x1F NOT PUSH1 0x1F DUP3 ADD AND DUP3 ADD DUP1 PUSH1 0x40 MSTORE POP DUP2 ADD SWAP1 PUSH2 0x26B1 SWAP2 SWAP1 PUSH2 0x4E27 JUMP JUMPDEST SWAP2 POP NUMBER SWAP1 POP PUSH2 0x26C1 PUSH1 0xC8 DUP4 PUSH2 0x52AB JUMP JUMPDEST LT ISZERO PUSH2 0x26DF JUMPI PUSH1 0x40 MLOAD PUSH3 0x461BCD PUSH1 0xE5 SHL DUP2 MSTORE PUSH1 0x4 ADD PUSH2 0x760 SWAP1 PUSH2 0x5189 JUMP JUMPDEST PUSH1 0x0 DUP5 PUSH1 0x1 PUSH1 0x1 PUSH1 0xA0 SHL SUB AND PUSH4 0x74E14EB8 PUSH1 0x40 MLOAD DUP2 PUSH4 0xFFFFFFFF AND PUSH1 0xE0 SHL DUP2 MSTORE PUSH1 0x4 ADD PUSH1 0x20 PUSH1 0x40 MLOAD DUP1 DUP4 SUB DUP2 DUP7 DUP1 EXTCODESIZE ISZERO DUP1 ISZERO PUSH2 0x271A JUMPI PUSH1 0x0 DUP1 REVERT JUMPDEST POP GAS STATICCALL ISZERO DUP1 ISZERO PUSH2 0x272E JUMPI RETURNDATASIZE PUSH1 0x0 DUP1 RETURNDATACOPY RETURNDATASIZE PUSH1 0x0 REVERT JUMPDEST POP POP POP POP PUSH1 0x40 MLOAD RETURNDATASIZE PUSH1 0x1F NOT PUSH1 0x1F DUP3 ADD AND DUP3 ADD DUP1 PUSH1 0x40 MSTORE POP DUP2 ADD SWAP1 PUSH2 0x2752 SWAP2 SWAP1 PUSH2 0x4B3C JUMP JUMPDEST SWAP1 POP PUSH1 0x0 DUP6 PUSH1 0x1 PUSH1 0x1 PUSH1 0xA0 SHL SUB AND PUSH4 0xBBB1863A PUSH1 0x40 MLOAD DUP2 PUSH4 0xFFFFFFFF AND PUSH1 0xE0 SHL DUP2 MSTORE PUSH1 0x4 ADD PUSH1 0x20 PUSH1 0x40 MLOAD DUP1 DUP4 SUB DUP2 DUP7 DUP1 EXTCODESIZE ISZERO DUP1 ISZERO PUSH2 0x278F JUMPI PUSH1 0x0 DUP1 REVERT JUMPDEST POP GAS STATICCALL ISZERO DUP1 ISZERO PUSH2 0x27A3 JUMPI RETURNDATASIZE PUSH1 0x0 DUP1 RETURNDATACOPY RETURNDATASIZE PUSH1 0x0 REVERT JUMPDEST POP POP POP POP PUSH1 0x40 MLOAD RETURNDATASIZE PUSH1 0x1F NOT PUSH1 0x1F DUP3 ADD AND DUP3 ADD DUP1 PUSH1 0x40 MSTORE POP DUP2 ADD SWAP1 PUSH2 0x27C7 SWAP2 SWAP1 PUSH2 0x4B3C JUMP JUMPDEST PUSH1 0x1 PUSH1 0x1 PUSH1 0xA0 SHL SUB AND PUSH4 0x60961528 PUSH1 0x40 MLOAD DUP2 PUSH4 0xFFFFFFFF AND PUSH1 0xE0 SHL DUP2 MSTORE PUSH1 0x4 ADD PUSH1 0x20 PUSH1 0x40 MLOAD DUP1 DUP4 SUB DUP2 DUP7 DUP1 EXTCODESIZE ISZERO DUP1 ISZERO PUSH2 0x27FF JUMPI PUSH1 0x0 DUP1 REVERT JUMPDEST POP GAS STATICCALL ISZERO DUP1 ISZERO PUSH2 0x2813 JUMPI RETURNDATASIZE PUSH1 0x0 DUP1 RETURNDATACOPY RETURNDATASIZE PUSH1 0x0 REVERT JUMPDEST POP POP POP POP PUSH1 0x40 MLOAD RETURNDATASIZE PUSH1 0x1F NOT PUSH1 0x1F DUP3 ADD AND DUP3 ADD DUP1 PUSH1 0x40 MSTORE POP DUP2 ADD SWAP1 PUSH2 0x2837 SWAP2 SWAP1 PUSH2 0x4B3C JUMP JUMPDEST PUSH1 0x40 MLOAD PUSH4 0x41976E09 PUSH1 0xE0 SHL DUP2 MSTORE PUSH1 0x1 PUSH1 0x1 PUSH1 0xA0 SHL SUB DUP5 DUP2 AND PUSH1 0x4 DUP4 ADD MSTORE SWAP2 SWAP1 SWAP2 AND SWAP1 PUSH4 0x41976E09 SWAP1 PUSH1 0x24 ADD PUSH1 0x40 DUP1 MLOAD DUP1 DUP4 SUB DUP2 DUP7 DUP1 EXTCODESIZE ISZERO DUP1 ISZERO PUSH2 0x2879 JUMPI PUSH1 0x0 DUP1 REVERT JUMPDEST POP GAS STATICCALL ISZERO DUP1 ISZERO PUSH2 0x288D JUMPI RETURNDATASIZE PUSH1 0x0 DUP1 RETURNDATACOPY RETURNDATASIZE PUSH1 0x0 REVERT JUMPDEST POP POP POP POP PUSH1 0x40 MLOAD RETURNDATASIZE PUSH1 0x1F NOT PUSH1 0x1F DUP3 ADD AND DUP3 ADD DUP1 PUSH1 0x40 MSTORE POP DUP2 ADD SWAP1 PUSH2 0x28B1 SWAP2 SWAP1 PUSH2 0x4E27 JUMP JUMPDEST POP SWAP1 POP PUSH1 0x0 DUP7 PUSH1 0x1 PUSH1 0x1 PUSH1 0xA0 SHL SUB AND PUSH4 0x2C86D98E PUSH1 0x40 MLOAD DUP2 PUSH4 0xFFFFFFFF AND PUSH1 0xE0 SHL DUP2 MSTORE PUSH1 0x4 ADD PUSH1 0x20 PUSH1 0x40 MLOAD DUP1 DUP4 SUB DUP2 DUP7 DUP1 EXTCODESIZE ISZERO DUP1 ISZERO PUSH2 0x28EF JUMPI PUSH1 0x0 DUP1 REVERT JUMPDEST POP GAS STATICCALL ISZERO DUP1 ISZERO PUSH2 0x2903 JUMPI RETURNDATASIZE PUSH1 0x0 DUP1 RETURNDATACOPY RETURNDATASIZE PUSH1 0x0 REVERT JUMPDEST POP POP POP POP PUSH1 0x40 MLOAD RETURNDATASIZE PUSH1 0x1F NOT PUSH1 0x1F DUP3 ADD AND DUP3 ADD DUP1 PUSH1 0x40 MSTORE POP DUP2 ADD SWAP1 PUSH2 0x2927 SWAP2 SWAP1 PUSH2 0x4E4A JUMP JUMPDEST PUSH1 0xFF AND SWAP1 POP PUSH1 0x0 DUP4 PUSH1 0x1 PUSH1 0x1 PUSH1 0xA0 SHL SUB AND PUSH4 0x313CE567 PUSH1 0x40 MLOAD DUP2 PUSH4 0xFFFFFFFF AND PUSH1 0xE0 SHL DUP2 MSTORE PUSH1 0x4 ADD PUSH1 0x20 PUSH1 0x40 MLOAD DUP1 DUP4 SUB DUP2 DUP7 DUP1 EXTCODESIZE ISZERO DUP1 ISZERO PUSH2 0x2967 JUMPI PUSH1 0x0 DUP1 REVERT JUMPDEST POP GAS STATICCALL ISZERO DUP1 ISZERO PUSH2 0x297B JUMPI RETURNDATASIZE PUSH1 0x0 DUP1 RETURNDATACOPY RETURNDATASIZE PUSH1 0x0 REVERT JUMPDEST POP POP POP POP PUSH1 0x40 MLOAD RETURNDATASIZE PUSH1 0x1F NOT PUSH1 0x1F DUP3 ADD AND DUP3 ADD DUP1 PUSH1 0x40 MSTORE POP DUP2 ADD SWAP1 PUSH2 0x299F SWAP2 SWAP1 PUSH2 0x4E4A JUMP JUMPDEST PUSH1 0xFF AND SWAP1 POP PUSH1 0x0 PUSH2 0x29B3 DUP10 DUP10 PUSH1 0x0 DUP1 PUSH2 0x34E2 JUMP JUMPDEST SWAP1 POP PUSH1 0x0 PUSH2 0x29C2 DUP4 PUSH1 0xA PUSH2 0x531D JUMP JUMPDEST PUSH2 0x29CC DUP7 DUP12 PUSH2 0x53FE JUMP JUMPDEST PUSH2 0x29D6 SWAP2 SWAP1 PUSH2 0x52C3 JUMP JUMPDEST SWAP1 POP DUP2 PUSH2 0x29E4 DUP6 PUSH1 0x3 PUSH2 0x53FE JUMP JUMPDEST PUSH2 0x29F0 SWAP1 PUSH2 0x2710 PUSH2 0x541D JUMP JUMPDEST PUSH2 0x29FA SWAP1 DUP4 PUSH2 0x53FE JUMP JUMPDEST PUSH2 0x2A0A SWAP1 PUSH6 0x5AF3107A4000 PUSH2 0x53FE JUMP JUMPDEST PUSH2 0x2A14 SWAP2 SWAP1 PUSH2 0x52C3 JUMP JUMPDEST SWAP8 POP PUSH1 0x0 DUP9 GT PUSH2 0x2A36 JUMPI PUSH1 0x40 MLOAD PUSH3 0x461BCD PUSH1 0xE5 SHL DUP2 MSTORE PUSH1 0x4 ADD PUSH2 0x760 SWAP1 PUSH2 0x5100 JUMP JUMPDEST POP POP POP POP POP POP POP SWAP3 SWAP2 POP POP JUMP JUMPDEST DUP1 PUSH1 0x9B PUSH1 0x0 DUP3 DUP3 SLOAD PUSH2 0x2A55 SWAP2 SWAP1 PUSH2 0x52AB JUMP JUMPDEST SWAP1 SWAP2 SSTORE POP POP PUSH1 0x9C SLOAD PUSH2 0x2A67 SWAP1 DUP3 PUSH2 0x53FE JUMP JUMPDEST PUSH1 0x1 PUSH1 0x1 PUSH1 0xA0 SHL SUB DUP4 AND PUSH1 0x0 SWAP1 DUP2 MSTORE PUSH1 0xA1 PUSH1 0x20 MSTORE PUSH1 0x40 DUP2 KECCAK256 DUP1 SLOAD SWAP1 SWAP2 SWAP1 PUSH2 0x2A8F SWAP1 DUP5 SWAP1 PUSH2 0x52AB JUMP JUMPDEST SWAP1 SWAP2 SSTORE POP POP PUSH1 0x40 MLOAD DUP2 DUP2 MSTORE PUSH1 0x1 PUSH1 0x1 PUSH1 0xA0 SHL SUB DUP4 AND SWAP1 PUSH1 0x0 SWAP1 PUSH1 0x0 DUP1 MLOAD PUSH1 0x20 PUSH2 0x5556 DUP4 CODECOPY DUP2 MLOAD SWAP2 MSTORE SWAP1 PUSH1 0x20 ADD JUMPDEST PUSH1 0x40 MLOAD DUP1 SWAP2 SUB SWAP1 LOG3 POP POP JUMP JUMPDEST PUSH1 0x0 DUP1 DUP4 PUSH1 0x1 PUSH1 0x1 PUSH1 0xA0 SHL SUB AND PUSH4 0xBBB1863A PUSH1 0x40 MLOAD DUP2 PUSH4 0xFFFFFFFF AND PUSH1 0xE0 SHL DUP2 MSTORE PUSH1 0x4 ADD PUSH1 0x20 PUSH1 0x40 MLOAD DUP1 DUP4 SUB DUP2 DUP7 DUP1 EXTCODESIZE ISZERO DUP1 ISZERO PUSH2 0x2B04 JUMPI PUSH1 0x0 DUP1 REVERT JUMPDEST POP GAS STATICCALL ISZERO DUP1 ISZERO PUSH2 0x2B18 JUMPI RETURNDATASIZE PUSH1 0x0 DUP1 RETURNDATACOPY RETURNDATASIZE PUSH1 0x0 REVERT JUMPDEST POP POP POP POP PUSH1 0x40 MLOAD RETURNDATASIZE PUSH1 0x1F NOT PUSH1 0x1F DUP3 ADD AND DUP3 ADD DUP1 PUSH1 0x40 MSTORE POP DUP2 ADD SWAP1 PUSH2 0x2B3C SWAP2 SWAP1 PUSH2 0x4B3C JUMP JUMPDEST PUSH1 0x1 PUSH1 0x1 PUSH1 0xA0 SHL SUB AND PUSH4 0x60961528 PUSH1 0x40 MLOAD DUP2 PUSH4 0xFFFFFFFF AND PUSH1 0xE0 SHL DUP2 MSTORE PUSH1 0x4 ADD PUSH1 0x20 PUSH1 0x40 MLOAD DUP1 DUP4 SUB DUP2 DUP7 DUP1 EXTCODESIZE ISZERO DUP1 ISZERO PUSH2 0x2B74 JUMPI PUSH1 0x0 DUP1 REVERT JUMPDEST POP GAS STATICCALL ISZERO DUP1 ISZERO PUSH2 0x2B88 JUMPI RETURNDATASIZE PUSH1 0x0 DUP1 RETURNDATACOPY RETURNDATASIZE PUSH1 0x0 REVERT JUMPDEST POP POP POP POP PUSH1 0x40 MLOAD RETURNDATASIZE PUSH1 0x1F NOT PUSH1 0x1F DUP3 ADD AND DUP3 ADD DUP1 PUSH1 0x40 MSTORE POP DUP2 ADD SWAP1 PUSH2 0x2BAC SWAP2 SWAP1 PUSH2 0x4B3C JUMP JUMPDEST PUSH1 0x1 PUSH1 0x1 PUSH1 0xA0 SHL SUB AND PUSH4 0x41976E09 DUP6 PUSH1 0x1 PUSH1 0x1 PUSH1 0xA0 SHL SUB AND PUSH4 0xD83678AC PUSH1 0x40 MLOAD DUP2 PUSH4 0xFFFFFFFF AND PUSH1 0xE0 SHL DUP2 MSTORE PUSH1 0x4 ADD PUSH1 0x20 PUSH1 0x40 MLOAD DUP1 DUP4 SUB DUP2 DUP7 DUP1 EXTCODESIZE ISZERO DUP1 ISZERO PUSH2 0x2BF3 JUMPI PUSH1 0x0 DUP1 REVERT JUMPDEST POP GAS STATICCALL ISZERO DUP1 ISZERO PUSH2 0x2C07 JUMPI RETURNDATASIZE PUSH1 0x0 DUP1 RETURNDATACOPY RETURNDATASIZE PUSH1 0x0 REVERT JUMPDEST POP POP POP POP PUSH1 0x40 MLOAD RETURNDATASIZE PUSH1 0x1F NOT PUSH1 0x1F DUP3 ADD AND DUP3 ADD DUP1 PUSH1 0x40 MSTORE POP DUP2 ADD SWAP1 PUSH2 0x2C2B SWAP2 SWAP1 PUSH2 0x4B3C JUMP JUMPDEST PUSH1 0x40 MLOAD PUSH1 0x1 PUSH1 0x1 PUSH1 0xE0 SHL SUB NOT PUSH1 0xE0 DUP5 SWAP1 SHL AND DUP2 MSTORE PUSH1 0x1 PUSH1 0x1 PUSH1 0xA0 SHL SUB SWAP1 SWAP2 AND PUSH1 0x4 DUP3 ADD MSTORE PUSH1 0x24 ADD PUSH1 0x40 DUP1 MLOAD DUP1 DUP4 SUB DUP2 DUP7 DUP1 EXTCODESIZE ISZERO DUP1 ISZERO PUSH2 0x2C69 JUMPI PUSH1 0x0 DUP1 REVERT JUMPDEST POP GAS STATICCALL ISZERO DUP1 ISZERO PUSH2 0x2C7D JUMPI RETURNDATASIZE PUSH1 0x0 DUP1 RETURNDATACOPY RETURNDATASIZE PUSH1 0x0 REVERT JUMPDEST POP POP POP POP PUSH1 0x40 MLOAD RETURNDATASIZE PUSH1 0x1F NOT PUSH1 0x1F DUP3 ADD AND DUP3 ADD DUP1 PUSH1 0x40 MSTORE POP DUP2 ADD SWAP1 PUSH2 0x2CA1 SWAP2 SWAP1 PUSH2 0x4E27 JUMP JUMPDEST SWAP2 POP NUMBER SWAP1 POP PUSH2 0x2CB1 PUSH1 0xC8 DUP4 PUSH2 0x52AB JUMP JUMPDEST LT ISZERO PUSH2 0x2CCF JUMPI PUSH1 0x40 MLOAD PUSH3 0x461BCD PUSH1 0xE5 SHL DUP2 MSTORE PUSH1 0x4 ADD PUSH2 0x760 SWAP1 PUSH2 0x5189 JUMP JUMPDEST PUSH1 0x0 DUP5 PUSH1 0x1 PUSH1 0x1 PUSH1 0xA0 SHL SUB AND PUSH4 0x74E14EB8 PUSH1 0x40 MLOAD DUP2 PUSH4 0xFFFFFFFF AND PUSH1 0xE0 SHL DUP2 MSTORE PUSH1 0x4 ADD PUSH1 0x20 PUSH1 0x40 MLOAD DUP1 DUP4 SUB DUP2 DUP7 DUP1 EXTCODESIZE ISZERO DUP1 ISZERO PUSH2 0x2D0A JUMPI PUSH1 0x0 DUP1 REVERT JUMPDEST POP GAS STATICCALL ISZERO DUP1 ISZERO PUSH2 0x2D1E JUMPI RETURNDATASIZE PUSH1 0x0 DUP1 RETURNDATACOPY RETURNDATASIZE PUSH1 0x0 REVERT JUMPDEST POP POP POP POP PUSH1 0x40 MLOAD RETURNDATASIZE PUSH1 0x1F NOT PUSH1 0x1F DUP3 ADD AND DUP3 ADD DUP1 PUSH1 0x40 MSTORE POP DUP2 ADD SWAP1 PUSH2 0x2D42 SWAP2 SWAP1 PUSH2 0x4B3C JUMP JUMPDEST SWAP1 POP PUSH1 0x0 DUP1 DUP7 PUSH1 0x1 PUSH1 0x1 PUSH1 0xA0 SHL SUB AND PUSH4 0xBBB1863A PUSH1 0x40 MLOAD DUP2 PUSH4 0xFFFFFFFF AND PUSH1 0xE0 SHL DUP2 MSTORE PUSH1 0x4 ADD PUSH1 0x20 PUSH1 0x40 MLOAD DUP1 DUP4 SUB DUP2 DUP7 DUP1 EXTCODESIZE ISZERO DUP1 ISZERO PUSH2 0x2D80 JUMPI PUSH1 0x0 DUP1 REVERT JUMPDEST POP GAS STATICCALL ISZERO DUP1 ISZERO PUSH2 0x2D94 JUMPI RETURNDATASIZE PUSH1 0x0 DUP1 RETURNDATACOPY RETURNDATASIZE PUSH1 0x0 REVERT JUMPDEST POP POP POP POP PUSH1 0x40 MLOAD RETURNDATASIZE PUSH1 0x1F NOT PUSH1 0x1F DUP3 ADD AND DUP3 ADD DUP1 PUSH1 0x40 MSTORE POP DUP2 ADD SWAP1 PUSH2 0x2DB8 SWAP2 SWAP1 PUSH2 0x4B3C JUMP JUMPDEST PUSH1 0x1 PUSH1 0x1 PUSH1 0xA0 SHL SUB AND PUSH4 0x60961528 PUSH1 0x40 MLOAD DUP2 PUSH4 0xFFFFFFFF AND PUSH1 0xE0 SHL DUP2 MSTORE PUSH1 0x4 ADD PUSH1 0x20 PUSH1 0x40 MLOAD DUP1 DUP4 SUB DUP2 DUP7 DUP1 EXTCODESIZE ISZERO DUP1 ISZERO PUSH2 0x2DF0 JUMPI PUSH1 0x0 DUP1 REVERT JUMPDEST POP GAS STATICCALL ISZERO DUP1 ISZERO PUSH2 0x2E04 JUMPI RETURNDATASIZE PUSH1 0x0 DUP1 RETURNDATACOPY RETURNDATASIZE PUSH1 0x0 REVERT JUMPDEST POP POP POP POP PUSH1 0x40 MLOAD RETURNDATASIZE PUSH1 0x1F NOT PUSH1 0x1F DUP3 ADD AND DUP3 ADD DUP1 PUSH1 0x40 MSTORE POP DUP2 ADD SWAP1 PUSH2 0x2E28 SWAP2 SWAP1 PUSH2 0x4B3C JUMP JUMPDEST PUSH1 0x40 MLOAD PUSH4 0x41976E09 PUSH1 0xE0 SHL DUP2 MSTORE PUSH1 0x1 PUSH1 0x1 PUSH1 0xA0 SHL SUB DUP6 DUP2 AND PUSH1 0x4 DUP4 ADD MSTORE SWAP2 SWAP1 SWAP2 AND SWAP1 PUSH4 0x41976E09 SWAP1 PUSH1 0x24 ADD PUSH1 0x40 DUP1 MLOAD DUP1 DUP4 SUB DUP2 DUP7 DUP1 EXTCODESIZE ISZERO DUP1 ISZERO PUSH2 0x2E6A JUMPI PUSH1 0x0 DUP1 REVERT JUMPDEST POP GAS STATICCALL ISZERO DUP1 ISZERO PUSH2 0x2E7E JUMPI RETURNDATASIZE PUSH1 0x0 DUP1 RETURNDATACOPY RETURNDATASIZE PUSH1 0x0 REVERT JUMPDEST POP POP POP POP PUSH1 0x40 MLOAD RETURNDATASIZE PUSH1 0x1F NOT PUSH1 0x1F DUP3 ADD AND DUP3 ADD DUP1 PUSH1 0x40 MSTORE POP DUP2 ADD SWAP1 PUSH2 0x2EA2 SWAP2 SWAP1 PUSH2 0x4E27 JUMP JUMPDEST SWAP1 SWAP3 POP SWAP1 POP NUMBER PUSH2 0x2EB3 PUSH1 0xC8 DUP4 PUSH2 0x52AB JUMP JUMPDEST LT ISZERO PUSH2 0x2ED1 JUMPI PUSH1 0x40 MLOAD PUSH3 0x461BCD PUSH1 0xE5 SHL DUP2 MSTORE PUSH1 0x4 ADD PUSH2 0x760 SWAP1 PUSH2 0x5189 JUMP JUMPDEST PUSH1 0x0 DUP3 GT PUSH2 0x2F21 JUMPI PUSH1 0x40 MLOAD PUSH3 0x461BCD PUSH1 0xE5 SHL DUP2 MSTORE PUSH1 0x20 PUSH1 0x4 DUP3 ADD MSTORE PUSH1 0x1B PUSH1 0x24 DUP3 ADD MSTORE PUSH32 0x434242433A20494C4C4547414C5F534554544C455F50524943452E0000000000 PUSH1 0x44 DUP3 ADD MSTORE PUSH1 0x64 ADD PUSH2 0x760 JUMP JUMPDEST PUSH1 0x0 DUP8 PUSH1 0x1 PUSH1 0x1 PUSH1 0xA0 SHL SUB AND PUSH4 0xC45A0155 PUSH1 0x40 MLOAD DUP2 PUSH4 0xFFFFFFFF AND PUSH1 0xE0 SHL DUP2 MSTORE PUSH1 0x4 ADD PUSH1 0x20 PUSH1 0x40 MLOAD DUP1 DUP4 SUB DUP2 DUP7 DUP1 EXTCODESIZE ISZERO DUP1 ISZERO PUSH2 0x2F5C JUMPI PUSH1 0x0 DUP1 REVERT JUMPDEST POP GAS STATICCALL ISZERO DUP1 ISZERO PUSH2 0x2F70 JUMPI RETURNDATASIZE PUSH1 0x0 DUP1 RETURNDATACOPY RETURNDATASIZE PUSH1 0x0 REVERT JUMPDEST POP POP POP POP PUSH1 0x40 MLOAD RETURNDATASIZE PUSH1 0x1F NOT PUSH1 0x1F DUP3 ADD AND DUP3 ADD DUP1 PUSH1 0x40 MSTORE POP DUP2 ADD SWAP1 PUSH2 0x2F94 SWAP2 SWAP1 PUSH2 0x4B3C JUMP JUMPDEST PUSH1 0x40 MLOAD PUSH4 0x4C22F489 PUSH1 0xE1 SHL DUP2 MSTORE PUSH1 0x1 PUSH1 0x1 PUSH1 0xA0 SHL SUB DUP7 DUP2 AND PUSH1 0x4 DUP4 ADD MSTORE SWAP2 SWAP1 SWAP2 AND SWAP1 PUSH4 0x9845E912 SWAP1 PUSH1 0x24 ADD PUSH1 0x20 PUSH1 0x40 MLOAD DUP1 DUP4 SUB DUP2 DUP7 DUP1 EXTCODESIZE ISZERO DUP1 ISZERO PUSH2 0x2FD7 JUMPI PUSH1 0x0 DUP1 REVERT JUMPDEST POP GAS STATICCALL ISZERO DUP1 ISZERO PUSH2 0x2FEB JUMPI RETURNDATASIZE PUSH1 0x0 DUP1 RETURNDATACOPY RETURNDATASIZE PUSH1 0x0 REVERT JUMPDEST POP POP POP POP PUSH1 0x40 MLOAD RETURNDATASIZE PUSH1 0x1F NOT PUSH1 0x1F DUP3 ADD AND DUP3 ADD DUP1 PUSH1 0x40 MSTORE POP DUP2 ADD SWAP1 PUSH2 0x300F SWAP2 SWAP1 PUSH2 0x4B3C JUMP JUMPDEST SWAP1 POP PUSH1 0x0 DUP9 PUSH1 0x1 PUSH1 0x1 PUSH1 0xA0 SHL SUB AND PUSH4 0x2C86D98E PUSH1 0x40 MLOAD DUP2 PUSH4 0xFFFFFFFF AND PUSH1 0xE0 SHL DUP2 MSTORE PUSH1 0x4 ADD PUSH1 0x20 PUSH1 0x40 MLOAD DUP1 DUP4 SUB DUP2 DUP7 DUP1 EXTCODESIZE ISZERO DUP1 ISZERO PUSH2 0x304C JUMPI PUSH1 0x0 DUP1 REVERT JUMPDEST POP GAS STATICCALL ISZERO DUP1 ISZERO PUSH2 0x3060 JUMPI RETURNDATASIZE PUSH1 0x0 DUP1 RETURNDATACOPY RETURNDATASIZE PUSH1 0x0 REVERT JUMPDEST POP POP POP POP PUSH1 0x40 MLOAD RETURNDATASIZE PUSH1 0x1F NOT PUSH1 0x1F DUP3 ADD AND DUP3 ADD DUP1 PUSH1 0x40 MSTORE POP DUP2 ADD SWAP1 PUSH2 0x3084 SWAP2 SWAP1 PUSH2 0x4E4A JUMP JUMPDEST PUSH1 0xFF AND SWAP1 POP PUSH1 0x0 DUP6 PUSH1 0x1 PUSH1 0x1 PUSH1 0xA0 SHL SUB AND PUSH4 0x313CE567 PUSH1 0x40 MLOAD DUP2 PUSH4 0xFFFFFFFF AND PUSH1 0xE0 SHL DUP2 MSTORE PUSH1 0x4 ADD PUSH1 0x20 PUSH1 0x40 MLOAD DUP1 DUP4 SUB DUP2 DUP7 DUP1 EXTCODESIZE ISZERO DUP1 ISZERO PUSH2 0x30C4 JUMPI PUSH1 0x0 DUP1 REVERT JUMPDEST POP GAS STATICCALL ISZERO DUP1 ISZERO PUSH2 0x30D8 JUMPI RETURNDATASIZE PUSH1 0x0 DUP1 RETURNDATACOPY RETURNDATASIZE PUSH1 0x0 REVERT JUMPDEST POP POP POP POP PUSH1 0x40 MLOAD RETURNDATASIZE PUSH1 0x1F NOT PUSH1 0x1F DUP3 ADD AND DUP3 ADD DUP1 PUSH1 0x40 MSTORE POP DUP2 ADD SWAP1 PUSH2 0x30FC SWAP2 SWAP1 PUSH2 0x4E4A JUMP JUMPDEST PUSH1 0xFF AND SWAP1 POP PUSH1 0x0 PUSH2 0x3111 DUP12 PUSH1 0x0 DUP13 PUSH1 0x1 PUSH2 0x34E2 JUMP JUMPDEST SWAP1 POP PUSH1 0x0 PUSH2 0x2710 PUSH2 0x3123 DUP6 PUSH1 0x3 PUSH2 0x53FE JUMP JUMPDEST PUSH2 0x312F SWAP1 PUSH2 0x2710 PUSH2 0x541D JUMP JUMPDEST PUSH8 0xDE0B6B3A7640000 PUSH2 0x3142 DUP6 DUP16 PUSH2 0x53FE JUMP JUMPDEST PUSH2 0x314C SWAP2 SWAP1 PUSH2 0x52C3 JUMP JUMPDEST PUSH2 0x3156 SWAP2 SWAP1 PUSH2 0x53FE JUMP JUMPDEST PUSH2 0x3160 SWAP2 SWAP1 PUSH2 0x52C3 JUMP JUMPDEST SWAP1 POP PUSH2 0x3203 DUP8 PUSH2 0x3171 DUP6 PUSH1 0xA PUSH2 0x531D JUMP JUMPDEST PUSH2 0x317B SWAP1 DUP5 PUSH2 0x53FE JUMP JUMPDEST PUSH2 0x3185 SWAP2 SWAP1 PUSH2 0x52C3 JUMP JUMPDEST PUSH1 0x40 MLOAD PUSH4 0x70A08231 PUSH1 0xE0 SHL DUP2 MSTORE PUSH1 0x1 PUSH1 0x1 PUSH1 0xA0 SHL SUB DUP9 DUP2 AND PUSH1 0x4 DUP4 ADD MSTORE DUP12 AND SWAP1 PUSH4 0x70A08231 SWAP1 PUSH1 0x24 ADD PUSH1 0x20 PUSH1 0x40 MLOAD DUP1 DUP4 SUB DUP2 DUP7 DUP1 EXTCODESIZE ISZERO DUP1 ISZERO PUSH2 0x31C6 JUMPI PUSH1 0x0 DUP1 REVERT JUMPDEST POP GAS STATICCALL ISZERO DUP1 ISZERO PUSH2 0x31DA JUMPI RETURNDATASIZE PUSH1 0x0 DUP1 RETURNDATACOPY RETURNDATASIZE PUSH1 0x0 REVERT JUMPDEST POP POP POP POP PUSH1 0x40 MLOAD RETURNDATASIZE PUSH1 0x1F NOT PUSH1 0x1F DUP3 ADD AND DUP3 ADD DUP1 PUSH1 0x40 MSTORE POP DUP2 ADD SWAP1 PUSH2 0x31FE SWAP2 SWAP1 PUSH2 0x4D0F JUMP JUMPDEST PUSH2 0x4150 JUMP JUMPDEST SWAP10 POP PUSH1 0x0 DUP11 GT PUSH2 0x3225 JUMPI PUSH1 0x40 MLOAD PUSH3 0x461BCD PUSH1 0xE5 SHL DUP2 MSTORE PUSH1 0x4 ADD PUSH2 0x760 SWAP1 PUSH2 0x520E JUMP JUMPDEST POP POP POP POP POP POP POP POP POP SWAP3 SWAP2 POP POP JUMP JUMPDEST PUSH1 0x9C SLOAD PUSH2 0x3241 SWAP1 DUP3 PUSH2 0x53FE JUMP JUMPDEST PUSH1 0x1 PUSH1 0x1 PUSH1 0xA0 SHL SUB DUP4 AND PUSH1 0x0 SWAP1 DUP2 MSTORE PUSH1 0xA1 PUSH1 0x20 MSTORE PUSH1 0x40 DUP2 KECCAK256 DUP1 SLOAD SWAP1 SWAP2 SWAP1 PUSH2 0x3269 SWAP1 DUP5 SWAP1 PUSH2 0x541D JUMP JUMPDEST SWAP3 POP POP DUP2 SWAP1 SSTORE POP DUP1 PUSH1 0x9B PUSH1 0x0 DUP3 DUP3 SLOAD PUSH2 0x3282 SWAP2 SWAP1 PUSH2 0x541D JUMP JUMPDEST SWAP1 SWAP2 SSTORE POP POP PUSH1 0x40 MLOAD DUP2 DUP2 MSTORE PUSH1 0x0 SWAP1 PUSH1 0x1 PUSH1 0x1 PUSH1 0xA0 SHL SUB DUP5 AND SWAP1 PUSH1 0x0 DUP1 MLOAD PUSH1 0x20 PUSH2 0x5556 DUP4 CODECOPY DUP2 MLOAD SWAP2 MSTORE SWAP1 PUSH1 0x20 ADD PUSH2 0x2ABC JUMP JUMPDEST PUSH1 0x0 PUSH1 0x1 PUSH1 0xFF SHL DUP3 EQ ISZERO PUSH2 0x32C6 JUMPI PUSH1 0x0 DUP1 REVERT JUMPDEST PUSH1 0x0 DUP3 SLT PUSH2 0x32D4 JUMPI DUP2 PUSH2 0x71B JUMP JUMPDEST PUSH2 0x71B DUP3 PUSH2 0x54C8 JUMP JUMPDEST PUSH1 0x40 DUP1 MLOAD PUSH1 0x64 DUP1 DUP3 MSTORE PUSH1 0xA0 DUP3 ADD SWAP1 SWAP3 MSTORE PUSH1 0x60 SWAP2 SWAP1 PUSH1 0x0 SWAP1 DUP3 PUSH1 0x20 DUP3 ADD DUP2 DUP1 CALLDATASIZE DUP4 CALLDATACOPY ADD SWAP1 POP POP SWAP1 POP PUSH1 0x0 JUMPDEST DUP5 ISZERO PUSH2 0x337F JUMPI PUSH1 0x0 PUSH2 0x331A PUSH1 0xA DUP8 PUSH2 0x54B4 JUMP JUMPDEST SWAP1 POP PUSH2 0x3327 PUSH1 0xA DUP8 PUSH2 0x52C3 JUMP JUMPDEST SWAP6 POP PUSH2 0x3334 DUP2 PUSH1 0x30 PUSH2 0x52AB JUMP JUMPDEST PUSH1 0xF8 SHL DUP4 DUP4 PUSH2 0x3342 DUP2 PUSH2 0x5499 JUMP JUMPDEST SWAP5 POP DUP2 MLOAD DUP2 LT PUSH2 0x3362 JUMPI PUSH4 0x4E487B71 PUSH1 0xE0 SHL PUSH1 0x0 MSTORE PUSH1 0x32 PUSH1 0x4 MSTORE PUSH1 0x24 PUSH1 0x0 REVERT JUMPDEST PUSH1 0x20 ADD ADD SWAP1 PUSH1 0x1 PUSH1 0x1 PUSH1 0xF8 SHL SUB NOT AND SWAP1 DUP2 PUSH1 0x0 BYTE SWAP1 MSTORE8 POP POP PUSH2 0x3307 JUMP JUMPDEST PUSH1 0x0 DUP2 PUSH8 0xFFFFFFFFFFFFFFFF DUP2 GT ISZERO PUSH2 0x33A8 JUMPI PUSH4 0x4E487B71 PUSH1 0xE0 SHL PUSH1 0x0 MSTORE PUSH1 0x41 PUSH1 0x4 MSTORE PUSH1 0x24 PUSH1 0x0 REVERT JUMPDEST PUSH1 0x40 MLOAD SWAP1 DUP1 DUP3 MSTORE DUP1 PUSH1 0x1F ADD PUSH1 0x1F NOT AND PUSH1 0x20 ADD DUP3 ADD PUSH1 0x40 MSTORE DUP1 ISZERO PUSH2 0x33D2 JUMPI PUSH1 0x20 DUP3 ADD DUP2 DUP1 CALLDATASIZE DUP4 CALLDATACOPY ADD SWAP1 POP JUMPDEST POP SWAP1 POP PUSH1 0x0 JUMPDEST DUP3 DUP2 LT ISZERO PUSH2 0x3469 JUMPI DUP4 DUP2 PUSH2 0x33ED PUSH1 0x1 DUP7 PUSH2 0x541D JUMP JUMPDEST PUSH2 0x33F7 SWAP2 SWAP1 PUSH2 0x541D JUMP JUMPDEST DUP2 MLOAD DUP2 LT PUSH2 0x3415 JUMPI PUSH4 0x4E487B71 PUSH1 0xE0 SHL PUSH1 0x0 MSTORE PUSH1 0x32 PUSH1 0x4 MSTORE PUSH1 0x24 PUSH1 0x0 REVERT JUMPDEST PUSH1 0x20 ADD ADD MLOAD PUSH1 0xF8 SHR PUSH1 0xF8 SHL DUP3 DUP3 DUP2 MLOAD DUP2 LT PUSH2 0x3440 JUMPI PUSH4 0x4E487B71 PUSH1 0xE0 SHL PUSH1 0x0 MSTORE PUSH1 0x32 PUSH1 0x4 MSTORE PUSH1 0x24 PUSH1 0x0 REVERT JUMPDEST PUSH1 0x20 ADD ADD SWAP1 PUSH1 0x1 PUSH1 0x1 PUSH1 0xF8 SHL SUB NOT AND SWAP1 DUP2 PUSH1 0x0 BYTE SWAP1 MSTORE8 POP DUP1 PUSH2 0x3461 DUP2 PUSH2 0x5499 JUMP JUMPDEST SWAP2 POP POP PUSH2 0x33D8 JUMP JUMPDEST POP SWAP6 SWAP5 POP POP POP POP POP JUMP JUMPDEST PUSH1 0x1 PUSH1 0x1 PUSH1 0xA0 SHL SUB DUP2 AND PUSH2 0x3486 JUMPI PUSH1 0x0 DUP1 REVERT JUMPDEST PUSH1 0x68 SLOAD PUSH1 0x40 MLOAD PUSH1 0x1 PUSH1 0x1 PUSH1 0xA0 SHL SUB DUP1 DUP5 AND SWAP3 AND SWAP1 PUSH32 0x8BE0079C531659141344CD1FD0A4F28419497F9722A3DAAFE3B4186F6B6457E0 SWAP1 PUSH1 0x0 SWAP1 LOG3 PUSH1 0x68 DUP1 SLOAD PUSH1 0x1 PUSH1 0x1 PUSH1 0xA0 SHL SUB NOT AND PUSH1 0x1 PUSH1 0x1 PUSH1 0xA0 SHL SUB SWAP3 SWAP1 SWAP3 AND SWAP2 SWAP1 SWAP2 OR SWAP1 SSTORE JUMP JUMPDEST PUSH1 0x0 DUP4 ISZERO DUP1 PUSH2 0x34EF JUMPI POP DUP3 ISZERO JUMPDEST PUSH2 0x3547 JUMPI PUSH1 0x40 MLOAD PUSH3 0x461BCD PUSH1 0xE5 SHL DUP2 MSTORE PUSH1 0x20 PUSH1 0x4 DUP3 ADD MSTORE PUSH1 0x24 DUP1 DUP3 ADD MSTORE PUSH32 0x434242433A204255595F414E445F53454C4C5F41545F5448455F53414D455F54 PUSH1 0x44 DUP3 ADD MSTORE PUSH4 0x24A6A297 PUSH1 0xE1 SHL PUSH1 0x64 DUP3 ADD MSTORE PUSH1 0x84 ADD PUSH2 0x760 JUMP JUMPDEST PUSH2 0x3572 PUSH1 0x40 MLOAD DUP1 PUSH1 0x80 ADD PUSH1 0x40 MSTORE DUP1 PUSH1 0x0 DUP2 MSTORE PUSH1 0x20 ADD PUSH1 0x0 DUP2 MSTORE PUSH1 0x20 ADD PUSH1 0x0 DUP2 MSTORE PUSH1 0x20 ADD PUSH1 0x0 DUP2 MSTORE POP SWAP1 JUMP JUMPDEST PUSH2 0x35B2 PUSH1 0x40 MLOAD DUP1 PUSH1 0xE0 ADD PUSH1 0x40 MSTORE DUP1 PUSH1 0x0 DUP2 MSTORE PUSH1 0x20 ADD PUSH1 0x0 DUP2 MSTORE PUSH1 0x20 ADD PUSH1 0x0 DUP2 MSTORE PUSH1 0x20 ADD PUSH1 0x0 DUP2 MSTORE PUSH1 0x20 ADD PUSH1 0x0 DUP2 MSTORE PUSH1 0x20 ADD PUSH1 0x0 DUP2 MSTORE PUSH1 0x20 ADD PUSH1 0x0 DUP2 MSTORE POP SWAP1 JUMP JUMPDEST PUSH1 0x40 DUP1 MLOAD PUSH1 0xC0 DUP2 ADD DUP3 MSTORE PUSH1 0x0 DUP1 DUP3 MSTORE PUSH1 0x20 DUP3 ADD DUP2 SWAP1 MSTORE SWAP2 DUP2 ADD DUP3 SWAP1 MSTORE PUSH1 0x60 DUP2 ADD DUP3 SWAP1 MSTORE PUSH1 0x80 DUP2 ADD DUP3 SWAP1 MSTORE PUSH1 0xA0 DUP2 ADD SWAP2 SWAP1 SWAP2 MSTORE DUP8 PUSH1 0x1 PUSH1 0x1 PUSH1 0xA0 SHL SUB AND PUSH4 0xC45A0155 PUSH1 0x40 MLOAD DUP2 PUSH4 0xFFFFFFFF AND PUSH1 0xE0 SHL DUP2 MSTORE PUSH1 0x4 ADD PUSH1 0x20 PUSH1 0x40 MLOAD DUP1 DUP4 SUB DUP2 DUP7 DUP1 EXTCODESIZE ISZERO DUP1 ISZERO PUSH2 0x361D JUMPI PUSH1 0x0 DUP1 REVERT JUMPDEST POP GAS STATICCALL ISZERO DUP1 ISZERO PUSH2 0x3631 JUMPI RETURNDATASIZE PUSH1 0x0 DUP1 RETURNDATACOPY RETURNDATASIZE PUSH1 0x0 REVERT JUMPDEST POP POP POP POP PUSH1 0x40 MLOAD RETURNDATASIZE PUSH1 0x1F NOT PUSH1 0x1F DUP3 ADD AND DUP3 ADD DUP1 PUSH1 0x40 MSTORE POP DUP2 ADD SWAP1 PUSH2 0x3655 SWAP2 SWAP1 PUSH2 0x4B3C JUMP JUMPDEST PUSH1 0x1 PUSH1 0x1 PUSH1 0xA0 SHL SUB SWAP1 DUP2 AND DUP3 MSTORE PUSH1 0x40 DUP1 MLOAD PUSH4 0xE9C29D7 PUSH1 0xE3 SHL DUP2 MSTORE SWAP1 MLOAD SWAP2 DUP11 AND SWAP2 PUSH4 0x74E14EB8 SWAP2 PUSH1 0x4 DUP1 DUP3 ADD SWAP3 PUSH1 0x20 SWAP3 SWAP1 SWAP2 SWAP1 DUP3 SWAP1 SUB ADD DUP2 DUP7 DUP1 EXTCODESIZE ISZERO DUP1 ISZERO PUSH2 0x369C JUMPI PUSH1 0x0 DUP1 REVERT JUMPDEST POP GAS STATICCALL ISZERO DUP1 ISZERO PUSH2 0x36B0 JUMPI RETURNDATASIZE PUSH1 0x0 DUP1 RETURNDATACOPY RETURNDATASIZE PUSH1 0x0 REVERT JUMPDEST POP POP POP POP PUSH1 0x40 MLOAD RETURNDATASIZE PUSH1 0x1F NOT PUSH1 0x1F DUP3 ADD AND DUP3 ADD DUP1 PUSH1 0x40 MSTORE POP DUP2 ADD SWAP1 PUSH2 0x36D4 SWAP2 SWAP1 PUSH2 0x4B3C JUMP JUMPDEST DUP2 PUSH1 0x20 ADD SWAP1 PUSH1 0x1 PUSH1 0x1 PUSH1 0xA0 SHL SUB AND SWAP1 DUP2 PUSH1 0x1 PUSH1 0x1 PUSH1 0xA0 SHL SUB AND DUP2 MSTORE POP POP DUP8 PUSH1 0x1 PUSH1 0x1 PUSH1 0xA0 SHL SUB AND PUSH4 0xD83678AC PUSH1 0x40 MLOAD DUP2 PUSH4 0xFFFFFFFF AND PUSH1 0xE0 SHL DUP2 MSTORE PUSH1 0x4 ADD PUSH1 0x20 PUSH1 0x40 MLOAD DUP1 DUP4 SUB DUP2 DUP7 DUP1 EXTCODESIZE ISZERO DUP1 ISZERO PUSH2 0x372A JUMPI PUSH1 0x0 DUP1 REVERT JUMPDEST POP GAS STATICCALL ISZERO DUP1 ISZERO PUSH2 0x373E JUMPI RETURNDATASIZE PUSH1 0x0 DUP1 RETURNDATACOPY RETURNDATASIZE PUSH1 0x0 REVERT JUMPDEST POP POP POP POP PUSH1 0x40 MLOAD RETURNDATASIZE PUSH1 0x1F NOT PUSH1 0x1F DUP3 ADD AND DUP3 ADD DUP1 PUSH1 0x40 MSTORE POP DUP2 ADD SWAP1 PUSH2 0x3762 SWAP2 SWAP1 PUSH2 0x4B3C JUMP JUMPDEST DUP2 PUSH1 0x40 ADD SWAP1 PUSH1 0x1 PUSH1 0x1 PUSH1 0xA0 SHL SUB AND SWAP1 DUP2 PUSH1 0x1 PUSH1 0x1 PUSH1 0xA0 SHL SUB AND DUP2 MSTORE POP POP DUP8 PUSH1 0x1 PUSH1 0x1 PUSH1 0xA0 SHL SUB AND PUSH4 0x2C86D98E PUSH1 0x40 MLOAD DUP2 PUSH4 0xFFFFFFFF AND PUSH1 0xE0 SHL DUP2 MSTORE PUSH1 0x4 ADD PUSH1 0x20 PUSH1 0x40 MLOAD DUP1 DUP4 SUB DUP2 DUP7 DUP1 EXTCODESIZE ISZERO DUP1 ISZERO PUSH2 0x37B8 JUMPI PUSH1 0x0 DUP1 REVERT JUMPDEST POP GAS STATICCALL ISZERO DUP1 ISZERO PUSH2 0x37CC JUMPI RETURNDATASIZE PUSH1 0x0 DUP1 RETURNDATACOPY RETURNDATASIZE PUSH1 0x0 REVERT JUMPDEST POP POP POP POP PUSH1 0x40 MLOAD RETURNDATASIZE PUSH1 0x1F NOT PUSH1 0x1F DUP3 ADD AND DUP3 ADD DUP1 PUSH1 0x40 MSTORE POP DUP2 ADD SWAP1 PUSH2 0x37F0 SWAP2 SWAP1 PUSH2 0x4E4A JUMP JUMPDEST PUSH1 0xFF AND DUP2 PUSH1 0x60 ADD DUP2 DUP2 MSTORE POP POP DUP8 PUSH1 0x1 PUSH1 0x1 PUSH1 0xA0 SHL SUB AND PUSH4 0x3C974946 PUSH1 0x40 MLOAD DUP2 PUSH4 0xFFFFFFFF AND PUSH1 0xE0 SHL DUP2 MSTORE PUSH1 0x4 ADD PUSH1 0x20 PUSH1 0x40 MLOAD DUP1 DUP4 SUB DUP2 DUP7 DUP1 EXTCODESIZE ISZERO DUP1 ISZERO PUSH2 0x3835 JUMPI PUSH1 0x0 DUP1 REVERT JUMPDEST POP GAS STATICCALL ISZERO DUP1 ISZERO PUSH2 0x3849 JUMPI RETURNDATASIZE PUSH1 0x0 DUP1 RETURNDATACOPY RETURNDATASIZE PUSH1 0x0 REVERT JUMPDEST POP POP POP POP PUSH1 0x40 MLOAD RETURNDATASIZE PUSH1 0x1F NOT PUSH1 0x1F DUP3 ADD AND DUP3 ADD DUP1 PUSH1 0x40 MSTORE POP DUP2 ADD SWAP1 PUSH2 0x386D SWAP2 SWAP1 PUSH2 0x4CDB JUMP JUMPDEST DUP2 PUSH1 0x80 ADD SWAP1 PUSH1 0x1 DUP2 GT ISZERO PUSH2 0x3891 JUMPI PUSH4 0x4E487B71 PUSH1 0xE0 SHL PUSH1 0x0 MSTORE PUSH1 0x21 PUSH1 0x4 MSTORE PUSH1 0x24 PUSH1 0x0 REVERT JUMPDEST SWAP1 DUP2 PUSH1 0x1 DUP2 GT ISZERO PUSH2 0x38B2 JUMPI PUSH4 0x4E487B71 PUSH1 0xE0 SHL PUSH1 0x0 MSTORE PUSH1 0x21 PUSH1 0x4 MSTORE PUSH1 0x24 PUSH1 0x0 REVERT JUMPDEST DUP2 MSTORE POP POP DUP8 PUSH1 0x1 PUSH1 0x1 PUSH1 0xA0 SHL SUB AND PUSH4 0xBBB1863A PUSH1 0x40 MLOAD DUP2 PUSH4 0xFFFFFFFF AND PUSH1 0xE0 SHL DUP2 MSTORE PUSH1 0x4 ADD PUSH1 0x20 PUSH1 0x40 MLOAD DUP1 DUP4 SUB DUP2 DUP7 DUP1 EXTCODESIZE ISZERO DUP1 ISZERO PUSH2 0x38EF JUMPI PUSH1 0x0 DUP1 REVERT JUMPDEST POP GAS STATICCALL ISZERO DUP1 ISZERO PUSH2 0x3903 JUMPI RETURNDATASIZE PUSH1 0x0 DUP1 RETURNDATACOPY RETURNDATASIZE PUSH1 0x0 REVERT JUMPDEST POP POP POP POP PUSH1 0x40 MLOAD RETURNDATASIZE PUSH1 0x1F NOT PUSH1 0x1F DUP3 ADD AND DUP3 ADD DUP1 PUSH1 0x40 MSTORE POP DUP2 ADD SWAP1 PUSH2 0x3927 SWAP2 SWAP1 PUSH2 0x4B3C JUMP JUMPDEST PUSH1 0x1 PUSH1 0x1 PUSH1 0xA0 SHL SUB AND PUSH4 0x60961528 PUSH1 0x40 MLOAD DUP2 PUSH4 0xFFFFFFFF AND PUSH1 0xE0 SHL DUP2 MSTORE PUSH1 0x4 ADD PUSH1 0x20 PUSH1 0x40 MLOAD DUP1 DUP4 SUB DUP2 DUP7 DUP1 EXTCODESIZE ISZERO DUP1 ISZERO PUSH2 0x395F JUMPI PUSH1 0x0 DUP1 REVERT JUMPDEST POP GAS STATICCALL ISZERO DUP1 ISZERO PUSH2 0x3973 JUMPI RETURNDATASIZE PUSH1 0x0 DUP1 RETURNDATACOPY RETURNDATASIZE PUSH1 0x0 REVERT JUMPDEST POP POP POP POP PUSH1 0x40 MLOAD RETURNDATASIZE PUSH1 0x1F NOT PUSH1 0x1F DUP3 ADD AND DUP3 ADD DUP1 PUSH1 0x40 MSTORE POP DUP2 ADD SWAP1 PUSH2 0x3997 SWAP2 SWAP1 PUSH2 0x4B3C JUMP JUMPDEST DUP2 PUSH1 0xA0 ADD SWAP1 PUSH1 0x1 PUSH1 0x1 PUSH1 0xA0 SHL SUB AND SWAP1 DUP2 PUSH1 0x1 PUSH1 0x1 PUSH1 0xA0 SHL SUB AND DUP2 MSTORE POP POP DUP8 PUSH1 0x1 PUSH1 0x1 PUSH1 0xA0 SHL SUB AND PUSH4 0xDDD6F962 PUSH1 0x40 MLOAD DUP2 PUSH4 0xFFFFFFFF AND PUSH1 0xE0 SHL DUP2 MSTORE PUSH1 0x4 ADD PUSH1 0x20 PUSH1 0x40 MLOAD DUP1 DUP4 SUB DUP2 DUP7 DUP1 EXTCODESIZE ISZERO DUP1 ISZERO PUSH2 0x39ED JUMPI PUSH1 0x0 DUP1 REVERT JUMPDEST POP GAS STATICCALL ISZERO DUP1 ISZERO PUSH2 0x3A01 JUMPI RETURNDATASIZE PUSH1 0x0 DUP1 RETURNDATACOPY RETURNDATASIZE PUSH1 0x0 REVERT JUMPDEST POP POP POP POP PUSH1 0x40 MLOAD RETURNDATASIZE PUSH1 0x1F NOT PUSH1 0x1F DUP3 ADD AND DUP3 ADD DUP1 PUSH1 0x40 MSTORE POP DUP2 ADD SWAP1 PUSH2 0x3A25 SWAP2 SWAP1 PUSH2 0x4D0F JUMP JUMPDEST DUP4 PUSH1 0x0 ADD DUP2 DUP2 MSTORE POP POP DUP8 PUSH1 0x1 PUSH1 0x1 PUSH1 0xA0 SHL SUB AND PUSH4 0x8A3809D PUSH1 0x40 MLOAD DUP2 PUSH4 0xFFFFFFFF AND PUSH1 0xE0 SHL DUP2 MSTORE PUSH1 0x4 ADD PUSH1 0x20 PUSH1 0x40 MLOAD DUP1 DUP4 SUB DUP2 DUP7 DUP1 EXTCODESIZE ISZERO DUP1 ISZERO PUSH2 0x3A67 JUMPI PUSH1 0x0 DUP1 REVERT JUMPDEST POP GAS STATICCALL ISZERO DUP1 ISZERO PUSH2 0x3A7B JUMPI RETURNDATASIZE PUSH1 0x0 DUP1 RETURNDATACOPY RETURNDATASIZE PUSH1 0x0 REVERT JUMPDEST POP POP POP POP PUSH1 0x40 MLOAD RETURNDATASIZE PUSH1 0x1F NOT PUSH1 0x1F DUP3 ADD AND DUP3 ADD DUP1 PUSH1 0x40 MSTORE POP DUP2 ADD SWAP1 PUSH2 0x3A9F SWAP2 SWAP1 PUSH2 0x4D0F JUMP JUMPDEST PUSH1 0x20 DUP5 ADD MSTORE TIMESTAMP PUSH1 0x60 DUP5 ADD MSTORE PUSH1 0xA0 DUP2 ADD MLOAD PUSH1 0x40 DUP1 DUP4 ADD MLOAD SWAP1 MLOAD PUSH4 0x41976E09 PUSH1 0xE0 SHL DUP2 MSTORE PUSH1 0x1 PUSH1 0x1 PUSH1 0xA0 SHL SUB SWAP2 DUP3 AND PUSH1 0x4 DUP3 ADD MSTORE SWAP2 AND SWAP1 PUSH4 0x41976E09 SWAP1 PUSH1 0x24 ADD PUSH1 0x40 DUP1 MLOAD DUP1 DUP4 SUB DUP2 DUP7 DUP1 EXTCODESIZE ISZERO DUP1 ISZERO PUSH2 0x3AF4 JUMPI PUSH1 0x0 DUP1 REVERT JUMPDEST POP GAS STATICCALL ISZERO DUP1 ISZERO PUSH2 0x3B08 JUMPI RETURNDATASIZE PUSH1 0x0 DUP1 RETURNDATACOPY RETURNDATASIZE PUSH1 0x0 REVERT JUMPDEST POP POP POP POP PUSH1 0x40 MLOAD RETURNDATASIZE PUSH1 0x1F NOT PUSH1 0x1F DUP3 ADD AND DUP3 ADD DUP1 PUSH1 0x40 MSTORE POP DUP2 ADD SWAP1 PUSH2 0x3B2C SWAP2 SWAP1 PUSH2 0x4E27 JUMP JUMPDEST POP PUSH1 0x40 DUP5 ADD DUP2 SWAP1 MSTORE PUSH2 0x3B80 JUMPI PUSH1 0x40 MLOAD PUSH3 0x461BCD PUSH1 0xE5 SHL DUP2 MSTORE PUSH1 0x20 PUSH1 0x4 DUP3 ADD MSTORE PUSH1 0x1A PUSH1 0x24 DUP3 ADD MSTORE PUSH32 0x434242433A20494C4C4547414C5F54524144455F50524943452E000000000000 PUSH1 0x44 DUP3 ADD MSTORE PUSH1 0x64 ADD PUSH2 0x760 JUMP JUMPDEST DUP3 MLOAD PUSH2 0x3B98 JUMPI PUSH1 0x40 DUP4 ADD MLOAD DUP4 MSTORE PUSH1 0x60 DUP4 ADD MLOAD PUSH1 0x20 DUP5 ADD MSTORE JUMPDEST DUP8 PUSH1 0x1 PUSH1 0x1 PUSH1 0xA0 SHL SUB AND PUSH4 0x9FAA3C91 PUSH1 0x40 MLOAD DUP2 PUSH4 0xFFFFFFFF AND PUSH1 0xE0 SHL DUP2 MSTORE PUSH1 0x4 ADD PUSH1 0x20 PUSH1 0x40 MLOAD DUP1 DUP4 SUB DUP2 DUP7 DUP1 EXTCODESIZE ISZERO DUP1 ISZERO PUSH2 0x3BD1 JUMPI PUSH1 0x0 DUP1 REVERT JUMPDEST POP GAS STATICCALL ISZERO DUP1 ISZERO PUSH2 0x3BE5 JUMPI RETURNDATASIZE PUSH1 0x0 DUP1 RETURNDATACOPY RETURNDATASIZE PUSH1 0x0 REVERT JUMPDEST POP POP POP POP PUSH1 0x40 MLOAD RETURNDATASIZE PUSH1 0x1F NOT PUSH1 0x1F DUP3 ADD AND DUP3 ADD DUP1 PUSH1 0x40 MSTORE POP DUP2 ADD SWAP1 PUSH2 0x3C09 SWAP2 SWAP1 PUSH2 0x4D0F JUMP JUMPDEST DUP3 PUSH1 0x0 ADD DUP2 DUP2 MSTORE POP POP DUP1 PUSH1 0x0 ADD MLOAD PUSH1 0x1 PUSH1 0x1 PUSH1 0xA0 SHL SUB AND PUSH4 0x88E97C3C PUSH1 0x40 MLOAD DUP2 PUSH4 0xFFFFFFFF AND PUSH1 0xE0 SHL DUP2 MSTORE PUSH1 0x4 ADD PUSH1 0x20 PUSH1 0x40 MLOAD DUP1 DUP4 SUB DUP2 DUP7 DUP1 EXTCODESIZE ISZERO DUP1 ISZERO PUSH2 0x3C4F JUMPI PUSH1 0x0 DUP1 REVERT JUMPDEST POP GAS STATICCALL ISZERO DUP1 ISZERO PUSH2 0x3C63 JUMPI RETURNDATASIZE PUSH1 0x0 DUP1 RETURNDATACOPY RETURNDATASIZE PUSH1 0x0 REVERT JUMPDEST POP POP POP POP PUSH1 0x40 MLOAD RETURNDATASIZE PUSH1 0x1F NOT PUSH1 0x1F DUP3 ADD AND DUP3 ADD DUP1 PUSH1 0x40 MSTORE POP DUP2 ADD SWAP1 PUSH2 0x3C87 SWAP2 SWAP1 PUSH2 0x4D0F JUMP JUMPDEST DUP3 PUSH1 0x20 ADD DUP2 DUP2 MSTORE POP POP DUP1 PUSH1 0x0 ADD MLOAD PUSH1 0x1 PUSH1 0x1 PUSH1 0xA0 SHL SUB AND PUSH4 0xCBD17C67 PUSH1 0x40 MLOAD DUP2 PUSH4 0xFFFFFFFF AND PUSH1 0xE0 SHL DUP2 MSTORE PUSH1 0x4 ADD PUSH1 0x20 PUSH1 0x40 MLOAD DUP1 DUP4 SUB DUP2 DUP7 DUP1 EXTCODESIZE ISZERO DUP1 ISZERO PUSH2 0x3CCD JUMPI PUSH1 0x0 DUP1 REVERT JUMPDEST POP GAS STATICCALL ISZERO DUP1 ISZERO PUSH2 0x3CE1 JUMPI RETURNDATASIZE PUSH1 0x0 DUP1 RETURNDATACOPY RETURNDATASIZE PUSH1 0x0 REVERT JUMPDEST POP POP POP POP PUSH1 0x40 MLOAD RETURNDATASIZE PUSH1 0x1F NOT PUSH1 0x1F DUP3 ADD AND DUP3 ADD DUP1 PUSH1 0x40 MSTORE POP DUP2 ADD SWAP1 PUSH2 0x3D05 SWAP2 SWAP1 PUSH2 0x4D0F JUMP JUMPDEST PUSH1 0x40 DUP1 DUP5 ADD SWAP2 SWAP1 SWAP2 MSTORE PUSH1 0xA0 DUP3 ADD MLOAD DUP3 DUP3 ADD MLOAD SWAP2 MLOAD PUSH4 0x4094F10B PUSH1 0xE0 SHL DUP2 MSTORE PUSH1 0x1 PUSH1 0x1 PUSH1 0xA0 SHL SUB SWAP3 DUP4 AND PUSH1 0x4 DUP3 ADD MSTORE SWAP2 AND SWAP1 PUSH4 0x4094F10B SWAP1 PUSH1 0x24 ADD PUSH1 0x20 PUSH1 0x40 MLOAD DUP1 DUP4 SUB DUP2 DUP7 DUP1 EXTCODESIZE ISZERO DUP1 ISZERO PUSH2 0x3D57 JUMPI PUSH1 0x0 DUP1 REVERT JUMPDEST POP GAS STATICCALL ISZERO DUP1 ISZERO PUSH2 0x3D6B JUMPI RETURNDATASIZE PUSH1 0x0 DUP1 RETURNDATACOPY RETURNDATASIZE PUSH1 0x0 REVERT JUMPDEST POP POP POP POP PUSH1 0x40 MLOAD RETURNDATASIZE PUSH1 0x1F NOT PUSH1 0x1F DUP3 ADD AND DUP3 ADD DUP1 PUSH1 0x40 MSTORE POP DUP2 ADD SWAP1 PUSH2 0x3D8F SWAP2 SWAP1 PUSH2 0x4D0F JUMP JUMPDEST PUSH1 0x60 DUP4 ADD MSTORE PUSH1 0xA0 DUP2 ADD MLOAD PUSH1 0x40 DUP1 DUP4 ADD MLOAD SWAP1 MLOAD PUSH4 0xD3EA0F89 PUSH1 0xE0 SHL DUP2 MSTORE PUSH1 0x1 PUSH1 0x1 PUSH1 0xA0 SHL SUB SWAP2 DUP3 AND PUSH1 0x4 DUP3 ADD MSTORE SWAP2 AND SWAP1 PUSH4 0xD3EA0F89 SWAP1 PUSH1 0x24 ADD PUSH1 0x20 PUSH1 0x40 MLOAD DUP1 DUP4 SUB DUP2 DUP7 DUP1 EXTCODESIZE ISZERO DUP1 ISZERO PUSH2 0x3DDF JUMPI PUSH1 0x0 DUP1 REVERT JUMPDEST POP GAS STATICCALL ISZERO DUP1 ISZERO PUSH2 0x3DF3 JUMPI RETURNDATASIZE PUSH1 0x0 DUP1 RETURNDATACOPY RETURNDATASIZE PUSH1 0x0 REVERT JUMPDEST POP POP POP POP PUSH1 0x40 MLOAD RETURNDATASIZE PUSH1 0x1F NOT PUSH1 0x1F DUP3 ADD AND DUP3 ADD DUP1 PUSH1 0x40 MSTORE POP DUP2 ADD SWAP1 PUSH2 0x3E17 SWAP2 SWAP1 PUSH2 0x4D0F JUMP JUMPDEST PUSH1 0x80 DUP4 ADD MSTORE PUSH1 0xA0 DUP2 ADD MLOAD PUSH1 0x40 DUP1 DUP4 ADD MLOAD SWAP1 MLOAD PUSH4 0x4189C95D PUSH1 0xE0 SHL DUP2 MSTORE PUSH1 0x1 PUSH1 0x1 PUSH1 0xA0 SHL SUB SWAP2 DUP3 AND PUSH1 0x4 DUP3 ADD MSTORE SWAP2 AND SWAP1 PUSH4 0x4189C95D SWAP1 PUSH1 0x24 ADD PUSH1 0x20 PUSH1 0x40 MLOAD DUP1 DUP4 SUB DUP2 DUP7 DUP1 EXTCODESIZE ISZERO DUP1 ISZERO PUSH2 0x3E67 JUMPI PUSH1 0x0 DUP1 REVERT JUMPDEST POP GAS STATICCALL ISZERO DUP1 ISZERO PUSH2 0x3E7B JUMPI RETURNDATASIZE PUSH1 0x0 DUP1 RETURNDATACOPY RETURNDATASIZE PUSH1 0x0 REVERT JUMPDEST POP POP POP POP PUSH1 0x40 MLOAD RETURNDATASIZE PUSH1 0x1F NOT PUSH1 0x1F DUP3 ADD AND DUP3 ADD DUP1 PUSH1 0x40 MSTORE POP DUP2 ADD SWAP1 PUSH2 0x3E9F SWAP2 SWAP1 PUSH2 0x4D0F JUMP JUMPDEST PUSH1 0xA0 DUP4 DUP2 ADD SWAP2 SWAP1 SWAP2 MSTORE DUP2 ADD MLOAD PUSH1 0x40 DUP1 DUP4 ADD MLOAD SWAP1 MLOAD PUSH4 0x84F4B61F PUSH1 0xE0 SHL DUP2 MSTORE PUSH1 0x1 PUSH1 0x1 PUSH1 0xA0 SHL SUB SWAP2 DUP3 AND PUSH1 0x4 DUP3 ADD MSTORE SWAP2 AND SWAP1 PUSH4 0x84F4B61F SWAP1 PUSH1 0x24 ADD PUSH1 0x20 PUSH1 0x40 MLOAD DUP1 DUP4 SUB DUP2 DUP7 DUP1 EXTCODESIZE ISZERO DUP1 ISZERO PUSH2 0x3EF1 JUMPI PUSH1 0x0 DUP1 REVERT JUMPDEST POP GAS STATICCALL ISZERO DUP1 ISZERO PUSH2 0x3F05 JUMPI RETURNDATASIZE PUSH1 0x0 DUP1 RETURNDATACOPY RETURNDATASIZE PUSH1 0x0 REVERT JUMPDEST POP POP POP POP PUSH1 0x40 MLOAD RETURNDATASIZE PUSH1 0x1F NOT PUSH1 0x1F DUP3 ADD AND DUP3 ADD DUP1 PUSH1 0x40 MSTORE POP DUP2 ADD SWAP1 PUSH2 0x3F29 SWAP2 SWAP1 PUSH2 0x4D0F JUMP JUMPDEST PUSH1 0xC0 DUP4 ADD DUP2 SWAP1 MSTORE PUSH2 0x3F7C JUMPI PUSH1 0x40 MLOAD PUSH3 0x461BCD PUSH1 0xE5 SHL DUP2 MSTORE PUSH1 0x20 PUSH1 0x4 DUP3 ADD MSTORE PUSH1 0x1B PUSH1 0x24 DUP3 ADD MSTORE PUSH32 0x434242433A20494C4C4547414C5F4441494C595F564F4C554D452E0000000000 PUSH1 0x44 DUP3 ADD MSTORE PUSH1 0x64 ADD PUSH2 0x760 JUMP JUMPDEST PUSH1 0x0 DUP8 ISZERO DUP1 ISZERO PUSH2 0x3F8A JUMPI POP DUP7 ISZERO JUMPDEST ISZERO PUSH2 0x3FA8 JUMPI PUSH2 0x3F9D DUP5 DUP4 DUP6 PUSH1 0x0 DUP11 PUSH2 0x420B JUMP JUMPDEST SWAP5 POP POP POP POP POP PUSH2 0x4148 JUMP JUMPDEST PUSH1 0x0 PUSH2 0x3FB8 DUP6 DUP5 DUP7 PUSH1 0x0 DUP12 PUSH2 0x420B JUMP JUMPDEST SWAP1 POP PUSH1 0x0 DUP6 PUSH1 0x40 ADD MLOAD DUP5 PUSH1 0x40 ADD MLOAD PUSH1 0x1 PUSH1 0x1 PUSH1 0xA0 SHL SUB AND PUSH4 0x313CE567 PUSH1 0x40 MLOAD DUP2 PUSH4 0xFFFFFFFF AND PUSH1 0xE0 SHL DUP2 MSTORE PUSH1 0x4 ADD PUSH1 0x20 PUSH1 0x40 MLOAD DUP1 DUP4 SUB DUP2 DUP7 DUP1 EXTCODESIZE ISZERO DUP1 ISZERO PUSH2 0x3FFE JUMPI PUSH1 0x0 DUP1 REVERT JUMPDEST POP GAS STATICCALL ISZERO DUP1 ISZERO PUSH2 0x4012 JUMPI RETURNDATASIZE PUSH1 0x0 DUP1 RETURNDATACOPY RETURNDATASIZE PUSH1 0x0 REVERT JUMPDEST POP POP POP POP PUSH1 0x40 MLOAD RETURNDATASIZE PUSH1 0x1F NOT PUSH1 0x1F DUP3 ADD AND DUP3 ADD DUP1 PUSH1 0x40 MSTORE POP DUP2 ADD SWAP1 PUSH2 0x4036 SWAP2 SWAP1 PUSH2 0x4E4A JUMP JUMPDEST PUSH2 0x4041 SWAP1 PUSH1 0xA PUSH2 0x532C JUMP JUMPDEST DUP6 PUSH1 0x60 ADD MLOAD DUP12 DUP8 PUSH1 0x20 ADD MLOAD PUSH1 0x1 PUSH1 0x1 PUSH1 0xA0 SHL SUB AND PUSH4 0x313CE567 PUSH1 0x40 MLOAD DUP2 PUSH4 0xFFFFFFFF AND PUSH1 0xE0 SHL DUP2 MSTORE PUSH1 0x4 ADD PUSH1 0x20 PUSH1 0x40 MLOAD DUP1 DUP4 SUB DUP2 DUP7 DUP1 EXTCODESIZE ISZERO DUP1 ISZERO PUSH2 0x4084 JUMPI PUSH1 0x0 DUP1 REVERT JUMPDEST POP GAS STATICCALL ISZERO DUP1 ISZERO PUSH2 0x4098 JUMPI RETURNDATASIZE PUSH1 0x0 DUP1 RETURNDATACOPY RETURNDATASIZE PUSH1 0x0 REVERT JUMPDEST POP POP POP POP PUSH1 0x40 MLOAD RETURNDATASIZE PUSH1 0x1F NOT PUSH1 0x1F DUP3 ADD AND DUP3 ADD DUP1 PUSH1 0x40 MSTORE POP DUP2 ADD SWAP1 PUSH2 0x40BC SWAP2 SWAP1 PUSH2 0x4E4A JUMP JUMPDEST PUSH2 0x40C7 SWAP1 PUSH1 0xA PUSH2 0x532C JUMP JUMPDEST DUP7 DUP16 PUSH8 0xDE0B6B3A7640000 PUSH2 0x40DC SWAP2 SWAP1 PUSH2 0x53FE JUMP JUMPDEST PUSH2 0x40E6 SWAP2 SWAP1 PUSH2 0x52C3 JUMP JUMPDEST PUSH2 0x40F8 SWAP1 PUSH8 0xDE0B6B3A7640000 PUSH2 0x53FE JUMP JUMPDEST PUSH2 0x4102 SWAP2 SWAP1 PUSH2 0x52C3 JUMP JUMPDEST PUSH2 0x410C SWAP2 SWAP1 PUSH2 0x52AB JUMP JUMPDEST PUSH2 0x4116 SWAP2 SWAP1 PUSH2 0x53FE JUMP JUMPDEST PUSH2 0x4120 SWAP2 SWAP1 PUSH2 0x53FE JUMP JUMPDEST PUSH2 0x412A SWAP2 SWAP1 PUSH2 0x52C3 JUMP JUMPDEST SWAP1 POP PUSH2 0x4137 DUP6 DUP3 DUP11 PUSH2 0x4919 JUMP JUMPDEST SWAP3 POP POP POP PUSH2 0x3F9D DUP5 DUP4 DUP6 DUP5 DUP11 PUSH2 0x420B JUMP JUMPDEST SWAP5 SWAP4 POP POP POP POP JUMP JUMPDEST PUSH1 0x0 PUSH1 0x14 PUSH2 0x415F DUP4 PUSH1 0x13 PUSH2 0x53FE JUMP JUMPDEST PUSH2 0x4169 SWAP2 SWAP1 PUSH2 0x52C3 JUMP JUMPDEST DUP4 GT PUSH2 0x4176 JUMPI POP DUP2 PUSH2 0x41E5 JUMP JUMPDEST PUSH2 0x4181 DUP4 PUSH1 0x64 PUSH2 0x53FE JUMP JUMPDEST PUSH1 0x14 PUSH2 0x418E DUP5 PUSH1 0x13 PUSH2 0x53FE JUMP JUMPDEST PUSH2 0x4198 SWAP2 SWAP1 PUSH2 0x52C3 JUMP JUMPDEST PUSH2 0x41A2 SWAP1 DUP6 PUSH2 0x541D JUMP JUMPDEST PUSH2 0x41AC SWAP1 DUP5 PUSH2 0x53FE JUMP JUMPDEST PUSH2 0x41B7 SWAP1 PUSH1 0x4 PUSH2 0x53FE JUMP JUMPDEST PUSH2 0x41C1 SWAP2 SWAP1 PUSH2 0x52C3 JUMP JUMPDEST PUSH1 0x14 PUSH2 0x41CE DUP5 PUSH1 0x13 PUSH2 0x53FE JUMP JUMPDEST PUSH2 0x41D8 SWAP2 SWAP1 PUSH2 0x52C3 JUMP JUMPDEST PUSH2 0x41E2 SWAP2 SWAP1 PUSH2 0x52AB JUMP JUMPDEST SWAP1 POP JUMPDEST DUP2 DUP4 LT DUP1 PUSH2 0x41F1 JUMPI POP DUP2 ISZERO JUMPDEST PUSH2 0x71B JUMPI PUSH4 0x4E487B71 PUSH1 0xE0 SHL PUSH1 0x0 MSTORE PUSH1 0x1 PUSH1 0x4 MSTORE PUSH1 0x24 PUSH1 0x0 REVERT JUMPDEST DUP5 MLOAD PUSH1 0x40 DUP7 ADD MLOAD PUSH1 0x60 DUP7 ADD MLOAD DUP6 MLOAD PUSH1 0x0 SWAP4 SWAP3 SWAP2 SWAP1 DUP5 DUP3 DUP6 PUSH2 0x422D DUP3 PUSH1 0x1 PUSH2 0x52AB JUMP JUMPDEST PUSH2 0x4237 SWAP2 SWAP1 PUSH2 0x53FE JUMP JUMPDEST PUSH2 0x4241 SWAP2 SWAP1 PUSH2 0x52C3 JUMP JUMPDEST SWAP1 POP PUSH1 0x0 DUP4 DUP7 PUSH2 0x4252 PUSH1 0x1 DUP4 PUSH2 0x541D JUMP JUMPDEST PUSH2 0x425C SWAP2 SWAP1 PUSH2 0x53FE JUMP JUMPDEST PUSH2 0x4266 SWAP2 SWAP1 PUSH2 0x52C3 JUMP JUMPDEST SWAP1 POP PUSH1 0x0 DUP1 DUP3 DUP8 LT ISZERO PUSH2 0x427B JUMPI DUP3 SWAP7 POP PUSH2 0x4287 JUMP JUMPDEST DUP4 DUP8 GT ISZERO PUSH2 0x4287 JUMPI DUP4 SWAP7 POP JUMPDEST PUSH1 0x1 DUP14 PUSH1 0x80 ADD MLOAD PUSH1 0x1 DUP2 GT ISZERO PUSH2 0x42AD JUMPI PUSH4 0x4E487B71 PUSH1 0xE0 SHL PUSH1 0x0 MSTORE PUSH1 0x21 PUSH1 0x4 MSTORE PUSH1 0x24 PUSH1 0x0 REVERT JUMPDEST EQ ISZERO PUSH2 0x45AE JUMPI PUSH1 0x0 DUP11 PUSH1 0x1 DUP2 GT ISZERO PUSH2 0x42D5 JUMPI PUSH4 0x4E487B71 PUSH1 0xE0 SHL PUSH1 0x0 MSTORE PUSH1 0x21 PUSH1 0x4 MSTORE PUSH1 0x24 PUSH1 0x0 REVERT JUMPDEST EQ ISZERO PUSH2 0x42EC JUMPI PUSH2 0x42E5 DUP12 DUP9 PUSH2 0x52AB JUMP JUMPDEST SWAP7 POP PUSH2 0x4303 JUMP JUMPDEST PUSH2 0x42F6 DUP12 DUP9 PUSH2 0x4150 JUMP JUMPDEST PUSH2 0x4300 SWAP1 DUP9 PUSH2 0x541D JUMP JUMPDEST SWAP7 POP JUMPDEST PUSH1 0x0 DUP6 SGT ISZERO PUSH2 0x43B9 JUMPI DUP7 PUSH2 0x4317 DUP5 DUP3 PUSH2 0x541D JUMP JUMPDEST PUSH2 0x4321 DUP10 DUP8 PUSH2 0x541D JUMP JUMPDEST PUSH2 0x432A DUP9 PUSH2 0x32B3 JUMP JUMPDEST PUSH2 0x4334 SWAP2 SWAP1 PUSH2 0x53FE JUMP JUMPDEST PUSH2 0x433E SWAP2 SWAP1 PUSH2 0x53FE JUMP JUMPDEST PUSH2 0x4348 SWAP2 SWAP1 PUSH2 0x52C3 JUMP JUMPDEST PUSH2 0x4354 DUP9 PUSH2 0x3E8 PUSH2 0x53FE JUMP JUMPDEST PUSH2 0x435E SWAP2 SWAP1 PUSH2 0x52AB JUMP JUMPDEST SWAP2 POP DUP8 PUSH2 0x436B DUP5 DUP3 PUSH2 0x541D JUMP JUMPDEST PUSH2 0x4375 DUP11 DUP8 PUSH2 0x541D JUMP JUMPDEST PUSH2 0x437E DUP9 PUSH2 0x32B3 JUMP JUMPDEST PUSH2 0x4388 SWAP2 SWAP1 PUSH2 0x53FE JUMP JUMPDEST PUSH2 0x4392 SWAP2 SWAP1 PUSH2 0x53FE JUMP JUMPDEST PUSH2 0x439C SWAP2 SWAP1 PUSH2 0x52C3 JUMP JUMPDEST PUSH2 0x43A8 DUP10 PUSH2 0x3E8 PUSH2 0x53FE JUMP JUMPDEST PUSH2 0x43B2 SWAP2 SWAP1 PUSH2 0x52AB JUMP JUMPDEST SWAP1 POP PUSH2 0x4462 JUMP JUMPDEST DUP7 PUSH2 0x43C4 DUP5 DUP3 PUSH2 0x541D JUMP JUMPDEST PUSH2 0x43CE DUP10 DUP8 PUSH2 0x541D JUMP JUMPDEST PUSH2 0x43D7 DUP9 PUSH2 0x32B3 JUMP JUMPDEST PUSH2 0x43E1 SWAP2 SWAP1 PUSH2 0x53FE JUMP JUMPDEST PUSH2 0x43EB SWAP2 SWAP1 PUSH2 0x53FE JUMP JUMPDEST PUSH2 0x43F5 SWAP2 SWAP1 PUSH2 0x52C3 JUMP JUMPDEST PUSH2 0x4401 DUP9 PUSH2 0x3E8 PUSH2 0x53FE JUMP JUMPDEST PUSH2 0x440B SWAP2 SWAP1 PUSH2 0x541D JUMP JUMPDEST SWAP2 POP DUP8 PUSH2 0x4418 DUP5 DUP3 PUSH2 0x541D JUMP JUMPDEST PUSH2 0x4422 DUP11 DUP8 PUSH2 0x541D JUMP JUMPDEST PUSH2 0x442B DUP9 PUSH2 0x32B3 JUMP JUMPDEST PUSH2 0x4435 SWAP2 SWAP1 PUSH2 0x53FE JUMP JUMPDEST PUSH2 0x443F SWAP2 SWAP1 PUSH2 0x53FE JUMP JUMPDEST PUSH2 0x4449 SWAP2 SWAP1 PUSH2 0x52C3 JUMP JUMPDEST PUSH2 0x4455 DUP10 PUSH2 0x3E8 PUSH2 0x53FE JUMP JUMPDEST PUSH2 0x445F SWAP2 SWAP1 PUSH2 0x541D JUMP JUMPDEST SWAP1 POP JUMPDEST PUSH4 0x1E13380 DUP15 PUSH1 0x20 ADD MLOAD DUP16 PUSH1 0x60 ADD MLOAD PUSH2 0x447B SWAP2 SWAP1 PUSH2 0x541D JUMP JUMPDEST DUP14 PUSH1 0x80 ADD MLOAD PUSH2 0x448A SWAP2 SWAP1 PUSH2 0x53FE JUMP JUMPDEST PUSH2 0x449A SWAP1 PUSH6 0x1CAE8C13E000 PUSH2 0x52AB JUMP JUMPDEST PUSH2 0x44A5 PUSH1 0x1 DUP10 PUSH2 0x541D JUMP JUMPDEST PUSH2 0x44B4 SWAP1 PUSH5 0xE8D4A51000 PUSH2 0x53FE JUMP JUMPDEST PUSH2 0x44BE SWAP2 SWAP1 PUSH2 0x53FE JUMP JUMPDEST PUSH2 0x44C8 SWAP2 SWAP1 PUSH2 0x52C3 JUMP JUMPDEST PUSH2 0x44D8 SWAP1 PUSH6 0x5AF3107A4000 PUSH2 0x52AB JUMP JUMPDEST DUP2 PUSH2 0x44E3 DUP5 DUP10 PUSH2 0x53FE JUMP JUMPDEST PUSH2 0x44F5 SWAP1 PUSH8 0xDE0B6B3A7640000 PUSH2 0x53FE JUMP JUMPDEST PUSH2 0x44FF SWAP2 SWAP1 PUSH2 0x52C3 JUMP JUMPDEST GT PUSH2 0x4510 JUMPI PUSH6 0x5AF3107A4000 PUSH2 0x45A7 JUMP JUMPDEST PUSH4 0x1E13380 DUP15 PUSH1 0x20 ADD MLOAD DUP16 PUSH1 0x60 ADD MLOAD PUSH2 0x4529 SWAP2 SWAP1 PUSH2 0x541D JUMP JUMPDEST DUP14 PUSH1 0x80 ADD MLOAD PUSH2 0x4538 SWAP2 SWAP1 PUSH2 0x53FE JUMP JUMPDEST PUSH2 0x4548 SWAP1 PUSH6 0x1CAE8C13E000 PUSH2 0x52AB JUMP JUMPDEST PUSH2 0x4553 PUSH1 0x1 DUP10 PUSH2 0x541D JUMP JUMPDEST PUSH2 0x4562 SWAP1 PUSH5 0xE8D4A51000 PUSH2 0x53FE JUMP JUMPDEST PUSH2 0x456C SWAP2 SWAP1 PUSH2 0x53FE JUMP JUMPDEST PUSH2 0x4576 SWAP2 SWAP1 PUSH2 0x52C3 JUMP JUMPDEST DUP2 PUSH2 0x4581 DUP5 DUP10 PUSH2 0x53FE JUMP JUMPDEST PUSH2 0x4593 SWAP1 PUSH8 0xDE0B6B3A7640000 PUSH2 0x53FE JUMP JUMPDEST PUSH2 0x459D SWAP2 SWAP1 PUSH2 0x52C3 JUMP JUMPDEST PUSH2 0x45A7 SWAP2 SWAP1 PUSH2 0x541D JUMP JUMPDEST SWAP9 POP PUSH2 0x4908 JUMP JUMPDEST PUSH1 0x0 DUP14 PUSH1 0x80 ADD MLOAD PUSH1 0x1 DUP2 GT ISZERO PUSH2 0x45D4 JUMPI PUSH4 0x4E487B71 PUSH1 0xE0 SHL PUSH1 0x0 MSTORE PUSH1 0x21 PUSH1 0x4 MSTORE PUSH1 0x24 PUSH1 0x0 REVERT JUMPDEST EQ ISZERO PUSH2 0x48CE JUMPI PUSH1 0x0 DUP11 PUSH1 0x1 DUP2 GT ISZERO PUSH2 0x45FC JUMPI PUSH4 0x4E487B71 PUSH1 0xE0 SHL PUSH1 0x0 MSTORE PUSH1 0x21 PUSH1 0x4 MSTORE PUSH1 0x24 PUSH1 0x0 REVERT JUMPDEST EQ ISZERO PUSH2 0x461D JUMPI PUSH2 0x460C DUP12 DUP9 PUSH2 0x4150 JUMP JUMPDEST PUSH2 0x4616 SWAP1 DUP9 PUSH2 0x541D JUMP JUMPDEST SWAP7 POP PUSH2 0x462A JUMP JUMPDEST PUSH2 0x4627 DUP12 DUP9 PUSH2 0x52AB JUMP JUMPDEST SWAP7 POP JUMPDEST PUSH1 0x0 DUP6 SGT ISZERO PUSH2 0x472E JUMPI PUSH6 0x1CAE8C13E000 DUP15 PUSH1 0x20 ADD MLOAD DUP16 PUSH1 0x60 ADD MLOAD PUSH2 0x464E SWAP2 SWAP1 PUSH2 0x541D JUMP JUMPDEST DUP14 PUSH1 0x80 ADD MLOAD PUSH2 0x465D SWAP2 SWAP1 PUSH2 0x53FE JUMP JUMPDEST PUSH2 0x466D SWAP1 PUSH6 0x2DE41353000 PUSH2 0x52AB JUMP JUMPDEST DUP9 PUSH2 0x4678 DUP7 DUP3 PUSH2 0x541D JUMP JUMPDEST PUSH2 0x4682 DUP12 DUP10 PUSH2 0x541D JUMP JUMPDEST PUSH2 0x468B DUP11 PUSH2 0x32B3 JUMP JUMPDEST PUSH2 0x4695 SWAP2 SWAP1 PUSH2 0x53FE JUMP JUMPDEST PUSH2 0x469F SWAP2 SWAP1 PUSH2 0x53FE JUMP JUMPDEST PUSH2 0x46A9 SWAP2 SWAP1 PUSH2 0x52C3 JUMP JUMPDEST PUSH2 0x46B5 DUP11 PUSH2 0x3E8 PUSH2 0x53FE JUMP JUMPDEST PUSH2 0x46BF SWAP2 SWAP1 PUSH2 0x52AB JUMP JUMPDEST PUSH2 0x46C9 SWAP2 SWAP1 PUSH2 0x53FE JUMP JUMPDEST PUSH2 0x46D3 SWAP2 SWAP1 PUSH2 0x52C3 JUMP JUMPDEST SWAP2 POP DUP8 PUSH2 0x46E0 DUP5 DUP3 PUSH2 0x541D JUMP JUMPDEST PUSH2 0x46EA DUP11 DUP8 PUSH2 0x541D JUMP JUMPDEST PUSH2 0x46F3 DUP9 PUSH2 0x32B3 JUMP JUMPDEST PUSH2 0x46FD SWAP2 SWAP1 PUSH2 0x53FE JUMP JUMPDEST PUSH2 0x4707 SWAP2 SWAP1 PUSH2 0x53FE JUMP JUMPDEST PUSH2 0x4711 SWAP2 SWAP1 PUSH2 0x52C3 JUMP JUMPDEST PUSH2 0x471D DUP10 PUSH2 0x3E8 PUSH2 0x53FE JUMP JUMPDEST PUSH2 0x4727 SWAP2 SWAP1 PUSH2 0x52AB JUMP JUMPDEST SWAP1 POP PUSH2 0x4825 JUMP JUMPDEST PUSH6 0x1CAE8C13E000 DUP15 PUSH1 0x20 ADD MLOAD DUP16 PUSH1 0x60 ADD MLOAD PUSH2 0x4749 SWAP2 SWAP1 PUSH2 0x541D JUMP JUMPDEST DUP14 PUSH1 0x80 ADD MLOAD PUSH2 0x4758 SWAP2 SWAP1 PUSH2 0x53FE JUMP JUMPDEST PUSH2 0x4768 SWAP1 PUSH6 0x2DE41353000 PUSH2 0x52AB JUMP JUMPDEST DUP9 PUSH2 0x4773 DUP7 DUP3 PUSH2 0x541D JUMP JUMPDEST PUSH2 0x477D DUP12 DUP10 PUSH2 0x541D JUMP JUMPDEST PUSH2 0x4786 DUP11 PUSH2 0x32B3 JUMP JUMPDEST PUSH2 0x4790 SWAP2 SWAP1 PUSH2 0x53FE JUMP JUMPDEST PUSH2 0x479A SWAP2 SWAP1 PUSH2 0x53FE JUMP JUMPDEST PUSH2 0x47A4 SWAP2 SWAP1 PUSH2 0x52C3 JUMP JUMPDEST PUSH2 0x47B0 DUP11 PUSH2 0x3E8 PUSH2 0x53FE JUMP JUMPDEST PUSH2 0x47BA SWAP2 SWAP1 PUSH2 0x541D JUMP JUMPDEST PUSH2 0x47C4 SWAP2 SWAP1 PUSH2 0x53FE JUMP JUMPDEST PUSH2 0x47CE SWAP2 SWAP1 PUSH2 0x52C3 JUMP JUMPDEST SWAP2 POP DUP8 PUSH2 0x47DB DUP5 DUP3 PUSH2 0x541D JUMP JUMPDEST PUSH2 0x47E5 DUP11 DUP8 PUSH2 0x541D JUMP JUMPDEST PUSH2 0x47EE DUP9 PUSH2 0x32B3 JUMP JUMPDEST PUSH2 0x47F8 SWAP2 SWAP1 PUSH2 0x53FE JUMP JUMPDEST PUSH2 0x4802 SWAP2 SWAP1 PUSH2 0x53FE JUMP JUMPDEST PUSH2 0x480C SWAP2 SWAP1 PUSH2 0x52C3 JUMP JUMPDEST PUSH2 0x4818 DUP10 PUSH2 0x3E8 PUSH2 0x53FE JUMP JUMPDEST PUSH2 0x4822 SWAP2 SWAP1 PUSH2 0x541D JUMP JUMPDEST SWAP1 POP JUMPDEST DUP1 PUSH2 0x4830 DUP4 DUP9 PUSH2 0x53FE JUMP JUMPDEST PUSH2 0x4842 SWAP1 PUSH8 0xDE0B6B3A7640000 PUSH2 0x53FE JUMP JUMPDEST PUSH2 0x484C SWAP2 SWAP1 PUSH2 0x52C3 JUMP JUMPDEST PUSH2 0x485C SWAP1 PUSH6 0x5AF3107A4000 PUSH2 0x52AB JUMP JUMPDEST PUSH2 0x4867 DUP8 PUSH1 0x1 PUSH2 0x52AB JUMP JUMPDEST PUSH2 0x4879 SWAP1 PUSH8 0xDE0B6B3A7640000 PUSH2 0x53FE JUMP JUMPDEST GT PUSH2 0x488A JUMPI PUSH6 0x5AF3107A4000 PUSH2 0x45A7 JUMP JUMPDEST DUP1 PUSH2 0x4895 DUP4 DUP9 PUSH2 0x53FE JUMP JUMPDEST PUSH2 0x48A7 SWAP1 PUSH8 0xDE0B6B3A7640000 PUSH2 0x53FE JUMP JUMPDEST PUSH2 0x48B1 SWAP2 SWAP1 PUSH2 0x52C3 JUMP JUMPDEST PUSH2 0x48BC DUP8 PUSH1 0x1 PUSH2 0x52AB JUMP JUMPDEST PUSH2 0x459D SWAP1 PUSH8 0xDE0B6B3A7640000 PUSH2 0x53FE JUMP JUMPDEST PUSH1 0x40 MLOAD PUSH3 0x461BCD PUSH1 0xE5 SHL DUP2 MSTORE PUSH1 0x20 PUSH1 0x4 DUP3 ADD MSTORE PUSH1 0xF PUSH1 0x24 DUP3 ADD MSTORE PUSH15 0x434242433A57524F4E475F54595045 PUSH1 0x88 SHL PUSH1 0x44 DUP3 ADD MSTORE PUSH1 0x64 ADD PUSH2 0x760 JUMP JUMPDEST POP POP POP POP POP POP POP POP SWAP6 SWAP5 POP POP POP POP POP JUMP JUMPDEST PUSH1 0x0 DUP1 DUP1 DUP4 PUSH1 0x1 DUP2 GT ISZERO PUSH2 0x493D JUMPI PUSH4 0x4E487B71 PUSH1 0xE0 SHL PUSH1 0x0 MSTORE PUSH1 0x21 PUSH1 0x4 MSTORE PUSH1 0x24 PUSH1 0x0 REVERT JUMPDEST EQ ISZERO PUSH2 0x494E JUMPI POP PUSH1 0x20 DUP5 ADD MLOAD PUSH2 0x4955 JUMP JUMPDEST POP PUSH1 0x40 DUP5 ADD MLOAD JUMPDEST PUSH4 0x3B9ACA00 PUSH2 0x4985 DUP7 PUSH1 0xC0 ADD MLOAD DUP7 PUSH8 0xDE0B6B3A7640000 PUSH2 0x4976 SWAP2 SWAP1 PUSH2 0x53FE JUMP JUMPDEST PUSH2 0x4980 SWAP2 SWAP1 PUSH2 0x52C3 JUMP JUMPDEST PUSH2 0x49C0 JUMP JUMPDEST PUSH1 0xA0 DUP8 ADD MLOAD PUSH2 0x4994 SWAP1 DUP5 PUSH2 0x53FE JUMP JUMPDEST PUSH2 0x499E SWAP2 SWAP1 PUSH2 0x53FE JUMP JUMPDEST PUSH2 0x49A8 SWAP2 SWAP1 PUSH2 0x52C3 JUMP JUMPDEST DUP6 PUSH1 0x60 ADD MLOAD PUSH2 0x49B7 SWAP2 SWAP1 PUSH2 0x52AB JUMP JUMPDEST SWAP6 SWAP5 POP POP POP POP POP JUMP JUMPDEST PUSH1 0x0 PUSH1 0x3 DUP3 GT ISZERO PUSH2 0x4A21 JUMPI POP DUP1 PUSH1 0x0 PUSH2 0x49DA PUSH1 0x2 DUP4 PUSH2 0x52C3 JUMP JUMPDEST PUSH2 0x49E5 SWAP1 PUSH1 0x1 PUSH2 0x52AB JUMP JUMPDEST SWAP1 POP JUMPDEST DUP2 DUP2 LT ISZERO PUSH2 0x4A1B JUMPI SWAP1 POP DUP1 PUSH1 0x2 DUP2 PUSH2 0x4A00 DUP2 DUP7 PUSH2 0x52C3 JUMP JUMPDEST PUSH2 0x4A0A SWAP2 SWAP1 PUSH2 0x52AB JUMP JUMPDEST PUSH2 0x4A14 SWAP2 SWAP1 PUSH2 0x52C3 JUMP JUMPDEST SWAP1 POP PUSH2 0x49E8 JUMP JUMPDEST POP PUSH2 0x7F8 JUMP JUMPDEST DUP2 ISZERO PUSH2 0x7F8 JUMPI POP PUSH1 0x1 SWAP2 SWAP1 POP JUMP JUMPDEST DUP3 DUP1 SLOAD PUSH2 0x4A3B SWAP1 PUSH2 0x5464 JUMP JUMPDEST SWAP1 PUSH1 0x0 MSTORE PUSH1 0x20 PUSH1 0x0 KECCAK256 SWAP1 PUSH1 0x1F ADD PUSH1 0x20 SWAP1 DIV DUP2 ADD SWAP3 DUP3 PUSH2 0x4A5D JUMPI PUSH1 0x0 DUP6 SSTORE PUSH2 0x4AA3 JUMP JUMPDEST DUP3 PUSH1 0x1F LT PUSH2 0x4A76 JUMPI DUP1 MLOAD PUSH1 0xFF NOT AND DUP4 DUP1 ADD OR DUP6 SSTORE PUSH2 0x4AA3 JUMP JUMPDEST DUP3 DUP1 ADD PUSH1 0x1 ADD DUP6 SSTORE DUP3 ISZERO PUSH2 0x4AA3 JUMPI SWAP2 DUP3 ADD JUMPDEST DUP3 DUP2 GT ISZERO PUSH2 0x4AA3 JUMPI DUP3 MLOAD DUP3 SSTORE SWAP2 PUSH1 0x20 ADD SWAP2 SWAP1 PUSH1 0x1 ADD SWAP1 PUSH2 0x4A88 JUMP JUMPDEST POP PUSH2 0x4AAF SWAP3 SWAP2 POP PUSH2 0x4AB3 JUMP JUMPDEST POP SWAP1 JUMP JUMPDEST JUMPDEST DUP1 DUP3 GT ISZERO PUSH2 0x4AAF JUMPI PUSH1 0x0 DUP2 SSTORE PUSH1 0x1 ADD PUSH2 0x4AB4 JUMP JUMPDEST PUSH1 0x0 DUP3 PUSH1 0x1F DUP4 ADD SLT PUSH2 0x4AD8 JUMPI DUP1 DUP2 REVERT JUMPDEST DUP2 CALLDATALOAD PUSH2 0x4AEB PUSH2 0x4AE6 DUP3 PUSH2 0x5283 JUMP JUMPDEST PUSH2 0x5252 JUMP JUMPDEST DUP2 DUP2 MSTORE DUP5 PUSH1 0x20 DUP4 DUP7 ADD ADD GT ISZERO PUSH2 0x4AFF JUMPI DUP3 DUP4 REVERT JUMPDEST DUP2 PUSH1 0x20 DUP6 ADD PUSH1 0x20 DUP4 ADD CALLDATACOPY SWAP1 DUP2 ADD PUSH1 0x20 ADD SWAP2 SWAP1 SWAP2 MSTORE SWAP3 SWAP2 POP POP JUMP JUMPDEST PUSH1 0x0 PUSH1 0x20 DUP3 DUP5 SUB SLT ISZERO PUSH2 0x4B2A JUMPI DUP1 DUP2 REVERT JUMPDEST DUP2 CALLDATALOAD PUSH2 0x4B35 DUP2 PUSH2 0x5524 JUMP JUMPDEST SWAP4 SWAP3 POP POP POP JUMP JUMPDEST PUSH1 0x0 PUSH1 0x20 DUP3 DUP5 SUB SLT ISZERO PUSH2 0x4B4D JUMPI DUP1 DUP2 REVERT JUMPDEST DUP2 MLOAD PUSH2 0x4B35 DUP2 PUSH2 0x5524 JUMP JUMPDEST PUSH1 0x0 DUP1 PUSH1 0x40 DUP4 DUP6 SUB SLT ISZERO PUSH2 0x4B6A JUMPI DUP1 DUP2 REVERT JUMPDEST DUP3 CALLDATALOAD PUSH2 0x4B75 DUP2 PUSH2 0x5524 JUMP JUMPDEST SWAP2 POP PUSH1 0x20 DUP4 ADD CALLDATALOAD PUSH2 0x4B85 DUP2 PUSH2 0x5524 JUMP JUMPDEST DUP1 SWAP2 POP POP SWAP3 POP SWAP3 SWAP1 POP JUMP JUMPDEST PUSH1 0x0 DUP1 PUSH1 0x0 PUSH1 0x60 DUP5 DUP7 SUB SLT ISZERO PUSH2 0x4BA4 JUMPI DUP1 DUP2 REVERT JUMPDEST DUP4 CALLDATALOAD PUSH2 0x4BAF DUP2 PUSH2 0x5524 JUMP JUMPDEST SWAP3 POP PUSH1 0x20 DUP5 ADD CALLDATALOAD PUSH2 0x4BBF DUP2 PUSH2 0x5524 JUMP JUMPDEST SWAP3 SWAP6 SWAP3 SWAP5 POP POP POP PUSH1 0x40 SWAP2 SWAP1 SWAP2 ADD CALLDATALOAD SWAP1 JUMP JUMPDEST PUSH1 0x0 DUP1 PUSH1 0x0 DUP1 PUSH1 0x0 DUP1 PUSH1 0x0 PUSH1 0xE0 DUP9 DUP11 SUB SLT ISZERO PUSH2 0x4BEA JUMPI DUP3 DUP4 REVERT JUMPDEST DUP8 CALLDATALOAD PUSH2 0x4BF5 DUP2 PUSH2 0x5524 JUMP JUMPDEST SWAP7 POP PUSH1 0x20 DUP9 ADD CALLDATALOAD PUSH2 0x4C05 DUP2 PUSH2 0x5524 JUMP JUMPDEST SWAP6 POP PUSH1 0x40 DUP9 ADD CALLDATALOAD SWAP5 POP PUSH1 0x60 DUP9 ADD CALLDATALOAD SWAP4 POP PUSH1 0x80 DUP9 ADD CALLDATALOAD PUSH2 0x4C23 DUP2 PUSH2 0x5546 JUMP JUMPDEST SWAP7 SWAP10 SWAP6 SWAP9 POP SWAP4 SWAP7 SWAP3 SWAP6 SWAP5 PUSH1 0xA0 DUP5 ADD CALLDATALOAD SWAP5 POP PUSH1 0xC0 SWAP1 SWAP4 ADD CALLDATALOAD SWAP3 SWAP2 POP POP JUMP JUMPDEST PUSH1 0x0 DUP1 PUSH1 0x40 DUP4 DUP6 SUB SLT ISZERO PUSH2 0x4C52 JUMPI DUP2 DUP3 REVERT JUMPDEST DUP3 CALLDATALOAD PUSH2 0x4C5D DUP2 PUSH2 0x5524 JUMP JUMPDEST SWAP5 PUSH1 0x20 SWAP4 SWAP1 SWAP4 ADD CALLDATALOAD SWAP4 POP POP POP JUMP JUMPDEST PUSH1 0x0 DUP1 PUSH1 0x0 DUP1 PUSH1 0x0 PUSH1 0xA0 DUP7 DUP9 SUB SLT ISZERO PUSH2 0x4C82 JUMPI DUP3 DUP4 REVERT JUMPDEST DUP6 CALLDATALOAD PUSH2 0x4C8D DUP2 PUSH2 0x5524 JUMP JUMPDEST SWAP5 POP PUSH1 0x20 DUP7 ADD CALLDATALOAD PUSH2 0x4C9D DUP2 PUSH2 0x5524 JUMP JUMPDEST SWAP4 POP PUSH1 0x40 DUP7 ADD CALLDATALOAD PUSH2 0x4CAD DUP2 PUSH2 0x5524 JUMP JUMPDEST SWAP3 POP PUSH1 0x60 DUP7 ADD CALLDATALOAD PUSH2 0x4CBD DUP2 PUSH2 0x5546 JUMP JUMPDEST SWAP2 POP PUSH1 0x80 DUP7 ADD CALLDATALOAD PUSH2 0x4CCD DUP2 PUSH2 0x5539 JUMP JUMPDEST DUP1 SWAP2 POP POP SWAP3 SWAP6 POP SWAP3 SWAP6 SWAP1 SWAP4 POP JUMP JUMPDEST PUSH1 0x0 PUSH1 0x20 DUP3 DUP5 SUB SLT ISZERO PUSH2 0x4CEC JUMPI DUP1 DUP2 REVERT JUMPDEST DUP2 MLOAD PUSH2 0x4B35 DUP2 PUSH2 0x5539 JUMP JUMPDEST PUSH1 0x0 PUSH1 0x20 DUP3 DUP5 SUB SLT ISZERO PUSH2 0x4D08 JUMPI DUP1 DUP2 REVERT JUMPDEST POP CALLDATALOAD SWAP2 SWAP1 POP JUMP JUMPDEST PUSH1 0x0 PUSH1 0x20 DUP3 DUP5 SUB SLT ISZERO PUSH2 0x4D20 JUMPI DUP1 DUP2 REVERT JUMPDEST POP MLOAD SWAP2 SWAP1 POP JUMP JUMPDEST PUSH1 0x0 PUSH1 0x20 DUP3 DUP5 SUB SLT ISZERO PUSH2 0x4D38 JUMPI DUP1 DUP2 REVERT JUMPDEST DUP2 MLOAD PUSH8 0xFFFFFFFFFFFFFFFF DUP2 GT ISZERO PUSH2 0x4D4E JUMPI DUP2 DUP3 REVERT JUMPDEST DUP3 ADD PUSH1 0x1F DUP2 ADD DUP5 SGT PUSH2 0x4D5E JUMPI DUP2 DUP3 REVERT JUMPDEST DUP1 MLOAD PUSH2 0x4D6C PUSH2 0x4AE6 DUP3 PUSH2 0x5283 JUMP JUMPDEST DUP2 DUP2 MSTORE DUP6 PUSH1 0x20 DUP4 DUP6 ADD ADD GT ISZERO PUSH2 0x4D80 JUMPI DUP4 DUP5 REVERT JUMPDEST PUSH2 0x49B7 DUP3 PUSH1 0x20 DUP4 ADD PUSH1 0x20 DUP7 ADD PUSH2 0x5434 JUMP JUMPDEST PUSH1 0x0 DUP1 PUSH1 0x0 PUSH1 0x60 DUP5 DUP7 SUB SLT ISZERO PUSH2 0x4DA5 JUMPI DUP1 DUP2 REVERT JUMPDEST DUP4 CALLDATALOAD PUSH8 0xFFFFFFFFFFFFFFFF DUP1 DUP3 GT ISZERO PUSH2 0x4DBC JUMPI DUP3 DUP4 REVERT JUMPDEST PUSH2 0x4DC8 DUP8 DUP4 DUP9 ADD PUSH2 0x4AC8 JUMP JUMPDEST SWAP5 POP PUSH1 0x20 DUP7 ADD CALLDATALOAD SWAP2 POP DUP1 DUP3 GT ISZERO PUSH2 0x4DDD JUMPI DUP3 DUP4 REVERT JUMPDEST POP PUSH2 0x4DEA DUP7 DUP3 DUP8 ADD PUSH2 0x4AC8 JUMP JUMPDEST SWAP3 POP POP PUSH1 0x40 DUP5 ADD CALLDATALOAD PUSH2 0x4DFB DUP2 PUSH2 0x5546 JUMP JUMPDEST DUP1 SWAP2 POP POP SWAP3 POP SWAP3 POP SWAP3 JUMP JUMPDEST PUSH1 0x0 DUP1 PUSH1 0x40 DUP4 DUP6 SUB SLT ISZERO PUSH2 0x4E18 JUMPI DUP2 DUP3 REVERT JUMPDEST POP POP DUP1 CALLDATALOAD SWAP3 PUSH1 0x20 SWAP1 SWAP2 ADD CALLDATALOAD SWAP2 POP JUMP JUMPDEST PUSH1 0x0 DUP1 PUSH1 0x40 DUP4 DUP6 SUB SLT ISZERO PUSH2 0x4E39 JUMPI DUP2 DUP3 REVERT JUMPDEST POP POP DUP1 MLOAD PUSH1 0x20 SWAP1 SWAP2 ADD MLOAD SWAP1 SWAP3 SWAP1 SWAP2 POP JUMP JUMPDEST PUSH1 0x0 PUSH1 0x20 DUP3 DUP5 SUB SLT ISZERO PUSH2 0x4E5B JUMPI DUP1 DUP2 REVERT JUMPDEST DUP2 MLOAD PUSH2 0x4B35 DUP2 PUSH2 0x5546 JUMP JUMPDEST PUSH1 0x2 DUP2 LT PUSH2 0x4E84 JUMPI PUSH4 0x4E487B71 PUSH1 0xE0 SHL PUSH1 0x0 MSTORE PUSH1 0x21 PUSH1 0x4 MSTORE PUSH1 0x24 PUSH1 0x0 REVERT JUMPDEST SWAP1 MSTORE JUMP JUMPDEST PUSH1 0x0 DUP5 MLOAD PUSH2 0x4E9A DUP2 DUP5 PUSH1 0x20 DUP10 ADD PUSH2 0x5434 JUMP JUMPDEST DUP5 MLOAD SWAP1 DUP4 ADD SWAP1 PUSH2 0x4EAE DUP2 DUP4 PUSH1 0x20 DUP10 ADD PUSH2 0x5434 JUMP JUMPDEST DUP5 MLOAD SWAP2 ADD SWAP1 PUSH2 0x4EC1 DUP2 DUP4 PUSH1 0x20 DUP9 ADD PUSH2 0x5434 JUMP JUMPDEST ADD SWAP6 SWAP5 POP POP POP POP POP JUMP JUMPDEST PUSH1 0x0 DUP5 MLOAD PUSH2 0x4EDD DUP2 DUP5 PUSH1 0x20 DUP10 ADD PUSH2 0x5434 JUMP JUMPDEST PUSH2 0x2C1 PUSH1 0xF5 SHL SWAP1 DUP4 ADD SWAP1 DUP2 MSTORE DUP5 MLOAD PUSH2 0x4EFC DUP2 PUSH1 0x2 DUP5 ADD PUSH1 0x20 DUP10 ADD PUSH2 0x5434 JUMP JUMPDEST PUSH1 0x1 PUSH1 0xFD SHL PUSH1 0x2 SWAP3 SWAP1 SWAP2 ADD SWAP2 DUP3 ADD MSTORE DUP4 MLOAD PUSH2 0x4F1E DUP2 PUSH1 0x3 DUP5 ADD PUSH1 0x20 DUP9 ADD PUSH2 0x5434 JUMP JUMPDEST PUSH6 0x1021A1212197 PUSH1 0xD1 SHL PUSH1 0x3 SWAP3 SWAP1 SWAP2 ADD SWAP2 DUP3 ADD MSTORE PUSH1 0x9 ADD SWAP6 SWAP5 POP POP POP POP POP JUMP JUMPDEST PUSH1 0x0 DUP5 MLOAD PUSH2 0x4F50 DUP2 DUP5 PUSH1 0x20 DUP10 ADD PUSH2 0x5434 JUMP JUMPDEST PUSH2 0x2C1 PUSH1 0xF5 SHL SWAP1 DUP4 ADD SWAP1 DUP2 MSTORE PUSH8 0x24B73B32B939B29 PUSH1 0xC5 SHL PUSH1 0x2 DUP3 ADD MSTORE DUP5 MLOAD PUSH2 0x4F80 DUP2 PUSH1 0xA DUP5 ADD PUSH1 0x20 DUP10 ADD PUSH2 0x5434 JUMP JUMPDEST PUSH1 0x1 PUSH1 0xFD SHL PUSH1 0xA SWAP3 SWAP1 SWAP2 ADD SWAP2 DUP3 ADD MSTORE DUP4 MLOAD PUSH2 0x4FA2 DUP2 PUSH1 0xB DUP5 ADD PUSH1 0x20 DUP9 ADD PUSH2 0x5434 JUMP JUMPDEST PUSH6 0x1021A1212197 PUSH1 0xD1 SHL PUSH1 0xB SWAP3 SWAP1 SWAP2 ADD SWAP2 DUP3 ADD MSTORE PUSH1 0x11 ADD SWAP6 SWAP5 POP POP POP POP POP JUMP JUMPDEST PUSH1 0x0 DUP5 MLOAD PUSH2 0x4FD4 DUP2 DUP5 PUSH1 0x20 DUP10 ADD PUSH2 0x5434 JUMP JUMPDEST PUSH1 0x49 PUSH1 0xF8 SHL SWAP1 DUP4 ADD SWAP1 DUP2 MSTORE DUP5 MLOAD PUSH2 0x4FF2 DUP2 PUSH1 0x1 DUP5 ADD PUSH1 0x20 DUP10 ADD PUSH2 0x5434 JUMP JUMPDEST DUP5 MLOAD SWAP2 ADD SWAP1 PUSH2 0x5008 DUP2 PUSH1 0x1 DUP5 ADD PUSH1 0x20 DUP9 ADD PUSH2 0x5434 JUMP JUMPDEST ADD PUSH1 0x1 ADD SWAP6 SWAP5 POP POP POP POP POP JUMP JUMPDEST PUSH1 0x1 PUSH1 0x1 PUSH1 0xA0 SHL SUB DUP7 DUP2 AND DUP3 MSTORE DUP6 DUP2 AND PUSH1 0x20 DUP4 ADD MSTORE PUSH1 0xFF DUP6 AND PUSH1 0x40 DUP4 ADD MSTORE PUSH1 0xA0 DUP3 ADD SWAP1 PUSH2 0x5045 PUSH1 0x60 DUP5 ADD DUP7 PUSH2 0x4E66 JUMP JUMPDEST DUP1 DUP5 AND PUSH1 0x80 DUP5 ADD MSTORE POP SWAP7 SWAP6 POP POP POP POP POP POP JUMP JUMPDEST PUSH1 0x1 PUSH1 0x1 PUSH1 0xA0 SHL SUB DUP5 AND DUP2 MSTORE PUSH1 0xFF DUP4 AND PUSH1 0x20 DUP3 ADD MSTORE PUSH1 0x60 DUP2 ADD PUSH2 0x4148 PUSH1 0x40 DUP4 ADD DUP5 PUSH2 0x4E66 JUMP JUMPDEST PUSH1 0x20 DUP2 ADD PUSH2 0x71B DUP3 DUP5 PUSH2 0x4E66 JUMP JUMPDEST PUSH1 0x0 PUSH1 0x20 DUP3 MSTORE DUP3 MLOAD DUP1 PUSH1 0x20 DUP5 ADD MSTORE PUSH2 0x50AB DUP2 PUSH1 0x40 DUP6 ADD PUSH1 0x20 DUP8 ADD PUSH2 0x5434 JUMP JUMPDEST PUSH1 0x1F ADD PUSH1 0x1F NOT AND SWAP2 SWAP1 SWAP2 ADD PUSH1 0x40 ADD SWAP3 SWAP2 POP POP JUMP JUMPDEST PUSH1 0x20 DUP1 DUP3 MSTORE PUSH1 0x21 SWAP1 DUP3 ADD MSTORE PUSH32 0x434242435F544F5F5A45524F5F414444524553535F4E4F545F414C4C4F574544 PUSH1 0x40 DUP3 ADD MSTORE PUSH1 0x17 PUSH1 0xF9 SHL PUSH1 0x60 DUP3 ADD MSTORE PUSH1 0x80 ADD SWAP1 JUMP JUMPDEST PUSH1 0x20 DUP1 DUP3 MSTORE PUSH1 0x22 SWAP1 DUP3 ADD MSTORE PUSH32 0x434242433A20494E53554646494349454E545F434242435F544F4B454E5F4F55 PUSH1 0x40 DUP3 ADD MSTORE PUSH2 0x2A17 PUSH1 0xF1 SHL PUSH1 0x60 DUP3 ADD MSTORE PUSH1 0x80 ADD SWAP1 JUMP JUMPDEST PUSH1 0x20 DUP1 DUP3 MSTORE PUSH1 0x27 SWAP1 DUP3 ADD MSTORE PUSH32 0x434242435F544F5F535553504943494F55535F414444524553535F4E4F545F41 PUSH1 0x40 DUP3 ADD MSTORE PUSH7 0x262627ABA2A217 PUSH1 0xC9 SHL PUSH1 0x60 DUP3 ADD MSTORE PUSH1 0x80 ADD SWAP1 JUMP JUMPDEST PUSH1 0x20 DUP1 DUP3 MSTORE PUSH1 0x1B SWAP1 DUP3 ADD MSTORE PUSH32 0x434242433A20544F4B454E5F50524943455F4F555444415445442E0000000000 PUSH1 0x40 DUP3 ADD MSTORE PUSH1 0x60 ADD SWAP1 JUMP JUMPDEST PUSH1 0x20 DUP1 DUP3 MSTORE PUSH1 0x2E SWAP1 DUP3 ADD MSTORE PUSH32 0x436F6E747261637420696E7374616E63652068617320616C7265616479206265 PUSH1 0x40 DUP3 ADD MSTORE PUSH14 0x195B881A5B9A5D1A585B1A5E9959 PUSH1 0x92 SHL PUSH1 0x60 DUP3 ADD MSTORE PUSH1 0x80 ADD SWAP1 JUMP JUMPDEST PUSH1 0x20 DUP1 DUP3 MSTORE PUSH1 0x24 SWAP1 DUP3 ADD MSTORE PUSH32 0x434242433A20494E53554646494349454E545F534554544C455F544F4B454E5F PUSH1 0x40 DUP3 ADD MSTORE PUSH4 0x27AAAA17 PUSH1 0xE1 SHL PUSH1 0x60 DUP3 ADD MSTORE PUSH1 0x80 ADD SWAP1 JUMP JUMPDEST PUSH1 0x40 MLOAD PUSH1 0x1F DUP3 ADD PUSH1 0x1F NOT AND DUP2 ADD PUSH8 0xFFFFFFFFFFFFFFFF DUP2 GT DUP3 DUP3 LT OR ISZERO PUSH2 0x527B JUMPI PUSH2 0x527B PUSH2 0x550E JUMP JUMPDEST PUSH1 0x40 MSTORE SWAP2 SWAP1 POP JUMP JUMPDEST PUSH1 0x0 PUSH8 0xFFFFFFFFFFFFFFFF DUP3 GT ISZERO PUSH2 0x529D JUMPI PUSH2 0x529D PUSH2 0x550E JUMP JUMPDEST POP PUSH1 0x1F ADD PUSH1 0x1F NOT AND PUSH1 0x20 ADD SWAP1 JUMP JUMPDEST PUSH1 0x0 DUP3 NOT DUP3 GT ISZERO PUSH2 0x52BE JUMPI PUSH2 0x52BE PUSH2 0x54E2 JUMP JUMPDEST POP ADD SWAP1 JUMP JUMPDEST PUSH1 0x0 DUP3 PUSH2 0x52D2 JUMPI PUSH2 0x52D2 PUSH2 0x54F8 JUMP JUMPDEST POP DIV SWAP1 JUMP JUMPDEST DUP1 DUP3 JUMPDEST PUSH1 0x1 DUP1 DUP7 GT PUSH2 0x52E9 JUMPI POP PUSH2 0x5314 JUMP JUMPDEST DUP2 DUP8 DIV DUP3 GT ISZERO PUSH2 0x52FB JUMPI PUSH2 0x52FB PUSH2 0x54E2 JUMP JUMPDEST DUP1 DUP7 AND ISZERO PUSH2 0x5308 JUMPI SWAP2 DUP2 MUL SWAP2 JUMPDEST SWAP5 SWAP1 SWAP5 SHR SWAP4 DUP1 MUL PUSH2 0x52DA JUMP JUMPDEST SWAP5 POP SWAP5 SWAP3 POP POP POP JUMP JUMPDEST PUSH1 0x0 PUSH2 0x4B35 PUSH1 0x0 NOT DUP5 DUP5 PUSH2 0x533A JUMP JUMPDEST PUSH1 0x0 PUSH2 0x4B35 PUSH1 0x0 NOT PUSH1 0xFF DUP6 AND DUP5 JUMPDEST PUSH1 0x0 DUP3 PUSH2 0x5349 JUMPI POP PUSH1 0x1 PUSH2 0x4B35 JUMP JUMPDEST DUP2 PUSH2 0x5356 JUMPI POP PUSH1 0x0 PUSH2 0x4B35 JUMP JUMPDEST DUP2 PUSH1 0x1 DUP2 EQ PUSH2 0x536C JUMPI PUSH1 0x2 DUP2 EQ PUSH2 0x5376 JUMPI PUSH2 0x53A3 JUMP JUMPDEST PUSH1 0x1 SWAP2 POP POP PUSH2 0x4B35 JUMP JUMPDEST PUSH1 0xFF DUP5 GT ISZERO PUSH2 0x5387 JUMPI PUSH2 0x5387 PUSH2 0x54E2 JUMP JUMPDEST PUSH1 0x1 DUP5 SHL SWAP2 POP DUP5 DUP3 GT ISZERO PUSH2 0x539D JUMPI PUSH2 0x539D PUSH2 0x54E2 JUMP JUMPDEST POP PUSH2 0x4B35 JUMP JUMPDEST POP PUSH1 0x20 DUP4 LT PUSH2 0x133 DUP4 LT AND PUSH1 0x4E DUP5 LT PUSH1 0xB DUP5 LT AND OR ISZERO PUSH2 0x53D6 JUMPI POP DUP2 DUP2 EXP DUP4 DUP2 GT ISZERO PUSH2 0x53D1 JUMPI PUSH2 0x53D1 PUSH2 0x54E2 JUMP JUMPDEST PUSH2 0x4B35 JUMP JUMPDEST PUSH2 0x53E3 DUP5 DUP5 DUP5 PUSH1 0x1 PUSH2 0x52D7 JUMP JUMPDEST DUP1 DUP7 DIV DUP3 GT ISZERO PUSH2 0x53F5 JUMPI PUSH2 0x53F5 PUSH2 0x54E2 JUMP JUMPDEST MUL SWAP5 SWAP4 POP POP POP POP JUMP JUMPDEST PUSH1 0x0 DUP2 PUSH1 0x0 NOT DIV DUP4 GT DUP3 ISZERO ISZERO AND ISZERO PUSH2 0x5418 JUMPI PUSH2 0x5418 PUSH2 0x54E2 JUMP JUMPDEST POP MUL SWAP1 JUMP JUMPDEST PUSH1 0x0 DUP3 DUP3 LT ISZERO PUSH2 0x542F JUMPI PUSH2 0x542F PUSH2 0x54E2 JUMP JUMPDEST POP SUB SWAP1 JUMP JUMPDEST PUSH1 0x0 JUMPDEST DUP4 DUP2 LT ISZERO PUSH2 0x544F JUMPI DUP2 DUP2 ADD MLOAD DUP4 DUP3 ADD MSTORE PUSH1 0x20 ADD PUSH2 0x5437 JUMP JUMPDEST DUP4 DUP2 GT ISZERO PUSH2 0x545E JUMPI PUSH1 0x0 DUP5 DUP5 ADD MSTORE JUMPDEST POP POP POP POP JUMP JUMPDEST PUSH1 0x1 DUP2 DUP2 SHR SWAP1 DUP3 AND DUP1 PUSH2 0x5478 JUMPI PUSH1 0x7F DUP3 AND SWAP2 POP JUMPDEST PUSH1 0x20 DUP3 LT DUP2 EQ ISZERO PUSH2 0x1EAF JUMPI PUSH4 0x4E487B71 PUSH1 0xE0 SHL PUSH1 0x0 MSTORE PUSH1 0x22 PUSH1 0x4 MSTORE PUSH1 0x24 PUSH1 0x0 REVERT JUMPDEST PUSH1 0x0 PUSH1 0x0 NOT DUP3 EQ ISZERO PUSH2 0x54AD JUMPI PUSH2 0x54AD PUSH2 0x54E2 JUMP JUMPDEST POP PUSH1 0x1 ADD SWAP1 JUMP JUMPDEST PUSH1 0x0 DUP3 PUSH2 0x54C3 JUMPI PUSH2 0x54C3 PUSH2 0x54F8 JUMP JUMPDEST POP MOD SWAP1 JUMP JUMPDEST PUSH1 0x0 PUSH1 0x1 PUSH1 0xFF SHL DUP3 EQ ISZERO PUSH2 0x54DE JUMPI PUSH2 0x54DE PUSH2 0x54E2 JUMP JUMPDEST SUB SWAP1 JUMP JUMPDEST PUSH4 0x4E487B71 PUSH1 0xE0 SHL PUSH1 0x0 MSTORE PUSH1 0x11 PUSH1 0x4 MSTORE PUSH1 0x24 PUSH1 0x0 REVERT JUMPDEST PUSH4 0x4E487B71 PUSH1 0xE0 SHL PUSH1 0x0 MSTORE PUSH1 0x12 PUSH1 0x4 MSTORE PUSH1 0x24 PUSH1 0x0 REVERT JUMPDEST PUSH4 0x4E487B71 PUSH1 0xE0 SHL PUSH1 0x0 MSTORE PUSH1 0x41 PUSH1 0x4 MSTORE PUSH1 0x24 PUSH1 0x0 REVERT JUMPDEST PUSH1 0x1 PUSH1 0x1 PUSH1 0xA0 SHL SUB DUP2 AND DUP2 EQ PUSH2 0x24D5 JUMPI PUSH1 0x0 DUP1 REVERT JUMPDEST PUSH1 0x2 DUP2 LT PUSH2 0x24D5 JUMPI PUSH1 0x0 DUP1 REVERT JUMPDEST PUSH1 0xFF DUP2 AND DUP2 EQ PUSH2 0x24D5 JUMPI PUSH1 0x0 DUP1 REVERT INVALID 0xDD CALLCODE MSTORE 0xAD SHL 0xE2 0xC8 SWAP12 PUSH10 0xC2B068FC378DAA952BA7 CALL PUSH4 0xC4A11628 CREATE2 GAS 0x4D CREATE2 0x23 0xB3 0xEF DUP13 JUMPDEST 0xE1 0xE5 0xEB 0xEC PUSH30 0x5BD14F71427D1E84F3DD0314C0F7B2291E5B200AC8C7C3B925A264697066 PUSH20 0x58221220520845A816CD081B4266319410D387F1 0xB8 PUSH28 0x439EB9C00690003E5EC847AA13C864736F6C63430008030033000000 "
		},
		"gasEstimates": {
			"creation": {
				"codeDepositCost": "4392600",
				"executionCost": "45106",
				"totalCost": "4437706"
			},
			"external": {
				"DOMAIN_SEPARATOR()": "infinite",
				"EIP712_DOMAIN()": "305",
				"EIP712_REVISION()": "infinite",
				"PERMIT_TYPEHASH()": "307",
				"allowance(address,address)": "infinite",
				"approve(address,uint256)": "infinite",
				"balanceOf(address)": "2253",
				"beta()": "1129",
				"burnCbbc(address)": "infinite",
				"cbbcType()": "1170",
				"decimals()": "1141",
				"decreaseAllowance(address,uint256)": "infinite",
				"factory()": "1082",
				"increaseAllowance(address,uint256)": "infinite",
				"initialize(address)": "44503",
				"initialize(address,address,address,uint8,uint8)": "infinite",
				"initialize(string,string,uint8)": "infinite",
				"isOwner()": "1092",
				"leverage()": "1120",
				"mintCbbc(address)": "infinite",
				"name()": "infinite",
				"nonces(address)": "1364",
				"owner()": "1077",
				"permit(address,address,uint256,uint256,uint8,bytes32,bytes32)": "infinite",
				"rebase(uint256,int256)": "infinite",
				"rebasePolicy()": "1170",
				"rebasePrice()": "1061",
				"rebaseTimestamp()": "1064",
				"renounceOwnership()": "23847",
				"router()": "1191",
				"scaledBalanceOf(address)": "1298",
				"scaledTotalSupply()": "2021",
				"setBeta(int256)": "22289",
				"setRebasePolicy(address)": "23218",
				"setRouter(address)": "23229",
				"settleToken()": "1104",
				"symbol()": "infinite",
				"totalSupply()": "1127",
				"tradeToken()": "1148",
				"transfer(address,uint256)": "infinite",
				"transferAll(address)": "infinite",
				"transferAllFrom(address,address)": "infinite",
				"transferFrom(address,address,uint256)": "infinite",
				"transferOwnership(address)": "infinite"
			},
			"internal": {
				"_burn(address,uint256)": "infinite",
				"_mint(address,uint256)": "infinite",
				"_safeTransfer(address,address,uint256)": "infinite"
			}
		},
		"methodIdentifiers": {
			"DOMAIN_SEPARATOR()": "3644e515",
			"EIP712_DOMAIN()": "e1b11da4",
			"EIP712_REVISION()": "78160376",
			"PERMIT_TYPEHASH()": "30adf81f",
			"allowance(address,address)": "dd62ed3e",
			"approve(address,uint256)": "095ea7b3",
			"balanceOf(address)": "70a08231",
			"beta()": "9faa3c91",
			"burnCbbc(address)": "5f1a40a2",
			"cbbcType()": "3c974946",
			"decimals()": "313ce567",
			"decreaseAllowance(address,uint256)": "a457c2d7",
			"factory()": "c45a0155",
			"increaseAllowance(address,uint256)": "39509351",
			"initialize(address)": "c4d66de8",
			"initialize(address,address,address,uint8,uint8)": "903cd3e3",
			"initialize(string,string,uint8)": "1624f6c6",
			"isOwner()": "8f32d59b",
			"leverage()": "2c86d98e",
			"mintCbbc(address)": "4a02bd31",
			"name()": "06fdde03",
			"nonces(address)": "7ecebe00",
			"owner()": "8da5cb5b",
			"permit(address,address,uint256,uint256,uint8,bytes32,bytes32)": "d505accf",
			"rebase(uint256,int256)": "7a43e23f",
			"rebasePolicy()": "bbb1863a",
			"rebasePrice()": "ddd6f962",
			"rebaseTimestamp()": "08a3809d",
			"renounceOwnership()": "715018a6",
			"router()": "f887ea40",
			"scaledBalanceOf(address)": "1da24f3e",
			"scaledTotalSupply()": "b1bf962d",
			"setBeta(int256)": "d9131384",
			"setRebasePolicy(address)": "df896754",
			"setRouter(address)": "c0d78655",
			"settleToken()": "74e14eb8",
			"symbol()": "95d89b41",
			"totalSupply()": "18160ddd",
			"tradeToken()": "d83678ac",
			"transfer(address,uint256)": "a9059cbb",
			"transferAll(address)": "a3a7e7f3",
			"transferAllFrom(address,address)": "84d4b410",
			"transferFrom(address,address,uint256)": "23b872dd",
			"transferOwnership(address)": "f2fde38b"
		}
	},
	"abi": [
		{
			"anonymous": false,
			"inputs": [
				{
					"indexed": true,
					"internalType": "address",
					"name": "owner",
					"type": "address"
				},
				{
					"indexed": true,
					"internalType": "address",
					"name": "spender",
					"type": "address"
				},
				{
					"indexed": false,
					"internalType": "uint256",
					"name": "value",
					"type": "uint256"
				}
			],
			"name": "Approval",
			"type": "event"
		},
		{
			"anonymous": false,
			"inputs": [
				{
					"indexed": true,
					"internalType": "address",
					"name": "sender",
					"type": "address"
				},
				{
					"indexed": false,
					"internalType": "uint256",
					"name": "liquidity",
					"type": "uint256"
				},
				{
					"indexed": true,
					"internalType": "address",
					"name": "to",
					"type": "address"
				}
			],
			"name": "Burn",
			"type": "event"
		},
		{
			"anonymous": false,
			"inputs": [
				{
					"indexed": true,
					"internalType": "address",
					"name": "settleToken",
					"type": "address"
				},
				{
					"indexed": true,
					"internalType": "address",
					"name": "tradeToken",
					"type": "address"
				},
				{
					"indexed": false,
					"internalType": "address",
					"name": "cbbc",
					"type": "address"
				},
				{
					"indexed": false,
					"internalType": "uint8",
					"name": "leverage",
					"type": "uint8"
				},
				{
					"indexed": false,
					"internalType": "enum ICbbcToken.CbbcType",
					"name": "cbbcType",
					"type": "uint8"
				}
			],
			"name": "CbbcCreated",
			"type": "event"
		},
		{
			"anonymous": false,
			"inputs": [
				{
					"indexed": false,
					"internalType": "int256",
					"name": "beta_",
					"type": "int256"
				}
			],
			"name": "LogBetaUpdated",
			"type": "event"
		},
		{
			"anonymous": false,
			"inputs": [
				{
					"indexed": true,
					"internalType": "uint256",
					"name": "epoch",
					"type": "uint256"
				},
				{
					"indexed": false,
					"internalType": "uint256",
					"name": "",
					"type": "uint256"
				},
				{
					"indexed": false,
					"internalType": "uint256",
					"name": "price",
					"type": "uint256"
				},
				{
					"indexed": false,
					"internalType": "uint256",
					"name": "totalSupply",
					"type": "uint256"
				}
			],
			"name": "LogRebase",
			"type": "event"
		},
		{
			"anonymous": false,
			"inputs": [
				{
					"indexed": false,
					"internalType": "address",
					"name": "rebasePolicy",
					"type": "address"
				}
			],
			"name": "LogRebasePolicyUpdated",
			"type": "event"
		},
		{
			"anonymous": false,
			"inputs": [
				{
					"indexed": false,
					"internalType": "address",
					"name": "router_",
					"type": "address"
				}
			],
			"name": "LogRouterUpdated",
			"type": "event"
		},
		{
			"anonymous": false,
			"inputs": [
				{
					"indexed": true,
					"internalType": "address",
					"name": "sender",
					"type": "address"
				},
				{
					"indexed": false,
					"internalType": "uint256",
					"name": "liquidity",
					"type": "uint256"
				}
			],
			"name": "Mint",
			"type": "event"
		},
		{
			"anonymous": false,
			"inputs": [
				{
					"indexed": true,
					"internalType": "address",
					"name": "previousOwner",
					"type": "address"
				}
			],
			"name": "OwnershipRenounced",
			"type": "event"
		},
		{
			"anonymous": false,
			"inputs": [
				{
					"indexed": true,
					"internalType": "address",
					"name": "previousOwner",
					"type": "address"
				},
				{
					"indexed": true,
					"internalType": "address",
					"name": "newOwner",
					"type": "address"
				}
			],
			"name": "OwnershipTransferred",
			"type": "event"
		},
		{
			"anonymous": false,
			"inputs": [
				{
					"indexed": true,
					"internalType": "address",
					"name": "from",
					"type": "address"
				},
				{
					"indexed": true,
					"internalType": "address",
					"name": "to",
					"type": "address"
				},
				{
					"indexed": false,
					"internalType": "uint256",
					"name": "value",
					"type": "uint256"
				}
			],
			"name": "Transfer",
			"type": "event"
		},
		{
			"inputs": [],
			"name": "DOMAIN_SEPARATOR",
			"outputs": [
				{
					"internalType": "bytes32",
					"name": "",
					"type": "bytes32"
				}
			],
			"stateMutability": "view",
			"type": "function"
		},
		{
			"inputs": [],
			"name": "EIP712_DOMAIN",
			"outputs": [
				{
					"internalType": "bytes32",
					"name": "",
					"type": "bytes32"
				}
			],
			"stateMutability": "view",
			"type": "function"
		},
		{
			"inputs": [],
			"name": "EIP712_REVISION",
			"outputs": [
				{
					"internalType": "string",
					"name": "",
					"type": "string"
				}
			],
			"stateMutability": "view",
			"type": "function"
		},
		{
			"inputs": [],
			"name": "PERMIT_TYPEHASH",
			"outputs": [
				{
					"internalType": "bytes32",
					"name": "",
					"type": "bytes32"
				}
			],
			"stateMutability": "view",
			"type": "function"
		},
		{
			"inputs": [
				{
					"internalType": "address",
					"name": "owner_",
					"type": "address"
				},
				{
					"internalType": "address",
					"name": "spender",
					"type": "address"
				}
			],
			"name": "allowance",
			"outputs": [
				{
					"internalType": "uint256",
					"name": "",
					"type": "uint256"
				}
			],
			"stateMutability": "view",
			"type": "function"
		},
		{
			"inputs": [
				{
					"internalType": "address",
					"name": "spender",
					"type": "address"
				},
				{
					"internalType": "uint256",
					"name": "value",
					"type": "uint256"
				}
			],
			"name": "approve",
			"outputs": [
				{
					"internalType": "bool",
					"name": "",
					"type": "bool"
				}
			],
			"stateMutability": "nonpayable",
			"type": "function"
		},
		{
			"inputs": [
				{
					"internalType": "address",
					"name": "who",
					"type": "address"
				}
			],
			"name": "balanceOf",
			"outputs": [
				{
					"internalType": "uint256",
					"name": "",
					"type": "uint256"
				}
			],
			"stateMutability": "view",
			"type": "function"
		},
		{
			"inputs": [],
			"name": "beta",
			"outputs": [
				{
					"internalType": "int256",
					"name": "",
					"type": "int256"
				}
			],
			"stateMutability": "view",
			"type": "function"
		},
		{
			"inputs": [
				{
					"internalType": "address",
					"name": "to",
					"type": "address"
				}
			],
			"name": "burnCbbc",
			"outputs": [
				{
					"internalType": "uint256",
					"name": "settleAmount",
					"type": "uint256"
				}
			],
			"stateMutability": "nonpayable",
			"type": "function"
		},
		{
			"inputs": [],
			"name": "cbbcType",
			"outputs": [
				{
					"internalType": "enum ICbbcToken.CbbcType",
					"name": "",
					"type": "uint8"
				}
			],
			"stateMutability": "view",
			"type": "function"
		},
		{
			"inputs": [],
			"name": "decimals",
			"outputs": [
				{
					"internalType": "uint8",
					"name": "",
					"type": "uint8"
				}
			],
			"stateMutability": "view",
			"type": "function"
		},
		{
			"inputs": [
				{
					"internalType": "address",
					"name": "spender",
					"type": "address"
				},
				{
					"internalType": "uint256",
					"name": "subtractedValue",
					"type": "uint256"
				}
			],
			"name": "decreaseAllowance",
			"outputs": [
				{
					"internalType": "bool",
					"name": "",
					"type": "bool"
				}
			],
			"stateMutability": "nonpayable",
			"type": "function"
		},
		{
			"inputs": [],
			"name": "factory",
			"outputs": [
				{
					"internalType": "contract ICbbcFactory",
					"name": "",
					"type": "address"
				}
			],
			"stateMutability": "view",
			"type": "function"
		},
		{
			"inputs": [
				{
					"internalType": "address",
					"name": "spender",
					"type": "address"
				},
				{
					"internalType": "uint256",
					"name": "addedValue",
					"type": "uint256"
				}
			],
			"name": "increaseAllowance",
			"outputs": [
				{
					"internalType": "bool",
					"name": "",
					"type": "bool"
				}
			],
			"stateMutability": "nonpayable",
			"type": "function"
		},
		{
			"inputs": [
				{
					"internalType": "string",
					"name": "name_",
					"type": "string"
				},
				{
					"internalType": "string",
					"name": "symbol_",
					"type": "string"
				},
				{
					"internalType": "uint8",
					"name": "decimals_",
					"type": "uint8"
				}
			],
			"name": "initialize",
			"outputs": [],
			"stateMutability": "nonpayable",
			"type": "function"
		},
		{
			"inputs": [
				{
					"internalType": "contract ICbbcFactory",
					"name": "factory_",
					"type": "address"
				},
				{
					"internalType": "address",
					"name": "settleToken_",
					"type": "address"
				},
				{
					"internalType": "address",
					"name": "tradeToken_",
					"type": "address"
				},
				{
					"internalType": "uint8",
					"name": "leverage_",
					"type": "uint8"
				},
				{
					"internalType": "enum ICbbcToken.CbbcType",
					"name": "cbbcType_",
					"type": "uint8"
				}
			],
			"name": "initialize",
			"outputs": [],
			"stateMutability": "nonpayable",
			"type": "function"
		},
		{
			"inputs": [
				{
					"internalType": "address",
					"name": "sender",
					"type": "address"
				}
			],
			"name": "initialize",
			"outputs": [],
			"stateMutability": "nonpayable",
			"type": "function"
		},
		{
			"inputs": [],
			"name": "isOwner",
			"outputs": [
				{
					"internalType": "bool",
					"name": "",
					"type": "bool"
				}
			],
			"stateMutability": "view",
			"type": "function"
		},
		{
			"inputs": [],
			"name": "leverage",
			"outputs": [
				{
					"internalType": "uint8",
					"name": "",
					"type": "uint8"
				}
			],
			"stateMutability": "view",
			"type": "function"
		},
		{
			"inputs": [
				{
					"internalType": "address",
					"name": "to",
					"type": "address"
				}
			],
			"name": "mintCbbc",
			"outputs": [
				{
					"internalType": "uint256",
					"name": "cbbcAmount",
					"type": "uint256"
				}
			],
			"stateMutability": "nonpayable",
			"type": "function"
		},
		{
			"inputs": [],
			"name": "name",
			"outputs": [
				{
					"internalType": "string",
					"name": "",
					"type": "string"
				}
			],
			"stateMutability": "view",
			"type": "function"
		},
		{
			"inputs": [
				{
					"internalType": "address",
					"name": "who",
					"type": "address"
				}
			],
			"name": "nonces",
			"outputs": [
				{
					"internalType": "uint256",
					"name": "",
					"type": "uint256"
				}
			],
			"stateMutability": "view",
			"type": "function"
		},
		{
			"inputs": [],
			"name": "owner",
			"outputs": [
				{
					"internalType": "address",
					"name": "",
					"type": "address"
				}
			],
			"stateMutability": "view",
			"type": "function"
		},
		{
			"inputs": [
				{
					"internalType": "address",
					"name": "owner",
					"type": "address"
				},
				{
					"internalType": "address",
					"name": "spender",
					"type": "address"
				},
				{
					"internalType": "uint256",
					"name": "value",
					"type": "uint256"
				},
				{
					"internalType": "uint256",
					"name": "deadline",
					"type": "uint256"
				},
				{
					"internalType": "uint8",
					"name": "v",
					"type": "uint8"
				},
				{
					"internalType": "bytes32",
					"name": "r",
					"type": "bytes32"
				},
				{
					"internalType": "bytes32",
					"name": "s",
					"type": "bytes32"
				}
			],
			"name": "permit",
			"outputs": [],
			"stateMutability": "nonpayable",
			"type": "function"
		},
		{
			"inputs": [
				{
					"internalType": "uint256",
					"name": "epoch",
					"type": "uint256"
				},
				{
					"internalType": "int256",
					"name": "supplyDelta",
					"type": "int256"
				}
			],
			"name": "rebase",
			"outputs": [
				{
					"internalType": "uint256",
					"name": "",
					"type": "uint256"
				}
			],
			"stateMutability": "nonpayable",
			"type": "function"
		},
		{
			"inputs": [],
			"name": "rebasePolicy",
			"outputs": [
				{
					"internalType": "contract ICbbcRebasePolicy",
					"name": "",
					"type": "address"
				}
			],
			"stateMutability": "view",
			"type": "function"
		},
		{
			"inputs": [],
			"name": "rebasePrice",
			"outputs": [
				{
					"internalType": "uint256",
					"name": "",
					"type": "uint256"
				}
			],
			"stateMutability": "view",
			"type": "function"
		},
		{
			"inputs": [],
			"name": "rebaseTimestamp",
			"outputs": [
				{
					"internalType": "uint256",
					"name": "",
					"type": "uint256"
				}
			],
			"stateMutability": "view",
			"type": "function"
		},
		{
			"inputs": [],
			"name": "renounceOwnership",
			"outputs": [],
			"stateMutability": "nonpayable",
			"type": "function"
		},
		{
			"inputs": [],
			"name": "router",
			"outputs": [
				{
					"internalType": "address",
					"name": "",
					"type": "address"
				}
			],
			"stateMutability": "view",
			"type": "function"
		},
		{
			"inputs": [
				{
					"internalType": "address",
					"name": "who",
					"type": "address"
				}
			],
			"name": "scaledBalanceOf",
			"outputs": [
				{
					"internalType": "uint256",
					"name": "",
					"type": "uint256"
				}
			],
			"stateMutability": "view",
			"type": "function"
		},
		{
			"inputs": [],
			"name": "scaledTotalSupply",
			"outputs": [
				{
					"internalType": "uint256",
					"name": "",
					"type": "uint256"
				}
			],
			"stateMutability": "view",
			"type": "function"
		},
		{
			"inputs": [
				{
					"internalType": "int256",
					"name": "beta_",
					"type": "int256"
				}
			],
			"name": "setBeta",
			"outputs": [],
			"stateMutability": "nonpayable",
			"type": "function"
		},
		{
			"inputs": [
				{
					"internalType": "address",
					"name": "rebasePolicy_",
					"type": "address"
				}
			],
			"name": "setRebasePolicy",
			"outputs": [],
			"stateMutability": "nonpayable",
			"type": "function"
		},
		{
			"inputs": [
				{
					"internalType": "address",
					"name": "router_",
					"type": "address"
				}
			],
			"name": "setRouter",
			"outputs": [],
			"stateMutability": "nonpayable",
			"type": "function"
		},
		{
			"inputs": [],
			"name": "settleToken",
			"outputs": [
				{
					"internalType": "address",
					"name": "",
					"type": "address"
				}
			],
			"stateMutability": "view",
			"type": "function"
		},
		{
			"inputs": [],
			"name": "symbol",
			"outputs": [
				{
					"internalType": "string",
					"name": "",
					"type": "string"
				}
			],
			"stateMutability": "view",
			"type": "function"
		},
		{
			"inputs": [],
			"name": "totalSupply",
			"outputs": [
				{
					"internalType": "uint256",
					"name": "",
					"type": "uint256"
				}
			],
			"stateMutability": "view",
			"type": "function"
		},
		{
			"inputs": [],
			"name": "tradeToken",
			"outputs": [
				{
					"internalType": "address",
					"name": "",
					"type": "address"
				}
			],
			"stateMutability": "view",
			"type": "function"
		},
		{
			"inputs": [
				{
					"internalType": "address",
					"name": "to",
					"type": "address"
				},
				{
					"internalType": "uint256",
					"name": "value",
					"type": "uint256"
				}
			],
			"name": "transfer",
			"outputs": [
				{
					"internalType": "bool",
					"name": "",
					"type": "bool"
				}
			],
			"stateMutability": "nonpayable",
			"type": "function"
		},
		{
			"inputs": [
				{
					"internalType": "address",
					"name": "to",
					"type": "address"
				}
			],
			"name": "transferAll",
			"outputs": [
				{
					"internalType": "bool",
					"name": "",
					"type": "bool"
				}
			],
			"stateMutability": "nonpayable",
			"type": "function"
		},
		{
			"inputs": [
				{
					"internalType": "address",
					"name": "from",
					"type": "address"
				},
				{
					"internalType": "address",
					"name": "to",
					"type": "address"
				}
			],
			"name": "transferAllFrom",
			"outputs": [
				{
					"internalType": "bool",
					"name": "",
					"type": "bool"
				}
			],
			"stateMutability": "nonpayable",
			"type": "function"
		},
		{
			"inputs": [
				{
					"internalType": "address",
					"name": "from",
					"type": "address"
				},
				{
					"internalType": "address",
					"name": "to",
					"type": "address"
				},
				{
					"internalType": "uint256",
					"name": "value",
					"type": "uint256"
				}
			],
			"name": "transferFrom",
			"outputs": [
				{
					"internalType": "bool",
					"name": "",
					"type": "bool"
				}
			],
			"stateMutability": "nonpayable",
			"type": "function"
		},
		{
			"inputs": [
				{
					"internalType": "address",
					"name": "newOwner",
					"type": "address"
				}
			],
			"name": "transferOwnership",
			"outputs": [],
			"stateMutability": "nonpayable",
			"type": "function"
		}
	]
}