{
	"data": {
		"bytecode": {
			"linkReferences": {},
			"object": "608060405234801561001057600080fd5b50611267806100206000396000f3fe608060405234801561001057600080fd5b506004361061014d5760003560e01c8063715018a6116100c3578063af14052c1161007c578063af14052c14610289578063b74795d914610291578063c4d66de8146102a4578063cd28ef0d146102b7578063d94ad837146102ca578063f2fde38b146102d35761014d565b8063715018a6146102375780638da5cb5b1461023f5780638f32d59b14610250578063900cf0cf146102645780639466120f1461026d5780639e30bac5146102765761014d565b806320ce83891161011557806320ce8389146101e35780633a93069b146101f6578063485cc955146101ff578063609615281461021257806363f6d4c8146102255780637052b9021461022e5761014d565b806302101899146101525780630e1b04ae1461016e578063105bad4f14610199578063111d0498146101b657806316250fd4146101ce575b600080fd5b61015b606a5481565b6040519081526020015b60405180910390f35b606654610181906001600160a01b031681565b6040516001600160a01b039091168152602001610165565b6101a16102e6565b60408051928352602083019190915201610165565b6101be61037a565b6040519015158152602001610165565b6101e16101dc366004610efd565b6103ba565b005b6101e16101f1366004610ecd565b6104ff565b61015b606b5481565b6101e161020d366004610e95565b6105a1565b606754610181906001600160a01b031681565b61015b60695481565b61015b606c5481565b6101e16106ac565b6033546001600160a01b0316610181565b6101be6033546001600160a01b0316331490565b61015b606e5481565b61015b606d5481565b6101e1610284366004610e79565b610713565b6101e1610752565b606f54610181906001600160a01b031681565b6101e16102b2366004610e79565b610b98565b6101e16102c5366004610e79565b610c1c565b61015b60685481565b6101e16102e1366004610e79565b610c5b565b600080606e54606660009054906101000a90046001600160a01b03166001600160a01b03166318160ddd6040518163ffffffff1660e01b815260040160206040518083038186803b15801561033a57600080fd5b505afa15801561034e573d6000803e3d6000fd5b505050506040513d601f19601f820116820180604052508101906103729190610ee5565b915091509091565b6000606c54606a544261038d91906111dc565b101580156103b55750606d54606c546103a69190610f76565b606a546103b390426111dc565b105b905090565b6103ce6033546001600160a01b0316331490565b6103d757600080fd5b6000831161045d5760405162461bcd60e51b815260206004820152604260248201527f43626263526562617365506f6c6963793a206d696e52656261736554696d654960448201527f6e74657276616c536563206d7573742062652067726561746572207468616e20606482015261181760f11b608482015260a4015b60405180910390fd5b8282106104f15760405162461bcd60e51b815260206004820152605660248201527f43626263526562617365506f6c6963793a206d696e52656261736554696d654960448201527f6e74657276616c536563206d7573742062652067726561746572207468616e206064820152753932b130b9b2abb4b73237bba7b33339b2ba29b2b19760511b608482015260a401610454565b606a92909255606c55606d55565b6105136033546001600160a01b0316331490565b61051c57600080fd5b6000811161059c5760405162461bcd60e51b815260206004820152604160248201527f43626263526562617365506f6c6963793a3a7365745265626173654c61673a2060448201527f7265626173654c6167206d7573742062652067726561746572207468616e20306064820152601760f91b608482015260a401610454565b606955565b600054610100900460ff16806105b65750303b155b806105c4575060005460ff16155b6105e05760405162461bcd60e51b815260040161045490610f28565b6000805461ffff19811661010117909155610100900460ff1661060283610b98565b60016069819055606a8190556000606c819055606d91909155606b819055606e55606680546001600160a01b0319166001600160a01b0384169081179091556040516337e259d560e21b815230600482015263df89675490602401600060405180830381600087803b15801561067757600080fd5b505af115801561068b573d6000803e3d6000fd5b5050600080549315156101000261ff00199094169390931790925550505050565b6106c06033546001600160a01b0316331490565b6106c957600080fd5b6033546040516001600160a01b03909116907ff8df31144d9c2f0f6b59d69b8b98abd5459d07f2742c4df920b25aae33c6482090600090a2603380546001600160a01b0319169055565b6107276033546001600160a01b0316331490565b61073057600080fd5b606780546001600160a01b0319166001600160a01b0392909216919091179055565b606f546001600160a01b031633146107ac5760405162461bcd60e51b815260206004820181905260248201527f434242433a204f4e4c595f4f7243484553545241544f525f414c4c4f5745442e6044820152606401610454565b6107b461037a565b6108005760405162461bcd60e51b815260206004820152601b60248201527f434242433a204e4f545f494e5f5245424153455f57494e444f572e00000000006044820152606401610454565b42606a54606b546108119190610f76565b1061081b57600080fd5b606c54606a5461082b90426111dc565b61083590426111c5565b61083f9190610f76565b606b55606e54610850906001610f76565b606e5560006108616012600a611016565b90506000606660009054906101000a90046001600160a01b03166001600160a01b0316639d1b464a6040518163ffffffff1660e01b815260040160206040518083038186803b1580156108b357600080fd5b505afa1580156108c7573d6000803e3d6000fd5b505050506040513d601f19601f820116820180604052508101906108eb9190610ee5565b90506108f96012600a611016565b610904906002611167565b811115610925576109176012600a611016565b610922906002611167565b90505b60006109318284610c84565b9050610948610941606954610d5b565b8290610d75565b9050600081138015610a0557506109616012600a611016565b61096c906002611167565b61097d906001600160ff1b03610fbc565b606654604080516318160ddd60e01b8152905184926001600160a01b0316916318160ddd916004808301926020929190829003018186803b1580156109c157600080fd5b505afa1580156109d5573d6000803e3d6000fd5b505050506040513d601f19601f820116820180604052508101906109f99190610ee5565b610a039190610f76565b115b15610ac257606654604080516318160ddd60e01b81529051610abf926001600160a01b0316916318160ddd916004808301926020929190829003018186803b158015610a5057600080fd5b505afa158015610a64573d6000803e3d6000fd5b505050506040513d601f19601f82011682018060405250810190610a889190610ee5565b610a946012600a611016565b610a9f906002611167565b610ab0906001600160ff1b03610fbc565b610aba91906111c5565b610d5b565b90505b606654606e54604051637a43e23f60e01b81526001600160a01b0390921691637a43e23f91610afe918590600401918252602082015260400190565b602060405180830381600087803b158015610b1857600080fd5b505af1158015610b2c573d6000803e3d6000fd5b505050506040513d601f19601f82011682018060405250810190610b509190610ee5565b50606e546040805184815260208101849052428183015290517f7f5c8486e564c1d27c32da42b1ba6a909114d7bbea36de9a66bc0bebfba26bc39181900360600190a2505050565b600054610100900460ff1680610bad5750303b155b80610bbb575060005460ff16155b610bd75760405162461bcd60e51b815260040161045490610f28565b60008054603380546001600160a01b0319166001600160a01b03949094169390931790925561ffff1982166101009283900460ff161515909202919091176001179055565b610c306033546001600160a01b0316331490565b610c3957600080fd5b606f80546001600160a01b0319166001600160a01b0392909216919091179055565b610c6f6033546001600160a01b0316331490565b610c7857600080fd5b610c8181610da6565b50565b6000610c908383610e15565b15610c9d57506000610d55565b6000610ca883610d5b565b90508081610cb586610d5b565b610cbf9190611186565b606654604080516318160ddd60e01b81529051610d3d926001600160a01b0316916318160ddd916004808301926020929190829003018186803b158015610d0557600080fd5b505afa158015610d19573d6000803e3d6000fd5b505050506040513d601f19601f82011682018060405250810190610aba9190610ee5565b610d4791906110e4565b610d519190610f8e565b9150505b92915050565b60006001600160ff1b03821115610d7157600080fd5b5090565b600081600019141580610d8c5750600160ff1b8314155b610d9557600080fd5b610d9f8284610f8e565b9392505050565b6001600160a01b038116610db957600080fd5b6033546040516001600160a01b038084169216907f8be0079c531659141344cd1fd0a4f28419497f9722a3daafe3b4186f6b6457e090600090a3603380546001600160a01b0319166001600160a01b0392909216919091179055565b600080610e246012600a611016565b606854610e319085611167565b610e3b9190610fbc565b9050828410158015610e55575080610e5384866111c5565b105b80610d5157508284108015610d51575080610e7085856111c5565b10949350505050565b600060208284031215610e8a578081fd5b8135610d9f8161121c565b60008060408385031215610ea7578081fd5b8235610eb28161121c565b91506020830135610ec28161121c565b809150509250929050565b600060208284031215610ede578081fd5b5035919050565b600060208284031215610ef6578081fd5b5051919050565b600080600060608486031215610f11578081fd5b505081359360208301359350604090920135919050565b6020808252602e908201527f436f6e747261637420696e7374616e63652068617320616c726561647920626560408201526d195b881a5b9a5d1a585b1a5e995960921b606082015260800190565b60008219821115610f8957610f896111f0565b500190565b600082610f9d57610f9d611206565b600160ff1b821460001984141615610fb757610fb76111f0565b500590565b600082610fcb57610fcb611206565b500490565b80825b6001808611610fe2575061100d565b818704821115610ff457610ff46111f0565b8086161561100157918102915b9490941c938002610fd3565b94509492505050565b6000610d9f600019848460008261102f57506001610d9f565b8161103c57506000610d9f565b8160018114611052576002811461105c57611089565b6001915050610d9f565b60ff84111561106d5761106d6111f0565b6001841b915084821115611083576110836111f0565b50610d9f565b5060208310610133831016604e8410600b84101617156110bc575081810a838111156110b7576110b76111f0565b610d9f565b6110c98484846001610fd0565b8086048211156110db576110db6111f0565b02949350505050565b60006001600160ff1b038184138284138082168684048611161561110a5761110a6111f0565b600160ff1b84871282811687830589121615611128576111286111f0565b858712925087820587128484161615611143576111436111f0565b87850587128184161615611159576111596111f0565b505050929093029392505050565b6000816000190483118215151615611181576111816111f0565b500290565b60008083128015600160ff1b8501841216156111a4576111a46111f0565b6001600160ff1b03840183138116156111bf576111bf6111f0565b50500390565b6000828210156111d7576111d76111f0565b500390565b6000826111eb576111eb611206565b500690565b634e487b7160e01b600052601160045260246000fd5b634e487b7160e01b600052601260045260246000fd5b6001600160a01b0381168114610c8157600080fdfea26469706673582212204371105057f0d3ea89e1bb3e910294f44ae8702137ffe65415412ca93cfedfe464736f6c63430008030033",
			"opcodes": "PUSH1 0x80 PUSH1 0x40 MSTORE CALLVALUE DUP1 ISZERO PUSH2 0x10 JUMPI PUSH1 0x0 DUP1 REVERT JUMPDEST POP PUSH2 0x1267 DUP1 PUSH2 0x20 PUSH1 0x0 CODECOPY PUSH1 0x0 RETURN INVALID PUSH1 0x80 PUSH1 0x40 MSTORE CALLVALUE DUP1 ISZERO PUSH2 0x10 JUMPI PUSH1 0x0 DUP1 REVERT JUMPDEST POP PUSH1 0x4 CALLDATASIZE LT PUSH2 0x14D JUMPI PUSH1 0x0 CALLDATALOAD PUSH1 0xE0 SHR DUP1 PUSH4 0x715018A6 GT PUSH2 0xC3 JUMPI DUP1 PUSH4 0xAF14052C GT PUSH2 0x7C JUMPI DUP1 PUSH4 0xAF14052C EQ PUSH2 0x289 JUMPI DUP1 PUSH4 0xB74795D9 EQ PUSH2 0x291 JUMPI DUP1 PUSH4 0xC4D66DE8 EQ PUSH2 0x2A4 JUMPI DUP1 PUSH4 0xCD28EF0D EQ PUSH2 0x2B7 JUMPI DUP1 PUSH4 0xD94AD837 EQ PUSH2 0x2CA JUMPI DUP1 PUSH4 0xF2FDE38B EQ PUSH2 0x2D3 JUMPI PUSH2 0x14D JUMP JUMPDEST DUP1 PUSH4 0x715018A6 EQ PUSH2 0x237 JUMPI DUP1 PUSH4 0x8DA5CB5B EQ PUSH2 0x23F JUMPI DUP1 PUSH4 0x8F32D59B EQ PUSH2 0x250 JUMPI DUP1 PUSH4 0x900CF0CF EQ PUSH2 0x264 JUMPI DUP1 PUSH4 0x9466120F EQ PUSH2 0x26D JUMPI DUP1 PUSH4 0x9E30BAC5 EQ PUSH2 0x276 JUMPI PUSH2 0x14D JUMP JUMPDEST DUP1 PUSH4 0x20CE8389 GT PUSH2 0x115 JUMPI DUP1 PUSH4 0x20CE8389 EQ PUSH2 0x1E3 JUMPI DUP1 PUSH4 0x3A93069B EQ PUSH2 0x1F6 JUMPI DUP1 PUSH4 0x485CC955 EQ PUSH2 0x1FF JUMPI DUP1 PUSH4 0x60961528 EQ PUSH2 0x212 JUMPI DUP1 PUSH4 0x63F6D4C8 EQ PUSH2 0x225 JUMPI DUP1 PUSH4 0x7052B902 EQ PUSH2 0x22E JUMPI PUSH2 0x14D JUMP JUMPDEST DUP1 PUSH4 0x2101899 EQ PUSH2 0x152 JUMPI DUP1 PUSH4 0xE1B04AE EQ PUSH2 0x16E JUMPI DUP1 PUSH4 0x105BAD4F EQ PUSH2 0x199 JUMPI DUP1 PUSH4 0x111D0498 EQ PUSH2 0x1B6 JUMPI DUP1 PUSH4 0x16250FD4 EQ PUSH2 0x1CE JUMPI JUMPDEST PUSH1 0x0 DUP1 REVERT JUMPDEST PUSH2 0x15B PUSH1 0x6A SLOAD DUP2 JUMP JUMPDEST PUSH1 0x40 MLOAD SWAP1 DUP2 MSTORE PUSH1 0x20 ADD JUMPDEST PUSH1 0x40 MLOAD DUP1 SWAP2 SUB SWAP1 RETURN JUMPDEST PUSH1 0x66 SLOAD PUSH2 0x181 SWAP1 PUSH1 0x1 PUSH1 0x1 PUSH1 0xA0 SHL SUB AND DUP2 JUMP JUMPDEST PUSH1 0x40 MLOAD PUSH1 0x1 PUSH1 0x1 PUSH1 0xA0 SHL SUB SWAP1 SWAP2 AND DUP2 MSTORE PUSH1 0x20 ADD PUSH2 0x165 JUMP JUMPDEST PUSH2 0x1A1 PUSH2 0x2E6 JUMP JUMPDEST PUSH1 0x40 DUP1 MLOAD SWAP3 DUP4 MSTORE PUSH1 0x20 DUP4 ADD SWAP2 SWAP1 SWAP2 MSTORE ADD PUSH2 0x165 JUMP JUMPDEST PUSH2 0x1BE PUSH2 0x37A JUMP JUMPDEST PUSH1 0x40 MLOAD SWAP1 ISZERO ISZERO DUP2 MSTORE PUSH1 0x20 ADD PUSH2 0x165 JUMP JUMPDEST PUSH2 0x1E1 PUSH2 0x1DC CALLDATASIZE PUSH1 0x4 PUSH2 0xEFD JUMP JUMPDEST PUSH2 0x3BA JUMP JUMPDEST STOP JUMPDEST PUSH2 0x1E1 PUSH2 0x1F1 CALLDATASIZE PUSH1 0x4 PUSH2 0xECD JUMP JUMPDEST PUSH2 0x4FF JUMP JUMPDEST PUSH2 0x15B PUSH1 0x6B SLOAD DUP2 JUMP JUMPDEST PUSH2 0x1E1 PUSH2 0x20D CALLDATASIZE PUSH1 0x4 PUSH2 0xE95 JUMP JUMPDEST PUSH2 0x5A1 JUMP JUMPDEST PUSH1 0x67 SLOAD PUSH2 0x181 SWAP1 PUSH1 0x1 PUSH1 0x1 PUSH1 0xA0 SHL SUB AND DUP2 JUMP JUMPDEST PUSH2 0x15B PUSH1 0x69 SLOAD DUP2 JUMP JUMPDEST PUSH2 0x15B PUSH1 0x6C SLOAD DUP2 JUMP JUMPDEST PUSH2 0x1E1 PUSH2 0x6AC JUMP JUMPDEST PUSH1 0x33 SLOAD PUSH1 0x1 PUSH1 0x1 PUSH1 0xA0 SHL SUB AND PUSH2 0x181 JUMP JUMPDEST PUSH2 0x1BE PUSH1 0x33 SLOAD PUSH1 0x1 PUSH1 0x1 PUSH1 0xA0 SHL SUB AND CALLER EQ SWAP1 JUMP JUMPDEST PUSH2 0x15B PUSH1 0x6E SLOAD DUP2 JUMP JUMPDEST PUSH2 0x15B PUSH1 0x6D SLOAD DUP2 JUMP JUMPDEST PUSH2 0x1E1 PUSH2 0x284 CALLDATASIZE PUSH1 0x4 PUSH2 0xE79 JUMP JUMPDEST PUSH2 0x713 JUMP JUMPDEST PUSH2 0x1E1 PUSH2 0x752 JUMP JUMPDEST PUSH1 0x6F SLOAD PUSH2 0x181 SWAP1 PUSH1 0x1 PUSH1 0x1 PUSH1 0xA0 SHL SUB AND DUP2 JUMP JUMPDEST PUSH2 0x1E1 PUSH2 0x2B2 CALLDATASIZE PUSH1 0x4 PUSH2 0xE79 JUMP JUMPDEST PUSH2 0xB98 JUMP JUMPDEST PUSH2 0x1E1 PUSH2 0x2C5 CALLDATASIZE PUSH1 0x4 PUSH2 0xE79 JUMP JUMPDEST PUSH2 0xC1C JUMP JUMPDEST PUSH2 0x15B PUSH1 0x68 SLOAD DUP2 JUMP JUMPDEST PUSH2 0x1E1 PUSH2 0x2E1 CALLDATASIZE PUSH1 0x4 PUSH2 0xE79 JUMP JUMPDEST PUSH2 0xC5B JUMP JUMPDEST PUSH1 0x0 DUP1 PUSH1 0x6E SLOAD PUSH1 0x66 PUSH1 0x0 SWAP1 SLOAD SWAP1 PUSH2 0x100 EXP SWAP1 DIV PUSH1 0x1 PUSH1 0x1 PUSH1 0xA0 SHL SUB AND PUSH1 0x1 PUSH1 0x1 PUSH1 0xA0 SHL SUB AND PUSH4 0x18160DDD PUSH1 0x40 MLOAD DUP2 PUSH4 0xFFFFFFFF AND PUSH1 0xE0 SHL DUP2 MSTORE PUSH1 0x4 ADD PUSH1 0x20 PUSH1 0x40 MLOAD DUP1 DUP4 SUB DUP2 DUP7 DUP1 EXTCODESIZE ISZERO DUP1 ISZERO PUSH2 0x33A JUMPI PUSH1 0x0 DUP1 REVERT JUMPDEST POP GAS STATICCALL ISZERO DUP1 ISZERO PUSH2 0x34E JUMPI RETURNDATASIZE PUSH1 0x0 DUP1 RETURNDATACOPY RETURNDATASIZE PUSH1 0x0 REVERT JUMPDEST POP POP POP POP PUSH1 0x40 MLOAD RETURNDATASIZE PUSH1 0x1F NOT PUSH1 0x1F DUP3 ADD AND DUP3 ADD DUP1 PUSH1 0x40 MSTORE POP DUP2 ADD SWAP1 PUSH2 0x372 SWAP2 SWAP1 PUSH2 0xEE5 JUMP JUMPDEST SWAP2 POP SWAP2 POP SWAP1 SWAP2 JUMP JUMPDEST PUSH1 0x0 PUSH1 0x6C SLOAD PUSH1 0x6A SLOAD TIMESTAMP PUSH2 0x38D SWAP2 SWAP1 PUSH2 0x11DC JUMP JUMPDEST LT ISZERO DUP1 ISZERO PUSH2 0x3B5 JUMPI POP PUSH1 0x6D SLOAD PUSH1 0x6C SLOAD PUSH2 0x3A6 SWAP2 SWAP1 PUSH2 0xF76 JUMP JUMPDEST PUSH1 0x6A SLOAD PUSH2 0x3B3 SWAP1 TIMESTAMP PUSH2 0x11DC JUMP JUMPDEST LT JUMPDEST SWAP1 POP SWAP1 JUMP JUMPDEST PUSH2 0x3CE PUSH1 0x33 SLOAD PUSH1 0x1 PUSH1 0x1 PUSH1 0xA0 SHL SUB AND CALLER EQ SWAP1 JUMP JUMPDEST PUSH2 0x3D7 JUMPI PUSH1 0x0 DUP1 REVERT JUMPDEST PUSH1 0x0 DUP4 GT PUSH2 0x45D JUMPI PUSH1 0x40 MLOAD PUSH3 0x461BCD PUSH1 0xE5 SHL DUP2 MSTORE PUSH1 0x20 PUSH1 0x4 DUP3 ADD MSTORE PUSH1 0x42 PUSH1 0x24 DUP3 ADD MSTORE PUSH32 0x43626263526562617365506F6C6963793A206D696E52656261736554696D6549 PUSH1 0x44 DUP3 ADD MSTORE PUSH32 0x6E74657276616C536563206D7573742062652067726561746572207468616E20 PUSH1 0x64 DUP3 ADD MSTORE PUSH2 0x1817 PUSH1 0xF1 SHL PUSH1 0x84 DUP3 ADD MSTORE PUSH1 0xA4 ADD JUMPDEST PUSH1 0x40 MLOAD DUP1 SWAP2 SUB SWAP1 REVERT JUMPDEST DUP3 DUP3 LT PUSH2 0x4F1 JUMPI PUSH1 0x40 MLOAD PUSH3 0x461BCD PUSH1 0xE5 SHL DUP2 MSTORE PUSH1 0x20 PUSH1 0x4 DUP3 ADD MSTORE PUSH1 0x56 PUSH1 0x24 DUP3 ADD MSTORE PUSH32 0x43626263526562617365506F6C6963793A206D696E52656261736554696D6549 PUSH1 0x44 DUP3 ADD MSTORE PUSH32 0x6E74657276616C536563206D7573742062652067726561746572207468616E20 PUSH1 0x64 DUP3 ADD MSTORE PUSH22 0x3932B130B9B2ABB4B73237BBA7B33339B2BA29B2B197 PUSH1 0x51 SHL PUSH1 0x84 DUP3 ADD MSTORE PUSH1 0xA4 ADD PUSH2 0x454 JUMP JUMPDEST PUSH1 0x6A SWAP3 SWAP1 SWAP3 SSTORE PUSH1 0x6C SSTORE PUSH1 0x6D SSTORE JUMP JUMPDEST PUSH2 0x513 PUSH1 0x33 SLOAD PUSH1 0x1 PUSH1 0x1 PUSH1 0xA0 SHL SUB AND CALLER EQ SWAP1 JUMP JUMPDEST PUSH2 0x51C JUMPI PUSH1 0x0 DUP1 REVERT JUMPDEST PUSH1 0x0 DUP2 GT PUSH2 0x59C JUMPI PUSH1 0x40 MLOAD PUSH3 0x461BCD PUSH1 0xE5 SHL DUP2 MSTORE PUSH1 0x20 PUSH1 0x4 DUP3 ADD MSTORE PUSH1 0x41 PUSH1 0x24 DUP3 ADD MSTORE PUSH32 0x43626263526562617365506F6C6963793A3A7365745265626173654C61673A20 PUSH1 0x44 DUP3 ADD MSTORE PUSH32 0x7265626173654C6167206D7573742062652067726561746572207468616E2030 PUSH1 0x64 DUP3 ADD MSTORE PUSH1 0x17 PUSH1 0xF9 SHL PUSH1 0x84 DUP3 ADD MSTORE PUSH1 0xA4 ADD PUSH2 0x454 JUMP JUMPDEST PUSH1 0x69 SSTORE JUMP JUMPDEST PUSH1 0x0 SLOAD PUSH2 0x100 SWAP1 DIV PUSH1 0xFF AND DUP1 PUSH2 0x5B6 JUMPI POP ADDRESS EXTCODESIZE ISZERO JUMPDEST DUP1 PUSH2 0x5C4 JUMPI POP PUSH1 0x0 SLOAD PUSH1 0xFF AND ISZERO JUMPDEST PUSH2 0x5E0 JUMPI PUSH1 0x40 MLOAD PUSH3 0x461BCD PUSH1 0xE5 SHL DUP2 MSTORE PUSH1 0x4 ADD PUSH2 0x454 SWAP1 PUSH2 0xF28 JUMP JUMPDEST PUSH1 0x0 DUP1 SLOAD PUSH2 0xFFFF NOT DUP2 AND PUSH2 0x101 OR SWAP1 SWAP2 SSTORE PUSH2 0x100 SWAP1 DIV PUSH1 0xFF AND PUSH2 0x602 DUP4 PUSH2 0xB98 JUMP JUMPDEST PUSH1 0x1 PUSH1 0x69 DUP2 SWAP1 SSTORE PUSH1 0x6A DUP2 SWAP1 SSTORE PUSH1 0x0 PUSH1 0x6C DUP2 SWAP1 SSTORE PUSH1 0x6D SWAP2 SWAP1 SWAP2 SSTORE PUSH1 0x6B DUP2 SWAP1 SSTORE PUSH1 0x6E SSTORE PUSH1 0x66 DUP1 SLOAD PUSH1 0x1 PUSH1 0x1 PUSH1 0xA0 SHL SUB NOT AND PUSH1 0x1 PUSH1 0x1 PUSH1 0xA0 SHL SUB DUP5 AND SWAP1 DUP2 OR SWAP1 SWAP2 SSTORE PUSH1 0x40 MLOAD PUSH4 0x37E259D5 PUSH1 0xE2 SHL DUP2 MSTORE ADDRESS PUSH1 0x4 DUP3 ADD MSTORE PUSH4 0xDF896754 SWAP1 PUSH1 0x24 ADD PUSH1 0x0 PUSH1 0x40 MLOAD DUP1 DUP4 SUB DUP2 PUSH1 0x0 DUP8 DUP1 EXTCODESIZE ISZERO DUP1 ISZERO PUSH2 0x677 JUMPI PUSH1 0x0 DUP1 REVERT JUMPDEST POP GAS CALL ISZERO DUP1 ISZERO PUSH2 0x68B JUMPI RETURNDATASIZE PUSH1 0x0 DUP1 RETURNDATACOPY RETURNDATASIZE PUSH1 0x0 REVERT JUMPDEST POP POP PUSH1 0x0 DUP1 SLOAD SWAP4 ISZERO ISZERO PUSH2 0x100 MUL PUSH2 0xFF00 NOT SWAP1 SWAP5 AND SWAP4 SWAP1 SWAP4 OR SWAP1 SWAP3 SSTORE POP POP POP POP JUMP JUMPDEST PUSH2 0x6C0 PUSH1 0x33 SLOAD PUSH1 0x1 PUSH1 0x1 PUSH1 0xA0 SHL SUB AND CALLER EQ SWAP1 JUMP JUMPDEST PUSH2 0x6C9 JUMPI PUSH1 0x0 DUP1 REVERT JUMPDEST PUSH1 0x33 SLOAD PUSH1 0x40 MLOAD PUSH1 0x1 PUSH1 0x1 PUSH1 0xA0 SHL SUB SWAP1 SWAP2 AND SWAP1 PUSH32 0xF8DF31144D9C2F0F6B59D69B8B98ABD5459D07F2742C4DF920B25AAE33C64820 SWAP1 PUSH1 0x0 SWAP1 LOG2 PUSH1 0x33 DUP1 SLOAD PUSH1 0x1 PUSH1 0x1 PUSH1 0xA0 SHL SUB NOT AND SWAP1 SSTORE JUMP JUMPDEST PUSH2 0x727 PUSH1 0x33 SLOAD PUSH1 0x1 PUSH1 0x1 PUSH1 0xA0 SHL SUB AND CALLER EQ SWAP1 JUMP JUMPDEST PUSH2 0x730 JUMPI PUSH1 0x0 DUP1 REVERT JUMPDEST PUSH1 0x67 DUP1 SLOAD PUSH1 0x1 PUSH1 0x1 PUSH1 0xA0 SHL SUB NOT AND PUSH1 0x1 PUSH1 0x1 PUSH1 0xA0 SHL SUB SWAP3 SWAP1 SWAP3 AND SWAP2 SWAP1 SWAP2 OR SWAP1 SSTORE JUMP JUMPDEST PUSH1 0x6F SLOAD PUSH1 0x1 PUSH1 0x1 PUSH1 0xA0 SHL SUB AND CALLER EQ PUSH2 0x7AC JUMPI PUSH1 0x40 MLOAD PUSH3 0x461BCD PUSH1 0xE5 SHL DUP2 MSTORE PUSH1 0x20 PUSH1 0x4 DUP3 ADD DUP2 SWAP1 MSTORE PUSH1 0x24 DUP3 ADD MSTORE PUSH32 0x434242433A204F4E4C595F4F7243484553545241544F525F414C4C4F5745442E PUSH1 0x44 DUP3 ADD MSTORE PUSH1 0x64 ADD PUSH2 0x454 JUMP JUMPDEST PUSH2 0x7B4 PUSH2 0x37A JUMP JUMPDEST PUSH2 0x800 JUMPI PUSH1 0x40 MLOAD PUSH3 0x461BCD PUSH1 0xE5 SHL DUP2 MSTORE PUSH1 0x20 PUSH1 0x4 DUP3 ADD MSTORE PUSH1 0x1B PUSH1 0x24 DUP3 ADD MSTORE PUSH32 0x434242433A204E4F545F494E5F5245424153455F57494E444F572E0000000000 PUSH1 0x44 DUP3 ADD MSTORE PUSH1 0x64 ADD PUSH2 0x454 JUMP JUMPDEST TIMESTAMP PUSH1 0x6A SLOAD PUSH1 0x6B SLOAD PUSH2 0x811 SWAP2 SWAP1 PUSH2 0xF76 JUMP JUMPDEST LT PUSH2 0x81B JUMPI PUSH1 0x0 DUP1 REVERT JUMPDEST PUSH1 0x6C SLOAD PUSH1 0x6A SLOAD PUSH2 0x82B SWAP1 TIMESTAMP PUSH2 0x11DC JUMP JUMPDEST PUSH2 0x835 SWAP1 TIMESTAMP PUSH2 0x11C5 JUMP JUMPDEST PUSH2 0x83F SWAP2 SWAP1 PUSH2 0xF76 JUMP JUMPDEST PUSH1 0x6B SSTORE PUSH1 0x6E SLOAD PUSH2 0x850 SWAP1 PUSH1 0x1 PUSH2 0xF76 JUMP JUMPDEST PUSH1 0x6E SSTORE PUSH1 0x0 PUSH2 0x861 PUSH1 0x12 PUSH1 0xA PUSH2 0x1016 JUMP JUMPDEST SWAP1 POP PUSH1 0x0 PUSH1 0x66 PUSH1 0x0 SWAP1 SLOAD SWAP1 PUSH2 0x100 EXP SWAP1 DIV PUSH1 0x1 PUSH1 0x1 PUSH1 0xA0 SHL SUB AND PUSH1 0x1 PUSH1 0x1 PUSH1 0xA0 SHL SUB AND PUSH4 0x9D1B464A PUSH1 0x40 MLOAD DUP2 PUSH4 0xFFFFFFFF AND PUSH1 0xE0 SHL DUP2 MSTORE PUSH1 0x4 ADD PUSH1 0x20 PUSH1 0x40 MLOAD DUP1 DUP4 SUB DUP2 DUP7 DUP1 EXTCODESIZE ISZERO DUP1 ISZERO PUSH2 0x8B3 JUMPI PUSH1 0x0 DUP1 REVERT JUMPDEST POP GAS STATICCALL ISZERO DUP1 ISZERO PUSH2 0x8C7 JUMPI RETURNDATASIZE PUSH1 0x0 DUP1 RETURNDATACOPY RETURNDATASIZE PUSH1 0x0 REVERT JUMPDEST POP POP POP POP PUSH1 0x40 MLOAD RETURNDATASIZE PUSH1 0x1F NOT PUSH1 0x1F DUP3 ADD AND DUP3 ADD DUP1 PUSH1 0x40 MSTORE POP DUP2 ADD SWAP1 PUSH2 0x8EB SWAP2 SWAP1 PUSH2 0xEE5 JUMP JUMPDEST SWAP1 POP PUSH2 0x8F9 PUSH1 0x12 PUSH1 0xA PUSH2 0x1016 JUMP JUMPDEST PUSH2 0x904 SWAP1 PUSH1 0x2 PUSH2 0x1167 JUMP JUMPDEST DUP2 GT ISZERO PUSH2 0x925 JUMPI PUSH2 0x917 PUSH1 0x12 PUSH1 0xA PUSH2 0x1016 JUMP JUMPDEST PUSH2 0x922 SWAP1 PUSH1 0x2 PUSH2 0x1167 JUMP JUMPDEST SWAP1 POP JUMPDEST PUSH1 0x0 PUSH2 0x931 DUP3 DUP5 PUSH2 0xC84 JUMP JUMPDEST SWAP1 POP PUSH2 0x948 PUSH2 0x941 PUSH1 0x69 SLOAD PUSH2 0xD5B JUMP JUMPDEST DUP3 SWAP1 PUSH2 0xD75 JUMP JUMPDEST SWAP1 POP PUSH1 0x0 DUP2 SGT DUP1 ISZERO PUSH2 0xA05 JUMPI POP PUSH2 0x961 PUSH1 0x12 PUSH1 0xA PUSH2 0x1016 JUMP JUMPDEST PUSH2 0x96C SWAP1 PUSH1 0x2 PUSH2 0x1167 JUMP JUMPDEST PUSH2 0x97D SWAP1 PUSH1 0x1 PUSH1 0x1 PUSH1 0xFF SHL SUB PUSH2 0xFBC JUMP JUMPDEST PUSH1 0x66 SLOAD PUSH1 0x40 DUP1 MLOAD PUSH4 0x18160DDD PUSH1 0xE0 SHL DUP2 MSTORE SWAP1 MLOAD DUP5 SWAP3 PUSH1 0x1 PUSH1 0x1 PUSH1 0xA0 SHL SUB AND SWAP2 PUSH4 0x18160DDD SWAP2 PUSH1 0x4 DUP1 DUP4 ADD SWAP3 PUSH1 0x20 SWAP3 SWAP2 SWAP1 DUP3 SWAP1 SUB ADD DUP2 DUP7 DUP1 EXTCODESIZE ISZERO DUP1 ISZERO PUSH2 0x9C1 JUMPI PUSH1 0x0 DUP1 REVERT JUMPDEST POP GAS STATICCALL ISZERO DUP1 ISZERO PUSH2 0x9D5 JUMPI RETURNDATASIZE PUSH1 0x0 DUP1 RETURNDATACOPY RETURNDATASIZE PUSH1 0x0 REVERT JUMPDEST POP POP POP POP PUSH1 0x40 MLOAD RETURNDATASIZE PUSH1 0x1F NOT PUSH1 0x1F DUP3 ADD AND DUP3 ADD DUP1 PUSH1 0x40 MSTORE POP DUP2 ADD SWAP1 PUSH2 0x9F9 SWAP2 SWAP1 PUSH2 0xEE5 JUMP JUMPDEST PUSH2 0xA03 SWAP2 SWAP1 PUSH2 0xF76 JUMP JUMPDEST GT JUMPDEST ISZERO PUSH2 0xAC2 JUMPI PUSH1 0x66 SLOAD PUSH1 0x40 DUP1 MLOAD PUSH4 0x18160DDD PUSH1 0xE0 SHL DUP2 MSTORE SWAP1 MLOAD PUSH2 0xABF SWAP3 PUSH1 0x1 PUSH1 0x1 PUSH1 0xA0 SHL SUB AND SWAP2 PUSH4 0x18160DDD SWAP2 PUSH1 0x4 DUP1 DUP4 ADD SWAP3 PUSH1 0x20 SWAP3 SWAP2 SWAP1 DUP3 SWAP1 SUB ADD DUP2 DUP7 DUP1 EXTCODESIZE ISZERO DUP1 ISZERO PUSH2 0xA50 JUMPI PUSH1 0x0 DUP1 REVERT JUMPDEST POP GAS STATICCALL ISZERO DUP1 ISZERO PUSH2 0xA64 JUMPI RETURNDATASIZE PUSH1 0x0 DUP1 RETURNDATACOPY RETURNDATASIZE PUSH1 0x0 REVERT JUMPDEST POP POP POP POP PUSH1 0x40 MLOAD RETURNDATASIZE PUSH1 0x1F NOT PUSH1 0x1F DUP3 ADD AND DUP3 ADD DUP1 PUSH1 0x40 MSTORE POP DUP2 ADD SWAP1 PUSH2 0xA88 SWAP2 SWAP1 PUSH2 0xEE5 JUMP JUMPDEST PUSH2 0xA94 PUSH1 0x12 PUSH1 0xA PUSH2 0x1016 JUMP JUMPDEST PUSH2 0xA9F SWAP1 PUSH1 0x2 PUSH2 0x1167 JUMP JUMPDEST PUSH2 0xAB0 SWAP1 PUSH1 0x1 PUSH1 0x1 PUSH1 0xFF SHL SUB PUSH2 0xFBC JUMP JUMPDEST PUSH2 0xABA SWAP2 SWAP1 PUSH2 0x11C5 JUMP JUMPDEST PUSH2 0xD5B JUMP JUMPDEST SWAP1 POP JUMPDEST PUSH1 0x66 SLOAD PUSH1 0x6E SLOAD PUSH1 0x40 MLOAD PUSH4 0x7A43E23F PUSH1 0xE0 SHL DUP2 MSTORE PUSH1 0x1 PUSH1 0x1 PUSH1 0xA0 SHL SUB SWAP1 SWAP3 AND SWAP2 PUSH4 0x7A43E23F SWAP2 PUSH2 0xAFE SWAP2 DUP6 SWAP1 PUSH1 0x4 ADD SWAP2 DUP3 MSTORE PUSH1 0x20 DUP3 ADD MSTORE PUSH1 0x40 ADD SWAP1 JUMP JUMPDEST PUSH1 0x20 PUSH1 0x40 MLOAD DUP1 DUP4 SUB DUP2 PUSH1 0x0 DUP8 DUP1 EXTCODESIZE ISZERO DUP1 ISZERO PUSH2 0xB18 JUMPI PUSH1 0x0 DUP1 REVERT JUMPDEST POP GAS CALL ISZERO DUP1 ISZERO PUSH2 0xB2C JUMPI RETURNDATASIZE PUSH1 0x0 DUP1 RETURNDATACOPY RETURNDATASIZE PUSH1 0x0 REVERT JUMPDEST POP POP POP POP PUSH1 0x40 MLOAD RETURNDATASIZE PUSH1 0x1F NOT PUSH1 0x1F DUP3 ADD AND DUP3 ADD DUP1 PUSH1 0x40 MSTORE POP DUP2 ADD SWAP1 PUSH2 0xB50 SWAP2 SWAP1 PUSH2 0xEE5 JUMP JUMPDEST POP PUSH1 0x6E SLOAD PUSH1 0x40 DUP1 MLOAD DUP5 DUP2 MSTORE PUSH1 0x20 DUP2 ADD DUP5 SWAP1 MSTORE TIMESTAMP DUP2 DUP4 ADD MSTORE SWAP1 MLOAD PUSH32 0x7F5C8486E564C1D27C32DA42B1BA6A909114D7BBEA36DE9A66BC0BEBFBA26BC3 SWAP2 DUP2 SWAP1 SUB PUSH1 0x60 ADD SWAP1 LOG2 POP POP POP JUMP JUMPDEST PUSH1 0x0 SLOAD PUSH2 0x100 SWAP1 DIV PUSH1 0xFF AND DUP1 PUSH2 0xBAD JUMPI POP ADDRESS EXTCODESIZE ISZERO JUMPDEST DUP1 PUSH2 0xBBB JUMPI POP PUSH1 0x0 SLOAD PUSH1 0xFF AND ISZERO JUMPDEST PUSH2 0xBD7 JUMPI PUSH1 0x40 MLOAD PUSH3 0x461BCD PUSH1 0xE5 SHL DUP2 MSTORE PUSH1 0x4 ADD PUSH2 0x454 SWAP1 PUSH2 0xF28 JUMP JUMPDEST PUSH1 0x0 DUP1 SLOAD PUSH1 0x33 DUP1 SLOAD PUSH1 0x1 PUSH1 0x1 PUSH1 0xA0 SHL SUB NOT AND PUSH1 0x1 PUSH1 0x1 PUSH1 0xA0 SHL SUB SWAP5 SWAP1 SWAP5 AND SWAP4 SWAP1 SWAP4 OR SWAP1 SWAP3 SSTORE PUSH2 0xFFFF NOT DUP3 AND PUSH2 0x100 SWAP3 DUP4 SWAP1 DIV PUSH1 0xFF AND ISZERO ISZERO SWAP1 SWAP3 MUL SWAP2 SWAP1 SWAP2 OR PUSH1 0x1 OR SWAP1 SSTORE JUMP JUMPDEST PUSH2 0xC30 PUSH1 0x33 SLOAD PUSH1 0x1 PUSH1 0x1 PUSH1 0xA0 SHL SUB AND CALLER EQ SWAP1 JUMP JUMPDEST PUSH2 0xC39 JUMPI PUSH1 0x0 DUP1 REVERT JUMPDEST PUSH1 0x6F DUP1 SLOAD PUSH1 0x1 PUSH1 0x1 PUSH1 0xA0 SHL SUB NOT AND PUSH1 0x1 PUSH1 0x1 PUSH1 0xA0 SHL SUB SWAP3 SWAP1 SWAP3 AND SWAP2 SWAP1 SWAP2 OR SWAP1 SSTORE JUMP JUMPDEST PUSH2 0xC6F PUSH1 0x33 SLOAD PUSH1 0x1 PUSH1 0x1 PUSH1 0xA0 SHL SUB AND CALLER EQ SWAP1 JUMP JUMPDEST PUSH2 0xC78 JUMPI PUSH1 0x0 DUP1 REVERT JUMPDEST PUSH2 0xC81 DUP2 PUSH2 0xDA6 JUMP JUMPDEST POP JUMP JUMPDEST PUSH1 0x0 PUSH2 0xC90 DUP4 DUP4 PUSH2 0xE15 JUMP JUMPDEST ISZERO PUSH2 0xC9D JUMPI POP PUSH1 0x0 PUSH2 0xD55 JUMP JUMPDEST PUSH1 0x0 PUSH2 0xCA8 DUP4 PUSH2 0xD5B JUMP JUMPDEST SWAP1 POP DUP1 DUP2 PUSH2 0xCB5 DUP7 PUSH2 0xD5B JUMP JUMPDEST PUSH2 0xCBF SWAP2 SWAP1 PUSH2 0x1186 JUMP JUMPDEST PUSH1 0x66 SLOAD PUSH1 0x40 DUP1 MLOAD PUSH4 0x18160DDD PUSH1 0xE0 SHL DUP2 MSTORE SWAP1 MLOAD PUSH2 0xD3D SWAP3 PUSH1 0x1 PUSH1 0x1 PUSH1 0xA0 SHL SUB AND SWAP2 PUSH4 0x18160DDD SWAP2 PUSH1 0x4 DUP1 DUP4 ADD SWAP3 PUSH1 0x20 SWAP3 SWAP2 SWAP1 DUP3 SWAP1 SUB ADD DUP2 DUP7 DUP1 EXTCODESIZE ISZERO DUP1 ISZERO PUSH2 0xD05 JUMPI PUSH1 0x0 DUP1 REVERT JUMPDEST POP GAS STATICCALL ISZERO DUP1 ISZERO PUSH2 0xD19 JUMPI RETURNDATASIZE PUSH1 0x0 DUP1 RETURNDATACOPY RETURNDATASIZE PUSH1 0x0 REVERT JUMPDEST POP POP POP POP PUSH1 0x40 MLOAD RETURNDATASIZE PUSH1 0x1F NOT PUSH1 0x1F DUP3 ADD AND DUP3 ADD DUP1 PUSH1 0x40 MSTORE POP DUP2 ADD SWAP1 PUSH2 0xABA SWAP2 SWAP1 PUSH2 0xEE5 JUMP JUMPDEST PUSH2 0xD47 SWAP2 SWAP1 PUSH2 0x10E4 JUMP JUMPDEST PUSH2 0xD51 SWAP2 SWAP1 PUSH2 0xF8E JUMP JUMPDEST SWAP2 POP POP JUMPDEST SWAP3 SWAP2 POP POP JUMP JUMPDEST PUSH1 0x0 PUSH1 0x1 PUSH1 0x1 PUSH1 0xFF SHL SUB DUP3 GT ISZERO PUSH2 0xD71 JUMPI PUSH1 0x0 DUP1 REVERT JUMPDEST POP SWAP1 JUMP JUMPDEST PUSH1 0x0 DUP2 PUSH1 0x0 NOT EQ ISZERO DUP1 PUSH2 0xD8C JUMPI POP PUSH1 0x1 PUSH1 0xFF SHL DUP4 EQ ISZERO JUMPDEST PUSH2 0xD95 JUMPI PUSH1 0x0 DUP1 REVERT JUMPDEST PUSH2 0xD9F DUP3 DUP5 PUSH2 0xF8E JUMP JUMPDEST SWAP4 SWAP3 POP POP POP JUMP JUMPDEST PUSH1 0x1 PUSH1 0x1 PUSH1 0xA0 SHL SUB DUP2 AND PUSH2 0xDB9 JUMPI PUSH1 0x0 DUP1 REVERT JUMPDEST PUSH1 0x33 SLOAD PUSH1 0x40 MLOAD PUSH1 0x1 PUSH1 0x1 PUSH1 0xA0 SHL SUB DUP1 DUP5 AND SWAP3 AND SWAP1 PUSH32 0x8BE0079C531659141344CD1FD0A4F28419497F9722A3DAAFE3B4186F6B6457E0 SWAP1 PUSH1 0x0 SWAP1 LOG3 PUSH1 0x33 DUP1 SLOAD PUSH1 0x1 PUSH1 0x1 PUSH1 0xA0 SHL SUB NOT AND PUSH1 0x1 PUSH1 0x1 PUSH1 0xA0 SHL SUB SWAP3 SWAP1 SWAP3 AND SWAP2 SWAP1 SWAP2 OR SWAP1 SSTORE JUMP JUMPDEST PUSH1 0x0 DUP1 PUSH2 0xE24 PUSH1 0x12 PUSH1 0xA PUSH2 0x1016 JUMP JUMPDEST PUSH1 0x68 SLOAD PUSH2 0xE31 SWAP1 DUP6 PUSH2 0x1167 JUMP JUMPDEST PUSH2 0xE3B SWAP2 SWAP1 PUSH2 0xFBC JUMP JUMPDEST SWAP1 POP DUP3 DUP5 LT ISZERO DUP1 ISZERO PUSH2 0xE55 JUMPI POP DUP1 PUSH2 0xE53 DUP5 DUP7 PUSH2 0x11C5 JUMP JUMPDEST LT JUMPDEST DUP1 PUSH2 0xD51 JUMPI POP DUP3 DUP5 LT DUP1 ISZERO PUSH2 0xD51 JUMPI POP DUP1 PUSH2 0xE70 DUP6 DUP6 PUSH2 0x11C5 JUMP JUMPDEST LT SWAP5 SWAP4 POP POP POP POP JUMP JUMPDEST PUSH1 0x0 PUSH1 0x20 DUP3 DUP5 SUB SLT ISZERO PUSH2 0xE8A JUMPI DUP1 DUP2 REVERT JUMPDEST DUP2 CALLDATALOAD PUSH2 0xD9F DUP2 PUSH2 0x121C JUMP JUMPDEST PUSH1 0x0 DUP1 PUSH1 0x40 DUP4 DUP6 SUB SLT ISZERO PUSH2 0xEA7 JUMPI DUP1 DUP2 REVERT JUMPDEST DUP3 CALLDATALOAD PUSH2 0xEB2 DUP2 PUSH2 0x121C JUMP JUMPDEST SWAP2 POP PUSH1 0x20 DUP4 ADD CALLDATALOAD PUSH2 0xEC2 DUP2 PUSH2 0x121C JUMP JUMPDEST DUP1 SWAP2 POP POP SWAP3 POP SWAP3 SWAP1 POP JUMP JUMPDEST PUSH1 0x0 PUSH1 0x20 DUP3 DUP5 SUB SLT ISZERO PUSH2 0xEDE JUMPI DUP1 DUP2 REVERT JUMPDEST POP CALLDATALOAD SWAP2 SWAP1 POP JUMP JUMPDEST PUSH1 0x0 PUSH1 0x20 DUP3 DUP5 SUB SLT ISZERO PUSH2 0xEF6 JUMPI DUP1 DUP2 REVERT JUMPDEST POP MLOAD SWAP2 SWAP1 POP JUMP JUMPDEST PUSH1 0x0 DUP1 PUSH1 0x0 PUSH1 0x60 DUP5 DUP7 SUB SLT ISZERO PUSH2 0xF11 JUMPI DUP1 DUP2 REVERT JUMPDEST POP POP DUP2 CALLDATALOAD SWAP4 PUSH1 0x20 DUP4 ADD CALLDATALOAD SWAP4 POP PUSH1 0x40 SWAP1 SWAP3 ADD CALLDATALOAD SWAP2 SWAP1 POP JUMP JUMPDEST PUSH1 0x20 DUP1 DUP3 MSTORE PUSH1 0x2E SWAP1 DUP3 ADD MSTORE PUSH32 0x436F6E747261637420696E7374616E63652068617320616C7265616479206265 PUSH1 0x40 DUP3 ADD MSTORE PUSH14 0x195B881A5B9A5D1A585B1A5E9959 PUSH1 0x92 SHL PUSH1 0x60 DUP3 ADD MSTORE PUSH1 0x80 ADD SWAP1 JUMP JUMPDEST PUSH1 0x0 DUP3 NOT DUP3 GT ISZERO PUSH2 0xF89 JUMPI PUSH2 0xF89 PUSH2 0x11F0 JUMP JUMPDEST POP ADD SWAP1 JUMP JUMPDEST PUSH1 0x0 DUP3 PUSH2 0xF9D JUMPI PUSH2 0xF9D PUSH2 0x1206 JUMP JUMPDEST PUSH1 0x1 PUSH1 0xFF SHL DUP3 EQ PUSH1 0x0 NOT DUP5 EQ AND ISZERO PUSH2 0xFB7 JUMPI PUSH2 0xFB7 PUSH2 0x11F0 JUMP JUMPDEST POP SDIV SWAP1 JUMP JUMPDEST PUSH1 0x0 DUP3 PUSH2 0xFCB JUMPI PUSH2 0xFCB PUSH2 0x1206 JUMP JUMPDEST POP DIV SWAP1 JUMP JUMPDEST DUP1 DUP3 JUMPDEST PUSH1 0x1 DUP1 DUP7 GT PUSH2 0xFE2 JUMPI POP PUSH2 0x100D JUMP JUMPDEST DUP2 DUP8 DIV DUP3 GT ISZERO PUSH2 0xFF4 JUMPI PUSH2 0xFF4 PUSH2 0x11F0 JUMP JUMPDEST DUP1 DUP7 AND ISZERO PUSH2 0x1001 JUMPI SWAP2 DUP2 MUL SWAP2 JUMPDEST SWAP5 SWAP1 SWAP5 SHR SWAP4 DUP1 MUL PUSH2 0xFD3 JUMP JUMPDEST SWAP5 POP SWAP5 SWAP3 POP POP POP JUMP JUMPDEST PUSH1 0x0 PUSH2 0xD9F PUSH1 0x0 NOT DUP5 DUP5 PUSH1 0x0 DUP3 PUSH2 0x102F JUMPI POP PUSH1 0x1 PUSH2 0xD9F JUMP JUMPDEST DUP2 PUSH2 0x103C JUMPI POP PUSH1 0x0 PUSH2 0xD9F JUMP JUMPDEST DUP2 PUSH1 0x1 DUP2 EQ PUSH2 0x1052 JUMPI PUSH1 0x2 DUP2 EQ PUSH2 0x105C JUMPI PUSH2 0x1089 JUMP JUMPDEST PUSH1 0x1 SWAP2 POP POP PUSH2 0xD9F JUMP JUMPDEST PUSH1 0xFF DUP5 GT ISZERO PUSH2 0x106D JUMPI PUSH2 0x106D PUSH2 0x11F0 JUMP JUMPDEST PUSH1 0x1 DUP5 SHL SWAP2 POP DUP5 DUP3 GT ISZERO PUSH2 0x1083 JUMPI PUSH2 0x1083 PUSH2 0x11F0 JUMP JUMPDEST POP PUSH2 0xD9F JUMP JUMPDEST POP PUSH1 0x20 DUP4 LT PUSH2 0x133 DUP4 LT AND PUSH1 0x4E DUP5 LT PUSH1 0xB DUP5 LT AND OR ISZERO PUSH2 0x10BC JUMPI POP DUP2 DUP2 EXP DUP4 DUP2 GT ISZERO PUSH2 0x10B7 JUMPI PUSH2 0x10B7 PUSH2 0x11F0 JUMP JUMPDEST PUSH2 0xD9F JUMP JUMPDEST PUSH2 0x10C9 DUP5 DUP5 DUP5 PUSH1 0x1 PUSH2 0xFD0 JUMP JUMPDEST DUP1 DUP7 DIV DUP3 GT ISZERO PUSH2 0x10DB JUMPI PUSH2 0x10DB PUSH2 0x11F0 JUMP JUMPDEST MUL SWAP5 SWAP4 POP POP POP POP JUMP JUMPDEST PUSH1 0x0 PUSH1 0x1 PUSH1 0x1 PUSH1 0xFF SHL SUB DUP2 DUP5 SGT DUP3 DUP5 SGT DUP1 DUP3 AND DUP7 DUP5 DIV DUP7 GT AND ISZERO PUSH2 0x110A JUMPI PUSH2 0x110A PUSH2 0x11F0 JUMP JUMPDEST PUSH1 0x1 PUSH1 0xFF SHL DUP5 DUP8 SLT DUP3 DUP2 AND DUP8 DUP4 SDIV DUP10 SLT AND ISZERO PUSH2 0x1128 JUMPI PUSH2 0x1128 PUSH2 0x11F0 JUMP JUMPDEST DUP6 DUP8 SLT SWAP3 POP DUP8 DUP3 SDIV DUP8 SLT DUP5 DUP5 AND AND ISZERO PUSH2 0x1143 JUMPI PUSH2 0x1143 PUSH2 0x11F0 JUMP JUMPDEST DUP8 DUP6 SDIV DUP8 SLT DUP2 DUP5 AND AND ISZERO PUSH2 0x1159 JUMPI PUSH2 0x1159 PUSH2 0x11F0 JUMP JUMPDEST POP POP POP SWAP3 SWAP1 SWAP4 MUL SWAP4 SWAP3 POP POP POP JUMP JUMPDEST PUSH1 0x0 DUP2 PUSH1 0x0 NOT DIV DUP4 GT DUP3 ISZERO ISZERO AND ISZERO PUSH2 0x1181 JUMPI PUSH2 0x1181 PUSH2 0x11F0 JUMP JUMPDEST POP MUL SWAP1 JUMP JUMPDEST PUSH1 0x0 DUP1 DUP4 SLT DUP1 ISZERO PUSH1 0x1 PUSH1 0xFF SHL DUP6 ADD DUP5 SLT AND ISZERO PUSH2 0x11A4 JUMPI PUSH2 0x11A4 PUSH2 0x11F0 JUMP JUMPDEST PUSH1 0x1 PUSH1 0x1 PUSH1 0xFF SHL SUB DUP5 ADD DUP4 SGT DUP2 AND ISZERO PUSH2 0x11BF JUMPI PUSH2 0x11BF PUSH2 0x11F0 JUMP JUMPDEST POP POP SUB SWAP1 JUMP JUMPDEST PUSH1 0x0 DUP3 DUP3 LT ISZERO PUSH2 0x11D7 JUMPI PUSH2 0x11D7 PUSH2 0x11F0 JUMP JUMPDEST POP SUB SWAP1 JUMP JUMPDEST PUSH1 0x0 DUP3 PUSH2 0x11EB JUMPI PUSH2 0x11EB PUSH2 0x1206 JUMP JUMPDEST POP MOD SWAP1 JUMP JUMPDEST PUSH4 0x4E487B71 PUSH1 0xE0 SHL PUSH1 0x0 MSTORE PUSH1 0x11 PUSH1 0x4 MSTORE PUSH1 0x24 PUSH1 0x0 REVERT JUMPDEST PUSH4 0x4E487B71 PUSH1 0xE0 SHL PUSH1 0x0 MSTORE PUSH1 0x12 PUSH1 0x4 MSTORE PUSH1 0x24 PUSH1 0x0 REVERT JUMPDEST PUSH1 0x1 PUSH1 0x1 PUSH1 0xA0 SHL SUB DUP2 AND DUP2 EQ PUSH2 0xC81 JUMPI PUSH1 0x0 DUP1 REVERT INVALID LOG2 PUSH5 0x6970667358 0x22 SLT KECCAK256 NUMBER PUSH18 0x105057F0D3EA89E1BB3E910294F44AE87021 CALLDATACOPY SELFDESTRUCT 0xE6 SLOAD ISZERO COINBASE 0x2C 0xA9 EXTCODECOPY INVALID 0xDF 0xE4 PUSH5 0x736F6C6343 STOP ADDMOD SUB STOP CALLER "
		},
		"gasEstimates": {
			"creation": {
				"codeDepositCost": "942200",
				"executionCost": "981",
				"totalCost": "943181"
			},
			"external": {
				"cbbcToken()": "1083",
				"deviationThreshold()": "1094",
				"epoch()": "1073",
				"globalAmpleforthEpochAndAMPLSupply()": "infinite",
				"inRebaseWindow()": "infinite",
				"initialize(address)": "44502",
				"initialize(address,address)": "infinite",
				"isOwner()": "1091",
				"lastRebaseTimestampSec()": "1029",
				"marketOracle()": "1126",
				"minRebaseTimeIntervalSec()": "1008",
				"orchestrator()": "1081",
				"owner()": "1076",
				"rebase()": "infinite",
				"rebaseLag()": "1095",
				"rebaseWindowLengthSec()": "1095",
				"rebaseWindowOffsetSec()": "1117",
				"renounceOwnership()": "23825",
				"setMarketOracle(address)": "22153",
				"setOrchestrator(address)": "22108",
				"setRebaseLag(uint256)": "21125",
				"setRebaseTimingParameters(uint256,uint256,uint256)": "61298",
				"transferOwnership(address)": "infinite"
			},
			"internal": {
				"computeSupplyDelta(uint256,uint256)": "infinite",
				"withinDeviationThreshold(uint256,uint256)": "infinite"
			}
		},
		"methodIdentifiers": {
			"cbbcToken()": "0e1b04ae",
			"deviationThreshold()": "d94ad837",
			"epoch()": "900cf0cf",
			"globalAmpleforthEpochAndAMPLSupply()": "105bad4f",
			"inRebaseWindow()": "111d0498",
			"initialize(address)": "c4d66de8",
			"initialize(address,address)": "485cc955",
			"isOwner()": "8f32d59b",
			"lastRebaseTimestampSec()": "3a93069b",
			"marketOracle()": "60961528",
			"minRebaseTimeIntervalSec()": "02101899",
			"orchestrator()": "b74795d9",
			"owner()": "8da5cb5b",
			"rebase()": "af14052c",
			"rebaseLag()": "63f6d4c8",
			"rebaseWindowLengthSec()": "9466120f",
			"rebaseWindowOffsetSec()": "7052b902",
			"renounceOwnership()": "715018a6",
			"setMarketOracle(address)": "9e30bac5",
			"setOrchestrator(address)": "cd28ef0d",
			"setRebaseLag(uint256)": "20ce8389",
			"setRebaseTimingParameters(uint256,uint256,uint256)": "16250fd4",
			"transferOwnership(address)": "f2fde38b"
		}
	},
	"abi": [
		{
			"anonymous": false,
			"inputs": [
				{
					"indexed": true,
					"internalType": "uint256",
					"name": "epoch",
					"type": "uint256"
				},
				{
					"indexed": false,
					"internalType": "uint256",
					"name": "exchangeRate",
					"type": "uint256"
				},
				{
					"indexed": false,
					"internalType": "int256",
					"name": "requestedSupplyAdjustment",
					"type": "int256"
				},
				{
					"indexed": false,
					"internalType": "uint256",
					"name": "timestampSec",
					"type": "uint256"
				}
			],
			"name": "LogRebase",
			"type": "event"
		},
		{
			"anonymous": false,
			"inputs": [
				{
					"indexed": true,
					"internalType": "address",
					"name": "previousOwner",
					"type": "address"
				}
			],
			"name": "OwnershipRenounced",
			"type": "event"
		},
		{
			"anonymous": false,
			"inputs": [
				{
					"indexed": true,
					"internalType": "address",
					"name": "previousOwner",
					"type": "address"
				},
				{
					"indexed": true,
					"internalType": "address",
					"name": "newOwner",
					"type": "address"
				}
			],
			"name": "OwnershipTransferred",
			"type": "event"
		},
		{
			"inputs": [],
			"name": "cbbcToken",
			"outputs": [
				{
					"internalType": "contract ICbbcToken",
					"name": "",
					"type": "address"
				}
			],
			"stateMutability": "view",
			"type": "function"
		},
		{
			"inputs": [],
			"name": "deviationThreshold",
			"outputs": [
				{
					"internalType": "uint256",
					"name": "",
					"type": "uint256"
				}
			],
			"stateMutability": "view",
			"type": "function"
		},
		{
			"inputs": [],
			"name": "epoch",
			"outputs": [
				{
					"internalType": "uint256",
					"name": "",
					"type": "uint256"
				}
			],
			"stateMutability": "view",
			"type": "function"
		},
		{
			"inputs": [],
			"name": "globalAmpleforthEpochAndAMPLSupply",
			"outputs": [
				{
					"internalType": "uint256",
					"name": "",
					"type": "uint256"
				},
				{
					"internalType": "uint256",
					"name": "",
					"type": "uint256"
				}
			],
			"stateMutability": "view",
			"type": "function"
		},
		{
			"inputs": [],
			"name": "inRebaseWindow",
			"outputs": [
				{
					"internalType": "bool",
					"name": "",
					"type": "bool"
				}
			],
			"stateMutability": "view",
			"type": "function"
		},
		{
			"inputs": [
				{
					"internalType": "address",
					"name": "owner_",
					"type": "address"
				},
				{
					"internalType": "contract ICbbcToken",
					"name": "cbbcToken_",
					"type": "address"
				}
			],
			"name": "initialize",
			"outputs": [],
			"stateMutability": "nonpayable",
			"type": "function"
		},
		{
			"inputs": [
				{
					"internalType": "address",
					"name": "sender",
					"type": "address"
				}
			],
			"name": "initialize",
			"outputs": [],
			"stateMutability": "nonpayable",
			"type": "function"
		},
		{
			"inputs": [],
			"name": "isOwner",
			"outputs": [
				{
					"internalType": "bool",
					"name": "",
					"type": "bool"
				}
			],
			"stateMutability": "view",
			"type": "function"
		},
		{
			"inputs": [],
			"name": "lastRebaseTimestampSec",
			"outputs": [
				{
					"internalType": "uint256",
					"name": "",
					"type": "uint256"
				}
			],
			"stateMutability": "view",
			"type": "function"
		},
		{
			"inputs": [],
			"name": "marketOracle",
			"outputs": [
				{
					"internalType": "contract IMarketOracle",
					"name": "",
					"type": "address"
				}
			],
			"stateMutability": "view",
			"type": "function"
		},
		{
			"inputs": [],
			"name": "minRebaseTimeIntervalSec",
			"outputs": [
				{
					"internalType": "uint256",
					"name": "",
					"type": "uint256"
				}
			],
			"stateMutability": "view",
			"type": "function"
		},
		{
			"inputs": [],
			"name": "orchestrator",
			"outputs": [
				{
					"internalType": "address",
					"name": "",
					"type": "address"
				}
			],
			"stateMutability": "view",
			"type": "function"
		},
		{
			"inputs": [],
			"name": "owner",
			"outputs": [
				{
					"internalType": "address",
					"name": "",
					"type": "address"
				}
			],
			"stateMutability": "view",
			"type": "function"
		},
		{
			"inputs": [],
			"name": "rebase",
			"outputs": [],
			"stateMutability": "nonpayable",
			"type": "function"
		},
		{
			"inputs": [],
			"name": "rebaseLag",
			"outputs": [
				{
					"internalType": "uint256",
					"name": "",
					"type": "uint256"
				}
			],
			"stateMutability": "view",
			"type": "function"
		},
		{
			"inputs": [],
			"name": "rebaseWindowLengthSec",
			"outputs": [
				{
					"internalType": "uint256",
					"name": "",
					"type": "uint256"
				}
			],
			"stateMutability": "view",
			"type": "function"
		},
		{
			"inputs": [],
			"name": "rebaseWindowOffsetSec",
			"outputs": [
				{
					"internalType": "uint256",
					"name": "",
					"type": "uint256"
				}
			],
			"stateMutability": "view",
			"type": "function"
		},
		{
			"inputs": [],
			"name": "renounceOwnership",
			"outputs": [],
			"stateMutability": "nonpayable",
			"type": "function"
		},
		{
			"inputs": [
				{
					"internalType": "contract IMarketOracle",
					"name": "marketOracle_",
					"type": "address"
				}
			],
			"name": "setMarketOracle",
			"outputs": [],
			"stateMutability": "nonpayable",
			"type": "function"
		},
		{
			"inputs": [
				{
					"internalType": "address",
					"name": "orchestrator_",
					"type": "address"
				}
			],
			"name": "setOrchestrator",
			"outputs": [],
			"stateMutability": "nonpayable",
			"type": "function"
		},
		{
			"inputs": [
				{
					"internalType": "uint256",
					"name": "rebaseLag_",
					"type": "uint256"
				}
			],
			"name": "setRebaseLag",
			"outputs": [],
			"stateMutability": "nonpayable",
			"type": "function"
		},
		{
			"inputs": [
				{
					"internalType": "uint256",
					"name": "minRebaseTimeIntervalSec_",
					"type": "uint256"
				},
				{
					"internalType": "uint256",
					"name": "rebaseWindowOffsetSec_",
					"type": "uint256"
				},
				{
					"internalType": "uint256",
					"name": "rebaseWindowLengthSec_",
					"type": "uint256"
				}
			],
			"name": "setRebaseTimingParameters",
			"outputs": [],
			"stateMutability": "nonpayable",
			"type": "function"
		},
		{
			"inputs": [
				{
					"internalType": "address",
					"name": "newOwner",
					"type": "address"
				}
			],
			"name": "transferOwnership",
			"outputs": [],
			"stateMutability": "nonpayable",
			"type": "function"
		}
	]
}