{
	"data": {
		"bytecode": {
			"linkReferences": {},
			"object": "6101206040523480156200001257600080fd5b506040516200496e3803806200496e833981016040819052620000359162000077565b6001600160601b0319606094851b811660805292841b831660a05290831b821660c052821b1660e05233901b6101005267016345785d8a0000600055620000f7565b600080600080608085870312156200008d578384fd5b84516200009a81620000de565b6020860151909450620000ad81620000de565b6040860151909350620000c081620000de565b6060860151909250620000d381620000de565b939692955090935050565b6001600160a01b0381168114620000f457600080fd5b50565b60805160601c60a05160601c60c05160601c60e05160601c6101005160601c6146b0620002be600039600061261201526000818161015f015281816103db015281816109be01528181610cd9015281816112bf0152818161141b0152818161145f01528181611acb01528181611b0c01528181611c0c01528181611cc801528181611da401528181611e3901528181611ece015281816125490152818161258d015281816126b1015281816127c6015281816128710152818161290601528181612c0801528181612cc401528181612da001528181612e3801528181612e7c0152612f1101526000818161042f01528181611a350152818161249401526132b40152600081816102fc0152818161374001526138380152600081816104830152818161050f015281816106b001528181610890015281816109eb01528181610b5c01528181610d0601528181610e85015281816110ce015281816111a3015281816112ec0152818161150f015281816115eb0152818161166d01528181611bd701528181611cf301528181611d750152818161204a015281816126dc015281816127f101528181612a6001528181612bd301528181612cef0152612d7101526146b06000f3fe60806040526004361061014f5760003560e01c806376d6f7c8116100b6578063b74795d91161006f578063b74795d91461041d578063b890ebf614610451578063c45a015514610471578063ca88711b146104a5578063dc76e05e146104b8578063e4c9b9a1146104d85761019c565b806376d6f7c81461035657806390f4b2cc1461037657806392ccbf15146103965780639bac59c3146103a9578063ad5c4648146103c9578063b2d0e620146103fd5761019c565b8063406e9b5611610108578063406e9b5614610274578063456ad4b91461029457806352d38e5d146102b4578063609109b8146102ca57806360961528146102ea5780636b983e3f146103365761019c565b806303cade7c146101a15780630b499f42146101d457806320d890b7146101f4578063217bf6fb14610214578063376d3d5d14610234578063397ac950146102545761019c565b3661019c57336001600160a01b037f0000000000000000000000000000000000000000000000000000000000000000161461019a57634e487b7160e01b600052600160045260246000fd5b005b600080fd5b3480156101ad57600080fd5b506101c16101bc366004613bb4565b6104eb565b6040519081526020015b60405180910390f35b3480156101e057600080fd5b506101c16101ef366004613b2b565b61064b565b34801561020057600080fd5b506101c161020f366004613ce5565b61086c565b34801561022057600080fd5b506101c161022f36600461419e565b6109a7565b34801561024057600080fd5b506101c161024f366004613c4d565b610b17565b34801561026057600080fd5b506101c161026f366004613e39565b610cc2565b34801561028057600080fd5b506101c161028f366004613c94565b610e40565b3480156102a057600080fd5b506101c16102af366004613aac565b611072565b3480156102c057600080fd5b506101c160005481565b3480156102d657600080fd5b506101c16102e53660046142a7565b6112a8565b3480156102f657600080fd5b5061031e7f000000000000000000000000000000000000000000000000000000000000000081565b6040516001600160a01b0390911681526020016101cb565b34801561034257600080fd5b506101c161035136600461414f565b6113f2565b34801561036257600080fd5b506101c1610371366004613ef7565b6114da565b34801561038257600080fd5b506101c1610391366004614279565b611aa3565b6101c16103a4366004613d6f565b611b83565b3480156103b557600080fd5b506101c16103c4366004613f89565b61200d565b3480156103d557600080fd5b5061031e7f000000000000000000000000000000000000000000000000000000000000000081565b34801561040957600080fd5b506101c1610418366004613dda565b612502565b34801561042957600080fd5b5061031e7f000000000000000000000000000000000000000000000000000000000000000081565b34801561045d57600080fd5b5061019a61046c3660046141ef565b612607565b34801561047d57600080fd5b5061031e7f000000000000000000000000000000000000000000000000000000000000000081565b6101c16104b336600461421f565b612677565b3480156104c457600080fd5b506101c16104d336600461403d565b612a3c565b6101c16104e6366004614102565b612b9e565b604051634c22f48960e11b81526001600160a01b038a8116600483015260009182917f00000000000000000000000000000000000000000000000000000000000000001690639845e9129060240160206040518083038186803b15801561055157600080fd5b505afa158015610565573d6000803e3d6000fd5b505050506040513d601f19601f820116820180604052508101906105899190613a89565b9050600061059a6020850185613ebf565b6105a457876105a8565b6000195b90506001600160a01b03821663d505accf333084896105cd60408b0160208c0161431e565b8a604001358b606001356040518863ffffffff1660e01b81526004016105f99796959493929190614395565b600060405180830381600087803b15801561061357600080fd5b505af1158015610627573d6000803e3d6000fd5b50505050505061063d8a8a8a8a8a8a8a8a61064b565b9a9950505050505050505050565b60003233146106755760405162461bcd60e51b815260040161066c9061449e565b60405180910390fd5b81428110156106965760405162461bcd60e51b815260040161066c906144eb565b604051633561d52160e11b81526000906001600160a01b037f00000000000000000000000000000000000000000000000000000000000000001690636ac3aa42906106eb908e908e908e908e906004016143d6565b60206040518083038186803b15801561070357600080fd5b505afa158015610717573d6000803e3d6000fd5b505050506040513d601f19601f8201168201806040525081019061073b9190613a89565b6040516323b872dd60e01b81529091506001600160a01b038216906323b872dd9061076e90339085908c90600401614371565b602060405180830381600087803b15801561078857600080fd5b505af115801561079c573d6000803e3d6000fd5b505050506040513d601f19601f820116820180604052508101906107c09190613edb565b50604051632f8d205160e11b81526001600160a01b038681166004830152821690635f1a40a290602401602060405180830381600087803b15801561080457600080fd5b505af1158015610818573d6000803e3d6000fd5b505050506040513d601f19601f8201168201806040525081019061083c9190614207565b92508583101561085e5760405162461bcd60e51b815260040161066c90614450565b505098975050505050505050565b604051634c22f48960e11b81526001600160a01b038a8116600483015260009182917f00000000000000000000000000000000000000000000000000000000000000001690639845e9129060240160206040518083038186803b1580156108d257600080fd5b505afa1580156108e6573d6000803e3d6000fd5b505050506040513d601f19601f8201168201806040525081019061090a9190613a89565b9050600086610919578a61091d565b6000195b60405163d505accf60e01b81529091506001600160a01b0383169063d505accf90610958903390309086908e908d908d908d90600401614395565b600060405180830381600087803b15801561097257600080fd5b505af1158015610986573d6000803e3d6000fd5b505050506109978c8c8c8c8c610e40565b9c9b505050505050505050505050565b604051634c22f48960e11b81526001600160a01b037f00000000000000000000000000000000000000000000000000000000000000008116600483015260009182917f00000000000000000000000000000000000000000000000000000000000000001690639845e9129060240160206040518083038186803b158015610a2d57600080fd5b505afa158015610a41573d6000803e3d6000fd5b505050506040513d601f19601f82011682018060405250810190610a659190613a89565b90506000610a766020850185613ebf565b610a805787610a84565b6000195b90506001600160a01b03821663d505accf33308489610aa960408b0160208c0161431e565b8a604001358b606001356040518863ffffffff1660e01b8152600401610ad59796959493929190614395565b600060405180830381600087803b158015610aef57600080fd5b505af1158015610b03573d6000803e3d6000fd5b505050506109978c8c8c8c8c8c8c8c6113f2565b60008142811015610b3a5760405162461bcd60e51b815260040161066c906144eb565b604051634c22f48960e11b81526001600160a01b0387811660048301526000917f000000000000000000000000000000000000000000000000000000000000000090911690639845e9129060240160206040518083038186803b158015610ba057600080fd5b505afa158015610bb4573d6000803e3d6000fd5b505050506040513d601f19601f82011682018060405250810190610bd89190613a89565b90506001600160a01b038116610c305760405162461bcd60e51b815260206004820152601f60248201527f434242433a204c49515549444954595f504f4f4c5f4e4f545f45584953542e00604482015260640161066c565b610c3c87338389613321565b604051630dffa7fd60e31b81526001600160a01b038681166004830152821690636ffd3fe890602401602060405180830381600087803b158015610c7f57600080fd5b505af1158015610c93573d6000803e3d6000fd5b505050506040513d601f19601f82011682018060405250810190610cb79190614207565b979650505050505050565b604051634c22f48960e11b81526001600160a01b037f00000000000000000000000000000000000000000000000000000000000000008116600483015260009182917f00000000000000000000000000000000000000000000000000000000000000001690639845e9129060240160206040518083038186803b158015610d4857600080fd5b505afa158015610d5c573d6000803e3d6000fd5b505050506040513d601f19601f82011682018060405250810190610d809190613a89565b90506000610d916020850185613ebf565b610d9b5787610d9f565b6000195b90506001600160a01b03821663d505accf33308489610dc460408b0160208c0161431e565b8a604001358b606001356040518863ffffffff1660e01b8152600401610df09796959493929190614395565b600060405180830381600087803b158015610e0a57600080fd5b505af1158015610e1e573d6000803e3d6000fd5b50505050610e318b8b8b8b8b8b8b612502565b9b9a5050505050505050505050565b60008142811015610e635760405162461bcd60e51b815260040161066c906144eb565b604051634c22f48960e11b81526001600160a01b0388811660048301526000917f000000000000000000000000000000000000000000000000000000000000000090911690639845e9129060240160206040518083038186803b158015610ec957600080fd5b505afa158015610edd573d6000803e3d6000fd5b505050506040513d601f19601f82011682018060405250810190610f019190613a89565b6040516323b872dd60e01b81529091506001600160a01b038216906323b872dd90610f3490339085908c90600401614371565b602060405180830381600087803b158015610f4e57600080fd5b505af1158015610f62573d6000803e3d6000fd5b505050506040513d601f19601f82011682018060405250810190610f869190613edb565b5060405163c7343b9f60e01b81526001600160a01b03868116600483015282169063c7343b9f90602401602060405180830381600087803b158015610fca57600080fd5b505af1158015610fde573d6000803e3d6000fd5b505050506040513d601f19601f820116820180604052508101906110029190614207565b9250858310156110675760405162461bcd60e51b815260206004820152602a60248201527f43626263526f757465723a20494e53554646494349454e545f534554544c454d60448201526911539517d05353d5539560b21b606482015260840161066c565b505095945050505050565b60003233146110935760405162461bcd60e51b815260040161066c9061449e565b81428110156110b45760405162461bcd60e51b815260040161066c906144eb565b604051633561d52160e11b81526000906001600160a01b037f00000000000000000000000000000000000000000000000000000000000000001690636ac3aa4290611109908d908d908d908d906004016143d6565b60206040518083038186803b15801561112157600080fd5b505afa158015611135573d6000803e3d6000fd5b505050506040513d601f19601f820116820180604052508101906111599190613a89565b90506001600160a01b0381166111815760405162461bcd60e51b815260040161066c90614424565b604051634c22f48960e11b81526001600160a01b038b811660048301526000917f000000000000000000000000000000000000000000000000000000000000000090911690639845e9129060240160206040518083038186803b1580156111e757600080fd5b505afa1580156111fb573d6000803e3d6000fd5b505050506040513d601f19601f8201168201806040525081019061121f9190613a89565b905061122d8b33838a613321565b604051634a02bd3160e01b81526001600160a01b038781166004830152831690634a02bd3190602401602060405180830381600087803b15801561127057600080fd5b505af1158015611284573d6000803e3d6000fd5b505050506040513d601f19601f82011682018060405250810190610e319190614207565b604051634c22f48960e11b81526001600160a01b037f00000000000000000000000000000000000000000000000000000000000000008116600483015260009182917f00000000000000000000000000000000000000000000000000000000000000001690639845e9129060240160206040518083038186803b15801561132e57600080fd5b505afa158015611342573d6000803e3d6000fd5b505050506040513d601f19601f820116820180604052508101906113669190613a89565b9050600086611375578a611379565b6000195b60405163d505accf60e01b81529091506001600160a01b0383169063d505accf906113b4903390309086908e908d908d908d90600401614395565b600060405180830381600087803b1580156113ce57600080fd5b505af11580156113e2573d6000803e3d6000fd5b50505050610e318b8b8b8b611aa3565b600081428110156114155760405162461bcd60e51b815260040161066c906144eb565b6114468a7f00000000000000000000000000000000000000000000000000000000000000008b8b8b8b8b308b61200d565b604051632e1a7d4d60e01b8152600481018290529092507f00000000000000000000000000000000000000000000000000000000000000006001600160a01b031690632e1a7d4d90602401600060405180830381600087803b1580156114ab57600080fd5b505af11580156114bf573d6000803e3d6000fd5b505050506114cd848361345b565b5098975050505050505050565b600081428110156114fd5760405162461bcd60e51b815260040161066c906144eb565b604051633561d52160e11b81526000907f00000000000000000000000000000000000000000000000000000000000000006001600160a01b031690636ac3aa4290611552908d908d908d908d906004016143d6565b60206040518083038186803b15801561156a57600080fd5b505afa15801561157e573d6000803e3d6000fd5b505050506040513d601f19601f820116820180604052508101906115a29190613a89565b6001600160a01b031614156115c95760405162461bcd60e51b815260040161066c90614424565b604051634c22f48960e11b81526001600160a01b038a811660048301526000917f000000000000000000000000000000000000000000000000000000000000000090911690639845e9129060240160206040518083038186803b15801561162f57600080fd5b505afa158015611643573d6000803e3d6000fd5b505050506040513d601f19601f820116820180604052508101906116679190613a89565b905060007f00000000000000000000000000000000000000000000000000000000000000006001600160a01b0316636ac3aa428c8c8c8c6040518563ffffffff1660e01b81526004016116bd94939291906143d6565b60206040518083038186803b1580156116d557600080fd5b505afa1580156116e9573d6000803e3d6000fd5b505050506040513d601f19601f8201168201806040525081019061170d9190613a89565b905061171a8b8b8e61353a565b6117365760405162461bcd60e51b815260040161066c9061451a565b6117428b33848a613321565b604051634a02bd3160e01b81526001600160a01b038781166004830152821690634a02bd3190602401602060405180830381600087803b15801561178557600080fd5b505af1158015611799573d6000803e3d6000fd5b505050506040513d601f19601f820116820180604052508101906117bd9190614207565b93506000816001600160a01b031663ddd6f9626040518163ffffffff1660e01b815260040160206040518083038186803b1580156117fa57600080fd5b505afa15801561180e573d6000803e3d6000fd5b505050506040513d601f19601f820116820180604052508101906118329190614207565b90506000826001600160a01b031663bbb1863a6040518163ffffffff1660e01b815260040160206040518083038186803b15801561186f57600080fd5b505afa158015611883573d6000803e3d6000fd5b505050506040513d601f19601f820116820180604052508101906118a79190613a89565b6001600160a01b031663609615286040518163ffffffff1660e01b815260040160206040518083038186803b1580156118df57600080fd5b505afa1580156118f3573d6000803e3d6000fd5b505050506040513d601f19601f820116820180604052508101906119179190613a89565b6040516341976e0960e01b81526001600160a01b038e8116600483015291909116906341976e0990602401604080518083038186803b15801561195957600080fd5b505afa15801561196d573d6000803e3d6000fd5b505050506040513d601f19601f820116820180604052508101906119919190614256565b50905080670de0b6b3a76400008c60ff16600054856119b09190614608565b6119ba91906145e8565b6119c491906145e8565b6119ce90846145ab565b1080611a11575080670de0b6b3a76400008c60ff16600054856119f19190614608565b6119fb91906145e8565b611a0591906145e8565b611a0f9084614627565b115b15611a9257604051633437c4dd60e21b81526001600160a01b0384811660048301527f0000000000000000000000000000000000000000000000000000000000000000169063d0df137490602401600060405180830381600087803b158015611a7957600080fd5b505af1158015611a8d573d6000803e3d6000fd5b505050505b505050505098975050505050505050565b60008142811015611ac65760405162461bcd60e51b815260040161066c906144eb565b611af37f000000000000000000000000000000000000000000000000000000000000000087873087610e40565b604051632e1a7d4d60e01b8152600481018290529092507f00000000000000000000000000000000000000000000000000000000000000006001600160a01b031690632e1a7d4d90602401600060405180830381600087803b158015611b5857600080fd5b505af1158015611b6c573d6000803e3d6000fd5b50505050611b7a848361345b565b50949350505050565b6000323314611ba45760405162461bcd60e51b815260040161066c9061449e565b8142811015611bc55760405162461bcd60e51b815260040161066c906144eb565b604051633561d52160e11b81526000907f00000000000000000000000000000000000000000000000000000000000000006001600160a01b031690636ac3aa4290611c3a907f0000000000000000000000000000000000000000000000000000000000000000908d908d908d906004016143d6565b60206040518083038186803b158015611c5257600080fd5b505afa158015611c66573d6000803e3d6000fd5b505050506040513d601f19601f82011682018060405250810190611c8a9190613a89565b6001600160a01b03161415611cb15760405162461bcd60e51b815260040161066c90614424565b604051634c22f48960e11b81526001600160a01b037f0000000000000000000000000000000000000000000000000000000000000000811660048301526000917f000000000000000000000000000000000000000000000000000000000000000090911690639845e9129060240160206040518083038186803b158015611d3757600080fd5b505afa158015611d4b573d6000803e3d6000fd5b505050506040513d601f19601f82011682018060405250810190611d6f9190613a89565b905060007f00000000000000000000000000000000000000000000000000000000000000006001600160a01b0316636ac3aa427f00000000000000000000000000000000000000000000000000000000000000008c8c8c6040518563ffffffff1660e01b8152600401611de594939291906143d6565b60206040518083038186803b158015611dfd57600080fd5b505afa158015611e11573d6000803e3d6000fd5b505050506040513d601f19601f82011682018060405250810190611e359190613a89565b90507f00000000000000000000000000000000000000000000000000000000000000006001600160a01b031663d0e30db0886040518263ffffffff1660e01b81526004016000604051808303818588803b158015611e9257600080fd5b505af1158015611ea6573d6000803e3d6000fd5b505060405163a9059cbb60e01b81526001600160a01b038681166004830152602482018c90527f000000000000000000000000000000000000000000000000000000000000000016935063a9059cbb92506044019050602060405180830381600087803b158015611f1657600080fd5b505af1158015611f2a573d6000803e3d6000fd5b505050506040513d601f19601f82011682018060405250810190611f4e9190613edb565b611f6857634e487b7160e01b600052600160045260246000fd5b604051634a02bd3160e01b81526001600160a01b038781166004830152821690634a02bd3190602401602060405180830381600087803b158015611fab57600080fd5b505af1158015611fbf573d6000803e3d6000fd5b505050506040513d601f19601f82011682018060405250810190611fe39190614207565b9350863411156120005761200033611ffb8934614627565b61345b565b5050509695505050505050565b600081428110156120305760405162461bcd60e51b815260040161066c906144eb565b604051633561d52160e11b81526000906001600160a01b037f00000000000000000000000000000000000000000000000000000000000000001690636ac3aa4290612085908e908e908e908e906004016143d6565b60206040518083038186803b15801561209d57600080fd5b505afa1580156120b1573d6000803e3d6000fd5b505050506040513d601f19601f820116820180604052508101906120d59190613a89565b90506120e28b8b8e61353a565b6120fe5760405162461bcd60e51b815260040161066c9061451a565b6040516323b872dd60e01b81526001600160a01b038216906323b872dd9061212e90339085908c90600401614371565b602060405180830381600087803b15801561214857600080fd5b505af115801561215c573d6000803e3d6000fd5b505050506040513d601f19601f820116820180604052508101906121809190613edb565b50604051632f8d205160e11b81526001600160a01b038681166004830152821690635f1a40a290602401602060405180830381600087803b1580156121c457600080fd5b505af11580156121d8573d6000803e3d6000fd5b505050506040513d601f19601f820116820180604052508101906121fc9190614207565b92508583101561221e5760405162461bcd60e51b815260040161066c90614450565b6000816001600160a01b031663ddd6f9626040518163ffffffff1660e01b815260040160206040518083038186803b15801561225957600080fd5b505afa15801561226d573d6000803e3d6000fd5b505050506040513d601f19601f820116820180604052508101906122919190614207565b90506000826001600160a01b031663bbb1863a6040518163ffffffff1660e01b815260040160206040518083038186803b1580156122ce57600080fd5b505afa1580156122e2573d6000803e3d6000fd5b505050506040513d601f19601f820116820180604052508101906123069190613a89565b6001600160a01b031663609615286040518163ffffffff1660e01b815260040160206040518083038186803b15801561233e57600080fd5b505afa158015612352573d6000803e3d6000fd5b505050506040513d601f19601f820116820180604052508101906123769190613a89565b6040516341976e0960e01b81526001600160a01b038e8116600483015291909116906341976e0990602401604080518083038186803b1580156123b857600080fd5b505afa1580156123cc573d6000803e3d6000fd5b505050506040513d601f19601f820116820180604052508101906123f09190614256565b50905080670de0b6b3a76400008c60ff166000548561240f9190614608565b61241991906145e8565b61242391906145e8565b61242d90846145ab565b1080612470575080670de0b6b3a76400008c60ff16600054856124509190614608565b61245a91906145e8565b61246491906145e8565b61246e9084614627565b115b156124f157604051633437c4dd60e21b81526001600160a01b0384811660048301527f0000000000000000000000000000000000000000000000000000000000000000169063d0df137490602401600060405180830381600087803b1580156124d857600080fd5b505af11580156124ec573d6000803e3d6000fd5b505050505b505050509998505050505050505050565b60003233146125235760405162461bcd60e51b815260040161066c9061449e565b81428110156125445760405162461bcd60e51b815260040161066c906144eb565b6125747f00000000000000000000000000000000000000000000000000000000000000008a8a8a8a8a308a61064b565b604051632e1a7d4d60e01b8152600481018290529092507f00000000000000000000000000000000000000000000000000000000000000006001600160a01b031690632e1a7d4d90602401600060405180830381600087803b1580156125d957600080fd5b505af11580156125ed573d6000803e3d6000fd5b505050506125fb848361345b565b50979650505050505050565b336001600160a01b037f000000000000000000000000000000000000000000000000000000000000000016146126725760405162461bcd60e51b815260206004820152601060248201526f21a121219d102327a92124a22222a71760811b604482015260640161066c565b600055565b6000814281101561269a5760405162461bcd60e51b815260040161066c906144eb565b604051634c22f48960e11b81526001600160a01b037f0000000000000000000000000000000000000000000000000000000000000000811660048301526000917f000000000000000000000000000000000000000000000000000000000000000090911690639845e9129060240160206040518083038186803b15801561272057600080fd5b505afa158015612734573d6000803e3d6000fd5b505050506040513d601f19601f820116820180604052508101906127589190613a89565b6001600160a01b031614156127af5760405162461bcd60e51b815260206004820152601f60248201527f434242433a204c49515549444954595f504f4f4c5f4e4f545f45584953542e00604482015260640161066c565b604051634c22f48960e11b81526001600160a01b037f0000000000000000000000000000000000000000000000000000000000000000811660048301526000917f000000000000000000000000000000000000000000000000000000000000000090911690639845e9129060240160206040518083038186803b15801561283557600080fd5b505afa158015612849573d6000803e3d6000fd5b505050506040513d601f19601f8201168201806040525081019061286d9190613a89565b90507f00000000000000000000000000000000000000000000000000000000000000006001600160a01b031663d0e30db0876040518263ffffffff1660e01b81526004016000604051808303818588803b1580156128ca57600080fd5b505af11580156128de573d6000803e3d6000fd5b505060405163a9059cbb60e01b81526001600160a01b038581166004830152602482018b90527f000000000000000000000000000000000000000000000000000000000000000016935063a9059cbb92506044019050602060405180830381600087803b15801561294e57600080fd5b505af1158015612962573d6000803e3d6000fd5b505050506040513d601f19601f820116820180604052508101906129869190613edb565b6129a057634e487b7160e01b600052600160045260246000fd5b604051630dffa7fd60e31b81526001600160a01b038681166004830152821690636ffd3fe890602401602060405180830381600087803b1580156129e357600080fd5b505af11580156129f7573d6000803e3d6000fd5b505050506040513d601f19601f82011682018060405250810190612a1b9190614207565b925085341115612a3357612a3333611ffb8834614627565b50509392505050565b604051634c22f48960e11b81526001600160a01b038a8116600483015260009182917f00000000000000000000000000000000000000000000000000000000000000001690639845e9129060240160206040518083038186803b158015612aa257600080fd5b505afa158015612ab6573d6000803e3d6000fd5b505050506040513d601f19601f82011682018060405250810190612ada9190613a89565b90506000612aeb6020850185613ebf565b612af55787612af9565b6000195b90506001600160a01b03821663d505accf33308489612b1e60408b0160208c0161431e565b8a604001358b606001356040518863ffffffff1660e01b8152600401612b4a9796959493929190614395565b600060405180830381600087803b158015612b6457600080fd5b505af1158015612b78573d6000803e3d6000fd5b50505050612b8d8d8d8d8d8d8d8d8d8d61200d565b9d9c50505050505050505050505050565b60008142811015612bc15760405162461bcd60e51b815260040161066c906144eb565b604051633561d52160e11b81526000907f00000000000000000000000000000000000000000000000000000000000000006001600160a01b031690636ac3aa4290612c36907f0000000000000000000000000000000000000000000000000000000000000000908d908d908d906004016143d6565b60206040518083038186803b158015612c4e57600080fd5b505afa158015612c62573d6000803e3d6000fd5b505050506040513d601f19601f82011682018060405250810190612c869190613a89565b6001600160a01b03161415612cad5760405162461bcd60e51b815260040161066c90614424565b604051634c22f48960e11b81526001600160a01b037f0000000000000000000000000000000000000000000000000000000000000000811660048301526000917f000000000000000000000000000000000000000000000000000000000000000090911690639845e9129060240160206040518083038186803b158015612d3357600080fd5b505afa158015612d47573d6000803e3d6000fd5b505050506040513d601f19601f82011682018060405250810190612d6b9190613a89565b905060007f00000000000000000000000000000000000000000000000000000000000000006001600160a01b0316636ac3aa427f00000000000000000000000000000000000000000000000000000000000000008c8c8c6040518563ffffffff1660e01b8152600401612de194939291906143d6565b60206040518083038186803b158015612df957600080fd5b505afa158015612e0d573d6000803e3d6000fd5b505050506040513d601f19601f82011682018060405250810190612e319190613a89565b9050612e5e7f00000000000000000000000000000000000000000000000000000000000000008b8d61353a565b612e7a5760405162461bcd60e51b815260040161066c9061451a565b7f00000000000000000000000000000000000000000000000000000000000000006001600160a01b031663d0e30db0886040518263ffffffff1660e01b81526004016000604051808303818588803b158015612ed557600080fd5b505af1158015612ee9573d6000803e3d6000fd5b505060405163a9059cbb60e01b81526001600160a01b038681166004830152602482018c90527f000000000000000000000000000000000000000000000000000000000000000016935063a9059cbb92506044019050602060405180830381600087803b158015612f5957600080fd5b505af1158015612f6d573d6000803e3d6000fd5b505050506040513d601f19601f82011682018060405250810190612f919190613edb565b612fab57634e487b7160e01b600052600160045260246000fd5b604051634a02bd3160e01b81526001600160a01b038781166004830152821690634a02bd3190602401602060405180830381600087803b158015612fee57600080fd5b505af1158015613002573d6000803e3d6000fd5b505050506040513d601f19601f820116820180604052508101906130269190614207565b93508634111561303e5761303e33611ffb8934614627565b6000816001600160a01b031663ddd6f9626040518163ffffffff1660e01b815260040160206040518083038186803b15801561307957600080fd5b505afa15801561308d573d6000803e3d6000fd5b505050506040513d601f19601f820116820180604052508101906130b19190614207565b90506000826001600160a01b031663bbb1863a6040518163ffffffff1660e01b815260040160206040518083038186803b1580156130ee57600080fd5b505afa158015613102573d6000803e3d6000fd5b505050506040513d601f19601f820116820180604052508101906131269190613a89565b6001600160a01b031663609615286040518163ffffffff1660e01b815260040160206040518083038186803b15801561315e57600080fd5b505afa158015613172573d6000803e3d6000fd5b505050506040513d601f19601f820116820180604052508101906131969190613a89565b6040516341976e0960e01b81526001600160a01b038e8116600483015291909116906341976e0990602401604080518083038186803b1580156131d857600080fd5b505afa1580156131ec573d6000803e3d6000fd5b505050506040513d601f19601f820116820180604052508101906132109190614256565b50905080670de0b6b3a76400008c60ff166000548561322f9190614608565b61323991906145e8565b61324391906145e8565b61324d90846145ab565b1080613290575080670de0b6b3a76400008c60ff16600054856132709190614608565b61327a91906145e8565b61328491906145e8565b61328e9084614627565b115b1561331157604051633437c4dd60e21b81526001600160a01b0384811660048301527f0000000000000000000000000000000000000000000000000000000000000000169063d0df137490602401600060405180830381600087803b1580156132f857600080fd5b505af115801561330c573d6000803e3d6000fd5b505050505b5050505050979650505050505050565b600080856001600160a01b03166323b872dd86868660405160240161334893929190614371565b6040516020818303038152906040529060e01b6020820180516001600160e01b0383818316178352505050506040516133819190614338565b6000604051808303816000865af19150503d80600081146133be576040519150601f19603f3d011682016040523d82523d6000602084013e6133c3565b606091505b50915091508180156133ed5750805115806133ed5750808060200190518101906133ed9190613edb565b6134535760405162461bcd60e51b815260206004820152603160248201527f5472616e7366657248656c7065723a3a7472616e7366657246726f6d3a207472604482015270185b9cd9995c919c9bdb4819985a5b1959607a1b606482015260840161066c565b505050505050565b604080516000808252602082019092526001600160a01b0384169083906040516134859190614338565b60006040518083038185875af1925050503d80600081146134c2576040519150601f19603f3d011682016040523d82523d6000602084013e6134c7565b606091505b50509050806135355760405162461bcd60e51b815260206004820152603460248201527f5472616e7366657248656c7065723a3a736166655472616e736665724554483a60448201527308115512081d1c985b9cd9995c8819985a5b195960621b606482015260840161066c565b505050565b60008135602083013560408401353684613557606088018861455f565b6040516bffffffffffffffffffffffff1960608d811b821660208401528c901b16603482015260488101889052606881018790526088810186905273337057e45de23832deec497c88ad8493f629bbd360621b60a8820152919350915060009060bc0160405160208183030381529060405280519060200120905060006135dd82613925565b9050600061362385858080601f01602080910402602001604051908101604052809392919081815260200183838082843760009201919091525086939250506139799050565b90506001600160a01b03811673cdc15f917788e0cb7bb125f222b6124fd8a6ef4c146136915760405162461bcd60e51b815260206004820152601860248201527f434242433a20494e56414c49445f5349474e41545552452e0000000000000000604482015260640161066c565b6001600160a01b038116600090815260016020908152604080832089845290915290205460ff16156136f85760405162461bcd60e51b815260206004820152601060248201526f434242433a20555345445f4e4f4e434560801b604482015260640161066c565b6001600160a01b0380821660009081526001602081815260408084208b8552909152808320805460ff191690921790915551631879756760e01b81528e8316600482015290917f0000000000000000000000000000000000000000000000000000000000000000169063187975679060240160206040518083038186803b15801561378257600080fd5b505afa158015613796573d6000803e3d6000fd5b505050506040513d601f19601f820116820180604052508101906137ba9190613a89565b604051631e20d14b60e01b8152600481018b90529091506001600160a01b03821690631e20d14b90602401600060405180830381600087803b1580156137ff57600080fd5b505af1158015613813573d6000803e3d6000fd5b5050604051631879756760e01b81526001600160a01b038f81166004830152600093507f000000000000000000000000000000000000000000000000000000000000000016915063187975679060240160206040518083038186803b15801561387b57600080fd5b505afa15801561388f573d6000803e3d6000fd5b505050506040513d601f19601f820116820180604052508101906138b39190613a89565b604051631e20d14b60e01b8152600481018b90529091506001600160a01b03821690631e20d14b90602401600060405180830381600087803b1580156138f857600080fd5b505af115801561390c573d6000803e3d6000fd5b5050505060019a50505050505050505050509392505050565b6040517f19457468657265756d205369676e6564204d6573736167653a0a3332000000006020820152603c8101829052600090605c016040516020818303038152906040528051906020012090505b919050565b60008060008084516041146139945760009350505050613a4c565b50505060208201516040830151606084015160001a601b8110156139c0576139bd601b826145c3565b90505b8060ff16601b141580156139d857508060ff16601c14155b156139e95760009350505050613a4c565b60408051600081526020810180835288905260ff831691810191909152606081018490526080810183905260019060a0016020604051602081039080840390855afa158015613a3c573d6000803e3d6000fd5b5050506020604051035193505050505b92915050565b80356002811061397457600080fd5b600060808284031215613a72578081fd5b50919050565b803560ff8116811461397457600080fd5b600060208284031215613a9a578081fd5b8151613aa581614654565b9392505050565b600080600080600080600060e0888a031215613ac6578283fd5b8735613ad181614654565b96506020880135613ae181614654565b9550613aef60408901613a78565b9450613afd60608901613a52565b93506080880135925060a0880135613b1481614654565b8092505060c0880135905092959891949750929550565b600080600080600080600080610100898b031215613b47578081fd5b8835613b5281614654565b97506020890135613b6281614654565b9650613b7060408a01613a78565b9550613b7e60608a01613a52565b94506080890135935060a0890135925060c0890135613b9c81614654565b8092505060e089013590509295985092959890939650565b60008060008060008060008060006101808a8c031215613bd2578081fd5b8935613bdd81614654565b985060208a0135613bed81614654565b9750613bfb60408b01613a78565b9650613c0960608b01613a52565b955060808a0135945060a08a0135935060c08a0135613c2781614654565b925060e08a01359150613c3e8b6101008c01613a61565b90509295985092959850929598565b60008060008060808587031215613c62578384fd5b8435613c6d81614654565b9350602085013592506040850135613c8481614654565b9396929550929360600135925050565b600080600080600060a08688031215613cab578081fd5b8535613cb681614654565b945060208601359350604086013592506060860135613cd481614654565b949793965091946080013592915050565b60008060008060008060008060006101208a8c031215613d03578283fd5b8935613d0e81614654565b985060208a0135975060408a0135965060608a0135613d2c81614654565b955060808a0135945060a08a0135613d438161466c565b9350613d5160c08b01613a78565b925060e08a013591506101008a013590509295985092959850929598565b60008060008060008060c08789031215613d87578384fd5b8635613d9281614654565b9550613da060208801613a78565b9450613dae60408801613a52565b9350606087013592506080870135613dc581614654565b8092505060a087013590509295509295509295565b600080600080600080600060e0888a031215613df4578081fd5b8735613dff81614654565b9650613e0d60208901613a78565b9550613e1b60408901613a52565b9450606088013593506080880135925060a0880135613b1481614654565b600080600080600080600080610160898b031215613e55578182fd5b8835613e6081614654565b9750613e6e60208a01613a78565b9650613e7c60408a01613a52565b9550606089013594506080890135935060a0890135613e9a81614654565b925060c08901359150613eb08a60e08b01613a61565b90509295985092959890939650565b600060208284031215613ed0578081fd5b8135613aa58161466c565b600060208284031215613eec578081fd5b8151613aa58161466c565b600080600080600080600080610100898b031215613f13578182fd5b883567ffffffffffffffff811115613f29578283fd5b613f358b828c01613a61565b9850506020890135613f4681614654565b96506040890135613f5681614654565b9550613f6460608a01613a78565b9450613f7260808a01613a52565b935060a0890135925060c0890135613b9c81614654565b60008060008060008060008060006101208a8c031215613fa7578283fd5b893567ffffffffffffffff811115613fbd578384fd5b613fc98c828d01613a61565b99505060208a0135613fda81614654565b975060408a0135613fea81614654565b9650613ff860608b01613a78565b955061400660808b01613a52565b945060a08a0135935060c08a0135925060e08a013561402481614654565b809250506101008a013590509295985092959850929598565b6000806000806000806000806000806101a08b8d03121561405c578384fd5b8a3567ffffffffffffffff811115614072578485fd5b61407e8d828e01613a61565b9a505060208b013561408f81614654565b985060408b013561409f81614654565b97506140ad60608c01613a78565b96506140bb60808c01613a52565b955060a08b0135945060c08b0135935060e08b01356140d981614654565b92506101008b013591506140f18c6101208d01613a61565b90509295989b9194979a5092959850565b600080600080600080600060e0888a03121561411c578081fd5b873567ffffffffffffffff811115614132578182fd5b61413e8a828b01613a61565b9750506020880135613ae181614654565b600080600080600080600080610100898b03121561416b578182fd5b883567ffffffffffffffff811115614181578283fd5b61418d8b828c01613a61565b9850506020890135613b6281614654565b60008060008060008060008060006101808a8c0312156141bc578283fd5b893567ffffffffffffffff8111156141d2578384fd5b6141de8c828d01613a61565b99505060208a0135613bed81614654565b600060208284031215614200578081fd5b5035919050565b600060208284031215614218578081fd5b5051919050565b600080600060608486031215614233578081fd5b83359250602084013561424581614654565b929592945050506040919091013590565b60008060408385031215614268578182fd5b505080516020909101519092909150565b6000806000806080858703121561428e578182fd5b84359350602085013592506040850135613c8481614654565b600080600080600080600080610100898b0312156142c3578182fd5b883597506020890135965060408901356142dc81614654565b95506060890135945060808901356142f38161466c565b935061430160a08a01613a78565b925060c0890135915060e089013590509295985092959890939650565b60006020828403121561432f578081fd5b613aa582613a78565b60008251815b81811015614358576020818601810151858301520161433e565b818111156143665782828501525b509190910192915050565b6001600160a01b039384168152919092166020820152604081019190915260600190565b6001600160a01b0397881681529590961660208601526040850193909352606084019190915260ff16608083015260a082015260c081019190915260e00190565b6001600160a01b0385811682528416602082015260ff83166040820152608081016002831061441557634e487b7160e01b600052602160045260246000fd5b82606083015295945050505050565b60208082526012908201527121a121219d102727aa2fa1a922a0aa22a21760711b604082015260600190565b6020808252602e908201527f43626263526f757465723a20494e53554646494349454e545f534554544c454d60408201526d11539517d05353d5539517d3d55560921b606082015260800190565b6020808252602d908201527f434242433a3a526f757465723a2043414c4c5f46524f4d5f434f4e545241435460408201526c2fa727aa2fa0a62627aba2a21760991b606082015260800190565b60208082526015908201527410d09090ce8e949bdd5d195c8e8811561412549151605a1b604082015260600190565b60208082526025908201527f434242433a205550444154455f4f5241434c455f4f525f5245424153455f464160408201526424a622a21760d91b606082015260800190565b6000808335601e19843603018112614575578283fd5b83018035915067ffffffffffffffff82111561458f578283fd5b6020019150368190038213156145a457600080fd5b9250929050565b600082198211156145be576145be61463e565b500190565b600060ff821660ff84168060ff038211156145e0576145e061463e565b019392505050565b60008261460357634e487b7160e01b81526012600452602481fd5b500490565b60008160001904831182151516156146225761462261463e565b500290565b6000828210156146395761463961463e565b500390565b634e487b7160e01b600052601160045260246000fd5b6001600160a01b038116811461466957600080fd5b50565b801515811461466957600080fdfea264697066735822122034211753d4b8adbc086d193496462e352b01059879dea994cf0e7e304f132ca764736f6c63430008030033",
			"opcodes": "PUSH2 0x120 PUSH1 0x40 MSTORE CALLVALUE DUP1 ISZERO PUSH3 0x12 JUMPI PUSH1 0x0 DUP1 REVERT JUMPDEST POP PUSH1 0x40 MLOAD PUSH3 0x496E CODESIZE SUB DUP1 PUSH3 0x496E DUP4 CODECOPY DUP2 ADD PUSH1 0x40 DUP2 SWAP1 MSTORE PUSH3 0x35 SWAP2 PUSH3 0x77 JUMP JUMPDEST PUSH1 0x1 PUSH1 0x1 PUSH1 0x60 SHL SUB NOT PUSH1 0x60 SWAP5 DUP6 SHL DUP2 AND PUSH1 0x80 MSTORE SWAP3 DUP5 SHL DUP4 AND PUSH1 0xA0 MSTORE SWAP1 DUP4 SHL DUP3 AND PUSH1 0xC0 MSTORE DUP3 SHL AND PUSH1 0xE0 MSTORE CALLER SWAP1 SHL PUSH2 0x100 MSTORE PUSH8 0x16345785D8A0000 PUSH1 0x0 SSTORE PUSH3 0xF7 JUMP JUMPDEST PUSH1 0x0 DUP1 PUSH1 0x0 DUP1 PUSH1 0x80 DUP6 DUP8 SUB SLT ISZERO PUSH3 0x8D JUMPI DUP4 DUP5 REVERT JUMPDEST DUP5 MLOAD PUSH3 0x9A DUP2 PUSH3 0xDE JUMP JUMPDEST PUSH1 0x20 DUP7 ADD MLOAD SWAP1 SWAP5 POP PUSH3 0xAD DUP2 PUSH3 0xDE JUMP JUMPDEST PUSH1 0x40 DUP7 ADD MLOAD SWAP1 SWAP4 POP PUSH3 0xC0 DUP2 PUSH3 0xDE JUMP JUMPDEST PUSH1 0x60 DUP7 ADD MLOAD SWAP1 SWAP3 POP PUSH3 0xD3 DUP2 PUSH3 0xDE JUMP JUMPDEST SWAP4 SWAP7 SWAP3 SWAP6 POP SWAP1 SWAP4 POP POP JUMP JUMPDEST PUSH1 0x1 PUSH1 0x1 PUSH1 0xA0 SHL SUB DUP2 AND DUP2 EQ PUSH3 0xF4 JUMPI PUSH1 0x0 DUP1 REVERT JUMPDEST POP JUMP JUMPDEST PUSH1 0x80 MLOAD PUSH1 0x60 SHR PUSH1 0xA0 MLOAD PUSH1 0x60 SHR PUSH1 0xC0 MLOAD PUSH1 0x60 SHR PUSH1 0xE0 MLOAD PUSH1 0x60 SHR PUSH2 0x100 MLOAD PUSH1 0x60 SHR PUSH2 0x46B0 PUSH3 0x2BE PUSH1 0x0 CODECOPY PUSH1 0x0 PUSH2 0x2612 ADD MSTORE PUSH1 0x0 DUP2 DUP2 PUSH2 0x15F ADD MSTORE DUP2 DUP2 PUSH2 0x3DB ADD MSTORE DUP2 DUP2 PUSH2 0x9BE ADD MSTORE DUP2 DUP2 PUSH2 0xCD9 ADD MSTORE DUP2 DUP2 PUSH2 0x12BF ADD MSTORE DUP2 DUP2 PUSH2 0x141B ADD MSTORE DUP2 DUP2 PUSH2 0x145F ADD MSTORE DUP2 DUP2 PUSH2 0x1ACB ADD MSTORE DUP2 DUP2 PUSH2 0x1B0C ADD MSTORE DUP2 DUP2 PUSH2 0x1C0C ADD MSTORE DUP2 DUP2 PUSH2 0x1CC8 ADD MSTORE DUP2 DUP2 PUSH2 0x1DA4 ADD MSTORE DUP2 DUP2 PUSH2 0x1E39 ADD MSTORE DUP2 DUP2 PUSH2 0x1ECE ADD MSTORE DUP2 DUP2 PUSH2 0x2549 ADD MSTORE DUP2 DUP2 PUSH2 0x258D ADD MSTORE DUP2 DUP2 PUSH2 0x26B1 ADD MSTORE DUP2 DUP2 PUSH2 0x27C6 ADD MSTORE DUP2 DUP2 PUSH2 0x2871 ADD MSTORE DUP2 DUP2 PUSH2 0x2906 ADD MSTORE DUP2 DUP2 PUSH2 0x2C08 ADD MSTORE DUP2 DUP2 PUSH2 0x2CC4 ADD MSTORE DUP2 DUP2 PUSH2 0x2DA0 ADD MSTORE DUP2 DUP2 PUSH2 0x2E38 ADD MSTORE DUP2 DUP2 PUSH2 0x2E7C ADD MSTORE PUSH2 0x2F11 ADD MSTORE PUSH1 0x0 DUP2 DUP2 PUSH2 0x42F ADD MSTORE DUP2 DUP2 PUSH2 0x1A35 ADD MSTORE DUP2 DUP2 PUSH2 0x2494 ADD MSTORE PUSH2 0x32B4 ADD MSTORE PUSH1 0x0 DUP2 DUP2 PUSH2 0x2FC ADD MSTORE DUP2 DUP2 PUSH2 0x3740 ADD MSTORE PUSH2 0x3838 ADD MSTORE PUSH1 0x0 DUP2 DUP2 PUSH2 0x483 ADD MSTORE DUP2 DUP2 PUSH2 0x50F ADD MSTORE DUP2 DUP2 PUSH2 0x6B0 ADD MSTORE DUP2 DUP2 PUSH2 0x890 ADD MSTORE DUP2 DUP2 PUSH2 0x9EB ADD MSTORE DUP2 DUP2 PUSH2 0xB5C ADD MSTORE DUP2 DUP2 PUSH2 0xD06 ADD MSTORE DUP2 DUP2 PUSH2 0xE85 ADD MSTORE DUP2 DUP2 PUSH2 0x10CE ADD MSTORE DUP2 DUP2 PUSH2 0x11A3 ADD MSTORE DUP2 DUP2 PUSH2 0x12EC ADD MSTORE DUP2 DUP2 PUSH2 0x150F ADD MSTORE DUP2 DUP2 PUSH2 0x15EB ADD MSTORE DUP2 DUP2 PUSH2 0x166D ADD MSTORE DUP2 DUP2 PUSH2 0x1BD7 ADD MSTORE DUP2 DUP2 PUSH2 0x1CF3 ADD MSTORE DUP2 DUP2 PUSH2 0x1D75 ADD MSTORE DUP2 DUP2 PUSH2 0x204A ADD MSTORE DUP2 DUP2 PUSH2 0x26DC ADD MSTORE DUP2 DUP2 PUSH2 0x27F1 ADD MSTORE DUP2 DUP2 PUSH2 0x2A60 ADD MSTORE DUP2 DUP2 PUSH2 0x2BD3 ADD MSTORE DUP2 DUP2 PUSH2 0x2CEF ADD MSTORE PUSH2 0x2D71 ADD MSTORE PUSH2 0x46B0 PUSH1 0x0 RETURN INVALID PUSH1 0x80 PUSH1 0x40 MSTORE PUSH1 0x4 CALLDATASIZE LT PUSH2 0x14F JUMPI PUSH1 0x0 CALLDATALOAD PUSH1 0xE0 SHR DUP1 PUSH4 0x76D6F7C8 GT PUSH2 0xB6 JUMPI DUP1 PUSH4 0xB74795D9 GT PUSH2 0x6F JUMPI DUP1 PUSH4 0xB74795D9 EQ PUSH2 0x41D JUMPI DUP1 PUSH4 0xB890EBF6 EQ PUSH2 0x451 JUMPI DUP1 PUSH4 0xC45A0155 EQ PUSH2 0x471 JUMPI DUP1 PUSH4 0xCA88711B EQ PUSH2 0x4A5 JUMPI DUP1 PUSH4 0xDC76E05E EQ PUSH2 0x4B8 JUMPI DUP1 PUSH4 0xE4C9B9A1 EQ PUSH2 0x4D8 JUMPI PUSH2 0x19C JUMP JUMPDEST DUP1 PUSH4 0x76D6F7C8 EQ PUSH2 0x356 JUMPI DUP1 PUSH4 0x90F4B2CC EQ PUSH2 0x376 JUMPI DUP1 PUSH4 0x92CCBF15 EQ PUSH2 0x396 JUMPI DUP1 PUSH4 0x9BAC59C3 EQ PUSH2 0x3A9 JUMPI DUP1 PUSH4 0xAD5C4648 EQ PUSH2 0x3C9 JUMPI DUP1 PUSH4 0xB2D0E620 EQ PUSH2 0x3FD JUMPI PUSH2 0x19C JUMP JUMPDEST DUP1 PUSH4 0x406E9B56 GT PUSH2 0x108 JUMPI DUP1 PUSH4 0x406E9B56 EQ PUSH2 0x274 JUMPI DUP1 PUSH4 0x456AD4B9 EQ PUSH2 0x294 JUMPI DUP1 PUSH4 0x52D38E5D EQ PUSH2 0x2B4 JUMPI DUP1 PUSH4 0x609109B8 EQ PUSH2 0x2CA JUMPI DUP1 PUSH4 0x60961528 EQ PUSH2 0x2EA JUMPI DUP1 PUSH4 0x6B983E3F EQ PUSH2 0x336 JUMPI PUSH2 0x19C JUMP JUMPDEST DUP1 PUSH4 0x3CADE7C EQ PUSH2 0x1A1 JUMPI DUP1 PUSH4 0xB499F42 EQ PUSH2 0x1D4 JUMPI DUP1 PUSH4 0x20D890B7 EQ PUSH2 0x1F4 JUMPI DUP1 PUSH4 0x217BF6FB EQ PUSH2 0x214 JUMPI DUP1 PUSH4 0x376D3D5D EQ PUSH2 0x234 JUMPI DUP1 PUSH4 0x397AC950 EQ PUSH2 0x254 JUMPI PUSH2 0x19C JUMP JUMPDEST CALLDATASIZE PUSH2 0x19C JUMPI CALLER PUSH1 0x1 PUSH1 0x1 PUSH1 0xA0 SHL SUB PUSH32 0x0 AND EQ PUSH2 0x19A JUMPI PUSH4 0x4E487B71 PUSH1 0xE0 SHL PUSH1 0x0 MSTORE PUSH1 0x1 PUSH1 0x4 MSTORE PUSH1 0x24 PUSH1 0x0 REVERT JUMPDEST STOP JUMPDEST PUSH1 0x0 DUP1 REVERT JUMPDEST CALLVALUE DUP1 ISZERO PUSH2 0x1AD JUMPI PUSH1 0x0 DUP1 REVERT JUMPDEST POP PUSH2 0x1C1 PUSH2 0x1BC CALLDATASIZE PUSH1 0x4 PUSH2 0x3BB4 JUMP JUMPDEST PUSH2 0x4EB JUMP JUMPDEST PUSH1 0x40 MLOAD SWAP1 DUP2 MSTORE PUSH1 0x20 ADD JUMPDEST PUSH1 0x40 MLOAD DUP1 SWAP2 SUB SWAP1 RETURN JUMPDEST CALLVALUE DUP1 ISZERO PUSH2 0x1E0 JUMPI PUSH1 0x0 DUP1 REVERT JUMPDEST POP PUSH2 0x1C1 PUSH2 0x1EF CALLDATASIZE PUSH1 0x4 PUSH2 0x3B2B JUMP JUMPDEST PUSH2 0x64B JUMP JUMPDEST CALLVALUE DUP1 ISZERO PUSH2 0x200 JUMPI PUSH1 0x0 DUP1 REVERT JUMPDEST POP PUSH2 0x1C1 PUSH2 0x20F CALLDATASIZE PUSH1 0x4 PUSH2 0x3CE5 JUMP JUMPDEST PUSH2 0x86C JUMP JUMPDEST CALLVALUE DUP1 ISZERO PUSH2 0x220 JUMPI PUSH1 0x0 DUP1 REVERT JUMPDEST POP PUSH2 0x1C1 PUSH2 0x22F CALLDATASIZE PUSH1 0x4 PUSH2 0x419E JUMP JUMPDEST PUSH2 0x9A7 JUMP JUMPDEST CALLVALUE DUP1 ISZERO PUSH2 0x240 JUMPI PUSH1 0x0 DUP1 REVERT JUMPDEST POP PUSH2 0x1C1 PUSH2 0x24F CALLDATASIZE PUSH1 0x4 PUSH2 0x3C4D JUMP JUMPDEST PUSH2 0xB17 JUMP JUMPDEST CALLVALUE DUP1 ISZERO PUSH2 0x260 JUMPI PUSH1 0x0 DUP1 REVERT JUMPDEST POP PUSH2 0x1C1 PUSH2 0x26F CALLDATASIZE PUSH1 0x4 PUSH2 0x3E39 JUMP JUMPDEST PUSH2 0xCC2 JUMP JUMPDEST CALLVALUE DUP1 ISZERO PUSH2 0x280 JUMPI PUSH1 0x0 DUP1 REVERT JUMPDEST POP PUSH2 0x1C1 PUSH2 0x28F CALLDATASIZE PUSH1 0x4 PUSH2 0x3C94 JUMP JUMPDEST PUSH2 0xE40 JUMP JUMPDEST CALLVALUE DUP1 ISZERO PUSH2 0x2A0 JUMPI PUSH1 0x0 DUP1 REVERT JUMPDEST POP PUSH2 0x1C1 PUSH2 0x2AF CALLDATASIZE PUSH1 0x4 PUSH2 0x3AAC JUMP JUMPDEST PUSH2 0x1072 JUMP JUMPDEST CALLVALUE DUP1 ISZERO PUSH2 0x2C0 JUMPI PUSH1 0x0 DUP1 REVERT JUMPDEST POP PUSH2 0x1C1 PUSH1 0x0 SLOAD DUP2 JUMP JUMPDEST CALLVALUE DUP1 ISZERO PUSH2 0x2D6 JUMPI PUSH1 0x0 DUP1 REVERT JUMPDEST POP PUSH2 0x1C1 PUSH2 0x2E5 CALLDATASIZE PUSH1 0x4 PUSH2 0x42A7 JUMP JUMPDEST PUSH2 0x12A8 JUMP JUMPDEST CALLVALUE DUP1 ISZERO PUSH2 0x2F6 JUMPI PUSH1 0x0 DUP1 REVERT JUMPDEST POP PUSH2 0x31E PUSH32 0x0 DUP2 JUMP JUMPDEST PUSH1 0x40 MLOAD PUSH1 0x1 PUSH1 0x1 PUSH1 0xA0 SHL SUB SWAP1 SWAP2 AND DUP2 MSTORE PUSH1 0x20 ADD PUSH2 0x1CB JUMP JUMPDEST CALLVALUE DUP1 ISZERO PUSH2 0x342 JUMPI PUSH1 0x0 DUP1 REVERT JUMPDEST POP PUSH2 0x1C1 PUSH2 0x351 CALLDATASIZE PUSH1 0x4 PUSH2 0x414F JUMP JUMPDEST PUSH2 0x13F2 JUMP JUMPDEST CALLVALUE DUP1 ISZERO PUSH2 0x362 JUMPI PUSH1 0x0 DUP1 REVERT JUMPDEST POP PUSH2 0x1C1 PUSH2 0x371 CALLDATASIZE PUSH1 0x4 PUSH2 0x3EF7 JUMP JUMPDEST PUSH2 0x14DA JUMP JUMPDEST CALLVALUE DUP1 ISZERO PUSH2 0x382 JUMPI PUSH1 0x0 DUP1 REVERT JUMPDEST POP PUSH2 0x1C1 PUSH2 0x391 CALLDATASIZE PUSH1 0x4 PUSH2 0x4279 JUMP JUMPDEST PUSH2 0x1AA3 JUMP JUMPDEST PUSH2 0x1C1 PUSH2 0x3A4 CALLDATASIZE PUSH1 0x4 PUSH2 0x3D6F JUMP JUMPDEST PUSH2 0x1B83 JUMP JUMPDEST CALLVALUE DUP1 ISZERO PUSH2 0x3B5 JUMPI PUSH1 0x0 DUP1 REVERT JUMPDEST POP PUSH2 0x1C1 PUSH2 0x3C4 CALLDATASIZE PUSH1 0x4 PUSH2 0x3F89 JUMP JUMPDEST PUSH2 0x200D JUMP JUMPDEST CALLVALUE DUP1 ISZERO PUSH2 0x3D5 JUMPI PUSH1 0x0 DUP1 REVERT JUMPDEST POP PUSH2 0x31E PUSH32 0x0 DUP2 JUMP JUMPDEST CALLVALUE DUP1 ISZERO PUSH2 0x409 JUMPI PUSH1 0x0 DUP1 REVERT JUMPDEST POP PUSH2 0x1C1 PUSH2 0x418 CALLDATASIZE PUSH1 0x4 PUSH2 0x3DDA JUMP JUMPDEST PUSH2 0x2502 JUMP JUMPDEST CALLVALUE DUP1 ISZERO PUSH2 0x429 JUMPI PUSH1 0x0 DUP1 REVERT JUMPDEST POP PUSH2 0x31E PUSH32 0x0 DUP2 JUMP JUMPDEST CALLVALUE DUP1 ISZERO PUSH2 0x45D JUMPI PUSH1 0x0 DUP1 REVERT JUMPDEST POP PUSH2 0x19A PUSH2 0x46C CALLDATASIZE PUSH1 0x4 PUSH2 0x41EF JUMP JUMPDEST PUSH2 0x2607 JUMP JUMPDEST CALLVALUE DUP1 ISZERO PUSH2 0x47D JUMPI PUSH1 0x0 DUP1 REVERT JUMPDEST POP PUSH2 0x31E PUSH32 0x0 DUP2 JUMP JUMPDEST PUSH2 0x1C1 PUSH2 0x4B3 CALLDATASIZE PUSH1 0x4 PUSH2 0x421F JUMP JUMPDEST PUSH2 0x2677 JUMP JUMPDEST CALLVALUE DUP1 ISZERO PUSH2 0x4C4 JUMPI PUSH1 0x0 DUP1 REVERT JUMPDEST POP PUSH2 0x1C1 PUSH2 0x4D3 CALLDATASIZE PUSH1 0x4 PUSH2 0x403D JUMP JUMPDEST PUSH2 0x2A3C JUMP JUMPDEST PUSH2 0x1C1 PUSH2 0x4E6 CALLDATASIZE PUSH1 0x4 PUSH2 0x4102 JUMP JUMPDEST PUSH2 0x2B9E JUMP JUMPDEST PUSH1 0x40 MLOAD PUSH4 0x4C22F489 PUSH1 0xE1 SHL DUP2 MSTORE PUSH1 0x1 PUSH1 0x1 PUSH1 0xA0 SHL SUB DUP11 DUP2 AND PUSH1 0x4 DUP4 ADD MSTORE PUSH1 0x0 SWAP2 DUP3 SWAP2 PUSH32 0x0 AND SWAP1 PUSH4 0x9845E912 SWAP1 PUSH1 0x24 ADD PUSH1 0x20 PUSH1 0x40 MLOAD DUP1 DUP4 SUB DUP2 DUP7 DUP1 EXTCODESIZE ISZERO DUP1 ISZERO PUSH2 0x551 JUMPI PUSH1 0x0 DUP1 REVERT JUMPDEST POP GAS STATICCALL ISZERO DUP1 ISZERO PUSH2 0x565 JUMPI RETURNDATASIZE PUSH1 0x0 DUP1 RETURNDATACOPY RETURNDATASIZE PUSH1 0x0 REVERT JUMPDEST POP POP POP POP PUSH1 0x40 MLOAD RETURNDATASIZE PUSH1 0x1F NOT PUSH1 0x1F DUP3 ADD AND DUP3 ADD DUP1 PUSH1 0x40 MSTORE POP DUP2 ADD SWAP1 PUSH2 0x589 SWAP2 SWAP1 PUSH2 0x3A89 JUMP JUMPDEST SWAP1 POP PUSH1 0x0 PUSH2 0x59A PUSH1 0x20 DUP6 ADD DUP6 PUSH2 0x3EBF JUMP JUMPDEST PUSH2 0x5A4 JUMPI DUP8 PUSH2 0x5A8 JUMP JUMPDEST PUSH1 0x0 NOT JUMPDEST SWAP1 POP PUSH1 0x1 PUSH1 0x1 PUSH1 0xA0 SHL SUB DUP3 AND PUSH4 0xD505ACCF CALLER ADDRESS DUP5 DUP10 PUSH2 0x5CD PUSH1 0x40 DUP12 ADD PUSH1 0x20 DUP13 ADD PUSH2 0x431E JUMP JUMPDEST DUP11 PUSH1 0x40 ADD CALLDATALOAD DUP12 PUSH1 0x60 ADD CALLDATALOAD PUSH1 0x40 MLOAD DUP9 PUSH4 0xFFFFFFFF AND PUSH1 0xE0 SHL DUP2 MSTORE PUSH1 0x4 ADD PUSH2 0x5F9 SWAP8 SWAP7 SWAP6 SWAP5 SWAP4 SWAP3 SWAP2 SWAP1 PUSH2 0x4395 JUMP JUMPDEST PUSH1 0x0 PUSH1 0x40 MLOAD DUP1 DUP4 SUB DUP2 PUSH1 0x0 DUP8 DUP1 EXTCODESIZE ISZERO DUP1 ISZERO PUSH2 0x613 JUMPI PUSH1 0x0 DUP1 REVERT JUMPDEST POP GAS CALL ISZERO DUP1 ISZERO PUSH2 0x627 JUMPI RETURNDATASIZE PUSH1 0x0 DUP1 RETURNDATACOPY RETURNDATASIZE PUSH1 0x0 REVERT JUMPDEST POP POP POP POP POP POP PUSH2 0x63D DUP11 DUP11 DUP11 DUP11 DUP11 DUP11 DUP11 DUP11 PUSH2 0x64B JUMP JUMPDEST SWAP11 SWAP10 POP POP POP POP POP POP POP POP POP POP JUMP JUMPDEST PUSH1 0x0 ORIGIN CALLER EQ PUSH2 0x675 JUMPI PUSH1 0x40 MLOAD PUSH3 0x461BCD PUSH1 0xE5 SHL DUP2 MSTORE PUSH1 0x4 ADD PUSH2 0x66C SWAP1 PUSH2 0x449E JUMP JUMPDEST PUSH1 0x40 MLOAD DUP1 SWAP2 SUB SWAP1 REVERT JUMPDEST DUP2 TIMESTAMP DUP2 LT ISZERO PUSH2 0x696 JUMPI PUSH1 0x40 MLOAD PUSH3 0x461BCD PUSH1 0xE5 SHL DUP2 MSTORE PUSH1 0x4 ADD PUSH2 0x66C SWAP1 PUSH2 0x44EB JUMP JUMPDEST PUSH1 0x40 MLOAD PUSH4 0x3561D521 PUSH1 0xE1 SHL DUP2 MSTORE PUSH1 0x0 SWAP1 PUSH1 0x1 PUSH1 0x1 PUSH1 0xA0 SHL SUB PUSH32 0x0 AND SWAP1 PUSH4 0x6AC3AA42 SWAP1 PUSH2 0x6EB SWAP1 DUP15 SWAP1 DUP15 SWAP1 DUP15 SWAP1 DUP15 SWAP1 PUSH1 0x4 ADD PUSH2 0x43D6 JUMP JUMPDEST PUSH1 0x20 PUSH1 0x40 MLOAD DUP1 DUP4 SUB DUP2 DUP7 DUP1 EXTCODESIZE ISZERO DUP1 ISZERO PUSH2 0x703 JUMPI PUSH1 0x0 DUP1 REVERT JUMPDEST POP GAS STATICCALL ISZERO DUP1 ISZERO PUSH2 0x717 JUMPI RETURNDATASIZE PUSH1 0x0 DUP1 RETURNDATACOPY RETURNDATASIZE PUSH1 0x0 REVERT JUMPDEST POP POP POP POP PUSH1 0x40 MLOAD RETURNDATASIZE PUSH1 0x1F NOT PUSH1 0x1F DUP3 ADD AND DUP3 ADD DUP1 PUSH1 0x40 MSTORE POP DUP2 ADD SWAP1 PUSH2 0x73B SWAP2 SWAP1 PUSH2 0x3A89 JUMP JUMPDEST PUSH1 0x40 MLOAD PUSH4 0x23B872DD PUSH1 0xE0 SHL DUP2 MSTORE SWAP1 SWAP2 POP PUSH1 0x1 PUSH1 0x1 PUSH1 0xA0 SHL SUB DUP3 AND SWAP1 PUSH4 0x23B872DD SWAP1 PUSH2 0x76E SWAP1 CALLER SWAP1 DUP6 SWAP1 DUP13 SWAP1 PUSH1 0x4 ADD PUSH2 0x4371 JUMP JUMPDEST PUSH1 0x20 PUSH1 0x40 MLOAD DUP1 DUP4 SUB DUP2 PUSH1 0x0 DUP8 DUP1 EXTCODESIZE ISZERO DUP1 ISZERO PUSH2 0x788 JUMPI PUSH1 0x0 DUP1 REVERT JUMPDEST POP GAS CALL ISZERO DUP1 ISZERO PUSH2 0x79C JUMPI RETURNDATASIZE PUSH1 0x0 DUP1 RETURNDATACOPY RETURNDATASIZE PUSH1 0x0 REVERT JUMPDEST POP POP POP POP PUSH1 0x40 MLOAD RETURNDATASIZE PUSH1 0x1F NOT PUSH1 0x1F DUP3 ADD AND DUP3 ADD DUP1 PUSH1 0x40 MSTORE POP DUP2 ADD SWAP1 PUSH2 0x7C0 SWAP2 SWAP1 PUSH2 0x3EDB JUMP JUMPDEST POP PUSH1 0x40 MLOAD PUSH4 0x2F8D2051 PUSH1 0xE1 SHL DUP2 MSTORE PUSH1 0x1 PUSH1 0x1 PUSH1 0xA0 SHL SUB DUP7 DUP2 AND PUSH1 0x4 DUP4 ADD MSTORE DUP3 AND SWAP1 PUSH4 0x5F1A40A2 SWAP1 PUSH1 0x24 ADD PUSH1 0x20 PUSH1 0x40 MLOAD DUP1 DUP4 SUB DUP2 PUSH1 0x0 DUP8 DUP1 EXTCODESIZE ISZERO DUP1 ISZERO PUSH2 0x804 JUMPI PUSH1 0x0 DUP1 REVERT JUMPDEST POP GAS CALL ISZERO DUP1 ISZERO PUSH2 0x818 JUMPI RETURNDATASIZE PUSH1 0x0 DUP1 RETURNDATACOPY RETURNDATASIZE PUSH1 0x0 REVERT JUMPDEST POP POP POP POP PUSH1 0x40 MLOAD RETURNDATASIZE PUSH1 0x1F NOT PUSH1 0x1F DUP3 ADD AND DUP3 ADD DUP1 PUSH1 0x40 MSTORE POP DUP2 ADD SWAP1 PUSH2 0x83C SWAP2 SWAP1 PUSH2 0x4207 JUMP JUMPDEST SWAP3 POP DUP6 DUP4 LT ISZERO PUSH2 0x85E JUMPI PUSH1 0x40 MLOAD PUSH3 0x461BCD PUSH1 0xE5 SHL DUP2 MSTORE PUSH1 0x4 ADD PUSH2 0x66C SWAP1 PUSH2 0x4450 JUMP JUMPDEST POP POP SWAP9 SWAP8 POP POP POP POP POP POP POP POP JUMP JUMPDEST PUSH1 0x40 MLOAD PUSH4 0x4C22F489 PUSH1 0xE1 SHL DUP2 MSTORE PUSH1 0x1 PUSH1 0x1 PUSH1 0xA0 SHL SUB DUP11 DUP2 AND PUSH1 0x4 DUP4 ADD MSTORE PUSH1 0x0 SWAP2 DUP3 SWAP2 PUSH32 0x0 AND SWAP1 PUSH4 0x9845E912 SWAP1 PUSH1 0x24 ADD PUSH1 0x20 PUSH1 0x40 MLOAD DUP1 DUP4 SUB DUP2 DUP7 DUP1 EXTCODESIZE ISZERO DUP1 ISZERO PUSH2 0x8D2 JUMPI PUSH1 0x0 DUP1 REVERT JUMPDEST POP GAS STATICCALL ISZERO DUP1 ISZERO PUSH2 0x8E6 JUMPI RETURNDATASIZE PUSH1 0x0 DUP1 RETURNDATACOPY RETURNDATASIZE PUSH1 0x0 REVERT JUMPDEST POP POP POP POP PUSH1 0x40 MLOAD RETURNDATASIZE PUSH1 0x1F NOT PUSH1 0x1F DUP3 ADD AND DUP3 ADD DUP1 PUSH1 0x40 MSTORE POP DUP2 ADD SWAP1 PUSH2 0x90A SWAP2 SWAP1 PUSH2 0x3A89 JUMP JUMPDEST SWAP1 POP PUSH1 0x0 DUP7 PUSH2 0x919 JUMPI DUP11 PUSH2 0x91D JUMP JUMPDEST PUSH1 0x0 NOT JUMPDEST PUSH1 0x40 MLOAD PUSH4 0xD505ACCF PUSH1 0xE0 SHL DUP2 MSTORE SWAP1 SWAP2 POP PUSH1 0x1 PUSH1 0x1 PUSH1 0xA0 SHL SUB DUP4 AND SWAP1 PUSH4 0xD505ACCF SWAP1 PUSH2 0x958 SWAP1 CALLER SWAP1 ADDRESS SWAP1 DUP7 SWAP1 DUP15 SWAP1 DUP14 SWAP1 DUP14 SWAP1 DUP14 SWAP1 PUSH1 0x4 ADD PUSH2 0x4395 JUMP JUMPDEST PUSH1 0x0 PUSH1 0x40 MLOAD DUP1 DUP4 SUB DUP2 PUSH1 0x0 DUP8 DUP1 EXTCODESIZE ISZERO DUP1 ISZERO PUSH2 0x972 JUMPI PUSH1 0x0 DUP1 REVERT JUMPDEST POP GAS CALL ISZERO DUP1 ISZERO PUSH2 0x986 JUMPI RETURNDATASIZE PUSH1 0x0 DUP1 RETURNDATACOPY RETURNDATASIZE PUSH1 0x0 REVERT JUMPDEST POP POP POP POP PUSH2 0x997 DUP13 DUP13 DUP13 DUP13 DUP13 PUSH2 0xE40 JUMP JUMPDEST SWAP13 SWAP12 POP POP POP POP POP POP POP POP POP POP POP POP JUMP JUMPDEST PUSH1 0x40 MLOAD PUSH4 0x4C22F489 PUSH1 0xE1 SHL DUP2 MSTORE PUSH1 0x1 PUSH1 0x1 PUSH1 0xA0 SHL SUB PUSH32 0x0 DUP2 AND PUSH1 0x4 DUP4 ADD MSTORE PUSH1 0x0 SWAP2 DUP3 SWAP2 PUSH32 0x0 AND SWAP1 PUSH4 0x9845E912 SWAP1 PUSH1 0x24 ADD PUSH1 0x20 PUSH1 0x40 MLOAD DUP1 DUP4 SUB DUP2 DUP7 DUP1 EXTCODESIZE ISZERO DUP1 ISZERO PUSH2 0xA2D JUMPI PUSH1 0x0 DUP1 REVERT JUMPDEST POP GAS STATICCALL ISZERO DUP1 ISZERO PUSH2 0xA41 JUMPI RETURNDATASIZE PUSH1 0x0 DUP1 RETURNDATACOPY RETURNDATASIZE PUSH1 0x0 REVERT JUMPDEST POP POP POP POP PUSH1 0x40 MLOAD RETURNDATASIZE PUSH1 0x1F NOT PUSH1 0x1F DUP3 ADD AND DUP3 ADD DUP1 PUSH1 0x40 MSTORE POP DUP2 ADD SWAP1 PUSH2 0xA65 SWAP2 SWAP1 PUSH2 0x3A89 JUMP JUMPDEST SWAP1 POP PUSH1 0x0 PUSH2 0xA76 PUSH1 0x20 DUP6 ADD DUP6 PUSH2 0x3EBF JUMP JUMPDEST PUSH2 0xA80 JUMPI DUP8 PUSH2 0xA84 JUMP JUMPDEST PUSH1 0x0 NOT JUMPDEST SWAP1 POP PUSH1 0x1 PUSH1 0x1 PUSH1 0xA0 SHL SUB DUP3 AND PUSH4 0xD505ACCF CALLER ADDRESS DUP5 DUP10 PUSH2 0xAA9 PUSH1 0x40 DUP12 ADD PUSH1 0x20 DUP13 ADD PUSH2 0x431E JUMP JUMPDEST DUP11 PUSH1 0x40 ADD CALLDATALOAD DUP12 PUSH1 0x60 ADD CALLDATALOAD PUSH1 0x40 MLOAD DUP9 PUSH4 0xFFFFFFFF AND PUSH1 0xE0 SHL DUP2 MSTORE PUSH1 0x4 ADD PUSH2 0xAD5 SWAP8 SWAP7 SWAP6 SWAP5 SWAP4 SWAP3 SWAP2 SWAP1 PUSH2 0x4395 JUMP JUMPDEST PUSH1 0x0 PUSH1 0x40 MLOAD DUP1 DUP4 SUB DUP2 PUSH1 0x0 DUP8 DUP1 EXTCODESIZE ISZERO DUP1 ISZERO PUSH2 0xAEF JUMPI PUSH1 0x0 DUP1 REVERT JUMPDEST POP GAS CALL ISZERO DUP1 ISZERO PUSH2 0xB03 JUMPI RETURNDATASIZE PUSH1 0x0 DUP1 RETURNDATACOPY RETURNDATASIZE PUSH1 0x0 REVERT JUMPDEST POP POP POP POP PUSH2 0x997 DUP13 DUP13 DUP13 DUP13 DUP13 DUP13 DUP13 DUP13 PUSH2 0x13F2 JUMP JUMPDEST PUSH1 0x0 DUP2 TIMESTAMP DUP2 LT ISZERO PUSH2 0xB3A JUMPI PUSH1 0x40 MLOAD PUSH3 0x461BCD PUSH1 0xE5 SHL DUP2 MSTORE PUSH1 0x4 ADD PUSH2 0x66C SWAP1 PUSH2 0x44EB JUMP JUMPDEST PUSH1 0x40 MLOAD PUSH4 0x4C22F489 PUSH1 0xE1 SHL DUP2 MSTORE PUSH1 0x1 PUSH1 0x1 PUSH1 0xA0 SHL SUB DUP8 DUP2 AND PUSH1 0x4 DUP4 ADD MSTORE PUSH1 0x0 SWAP2 PUSH32 0x0 SWAP1 SWAP2 AND SWAP1 PUSH4 0x9845E912 SWAP1 PUSH1 0x24 ADD PUSH1 0x20 PUSH1 0x40 MLOAD DUP1 DUP4 SUB DUP2 DUP7 DUP1 EXTCODESIZE ISZERO DUP1 ISZERO PUSH2 0xBA0 JUMPI PUSH1 0x0 DUP1 REVERT JUMPDEST POP GAS STATICCALL ISZERO DUP1 ISZERO PUSH2 0xBB4 JUMPI RETURNDATASIZE PUSH1 0x0 DUP1 RETURNDATACOPY RETURNDATASIZE PUSH1 0x0 REVERT JUMPDEST POP POP POP POP PUSH1 0x40 MLOAD RETURNDATASIZE PUSH1 0x1F NOT PUSH1 0x1F DUP3 ADD AND DUP3 ADD DUP1 PUSH1 0x40 MSTORE POP DUP2 ADD SWAP1 PUSH2 0xBD8 SWAP2 SWAP1 PUSH2 0x3A89 JUMP JUMPDEST SWAP1 POP PUSH1 0x1 PUSH1 0x1 PUSH1 0xA0 SHL SUB DUP2 AND PUSH2 0xC30 JUMPI PUSH1 0x40 MLOAD PUSH3 0x461BCD PUSH1 0xE5 SHL DUP2 MSTORE PUSH1 0x20 PUSH1 0x4 DUP3 ADD MSTORE PUSH1 0x1F PUSH1 0x24 DUP3 ADD MSTORE PUSH32 0x434242433A204C49515549444954595F504F4F4C5F4E4F545F45584953542E00 PUSH1 0x44 DUP3 ADD MSTORE PUSH1 0x64 ADD PUSH2 0x66C JUMP JUMPDEST PUSH2 0xC3C DUP8 CALLER DUP4 DUP10 PUSH2 0x3321 JUMP JUMPDEST PUSH1 0x40 MLOAD PUSH4 0xDFFA7FD PUSH1 0xE3 SHL DUP2 MSTORE PUSH1 0x1 PUSH1 0x1 PUSH1 0xA0 SHL SUB DUP7 DUP2 AND PUSH1 0x4 DUP4 ADD MSTORE DUP3 AND SWAP1 PUSH4 0x6FFD3FE8 SWAP1 PUSH1 0x24 ADD PUSH1 0x20 PUSH1 0x40 MLOAD DUP1 DUP4 SUB DUP2 PUSH1 0x0 DUP8 DUP1 EXTCODESIZE ISZERO DUP1 ISZERO PUSH2 0xC7F JUMPI PUSH1 0x0 DUP1 REVERT JUMPDEST POP GAS CALL ISZERO DUP1 ISZERO PUSH2 0xC93 JUMPI RETURNDATASIZE PUSH1 0x0 DUP1 RETURNDATACOPY RETURNDATASIZE PUSH1 0x0 REVERT JUMPDEST POP POP POP POP PUSH1 0x40 MLOAD RETURNDATASIZE PUSH1 0x1F NOT PUSH1 0x1F DUP3 ADD AND DUP3 ADD DUP1 PUSH1 0x40 MSTORE POP DUP2 ADD SWAP1 PUSH2 0xCB7 SWAP2 SWAP1 PUSH2 0x4207 JUMP JUMPDEST SWAP8 SWAP7 POP POP POP POP POP POP POP JUMP JUMPDEST PUSH1 0x40 MLOAD PUSH4 0x4C22F489 PUSH1 0xE1 SHL DUP2 MSTORE PUSH1 0x1 PUSH1 0x1 PUSH1 0xA0 SHL SUB PUSH32 0x0 DUP2 AND PUSH1 0x4 DUP4 ADD MSTORE PUSH1 0x0 SWAP2 DUP3 SWAP2 PUSH32 0x0 AND SWAP1 PUSH4 0x9845E912 SWAP1 PUSH1 0x24 ADD PUSH1 0x20 PUSH1 0x40 MLOAD DUP1 DUP4 SUB DUP2 DUP7 DUP1 EXTCODESIZE ISZERO DUP1 ISZERO PUSH2 0xD48 JUMPI PUSH1 0x0 DUP1 REVERT JUMPDEST POP GAS STATICCALL ISZERO DUP1 ISZERO PUSH2 0xD5C JUMPI RETURNDATASIZE PUSH1 0x0 DUP1 RETURNDATACOPY RETURNDATASIZE PUSH1 0x0 REVERT JUMPDEST POP POP POP POP PUSH1 0x40 MLOAD RETURNDATASIZE PUSH1 0x1F NOT PUSH1 0x1F DUP3 ADD AND DUP3 ADD DUP1 PUSH1 0x40 MSTORE POP DUP2 ADD SWAP1 PUSH2 0xD80 SWAP2 SWAP1 PUSH2 0x3A89 JUMP JUMPDEST SWAP1 POP PUSH1 0x0 PUSH2 0xD91 PUSH1 0x20 DUP6 ADD DUP6 PUSH2 0x3EBF JUMP JUMPDEST PUSH2 0xD9B JUMPI DUP8 PUSH2 0xD9F JUMP JUMPDEST PUSH1 0x0 NOT JUMPDEST SWAP1 POP PUSH1 0x1 PUSH1 0x1 PUSH1 0xA0 SHL SUB DUP3 AND PUSH4 0xD505ACCF CALLER ADDRESS DUP5 DUP10 PUSH2 0xDC4 PUSH1 0x40 DUP12 ADD PUSH1 0x20 DUP13 ADD PUSH2 0x431E JUMP JUMPDEST DUP11 PUSH1 0x40 ADD CALLDATALOAD DUP12 PUSH1 0x60 ADD CALLDATALOAD PUSH1 0x40 MLOAD DUP9 PUSH4 0xFFFFFFFF AND PUSH1 0xE0 SHL DUP2 MSTORE PUSH1 0x4 ADD PUSH2 0xDF0 SWAP8 SWAP7 SWAP6 SWAP5 SWAP4 SWAP3 SWAP2 SWAP1 PUSH2 0x4395 JUMP JUMPDEST PUSH1 0x0 PUSH1 0x40 MLOAD DUP1 DUP4 SUB DUP2 PUSH1 0x0 DUP8 DUP1 EXTCODESIZE ISZERO DUP1 ISZERO PUSH2 0xE0A JUMPI PUSH1 0x0 DUP1 REVERT JUMPDEST POP GAS CALL ISZERO DUP1 ISZERO PUSH2 0xE1E JUMPI RETURNDATASIZE PUSH1 0x0 DUP1 RETURNDATACOPY RETURNDATASIZE PUSH1 0x0 REVERT JUMPDEST POP POP POP POP PUSH2 0xE31 DUP12 DUP12 DUP12 DUP12 DUP12 DUP12 DUP12 PUSH2 0x2502 JUMP JUMPDEST SWAP12 SWAP11 POP POP POP POP POP POP POP POP POP POP POP JUMP JUMPDEST PUSH1 0x0 DUP2 TIMESTAMP DUP2 LT ISZERO PUSH2 0xE63 JUMPI PUSH1 0x40 MLOAD PUSH3 0x461BCD PUSH1 0xE5 SHL DUP2 MSTORE PUSH1 0x4 ADD PUSH2 0x66C SWAP1 PUSH2 0x44EB JUMP JUMPDEST PUSH1 0x40 MLOAD PUSH4 0x4C22F489 PUSH1 0xE1 SHL DUP2 MSTORE PUSH1 0x1 PUSH1 0x1 PUSH1 0xA0 SHL SUB DUP9 DUP2 AND PUSH1 0x4 DUP4 ADD MSTORE PUSH1 0x0 SWAP2 PUSH32 0x0 SWAP1 SWAP2 AND SWAP1 PUSH4 0x9845E912 SWAP1 PUSH1 0x24 ADD PUSH1 0x20 PUSH1 0x40 MLOAD DUP1 DUP4 SUB DUP2 DUP7 DUP1 EXTCODESIZE ISZERO DUP1 ISZERO PUSH2 0xEC9 JUMPI PUSH1 0x0 DUP1 REVERT JUMPDEST POP GAS STATICCALL ISZERO DUP1 ISZERO PUSH2 0xEDD JUMPI RETURNDATASIZE PUSH1 0x0 DUP1 RETURNDATACOPY RETURNDATASIZE PUSH1 0x0 REVERT JUMPDEST POP POP POP POP PUSH1 0x40 MLOAD RETURNDATASIZE PUSH1 0x1F NOT PUSH1 0x1F DUP3 ADD AND DUP3 ADD DUP1 PUSH1 0x40 MSTORE POP DUP2 ADD SWAP1 PUSH2 0xF01 SWAP2 SWAP1 PUSH2 0x3A89 JUMP JUMPDEST PUSH1 0x40 MLOAD PUSH4 0x23B872DD PUSH1 0xE0 SHL DUP2 MSTORE SWAP1 SWAP2 POP PUSH1 0x1 PUSH1 0x1 PUSH1 0xA0 SHL SUB DUP3 AND SWAP1 PUSH4 0x23B872DD SWAP1 PUSH2 0xF34 SWAP1 CALLER SWAP1 DUP6 SWAP1 DUP13 SWAP1 PUSH1 0x4 ADD PUSH2 0x4371 JUMP JUMPDEST PUSH1 0x20 PUSH1 0x40 MLOAD DUP1 DUP4 SUB DUP2 PUSH1 0x0 DUP8 DUP1 EXTCODESIZE ISZERO DUP1 ISZERO PUSH2 0xF4E JUMPI PUSH1 0x0 DUP1 REVERT JUMPDEST POP GAS CALL ISZERO DUP1 ISZERO PUSH2 0xF62 JUMPI RETURNDATASIZE PUSH1 0x0 DUP1 RETURNDATACOPY RETURNDATASIZE PUSH1 0x0 REVERT JUMPDEST POP POP POP POP PUSH1 0x40 MLOAD RETURNDATASIZE PUSH1 0x1F NOT PUSH1 0x1F DUP3 ADD AND DUP3 ADD DUP1 PUSH1 0x40 MSTORE POP DUP2 ADD SWAP1 PUSH2 0xF86 SWAP2 SWAP1 PUSH2 0x3EDB JUMP JUMPDEST POP PUSH1 0x40 MLOAD PUSH4 0xC7343B9F PUSH1 0xE0 SHL DUP2 MSTORE PUSH1 0x1 PUSH1 0x1 PUSH1 0xA0 SHL SUB DUP7 DUP2 AND PUSH1 0x4 DUP4 ADD MSTORE DUP3 AND SWAP1 PUSH4 0xC7343B9F SWAP1 PUSH1 0x24 ADD PUSH1 0x20 PUSH1 0x40 MLOAD DUP1 DUP4 SUB DUP2 PUSH1 0x0 DUP8 DUP1 EXTCODESIZE ISZERO DUP1 ISZERO PUSH2 0xFCA JUMPI PUSH1 0x0 DUP1 REVERT JUMPDEST POP GAS CALL ISZERO DUP1 ISZERO PUSH2 0xFDE JUMPI RETURNDATASIZE PUSH1 0x0 DUP1 RETURNDATACOPY RETURNDATASIZE PUSH1 0x0 REVERT JUMPDEST POP POP POP POP PUSH1 0x40 MLOAD RETURNDATASIZE PUSH1 0x1F NOT PUSH1 0x1F DUP3 ADD AND DUP3 ADD DUP1 PUSH1 0x40 MSTORE POP DUP2 ADD SWAP1 PUSH2 0x1002 SWAP2 SWAP1 PUSH2 0x4207 JUMP JUMPDEST SWAP3 POP DUP6 DUP4 LT ISZERO PUSH2 0x1067 JUMPI PUSH1 0x40 MLOAD PUSH3 0x461BCD PUSH1 0xE5 SHL DUP2 MSTORE PUSH1 0x20 PUSH1 0x4 DUP3 ADD MSTORE PUSH1 0x2A PUSH1 0x24 DUP3 ADD MSTORE PUSH32 0x43626263526F757465723A20494E53554646494349454E545F534554544C454D PUSH1 0x44 DUP3 ADD MSTORE PUSH10 0x11539517D05353D55395 PUSH1 0xB2 SHL PUSH1 0x64 DUP3 ADD MSTORE PUSH1 0x84 ADD PUSH2 0x66C JUMP JUMPDEST POP POP SWAP6 SWAP5 POP POP POP POP POP JUMP JUMPDEST PUSH1 0x0 ORIGIN CALLER EQ PUSH2 0x1093 JUMPI PUSH1 0x40 MLOAD PUSH3 0x461BCD PUSH1 0xE5 SHL DUP2 MSTORE PUSH1 0x4 ADD PUSH2 0x66C SWAP1 PUSH2 0x449E JUMP JUMPDEST DUP2 TIMESTAMP DUP2 LT ISZERO PUSH2 0x10B4 JUMPI PUSH1 0x40 MLOAD PUSH3 0x461BCD PUSH1 0xE5 SHL DUP2 MSTORE PUSH1 0x4 ADD PUSH2 0x66C SWAP1 PUSH2 0x44EB JUMP JUMPDEST PUSH1 0x40 MLOAD PUSH4 0x3561D521 PUSH1 0xE1 SHL DUP2 MSTORE PUSH1 0x0 SWAP1 PUSH1 0x1 PUSH1 0x1 PUSH1 0xA0 SHL SUB PUSH32 0x0 AND SWAP1 PUSH4 0x6AC3AA42 SWAP1 PUSH2 0x1109 SWAP1 DUP14 SWAP1 DUP14 SWAP1 DUP14 SWAP1 DUP14 SWAP1 PUSH1 0x4 ADD PUSH2 0x43D6 JUMP JUMPDEST PUSH1 0x20 PUSH1 0x40 MLOAD DUP1 DUP4 SUB DUP2 DUP7 DUP1 EXTCODESIZE ISZERO DUP1 ISZERO PUSH2 0x1121 JUMPI PUSH1 0x0 DUP1 REVERT JUMPDEST POP GAS STATICCALL ISZERO DUP1 ISZERO PUSH2 0x1135 JUMPI RETURNDATASIZE PUSH1 0x0 DUP1 RETURNDATACOPY RETURNDATASIZE PUSH1 0x0 REVERT JUMPDEST POP POP POP POP PUSH1 0x40 MLOAD RETURNDATASIZE PUSH1 0x1F NOT PUSH1 0x1F DUP3 ADD AND DUP3 ADD DUP1 PUSH1 0x40 MSTORE POP DUP2 ADD SWAP1 PUSH2 0x1159 SWAP2 SWAP1 PUSH2 0x3A89 JUMP JUMPDEST SWAP1 POP PUSH1 0x1 PUSH1 0x1 PUSH1 0xA0 SHL SUB DUP2 AND PUSH2 0x1181 JUMPI PUSH1 0x40 MLOAD PUSH3 0x461BCD PUSH1 0xE5 SHL DUP2 MSTORE PUSH1 0x4 ADD PUSH2 0x66C SWAP1 PUSH2 0x4424 JUMP JUMPDEST PUSH1 0x40 MLOAD PUSH4 0x4C22F489 PUSH1 0xE1 SHL DUP2 MSTORE PUSH1 0x1 PUSH1 0x1 PUSH1 0xA0 SHL SUB DUP12 DUP2 AND PUSH1 0x4 DUP4 ADD MSTORE PUSH1 0x0 SWAP2 PUSH32 0x0 SWAP1 SWAP2 AND SWAP1 PUSH4 0x9845E912 SWAP1 PUSH1 0x24 ADD PUSH1 0x20 PUSH1 0x40 MLOAD DUP1 DUP4 SUB DUP2 DUP7 DUP1 EXTCODESIZE ISZERO DUP1 ISZERO PUSH2 0x11E7 JUMPI PUSH1 0x0 DUP1 REVERT JUMPDEST POP GAS STATICCALL ISZERO DUP1 ISZERO PUSH2 0x11FB JUMPI RETURNDATASIZE PUSH1 0x0 DUP1 RETURNDATACOPY RETURNDATASIZE PUSH1 0x0 REVERT JUMPDEST POP POP POP POP PUSH1 0x40 MLOAD RETURNDATASIZE PUSH1 0x1F NOT PUSH1 0x1F DUP3 ADD AND DUP3 ADD DUP1 PUSH1 0x40 MSTORE POP DUP2 ADD SWAP1 PUSH2 0x121F SWAP2 SWAP1 PUSH2 0x3A89 JUMP JUMPDEST SWAP1 POP PUSH2 0x122D DUP12 CALLER DUP4 DUP11 PUSH2 0x3321 JUMP JUMPDEST PUSH1 0x40 MLOAD PUSH4 0x4A02BD31 PUSH1 0xE0 SHL DUP2 MSTORE PUSH1 0x1 PUSH1 0x1 PUSH1 0xA0 SHL SUB DUP8 DUP2 AND PUSH1 0x4 DUP4 ADD MSTORE DUP4 AND SWAP1 PUSH4 0x4A02BD31 SWAP1 PUSH1 0x24 ADD PUSH1 0x20 PUSH1 0x40 MLOAD DUP1 DUP4 SUB DUP2 PUSH1 0x0 DUP8 DUP1 EXTCODESIZE ISZERO DUP1 ISZERO PUSH2 0x1270 JUMPI PUSH1 0x0 DUP1 REVERT JUMPDEST POP GAS CALL ISZERO DUP1 ISZERO PUSH2 0x1284 JUMPI RETURNDATASIZE PUSH1 0x0 DUP1 RETURNDATACOPY RETURNDATASIZE PUSH1 0x0 REVERT JUMPDEST POP POP POP POP PUSH1 0x40 MLOAD RETURNDATASIZE PUSH1 0x1F NOT PUSH1 0x1F DUP3 ADD AND DUP3 ADD DUP1 PUSH1 0x40 MSTORE POP DUP2 ADD SWAP1 PUSH2 0xE31 SWAP2 SWAP1 PUSH2 0x4207 JUMP JUMPDEST PUSH1 0x40 MLOAD PUSH4 0x4C22F489 PUSH1 0xE1 SHL DUP2 MSTORE PUSH1 0x1 PUSH1 0x1 PUSH1 0xA0 SHL SUB PUSH32 0x0 DUP2 AND PUSH1 0x4 DUP4 ADD MSTORE PUSH1 0x0 SWAP2 DUP3 SWAP2 PUSH32 0x0 AND SWAP1 PUSH4 0x9845E912 SWAP1 PUSH1 0x24 ADD PUSH1 0x20 PUSH1 0x40 MLOAD DUP1 DUP4 SUB DUP2 DUP7 DUP1 EXTCODESIZE ISZERO DUP1 ISZERO PUSH2 0x132E JUMPI PUSH1 0x0 DUP1 REVERT JUMPDEST POP GAS STATICCALL ISZERO DUP1 ISZERO PUSH2 0x1342 JUMPI RETURNDATASIZE PUSH1 0x0 DUP1 RETURNDATACOPY RETURNDATASIZE PUSH1 0x0 REVERT JUMPDEST POP POP POP POP PUSH1 0x40 MLOAD RETURNDATASIZE PUSH1 0x1F NOT PUSH1 0x1F DUP3 ADD AND DUP3 ADD DUP1 PUSH1 0x40 MSTORE POP DUP2 ADD SWAP1 PUSH2 0x1366 SWAP2 SWAP1 PUSH2 0x3A89 JUMP JUMPDEST SWAP1 POP PUSH1 0x0 DUP7 PUSH2 0x1375 JUMPI DUP11 PUSH2 0x1379 JUMP JUMPDEST PUSH1 0x0 NOT JUMPDEST PUSH1 0x40 MLOAD PUSH4 0xD505ACCF PUSH1 0xE0 SHL DUP2 MSTORE SWAP1 SWAP2 POP PUSH1 0x1 PUSH1 0x1 PUSH1 0xA0 SHL SUB DUP4 AND SWAP1 PUSH4 0xD505ACCF SWAP1 PUSH2 0x13B4 SWAP1 CALLER SWAP1 ADDRESS SWAP1 DUP7 SWAP1 DUP15 SWAP1 DUP14 SWAP1 DUP14 SWAP1 DUP14 SWAP1 PUSH1 0x4 ADD PUSH2 0x4395 JUMP JUMPDEST PUSH1 0x0 PUSH1 0x40 MLOAD DUP1 DUP4 SUB DUP2 PUSH1 0x0 DUP8 DUP1 EXTCODESIZE ISZERO DUP1 ISZERO PUSH2 0x13CE JUMPI PUSH1 0x0 DUP1 REVERT JUMPDEST POP GAS CALL ISZERO DUP1 ISZERO PUSH2 0x13E2 JUMPI RETURNDATASIZE PUSH1 0x0 DUP1 RETURNDATACOPY RETURNDATASIZE PUSH1 0x0 REVERT JUMPDEST POP POP POP POP PUSH2 0xE31 DUP12 DUP12 DUP12 DUP12 PUSH2 0x1AA3 JUMP JUMPDEST PUSH1 0x0 DUP2 TIMESTAMP DUP2 LT ISZERO PUSH2 0x1415 JUMPI PUSH1 0x40 MLOAD PUSH3 0x461BCD PUSH1 0xE5 SHL DUP2 MSTORE PUSH1 0x4 ADD PUSH2 0x66C SWAP1 PUSH2 0x44EB JUMP JUMPDEST PUSH2 0x1446 DUP11 PUSH32 0x0 DUP12 DUP12 DUP12 DUP12 DUP12 ADDRESS DUP12 PUSH2 0x200D JUMP JUMPDEST PUSH1 0x40 MLOAD PUSH4 0x2E1A7D4D PUSH1 0xE0 SHL DUP2 MSTORE PUSH1 0x4 DUP2 ADD DUP3 SWAP1 MSTORE SWAP1 SWAP3 POP PUSH32 0x0 PUSH1 0x1 PUSH1 0x1 PUSH1 0xA0 SHL SUB AND SWAP1 PUSH4 0x2E1A7D4D SWAP1 PUSH1 0x24 ADD PUSH1 0x0 PUSH1 0x40 MLOAD DUP1 DUP4 SUB DUP2 PUSH1 0x0 DUP8 DUP1 EXTCODESIZE ISZERO DUP1 ISZERO PUSH2 0x14AB JUMPI PUSH1 0x0 DUP1 REVERT JUMPDEST POP GAS CALL ISZERO DUP1 ISZERO PUSH2 0x14BF JUMPI RETURNDATASIZE PUSH1 0x0 DUP1 RETURNDATACOPY RETURNDATASIZE PUSH1 0x0 REVERT JUMPDEST POP POP POP POP PUSH2 0x14CD DUP5 DUP4 PUSH2 0x345B JUMP JUMPDEST POP SWAP9 SWAP8 POP POP POP POP POP POP POP POP JUMP JUMPDEST PUSH1 0x0 DUP2 TIMESTAMP DUP2 LT ISZERO PUSH2 0x14FD JUMPI PUSH1 0x40 MLOAD PUSH3 0x461BCD PUSH1 0xE5 SHL DUP2 MSTORE PUSH1 0x4 ADD PUSH2 0x66C SWAP1 PUSH2 0x44EB JUMP JUMPDEST PUSH1 0x40 MLOAD PUSH4 0x3561D521 PUSH1 0xE1 SHL DUP2 MSTORE PUSH1 0x0 SWAP1 PUSH32 0x0 PUSH1 0x1 PUSH1 0x1 PUSH1 0xA0 SHL SUB AND SWAP1 PUSH4 0x6AC3AA42 SWAP1 PUSH2 0x1552 SWAP1 DUP14 SWAP1 DUP14 SWAP1 DUP14 SWAP1 DUP14 SWAP1 PUSH1 0x4 ADD PUSH2 0x43D6 JUMP JUMPDEST PUSH1 0x20 PUSH1 0x40 MLOAD DUP1 DUP4 SUB DUP2 DUP7 DUP1 EXTCODESIZE ISZERO DUP1 ISZERO PUSH2 0x156A JUMPI PUSH1 0x0 DUP1 REVERT JUMPDEST POP GAS STATICCALL ISZERO DUP1 ISZERO PUSH2 0x157E JUMPI RETURNDATASIZE PUSH1 0x0 DUP1 RETURNDATACOPY RETURNDATASIZE PUSH1 0x0 REVERT JUMPDEST POP POP POP POP PUSH1 0x40 MLOAD RETURNDATASIZE PUSH1 0x1F NOT PUSH1 0x1F DUP3 ADD AND DUP3 ADD DUP1 PUSH1 0x40 MSTORE POP DUP2 ADD SWAP1 PUSH2 0x15A2 SWAP2 SWAP1 PUSH2 0x3A89 JUMP JUMPDEST PUSH1 0x1 PUSH1 0x1 PUSH1 0xA0 SHL SUB AND EQ ISZERO PUSH2 0x15C9 JUMPI PUSH1 0x40 MLOAD PUSH3 0x461BCD PUSH1 0xE5 SHL DUP2 MSTORE PUSH1 0x4 ADD PUSH2 0x66C SWAP1 PUSH2 0x4424 JUMP JUMPDEST PUSH1 0x40 MLOAD PUSH4 0x4C22F489 PUSH1 0xE1 SHL DUP2 MSTORE PUSH1 0x1 PUSH1 0x1 PUSH1 0xA0 SHL SUB DUP11 DUP2 AND PUSH1 0x4 DUP4 ADD MSTORE PUSH1 0x0 SWAP2 PUSH32 0x0 SWAP1 SWAP2 AND SWAP1 PUSH4 0x9845E912 SWAP1 PUSH1 0x24 ADD PUSH1 0x20 PUSH1 0x40 MLOAD DUP1 DUP4 SUB DUP2 DUP7 DUP1 EXTCODESIZE ISZERO DUP1 ISZERO PUSH2 0x162F JUMPI PUSH1 0x0 DUP1 REVERT JUMPDEST POP GAS STATICCALL ISZERO DUP1 ISZERO PUSH2 0x1643 JUMPI RETURNDATASIZE PUSH1 0x0 DUP1 RETURNDATACOPY RETURNDATASIZE PUSH1 0x0 REVERT JUMPDEST POP POP POP POP PUSH1 0x40 MLOAD RETURNDATASIZE PUSH1 0x1F NOT PUSH1 0x1F DUP3 ADD AND DUP3 ADD DUP1 PUSH1 0x40 MSTORE POP DUP2 ADD SWAP1 PUSH2 0x1667 SWAP2 SWAP1 PUSH2 0x3A89 JUMP JUMPDEST SWAP1 POP PUSH1 0x0 PUSH32 0x0 PUSH1 0x1 PUSH1 0x1 PUSH1 0xA0 SHL SUB AND PUSH4 0x6AC3AA42 DUP13 DUP13 DUP13 DUP13 PUSH1 0x40 MLOAD DUP6 PUSH4 0xFFFFFFFF AND PUSH1 0xE0 SHL DUP2 MSTORE PUSH1 0x4 ADD PUSH2 0x16BD SWAP5 SWAP4 SWAP3 SWAP2 SWAP1 PUSH2 0x43D6 JUMP JUMPDEST PUSH1 0x20 PUSH1 0x40 MLOAD DUP1 DUP4 SUB DUP2 DUP7 DUP1 EXTCODESIZE ISZERO DUP1 ISZERO PUSH2 0x16D5 JUMPI PUSH1 0x0 DUP1 REVERT JUMPDEST POP GAS STATICCALL ISZERO DUP1 ISZERO PUSH2 0x16E9 JUMPI RETURNDATASIZE PUSH1 0x0 DUP1 RETURNDATACOPY RETURNDATASIZE PUSH1 0x0 REVERT JUMPDEST POP POP POP POP PUSH1 0x40 MLOAD RETURNDATASIZE PUSH1 0x1F NOT PUSH1 0x1F DUP3 ADD AND DUP3 ADD DUP1 PUSH1 0x40 MSTORE POP DUP2 ADD SWAP1 PUSH2 0x170D SWAP2 SWAP1 PUSH2 0x3A89 JUMP JUMPDEST SWAP1 POP PUSH2 0x171A DUP12 DUP12 DUP15 PUSH2 0x353A JUMP JUMPDEST PUSH2 0x1736 JUMPI PUSH1 0x40 MLOAD PUSH3 0x461BCD PUSH1 0xE5 SHL DUP2 MSTORE PUSH1 0x4 ADD PUSH2 0x66C SWAP1 PUSH2 0x451A JUMP JUMPDEST PUSH2 0x1742 DUP12 CALLER DUP5 DUP11 PUSH2 0x3321 JUMP JUMPDEST PUSH1 0x40 MLOAD PUSH4 0x4A02BD31 PUSH1 0xE0 SHL DUP2 MSTORE PUSH1 0x1 PUSH1 0x1 PUSH1 0xA0 SHL SUB DUP8 DUP2 AND PUSH1 0x4 DUP4 ADD MSTORE DUP3 AND SWAP1 PUSH4 0x4A02BD31 SWAP1 PUSH1 0x24 ADD PUSH1 0x20 PUSH1 0x40 MLOAD DUP1 DUP4 SUB DUP2 PUSH1 0x0 DUP8 DUP1 EXTCODESIZE ISZERO DUP1 ISZERO PUSH2 0x1785 JUMPI PUSH1 0x0 DUP1 REVERT JUMPDEST POP GAS CALL ISZERO DUP1 ISZERO PUSH2 0x1799 JUMPI RETURNDATASIZE PUSH1 0x0 DUP1 RETURNDATACOPY RETURNDATASIZE PUSH1 0x0 REVERT JUMPDEST POP POP POP POP PUSH1 0x40 MLOAD RETURNDATASIZE PUSH1 0x1F NOT PUSH1 0x1F DUP3 ADD AND DUP3 ADD DUP1 PUSH1 0x40 MSTORE POP DUP2 ADD SWAP1 PUSH2 0x17BD SWAP2 SWAP1 PUSH2 0x4207 JUMP JUMPDEST SWAP4 POP PUSH1 0x0 DUP2 PUSH1 0x1 PUSH1 0x1 PUSH1 0xA0 SHL SUB AND PUSH4 0xDDD6F962 PUSH1 0x40 MLOAD DUP2 PUSH4 0xFFFFFFFF AND PUSH1 0xE0 SHL DUP2 MSTORE PUSH1 0x4 ADD PUSH1 0x20 PUSH1 0x40 MLOAD DUP1 DUP4 SUB DUP2 DUP7 DUP1 EXTCODESIZE ISZERO DUP1 ISZERO PUSH2 0x17FA JUMPI PUSH1 0x0 DUP1 REVERT JUMPDEST POP GAS STATICCALL ISZERO DUP1 ISZERO PUSH2 0x180E JUMPI RETURNDATASIZE PUSH1 0x0 DUP1 RETURNDATACOPY RETURNDATASIZE PUSH1 0x0 REVERT JUMPDEST POP POP POP POP PUSH1 0x40 MLOAD RETURNDATASIZE PUSH1 0x1F NOT PUSH1 0x1F DUP3 ADD AND DUP3 ADD DUP1 PUSH1 0x40 MSTORE POP DUP2 ADD SWAP1 PUSH2 0x1832 SWAP2 SWAP1 PUSH2 0x4207 JUMP JUMPDEST SWAP1 POP PUSH1 0x0 DUP3 PUSH1 0x1 PUSH1 0x1 PUSH1 0xA0 SHL SUB AND PUSH4 0xBBB1863A PUSH1 0x40 MLOAD DUP2 PUSH4 0xFFFFFFFF AND PUSH1 0xE0 SHL DUP2 MSTORE PUSH1 0x4 ADD PUSH1 0x20 PUSH1 0x40 MLOAD DUP1 DUP4 SUB DUP2 DUP7 DUP1 EXTCODESIZE ISZERO DUP1 ISZERO PUSH2 0x186F JUMPI PUSH1 0x0 DUP1 REVERT JUMPDEST POP GAS STATICCALL ISZERO DUP1 ISZERO PUSH2 0x1883 JUMPI RETURNDATASIZE PUSH1 0x0 DUP1 RETURNDATACOPY RETURNDATASIZE PUSH1 0x0 REVERT JUMPDEST POP POP POP POP PUSH1 0x40 MLOAD RETURNDATASIZE PUSH1 0x1F NOT PUSH1 0x1F DUP3 ADD AND DUP3 ADD DUP1 PUSH1 0x40 MSTORE POP DUP2 ADD SWAP1 PUSH2 0x18A7 SWAP2 SWAP1 PUSH2 0x3A89 JUMP JUMPDEST PUSH1 0x1 PUSH1 0x1 PUSH1 0xA0 SHL SUB AND PUSH4 0x60961528 PUSH1 0x40 MLOAD DUP2 PUSH4 0xFFFFFFFF AND PUSH1 0xE0 SHL DUP2 MSTORE PUSH1 0x4 ADD PUSH1 0x20 PUSH1 0x40 MLOAD DUP1 DUP4 SUB DUP2 DUP7 DUP1 EXTCODESIZE ISZERO DUP1 ISZERO PUSH2 0x18DF JUMPI PUSH1 0x0 DUP1 REVERT JUMPDEST POP GAS STATICCALL ISZERO DUP1 ISZERO PUSH2 0x18F3 JUMPI RETURNDATASIZE PUSH1 0x0 DUP1 RETURNDATACOPY RETURNDATASIZE PUSH1 0x0 REVERT JUMPDEST POP POP POP POP PUSH1 0x40 MLOAD RETURNDATASIZE PUSH1 0x1F NOT PUSH1 0x1F DUP3 ADD AND DUP3 ADD DUP1 PUSH1 0x40 MSTORE POP DUP2 ADD SWAP1 PUSH2 0x1917 SWAP2 SWAP1 PUSH2 0x3A89 JUMP JUMPDEST PUSH1 0x40 MLOAD PUSH4 0x41976E09 PUSH1 0xE0 SHL DUP2 MSTORE PUSH1 0x1 PUSH1 0x1 PUSH1 0xA0 SHL SUB DUP15 DUP2 AND PUSH1 0x4 DUP4 ADD MSTORE SWAP2 SWAP1 SWAP2 AND SWAP1 PUSH4 0x41976E09 SWAP1 PUSH1 0x24 ADD PUSH1 0x40 DUP1 MLOAD DUP1 DUP4 SUB DUP2 DUP7 DUP1 EXTCODESIZE ISZERO DUP1 ISZERO PUSH2 0x1959 JUMPI PUSH1 0x0 DUP1 REVERT JUMPDEST POP GAS STATICCALL ISZERO DUP1 ISZERO PUSH2 0x196D JUMPI RETURNDATASIZE PUSH1 0x0 DUP1 RETURNDATACOPY RETURNDATASIZE PUSH1 0x0 REVERT JUMPDEST POP POP POP POP PUSH1 0x40 MLOAD RETURNDATASIZE PUSH1 0x1F NOT PUSH1 0x1F DUP3 ADD AND DUP3 ADD DUP1 PUSH1 0x40 MSTORE POP DUP2 ADD SWAP1 PUSH2 0x1991 SWAP2 SWAP1 PUSH2 0x4256 JUMP JUMPDEST POP SWAP1 POP DUP1 PUSH8 0xDE0B6B3A7640000 DUP13 PUSH1 0xFF AND PUSH1 0x0 SLOAD DUP6 PUSH2 0x19B0 SWAP2 SWAP1 PUSH2 0x4608 JUMP JUMPDEST PUSH2 0x19BA SWAP2 SWAP1 PUSH2 0x45E8 JUMP JUMPDEST PUSH2 0x19C4 SWAP2 SWAP1 PUSH2 0x45E8 JUMP JUMPDEST PUSH2 0x19CE SWAP1 DUP5 PUSH2 0x45AB JUMP JUMPDEST LT DUP1 PUSH2 0x1A11 JUMPI POP DUP1 PUSH8 0xDE0B6B3A7640000 DUP13 PUSH1 0xFF AND PUSH1 0x0 SLOAD DUP6 PUSH2 0x19F1 SWAP2 SWAP1 PUSH2 0x4608 JUMP JUMPDEST PUSH2 0x19FB SWAP2 SWAP1 PUSH2 0x45E8 JUMP JUMPDEST PUSH2 0x1A05 SWAP2 SWAP1 PUSH2 0x45E8 JUMP JUMPDEST PUSH2 0x1A0F SWAP1 DUP5 PUSH2 0x4627 JUMP JUMPDEST GT JUMPDEST ISZERO PUSH2 0x1A92 JUMPI PUSH1 0x40 MLOAD PUSH4 0x3437C4DD PUSH1 0xE2 SHL DUP2 MSTORE PUSH1 0x1 PUSH1 0x1 PUSH1 0xA0 SHL SUB DUP5 DUP2 AND PUSH1 0x4 DUP4 ADD MSTORE PUSH32 0x0 AND SWAP1 PUSH4 0xD0DF1374 SWAP1 PUSH1 0x24 ADD PUSH1 0x0 PUSH1 0x40 MLOAD DUP1 DUP4 SUB DUP2 PUSH1 0x0 DUP8 DUP1 EXTCODESIZE ISZERO DUP1 ISZERO PUSH2 0x1A79 JUMPI PUSH1 0x0 DUP1 REVERT JUMPDEST POP GAS CALL ISZERO DUP1 ISZERO PUSH2 0x1A8D JUMPI RETURNDATASIZE PUSH1 0x0 DUP1 RETURNDATACOPY RETURNDATASIZE PUSH1 0x0 REVERT JUMPDEST POP POP POP POP JUMPDEST POP POP POP POP POP SWAP9 SWAP8 POP POP POP POP POP POP POP POP JUMP JUMPDEST PUSH1 0x0 DUP2 TIMESTAMP DUP2 LT ISZERO PUSH2 0x1AC6 JUMPI PUSH1 0x40 MLOAD PUSH3 0x461BCD PUSH1 0xE5 SHL DUP2 MSTORE PUSH1 0x4 ADD PUSH2 0x66C SWAP1 PUSH2 0x44EB JUMP JUMPDEST PUSH2 0x1AF3 PUSH32 0x0 DUP8 DUP8 ADDRESS DUP8 PUSH2 0xE40 JUMP JUMPDEST PUSH1 0x40 MLOAD PUSH4 0x2E1A7D4D PUSH1 0xE0 SHL DUP2 MSTORE PUSH1 0x4 DUP2 ADD DUP3 SWAP1 MSTORE SWAP1 SWAP3 POP PUSH32 0x0 PUSH1 0x1 PUSH1 0x1 PUSH1 0xA0 SHL SUB AND SWAP1 PUSH4 0x2E1A7D4D SWAP1 PUSH1 0x24 ADD PUSH1 0x0 PUSH1 0x40 MLOAD DUP1 DUP4 SUB DUP2 PUSH1 0x0 DUP8 DUP1 EXTCODESIZE ISZERO DUP1 ISZERO PUSH2 0x1B58 JUMPI PUSH1 0x0 DUP1 REVERT JUMPDEST POP GAS CALL ISZERO DUP1 ISZERO PUSH2 0x1B6C JUMPI RETURNDATASIZE PUSH1 0x0 DUP1 RETURNDATACOPY RETURNDATASIZE PUSH1 0x0 REVERT JUMPDEST POP POP POP POP PUSH2 0x1B7A DUP5 DUP4 PUSH2 0x345B JUMP JUMPDEST POP SWAP5 SWAP4 POP POP POP POP JUMP JUMPDEST PUSH1 0x0 ORIGIN CALLER EQ PUSH2 0x1BA4 JUMPI PUSH1 0x40 MLOAD PUSH3 0x461BCD PUSH1 0xE5 SHL DUP2 MSTORE PUSH1 0x4 ADD PUSH2 0x66C SWAP1 PUSH2 0x449E JUMP JUMPDEST DUP2 TIMESTAMP DUP2 LT ISZERO PUSH2 0x1BC5 JUMPI PUSH1 0x40 MLOAD PUSH3 0x461BCD PUSH1 0xE5 SHL DUP2 MSTORE PUSH1 0x4 ADD PUSH2 0x66C SWAP1 PUSH2 0x44EB JUMP JUMPDEST PUSH1 0x40 MLOAD PUSH4 0x3561D521 PUSH1 0xE1 SHL DUP2 MSTORE PUSH1 0x0 SWAP1 PUSH32 0x0 PUSH1 0x1 PUSH1 0x1 PUSH1 0xA0 SHL SUB AND SWAP1 PUSH4 0x6AC3AA42 SWAP1 PUSH2 0x1C3A SWAP1 PUSH32 0x0 SWAP1 DUP14 SWAP1 DUP14 SWAP1 DUP14 SWAP1 PUSH1 0x4 ADD PUSH2 0x43D6 JUMP JUMPDEST PUSH1 0x20 PUSH1 0x40 MLOAD DUP1 DUP4 SUB DUP2 DUP7 DUP1 EXTCODESIZE ISZERO DUP1 ISZERO PUSH2 0x1C52 JUMPI PUSH1 0x0 DUP1 REVERT JUMPDEST POP GAS STATICCALL ISZERO DUP1 ISZERO PUSH2 0x1C66 JUMPI RETURNDATASIZE PUSH1 0x0 DUP1 RETURNDATACOPY RETURNDATASIZE PUSH1 0x0 REVERT JUMPDEST POP POP POP POP PUSH1 0x40 MLOAD RETURNDATASIZE PUSH1 0x1F NOT PUSH1 0x1F DUP3 ADD AND DUP3 ADD DUP1 PUSH1 0x40 MSTORE POP DUP2 ADD SWAP1 PUSH2 0x1C8A SWAP2 SWAP1 PUSH2 0x3A89 JUMP JUMPDEST PUSH1 0x1 PUSH1 0x1 PUSH1 0xA0 SHL SUB AND EQ ISZERO PUSH2 0x1CB1 JUMPI PUSH1 0x40 MLOAD PUSH3 0x461BCD PUSH1 0xE5 SHL DUP2 MSTORE PUSH1 0x4 ADD PUSH2 0x66C SWAP1 PUSH2 0x4424 JUMP JUMPDEST PUSH1 0x40 MLOAD PUSH4 0x4C22F489 PUSH1 0xE1 SHL DUP2 MSTORE PUSH1 0x1 PUSH1 0x1 PUSH1 0xA0 SHL SUB PUSH32 0x0 DUP2 AND PUSH1 0x4 DUP4 ADD MSTORE PUSH1 0x0 SWAP2 PUSH32 0x0 SWAP1 SWAP2 AND SWAP1 PUSH4 0x9845E912 SWAP1 PUSH1 0x24 ADD PUSH1 0x20 PUSH1 0x40 MLOAD DUP1 DUP4 SUB DUP2 DUP7 DUP1 EXTCODESIZE ISZERO DUP1 ISZERO PUSH2 0x1D37 JUMPI PUSH1 0x0 DUP1 REVERT JUMPDEST POP GAS STATICCALL ISZERO DUP1 ISZERO PUSH2 0x1D4B JUMPI RETURNDATASIZE PUSH1 0x0 DUP1 RETURNDATACOPY RETURNDATASIZE PUSH1 0x0 REVERT JUMPDEST POP POP POP POP PUSH1 0x40 MLOAD RETURNDATASIZE PUSH1 0x1F NOT PUSH1 0x1F DUP3 ADD AND DUP3 ADD DUP1 PUSH1 0x40 MSTORE POP DUP2 ADD SWAP1 PUSH2 0x1D6F SWAP2 SWAP1 PUSH2 0x3A89 JUMP JUMPDEST SWAP1 POP PUSH1 0x0 PUSH32 0x0 PUSH1 0x1 PUSH1 0x1 PUSH1 0xA0 SHL SUB AND PUSH4 0x6AC3AA42 PUSH32 0x0 DUP13 DUP13 DUP13 PUSH1 0x40 MLOAD DUP6 PUSH4 0xFFFFFFFF AND PUSH1 0xE0 SHL DUP2 MSTORE PUSH1 0x4 ADD PUSH2 0x1DE5 SWAP5 SWAP4 SWAP3 SWAP2 SWAP1 PUSH2 0x43D6 JUMP JUMPDEST PUSH1 0x20 PUSH1 0x40 MLOAD DUP1 DUP4 SUB DUP2 DUP7 DUP1 EXTCODESIZE ISZERO DUP1 ISZERO PUSH2 0x1DFD JUMPI PUSH1 0x0 DUP1 REVERT JUMPDEST POP GAS STATICCALL ISZERO DUP1 ISZERO PUSH2 0x1E11 JUMPI RETURNDATASIZE PUSH1 0x0 DUP1 RETURNDATACOPY RETURNDATASIZE PUSH1 0x0 REVERT JUMPDEST POP POP POP POP PUSH1 0x40 MLOAD RETURNDATASIZE PUSH1 0x1F NOT PUSH1 0x1F DUP3 ADD AND DUP3 ADD DUP1 PUSH1 0x40 MSTORE POP DUP2 ADD SWAP1 PUSH2 0x1E35 SWAP2 SWAP1 PUSH2 0x3A89 JUMP JUMPDEST SWAP1 POP PUSH32 0x0 PUSH1 0x1 PUSH1 0x1 PUSH1 0xA0 SHL SUB AND PUSH4 0xD0E30DB0 DUP9 PUSH1 0x40 MLOAD DUP3 PUSH4 0xFFFFFFFF AND PUSH1 0xE0 SHL DUP2 MSTORE PUSH1 0x4 ADD PUSH1 0x0 PUSH1 0x40 MLOAD DUP1 DUP4 SUB DUP2 DUP6 DUP9 DUP1 EXTCODESIZE ISZERO DUP1 ISZERO PUSH2 0x1E92 JUMPI PUSH1 0x0 DUP1 REVERT JUMPDEST POP GAS CALL ISZERO DUP1 ISZERO PUSH2 0x1EA6 JUMPI RETURNDATASIZE PUSH1 0x0 DUP1 RETURNDATACOPY RETURNDATASIZE PUSH1 0x0 REVERT JUMPDEST POP POP PUSH1 0x40 MLOAD PUSH4 0xA9059CBB PUSH1 0xE0 SHL DUP2 MSTORE PUSH1 0x1 PUSH1 0x1 PUSH1 0xA0 SHL SUB DUP7 DUP2 AND PUSH1 0x4 DUP4 ADD MSTORE PUSH1 0x24 DUP3 ADD DUP13 SWAP1 MSTORE PUSH32 0x0 AND SWAP4 POP PUSH4 0xA9059CBB SWAP3 POP PUSH1 0x44 ADD SWAP1 POP PUSH1 0x20 PUSH1 0x40 MLOAD DUP1 DUP4 SUB DUP2 PUSH1 0x0 DUP8 DUP1 EXTCODESIZE ISZERO DUP1 ISZERO PUSH2 0x1F16 JUMPI PUSH1 0x0 DUP1 REVERT JUMPDEST POP GAS CALL ISZERO DUP1 ISZERO PUSH2 0x1F2A JUMPI RETURNDATASIZE PUSH1 0x0 DUP1 RETURNDATACOPY RETURNDATASIZE PUSH1 0x0 REVERT JUMPDEST POP POP POP POP PUSH1 0x40 MLOAD RETURNDATASIZE PUSH1 0x1F NOT PUSH1 0x1F DUP3 ADD AND DUP3 ADD DUP1 PUSH1 0x40 MSTORE POP DUP2 ADD SWAP1 PUSH2 0x1F4E SWAP2 SWAP1 PUSH2 0x3EDB JUMP JUMPDEST PUSH2 0x1F68 JUMPI PUSH4 0x4E487B71 PUSH1 0xE0 SHL PUSH1 0x0 MSTORE PUSH1 0x1 PUSH1 0x4 MSTORE PUSH1 0x24 PUSH1 0x0 REVERT JUMPDEST PUSH1 0x40 MLOAD PUSH4 0x4A02BD31 PUSH1 0xE0 SHL DUP2 MSTORE PUSH1 0x1 PUSH1 0x1 PUSH1 0xA0 SHL SUB DUP8 DUP2 AND PUSH1 0x4 DUP4 ADD MSTORE DUP3 AND SWAP1 PUSH4 0x4A02BD31 SWAP1 PUSH1 0x24 ADD PUSH1 0x20 PUSH1 0x40 MLOAD DUP1 DUP4 SUB DUP2 PUSH1 0x0 DUP8 DUP1 EXTCODESIZE ISZERO DUP1 ISZERO PUSH2 0x1FAB JUMPI PUSH1 0x0 DUP1 REVERT JUMPDEST POP GAS CALL ISZERO DUP1 ISZERO PUSH2 0x1FBF JUMPI RETURNDATASIZE PUSH1 0x0 DUP1 RETURNDATACOPY RETURNDATASIZE PUSH1 0x0 REVERT JUMPDEST POP POP POP POP PUSH1 0x40 MLOAD RETURNDATASIZE PUSH1 0x1F NOT PUSH1 0x1F DUP3 ADD AND DUP3 ADD DUP1 PUSH1 0x40 MSTORE POP DUP2 ADD SWAP1 PUSH2 0x1FE3 SWAP2 SWAP1 PUSH2 0x4207 JUMP JUMPDEST SWAP4 POP DUP7 CALLVALUE GT ISZERO PUSH2 0x2000 JUMPI PUSH2 0x2000 CALLER PUSH2 0x1FFB DUP10 CALLVALUE PUSH2 0x4627 JUMP JUMPDEST PUSH2 0x345B JUMP JUMPDEST POP POP POP SWAP7 SWAP6 POP POP POP POP POP POP JUMP JUMPDEST PUSH1 0x0 DUP2 TIMESTAMP DUP2 LT ISZERO PUSH2 0x2030 JUMPI PUSH1 0x40 MLOAD PUSH3 0x461BCD PUSH1 0xE5 SHL DUP2 MSTORE PUSH1 0x4 ADD PUSH2 0x66C SWAP1 PUSH2 0x44EB JUMP JUMPDEST PUSH1 0x40 MLOAD PUSH4 0x3561D521 PUSH1 0xE1 SHL DUP2 MSTORE PUSH1 0x0 SWAP1 PUSH1 0x1 PUSH1 0x1 PUSH1 0xA0 SHL SUB PUSH32 0x0 AND SWAP1 PUSH4 0x6AC3AA42 SWAP1 PUSH2 0x2085 SWAP1 DUP15 SWAP1 DUP15 SWAP1 DUP15 SWAP1 DUP15 SWAP1 PUSH1 0x4 ADD PUSH2 0x43D6 JUMP JUMPDEST PUSH1 0x20 PUSH1 0x40 MLOAD DUP1 DUP4 SUB DUP2 DUP7 DUP1 EXTCODESIZE ISZERO DUP1 ISZERO PUSH2 0x209D JUMPI PUSH1 0x0 DUP1 REVERT JUMPDEST POP GAS STATICCALL ISZERO DUP1 ISZERO PUSH2 0x20B1 JUMPI RETURNDATASIZE PUSH1 0x0 DUP1 RETURNDATACOPY RETURNDATASIZE PUSH1 0x0 REVERT JUMPDEST POP POP POP POP PUSH1 0x40 MLOAD RETURNDATASIZE PUSH1 0x1F NOT PUSH1 0x1F DUP3 ADD AND DUP3 ADD DUP1 PUSH1 0x40 MSTORE POP DUP2 ADD SWAP1 PUSH2 0x20D5 SWAP2 SWAP1 PUSH2 0x3A89 JUMP JUMPDEST SWAP1 POP PUSH2 0x20E2 DUP12 DUP12 DUP15 PUSH2 0x353A JUMP JUMPDEST PUSH2 0x20FE JUMPI PUSH1 0x40 MLOAD PUSH3 0x461BCD PUSH1 0xE5 SHL DUP2 MSTORE PUSH1 0x4 ADD PUSH2 0x66C SWAP1 PUSH2 0x451A JUMP JUMPDEST PUSH1 0x40 MLOAD PUSH4 0x23B872DD PUSH1 0xE0 SHL DUP2 MSTORE PUSH1 0x1 PUSH1 0x1 PUSH1 0xA0 SHL SUB DUP3 AND SWAP1 PUSH4 0x23B872DD SWAP1 PUSH2 0x212E SWAP1 CALLER SWAP1 DUP6 SWAP1 DUP13 SWAP1 PUSH1 0x4 ADD PUSH2 0x4371 JUMP JUMPDEST PUSH1 0x20 PUSH1 0x40 MLOAD DUP1 DUP4 SUB DUP2 PUSH1 0x0 DUP8 DUP1 EXTCODESIZE ISZERO DUP1 ISZERO PUSH2 0x2148 JUMPI PUSH1 0x0 DUP1 REVERT JUMPDEST POP GAS CALL ISZERO DUP1 ISZERO PUSH2 0x215C JUMPI RETURNDATASIZE PUSH1 0x0 DUP1 RETURNDATACOPY RETURNDATASIZE PUSH1 0x0 REVERT JUMPDEST POP POP POP POP PUSH1 0x40 MLOAD RETURNDATASIZE PUSH1 0x1F NOT PUSH1 0x1F DUP3 ADD AND DUP3 ADD DUP1 PUSH1 0x40 MSTORE POP DUP2 ADD SWAP1 PUSH2 0x2180 SWAP2 SWAP1 PUSH2 0x3EDB JUMP JUMPDEST POP PUSH1 0x40 MLOAD PUSH4 0x2F8D2051 PUSH1 0xE1 SHL DUP2 MSTORE PUSH1 0x1 PUSH1 0x1 PUSH1 0xA0 SHL SUB DUP7 DUP2 AND PUSH1 0x4 DUP4 ADD MSTORE DUP3 AND SWAP1 PUSH4 0x5F1A40A2 SWAP1 PUSH1 0x24 ADD PUSH1 0x20 PUSH1 0x40 MLOAD DUP1 DUP4 SUB DUP2 PUSH1 0x0 DUP8 DUP1 EXTCODESIZE ISZERO DUP1 ISZERO PUSH2 0x21C4 JUMPI PUSH1 0x0 DUP1 REVERT JUMPDEST POP GAS CALL ISZERO DUP1 ISZERO PUSH2 0x21D8 JUMPI RETURNDATASIZE PUSH1 0x0 DUP1 RETURNDATACOPY RETURNDATASIZE PUSH1 0x0 REVERT JUMPDEST POP POP POP POP PUSH1 0x40 MLOAD RETURNDATASIZE PUSH1 0x1F NOT PUSH1 0x1F DUP3 ADD AND DUP3 ADD DUP1 PUSH1 0x40 MSTORE POP DUP2 ADD SWAP1 PUSH2 0x21FC SWAP2 SWAP1 PUSH2 0x4207 JUMP JUMPDEST SWAP3 POP DUP6 DUP4 LT ISZERO PUSH2 0x221E JUMPI PUSH1 0x40 MLOAD PUSH3 0x461BCD PUSH1 0xE5 SHL DUP2 MSTORE PUSH1 0x4 ADD PUSH2 0x66C SWAP1 PUSH2 0x4450 JUMP JUMPDEST PUSH1 0x0 DUP2 PUSH1 0x1 PUSH1 0x1 PUSH1 0xA0 SHL SUB AND PUSH4 0xDDD6F962 PUSH1 0x40 MLOAD DUP2 PUSH4 0xFFFFFFFF AND PUSH1 0xE0 SHL DUP2 MSTORE PUSH1 0x4 ADD PUSH1 0x20 PUSH1 0x40 MLOAD DUP1 DUP4 SUB DUP2 DUP7 DUP1 EXTCODESIZE ISZERO DUP1 ISZERO PUSH2 0x2259 JUMPI PUSH1 0x0 DUP1 REVERT JUMPDEST POP GAS STATICCALL ISZERO DUP1 ISZERO PUSH2 0x226D JUMPI RETURNDATASIZE PUSH1 0x0 DUP1 RETURNDATACOPY RETURNDATASIZE PUSH1 0x0 REVERT JUMPDEST POP POP POP POP PUSH1 0x40 MLOAD RETURNDATASIZE PUSH1 0x1F NOT PUSH1 0x1F DUP3 ADD AND DUP3 ADD DUP1 PUSH1 0x40 MSTORE POP DUP2 ADD SWAP1 PUSH2 0x2291 SWAP2 SWAP1 PUSH2 0x4207 JUMP JUMPDEST SWAP1 POP PUSH1 0x0 DUP3 PUSH1 0x1 PUSH1 0x1 PUSH1 0xA0 SHL SUB AND PUSH4 0xBBB1863A PUSH1 0x40 MLOAD DUP2 PUSH4 0xFFFFFFFF AND PUSH1 0xE0 SHL DUP2 MSTORE PUSH1 0x4 ADD PUSH1 0x20 PUSH1 0x40 MLOAD DUP1 DUP4 SUB DUP2 DUP7 DUP1 EXTCODESIZE ISZERO DUP1 ISZERO PUSH2 0x22CE JUMPI PUSH1 0x0 DUP1 REVERT JUMPDEST POP GAS STATICCALL ISZERO DUP1 ISZERO PUSH2 0x22E2 JUMPI RETURNDATASIZE PUSH1 0x0 DUP1 RETURNDATACOPY RETURNDATASIZE PUSH1 0x0 REVERT JUMPDEST POP POP POP POP PUSH1 0x40 MLOAD RETURNDATASIZE PUSH1 0x1F NOT PUSH1 0x1F DUP3 ADD AND DUP3 ADD DUP1 PUSH1 0x40 MSTORE POP DUP2 ADD SWAP1 PUSH2 0x2306 SWAP2 SWAP1 PUSH2 0x3A89 JUMP JUMPDEST PUSH1 0x1 PUSH1 0x1 PUSH1 0xA0 SHL SUB AND PUSH4 0x60961528 PUSH1 0x40 MLOAD DUP2 PUSH4 0xFFFFFFFF AND PUSH1 0xE0 SHL DUP2 MSTORE PUSH1 0x4 ADD PUSH1 0x20 PUSH1 0x40 MLOAD DUP1 DUP4 SUB DUP2 DUP7 DUP1 EXTCODESIZE ISZERO DUP1 ISZERO PUSH2 0x233E JUMPI PUSH1 0x0 DUP1 REVERT JUMPDEST POP GAS STATICCALL ISZERO DUP1 ISZERO PUSH2 0x2352 JUMPI RETURNDATASIZE PUSH1 0x0 DUP1 RETURNDATACOPY RETURNDATASIZE PUSH1 0x0 REVERT JUMPDEST POP POP POP POP PUSH1 0x40 MLOAD RETURNDATASIZE PUSH1 0x1F NOT PUSH1 0x1F DUP3 ADD AND DUP3 ADD DUP1 PUSH1 0x40 MSTORE POP DUP2 ADD SWAP1 PUSH2 0x2376 SWAP2 SWAP1 PUSH2 0x3A89 JUMP JUMPDEST PUSH1 0x40 MLOAD PUSH4 0x41976E09 PUSH1 0xE0 SHL DUP2 MSTORE PUSH1 0x1 PUSH1 0x1 PUSH1 0xA0 SHL SUB DUP15 DUP2 AND PUSH1 0x4 DUP4 ADD MSTORE SWAP2 SWAP1 SWAP2 AND SWAP1 PUSH4 0x41976E09 SWAP1 PUSH1 0x24 ADD PUSH1 0x40 DUP1 MLOAD DUP1 DUP4 SUB DUP2 DUP7 DUP1 EXTCODESIZE ISZERO DUP1 ISZERO PUSH2 0x23B8 JUMPI PUSH1 0x0 DUP1 REVERT JUMPDEST POP GAS STATICCALL ISZERO DUP1 ISZERO PUSH2 0x23CC JUMPI RETURNDATASIZE PUSH1 0x0 DUP1 RETURNDATACOPY RETURNDATASIZE PUSH1 0x0 REVERT JUMPDEST POP POP POP POP PUSH1 0x40 MLOAD RETURNDATASIZE PUSH1 0x1F NOT PUSH1 0x1F DUP3 ADD AND DUP3 ADD DUP1 PUSH1 0x40 MSTORE POP DUP2 ADD SWAP1 PUSH2 0x23F0 SWAP2 SWAP1 PUSH2 0x4256 JUMP JUMPDEST POP SWAP1 POP DUP1 PUSH8 0xDE0B6B3A7640000 DUP13 PUSH1 0xFF AND PUSH1 0x0 SLOAD DUP6 PUSH2 0x240F SWAP2 SWAP1 PUSH2 0x4608 JUMP JUMPDEST PUSH2 0x2419 SWAP2 SWAP1 PUSH2 0x45E8 JUMP JUMPDEST PUSH2 0x2423 SWAP2 SWAP1 PUSH2 0x45E8 JUMP JUMPDEST PUSH2 0x242D SWAP1 DUP5 PUSH2 0x45AB JUMP JUMPDEST LT DUP1 PUSH2 0x2470 JUMPI POP DUP1 PUSH8 0xDE0B6B3A7640000 DUP13 PUSH1 0xFF AND PUSH1 0x0 SLOAD DUP6 PUSH2 0x2450 SWAP2 SWAP1 PUSH2 0x4608 JUMP JUMPDEST PUSH2 0x245A SWAP2 SWAP1 PUSH2 0x45E8 JUMP JUMPDEST PUSH2 0x2464 SWAP2 SWAP1 PUSH2 0x45E8 JUMP JUMPDEST PUSH2 0x246E SWAP1 DUP5 PUSH2 0x4627 JUMP JUMPDEST GT JUMPDEST ISZERO PUSH2 0x24F1 JUMPI PUSH1 0x40 MLOAD PUSH4 0x3437C4DD PUSH1 0xE2 SHL DUP2 MSTORE PUSH1 0x1 PUSH1 0x1 PUSH1 0xA0 SHL SUB DUP5 DUP2 AND PUSH1 0x4 DUP4 ADD MSTORE PUSH32 0x0 AND SWAP1 PUSH4 0xD0DF1374 SWAP1 PUSH1 0x24 ADD PUSH1 0x0 PUSH1 0x40 MLOAD DUP1 DUP4 SUB DUP2 PUSH1 0x0 DUP8 DUP1 EXTCODESIZE ISZERO DUP1 ISZERO PUSH2 0x24D8 JUMPI PUSH1 0x0 DUP1 REVERT JUMPDEST POP GAS CALL ISZERO DUP1 ISZERO PUSH2 0x24EC JUMPI RETURNDATASIZE PUSH1 0x0 DUP1 RETURNDATACOPY RETURNDATASIZE PUSH1 0x0 REVERT JUMPDEST POP POP POP POP JUMPDEST POP POP POP POP SWAP10 SWAP9 POP POP POP POP POP POP POP POP POP JUMP JUMPDEST PUSH1 0x0 ORIGIN CALLER EQ PUSH2 0x2523 JUMPI PUSH1 0x40 MLOAD PUSH3 0x461BCD PUSH1 0xE5 SHL DUP2 MSTORE PUSH1 0x4 ADD PUSH2 0x66C SWAP1 PUSH2 0x449E JUMP JUMPDEST DUP2 TIMESTAMP DUP2 LT ISZERO PUSH2 0x2544 JUMPI PUSH1 0x40 MLOAD PUSH3 0x461BCD PUSH1 0xE5 SHL DUP2 MSTORE PUSH1 0x4 ADD PUSH2 0x66C SWAP1 PUSH2 0x44EB JUMP JUMPDEST PUSH2 0x2574 PUSH32 0x0 DUP11 DUP11 DUP11 DUP11 DUP11 ADDRESS DUP11 PUSH2 0x64B JUMP JUMPDEST PUSH1 0x40 MLOAD PUSH4 0x2E1A7D4D PUSH1 0xE0 SHL DUP2 MSTORE PUSH1 0x4 DUP2 ADD DUP3 SWAP1 MSTORE SWAP1 SWAP3 POP PUSH32 0x0 PUSH1 0x1 PUSH1 0x1 PUSH1 0xA0 SHL SUB AND SWAP1 PUSH4 0x2E1A7D4D SWAP1 PUSH1 0x24 ADD PUSH1 0x0 PUSH1 0x40 MLOAD DUP1 DUP4 SUB DUP2 PUSH1 0x0 DUP8 DUP1 EXTCODESIZE ISZERO DUP1 ISZERO PUSH2 0x25D9 JUMPI PUSH1 0x0 DUP1 REVERT JUMPDEST POP GAS CALL ISZERO DUP1 ISZERO PUSH2 0x25ED JUMPI RETURNDATASIZE PUSH1 0x0 DUP1 RETURNDATACOPY RETURNDATASIZE PUSH1 0x0 REVERT JUMPDEST POP POP POP POP PUSH2 0x25FB DUP5 DUP4 PUSH2 0x345B JUMP JUMPDEST POP SWAP8 SWAP7 POP POP POP POP POP POP POP JUMP JUMPDEST CALLER PUSH1 0x1 PUSH1 0x1 PUSH1 0xA0 SHL SUB PUSH32 0x0 AND EQ PUSH2 0x2672 JUMPI PUSH1 0x40 MLOAD PUSH3 0x461BCD PUSH1 0xE5 SHL DUP2 MSTORE PUSH1 0x20 PUSH1 0x4 DUP3 ADD MSTORE PUSH1 0x10 PUSH1 0x24 DUP3 ADD MSTORE PUSH16 0x21A121219D102327A92124A22222A717 PUSH1 0x81 SHL PUSH1 0x44 DUP3 ADD MSTORE PUSH1 0x64 ADD PUSH2 0x66C JUMP JUMPDEST PUSH1 0x0 SSTORE JUMP JUMPDEST PUSH1 0x0 DUP2 TIMESTAMP DUP2 LT ISZERO PUSH2 0x269A JUMPI PUSH1 0x40 MLOAD PUSH3 0x461BCD PUSH1 0xE5 SHL DUP2 MSTORE PUSH1 0x4 ADD PUSH2 0x66C SWAP1 PUSH2 0x44EB JUMP JUMPDEST PUSH1 0x40 MLOAD PUSH4 0x4C22F489 PUSH1 0xE1 SHL DUP2 MSTORE PUSH1 0x1 PUSH1 0x1 PUSH1 0xA0 SHL SUB PUSH32 0x0 DUP2 AND PUSH1 0x4 DUP4 ADD MSTORE PUSH1 0x0 SWAP2 PUSH32 0x0 SWAP1 SWAP2 AND SWAP1 PUSH4 0x9845E912 SWAP1 PUSH1 0x24 ADD PUSH1 0x20 PUSH1 0x40 MLOAD DUP1 DUP4 SUB DUP2 DUP7 DUP1 EXTCODESIZE ISZERO DUP1 ISZERO PUSH2 0x2720 JUMPI PUSH1 0x0 DUP1 REVERT JUMPDEST POP GAS STATICCALL ISZERO DUP1 ISZERO PUSH2 0x2734 JUMPI RETURNDATASIZE PUSH1 0x0 DUP1 RETURNDATACOPY RETURNDATASIZE PUSH1 0x0 REVERT JUMPDEST POP POP POP POP PUSH1 0x40 MLOAD RETURNDATASIZE PUSH1 0x1F NOT PUSH1 0x1F DUP3 ADD AND DUP3 ADD DUP1 PUSH1 0x40 MSTORE POP DUP2 ADD SWAP1 PUSH2 0x2758 SWAP2 SWAP1 PUSH2 0x3A89 JUMP JUMPDEST PUSH1 0x1 PUSH1 0x1 PUSH1 0xA0 SHL SUB AND EQ ISZERO PUSH2 0x27AF JUMPI PUSH1 0x40 MLOAD PUSH3 0x461BCD PUSH1 0xE5 SHL DUP2 MSTORE PUSH1 0x20 PUSH1 0x4 DUP3 ADD MSTORE PUSH1 0x1F PUSH1 0x24 DUP3 ADD MSTORE PUSH32 0x434242433A204C49515549444954595F504F4F4C5F4E4F545F45584953542E00 PUSH1 0x44 DUP3 ADD MSTORE PUSH1 0x64 ADD PUSH2 0x66C JUMP JUMPDEST PUSH1 0x40 MLOAD PUSH4 0x4C22F489 PUSH1 0xE1 SHL DUP2 MSTORE PUSH1 0x1 PUSH1 0x1 PUSH1 0xA0 SHL SUB PUSH32 0x0 DUP2 AND PUSH1 0x4 DUP4 ADD MSTORE PUSH1 0x0 SWAP2 PUSH32 0x0 SWAP1 SWAP2 AND SWAP1 PUSH4 0x9845E912 SWAP1 PUSH1 0x24 ADD PUSH1 0x20 PUSH1 0x40 MLOAD DUP1 DUP4 SUB DUP2 DUP7 DUP1 EXTCODESIZE ISZERO DUP1 ISZERO PUSH2 0x2835 JUMPI PUSH1 0x0 DUP1 REVERT JUMPDEST POP GAS STATICCALL ISZERO DUP1 ISZERO PUSH2 0x2849 JUMPI RETURNDATASIZE PUSH1 0x0 DUP1 RETURNDATACOPY RETURNDATASIZE PUSH1 0x0 REVERT JUMPDEST POP POP POP POP PUSH1 0x40 MLOAD RETURNDATASIZE PUSH1 0x1F NOT PUSH1 0x1F DUP3 ADD AND DUP3 ADD DUP1 PUSH1 0x40 MSTORE POP DUP2 ADD SWAP1 PUSH2 0x286D SWAP2 SWAP1 PUSH2 0x3A89 JUMP JUMPDEST SWAP1 POP PUSH32 0x0 PUSH1 0x1 PUSH1 0x1 PUSH1 0xA0 SHL SUB AND PUSH4 0xD0E30DB0 DUP8 PUSH1 0x40 MLOAD DUP3 PUSH4 0xFFFFFFFF AND PUSH1 0xE0 SHL DUP2 MSTORE PUSH1 0x4 ADD PUSH1 0x0 PUSH1 0x40 MLOAD DUP1 DUP4 SUB DUP2 DUP6 DUP9 DUP1 EXTCODESIZE ISZERO DUP1 ISZERO PUSH2 0x28CA JUMPI PUSH1 0x0 DUP1 REVERT JUMPDEST POP GAS CALL ISZERO DUP1 ISZERO PUSH2 0x28DE JUMPI RETURNDATASIZE PUSH1 0x0 DUP1 RETURNDATACOPY RETURNDATASIZE PUSH1 0x0 REVERT JUMPDEST POP POP PUSH1 0x40 MLOAD PUSH4 0xA9059CBB PUSH1 0xE0 SHL DUP2 MSTORE PUSH1 0x1 PUSH1 0x1 PUSH1 0xA0 SHL SUB DUP6 DUP2 AND PUSH1 0x4 DUP4 ADD MSTORE PUSH1 0x24 DUP3 ADD DUP12 SWAP1 MSTORE PUSH32 0x0 AND SWAP4 POP PUSH4 0xA9059CBB SWAP3 POP PUSH1 0x44 ADD SWAP1 POP PUSH1 0x20 PUSH1 0x40 MLOAD DUP1 DUP4 SUB DUP2 PUSH1 0x0 DUP8 DUP1 EXTCODESIZE ISZERO DUP1 ISZERO PUSH2 0x294E JUMPI PUSH1 0x0 DUP1 REVERT JUMPDEST POP GAS CALL ISZERO DUP1 ISZERO PUSH2 0x2962 JUMPI RETURNDATASIZE PUSH1 0x0 DUP1 RETURNDATACOPY RETURNDATASIZE PUSH1 0x0 REVERT JUMPDEST POP POP POP POP PUSH1 0x40 MLOAD RETURNDATASIZE PUSH1 0x1F NOT PUSH1 0x1F DUP3 ADD AND DUP3 ADD DUP1 PUSH1 0x40 MSTORE POP DUP2 ADD SWAP1 PUSH2 0x2986 SWAP2 SWAP1 PUSH2 0x3EDB JUMP JUMPDEST PUSH2 0x29A0 JUMPI PUSH4 0x4E487B71 PUSH1 0xE0 SHL PUSH1 0x0 MSTORE PUSH1 0x1 PUSH1 0x4 MSTORE PUSH1 0x24 PUSH1 0x0 REVERT JUMPDEST PUSH1 0x40 MLOAD PUSH4 0xDFFA7FD PUSH1 0xE3 SHL DUP2 MSTORE PUSH1 0x1 PUSH1 0x1 PUSH1 0xA0 SHL SUB DUP7 DUP2 AND PUSH1 0x4 DUP4 ADD MSTORE DUP3 AND SWAP1 PUSH4 0x6FFD3FE8 SWAP1 PUSH1 0x24 ADD PUSH1 0x20 PUSH1 0x40 MLOAD DUP1 DUP4 SUB DUP2 PUSH1 0x0 DUP8 DUP1 EXTCODESIZE ISZERO DUP1 ISZERO PUSH2 0x29E3 JUMPI PUSH1 0x0 DUP1 REVERT JUMPDEST POP GAS CALL ISZERO DUP1 ISZERO PUSH2 0x29F7 JUMPI RETURNDATASIZE PUSH1 0x0 DUP1 RETURNDATACOPY RETURNDATASIZE PUSH1 0x0 REVERT JUMPDEST POP POP POP POP PUSH1 0x40 MLOAD RETURNDATASIZE PUSH1 0x1F NOT PUSH1 0x1F DUP3 ADD AND DUP3 ADD DUP1 PUSH1 0x40 MSTORE POP DUP2 ADD SWAP1 PUSH2 0x2A1B SWAP2 SWAP1 PUSH2 0x4207 JUMP JUMPDEST SWAP3 POP DUP6 CALLVALUE GT ISZERO PUSH2 0x2A33 JUMPI PUSH2 0x2A33 CALLER PUSH2 0x1FFB DUP9 CALLVALUE PUSH2 0x4627 JUMP JUMPDEST POP POP SWAP4 SWAP3 POP POP POP JUMP JUMPDEST PUSH1 0x40 MLOAD PUSH4 0x4C22F489 PUSH1 0xE1 SHL DUP2 MSTORE PUSH1 0x1 PUSH1 0x1 PUSH1 0xA0 SHL SUB DUP11 DUP2 AND PUSH1 0x4 DUP4 ADD MSTORE PUSH1 0x0 SWAP2 DUP3 SWAP2 PUSH32 0x0 AND SWAP1 PUSH4 0x9845E912 SWAP1 PUSH1 0x24 ADD PUSH1 0x20 PUSH1 0x40 MLOAD DUP1 DUP4 SUB DUP2 DUP7 DUP1 EXTCODESIZE ISZERO DUP1 ISZERO PUSH2 0x2AA2 JUMPI PUSH1 0x0 DUP1 REVERT JUMPDEST POP GAS STATICCALL ISZERO DUP1 ISZERO PUSH2 0x2AB6 JUMPI RETURNDATASIZE PUSH1 0x0 DUP1 RETURNDATACOPY RETURNDATASIZE PUSH1 0x0 REVERT JUMPDEST POP POP POP POP PUSH1 0x40 MLOAD RETURNDATASIZE PUSH1 0x1F NOT PUSH1 0x1F DUP3 ADD AND DUP3 ADD DUP1 PUSH1 0x40 MSTORE POP DUP2 ADD SWAP1 PUSH2 0x2ADA SWAP2 SWAP1 PUSH2 0x3A89 JUMP JUMPDEST SWAP1 POP PUSH1 0x0 PUSH2 0x2AEB PUSH1 0x20 DUP6 ADD DUP6 PUSH2 0x3EBF JUMP JUMPDEST PUSH2 0x2AF5 JUMPI DUP8 PUSH2 0x2AF9 JUMP JUMPDEST PUSH1 0x0 NOT JUMPDEST SWAP1 POP PUSH1 0x1 PUSH1 0x1 PUSH1 0xA0 SHL SUB DUP3 AND PUSH4 0xD505ACCF CALLER ADDRESS DUP5 DUP10 PUSH2 0x2B1E PUSH1 0x40 DUP12 ADD PUSH1 0x20 DUP13 ADD PUSH2 0x431E JUMP JUMPDEST DUP11 PUSH1 0x40 ADD CALLDATALOAD DUP12 PUSH1 0x60 ADD CALLDATALOAD PUSH1 0x40 MLOAD DUP9 PUSH4 0xFFFFFFFF AND PUSH1 0xE0 SHL DUP2 MSTORE PUSH1 0x4 ADD PUSH2 0x2B4A SWAP8 SWAP7 SWAP6 SWAP5 SWAP4 SWAP3 SWAP2 SWAP1 PUSH2 0x4395 JUMP JUMPDEST PUSH1 0x0 PUSH1 0x40 MLOAD DUP1 DUP4 SUB DUP2 PUSH1 0x0 DUP8 DUP1 EXTCODESIZE ISZERO DUP1 ISZERO PUSH2 0x2B64 JUMPI PUSH1 0x0 DUP1 REVERT JUMPDEST POP GAS CALL ISZERO DUP1 ISZERO PUSH2 0x2B78 JUMPI RETURNDATASIZE PUSH1 0x0 DUP1 RETURNDATACOPY RETURNDATASIZE PUSH1 0x0 REVERT JUMPDEST POP POP POP POP PUSH2 0x2B8D DUP14 DUP14 DUP14 DUP14 DUP14 DUP14 DUP14 DUP14 DUP14 PUSH2 0x200D JUMP JUMPDEST SWAP14 SWAP13 POP POP POP POP POP POP POP POP POP POP POP POP POP JUMP JUMPDEST PUSH1 0x0 DUP2 TIMESTAMP DUP2 LT ISZERO PUSH2 0x2BC1 JUMPI PUSH1 0x40 MLOAD PUSH3 0x461BCD PUSH1 0xE5 SHL DUP2 MSTORE PUSH1 0x4 ADD PUSH2 0x66C SWAP1 PUSH2 0x44EB JUMP JUMPDEST PUSH1 0x40 MLOAD PUSH4 0x3561D521 PUSH1 0xE1 SHL DUP2 MSTORE PUSH1 0x0 SWAP1 PUSH32 0x0 PUSH1 0x1 PUSH1 0x1 PUSH1 0xA0 SHL SUB AND SWAP1 PUSH4 0x6AC3AA42 SWAP1 PUSH2 0x2C36 SWAP1 PUSH32 0x0 SWAP1 DUP14 SWAP1 DUP14 SWAP1 DUP14 SWAP1 PUSH1 0x4 ADD PUSH2 0x43D6 JUMP JUMPDEST PUSH1 0x20 PUSH1 0x40 MLOAD DUP1 DUP4 SUB DUP2 DUP7 DUP1 EXTCODESIZE ISZERO DUP1 ISZERO PUSH2 0x2C4E JUMPI PUSH1 0x0 DUP1 REVERT JUMPDEST POP GAS STATICCALL ISZERO DUP1 ISZERO PUSH2 0x2C62 JUMPI RETURNDATASIZE PUSH1 0x0 DUP1 RETURNDATACOPY RETURNDATASIZE PUSH1 0x0 REVERT JUMPDEST POP POP POP POP PUSH1 0x40 MLOAD RETURNDATASIZE PUSH1 0x1F NOT PUSH1 0x1F DUP3 ADD AND DUP3 ADD DUP1 PUSH1 0x40 MSTORE POP DUP2 ADD SWAP1 PUSH2 0x2C86 SWAP2 SWAP1 PUSH2 0x3A89 JUMP JUMPDEST PUSH1 0x1 PUSH1 0x1 PUSH1 0xA0 SHL SUB AND EQ ISZERO PUSH2 0x2CAD JUMPI PUSH1 0x40 MLOAD PUSH3 0x461BCD PUSH1 0xE5 SHL DUP2 MSTORE PUSH1 0x4 ADD PUSH2 0x66C SWAP1 PUSH2 0x4424 JUMP JUMPDEST PUSH1 0x40 MLOAD PUSH4 0x4C22F489 PUSH1 0xE1 SHL DUP2 MSTORE PUSH1 0x1 PUSH1 0x1 PUSH1 0xA0 SHL SUB PUSH32 0x0 DUP2 AND PUSH1 0x4 DUP4 ADD MSTORE PUSH1 0x0 SWAP2 PUSH32 0x0 SWAP1 SWAP2 AND SWAP1 PUSH4 0x9845E912 SWAP1 PUSH1 0x24 ADD PUSH1 0x20 PUSH1 0x40 MLOAD DUP1 DUP4 SUB DUP2 DUP7 DUP1 EXTCODESIZE ISZERO DUP1 ISZERO PUSH2 0x2D33 JUMPI PUSH1 0x0 DUP1 REVERT JUMPDEST POP GAS STATICCALL ISZERO DUP1 ISZERO PUSH2 0x2D47 JUMPI RETURNDATASIZE PUSH1 0x0 DUP1 RETURNDATACOPY RETURNDATASIZE PUSH1 0x0 REVERT JUMPDEST POP POP POP POP PUSH1 0x40 MLOAD RETURNDATASIZE PUSH1 0x1F NOT PUSH1 0x1F DUP3 ADD AND DUP3 ADD DUP1 PUSH1 0x40 MSTORE POP DUP2 ADD SWAP1 PUSH2 0x2D6B SWAP2 SWAP1 PUSH2 0x3A89 JUMP JUMPDEST SWAP1 POP PUSH1 0x0 PUSH32 0x0 PUSH1 0x1 PUSH1 0x1 PUSH1 0xA0 SHL SUB AND PUSH4 0x6AC3AA42 PUSH32 0x0 DUP13 DUP13 DUP13 PUSH1 0x40 MLOAD DUP6 PUSH4 0xFFFFFFFF AND PUSH1 0xE0 SHL DUP2 MSTORE PUSH1 0x4 ADD PUSH2 0x2DE1 SWAP5 SWAP4 SWAP3 SWAP2 SWAP1 PUSH2 0x43D6 JUMP JUMPDEST PUSH1 0x20 PUSH1 0x40 MLOAD DUP1 DUP4 SUB DUP2 DUP7 DUP1 EXTCODESIZE ISZERO DUP1 ISZERO PUSH2 0x2DF9 JUMPI PUSH1 0x0 DUP1 REVERT JUMPDEST POP GAS STATICCALL ISZERO DUP1 ISZERO PUSH2 0x2E0D JUMPI RETURNDATASIZE PUSH1 0x0 DUP1 RETURNDATACOPY RETURNDATASIZE PUSH1 0x0 REVERT JUMPDEST POP POP POP POP PUSH1 0x40 MLOAD RETURNDATASIZE PUSH1 0x1F NOT PUSH1 0x1F DUP3 ADD AND DUP3 ADD DUP1 PUSH1 0x40 MSTORE POP DUP2 ADD SWAP1 PUSH2 0x2E31 SWAP2 SWAP1 PUSH2 0x3A89 JUMP JUMPDEST SWAP1 POP PUSH2 0x2E5E PUSH32 0x0 DUP12 DUP14 PUSH2 0x353A JUMP JUMPDEST PUSH2 0x2E7A JUMPI PUSH1 0x40 MLOAD PUSH3 0x461BCD PUSH1 0xE5 SHL DUP2 MSTORE PUSH1 0x4 ADD PUSH2 0x66C SWAP1 PUSH2 0x451A JUMP JUMPDEST PUSH32 0x0 PUSH1 0x1 PUSH1 0x1 PUSH1 0xA0 SHL SUB AND PUSH4 0xD0E30DB0 DUP9 PUSH1 0x40 MLOAD DUP3 PUSH4 0xFFFFFFFF AND PUSH1 0xE0 SHL DUP2 MSTORE PUSH1 0x4 ADD PUSH1 0x0 PUSH1 0x40 MLOAD DUP1 DUP4 SUB DUP2 DUP6 DUP9 DUP1 EXTCODESIZE ISZERO DUP1 ISZERO PUSH2 0x2ED5 JUMPI PUSH1 0x0 DUP1 REVERT JUMPDEST POP GAS CALL ISZERO DUP1 ISZERO PUSH2 0x2EE9 JUMPI RETURNDATASIZE PUSH1 0x0 DUP1 RETURNDATACOPY RETURNDATASIZE PUSH1 0x0 REVERT JUMPDEST POP POP PUSH1 0x40 MLOAD PUSH4 0xA9059CBB PUSH1 0xE0 SHL DUP2 MSTORE PUSH1 0x1 PUSH1 0x1 PUSH1 0xA0 SHL SUB DUP7 DUP2 AND PUSH1 0x4 DUP4 ADD MSTORE PUSH1 0x24 DUP3 ADD DUP13 SWAP1 MSTORE PUSH32 0x0 AND SWAP4 POP PUSH4 0xA9059CBB SWAP3 POP PUSH1 0x44 ADD SWAP1 POP PUSH1 0x20 PUSH1 0x40 MLOAD DUP1 DUP4 SUB DUP2 PUSH1 0x0 DUP8 DUP1 EXTCODESIZE ISZERO DUP1 ISZERO PUSH2 0x2F59 JUMPI PUSH1 0x0 DUP1 REVERT JUMPDEST POP GAS CALL ISZERO DUP1 ISZERO PUSH2 0x2F6D JUMPI RETURNDATASIZE PUSH1 0x0 DUP1 RETURNDATACOPY RETURNDATASIZE PUSH1 0x0 REVERT JUMPDEST POP POP POP POP PUSH1 0x40 MLOAD RETURNDATASIZE PUSH1 0x1F NOT PUSH1 0x1F DUP3 ADD AND DUP3 ADD DUP1 PUSH1 0x40 MSTORE POP DUP2 ADD SWAP1 PUSH2 0x2F91 SWAP2 SWAP1 PUSH2 0x3EDB JUMP JUMPDEST PUSH2 0x2FAB JUMPI PUSH4 0x4E487B71 PUSH1 0xE0 SHL PUSH1 0x0 MSTORE PUSH1 0x1 PUSH1 0x4 MSTORE PUSH1 0x24 PUSH1 0x0 REVERT JUMPDEST PUSH1 0x40 MLOAD PUSH4 0x4A02BD31 PUSH1 0xE0 SHL DUP2 MSTORE PUSH1 0x1 PUSH1 0x1 PUSH1 0xA0 SHL SUB DUP8 DUP2 AND PUSH1 0x4 DUP4 ADD MSTORE DUP3 AND SWAP1 PUSH4 0x4A02BD31 SWAP1 PUSH1 0x24 ADD PUSH1 0x20 PUSH1 0x40 MLOAD DUP1 DUP4 SUB DUP2 PUSH1 0x0 DUP8 DUP1 EXTCODESIZE ISZERO DUP1 ISZERO PUSH2 0x2FEE JUMPI PUSH1 0x0 DUP1 REVERT JUMPDEST POP GAS CALL ISZERO DUP1 ISZERO PUSH2 0x3002 JUMPI RETURNDATASIZE PUSH1 0x0 DUP1 RETURNDATACOPY RETURNDATASIZE PUSH1 0x0 REVERT JUMPDEST POP POP POP POP PUSH1 0x40 MLOAD RETURNDATASIZE PUSH1 0x1F NOT PUSH1 0x1F DUP3 ADD AND DUP3 ADD DUP1 PUSH1 0x40 MSTORE POP DUP2 ADD SWAP1 PUSH2 0x3026 SWAP2 SWAP1 PUSH2 0x4207 JUMP JUMPDEST SWAP4 POP DUP7 CALLVALUE GT ISZERO PUSH2 0x303E JUMPI PUSH2 0x303E CALLER PUSH2 0x1FFB DUP10 CALLVALUE PUSH2 0x4627 JUMP JUMPDEST PUSH1 0x0 DUP2 PUSH1 0x1 PUSH1 0x1 PUSH1 0xA0 SHL SUB AND PUSH4 0xDDD6F962 PUSH1 0x40 MLOAD DUP2 PUSH4 0xFFFFFFFF AND PUSH1 0xE0 SHL DUP2 MSTORE PUSH1 0x4 ADD PUSH1 0x20 PUSH1 0x40 MLOAD DUP1 DUP4 SUB DUP2 DUP7 DUP1 EXTCODESIZE ISZERO DUP1 ISZERO PUSH2 0x3079 JUMPI PUSH1 0x0 DUP1 REVERT JUMPDEST POP GAS STATICCALL ISZERO DUP1 ISZERO PUSH2 0x308D JUMPI RETURNDATASIZE PUSH1 0x0 DUP1 RETURNDATACOPY RETURNDATASIZE PUSH1 0x0 REVERT JUMPDEST POP POP POP POP PUSH1 0x40 MLOAD RETURNDATASIZE PUSH1 0x1F NOT PUSH1 0x1F DUP3 ADD AND DUP3 ADD DUP1 PUSH1 0x40 MSTORE POP DUP2 ADD SWAP1 PUSH2 0x30B1 SWAP2 SWAP1 PUSH2 0x4207 JUMP JUMPDEST SWAP1 POP PUSH1 0x0 DUP3 PUSH1 0x1 PUSH1 0x1 PUSH1 0xA0 SHL SUB AND PUSH4 0xBBB1863A PUSH1 0x40 MLOAD DUP2 PUSH4 0xFFFFFFFF AND PUSH1 0xE0 SHL DUP2 MSTORE PUSH1 0x4 ADD PUSH1 0x20 PUSH1 0x40 MLOAD DUP1 DUP4 SUB DUP2 DUP7 DUP1 EXTCODESIZE ISZERO DUP1 ISZERO PUSH2 0x30EE JUMPI PUSH1 0x0 DUP1 REVERT JUMPDEST POP GAS STATICCALL ISZERO DUP1 ISZERO PUSH2 0x3102 JUMPI RETURNDATASIZE PUSH1 0x0 DUP1 RETURNDATACOPY RETURNDATASIZE PUSH1 0x0 REVERT JUMPDEST POP POP POP POP PUSH1 0x40 MLOAD RETURNDATASIZE PUSH1 0x1F NOT PUSH1 0x1F DUP3 ADD AND DUP3 ADD DUP1 PUSH1 0x40 MSTORE POP DUP2 ADD SWAP1 PUSH2 0x3126 SWAP2 SWAP1 PUSH2 0x3A89 JUMP JUMPDEST PUSH1 0x1 PUSH1 0x1 PUSH1 0xA0 SHL SUB AND PUSH4 0x60961528 PUSH1 0x40 MLOAD DUP2 PUSH4 0xFFFFFFFF AND PUSH1 0xE0 SHL DUP2 MSTORE PUSH1 0x4 ADD PUSH1 0x20 PUSH1 0x40 MLOAD DUP1 DUP4 SUB DUP2 DUP7 DUP1 EXTCODESIZE ISZERO DUP1 ISZERO PUSH2 0x315E JUMPI PUSH1 0x0 DUP1 REVERT JUMPDEST POP GAS STATICCALL ISZERO DUP1 ISZERO PUSH2 0x3172 JUMPI RETURNDATASIZE PUSH1 0x0 DUP1 RETURNDATACOPY RETURNDATASIZE PUSH1 0x0 REVERT JUMPDEST POP POP POP POP PUSH1 0x40 MLOAD RETURNDATASIZE PUSH1 0x1F NOT PUSH1 0x1F DUP3 ADD AND DUP3 ADD DUP1 PUSH1 0x40 MSTORE POP DUP2 ADD SWAP1 PUSH2 0x3196 SWAP2 SWAP1 PUSH2 0x3A89 JUMP JUMPDEST PUSH1 0x40 MLOAD PUSH4 0x41976E09 PUSH1 0xE0 SHL DUP2 MSTORE PUSH1 0x1 PUSH1 0x1 PUSH1 0xA0 SHL SUB DUP15 DUP2 AND PUSH1 0x4 DUP4 ADD MSTORE SWAP2 SWAP1 SWAP2 AND SWAP1 PUSH4 0x41976E09 SWAP1 PUSH1 0x24 ADD PUSH1 0x40 DUP1 MLOAD DUP1 DUP4 SUB DUP2 DUP7 DUP1 EXTCODESIZE ISZERO DUP1 ISZERO PUSH2 0x31D8 JUMPI PUSH1 0x0 DUP1 REVERT JUMPDEST POP GAS STATICCALL ISZERO DUP1 ISZERO PUSH2 0x31EC JUMPI RETURNDATASIZE PUSH1 0x0 DUP1 RETURNDATACOPY RETURNDATASIZE PUSH1 0x0 REVERT JUMPDEST POP POP POP POP PUSH1 0x40 MLOAD RETURNDATASIZE PUSH1 0x1F NOT PUSH1 0x1F DUP3 ADD AND DUP3 ADD DUP1 PUSH1 0x40 MSTORE POP DUP2 ADD SWAP1 PUSH2 0x3210 SWAP2 SWAP1 PUSH2 0x4256 JUMP JUMPDEST POP SWAP1 POP DUP1 PUSH8 0xDE0B6B3A7640000 DUP13 PUSH1 0xFF AND PUSH1 0x0 SLOAD DUP6 PUSH2 0x322F SWAP2 SWAP1 PUSH2 0x4608 JUMP JUMPDEST PUSH2 0x3239 SWAP2 SWAP1 PUSH2 0x45E8 JUMP JUMPDEST PUSH2 0x3243 SWAP2 SWAP1 PUSH2 0x45E8 JUMP JUMPDEST PUSH2 0x324D SWAP1 DUP5 PUSH2 0x45AB JUMP JUMPDEST LT DUP1 PUSH2 0x3290 JUMPI POP DUP1 PUSH8 0xDE0B6B3A7640000 DUP13 PUSH1 0xFF AND PUSH1 0x0 SLOAD DUP6 PUSH2 0x3270 SWAP2 SWAP1 PUSH2 0x4608 JUMP JUMPDEST PUSH2 0x327A SWAP2 SWAP1 PUSH2 0x45E8 JUMP JUMPDEST PUSH2 0x3284 SWAP2 SWAP1 PUSH2 0x45E8 JUMP JUMPDEST PUSH2 0x328E SWAP1 DUP5 PUSH2 0x4627 JUMP JUMPDEST GT JUMPDEST ISZERO PUSH2 0x3311 JUMPI PUSH1 0x40 MLOAD PUSH4 0x3437C4DD PUSH1 0xE2 SHL DUP2 MSTORE PUSH1 0x1 PUSH1 0x1 PUSH1 0xA0 SHL SUB DUP5 DUP2 AND PUSH1 0x4 DUP4 ADD MSTORE PUSH32 0x0 AND SWAP1 PUSH4 0xD0DF1374 SWAP1 PUSH1 0x24 ADD PUSH1 0x0 PUSH1 0x40 MLOAD DUP1 DUP4 SUB DUP2 PUSH1 0x0 DUP8 DUP1 EXTCODESIZE ISZERO DUP1 ISZERO PUSH2 0x32F8 JUMPI PUSH1 0x0 DUP1 REVERT JUMPDEST POP GAS CALL ISZERO DUP1 ISZERO PUSH2 0x330C JUMPI RETURNDATASIZE PUSH1 0x0 DUP1 RETURNDATACOPY RETURNDATASIZE PUSH1 0x0 REVERT JUMPDEST POP POP POP POP JUMPDEST POP POP POP POP POP SWAP8 SWAP7 POP POP POP POP POP POP POP JUMP JUMPDEST PUSH1 0x0 DUP1 DUP6 PUSH1 0x1 PUSH1 0x1 PUSH1 0xA0 SHL SUB AND PUSH4 0x23B872DD DUP7 DUP7 DUP7 PUSH1 0x40 MLOAD PUSH1 0x24 ADD PUSH2 0x3348 SWAP4 SWAP3 SWAP2 SWAP1 PUSH2 0x4371 JUMP JUMPDEST PUSH1 0x40 MLOAD PUSH1 0x20 DUP2 DUP4 SUB SUB DUP2 MSTORE SWAP1 PUSH1 0x40 MSTORE SWAP1 PUSH1 0xE0 SHL PUSH1 0x20 DUP3 ADD DUP1 MLOAD PUSH1 0x1 PUSH1 0x1 PUSH1 0xE0 SHL SUB DUP4 DUP2 DUP4 AND OR DUP4 MSTORE POP POP POP POP PUSH1 0x40 MLOAD PUSH2 0x3381 SWAP2 SWAP1 PUSH2 0x4338 JUMP JUMPDEST PUSH1 0x0 PUSH1 0x40 MLOAD DUP1 DUP4 SUB DUP2 PUSH1 0x0 DUP7 GAS CALL SWAP2 POP POP RETURNDATASIZE DUP1 PUSH1 0x0 DUP2 EQ PUSH2 0x33BE JUMPI PUSH1 0x40 MLOAD SWAP2 POP PUSH1 0x1F NOT PUSH1 0x3F RETURNDATASIZE ADD AND DUP3 ADD PUSH1 0x40 MSTORE RETURNDATASIZE DUP3 MSTORE RETURNDATASIZE PUSH1 0x0 PUSH1 0x20 DUP5 ADD RETURNDATACOPY PUSH2 0x33C3 JUMP JUMPDEST PUSH1 0x60 SWAP2 POP JUMPDEST POP SWAP2 POP SWAP2 POP DUP2 DUP1 ISZERO PUSH2 0x33ED JUMPI POP DUP1 MLOAD ISZERO DUP1 PUSH2 0x33ED JUMPI POP DUP1 DUP1 PUSH1 0x20 ADD SWAP1 MLOAD DUP2 ADD SWAP1 PUSH2 0x33ED SWAP2 SWAP1 PUSH2 0x3EDB JUMP JUMPDEST PUSH2 0x3453 JUMPI PUSH1 0x40 MLOAD PUSH3 0x461BCD PUSH1 0xE5 SHL DUP2 MSTORE PUSH1 0x20 PUSH1 0x4 DUP3 ADD MSTORE PUSH1 0x31 PUSH1 0x24 DUP3 ADD MSTORE PUSH32 0x5472616E7366657248656C7065723A3A7472616E7366657246726F6D3A207472 PUSH1 0x44 DUP3 ADD MSTORE PUSH17 0x185B9CD9995C919C9BDB4819985A5B1959 PUSH1 0x7A SHL PUSH1 0x64 DUP3 ADD MSTORE PUSH1 0x84 ADD PUSH2 0x66C JUMP JUMPDEST POP POP POP POP POP POP JUMP JUMPDEST PUSH1 0x40 DUP1 MLOAD PUSH1 0x0 DUP1 DUP3 MSTORE PUSH1 0x20 DUP3 ADD SWAP1 SWAP3 MSTORE PUSH1 0x1 PUSH1 0x1 PUSH1 0xA0 SHL SUB DUP5 AND SWAP1 DUP4 SWAP1 PUSH1 0x40 MLOAD PUSH2 0x3485 SWAP2 SWAP1 PUSH2 0x4338 JUMP JUMPDEST PUSH1 0x0 PUSH1 0x40 MLOAD DUP1 DUP4 SUB DUP2 DUP6 DUP8 GAS CALL SWAP3 POP POP POP RETURNDATASIZE DUP1 PUSH1 0x0 DUP2 EQ PUSH2 0x34C2 JUMPI PUSH1 0x40 MLOAD SWAP2 POP PUSH1 0x1F NOT PUSH1 0x3F RETURNDATASIZE ADD AND DUP3 ADD PUSH1 0x40 MSTORE RETURNDATASIZE DUP3 MSTORE RETURNDATASIZE PUSH1 0x0 PUSH1 0x20 DUP5 ADD RETURNDATACOPY PUSH2 0x34C7 JUMP JUMPDEST PUSH1 0x60 SWAP2 POP JUMPDEST POP POP SWAP1 POP DUP1 PUSH2 0x3535 JUMPI PUSH1 0x40 MLOAD PUSH3 0x461BCD PUSH1 0xE5 SHL DUP2 MSTORE PUSH1 0x20 PUSH1 0x4 DUP3 ADD MSTORE PUSH1 0x34 PUSH1 0x24 DUP3 ADD MSTORE PUSH32 0x5472616E7366657248656C7065723A3A736166655472616E736665724554483A PUSH1 0x44 DUP3 ADD MSTORE PUSH20 0x8115512081D1C985B9CD9995C8819985A5B1959 PUSH1 0x62 SHL PUSH1 0x64 DUP3 ADD MSTORE PUSH1 0x84 ADD PUSH2 0x66C JUMP JUMPDEST POP POP POP JUMP JUMPDEST PUSH1 0x0 DUP2 CALLDATALOAD PUSH1 0x20 DUP4 ADD CALLDATALOAD PUSH1 0x40 DUP5 ADD CALLDATALOAD CALLDATASIZE DUP5 PUSH2 0x3557 PUSH1 0x60 DUP9 ADD DUP9 PUSH2 0x455F JUMP JUMPDEST PUSH1 0x40 MLOAD PUSH12 0xFFFFFFFFFFFFFFFFFFFFFFFF NOT PUSH1 0x60 DUP14 DUP2 SHL DUP3 AND PUSH1 0x20 DUP5 ADD MSTORE DUP13 SWAP1 SHL AND PUSH1 0x34 DUP3 ADD MSTORE PUSH1 0x48 DUP2 ADD DUP9 SWAP1 MSTORE PUSH1 0x68 DUP2 ADD DUP8 SWAP1 MSTORE PUSH1 0x88 DUP2 ADD DUP7 SWAP1 MSTORE PUSH20 0x337057E45DE23832DEEC497C88AD8493F629BBD3 PUSH1 0x62 SHL PUSH1 0xA8 DUP3 ADD MSTORE SWAP2 SWAP4 POP SWAP2 POP PUSH1 0x0 SWAP1 PUSH1 0xBC ADD PUSH1 0x40 MLOAD PUSH1 0x20 DUP2 DUP4 SUB SUB DUP2 MSTORE SWAP1 PUSH1 0x40 MSTORE DUP1 MLOAD SWAP1 PUSH1 0x20 ADD KECCAK256 SWAP1 POP PUSH1 0x0 PUSH2 0x35DD DUP3 PUSH2 0x3925 JUMP JUMPDEST SWAP1 POP PUSH1 0x0 PUSH2 0x3623 DUP6 DUP6 DUP1 DUP1 PUSH1 0x1F ADD PUSH1 0x20 DUP1 SWAP2 DIV MUL PUSH1 0x20 ADD PUSH1 0x40 MLOAD SWAP1 DUP2 ADD PUSH1 0x40 MSTORE DUP1 SWAP4 SWAP3 SWAP2 SWAP1 DUP2 DUP2 MSTORE PUSH1 0x20 ADD DUP4 DUP4 DUP1 DUP3 DUP5 CALLDATACOPY PUSH1 0x0 SWAP3 ADD SWAP2 SWAP1 SWAP2 MSTORE POP DUP7 SWAP4 SWAP3 POP POP PUSH2 0x3979 SWAP1 POP JUMP JUMPDEST SWAP1 POP PUSH1 0x1 PUSH1 0x1 PUSH1 0xA0 SHL SUB DUP2 AND PUSH20 0xCDC15F917788E0CB7BB125F222B6124FD8A6EF4C EQ PUSH2 0x3691 JUMPI PUSH1 0x40 MLOAD PUSH3 0x461BCD PUSH1 0xE5 SHL DUP2 MSTORE PUSH1 0x20 PUSH1 0x4 DUP3 ADD MSTORE PUSH1 0x18 PUSH1 0x24 DUP3 ADD MSTORE PUSH32 0x434242433A20494E56414C49445F5349474E41545552452E0000000000000000 PUSH1 0x44 DUP3 ADD MSTORE PUSH1 0x64 ADD PUSH2 0x66C JUMP JUMPDEST PUSH1 0x1 PUSH1 0x1 PUSH1 0xA0 SHL SUB DUP2 AND PUSH1 0x0 SWAP1 DUP2 MSTORE PUSH1 0x1 PUSH1 0x20 SWAP1 DUP2 MSTORE PUSH1 0x40 DUP1 DUP4 KECCAK256 DUP10 DUP5 MSTORE SWAP1 SWAP2 MSTORE SWAP1 KECCAK256 SLOAD PUSH1 0xFF AND ISZERO PUSH2 0x36F8 JUMPI PUSH1 0x40 MLOAD PUSH3 0x461BCD PUSH1 0xE5 SHL DUP2 MSTORE PUSH1 0x20 PUSH1 0x4 DUP3 ADD MSTORE PUSH1 0x10 PUSH1 0x24 DUP3 ADD MSTORE PUSH16 0x434242433A20555345445F4E4F4E4345 PUSH1 0x80 SHL PUSH1 0x44 DUP3 ADD MSTORE PUSH1 0x64 ADD PUSH2 0x66C JUMP JUMPDEST PUSH1 0x1 PUSH1 0x1 PUSH1 0xA0 SHL SUB DUP1 DUP3 AND PUSH1 0x0 SWAP1 DUP2 MSTORE PUSH1 0x1 PUSH1 0x20 DUP2 DUP2 MSTORE PUSH1 0x40 DUP1 DUP5 KECCAK256 DUP12 DUP6 MSTORE SWAP1 SWAP2 MSTORE DUP1 DUP4 KECCAK256 DUP1 SLOAD PUSH1 0xFF NOT AND SWAP1 SWAP3 OR SWAP1 SWAP2 SSTORE MLOAD PUSH4 0x18797567 PUSH1 0xE0 SHL DUP2 MSTORE DUP15 DUP4 AND PUSH1 0x4 DUP3 ADD MSTORE SWAP1 SWAP2 PUSH32 0x0 AND SWAP1 PUSH4 0x18797567 SWAP1 PUSH1 0x24 ADD PUSH1 0x20 PUSH1 0x40 MLOAD DUP1 DUP4 SUB DUP2 DUP7 DUP1 EXTCODESIZE ISZERO DUP1 ISZERO PUSH2 0x3782 JUMPI PUSH1 0x0 DUP1 REVERT JUMPDEST POP GAS STATICCALL ISZERO DUP1 ISZERO PUSH2 0x3796 JUMPI RETURNDATASIZE PUSH1 0x0 DUP1 RETURNDATACOPY RETURNDATASIZE PUSH1 0x0 REVERT JUMPDEST POP POP POP POP PUSH1 0x40 MLOAD RETURNDATASIZE PUSH1 0x1F NOT PUSH1 0x1F DUP3 ADD AND DUP3 ADD DUP1 PUSH1 0x40 MSTORE POP DUP2 ADD SWAP1 PUSH2 0x37BA SWAP2 SWAP1 PUSH2 0x3A89 JUMP JUMPDEST PUSH1 0x40 MLOAD PUSH4 0x1E20D14B PUSH1 0xE0 SHL DUP2 MSTORE PUSH1 0x4 DUP2 ADD DUP12 SWAP1 MSTORE SWAP1 SWAP2 POP PUSH1 0x1 PUSH1 0x1 PUSH1 0xA0 SHL SUB DUP3 AND SWAP1 PUSH4 0x1E20D14B SWAP1 PUSH1 0x24 ADD PUSH1 0x0 PUSH1 0x40 MLOAD DUP1 DUP4 SUB DUP2 PUSH1 0x0 DUP8 DUP1 EXTCODESIZE ISZERO DUP1 ISZERO PUSH2 0x37FF JUMPI PUSH1 0x0 DUP1 REVERT JUMPDEST POP GAS CALL ISZERO DUP1 ISZERO PUSH2 0x3813 JUMPI RETURNDATASIZE PUSH1 0x0 DUP1 RETURNDATACOPY RETURNDATASIZE PUSH1 0x0 REVERT JUMPDEST POP POP PUSH1 0x40 MLOAD PUSH4 0x18797567 PUSH1 0xE0 SHL DUP2 MSTORE PUSH1 0x1 PUSH1 0x1 PUSH1 0xA0 SHL SUB DUP16 DUP2 AND PUSH1 0x4 DUP4 ADD MSTORE PUSH1 0x0 SWAP4 POP PUSH32 0x0 AND SWAP2 POP PUSH4 0x18797567 SWAP1 PUSH1 0x24 ADD PUSH1 0x20 PUSH1 0x40 MLOAD DUP1 DUP4 SUB DUP2 DUP7 DUP1 EXTCODESIZE ISZERO DUP1 ISZERO PUSH2 0x387B JUMPI PUSH1 0x0 DUP1 REVERT JUMPDEST POP GAS STATICCALL ISZERO DUP1 ISZERO PUSH2 0x388F JUMPI RETURNDATASIZE PUSH1 0x0 DUP1 RETURNDATACOPY RETURNDATASIZE PUSH1 0x0 REVERT JUMPDEST POP POP POP POP PUSH1 0x40 MLOAD RETURNDATASIZE PUSH1 0x1F NOT PUSH1 0x1F DUP3 ADD AND DUP3 ADD DUP1 PUSH1 0x40 MSTORE POP DUP2 ADD SWAP1 PUSH2 0x38B3 SWAP2 SWAP1 PUSH2 0x3A89 JUMP JUMPDEST PUSH1 0x40 MLOAD PUSH4 0x1E20D14B PUSH1 0xE0 SHL DUP2 MSTORE PUSH1 0x4 DUP2 ADD DUP12 SWAP1 MSTORE SWAP1 SWAP2 POP PUSH1 0x1 PUSH1 0x1 PUSH1 0xA0 SHL SUB DUP3 AND SWAP1 PUSH4 0x1E20D14B SWAP1 PUSH1 0x24 ADD PUSH1 0x0 PUSH1 0x40 MLOAD DUP1 DUP4 SUB DUP2 PUSH1 0x0 DUP8 DUP1 EXTCODESIZE ISZERO DUP1 ISZERO PUSH2 0x38F8 JUMPI PUSH1 0x0 DUP1 REVERT JUMPDEST POP GAS CALL ISZERO DUP1 ISZERO PUSH2 0x390C JUMPI RETURNDATASIZE PUSH1 0x0 DUP1 RETURNDATACOPY RETURNDATASIZE PUSH1 0x0 REVERT JUMPDEST POP POP POP POP PUSH1 0x1 SWAP11 POP POP POP POP POP POP POP POP POP POP POP SWAP4 SWAP3 POP POP POP JUMP JUMPDEST PUSH1 0x40 MLOAD PUSH32 0x19457468657265756D205369676E6564204D6573736167653A0A333200000000 PUSH1 0x20 DUP3 ADD MSTORE PUSH1 0x3C DUP2 ADD DUP3 SWAP1 MSTORE PUSH1 0x0 SWAP1 PUSH1 0x5C ADD PUSH1 0x40 MLOAD PUSH1 0x20 DUP2 DUP4 SUB SUB DUP2 MSTORE SWAP1 PUSH1 0x40 MSTORE DUP1 MLOAD SWAP1 PUSH1 0x20 ADD KECCAK256 SWAP1 POP JUMPDEST SWAP2 SWAP1 POP JUMP JUMPDEST PUSH1 0x0 DUP1 PUSH1 0x0 DUP1 DUP5 MLOAD PUSH1 0x41 EQ PUSH2 0x3994 JUMPI PUSH1 0x0 SWAP4 POP POP POP POP PUSH2 0x3A4C JUMP JUMPDEST POP POP POP PUSH1 0x20 DUP3 ADD MLOAD PUSH1 0x40 DUP4 ADD MLOAD PUSH1 0x60 DUP5 ADD MLOAD PUSH1 0x0 BYTE PUSH1 0x1B DUP2 LT ISZERO PUSH2 0x39C0 JUMPI PUSH2 0x39BD PUSH1 0x1B DUP3 PUSH2 0x45C3 JUMP JUMPDEST SWAP1 POP JUMPDEST DUP1 PUSH1 0xFF AND PUSH1 0x1B EQ ISZERO DUP1 ISZERO PUSH2 0x39D8 JUMPI POP DUP1 PUSH1 0xFF AND PUSH1 0x1C EQ ISZERO JUMPDEST ISZERO PUSH2 0x39E9 JUMPI PUSH1 0x0 SWAP4 POP POP POP POP PUSH2 0x3A4C JUMP JUMPDEST PUSH1 0x40 DUP1 MLOAD PUSH1 0x0 DUP2 MSTORE PUSH1 0x20 DUP2 ADD DUP1 DUP4 MSTORE DUP9 SWAP1 MSTORE PUSH1 0xFF DUP4 AND SWAP2 DUP2 ADD SWAP2 SWAP1 SWAP2 MSTORE PUSH1 0x60 DUP2 ADD DUP5 SWAP1 MSTORE PUSH1 0x80 DUP2 ADD DUP4 SWAP1 MSTORE PUSH1 0x1 SWAP1 PUSH1 0xA0 ADD PUSH1 0x20 PUSH1 0x40 MLOAD PUSH1 0x20 DUP2 SUB SWAP1 DUP1 DUP5 SUB SWAP1 DUP6 GAS STATICCALL ISZERO DUP1 ISZERO PUSH2 0x3A3C JUMPI RETURNDATASIZE PUSH1 0x0 DUP1 RETURNDATACOPY RETURNDATASIZE PUSH1 0x0 REVERT JUMPDEST POP POP POP PUSH1 0x20 PUSH1 0x40 MLOAD SUB MLOAD SWAP4 POP POP POP POP JUMPDEST SWAP3 SWAP2 POP POP JUMP JUMPDEST DUP1 CALLDATALOAD PUSH1 0x2 DUP2 LT PUSH2 0x3974 JUMPI PUSH1 0x0 DUP1 REVERT JUMPDEST PUSH1 0x0 PUSH1 0x80 DUP3 DUP5 SUB SLT ISZERO PUSH2 0x3A72 JUMPI DUP1 DUP2 REVERT JUMPDEST POP SWAP2 SWAP1 POP JUMP JUMPDEST DUP1 CALLDATALOAD PUSH1 0xFF DUP2 AND DUP2 EQ PUSH2 0x3974 JUMPI PUSH1 0x0 DUP1 REVERT JUMPDEST PUSH1 0x0 PUSH1 0x20 DUP3 DUP5 SUB SLT ISZERO PUSH2 0x3A9A JUMPI DUP1 DUP2 REVERT JUMPDEST DUP2 MLOAD PUSH2 0x3AA5 DUP2 PUSH2 0x4654 JUMP JUMPDEST SWAP4 SWAP3 POP POP POP JUMP JUMPDEST PUSH1 0x0 DUP1 PUSH1 0x0 DUP1 PUSH1 0x0 DUP1 PUSH1 0x0 PUSH1 0xE0 DUP9 DUP11 SUB SLT ISZERO PUSH2 0x3AC6 JUMPI DUP3 DUP4 REVERT JUMPDEST DUP8 CALLDATALOAD PUSH2 0x3AD1 DUP2 PUSH2 0x4654 JUMP JUMPDEST SWAP7 POP PUSH1 0x20 DUP9 ADD CALLDATALOAD PUSH2 0x3AE1 DUP2 PUSH2 0x4654 JUMP JUMPDEST SWAP6 POP PUSH2 0x3AEF PUSH1 0x40 DUP10 ADD PUSH2 0x3A78 JUMP JUMPDEST SWAP5 POP PUSH2 0x3AFD PUSH1 0x60 DUP10 ADD PUSH2 0x3A52 JUMP JUMPDEST SWAP4 POP PUSH1 0x80 DUP9 ADD CALLDATALOAD SWAP3 POP PUSH1 0xA0 DUP9 ADD CALLDATALOAD PUSH2 0x3B14 DUP2 PUSH2 0x4654 JUMP JUMPDEST DUP1 SWAP3 POP POP PUSH1 0xC0 DUP9 ADD CALLDATALOAD SWAP1 POP SWAP3 SWAP6 SWAP9 SWAP2 SWAP5 SWAP8 POP SWAP3 SWAP6 POP JUMP JUMPDEST PUSH1 0x0 DUP1 PUSH1 0x0 DUP1 PUSH1 0x0 DUP1 PUSH1 0x0 DUP1 PUSH2 0x100 DUP10 DUP12 SUB SLT ISZERO PUSH2 0x3B47 JUMPI DUP1 DUP2 REVERT JUMPDEST DUP9 CALLDATALOAD PUSH2 0x3B52 DUP2 PUSH2 0x4654 JUMP JUMPDEST SWAP8 POP PUSH1 0x20 DUP10 ADD CALLDATALOAD PUSH2 0x3B62 DUP2 PUSH2 0x4654 JUMP JUMPDEST SWAP7 POP PUSH2 0x3B70 PUSH1 0x40 DUP11 ADD PUSH2 0x3A78 JUMP JUMPDEST SWAP6 POP PUSH2 0x3B7E PUSH1 0x60 DUP11 ADD PUSH2 0x3A52 JUMP JUMPDEST SWAP5 POP PUSH1 0x80 DUP10 ADD CALLDATALOAD SWAP4 POP PUSH1 0xA0 DUP10 ADD CALLDATALOAD SWAP3 POP PUSH1 0xC0 DUP10 ADD CALLDATALOAD PUSH2 0x3B9C DUP2 PUSH2 0x4654 JUMP JUMPDEST DUP1 SWAP3 POP POP PUSH1 0xE0 DUP10 ADD CALLDATALOAD SWAP1 POP SWAP3 SWAP6 SWAP9 POP SWAP3 SWAP6 SWAP9 SWAP1 SWAP4 SWAP7 POP JUMP JUMPDEST PUSH1 0x0 DUP1 PUSH1 0x0 DUP1 PUSH1 0x0 DUP1 PUSH1 0x0 DUP1 PUSH1 0x0 PUSH2 0x180 DUP11 DUP13 SUB SLT ISZERO PUSH2 0x3BD2 JUMPI DUP1 DUP2 REVERT JUMPDEST DUP10 CALLDATALOAD PUSH2 0x3BDD DUP2 PUSH2 0x4654 JUMP JUMPDEST SWAP9 POP PUSH1 0x20 DUP11 ADD CALLDATALOAD PUSH2 0x3BED DUP2 PUSH2 0x4654 JUMP JUMPDEST SWAP8 POP PUSH2 0x3BFB PUSH1 0x40 DUP12 ADD PUSH2 0x3A78 JUMP JUMPDEST SWAP7 POP PUSH2 0x3C09 PUSH1 0x60 DUP12 ADD PUSH2 0x3A52 JUMP JUMPDEST SWAP6 POP PUSH1 0x80 DUP11 ADD CALLDATALOAD SWAP5 POP PUSH1 0xA0 DUP11 ADD CALLDATALOAD SWAP4 POP PUSH1 0xC0 DUP11 ADD CALLDATALOAD PUSH2 0x3C27 DUP2 PUSH2 0x4654 JUMP JUMPDEST SWAP3 POP PUSH1 0xE0 DUP11 ADD CALLDATALOAD SWAP2 POP PUSH2 0x3C3E DUP12 PUSH2 0x100 DUP13 ADD PUSH2 0x3A61 JUMP JUMPDEST SWAP1 POP SWAP3 SWAP6 SWAP9 POP SWAP3 SWAP6 SWAP9 POP SWAP3 SWAP6 SWAP9 JUMP JUMPDEST PUSH1 0x0 DUP1 PUSH1 0x0 DUP1 PUSH1 0x80 DUP6 DUP8 SUB SLT ISZERO PUSH2 0x3C62 JUMPI DUP4 DUP5 REVERT JUMPDEST DUP5 CALLDATALOAD PUSH2 0x3C6D DUP2 PUSH2 0x4654 JUMP JUMPDEST SWAP4 POP PUSH1 0x20 DUP6 ADD CALLDATALOAD SWAP3 POP PUSH1 0x40 DUP6 ADD CALLDATALOAD PUSH2 0x3C84 DUP2 PUSH2 0x4654 JUMP JUMPDEST SWAP4 SWAP7 SWAP3 SWAP6 POP SWAP3 SWAP4 PUSH1 0x60 ADD CALLDATALOAD SWAP3 POP POP JUMP JUMPDEST PUSH1 0x0 DUP1 PUSH1 0x0 DUP1 PUSH1 0x0 PUSH1 0xA0 DUP7 DUP9 SUB SLT ISZERO PUSH2 0x3CAB JUMPI DUP1 DUP2 REVERT JUMPDEST DUP6 CALLDATALOAD PUSH2 0x3CB6 DUP2 PUSH2 0x4654 JUMP JUMPDEST SWAP5 POP PUSH1 0x20 DUP7 ADD CALLDATALOAD SWAP4 POP PUSH1 0x40 DUP7 ADD CALLDATALOAD SWAP3 POP PUSH1 0x60 DUP7 ADD CALLDATALOAD PUSH2 0x3CD4 DUP2 PUSH2 0x4654 JUMP JUMPDEST SWAP5 SWAP8 SWAP4 SWAP7 POP SWAP2 SWAP5 PUSH1 0x80 ADD CALLDATALOAD SWAP3 SWAP2 POP POP JUMP JUMPDEST PUSH1 0x0 DUP1 PUSH1 0x0 DUP1 PUSH1 0x0 DUP1 PUSH1 0x0 DUP1 PUSH1 0x0 PUSH2 0x120 DUP11 DUP13 SUB SLT ISZERO PUSH2 0x3D03 JUMPI DUP3 DUP4 REVERT JUMPDEST DUP10 CALLDATALOAD PUSH2 0x3D0E DUP2 PUSH2 0x4654 JUMP JUMPDEST SWAP9 POP PUSH1 0x20 DUP11 ADD CALLDATALOAD SWAP8 POP PUSH1 0x40 DUP11 ADD CALLDATALOAD SWAP7 POP PUSH1 0x60 DUP11 ADD CALLDATALOAD PUSH2 0x3D2C DUP2 PUSH2 0x4654 JUMP JUMPDEST SWAP6 POP PUSH1 0x80 DUP11 ADD CALLDATALOAD SWAP5 POP PUSH1 0xA0 DUP11 ADD CALLDATALOAD PUSH2 0x3D43 DUP2 PUSH2 0x466C JUMP JUMPDEST SWAP4 POP PUSH2 0x3D51 PUSH1 0xC0 DUP12 ADD PUSH2 0x3A78 JUMP JUMPDEST SWAP3 POP PUSH1 0xE0 DUP11 ADD CALLDATALOAD SWAP2 POP PUSH2 0x100 DUP11 ADD CALLDATALOAD SWAP1 POP SWAP3 SWAP6 SWAP9 POP SWAP3 SWAP6 SWAP9 POP SWAP3 SWAP6 SWAP9 JUMP JUMPDEST PUSH1 0x0 DUP1 PUSH1 0x0 DUP1 PUSH1 0x0 DUP1 PUSH1 0xC0 DUP8 DUP10 SUB SLT ISZERO PUSH2 0x3D87 JUMPI DUP4 DUP5 REVERT JUMPDEST DUP7 CALLDATALOAD PUSH2 0x3D92 DUP2 PUSH2 0x4654 JUMP JUMPDEST SWAP6 POP PUSH2 0x3DA0 PUSH1 0x20 DUP9 ADD PUSH2 0x3A78 JUMP JUMPDEST SWAP5 POP PUSH2 0x3DAE PUSH1 0x40 DUP9 ADD PUSH2 0x3A52 JUMP JUMPDEST SWAP4 POP PUSH1 0x60 DUP8 ADD CALLDATALOAD SWAP3 POP PUSH1 0x80 DUP8 ADD CALLDATALOAD PUSH2 0x3DC5 DUP2 PUSH2 0x4654 JUMP JUMPDEST DUP1 SWAP3 POP POP PUSH1 0xA0 DUP8 ADD CALLDATALOAD SWAP1 POP SWAP3 SWAP6 POP SWAP3 SWAP6 POP SWAP3 SWAP6 JUMP JUMPDEST PUSH1 0x0 DUP1 PUSH1 0x0 DUP1 PUSH1 0x0 DUP1 PUSH1 0x0 PUSH1 0xE0 DUP9 DUP11 SUB SLT ISZERO PUSH2 0x3DF4 JUMPI DUP1 DUP2 REVERT JUMPDEST DUP8 CALLDATALOAD PUSH2 0x3DFF DUP2 PUSH2 0x4654 JUMP JUMPDEST SWAP7 POP PUSH2 0x3E0D PUSH1 0x20 DUP10 ADD PUSH2 0x3A78 JUMP JUMPDEST SWAP6 POP PUSH2 0x3E1B PUSH1 0x40 DUP10 ADD PUSH2 0x3A52 JUMP JUMPDEST SWAP5 POP PUSH1 0x60 DUP9 ADD CALLDATALOAD SWAP4 POP PUSH1 0x80 DUP9 ADD CALLDATALOAD SWAP3 POP PUSH1 0xA0 DUP9 ADD CALLDATALOAD PUSH2 0x3B14 DUP2 PUSH2 0x4654 JUMP JUMPDEST PUSH1 0x0 DUP1 PUSH1 0x0 DUP1 PUSH1 0x0 DUP1 PUSH1 0x0 DUP1 PUSH2 0x160 DUP10 DUP12 SUB SLT ISZERO PUSH2 0x3E55 JUMPI DUP2 DUP3 REVERT JUMPDEST DUP9 CALLDATALOAD PUSH2 0x3E60 DUP2 PUSH2 0x4654 JUMP JUMPDEST SWAP8 POP PUSH2 0x3E6E PUSH1 0x20 DUP11 ADD PUSH2 0x3A78 JUMP JUMPDEST SWAP7 POP PUSH2 0x3E7C PUSH1 0x40 DUP11 ADD PUSH2 0x3A52 JUMP JUMPDEST SWAP6 POP PUSH1 0x60 DUP10 ADD CALLDATALOAD SWAP5 POP PUSH1 0x80 DUP10 ADD CALLDATALOAD SWAP4 POP PUSH1 0xA0 DUP10 ADD CALLDATALOAD PUSH2 0x3E9A DUP2 PUSH2 0x4654 JUMP JUMPDEST SWAP3 POP PUSH1 0xC0 DUP10 ADD CALLDATALOAD SWAP2 POP PUSH2 0x3EB0 DUP11 PUSH1 0xE0 DUP12 ADD PUSH2 0x3A61 JUMP JUMPDEST SWAP1 POP SWAP3 SWAP6 SWAP9 POP SWAP3 SWAP6 SWAP9 SWAP1 SWAP4 SWAP7 POP JUMP JUMPDEST PUSH1 0x0 PUSH1 0x20 DUP3 DUP5 SUB SLT ISZERO PUSH2 0x3ED0 JUMPI DUP1 DUP2 REVERT JUMPDEST DUP2 CALLDATALOAD PUSH2 0x3AA5 DUP2 PUSH2 0x466C JUMP JUMPDEST PUSH1 0x0 PUSH1 0x20 DUP3 DUP5 SUB SLT ISZERO PUSH2 0x3EEC JUMPI DUP1 DUP2 REVERT JUMPDEST DUP2 MLOAD PUSH2 0x3AA5 DUP2 PUSH2 0x466C JUMP JUMPDEST PUSH1 0x0 DUP1 PUSH1 0x0 DUP1 PUSH1 0x0 DUP1 PUSH1 0x0 DUP1 PUSH2 0x100 DUP10 DUP12 SUB SLT ISZERO PUSH2 0x3F13 JUMPI DUP2 DUP3 REVERT JUMPDEST DUP9 CALLDATALOAD PUSH8 0xFFFFFFFFFFFFFFFF DUP2 GT ISZERO PUSH2 0x3F29 JUMPI DUP3 DUP4 REVERT JUMPDEST PUSH2 0x3F35 DUP12 DUP3 DUP13 ADD PUSH2 0x3A61 JUMP JUMPDEST SWAP9 POP POP PUSH1 0x20 DUP10 ADD CALLDATALOAD PUSH2 0x3F46 DUP2 PUSH2 0x4654 JUMP JUMPDEST SWAP7 POP PUSH1 0x40 DUP10 ADD CALLDATALOAD PUSH2 0x3F56 DUP2 PUSH2 0x4654 JUMP JUMPDEST SWAP6 POP PUSH2 0x3F64 PUSH1 0x60 DUP11 ADD PUSH2 0x3A78 JUMP JUMPDEST SWAP5 POP PUSH2 0x3F72 PUSH1 0x80 DUP11 ADD PUSH2 0x3A52 JUMP JUMPDEST SWAP4 POP PUSH1 0xA0 DUP10 ADD CALLDATALOAD SWAP3 POP PUSH1 0xC0 DUP10 ADD CALLDATALOAD PUSH2 0x3B9C DUP2 PUSH2 0x4654 JUMP JUMPDEST PUSH1 0x0 DUP1 PUSH1 0x0 DUP1 PUSH1 0x0 DUP1 PUSH1 0x0 DUP1 PUSH1 0x0 PUSH2 0x120 DUP11 DUP13 SUB SLT ISZERO PUSH2 0x3FA7 JUMPI DUP3 DUP4 REVERT JUMPDEST DUP10 CALLDATALOAD PUSH8 0xFFFFFFFFFFFFFFFF DUP2 GT ISZERO PUSH2 0x3FBD JUMPI DUP4 DUP5 REVERT JUMPDEST PUSH2 0x3FC9 DUP13 DUP3 DUP14 ADD PUSH2 0x3A61 JUMP JUMPDEST SWAP10 POP POP PUSH1 0x20 DUP11 ADD CALLDATALOAD PUSH2 0x3FDA DUP2 PUSH2 0x4654 JUMP JUMPDEST SWAP8 POP PUSH1 0x40 DUP11 ADD CALLDATALOAD PUSH2 0x3FEA DUP2 PUSH2 0x4654 JUMP JUMPDEST SWAP7 POP PUSH2 0x3FF8 PUSH1 0x60 DUP12 ADD PUSH2 0x3A78 JUMP JUMPDEST SWAP6 POP PUSH2 0x4006 PUSH1 0x80 DUP12 ADD PUSH2 0x3A52 JUMP JUMPDEST SWAP5 POP PUSH1 0xA0 DUP11 ADD CALLDATALOAD SWAP4 POP PUSH1 0xC0 DUP11 ADD CALLDATALOAD SWAP3 POP PUSH1 0xE0 DUP11 ADD CALLDATALOAD PUSH2 0x4024 DUP2 PUSH2 0x4654 JUMP JUMPDEST DUP1 SWAP3 POP POP PUSH2 0x100 DUP11 ADD CALLDATALOAD SWAP1 POP SWAP3 SWAP6 SWAP9 POP SWAP3 SWAP6 SWAP9 POP SWAP3 SWAP6 SWAP9 JUMP JUMPDEST PUSH1 0x0 DUP1 PUSH1 0x0 DUP1 PUSH1 0x0 DUP1 PUSH1 0x0 DUP1 PUSH1 0x0 DUP1 PUSH2 0x1A0 DUP12 DUP14 SUB SLT ISZERO PUSH2 0x405C JUMPI DUP4 DUP5 REVERT JUMPDEST DUP11 CALLDATALOAD PUSH8 0xFFFFFFFFFFFFFFFF DUP2 GT ISZERO PUSH2 0x4072 JUMPI DUP5 DUP6 REVERT JUMPDEST PUSH2 0x407E DUP14 DUP3 DUP15 ADD PUSH2 0x3A61 JUMP JUMPDEST SWAP11 POP POP PUSH1 0x20 DUP12 ADD CALLDATALOAD PUSH2 0x408F DUP2 PUSH2 0x4654 JUMP JUMPDEST SWAP9 POP PUSH1 0x40 DUP12 ADD CALLDATALOAD PUSH2 0x409F DUP2 PUSH2 0x4654 JUMP JUMPDEST SWAP8 POP PUSH2 0x40AD PUSH1 0x60 DUP13 ADD PUSH2 0x3A78 JUMP JUMPDEST SWAP7 POP PUSH2 0x40BB PUSH1 0x80 DUP13 ADD PUSH2 0x3A52 JUMP JUMPDEST SWAP6 POP PUSH1 0xA0 DUP12 ADD CALLDATALOAD SWAP5 POP PUSH1 0xC0 DUP12 ADD CALLDATALOAD SWAP4 POP PUSH1 0xE0 DUP12 ADD CALLDATALOAD PUSH2 0x40D9 DUP2 PUSH2 0x4654 JUMP JUMPDEST SWAP3 POP PUSH2 0x100 DUP12 ADD CALLDATALOAD SWAP2 POP PUSH2 0x40F1 DUP13 PUSH2 0x120 DUP14 ADD PUSH2 0x3A61 JUMP JUMPDEST SWAP1 POP SWAP3 SWAP6 SWAP9 SWAP12 SWAP2 SWAP5 SWAP8 SWAP11 POP SWAP3 SWAP6 SWAP9 POP JUMP JUMPDEST PUSH1 0x0 DUP1 PUSH1 0x0 DUP1 PUSH1 0x0 DUP1 PUSH1 0x0 PUSH1 0xE0 DUP9 DUP11 SUB SLT ISZERO PUSH2 0x411C JUMPI DUP1 DUP2 REVERT JUMPDEST DUP8 CALLDATALOAD PUSH8 0xFFFFFFFFFFFFFFFF DUP2 GT ISZERO PUSH2 0x4132 JUMPI DUP2 DUP3 REVERT JUMPDEST PUSH2 0x413E DUP11 DUP3 DUP12 ADD PUSH2 0x3A61 JUMP JUMPDEST SWAP8 POP POP PUSH1 0x20 DUP9 ADD CALLDATALOAD PUSH2 0x3AE1 DUP2 PUSH2 0x4654 JUMP JUMPDEST PUSH1 0x0 DUP1 PUSH1 0x0 DUP1 PUSH1 0x0 DUP1 PUSH1 0x0 DUP1 PUSH2 0x100 DUP10 DUP12 SUB SLT ISZERO PUSH2 0x416B JUMPI DUP2 DUP3 REVERT JUMPDEST DUP9 CALLDATALOAD PUSH8 0xFFFFFFFFFFFFFFFF DUP2 GT ISZERO PUSH2 0x4181 JUMPI DUP3 DUP4 REVERT JUMPDEST PUSH2 0x418D DUP12 DUP3 DUP13 ADD PUSH2 0x3A61 JUMP JUMPDEST SWAP9 POP POP PUSH1 0x20 DUP10 ADD CALLDATALOAD PUSH2 0x3B62 DUP2 PUSH2 0x4654 JUMP JUMPDEST PUSH1 0x0 DUP1 PUSH1 0x0 DUP1 PUSH1 0x0 DUP1 PUSH1 0x0 DUP1 PUSH1 0x0 PUSH2 0x180 DUP11 DUP13 SUB SLT ISZERO PUSH2 0x41BC JUMPI DUP3 DUP4 REVERT JUMPDEST DUP10 CALLDATALOAD PUSH8 0xFFFFFFFFFFFFFFFF DUP2 GT ISZERO PUSH2 0x41D2 JUMPI DUP4 DUP5 REVERT JUMPDEST PUSH2 0x41DE DUP13 DUP3 DUP14 ADD PUSH2 0x3A61 JUMP JUMPDEST SWAP10 POP POP PUSH1 0x20 DUP11 ADD CALLDATALOAD PUSH2 0x3BED DUP2 PUSH2 0x4654 JUMP JUMPDEST PUSH1 0x0 PUSH1 0x20 DUP3 DUP5 SUB SLT ISZERO PUSH2 0x4200 JUMPI DUP1 DUP2 REVERT JUMPDEST POP CALLDATALOAD SWAP2 SWAP1 POP JUMP JUMPDEST PUSH1 0x0 PUSH1 0x20 DUP3 DUP5 SUB SLT ISZERO PUSH2 0x4218 JUMPI DUP1 DUP2 REVERT JUMPDEST POP MLOAD SWAP2 SWAP1 POP JUMP JUMPDEST PUSH1 0x0 DUP1 PUSH1 0x0 PUSH1 0x60 DUP5 DUP7 SUB SLT ISZERO PUSH2 0x4233 JUMPI DUP1 DUP2 REVERT JUMPDEST DUP4 CALLDATALOAD SWAP3 POP PUSH1 0x20 DUP5 ADD CALLDATALOAD PUSH2 0x4245 DUP2 PUSH2 0x4654 JUMP JUMPDEST SWAP3 SWAP6 SWAP3 SWAP5 POP POP POP PUSH1 0x40 SWAP2 SWAP1 SWAP2 ADD CALLDATALOAD SWAP1 JUMP JUMPDEST PUSH1 0x0 DUP1 PUSH1 0x40 DUP4 DUP6 SUB SLT ISZERO PUSH2 0x4268 JUMPI DUP2 DUP3 REVERT JUMPDEST POP POP DUP1 MLOAD PUSH1 0x20 SWAP1 SWAP2 ADD MLOAD SWAP1 SWAP3 SWAP1 SWAP2 POP JUMP JUMPDEST PUSH1 0x0 DUP1 PUSH1 0x0 DUP1 PUSH1 0x80 DUP6 DUP8 SUB SLT ISZERO PUSH2 0x428E JUMPI DUP2 DUP3 REVERT JUMPDEST DUP5 CALLDATALOAD SWAP4 POP PUSH1 0x20 DUP6 ADD CALLDATALOAD SWAP3 POP PUSH1 0x40 DUP6 ADD CALLDATALOAD PUSH2 0x3C84 DUP2 PUSH2 0x4654 JUMP JUMPDEST PUSH1 0x0 DUP1 PUSH1 0x0 DUP1 PUSH1 0x0 DUP1 PUSH1 0x0 DUP1 PUSH2 0x100 DUP10 DUP12 SUB SLT ISZERO PUSH2 0x42C3 JUMPI DUP2 DUP3 REVERT JUMPDEST DUP9 CALLDATALOAD SWAP8 POP PUSH1 0x20 DUP10 ADD CALLDATALOAD SWAP7 POP PUSH1 0x40 DUP10 ADD CALLDATALOAD PUSH2 0x42DC DUP2 PUSH2 0x4654 JUMP JUMPDEST SWAP6 POP PUSH1 0x60 DUP10 ADD CALLDATALOAD SWAP5 POP PUSH1 0x80 DUP10 ADD CALLDATALOAD PUSH2 0x42F3 DUP2 PUSH2 0x466C JUMP JUMPDEST SWAP4 POP PUSH2 0x4301 PUSH1 0xA0 DUP11 ADD PUSH2 0x3A78 JUMP JUMPDEST SWAP3 POP PUSH1 0xC0 DUP10 ADD CALLDATALOAD SWAP2 POP PUSH1 0xE0 DUP10 ADD CALLDATALOAD SWAP1 POP SWAP3 SWAP6 SWAP9 POP SWAP3 SWAP6 SWAP9 SWAP1 SWAP4 SWAP7 POP JUMP JUMPDEST PUSH1 0x0 PUSH1 0x20 DUP3 DUP5 SUB SLT ISZERO PUSH2 0x432F JUMPI DUP1 DUP2 REVERT JUMPDEST PUSH2 0x3AA5 DUP3 PUSH2 0x3A78 JUMP JUMPDEST PUSH1 0x0 DUP3 MLOAD DUP2 JUMPDEST DUP2 DUP2 LT ISZERO PUSH2 0x4358 JUMPI PUSH1 0x20 DUP2 DUP7 ADD DUP2 ADD MLOAD DUP6 DUP4 ADD MSTORE ADD PUSH2 0x433E JUMP JUMPDEST DUP2 DUP2 GT ISZERO PUSH2 0x4366 JUMPI DUP3 DUP3 DUP6 ADD MSTORE JUMPDEST POP SWAP2 SWAP1 SWAP2 ADD SWAP3 SWAP2 POP POP JUMP JUMPDEST PUSH1 0x1 PUSH1 0x1 PUSH1 0xA0 SHL SUB SWAP4 DUP5 AND DUP2 MSTORE SWAP2 SWAP1 SWAP3 AND PUSH1 0x20 DUP3 ADD MSTORE PUSH1 0x40 DUP2 ADD SWAP2 SWAP1 SWAP2 MSTORE PUSH1 0x60 ADD SWAP1 JUMP JUMPDEST PUSH1 0x1 PUSH1 0x1 PUSH1 0xA0 SHL SUB SWAP8 DUP9 AND DUP2 MSTORE SWAP6 SWAP1 SWAP7 AND PUSH1 0x20 DUP7 ADD MSTORE PUSH1 0x40 DUP6 ADD SWAP4 SWAP1 SWAP4 MSTORE PUSH1 0x60 DUP5 ADD SWAP2 SWAP1 SWAP2 MSTORE PUSH1 0xFF AND PUSH1 0x80 DUP4 ADD MSTORE PUSH1 0xA0 DUP3 ADD MSTORE PUSH1 0xC0 DUP2 ADD SWAP2 SWAP1 SWAP2 MSTORE PUSH1 0xE0 ADD SWAP1 JUMP JUMPDEST PUSH1 0x1 PUSH1 0x1 PUSH1 0xA0 SHL SUB DUP6 DUP2 AND DUP3 MSTORE DUP5 AND PUSH1 0x20 DUP3 ADD MSTORE PUSH1 0xFF DUP4 AND PUSH1 0x40 DUP3 ADD MSTORE PUSH1 0x80 DUP2 ADD PUSH1 0x2 DUP4 LT PUSH2 0x4415 JUMPI PUSH4 0x4E487B71 PUSH1 0xE0 SHL PUSH1 0x0 MSTORE PUSH1 0x21 PUSH1 0x4 MSTORE PUSH1 0x24 PUSH1 0x0 REVERT JUMPDEST DUP3 PUSH1 0x60 DUP4 ADD MSTORE SWAP6 SWAP5 POP POP POP POP POP JUMP JUMPDEST PUSH1 0x20 DUP1 DUP3 MSTORE PUSH1 0x12 SWAP1 DUP3 ADD MSTORE PUSH18 0x21A121219D102727AA2FA1A922A0AA22A217 PUSH1 0x71 SHL PUSH1 0x40 DUP3 ADD MSTORE PUSH1 0x60 ADD SWAP1 JUMP JUMPDEST PUSH1 0x20 DUP1 DUP3 MSTORE PUSH1 0x2E SWAP1 DUP3 ADD MSTORE PUSH32 0x43626263526F757465723A20494E53554646494349454E545F534554544C454D PUSH1 0x40 DUP3 ADD MSTORE PUSH14 0x11539517D05353D5539517D3D555 PUSH1 0x92 SHL PUSH1 0x60 DUP3 ADD MSTORE PUSH1 0x80 ADD SWAP1 JUMP JUMPDEST PUSH1 0x20 DUP1 DUP3 MSTORE PUSH1 0x2D SWAP1 DUP3 ADD MSTORE PUSH32 0x434242433A3A526F757465723A2043414C4C5F46524F4D5F434F4E5452414354 PUSH1 0x40 DUP3 ADD MSTORE PUSH13 0x2FA727AA2FA0A62627ABA2A217 PUSH1 0x99 SHL PUSH1 0x60 DUP3 ADD MSTORE PUSH1 0x80 ADD SWAP1 JUMP JUMPDEST PUSH1 0x20 DUP1 DUP3 MSTORE PUSH1 0x15 SWAP1 DUP3 ADD MSTORE PUSH21 0x10D09090CE8E949BDD5D195C8E8811561412549151 PUSH1 0x5A SHL PUSH1 0x40 DUP3 ADD MSTORE PUSH1 0x60 ADD SWAP1 JUMP JUMPDEST PUSH1 0x20 DUP1 DUP3 MSTORE PUSH1 0x25 SWAP1 DUP3 ADD MSTORE PUSH32 0x434242433A205550444154455F4F5241434C455F4F525F5245424153455F4641 PUSH1 0x40 DUP3 ADD MSTORE PUSH5 0x24A622A217 PUSH1 0xD9 SHL PUSH1 0x60 DUP3 ADD MSTORE PUSH1 0x80 ADD SWAP1 JUMP JUMPDEST PUSH1 0x0 DUP1 DUP4 CALLDATALOAD PUSH1 0x1E NOT DUP5 CALLDATASIZE SUB ADD DUP2 SLT PUSH2 0x4575 JUMPI DUP3 DUP4 REVERT JUMPDEST DUP4 ADD DUP1 CALLDATALOAD SWAP2 POP PUSH8 0xFFFFFFFFFFFFFFFF DUP3 GT ISZERO PUSH2 0x458F JUMPI DUP3 DUP4 REVERT JUMPDEST PUSH1 0x20 ADD SWAP2 POP CALLDATASIZE DUP2 SWAP1 SUB DUP3 SGT ISZERO PUSH2 0x45A4 JUMPI PUSH1 0x0 DUP1 REVERT JUMPDEST SWAP3 POP SWAP3 SWAP1 POP JUMP JUMPDEST PUSH1 0x0 DUP3 NOT DUP3 GT ISZERO PUSH2 0x45BE JUMPI PUSH2 0x45BE PUSH2 0x463E JUMP JUMPDEST POP ADD SWAP1 JUMP JUMPDEST PUSH1 0x0 PUSH1 0xFF DUP3 AND PUSH1 0xFF DUP5 AND DUP1 PUSH1 0xFF SUB DUP3 GT ISZERO PUSH2 0x45E0 JUMPI PUSH2 0x45E0 PUSH2 0x463E JUMP JUMPDEST ADD SWAP4 SWAP3 POP POP POP JUMP JUMPDEST PUSH1 0x0 DUP3 PUSH2 0x4603 JUMPI PUSH4 0x4E487B71 PUSH1 0xE0 SHL DUP2 MSTORE PUSH1 0x12 PUSH1 0x4 MSTORE PUSH1 0x24 DUP2 REVERT JUMPDEST POP DIV SWAP1 JUMP JUMPDEST PUSH1 0x0 DUP2 PUSH1 0x0 NOT DIV DUP4 GT DUP3 ISZERO ISZERO AND ISZERO PUSH2 0x4622 JUMPI PUSH2 0x4622 PUSH2 0x463E JUMP JUMPDEST POP MUL SWAP1 JUMP JUMPDEST PUSH1 0x0 DUP3 DUP3 LT ISZERO PUSH2 0x4639 JUMPI PUSH2 0x4639 PUSH2 0x463E JUMP JUMPDEST POP SUB SWAP1 JUMP JUMPDEST PUSH4 0x4E487B71 PUSH1 0xE0 SHL PUSH1 0x0 MSTORE PUSH1 0x11 PUSH1 0x4 MSTORE PUSH1 0x24 PUSH1 0x0 REVERT JUMPDEST PUSH1 0x1 PUSH1 0x1 PUSH1 0xA0 SHL SUB DUP2 AND DUP2 EQ PUSH2 0x4669 JUMPI PUSH1 0x0 DUP1 REVERT JUMPDEST POP JUMP JUMPDEST DUP1 ISZERO ISZERO DUP2 EQ PUSH2 0x4669 JUMPI PUSH1 0x0 DUP1 REVERT INVALID LOG2 PUSH5 0x6970667358 0x22 SLT KECCAK256 CALLVALUE 0x21 OR MSTORE8 0xD4 0xB8 0xAD 0xBC ADDMOD PUSH14 0x193496462E352B01059879DEA994 0xCF 0xE PUSH31 0x304F132CA764736F6C63430008030033000000000000000000000000000000 "
		},
		"gasEstimates": {
			"creation": {
				"codeDepositCost": "3619200",
				"executionCost": "infinite",
				"totalCost": "infinite"
			},
			"external": {
				"WETH()": "infinite",
				"addLiquidity(address,uint256,address,uint256)": "infinite",
				"addLiquidityETH(uint256,address,uint256)": "infinite",
				"buyCbbc((uint256,uint256,uint256,bytes),address,address,uint8,uint8,uint256,address,uint256)": "infinite",
				"buyCbbc(address,address,uint8,uint8,uint256,address,uint256)": "infinite",
				"buyCbbcETH((uint256,uint256,uint256,bytes),address,uint8,uint8,uint256,address,uint256)": "infinite",
				"buyCbbcETH(address,uint8,uint8,uint256,address,uint256)": "infinite",
				"factory()": "infinite",
				"marketOracle()": "infinite",
				"orchestrator()": "infinite",
				"rebaseThreshold()": "1051",
				"removeLiquidity(address,uint256,uint256,address,uint256)": "infinite",
				"removeLiquidityETH(uint256,uint256,address,uint256)": "infinite",
				"removeLiquidityETHWithPermit(uint256,uint256,address,uint256,bool,uint8,bytes32,bytes32)": "infinite",
				"removeLiquidityWithPermit(address,uint256,uint256,address,uint256,bool,uint8,bytes32,bytes32)": "infinite",
				"sellCbbc((uint256,uint256,uint256,bytes),address,address,uint8,uint8,uint256,uint256,address,uint256)": "infinite",
				"sellCbbc(address,address,uint8,uint8,uint256,uint256,address,uint256)": "infinite",
				"sellCbbcETH((uint256,uint256,uint256,bytes),address,uint8,uint8,uint256,uint256,address,uint256)": "infinite",
				"sellCbbcETH(address,uint8,uint8,uint256,uint256,address,uint256)": "infinite",
				"sellCbbcETHWithPermit((uint256,uint256,uint256,bytes),address,uint8,uint8,uint256,uint256,address,uint256,(bool,uint8,bytes32,bytes32))": "infinite",
				"sellCbbcETHWithPermit(address,uint8,uint8,uint256,uint256,address,uint256,(bool,uint8,bytes32,bytes32))": "infinite",
				"sellCbbcWithPermit((uint256,uint256,uint256,bytes),address,address,uint8,uint8,uint256,uint256,address,uint256,(bool,uint8,bytes32,bytes32))": "infinite",
				"sellCbbcWithPermit(address,address,uint8,uint8,uint256,uint256,address,uint256,(bool,uint8,bytes32,bytes32))": "infinite",
				"setRebaseThreshold(uint256)": "infinite"
			},
			"internal": {
				"_checkIdentityAndUpdateOracle(address,address,struct ICbbcRouter.signedPrice calldata)": "infinite"
			}
		},
		"methodIdentifiers": {
			"WETH()": "ad5c4648",
			"addLiquidity(address,uint256,address,uint256)": "376d3d5d",
			"addLiquidityETH(uint256,address,uint256)": "ca88711b",
			"buyCbbc((uint256,uint256,uint256,bytes),address,address,uint8,uint8,uint256,address,uint256)": "76d6f7c8",
			"buyCbbc(address,address,uint8,uint8,uint256,address,uint256)": "456ad4b9",
			"buyCbbcETH((uint256,uint256,uint256,bytes),address,uint8,uint8,uint256,address,uint256)": "e4c9b9a1",
			"buyCbbcETH(address,uint8,uint8,uint256,address,uint256)": "92ccbf15",
			"factory()": "c45a0155",
			"marketOracle()": "60961528",
			"orchestrator()": "b74795d9",
			"rebaseThreshold()": "52d38e5d",
			"removeLiquidity(address,uint256,uint256,address,uint256)": "406e9b56",
			"removeLiquidityETH(uint256,uint256,address,uint256)": "90f4b2cc",
			"removeLiquidityETHWithPermit(uint256,uint256,address,uint256,bool,uint8,bytes32,bytes32)": "609109b8",
			"removeLiquidityWithPermit(address,uint256,uint256,address,uint256,bool,uint8,bytes32,bytes32)": "20d890b7",
			"sellCbbc((uint256,uint256,uint256,bytes),address,address,uint8,uint8,uint256,uint256,address,uint256)": "9bac59c3",
			"sellCbbc(address,address,uint8,uint8,uint256,uint256,address,uint256)": "0b499f42",
			"sellCbbcETH((uint256,uint256,uint256,bytes),address,uint8,uint8,uint256,uint256,address,uint256)": "6b983e3f",
			"sellCbbcETH(address,uint8,uint8,uint256,uint256,address,uint256)": "b2d0e620",
			"sellCbbcETHWithPermit((uint256,uint256,uint256,bytes),address,uint8,uint8,uint256,uint256,address,uint256,(bool,uint8,bytes32,bytes32))": "217bf6fb",
			"sellCbbcETHWithPermit(address,uint8,uint8,uint256,uint256,address,uint256,(bool,uint8,bytes32,bytes32))": "397ac950",
			"sellCbbcWithPermit((uint256,uint256,uint256,bytes),address,address,uint8,uint8,uint256,uint256,address,uint256,(bool,uint8,bytes32,bytes32))": "dc76e05e",
			"sellCbbcWithPermit(address,address,uint8,uint8,uint256,uint256,address,uint256,(bool,uint8,bytes32,bytes32))": "03cade7c",
			"setRebaseThreshold(uint256)": "b890ebf6"
		}
	},
	"abi": [
		{
			"inputs": [
				{
					"internalType": "contract ICbbcFactory",
					"name": "factory_",
					"type": "address"
				},
				{
					"internalType": "contract IMarketOracle",
					"name": "marketOracle_",
					"type": "address"
				},
				{
					"internalType": "contract IOrchestrator",
					"name": "orchestrator_",
					"type": "address"
				},
				{
					"internalType": "address",
					"name": "WETH_",
					"type": "address"
				}
			],
			"stateMutability": "nonpayable",
			"type": "constructor"
		},
		{
			"inputs": [],
			"name": "WETH",
			"outputs": [
				{
					"internalType": "address",
					"name": "",
					"type": "address"
				}
			],
			"stateMutability": "view",
			"type": "function"
		},
		{
			"inputs": [
				{
					"internalType": "address",
					"name": "settleToken",
					"type": "address"
				},
				{
					"internalType": "uint256",
					"name": "amountDesired",
					"type": "uint256"
				},
				{
					"internalType": "address",
					"name": "to",
					"type": "address"
				},
				{
					"internalType": "uint256",
					"name": "deadline",
					"type": "uint256"
				}
			],
			"name": "addLiquidity",
			"outputs": [
				{
					"internalType": "uint256",
					"name": "liquidity",
					"type": "uint256"
				}
			],
			"stateMutability": "nonpayable",
			"type": "function"
		},
		{
			"inputs": [
				{
					"internalType": "uint256",
					"name": "amountETH",
					"type": "uint256"
				},
				{
					"internalType": "address",
					"name": "to",
					"type": "address"
				},
				{
					"internalType": "uint256",
					"name": "deadline",
					"type": "uint256"
				}
			],
			"name": "addLiquidityETH",
			"outputs": [
				{
					"internalType": "uint256",
					"name": "liquidity",
					"type": "uint256"
				}
			],
			"stateMutability": "payable",
			"type": "function"
		},
		{
			"inputs": [
				{
					"internalType": "address",
					"name": "settleToken",
					"type": "address"
				},
				{
					"internalType": "address",
					"name": "tradeToken",
					"type": "address"
				},
				{
					"internalType": "uint8",
					"name": "leverage",
					"type": "uint8"
				},
				{
					"internalType": "enum ICbbcToken.CbbcType",
					"name": "cbbcType",
					"type": "uint8"
				},
				{
					"internalType": "uint256",
					"name": "amountDesired",
					"type": "uint256"
				},
				{
					"internalType": "address",
					"name": "to",
					"type": "address"
				},
				{
					"internalType": "uint256",
					"name": "deadline",
					"type": "uint256"
				}
			],
			"name": "buyCbbc",
			"outputs": [
				{
					"internalType": "uint256",
					"name": "cbbcAmount",
					"type": "uint256"
				}
			],
			"stateMutability": "nonpayable",
			"type": "function"
		},
		{
			"inputs": [
				{
					"components": [
						{
							"internalType": "uint256",
							"name": "settlePrice",
							"type": "uint256"
						},
						{
							"internalType": "uint256",
							"name": "tradePrice",
							"type": "uint256"
						},
						{
							"internalType": "uint256",
							"name": "nonce",
							"type": "uint256"
						},
						{
							"internalType": "bytes",
							"name": "signature",
							"type": "bytes"
						}
					],
					"internalType": "struct ICbbcRouter.signedPrice",
					"name": "signedPr",
					"type": "tuple"
				},
				{
					"internalType": "address",
					"name": "settleToken",
					"type": "address"
				},
				{
					"internalType": "address",
					"name": "tradeToken",
					"type": "address"
				},
				{
					"internalType": "uint8",
					"name": "leverage",
					"type": "uint8"
				},
				{
					"internalType": "enum ICbbcToken.CbbcType",
					"name": "cbbcType",
					"type": "uint8"
				},
				{
					"internalType": "uint256",
					"name": "amountDesired",
					"type": "uint256"
				},
				{
					"internalType": "address",
					"name": "to",
					"type": "address"
				},
				{
					"internalType": "uint256",
					"name": "deadline",
					"type": "uint256"
				}
			],
			"name": "buyCbbc",
			"outputs": [
				{
					"internalType": "uint256",
					"name": "cbbcAmount",
					"type": "uint256"
				}
			],
			"stateMutability": "nonpayable",
			"type": "function"
		},
		{
			"inputs": [
				{
					"internalType": "address",
					"name": "tradeToken",
					"type": "address"
				},
				{
					"internalType": "uint8",
					"name": "leverage",
					"type": "uint8"
				},
				{
					"internalType": "enum ICbbcToken.CbbcType",
					"name": "cbbcType",
					"type": "uint8"
				},
				{
					"internalType": "uint256",
					"name": "amountETH",
					"type": "uint256"
				},
				{
					"internalType": "address",
					"name": "to",
					"type": "address"
				},
				{
					"internalType": "uint256",
					"name": "deadline",
					"type": "uint256"
				}
			],
			"name": "buyCbbcETH",
			"outputs": [
				{
					"internalType": "uint256",
					"name": "cbbcAmount",
					"type": "uint256"
				}
			],
			"stateMutability": "payable",
			"type": "function"
		},
		{
			"inputs": [
				{
					"components": [
						{
							"internalType": "uint256",
							"name": "settlePrice",
							"type": "uint256"
						},
						{
							"internalType": "uint256",
							"name": "tradePrice",
							"type": "uint256"
						},
						{
							"internalType": "uint256",
							"name": "nonce",
							"type": "uint256"
						},
						{
							"internalType": "bytes",
							"name": "signature",
							"type": "bytes"
						}
					],
					"internalType": "struct ICbbcRouter.signedPrice",
					"name": "signedPr",
					"type": "tuple"
				},
				{
					"internalType": "address",
					"name": "tradeToken",
					"type": "address"
				},
				{
					"internalType": "uint8",
					"name": "leverage",
					"type": "uint8"
				},
				{
					"internalType": "enum ICbbcToken.CbbcType",
					"name": "cbbcType",
					"type": "uint8"
				},
				{
					"internalType": "uint256",
					"name": "amountETH",
					"type": "uint256"
				},
				{
					"internalType": "address",
					"name": "to",
					"type": "address"
				},
				{
					"internalType": "uint256",
					"name": "deadline",
					"type": "uint256"
				}
			],
			"name": "buyCbbcETH",
			"outputs": [
				{
					"internalType": "uint256",
					"name": "cbbcAmount",
					"type": "uint256"
				}
			],
			"stateMutability": "payable",
			"type": "function"
		},
		{
			"inputs": [],
			"name": "factory",
			"outputs": [
				{
					"internalType": "contract ICbbcFactory",
					"name": "",
					"type": "address"
				}
			],
			"stateMutability": "view",
			"type": "function"
		},
		{
			"inputs": [],
			"name": "marketOracle",
			"outputs": [
				{
					"internalType": "contract IMarketOracle",
					"name": "",
					"type": "address"
				}
			],
			"stateMutability": "view",
			"type": "function"
		},
		{
			"inputs": [],
			"name": "orchestrator",
			"outputs": [
				{
					"internalType": "contract IOrchestrator",
					"name": "",
					"type": "address"
				}
			],
			"stateMutability": "view",
			"type": "function"
		},
		{
			"inputs": [],
			"name": "rebaseThreshold",
			"outputs": [
				{
					"internalType": "uint256",
					"name": "",
					"type": "uint256"
				}
			],
			"stateMutability": "view",
			"type": "function"
		},
		{
			"inputs": [
				{
					"internalType": "address",
					"name": "settleToken",
					"type": "address"
				},
				{
					"internalType": "uint256",
					"name": "liquidity",
					"type": "uint256"
				},
				{
					"internalType": "uint256",
					"name": "amountMin",
					"type": "uint256"
				},
				{
					"internalType": "address",
					"name": "to",
					"type": "address"
				},
				{
					"internalType": "uint256",
					"name": "deadline",
					"type": "uint256"
				}
			],
			"name": "removeLiquidity",
			"outputs": [
				{
					"internalType": "uint256",
					"name": "amount",
					"type": "uint256"
				}
			],
			"stateMutability": "nonpayable",
			"type": "function"
		},
		{
			"inputs": [
				{
					"internalType": "uint256",
					"name": "liquidity",
					"type": "uint256"
				},
				{
					"internalType": "uint256",
					"name": "amountETHMin",
					"type": "uint256"
				},
				{
					"internalType": "address",
					"name": "to",
					"type": "address"
				},
				{
					"internalType": "uint256",
					"name": "deadline",
					"type": "uint256"
				}
			],
			"name": "removeLiquidityETH",
			"outputs": [
				{
					"internalType": "uint256",
					"name": "amountETH",
					"type": "uint256"
				}
			],
			"stateMutability": "nonpayable",
			"type": "function"
		},
		{
			"inputs": [
				{
					"internalType": "uint256",
					"name": "liquidity",
					"type": "uint256"
				},
				{
					"internalType": "uint256",
					"name": "amountETHMin",
					"type": "uint256"
				},
				{
					"internalType": "address",
					"name": "to",
					"type": "address"
				},
				{
					"internalType": "uint256",
					"name": "deadline",
					"type": "uint256"
				},
				{
					"internalType": "bool",
					"name": "approveMax",
					"type": "bool"
				},
				{
					"internalType": "uint8",
					"name": "v",
					"type": "uint8"
				},
				{
					"internalType": "bytes32",
					"name": "r",
					"type": "bytes32"
				},
				{
					"internalType": "bytes32",
					"name": "s",
					"type": "bytes32"
				}
			],
			"name": "removeLiquidityETHWithPermit",
			"outputs": [
				{
					"internalType": "uint256",
					"name": "amountETH",
					"type": "uint256"
				}
			],
			"stateMutability": "nonpayable",
			"type": "function"
		},
		{
			"inputs": [
				{
					"internalType": "address",
					"name": "settleToken",
					"type": "address"
				},
				{
					"internalType": "uint256",
					"name": "liquidity",
					"type": "uint256"
				},
				{
					"internalType": "uint256",
					"name": "amountMin",
					"type": "uint256"
				},
				{
					"internalType": "address",
					"name": "to",
					"type": "address"
				},
				{
					"internalType": "uint256",
					"name": "deadline",
					"type": "uint256"
				},
				{
					"internalType": "bool",
					"name": "approveMax",
					"type": "bool"
				},
				{
					"internalType": "uint8",
					"name": "v",
					"type": "uint8"
				},
				{
					"internalType": "bytes32",
					"name": "r",
					"type": "bytes32"
				},
				{
					"internalType": "bytes32",
					"name": "s",
					"type": "bytes32"
				}
			],
			"name": "removeLiquidityWithPermit",
			"outputs": [
				{
					"internalType": "uint256",
					"name": "amount",
					"type": "uint256"
				}
			],
			"stateMutability": "nonpayable",
			"type": "function"
		},
		{
			"inputs": [
				{
					"internalType": "address",
					"name": "settleToken",
					"type": "address"
				},
				{
					"internalType": "address",
					"name": "tradeToken",
					"type": "address"
				},
				{
					"internalType": "uint8",
					"name": "leverage",
					"type": "uint8"
				},
				{
					"internalType": "enum ICbbcToken.CbbcType",
					"name": "cbbcType",
					"type": "uint8"
				},
				{
					"internalType": "uint256",
					"name": "cbbcAmount",
					"type": "uint256"
				},
				{
					"internalType": "uint256",
					"name": "amountMin",
					"type": "uint256"
				},
				{
					"internalType": "address",
					"name": "to",
					"type": "address"
				},
				{
					"internalType": "uint256",
					"name": "deadline",
					"type": "uint256"
				}
			],
			"name": "sellCbbc",
			"outputs": [
				{
					"internalType": "uint256",
					"name": "settleAmount",
					"type": "uint256"
				}
			],
			"stateMutability": "nonpayable",
			"type": "function"
		},
		{
			"inputs": [
				{
					"components": [
						{
							"internalType": "uint256",
							"name": "settlePrice",
							"type": "uint256"
						},
						{
							"internalType": "uint256",
							"name": "tradePrice",
							"type": "uint256"
						},
						{
							"internalType": "uint256",
							"name": "nonce",
							"type": "uint256"
						},
						{
							"internalType": "bytes",
							"name": "signature",
							"type": "bytes"
						}
					],
					"internalType": "struct ICbbcRouter.signedPrice",
					"name": "signedPr",
					"type": "tuple"
				},
				{
					"internalType": "address",
					"name": "settleToken",
					"type": "address"
				},
				{
					"internalType": "address",
					"name": "tradeToken",
					"type": "address"
				},
				{
					"internalType": "uint8",
					"name": "leverage",
					"type": "uint8"
				},
				{
					"internalType": "enum ICbbcToken.CbbcType",
					"name": "cbbcType",
					"type": "uint8"
				},
				{
					"internalType": "uint256",
					"name": "cbbcAmount",
					"type": "uint256"
				},
				{
					"internalType": "uint256",
					"name": "amountMin",
					"type": "uint256"
				},
				{
					"internalType": "address",
					"name": "to",
					"type": "address"
				},
				{
					"internalType": "uint256",
					"name": "deadline",
					"type": "uint256"
				}
			],
			"name": "sellCbbc",
			"outputs": [
				{
					"internalType": "uint256",
					"name": "settleAmount",
					"type": "uint256"
				}
			],
			"stateMutability": "nonpayable",
			"type": "function"
		},
		{
			"inputs": [
				{
					"components": [
						{
							"internalType": "uint256",
							"name": "settlePrice",
							"type": "uint256"
						},
						{
							"internalType": "uint256",
							"name": "tradePrice",
							"type": "uint256"
						},
						{
							"internalType": "uint256",
							"name": "nonce",
							"type": "uint256"
						},
						{
							"internalType": "bytes",
							"name": "signature",
							"type": "bytes"
						}
					],
					"internalType": "struct ICbbcRouter.signedPrice",
					"name": "signedPr",
					"type": "tuple"
				},
				{
					"internalType": "address",
					"name": "tradeToken",
					"type": "address"
				},
				{
					"internalType": "uint8",
					"name": "leverage",
					"type": "uint8"
				},
				{
					"internalType": "enum ICbbcToken.CbbcType",
					"name": "cbbcType",
					"type": "uint8"
				},
				{
					"internalType": "uint256",
					"name": "cbbcAmount",
					"type": "uint256"
				},
				{
					"internalType": "uint256",
					"name": "amountETHMin",
					"type": "uint256"
				},
				{
					"internalType": "address",
					"name": "to",
					"type": "address"
				},
				{
					"internalType": "uint256",
					"name": "deadline",
					"type": "uint256"
				}
			],
			"name": "sellCbbcETH",
			"outputs": [
				{
					"internalType": "uint256",
					"name": "amountETH",
					"type": "uint256"
				}
			],
			"stateMutability": "nonpayable",
			"type": "function"
		},
		{
			"inputs": [
				{
					"internalType": "address",
					"name": "tradeToken",
					"type": "address"
				},
				{
					"internalType": "uint8",
					"name": "leverage",
					"type": "uint8"
				},
				{
					"internalType": "enum ICbbcToken.CbbcType",
					"name": "cbbcType",
					"type": "uint8"
				},
				{
					"internalType": "uint256",
					"name": "cbbcAmount",
					"type": "uint256"
				},
				{
					"internalType": "uint256",
					"name": "amountETHMin",
					"type": "uint256"
				},
				{
					"internalType": "address",
					"name": "to",
					"type": "address"
				},
				{
					"internalType": "uint256",
					"name": "deadline",
					"type": "uint256"
				}
			],
			"name": "sellCbbcETH",
			"outputs": [
				{
					"internalType": "uint256",
					"name": "amountETH",
					"type": "uint256"
				}
			],
			"stateMutability": "nonpayable",
			"type": "function"
		},
		{
			"inputs": [
				{
					"components": [
						{
							"internalType": "uint256",
							"name": "settlePrice",
							"type": "uint256"
						},
						{
							"internalType": "uint256",
							"name": "tradePrice",
							"type": "uint256"
						},
						{
							"internalType": "uint256",
							"name": "nonce",
							"type": "uint256"
						},
						{
							"internalType": "bytes",
							"name": "signature",
							"type": "bytes"
						}
					],
					"internalType": "struct ICbbcRouter.signedPrice",
					"name": "signedPr",
					"type": "tuple"
				},
				{
					"internalType": "address",
					"name": "tradeToken",
					"type": "address"
				},
				{
					"internalType": "uint8",
					"name": "leverage",
					"type": "uint8"
				},
				{
					"internalType": "enum ICbbcToken.CbbcType",
					"name": "cbbcType",
					"type": "uint8"
				},
				{
					"internalType": "uint256",
					"name": "cbbcAmount",
					"type": "uint256"
				},
				{
					"internalType": "uint256",
					"name": "amountETHMin",
					"type": "uint256"
				},
				{
					"internalType": "address",
					"name": "to",
					"type": "address"
				},
				{
					"internalType": "uint256",
					"name": "deadline",
					"type": "uint256"
				},
				{
					"components": [
						{
							"internalType": "bool",
							"name": "approveMax",
							"type": "bool"
						},
						{
							"internalType": "uint8",
							"name": "v",
							"type": "uint8"
						},
						{
							"internalType": "bytes32",
							"name": "r",
							"type": "bytes32"
						},
						{
							"internalType": "bytes32",
							"name": "s",
							"type": "bytes32"
						}
					],
					"internalType": "struct ICbbcRouter.permitData",
					"name": "permitData_",
					"type": "tuple"
				}
			],
			"name": "sellCbbcETHWithPermit",
			"outputs": [
				{
					"internalType": "uint256",
					"name": "amountETH",
					"type": "uint256"
				}
			],
			"stateMutability": "nonpayable",
			"type": "function"
		},
		{
			"inputs": [
				{
					"internalType": "address",
					"name": "tradeToken",
					"type": "address"
				},
				{
					"internalType": "uint8",
					"name": "leverage",
					"type": "uint8"
				},
				{
					"internalType": "enum ICbbcToken.CbbcType",
					"name": "cbbcType",
					"type": "uint8"
				},
				{
					"internalType": "uint256",
					"name": "cbbcAmount",
					"type": "uint256"
				},
				{
					"internalType": "uint256",
					"name": "amountETHMin",
					"type": "uint256"
				},
				{
					"internalType": "address",
					"name": "to",
					"type": "address"
				},
				{
					"internalType": "uint256",
					"name": "deadline",
					"type": "uint256"
				},
				{
					"components": [
						{
							"internalType": "bool",
							"name": "approveMax",
							"type": "bool"
						},
						{
							"internalType": "uint8",
							"name": "v",
							"type": "uint8"
						},
						{
							"internalType": "bytes32",
							"name": "r",
							"type": "bytes32"
						},
						{
							"internalType": "bytes32",
							"name": "s",
							"type": "bytes32"
						}
					],
					"internalType": "struct ICbbcRouter.permitData",
					"name": "permitData_",
					"type": "tuple"
				}
			],
			"name": "sellCbbcETHWithPermit",
			"outputs": [
				{
					"internalType": "uint256",
					"name": "amountETH",
					"type": "uint256"
				}
			],
			"stateMutability": "nonpayable",
			"type": "function"
		},
		{
			"inputs": [
				{
					"internalType": "address",
					"name": "settleToken",
					"type": "address"
				},
				{
					"internalType": "address",
					"name": "tradeToken",
					"type": "address"
				},
				{
					"internalType": "uint8",
					"name": "leverage",
					"type": "uint8"
				},
				{
					"internalType": "enum ICbbcToken.CbbcType",
					"name": "cbbcType",
					"type": "uint8"
				},
				{
					"internalType": "uint256",
					"name": "cbbcAmount",
					"type": "uint256"
				},
				{
					"internalType": "uint256",
					"name": "amountMin",
					"type": "uint256"
				},
				{
					"internalType": "address",
					"name": "to",
					"type": "address"
				},
				{
					"internalType": "uint256",
					"name": "deadline",
					"type": "uint256"
				},
				{
					"components": [
						{
							"internalType": "bool",
							"name": "approveMax",
							"type": "bool"
						},
						{
							"internalType": "uint8",
							"name": "v",
							"type": "uint8"
						},
						{
							"internalType": "bytes32",
							"name": "r",
							"type": "bytes32"
						},
						{
							"internalType": "bytes32",
							"name": "s",
							"type": "bytes32"
						}
					],
					"internalType": "struct ICbbcRouter.permitData",
					"name": "permitData_",
					"type": "tuple"
				}
			],
			"name": "sellCbbcWithPermit",
			"outputs": [
				{
					"internalType": "uint256",
					"name": "amount",
					"type": "uint256"
				}
			],
			"stateMutability": "nonpayable",
			"type": "function"
		},
		{
			"inputs": [
				{
					"components": [
						{
							"internalType": "uint256",
							"name": "settlePrice",
							"type": "uint256"
						},
						{
							"internalType": "uint256",
							"name": "tradePrice",
							"type": "uint256"
						},
						{
							"internalType": "uint256",
							"name": "nonce",
							"type": "uint256"
						},
						{
							"internalType": "bytes",
							"name": "signature",
							"type": "bytes"
						}
					],
					"internalType": "struct ICbbcRouter.signedPrice",
					"name": "signedPr",
					"type": "tuple"
				},
				{
					"internalType": "address",
					"name": "settleToken",
					"type": "address"
				},
				{
					"internalType": "address",
					"name": "tradeToken",
					"type": "address"
				},
				{
					"internalType": "uint8",
					"name": "leverage",
					"type": "uint8"
				},
				{
					"internalType": "enum ICbbcToken.CbbcType",
					"name": "cbbcType",
					"type": "uint8"
				},
				{
					"internalType": "uint256",
					"name": "cbbcAmount",
					"type": "uint256"
				},
				{
					"internalType": "uint256",
					"name": "amountMin",
					"type": "uint256"
				},
				{
					"internalType": "address",
					"name": "to",
					"type": "address"
				},
				{
					"internalType": "uint256",
					"name": "deadline",
					"type": "uint256"
				},
				{
					"components": [
						{
							"internalType": "bool",
							"name": "approveMax",
							"type": "bool"
						},
						{
							"internalType": "uint8",
							"name": "v",
							"type": "uint8"
						},
						{
							"internalType": "bytes32",
							"name": "r",
							"type": "bytes32"
						},
						{
							"internalType": "bytes32",
							"name": "s",
							"type": "bytes32"
						}
					],
					"internalType": "struct ICbbcRouter.permitData",
					"name": "permitData_",
					"type": "tuple"
				}
			],
			"name": "sellCbbcWithPermit",
			"outputs": [
				{
					"internalType": "uint256",
					"name": "amount",
					"type": "uint256"
				}
			],
			"stateMutability": "nonpayable",
			"type": "function"
		},
		{
			"inputs": [
				{
					"internalType": "uint256",
					"name": "threshold_",
					"type": "uint256"
				}
			],
			"name": "setRebaseThreshold",
			"outputs": [],
			"stateMutability": "nonpayable",
			"type": "function"
		},
		{
			"stateMutability": "payable",
			"type": "receive"
		}
	]
}