{
	"data": {
		"bytecode": {
			"linkReferences": {},
			"object": "6080604052670de0b6b3a7640000609c55600160a85534801561002157600080fd5b506155ba80620000326000396000f3fe608060405234801561001057600080fd5b506004361061027f5760003560e01c80638da5cb5b1161015c578063c0d78655116100ce578063dd62ed3e11610087578063dd62ed3e146105a5578063ddd6f962146105de578063df896754146105e7578063e1b11da4146105fa578063f2fde38b14610621578063f887ea40146106345761027f565b8063c0d7865514610533578063c45a015514610546578063c4d66de814610559578063d505accf1461056c578063d83678ac1461057f578063d9131384146105925761027f565b80639faa3c91116101205780639faa3c91146104d6578063a3a7e7f3146104df578063a457c2d7146104f2578063a9059cbb14610505578063b1bf962d14610518578063bbb1863a146105205761027f565b80638da5cb5b1461048e5780638f32d59b1461049f578063903cd3e3146104b357806395d89b41146104c65780639d1b464a146104ce5761027f565b80633644e515116101f5578063715018a6116101b9578063715018a6146103ec57806374e14eb8146103f4578063781603761461041f5780637a43e23f1461043f5780637ecebe001461045257806384d4b4101461047b5761027f565b80633644e5151461038a5780633697c5621461039257806339509351146103a55780633c974946146103b857806370a08231146103d95761027f565b80631da24f3e116102475780631da24f3e146102f957806323b872dd1461030c5780632c86d98e1461031f5780632d54a21b1461034557806330adf81f14610358578063313ce5671461037f5761027f565b806306fdde031461028457806308a3809d146102a2578063095ea7b3146102b95780631624f6c6146102dc57806318160ddd146102f1575b600080fd5b61028c610647565b6040516102999190615136565b60405180910390f35b6102ab609d5481565b604051908152602001610299565b6102cc6102c7366004614d10565b6106da565b6040519015158152602001610299565b6102ef6102ea366004614e61565b610735565b005b609b546102ab565b6102ab610307366004614bf0565b6107f2565b6102cc61031a366004614c60565b610811565b60a75461033390600160a01b900460ff1681565b60405160ff9091168152602001610299565b6102ab610353366004614d10565b6109b6565b6102ab7f6e71edae12b1b97f4d1f60370fef10105fa2faae0126114a169c64845d6126c981565b60355460ff16610333565b6102ab610bf1565b6102ab6103a0366004614d10565b610c9d565b6102cc6103b3366004614d10565b610f46565b60a7546103cc90600160a81b900460ff1681565b6040516102999190615128565b6102ab6103e7366004614bf0565b610ff0565b6102ef611017565b60a754610407906001600160a01b031681565b6040516001600160a01b039091168152602001610299565b61028c604051806040016040528060018152602001603160f81b81525081565b6102ab61044d366004614ed6565b61107e565b6102ab610460366004614bf0565b6001600160a01b0316600090815260a0602052604090205490565b6102cc610489366004614c28565b61142d565b6068546001600160a01b0316610407565b6102cc6068546001600160a01b0316331490565b6102ef6104c1366004614d3b565b6115c4565b61028c611cf3565b6102ab611d02565b6102ab609f5481565b6102cc6104ed366004614bf0565b611d30565b6102cc610500366004614d10565b611e3a565b6102cc610513366004614d10565b611ef8565b6102ab61200b565b60a454610407906001600160a01b031681565b6102ef610541366004614bf0565b612022565b60a354610407906001600160a01b031681565b6102ef610567366004614bf0565b612093565b6102ef61057a366004614ca0565b612117565b60a654610407906001600160a01b031681565b6102ef6105a0366004614dc7565b612352565b6102ab6105b3366004614c28565b6001600160a01b03918216600090815260a26020908152604080832093909416825291909152205490565b6102ab609e5481565b6102ef6105f5366004614bf0565b6123a4565b6102ab7f8b73c3c69bb8fe3d512ecc4cf759cc79239f7b179b0ffacaa9a75d522b39400f81565b6102ef61062f366004614bf0565b612470565b60a554610407906001600160a01b031681565b60606033805461065690615453565b80601f016020809104026020016040519081016040528092919081815260200182805461068290615453565b80156106cf5780601f106106a4576101008083540402835291602001916106cf565b820191906000526020600020905b8154815290600101906020018083116106b257829003601f168201915b505050505090505b90565b33600081815260a2602090815260408083206001600160a01b03871680855292528083208590555191929091600080516020615565833981519152906107239086815260200190565b60405180910390a35060015b92915050565b600054610100900460ff168061074a5750303b155b80610758575060005460ff16155b61077d5760405162461bcd60e51b8152600401610774906151f3565b60405180910390fd5b6000805461ffff19811661010117909155835161010090910460ff16906107ab906033906020870190614b06565b5082516107bf906034906020860190614b06565b506035805460ff90931660ff1990931692909217909155600080549115156101000261ff00199092169190911790555050565b6001600160a01b038116600090815260a160205260409020545b919050565b6000826001600160a01b03811661083a5760405162461bcd60e51b8152600401610774906151b1565b73eb31973e0febf3e3d7058234a5ebbae1ab4b8c236001600160a01b03821614156108775760405162461bcd60e51b815260040161077490615169565b6001600160a01b038516600090815260a260209081526040808320338452909152902054600019146108f7576001600160a01b038516600090815260a2602090815260408083203384529091529020546108d290849061540c565b6001600160a01b038616600090815260a2602090815260408083203384529091529020555b6000609c548461090791906153ed565b6001600160a01b038716600090815260a1602052604090205490915061092e90829061540c565b6001600160a01b03808816600090815260a16020526040808220939093559087168152205461095e90829061529a565b6001600160a01b03808716600081815260a160205260409081902093909355915190881690600080516020615545833981519152906109a09088815260200190565b60405180910390a360019250505b509392505050565b600060a8546001146109f95760405162461bcd60e51b815260206004820152600c60248201526b10d09090ce881313d0d2d15160a21b6044820152606401610774565b600060a85560a5546001600160a01b03163314610a4b5760405162461bcd60e51b815260206004820152601060248201526f21a121219d102727aa2fa927aaaa22a960811b6044820152606401610774565b610a553083612499565b905060008111610ab35760405162461bcd60e51b8152602060048201526024808201527f434242433a20494e53554646494349454e545f534554544c455f544f4b454e5f60448201526327aaaa1760e11b6064820152608401610774565b60a35460a754604051634c22f48960e11b81526001600160a01b0391821660048201526000929190911690639845e9129060240160206040518083038186803b158015610aff57600080fd5b505afa158015610b13573d6000803e3d6000fd5b505050506040513d601f19601f82011682018060405250810190610b379190614c0c565b9050610b433084612c44565b60405163ce2d30dd60e01b81526001600160a01b0385811660048301526024820184905282169063ce2d30dd90604401600060405180830381600087803b158015610b8d57600080fd5b505af1158015610ba1573d6000803e3d6000fd5b50506040518481526001600160a01b03871692503391507fdbdf9b8e4b75e75b162d151ec8fc7f0561cabab5fcccfa2600be62223e4300c49060200160405180910390a350600160a85592915050565b6000467f8b73c3c69bb8fe3d512ecc4cf759cc79239f7b179b0ffacaa9a75d522b39400f610c1d610647565b805160209182012060408051808201825260018152603160f81b90840152805192830193909352918101919091527fc89efdaa54c0f20c7adf612882df0950f5a951637e0307cdcb4c672f298b8bc66060820152608081018290523060a082015260c0016040516020818303038152906040528051906020012091505090565b600060a854600114610ce05760405162461bcd60e51b815260206004820152600c60248201526b10d09090ce881313d0d2d15160a21b6044820152606401610774565b600060a85560a5546001600160a01b03163314610d325760405162461bcd60e51b815260206004820152601060248201526f21a121219d102727aa2fa927aaaa22a960811b6044820152606401610774565b609b54610e875742609d5560a45460408051630c12c2a560e31b815290516001600160a01b0390921691636096152891600480820192602092909190829003018186803b158015610d8257600080fd5b505afa158015610d96573d6000803e3d6000fd5b505050506040513d601f19601f82011682018060405250810190610dba9190614c0c565b60a6546040516341976e0960e01b81526001600160a01b0391821660048201529116906341976e0990602401604080518083038186803b158015610dfd57600080fd5b505afa158015610e11573d6000803e3d6000fd5b505050506040513d601f19601f82011682018060405250810190610e359190614ef7565b50609e819055610e875760405162461bcd60e51b815260206004820152601a60248201527f434242433a20494c4c4547414c5f54524144455f50524943452e0000000000006044820152606401610774565b610e913083612ccb565b905060008111610eee5760405162461bcd60e51b815260206004820152602260248201527f434242433a20494e53554646494349454e545f434242435f544f4b454e5f4f556044820152612a1760f11b6064820152608401610774565b610ef883826132f0565b826001600160a01b03167f0f6798a560793a54c3bcfe86a93cde1e73087d944c0ea20544137d412139688582604051610f3391815260200190565b60405180910390a2600160a85592915050565b33600090815260a2602090815260408083206001600160a01b038616845290915281205460001914610fab5733600090815260a2602090815260408083206001600160a01b038716845290915281208054849290610fa590849061529a565b90915550505b33600081815260a2602090815260408083206001600160a01b038816808552908352928190205490519081529192916000805160206155658339815191529101610723565b609c546001600160a01b038216600090815260a16020526040812054909161072f916152b2565b61102b6068546001600160a01b0316331490565b61103457600080fd5b6068546040516001600160a01b03909116907ff8df31144d9c2f0f6b59d69b8b98abd5459d07f2742c4df920b25aae33c6482090600090a2606880546001600160a01b0319169055565b60a4546000906001600160a01b031633146110db5760405162461bcd60e51b815260206004820152601760248201527f434242433a204e4f545f5245424153455f504f4c4943590000000000000000006044820152606401610774565b8161123a5742609d5560a45460408051630c12c2a560e31b815290516001600160a01b0390921691636096152891600480820192602092909190829003018186803b15801561112957600080fd5b505afa15801561113d573d6000803e3d6000fd5b505050506040513d601f19601f820116820180604052508101906111619190614c0c565b60a6546040516341976e0960e01b81526001600160a01b0391821660048201529116906341976e0990602401604080518083038186803b1580156111a457600080fd5b505afa1580156111b8573d6000803e3d6000fd5b505050506040513d601f19601f820116820180604052508101906111dc9190614ef7565b50609e819055609d54609b5460405186937fa9219328b62d2057317e0a7d7634032c7caca3f5b8230d51b25e957efc67dbf493611229939083526020830191909152604082015260600190565b60405180910390a250609b5461072f565b609b5460009081841215611262576112518461336d565b61125b908261540c565b9150611288565b61126c848261529a565b91506001600160801b03821115611288576001600160801b0391505b8181609c5461129791906153ed565b6112a191906152b2565b609c556112b76001600160801b036000196152b2565b609c5411156112d7576112d36001600160801b036000196152b2565b609c555b609b82905542609d5560a45460408051630c12c2a560e31b815290516001600160a01b0390921691636096152891600480820192602092909190829003018186803b15801561132557600080fd5b505afa158015611339573d6000803e3d6000fd5b505050506040513d601f19601f8201168201806040525081019061135d9190614c0c565b60a6546040516341976e0960e01b81526001600160a01b0391821660048201529116906341976e0990602401604080518083038186803b1580156113a057600080fd5b505afa1580156113b4573d6000803e3d6000fd5b505050506040513d601f19601f820116820180604052508101906113d89190614ef7565b50609e819055609d5460408051918252602082019290925290810183905285907fa9219328b62d2057317e0a7d7634032c7caca3f5b8230d51b25e957efc67dbf49060600160405180910390a2509392505050565b6000816001600160a01b0381166114565760405162461bcd60e51b8152600401610774906151b1565b73eb31973e0febf3e3d7058234a5ebbae1ab4b8c236001600160a01b03821614156114935760405162461bcd60e51b815260040161077490615169565b6001600160a01b038416600090815260a16020526040812054609c549091906114bc90836152b2565b6001600160a01b038716600090815260a2602090815260408083203384529091529020549091506000191461153f576001600160a01b038616600090815260a26020908152604080832033845290915290205461151a90829061540c565b6001600160a01b038716600090815260a2602090815260408083203384529091529020555b6001600160a01b03808716600090815260a160205260408082208290559187168152205461156e90839061529a565b6001600160a01b03808716600081815260a160205260409081902093909355915190881690600080516020615545833981519152906115b09085815260200190565b60405180910390a350600195945050505050565b600054610100900460ff16806115d95750303b155b806115e7575060005460ff16155b6116035760405162461bcd60e51b8152600401610774906151f3565b6000805461ffff198116610101178255610100900460ff1690606090819084600181111561164157634e487b7160e01b600052602160045260246000fd5b141561189e576116538560ff16613397565b604051637d85959b60e11b81526001600160a01b0388811660048301528a169063fb0b2b369060240160006040518083038186803b15801561169457600080fd5b505afa1580156116a8573d6000803e3d6000fd5b505050506040513d6000823e601f3d908101601f191682016040526116d09190810190614df7565b604051637d85959b60e11b81526001600160a01b038a811660048301528b169063fb0b2b369060240160006040518083038186803b15801561171157600080fd5b505afa158015611725573d6000803e3d6000fd5b505050506040513d6000823e601f3d908101601f1916820160405261174d9190810190614df7565b60405160200161175f93929190614ffb565b604051602081830303815290604052915061177c8560ff16613397565b604051637d85959b60e11b81526001600160a01b0388811660048301528a169063fb0b2b369060240160006040518083038186803b1580156117bd57600080fd5b505afa1580156117d1573d6000803e3d6000fd5b505050506040513d6000823e601f3d908101601f191682016040526117f99190810190614df7565b604051637d85959b60e11b81526001600160a01b038a811660048301528b169063fb0b2b369060240160006040518083038186803b15801561183a57600080fd5b505afa15801561184e573d6000803e3d6000fd5b505050506040513d6000823e601f3d908101601f191682016040526118769190810190614df7565b6040516020016118889392919061506c565b6040516020818303038152906040529050611b42565b60018460018111156118c057634e487b7160e01b600052602160045260246000fd5b1415611b07576118d28560ff16613397565b604051637d85959b60e11b81526001600160a01b0388811660048301528a169063fb0b2b369060240160006040518083038186803b15801561191357600080fd5b505afa158015611927573d6000803e3d6000fd5b505050506040513d6000823e601f3d908101601f1916820160405261194f9190810190614df7565b604051637d85959b60e11b81526001600160a01b038a811660048301528b169063fb0b2b369060240160006040518083038186803b15801561199057600080fd5b505afa1580156119a4573d6000803e3d6000fd5b505050506040513d6000823e601f3d908101601f191682016040526119cc9190810190614df7565b6040516020016119de93929190614f9b565b60405160208183030381529060405291506119fb8560ff16613397565b604051637d85959b60e11b81526001600160a01b0388811660048301528a169063fb0b2b369060240160006040518083038186803b158015611a3c57600080fd5b505afa158015611a50573d6000803e3d6000fd5b505050506040513d6000823e601f3d908101601f19168201604052611a789190810190614df7565b604051637d85959b60e11b81526001600160a01b038a811660048301528b169063fb0b2b369060240160006040518083038186803b158015611ab957600080fd5b505afa158015611acd573d6000803e3d6000fd5b505050506040513d6000823e601f3d908101601f19168201604052611af59190810190614df7565b60405160200161188893929190614f58565b60405162461bcd60e51b815260206004820152601060248201526f434242433a2057524f4e475f5459504560801b6044820152606401610774565b611b4e82826012610735565b611b5733612093565b60a380546001600160a01b03199081166001600160a01b038b81169190911790925560a7805460a680549093168a8516179092559189166001600160a81b031990911617600160a01b60ff8816021780825585919060ff60a81b1916600160a81b836001811115611bd857634e487b7160e01b600052602160045260246000fd5b021790555060a75460a65460405163b5663a9960e01b81526001600160a01b03808c169363b5663a9993611c2f9382841693919091169160ff600160a01b8204811692600160a81b909204169030906004016150bf565b600060405180830381600087803b158015611c4957600080fd5b505af1158015611c5d573d6000803e3d6000fd5b505060a65460a7546040516001600160a01b03928316945091811692507fca8075cefdc80bb9531729cb4dfb80aaa9cb4932af090e52cfbddd81c187ad8e91611cbc91309160ff600160a01b8304811692600160a81b90041690615102565b60405180910390a3505060a7805461ffff60b01b19169055600080549115156101000261ff00199092169190911790555050505050565b60606034805461065690615453565b6000609b5460001415611d2257611d1b6012600a61530c565b90506106d7565b611d1b30600080600061352d565b6000816001600160a01b038116611d595760405162461bcd60e51b8152600401610774906151b1565b73eb31973e0febf3e3d7058234a5ebbae1ab4b8c236001600160a01b0382161415611d965760405162461bcd60e51b815260040161077490615169565b33600090815260a16020526040812054609c54909190611db690836152b2565b33600090815260a160205260408082208290556001600160a01b0388168252902054909150611de690839061529a565b6001600160a01b038616600081815260a1602052604090819020929092559051339060008051602061554583398151915290611e259085815260200190565b60405180910390a36001935050505b50919050565b33600090815260a2602090815260408083206001600160a01b03861684529091528120546000198114611ea65780831015611e7e57611e79838261540c565b611e81565b60005b33600090815260a2602090815260408083206001600160a01b03891684529091529020555b33600081815260a2602090815260408083206001600160a01b03891680855290835292819020549051908152919291600080516020615565833981519152910160405180910390a35060019392505050565b6000826001600160a01b038116611f215760405162461bcd60e51b8152600401610774906151b1565b73eb31973e0febf3e3d7058234a5ebbae1ab4b8c236001600160a01b0382161415611f5e5760405162461bcd60e51b815260040161077490615169565b6000609c5484611f6e91906153ed565b33600090815260a16020526040902054909150611f8c90829061540c565b33600090815260a16020526040808220929092556001600160a01b03871681522054611fb990829061529a565b6001600160a01b038616600081815260a1602052604090819020929092559051339060008051602061554583398151915290611ff89088815260200190565b60405180910390a3506001949350505050565b6000609c54609b5461201d91906153ed565b905090565b6120366068546001600160a01b0316331490565b61203f57600080fd5b60a580546001600160a01b0319166001600160a01b0383169081179091556040519081527e4a100c1311e1c30d22c9ee16306a164be79db67aedef8b90ffc4d244cd003a906020015b60405180910390a150565b600054610100900460ff16806120a85750303b155b806120b6575060005460ff16155b6120d25760405162461bcd60e51b8152600401610774906151f3565b60008054606880546001600160a01b0319166001600160a01b03949094169390931790925561ffff1982166101009283900460ff161515909202919091176001179055565b834211156121605760405162461bcd60e51b8152602060048201526016602482015275434242433a3a7065726d69743a20455850495245442160501b6044820152606401610774565b6001600160a01b03878116600081815260a0602081815260408084205481517f6e71edae12b1b97f4d1f60370fef10105fa2faae0126114a169c64845d6126c99381019390935290820194909452938a16606085015260808401899052830182905260c08301879052909160e00160405160208183030381529060405280519060200120905060006121f0610bf1565b60405161190160f01b602082015260228101919091526042810183905260620160408051601f1981840301815282825280516020918201206000845290830180835281905260ff8916918301919091526060820187905260808201869052915060019060a0016020604051602081039080840390855afa158015612278573d6000803e3d6000fd5b505050602060405103516001600160a01b03168a6001600160a01b0316146122e25760405162461bcd60e51b815260206004820152601760248201527f434242433a20494e56414c49445f5349474e41545552450000000000000000006044820152606401610774565b6122ed83600161529a565b6001600160a01b038b8116600081815260a0602090815260408083209590955560a28152848220938e16808352938152908490208c905592518b815291929091600080516020615565833981519152910160405180910390a350505050505050505050565b6123666068546001600160a01b0316331490565b61236f57600080fd5b609f8190556040518181527f72263207fb67ff82292d08dcd9e132bfd605a952099610b513982c70b38616e390602001612088565b6123b86068546001600160a01b0316331490565b806123cb5750336001600160a01b038216145b6124225760405162461bcd60e51b815260206004820152602260248201527f434242433a205345545f5245424153455f504f4c4943595f464f524249444445604482015261271760f11b6064820152608401610774565b60a480546001600160a01b0319166001600160a01b0383169081179091556040519081527f1b2a6eed04caac6e24de29faf0d56a1000f33980e10f682e1a01e7caa097e7ed90602001612088565b6124846068546001600160a01b0316331490565b61248d57600080fd5b6124968161419b565b50565b600080836001600160a01b031663bbb1863a6040518163ffffffff1660e01b815260040160206040518083038186803b1580156124d557600080fd5b505afa1580156124e9573d6000803e3d6000fd5b505050506040513d601f19601f8201168201806040525081019061250d9190614c0c565b6001600160a01b031663609615286040518163ffffffff1660e01b815260040160206040518083038186803b15801561254557600080fd5b505afa158015612559573d6000803e3d6000fd5b505050506040513d601f19601f8201168201806040525081019061257d9190614c0c565b6001600160a01b03166341976e09856001600160a01b031663d83678ac6040518163ffffffff1660e01b815260040160206040518083038186803b1580156125c457600080fd5b505afa1580156125d8573d6000803e3d6000fd5b505050506040513d601f19601f820116820180604052508101906125fc9190614c0c565b6040516001600160e01b031960e084901b1681526001600160a01b039091166004820152602401604080518083038186803b15801561263a57600080fd5b505afa15801561264e573d6000803e3d6000fd5b505050506040513d601f19601f820116820180604052508101906126729190614ef7565b915043905061268260c88361529a565b10156126d05760405162461bcd60e51b815260206004820152601b60248201527f434242433a20544f4b454e5f50524943455f4f555444415445442e00000000006044820152606401610774565b6000846001600160a01b03166374e14eb86040518163ffffffff1660e01b815260040160206040518083038186803b15801561270b57600080fd5b505afa15801561271f573d6000803e3d6000fd5b505050506040513d601f19601f820116820180604052508101906127439190614c0c565b9050600080866001600160a01b031663bbb1863a6040518163ffffffff1660e01b815260040160206040518083038186803b15801561278157600080fd5b505afa158015612795573d6000803e3d6000fd5b505050506040513d601f19601f820116820180604052508101906127b99190614c0c565b6001600160a01b031663609615286040518163ffffffff1660e01b815260040160206040518083038186803b1580156127f157600080fd5b505afa158015612805573d6000803e3d6000fd5b505050506040513d601f19601f820116820180604052508101906128299190614c0c565b6040516341976e0960e01b81526001600160a01b03858116600483015291909116906341976e0990602401604080518083038186803b15801561286b57600080fd5b505afa15801561287f573d6000803e3d6000fd5b505050506040513d601f19601f820116820180604052508101906128a39190614ef7565b9092509050436128b460c88361529a565b10156129025760405162461bcd60e51b815260206004820152601b60248201527f434242433a20544f4b454e5f50524943455f4f555444415445442e00000000006044820152606401610774565b600082116129525760405162461bcd60e51b815260206004820152601b60248201527f434242433a20494c4c4547414c5f534554544c455f50524943452e00000000006044820152606401610774565b6000876001600160a01b031663c45a01556040518163ffffffff1660e01b815260040160206040518083038186803b15801561298d57600080fd5b505afa1580156129a1573d6000803e3d6000fd5b505050506040513d601f19601f820116820180604052508101906129c59190614c0c565b604051634c22f48960e11b81526001600160a01b0386811660048301529190911690639845e9129060240160206040518083038186803b158015612a0857600080fd5b505afa158015612a1c573d6000803e3d6000fd5b505050506040513d601f19601f82011682018060405250810190612a409190614c0c565b90506000886001600160a01b0316632c86d98e6040518163ffffffff1660e01b815260040160206040518083038186803b158015612a7d57600080fd5b505afa158015612a91573d6000803e3d6000fd5b505050506040513d601f19601f82011682018060405250810190612ab59190614f1a565b60ff1690506000856001600160a01b031663313ce5676040518163ffffffff1660e01b815260040160206040518083038186803b158015612af557600080fd5b505afa158015612b09573d6000803e3d6000fd5b505050506040513d601f19601f82011682018060405250810190612b2d9190614f1a565b60ff1690506000612b428b60008c600161352d565b90506000612710612b548560036153ed565b612b609061271061540c565b670de0b6b3a7640000612b73858f6153ed565b612b7d91906152b2565b612b8791906153ed565b612b9191906152b2565b9050612c3487612ba285600a61530c565b612bac90846153ed565b612bb691906152b2565b6040516370a0823160e01b81526001600160a01b0388811660048301528b16906370a082319060240160206040518083038186803b158015612bf757600080fd5b505afa158015612c0b573d6000803e3d6000fd5b505050506040513d601f19601f82011682018060405250810190612c2f9190614ddf565b61420a565b9c9b505050505050505050505050565b609c54612c5190826153ed565b6001600160a01b038316600090815260a1602052604081208054909190612c7990849061540c565b9250508190555080609b6000828254612c92919061540c565b90915550506040518181526000906001600160a01b03841690600080516020615545833981519152906020015b60405180910390a35050565b6000806000846001600160a01b031663bbb1863a6040518163ffffffff1660e01b815260040160206040518083038186803b158015612d0957600080fd5b505afa158015612d1d573d6000803e3d6000fd5b505050506040513d601f19601f82011682018060405250810190612d419190614c0c565b6001600160a01b031663609615286040518163ffffffff1660e01b815260040160206040518083038186803b158015612d7957600080fd5b505afa158015612d8d573d6000803e3d6000fd5b505050506040513d601f19601f82011682018060405250810190612db19190614c0c565b6001600160a01b03166341976e09866001600160a01b031663d83678ac6040518163ffffffff1660e01b815260040160206040518083038186803b158015612df857600080fd5b505afa158015612e0c573d6000803e3d6000fd5b505050506040513d601f19601f82011682018060405250810190612e309190614c0c565b6040516001600160e01b031960e084901b1681526001600160a01b039091166004820152602401604080518083038186803b158015612e6e57600080fd5b505afa158015612e82573d6000803e3d6000fd5b505050506040513d601f19601f82011682018060405250810190612ea69190614ef7565b9250439050612eb660c88461529a565b1015612f045760405162461bcd60e51b815260206004820152601b60248201527f434242433a2054524144455f50524943455f4f555444415445442e00000000006044820152606401610774565b6000856001600160a01b03166374e14eb86040518163ffffffff1660e01b815260040160206040518083038186803b158015612f3f57600080fd5b505afa158015612f53573d6000803e3d6000fd5b505050506040513d601f19601f82011682018060405250810190612f779190614c0c565b9050856001600160a01b031663bbb1863a6040518163ffffffff1660e01b815260040160206040518083038186803b158015612fb257600080fd5b505afa158015612fc6573d6000803e3d6000fd5b505050506040513d601f19601f82011682018060405250810190612fea9190614c0c565b6001600160a01b031663609615286040518163ffffffff1660e01b815260040160206040518083038186803b15801561302257600080fd5b505afa158015613036573d6000803e3d6000fd5b505050506040513d601f19601f8201168201806040525081019061305a9190614c0c565b6040516341976e0960e01b81526001600160a01b03838116600483015291909116906341976e0990602401604080518083038186803b15801561309c57600080fd5b505afa1580156130b0573d6000803e3d6000fd5b505050506040513d601f19601f820116820180604052508101906130d49190614ef7565b93509150436130e460c88561529a565b10156131325760405162461bcd60e51b815260206004820152601c60248201527f434242433a20534554544c455f50524943455f4f555444415445442e000000006044820152606401610774565b600082116131825760405162461bcd60e51b815260206004820152601b60248201527f434242433a20494c4c4547414c5f534554544c455f50524943452e00000000006044820152606401610774565b6000866001600160a01b0316632c86d98e6040518163ffffffff1660e01b815260040160206040518083038186803b1580156131bd57600080fd5b505afa1580156131d1573d6000803e3d6000fd5b505050506040513d601f19601f820116820180604052508101906131f59190614f1a565b60ff1690506000826001600160a01b031663313ce5676040518163ffffffff1660e01b815260040160206040518083038186803b15801561323557600080fd5b505afa158015613249573d6000803e3d6000fd5b505050506040513d601f19601f8201168201806040525081019061326d9190614f1a565b60ff1690506000613281898960008061352d565b9050600061329083600a61530c565b61329a878b6153ed565b6132a491906152b2565b9050816132b28560036153ed565b6132be9061271061540c565b6132c890836153ed565b6132d890655af3107a40006153ed565b6132e291906152b2565b9a9950505050505050505050565b80609b6000828254613302919061529a565b9091555050609c5461331490826153ed565b6001600160a01b038316600090815260a160205260408120805490919061333c90849061529a565b90915550506040518181526001600160a01b0383169060009060008051602061554583398151915290602001612cbf565b6000600160ff1b82141561338057600080fd5b6000821261338e578161072f565b61072f826154b7565b60408051606480825260a08201909252606091906000908260208201818036833701905050905060005b84156134395760006133d4600a876154a3565b90506133e1600a876152b2565b95506133ee81603061529a565b60f81b83836133fc81615488565b94508151811061341c57634e487b7160e01b600052603260045260246000fd5b60200101906001600160f81b031916908160001a905350506133c1565b60008167ffffffffffffffff81111561346257634e487b7160e01b600052604160045260246000fd5b6040519080825280601f01601f19166020018201604052801561348c576020820181803683370190505b50905060005b828110156135235783816134a760018661540c565b6134b1919061540c565b815181106134cf57634e487b7160e01b600052603260045260246000fd5b602001015160f81c60f81b8282815181106134fa57634e487b7160e01b600052603260045260246000fd5b60200101906001600160f81b031916908160001a9053508061351b81615488565b915050613492565b5095945050505050565b600083158061353a575082155b6135925760405162461bcd60e51b8152602060048201526024808201527f434242433a204255595f414e445f53454c4c5f41545f5448455f53414d455f5460448201526324a6a29760e11b6064820152608401610774565b6135bd6040518060800160405280600081526020016000815260200160008152602001600081525090565b6135fd6040518060e00160405280600081526020016000815260200160008152602001600081526020016000815260200160008152602001600081525090565b6040805160c081018252600080825260208201819052918101829052606081018290526080810182905260a0810191909152876001600160a01b031663c45a01556040518163ffffffff1660e01b815260040160206040518083038186803b15801561366857600080fd5b505afa15801561367c573d6000803e3d6000fd5b505050506040513d601f19601f820116820180604052508101906136a09190614c0c565b6001600160a01b03908116825260408051630e9c29d760e31b81529051918a16916374e14eb891600480820192602092909190829003018186803b1580156136e757600080fd5b505afa1580156136fb573d6000803e3d6000fd5b505050506040513d601f19601f8201168201806040525081019061371f9190614c0c565b81602001906001600160a01b031690816001600160a01b031681525050876001600160a01b031663d83678ac6040518163ffffffff1660e01b815260040160206040518083038186803b15801561377557600080fd5b505afa158015613789573d6000803e3d6000fd5b505050506040513d601f19601f820116820180604052508101906137ad9190614c0c565b81604001906001600160a01b031690816001600160a01b031681525050876001600160a01b0316632c86d98e6040518163ffffffff1660e01b815260040160206040518083038186803b15801561380357600080fd5b505afa158015613817573d6000803e3d6000fd5b505050506040513d601f19601f8201168201806040525081019061383b9190614f1a565b60ff16816060018181525050876001600160a01b0316633c9749466040518163ffffffff1660e01b815260040160206040518083038186803b15801561388057600080fd5b505afa158015613894573d6000803e3d6000fd5b505050506040513d601f19601f820116820180604052508101906138b89190614dab565b816080019060018111156138dc57634e487b7160e01b600052602160045260246000fd5b908160018111156138fd57634e487b7160e01b600052602160045260246000fd5b81525050876001600160a01b031663bbb1863a6040518163ffffffff1660e01b815260040160206040518083038186803b15801561393a57600080fd5b505afa15801561394e573d6000803e3d6000fd5b505050506040513d601f19601f820116820180604052508101906139729190614c0c565b6001600160a01b031663609615286040518163ffffffff1660e01b815260040160206040518083038186803b1580156139aa57600080fd5b505afa1580156139be573d6000803e3d6000fd5b505050506040513d601f19601f820116820180604052508101906139e29190614c0c565b8160a001906001600160a01b031690816001600160a01b031681525050876001600160a01b031663ddd6f9626040518163ffffffff1660e01b815260040160206040518083038186803b158015613a3857600080fd5b505afa158015613a4c573d6000803e3d6000fd5b505050506040513d601f19601f82011682018060405250810190613a709190614ddf565b836000018181525050876001600160a01b03166308a3809d6040518163ffffffff1660e01b815260040160206040518083038186803b158015613ab257600080fd5b505afa158015613ac6573d6000803e3d6000fd5b505050506040513d601f19601f82011682018060405250810190613aea9190614ddf565b602084015242606084015260a081015160408083015190516341976e0960e01b81526001600160a01b0391821660048201529116906341976e0990602401604080518083038186803b158015613b3f57600080fd5b505afa158015613b53573d6000803e3d6000fd5b505050506040513d601f19601f82011682018060405250810190613b779190614ef7565b5060408401819052613bcb5760405162461bcd60e51b815260206004820152601a60248201527f434242433a20494c4c4547414c5f54524144455f50524943452e0000000000006044820152606401610774565b8251613be35760408301518352606083015160208401525b876001600160a01b0316639faa3c916040518163ffffffff1660e01b815260040160206040518083038186803b158015613c1c57600080fd5b505afa158015613c30573d6000803e3d6000fd5b505050506040513d601f19601f82011682018060405250810190613c549190614ddf565b82600001818152505080600001516001600160a01b03166388e97c3c6040518163ffffffff1660e01b815260040160206040518083038186803b158015613c9a57600080fd5b505afa158015613cae573d6000803e3d6000fd5b505050506040513d601f19601f82011682018060405250810190613cd29190614ddf565b82602001818152505080600001516001600160a01b031663cbd17c676040518163ffffffff1660e01b815260040160206040518083038186803b158015613d1857600080fd5b505afa158015613d2c573d6000803e3d6000fd5b505050506040513d601f19601f82011682018060405250810190613d509190614ddf565b60408084019190915260a0820151828201519151634094f10b60e01b81526001600160a01b039283166004820152911690634094f10b9060240160206040518083038186803b158015613da257600080fd5b505afa158015613db6573d6000803e3d6000fd5b505050506040513d601f19601f82011682018060405250810190613dda9190614ddf565b606083015260a0810151604080830151905163d3ea0f8960e01b81526001600160a01b03918216600482015291169063d3ea0f899060240160206040518083038186803b158015613e2a57600080fd5b505afa158015613e3e573d6000803e3d6000fd5b505050506040513d601f19601f82011682018060405250810190613e629190614ddf565b608083015260a08101516040808301519051634189c95d60e01b81526001600160a01b039182166004820152911690634189c95d9060240160206040518083038186803b158015613eb257600080fd5b505afa158015613ec6573d6000803e3d6000fd5b505050506040513d601f19601f82011682018060405250810190613eea9190614ddf565b60a08381019190915281015160408083015190516384f4b61f60e01b81526001600160a01b0391821660048201529116906384f4b61f9060240160206040518083038186803b158015613f3c57600080fd5b505afa158015613f50573d6000803e3d6000fd5b505050506040513d601f19601f82011682018060405250810190613f749190614ddf565b60c08301819052613fc75760405162461bcd60e51b815260206004820152601b60248201527f434242433a20494c4c4547414c5f4441494c595f564f4c554d452e00000000006044820152606401610774565b600087158015613fd5575086155b15613ff357613fe884838560008a6142d4565b945050505050614193565b600061400385848660008b6142d4565b90506000856040015184604001516001600160a01b031663313ce5676040518163ffffffff1660e01b815260040160206040518083038186803b15801561404957600080fd5b505afa15801561405d573d6000803e3d6000fd5b505050506040513d601f19601f820116820180604052508101906140819190614f1a565b61408c90600a61531b565b85606001518b87602001516001600160a01b031663313ce5676040518163ffffffff1660e01b815260040160206040518083038186803b1580156140cf57600080fd5b505afa1580156140e3573d6000803e3d6000fd5b505050506040513d601f19601f820116820180604052508101906141079190614f1a565b61411290600a61531b565b868f670de0b6b3a764000061412791906153ed565b61413191906152b2565b61414390670de0b6b3a76400006153ed565b61414d91906152b2565b614157919061529a565b61416191906153ed565b61416b91906153ed565b61417591906152b2565b905061418285828a6149e2565b92505050613fe8848385848a6142d4565b949350505050565b6001600160a01b0381166141ae57600080fd5b6068546040516001600160a01b038084169216907f8be0079c531659141344cd1fd0a4f28419497f9722a3daafe3b4186f6b6457e090600090a3606880546001600160a01b0319166001600160a01b0392909216919091179055565b6000808261421c57600091505061072f565b60146142298460136153ed565b61423391906152b2565b8410156142415750826142b0565b61424c8460646153ed565b60146142598560136153ed565b61426391906152b2565b61426d908661540c565b61427790856153ed565b6142829060046153ed565b61428c91906152b2565b60146142998560136153ed565b6142a391906152b2565b6142ad919061529a565b90505b8281106142cd57634e487b7160e01b600052600160045260246000fd5b9392505050565b84516040860151606086015185516000939291908482856142f682600161529a565b61430091906153ed565b61430a91906152b2565b90506000838661431b60018361540c565b61432591906153ed565b61432f91906152b2565b90506000808287101561434457829650614350565b83871115614350578396505b60018d60800151600181111561437657634e487b7160e01b600052602160045260246000fd5b14156146775760008a600181111561439e57634e487b7160e01b600052602160045260246000fd5b14156143b5576143ae8b8861529a565b96506143cc565b6143bf8b8861420a565b6143c9908861540c565b96505b600085131561448257866143e0848261540c565b6143ea898761540c565b6143f38861336d565b6143fd91906153ed565b61440791906153ed565b61441191906152b2565b61441d886103e86153ed565b614427919061529a565b915087614434848261540c565b61443e8a8761540c565b6144478861336d565b61445191906153ed565b61445b91906153ed565b61446591906152b2565b614471896103e86153ed565b61447b919061529a565b905061452b565b8661448d848261540c565b614497898761540c565b6144a08861336d565b6144aa91906153ed565b6144b491906153ed565b6144be91906152b2565b6144ca886103e86153ed565b6144d4919061540c565b9150876144e1848261540c565b6144eb8a8761540c565b6144f48861336d565b6144fe91906153ed565b61450891906153ed565b61451291906152b2565b61451e896103e86153ed565b614528919061540c565b90505b6301e133808e602001518f60600151614544919061540c565b8d6080015161455391906153ed565b61456390651cae8c13e00061529a565b61456e60018961540c565b61457d9064e8d4a510006153ed565b61458791906153ed565b61459191906152b2565b6145a190655af3107a400061529a565b816145ac84896153ed565b6145be90670de0b6b3a76400006153ed565b6145c891906152b2565b116145d957655af3107a4000614670565b6301e133808e602001518f606001516145f2919061540c565b8d6080015161460191906153ed565b61461190651cae8c13e00061529a565b61461c60018961540c565b61462b9064e8d4a510006153ed565b61463591906153ed565b61463f91906152b2565b8161464a84896153ed565b61465c90670de0b6b3a76400006153ed565b61466691906152b2565b614670919061540c565b98506149d1565b60008d60800151600181111561469d57634e487b7160e01b600052602160045260246000fd5b14156149975760008a60018111156146c557634e487b7160e01b600052602160045260246000fd5b14156146e6576146d58b8861420a565b6146df908861540c565b96506146f3565b6146f08b8861529a565b96505b60008513156147f757651cae8c13e0008e602001518f60600151614717919061540c565b8d6080015161472691906153ed565b61473690651cae8c13e00061529a565b88614741868261540c565b61474b8b8961540c565b6147548a61336d565b61475e91906153ed565b61476891906153ed565b61477291906152b2565b61477e8a6103e86153ed565b614788919061529a565b61479291906153ed565b61479c91906152b2565b9150876147a9848261540c565b6147b38a8761540c565b6147bc8861336d565b6147c691906153ed565b6147d091906153ed565b6147da91906152b2565b6147e6896103e86153ed565b6147f0919061529a565b90506148ee565b651cae8c13e0008e602001518f60600151614812919061540c565b8d6080015161482191906153ed565b61483190651cae8c13e00061529a565b8861483c868261540c565b6148468b8961540c565b61484f8a61336d565b61485991906153ed565b61486391906153ed565b61486d91906152b2565b6148798a6103e86153ed565b614883919061540c565b61488d91906153ed565b61489791906152b2565b9150876148a4848261540c565b6148ae8a8761540c565b6148b78861336d565b6148c191906153ed565b6148cb91906153ed565b6148d591906152b2565b6148e1896103e86153ed565b6148eb919061540c565b90505b806148f983886153ed565b61490b90670de0b6b3a76400006153ed565b61491591906152b2565b61492590655af3107a400061529a565b61493087600161529a565b61494290670de0b6b3a76400006153ed565b1161495357655af3107a4000614670565b8061495e83886153ed565b61497090670de0b6b3a76400006153ed565b61497a91906152b2565b61498587600161529a565b61466690670de0b6b3a76400006153ed565b60405162461bcd60e51b815260206004820152600f60248201526e434242433a57524f4e475f5459504560881b6044820152606401610774565b505050505050505095945050505050565b60008080836001811115614a0657634e487b7160e01b600052602160045260246000fd5b1415614a1757506020840151614a1e565b5060408401515b83614a2c57600091506109ae565b633b9aca00614a5c8660c0015186670de0b6b3a7640000614a4d91906153ed565b614a5791906152b2565b614a97565b60a0870151614a6b90846153ed565b614a7591906153ed565b614a7f91906152b2565b8560600151614a8e919061529a565b95945050505050565b60006003821115614af85750806000614ab16002836152b2565b614abc90600161529a565b90505b81811015614af257905080600281614ad781866152b2565b614ae1919061529a565b614aeb91906152b2565b9050614abf565b5061080c565b811561080c57506001919050565b828054614b1290615453565b90600052602060002090601f016020900481019282614b345760008555614b7a565b82601f10614b4d57805160ff1916838001178555614b7a565b82800160010185558215614b7a579182015b82811115614b7a578251825591602001919060010190614b5f565b50614b86929150614b8a565b5090565b5b80821115614b865760008155600101614b8b565b600082601f830112614baf578081fd5b8135614bc2614bbd82615272565b615241565b818152846020838601011115614bd6578283fd5b816020850160208301379081016020019190915292915050565b600060208284031215614c01578081fd5b81356142cd81615513565b600060208284031215614c1d578081fd5b81516142cd81615513565b60008060408385031215614c3a578081fd5b8235614c4581615513565b91506020830135614c5581615513565b809150509250929050565b600080600060608486031215614c74578081fd5b8335614c7f81615513565b92506020840135614c8f81615513565b929592945050506040919091013590565b600080600080600080600060e0888a031215614cba578283fd5b8735614cc581615513565b96506020880135614cd581615513565b955060408801359450606088013593506080880135614cf381615535565b9699959850939692959460a0840135945060c09093013592915050565b60008060408385031215614d22578182fd5b8235614d2d81615513565b946020939093013593505050565b600080600080600060a08688031215614d52578283fd5b8535614d5d81615513565b94506020860135614d6d81615513565b93506040860135614d7d81615513565b92506060860135614d8d81615535565b91506080860135614d9d81615528565b809150509295509295909350565b600060208284031215614dbc578081fd5b81516142cd81615528565b600060208284031215614dd8578081fd5b5035919050565b600060208284031215614df0578081fd5b5051919050565b600060208284031215614e08578081fd5b815167ffffffffffffffff811115614e1e578182fd5b8201601f81018413614e2e578182fd5b8051614e3c614bbd82615272565b818152856020838501011115614e50578384fd5b614a8e826020830160208601615423565b600080600060608486031215614e75578081fd5b833567ffffffffffffffff80821115614e8c578283fd5b614e9887838801614b9f565b94506020860135915080821115614ead578283fd5b50614eba86828701614b9f565b9250506040840135614ecb81615535565b809150509250925092565b60008060408385031215614ee8578182fd5b50508035926020909101359150565b60008060408385031215614f09578182fd5b505080516020909101519092909150565b600060208284031215614f2b578081fd5b81516142cd81615535565b60028110614f5457634e487b7160e01b600052602160045260246000fd5b9052565b60008451614f6a818460208901615423565b845190830190614f7e818360208901615423565b8451910190614f91818360208801615423565b0195945050505050565b60008451614fad818460208901615423565b6102c160f51b9083019081528451614fcc816002840160208901615423565b600160fd1b600292909101918201528351614fee816003840160208801615423565b0160030195945050505050565b6000845161500d818460208901615423565b6102c160f51b90830190815267024b73b32b939b2960c51b6002820152845161503d81600a840160208901615423565b600160fd1b600a9290910191820152835161505f81600b840160208801615423565b01600b0195945050505050565b6000845161507e818460208901615423565b604960f81b908301908152845161509c816001840160208901615423565b84519101906150b2816001840160208801615423565b0160010195945050505050565b6001600160a01b038681168252858116602083015260ff8516604083015260a08201906150ef6060840186614f36565b8084166080840152509695505050505050565b6001600160a01b038416815260ff83166020820152606081016141936040830184614f36565b6020810161072f8284614f36565b6000602082528251806020840152615155816040850160208701615423565b601f01601f19169190910160400192915050565b60208082526028908201527f434242433a20544f5f535553504943494f55535f414444524553535f4e4f545f60408201526720a62627aba2a21760c11b606082015260800190565b60208082526022908201527f434242433a20544f5f5a45524f5f414444524553535f4e4f545f414c4c4f5745604082015261221760f11b606082015260800190565b6020808252602e908201527f436f6e747261637420696e7374616e63652068617320616c726561647920626560408201526d195b881a5b9a5d1a585b1a5e995960921b606082015260800190565b604051601f8201601f1916810167ffffffffffffffff8111828210171561526a5761526a6154fd565b604052919050565b600067ffffffffffffffff82111561528c5761528c6154fd565b50601f01601f191660200190565b600082198211156152ad576152ad6154d1565b500190565b6000826152c1576152c16154e7565b500490565b80825b60018086116152d85750615303565b8187048211156152ea576152ea6154d1565b808616156152f757918102915b9490941c9380026152c9565b94509492505050565b60006142cd6000198484615329565b60006142cd60001960ff8516845b600082615338575060016142cd565b81615345575060006142cd565b816001811461535b576002811461536557615392565b60019150506142cd565b60ff841115615376576153766154d1565b6001841b91508482111561538c5761538c6154d1565b506142cd565b5060208310610133831016604e8410600b84101617156153c5575081810a838111156153c0576153c06154d1565b6142cd565b6153d284848460016152c6565b8086048211156153e4576153e46154d1565b02949350505050565b6000816000190483118215151615615407576154076154d1565b500290565b60008282101561541e5761541e6154d1565b500390565b60005b8381101561543e578181015183820152602001615426565b8381111561544d576000848401525b50505050565b600181811c9082168061546757607f821691505b60208210811415611e3457634e487b7160e01b600052602260045260246000fd5b600060001982141561549c5761549c6154d1565b5060010190565b6000826154b2576154b26154e7565b500690565b6000600160ff1b8214156154cd576154cd6154d1565b0390565b634e487b7160e01b600052601160045260246000fd5b634e487b7160e01b600052601260045260246000fd5b634e487b7160e01b600052604160045260246000fd5b6001600160a01b038116811461249657600080fd5b6002811061249657600080fd5b60ff8116811461249657600080fdfeddf252ad1be2c89b69c2b068fc378daa952ba7f163c4a11628f55a4df523b3ef8c5be1e5ebec7d5bd14f71427d1e84f3dd0314c0f7b2291e5b200ac8c7c3b925a2646970667358221220e9c90699cd7be5434c5728cadaf04edd5b4b2439361b9b5e1bb0efc93f8b93d464736f6c63430008030033",
			"opcodes": "PUSH1 0x80 PUSH1 0x40 MSTORE PUSH8 0xDE0B6B3A7640000 PUSH1 0x9C SSTORE PUSH1 0x1 PUSH1 0xA8 SSTORE CALLVALUE DUP1 ISZERO PUSH2 0x21 JUMPI PUSH1 0x0 DUP1 REVERT JUMPDEST POP PUSH2 0x55BA DUP1 PUSH3 0x32 PUSH1 0x0 CODECOPY PUSH1 0x0 RETURN INVALID PUSH1 0x80 PUSH1 0x40 MSTORE CALLVALUE DUP1 ISZERO PUSH2 0x10 JUMPI PUSH1 0x0 DUP1 REVERT JUMPDEST POP PUSH1 0x4 CALLDATASIZE LT PUSH2 0x27F JUMPI PUSH1 0x0 CALLDATALOAD PUSH1 0xE0 SHR DUP1 PUSH4 0x8DA5CB5B GT PUSH2 0x15C JUMPI DUP1 PUSH4 0xC0D78655 GT PUSH2 0xCE JUMPI DUP1 PUSH4 0xDD62ED3E GT PUSH2 0x87 JUMPI DUP1 PUSH4 0xDD62ED3E EQ PUSH2 0x5A5 JUMPI DUP1 PUSH4 0xDDD6F962 EQ PUSH2 0x5DE JUMPI DUP1 PUSH4 0xDF896754 EQ PUSH2 0x5E7 JUMPI DUP1 PUSH4 0xE1B11DA4 EQ PUSH2 0x5FA JUMPI DUP1 PUSH4 0xF2FDE38B EQ PUSH2 0x621 JUMPI DUP1 PUSH4 0xF887EA40 EQ PUSH2 0x634 JUMPI PUSH2 0x27F JUMP JUMPDEST DUP1 PUSH4 0xC0D78655 EQ PUSH2 0x533 JUMPI DUP1 PUSH4 0xC45A0155 EQ PUSH2 0x546 JUMPI DUP1 PUSH4 0xC4D66DE8 EQ PUSH2 0x559 JUMPI DUP1 PUSH4 0xD505ACCF EQ PUSH2 0x56C JUMPI DUP1 PUSH4 0xD83678AC EQ PUSH2 0x57F JUMPI DUP1 PUSH4 0xD9131384 EQ PUSH2 0x592 JUMPI PUSH2 0x27F JUMP JUMPDEST DUP1 PUSH4 0x9FAA3C91 GT PUSH2 0x120 JUMPI DUP1 PUSH4 0x9FAA3C91 EQ PUSH2 0x4D6 JUMPI DUP1 PUSH4 0xA3A7E7F3 EQ PUSH2 0x4DF JUMPI DUP1 PUSH4 0xA457C2D7 EQ PUSH2 0x4F2 JUMPI DUP1 PUSH4 0xA9059CBB EQ PUSH2 0x505 JUMPI DUP1 PUSH4 0xB1BF962D EQ PUSH2 0x518 JUMPI DUP1 PUSH4 0xBBB1863A EQ PUSH2 0x520 JUMPI PUSH2 0x27F JUMP JUMPDEST DUP1 PUSH4 0x8DA5CB5B EQ PUSH2 0x48E JUMPI DUP1 PUSH4 0x8F32D59B EQ PUSH2 0x49F JUMPI DUP1 PUSH4 0x903CD3E3 EQ PUSH2 0x4B3 JUMPI DUP1 PUSH4 0x95D89B41 EQ PUSH2 0x4C6 JUMPI DUP1 PUSH4 0x9D1B464A EQ PUSH2 0x4CE JUMPI PUSH2 0x27F JUMP JUMPDEST DUP1 PUSH4 0x3644E515 GT PUSH2 0x1F5 JUMPI DUP1 PUSH4 0x715018A6 GT PUSH2 0x1B9 JUMPI DUP1 PUSH4 0x715018A6 EQ PUSH2 0x3EC JUMPI DUP1 PUSH4 0x74E14EB8 EQ PUSH2 0x3F4 JUMPI DUP1 PUSH4 0x78160376 EQ PUSH2 0x41F JUMPI DUP1 PUSH4 0x7A43E23F EQ PUSH2 0x43F JUMPI DUP1 PUSH4 0x7ECEBE00 EQ PUSH2 0x452 JUMPI DUP1 PUSH4 0x84D4B410 EQ PUSH2 0x47B JUMPI PUSH2 0x27F JUMP JUMPDEST DUP1 PUSH4 0x3644E515 EQ PUSH2 0x38A JUMPI DUP1 PUSH4 0x3697C562 EQ PUSH2 0x392 JUMPI DUP1 PUSH4 0x39509351 EQ PUSH2 0x3A5 JUMPI DUP1 PUSH4 0x3C974946 EQ PUSH2 0x3B8 JUMPI DUP1 PUSH4 0x70A08231 EQ PUSH2 0x3D9 JUMPI PUSH2 0x27F JUMP JUMPDEST DUP1 PUSH4 0x1DA24F3E GT PUSH2 0x247 JUMPI DUP1 PUSH4 0x1DA24F3E EQ PUSH2 0x2F9 JUMPI DUP1 PUSH4 0x23B872DD EQ PUSH2 0x30C JUMPI DUP1 PUSH4 0x2C86D98E EQ PUSH2 0x31F JUMPI DUP1 PUSH4 0x2D54A21B EQ PUSH2 0x345 JUMPI DUP1 PUSH4 0x30ADF81F EQ PUSH2 0x358 JUMPI DUP1 PUSH4 0x313CE567 EQ PUSH2 0x37F JUMPI PUSH2 0x27F JUMP JUMPDEST DUP1 PUSH4 0x6FDDE03 EQ PUSH2 0x284 JUMPI DUP1 PUSH4 0x8A3809D EQ PUSH2 0x2A2 JUMPI DUP1 PUSH4 0x95EA7B3 EQ PUSH2 0x2B9 JUMPI DUP1 PUSH4 0x1624F6C6 EQ PUSH2 0x2DC JUMPI DUP1 PUSH4 0x18160DDD EQ PUSH2 0x2F1 JUMPI JUMPDEST PUSH1 0x0 DUP1 REVERT JUMPDEST PUSH2 0x28C PUSH2 0x647 JUMP JUMPDEST PUSH1 0x40 MLOAD PUSH2 0x299 SWAP2 SWAP1 PUSH2 0x5136 JUMP JUMPDEST PUSH1 0x40 MLOAD DUP1 SWAP2 SUB SWAP1 RETURN JUMPDEST PUSH2 0x2AB PUSH1 0x9D SLOAD DUP2 JUMP JUMPDEST PUSH1 0x40 MLOAD SWAP1 DUP2 MSTORE PUSH1 0x20 ADD PUSH2 0x299 JUMP JUMPDEST PUSH2 0x2CC PUSH2 0x2C7 CALLDATASIZE PUSH1 0x4 PUSH2 0x4D10 JUMP JUMPDEST PUSH2 0x6DA JUMP JUMPDEST PUSH1 0x40 MLOAD SWAP1 ISZERO ISZERO DUP2 MSTORE PUSH1 0x20 ADD PUSH2 0x299 JUMP JUMPDEST PUSH2 0x2EF PUSH2 0x2EA CALLDATASIZE PUSH1 0x4 PUSH2 0x4E61 JUMP JUMPDEST PUSH2 0x735 JUMP JUMPDEST STOP JUMPDEST PUSH1 0x9B SLOAD PUSH2 0x2AB JUMP JUMPDEST PUSH2 0x2AB PUSH2 0x307 CALLDATASIZE PUSH1 0x4 PUSH2 0x4BF0 JUMP JUMPDEST PUSH2 0x7F2 JUMP JUMPDEST PUSH2 0x2CC PUSH2 0x31A CALLDATASIZE PUSH1 0x4 PUSH2 0x4C60 JUMP JUMPDEST PUSH2 0x811 JUMP JUMPDEST PUSH1 0xA7 SLOAD PUSH2 0x333 SWAP1 PUSH1 0x1 PUSH1 0xA0 SHL SWAP1 DIV PUSH1 0xFF AND DUP2 JUMP JUMPDEST PUSH1 0x40 MLOAD PUSH1 0xFF SWAP1 SWAP2 AND DUP2 MSTORE PUSH1 0x20 ADD PUSH2 0x299 JUMP JUMPDEST PUSH2 0x2AB PUSH2 0x353 CALLDATASIZE PUSH1 0x4 PUSH2 0x4D10 JUMP JUMPDEST PUSH2 0x9B6 JUMP JUMPDEST PUSH2 0x2AB PUSH32 0x6E71EDAE12B1B97F4D1F60370FEF10105FA2FAAE0126114A169C64845D6126C9 DUP2 JUMP JUMPDEST PUSH1 0x35 SLOAD PUSH1 0xFF AND PUSH2 0x333 JUMP JUMPDEST PUSH2 0x2AB PUSH2 0xBF1 JUMP JUMPDEST PUSH2 0x2AB PUSH2 0x3A0 CALLDATASIZE PUSH1 0x4 PUSH2 0x4D10 JUMP JUMPDEST PUSH2 0xC9D JUMP JUMPDEST PUSH2 0x2CC PUSH2 0x3B3 CALLDATASIZE PUSH1 0x4 PUSH2 0x4D10 JUMP JUMPDEST PUSH2 0xF46 JUMP JUMPDEST PUSH1 0xA7 SLOAD PUSH2 0x3CC SWAP1 PUSH1 0x1 PUSH1 0xA8 SHL SWAP1 DIV PUSH1 0xFF AND DUP2 JUMP JUMPDEST PUSH1 0x40 MLOAD PUSH2 0x299 SWAP2 SWAP1 PUSH2 0x5128 JUMP JUMPDEST PUSH2 0x2AB PUSH2 0x3E7 CALLDATASIZE PUSH1 0x4 PUSH2 0x4BF0 JUMP JUMPDEST PUSH2 0xFF0 JUMP JUMPDEST PUSH2 0x2EF PUSH2 0x1017 JUMP JUMPDEST PUSH1 0xA7 SLOAD PUSH2 0x407 SWAP1 PUSH1 0x1 PUSH1 0x1 PUSH1 0xA0 SHL SUB AND DUP2 JUMP JUMPDEST PUSH1 0x40 MLOAD PUSH1 0x1 PUSH1 0x1 PUSH1 0xA0 SHL SUB SWAP1 SWAP2 AND DUP2 MSTORE PUSH1 0x20 ADD PUSH2 0x299 JUMP JUMPDEST PUSH2 0x28C PUSH1 0x40 MLOAD DUP1 PUSH1 0x40 ADD PUSH1 0x40 MSTORE DUP1 PUSH1 0x1 DUP2 MSTORE PUSH1 0x20 ADD PUSH1 0x31 PUSH1 0xF8 SHL DUP2 MSTORE POP DUP2 JUMP JUMPDEST PUSH2 0x2AB PUSH2 0x44D CALLDATASIZE PUSH1 0x4 PUSH2 0x4ED6 JUMP JUMPDEST PUSH2 0x107E JUMP JUMPDEST PUSH2 0x2AB PUSH2 0x460 CALLDATASIZE PUSH1 0x4 PUSH2 0x4BF0 JUMP JUMPDEST PUSH1 0x1 PUSH1 0x1 PUSH1 0xA0 SHL SUB AND PUSH1 0x0 SWAP1 DUP2 MSTORE PUSH1 0xA0 PUSH1 0x20 MSTORE PUSH1 0x40 SWAP1 KECCAK256 SLOAD SWAP1 JUMP JUMPDEST PUSH2 0x2CC PUSH2 0x489 CALLDATASIZE PUSH1 0x4 PUSH2 0x4C28 JUMP JUMPDEST PUSH2 0x142D JUMP JUMPDEST PUSH1 0x68 SLOAD PUSH1 0x1 PUSH1 0x1 PUSH1 0xA0 SHL SUB AND PUSH2 0x407 JUMP JUMPDEST PUSH2 0x2CC PUSH1 0x68 SLOAD PUSH1 0x1 PUSH1 0x1 PUSH1 0xA0 SHL SUB AND CALLER EQ SWAP1 JUMP JUMPDEST PUSH2 0x2EF PUSH2 0x4C1 CALLDATASIZE PUSH1 0x4 PUSH2 0x4D3B JUMP JUMPDEST PUSH2 0x15C4 JUMP JUMPDEST PUSH2 0x28C PUSH2 0x1CF3 JUMP JUMPDEST PUSH2 0x2AB PUSH2 0x1D02 JUMP JUMPDEST PUSH2 0x2AB PUSH1 0x9F SLOAD DUP2 JUMP JUMPDEST PUSH2 0x2CC PUSH2 0x4ED CALLDATASIZE PUSH1 0x4 PUSH2 0x4BF0 JUMP JUMPDEST PUSH2 0x1D30 JUMP JUMPDEST PUSH2 0x2CC PUSH2 0x500 CALLDATASIZE PUSH1 0x4 PUSH2 0x4D10 JUMP JUMPDEST PUSH2 0x1E3A JUMP JUMPDEST PUSH2 0x2CC PUSH2 0x513 CALLDATASIZE PUSH1 0x4 PUSH2 0x4D10 JUMP JUMPDEST PUSH2 0x1EF8 JUMP JUMPDEST PUSH2 0x2AB PUSH2 0x200B JUMP JUMPDEST PUSH1 0xA4 SLOAD PUSH2 0x407 SWAP1 PUSH1 0x1 PUSH1 0x1 PUSH1 0xA0 SHL SUB AND DUP2 JUMP JUMPDEST PUSH2 0x2EF PUSH2 0x541 CALLDATASIZE PUSH1 0x4 PUSH2 0x4BF0 JUMP JUMPDEST PUSH2 0x2022 JUMP JUMPDEST PUSH1 0xA3 SLOAD PUSH2 0x407 SWAP1 PUSH1 0x1 PUSH1 0x1 PUSH1 0xA0 SHL SUB AND DUP2 JUMP JUMPDEST PUSH2 0x2EF PUSH2 0x567 CALLDATASIZE PUSH1 0x4 PUSH2 0x4BF0 JUMP JUMPDEST PUSH2 0x2093 JUMP JUMPDEST PUSH2 0x2EF PUSH2 0x57A CALLDATASIZE PUSH1 0x4 PUSH2 0x4CA0 JUMP JUMPDEST PUSH2 0x2117 JUMP JUMPDEST PUSH1 0xA6 SLOAD PUSH2 0x407 SWAP1 PUSH1 0x1 PUSH1 0x1 PUSH1 0xA0 SHL SUB AND DUP2 JUMP JUMPDEST PUSH2 0x2EF PUSH2 0x5A0 CALLDATASIZE PUSH1 0x4 PUSH2 0x4DC7 JUMP JUMPDEST PUSH2 0x2352 JUMP JUMPDEST PUSH2 0x2AB PUSH2 0x5B3 CALLDATASIZE PUSH1 0x4 PUSH2 0x4C28 JUMP JUMPDEST PUSH1 0x1 PUSH1 0x1 PUSH1 0xA0 SHL SUB SWAP2 DUP3 AND PUSH1 0x0 SWAP1 DUP2 MSTORE PUSH1 0xA2 PUSH1 0x20 SWAP1 DUP2 MSTORE PUSH1 0x40 DUP1 DUP4 KECCAK256 SWAP4 SWAP1 SWAP5 AND DUP3 MSTORE SWAP2 SWAP1 SWAP2 MSTORE KECCAK256 SLOAD SWAP1 JUMP JUMPDEST PUSH2 0x2AB PUSH1 0x9E SLOAD DUP2 JUMP JUMPDEST PUSH2 0x2EF PUSH2 0x5F5 CALLDATASIZE PUSH1 0x4 PUSH2 0x4BF0 JUMP JUMPDEST PUSH2 0x23A4 JUMP JUMPDEST PUSH2 0x2AB PUSH32 0x8B73C3C69BB8FE3D512ECC4CF759CC79239F7B179B0FFACAA9A75D522B39400F DUP2 JUMP JUMPDEST PUSH2 0x2EF PUSH2 0x62F CALLDATASIZE PUSH1 0x4 PUSH2 0x4BF0 JUMP JUMPDEST PUSH2 0x2470 JUMP JUMPDEST PUSH1 0xA5 SLOAD PUSH2 0x407 SWAP1 PUSH1 0x1 PUSH1 0x1 PUSH1 0xA0 SHL SUB AND DUP2 JUMP JUMPDEST PUSH1 0x60 PUSH1 0x33 DUP1 SLOAD PUSH2 0x656 SWAP1 PUSH2 0x5453 JUMP JUMPDEST DUP1 PUSH1 0x1F ADD PUSH1 0x20 DUP1 SWAP2 DIV MUL PUSH1 0x20 ADD PUSH1 0x40 MLOAD SWAP1 DUP2 ADD PUSH1 0x40 MSTORE DUP1 SWAP3 SWAP2 SWAP1 DUP2 DUP2 MSTORE PUSH1 0x20 ADD DUP3 DUP1 SLOAD PUSH2 0x682 SWAP1 PUSH2 0x5453 JUMP JUMPDEST DUP1 ISZERO PUSH2 0x6CF JUMPI DUP1 PUSH1 0x1F LT PUSH2 0x6A4 JUMPI PUSH2 0x100 DUP1 DUP4 SLOAD DIV MUL DUP4 MSTORE SWAP2 PUSH1 0x20 ADD SWAP2 PUSH2 0x6CF JUMP JUMPDEST DUP3 ADD SWAP2 SWAP1 PUSH1 0x0 MSTORE PUSH1 0x20 PUSH1 0x0 KECCAK256 SWAP1 JUMPDEST DUP2 SLOAD DUP2 MSTORE SWAP1 PUSH1 0x1 ADD SWAP1 PUSH1 0x20 ADD DUP1 DUP4 GT PUSH2 0x6B2 JUMPI DUP3 SWAP1 SUB PUSH1 0x1F AND DUP3 ADD SWAP2 JUMPDEST POP POP POP POP POP SWAP1 POP JUMPDEST SWAP1 JUMP JUMPDEST CALLER PUSH1 0x0 DUP2 DUP2 MSTORE PUSH1 0xA2 PUSH1 0x20 SWAP1 DUP2 MSTORE PUSH1 0x40 DUP1 DUP4 KECCAK256 PUSH1 0x1 PUSH1 0x1 PUSH1 0xA0 SHL SUB DUP8 AND DUP1 DUP6 MSTORE SWAP3 MSTORE DUP1 DUP4 KECCAK256 DUP6 SWAP1 SSTORE MLOAD SWAP2 SWAP3 SWAP1 SWAP2 PUSH1 0x0 DUP1 MLOAD PUSH1 0x20 PUSH2 0x5565 DUP4 CODECOPY DUP2 MLOAD SWAP2 MSTORE SWAP1 PUSH2 0x723 SWAP1 DUP7 DUP2 MSTORE PUSH1 0x20 ADD SWAP1 JUMP JUMPDEST PUSH1 0x40 MLOAD DUP1 SWAP2 SUB SWAP1 LOG3 POP PUSH1 0x1 JUMPDEST SWAP3 SWAP2 POP POP JUMP JUMPDEST PUSH1 0x0 SLOAD PUSH2 0x100 SWAP1 DIV PUSH1 0xFF AND DUP1 PUSH2 0x74A JUMPI POP ADDRESS EXTCODESIZE ISZERO JUMPDEST DUP1 PUSH2 0x758 JUMPI POP PUSH1 0x0 SLOAD PUSH1 0xFF AND ISZERO JUMPDEST PUSH2 0x77D JUMPI PUSH1 0x40 MLOAD PUSH3 0x461BCD PUSH1 0xE5 SHL DUP2 MSTORE PUSH1 0x4 ADD PUSH2 0x774 SWAP1 PUSH2 0x51F3 JUMP JUMPDEST PUSH1 0x40 MLOAD DUP1 SWAP2 SUB SWAP1 REVERT JUMPDEST PUSH1 0x0 DUP1 SLOAD PUSH2 0xFFFF NOT DUP2 AND PUSH2 0x101 OR SWAP1 SWAP2 SSTORE DUP4 MLOAD PUSH2 0x100 SWAP1 SWAP2 DIV PUSH1 0xFF AND SWAP1 PUSH2 0x7AB SWAP1 PUSH1 0x33 SWAP1 PUSH1 0x20 DUP8 ADD SWAP1 PUSH2 0x4B06 JUMP JUMPDEST POP DUP3 MLOAD PUSH2 0x7BF SWAP1 PUSH1 0x34 SWAP1 PUSH1 0x20 DUP7 ADD SWAP1 PUSH2 0x4B06 JUMP JUMPDEST POP PUSH1 0x35 DUP1 SLOAD PUSH1 0xFF SWAP1 SWAP4 AND PUSH1 0xFF NOT SWAP1 SWAP4 AND SWAP3 SWAP1 SWAP3 OR SWAP1 SWAP2 SSTORE PUSH1 0x0 DUP1 SLOAD SWAP2 ISZERO ISZERO PUSH2 0x100 MUL PUSH2 0xFF00 NOT SWAP1 SWAP3 AND SWAP2 SWAP1 SWAP2 OR SWAP1 SSTORE POP POP JUMP JUMPDEST PUSH1 0x1 PUSH1 0x1 PUSH1 0xA0 SHL SUB DUP2 AND PUSH1 0x0 SWAP1 DUP2 MSTORE PUSH1 0xA1 PUSH1 0x20 MSTORE PUSH1 0x40 SWAP1 KECCAK256 SLOAD JUMPDEST SWAP2 SWAP1 POP JUMP JUMPDEST PUSH1 0x0 DUP3 PUSH1 0x1 PUSH1 0x1 PUSH1 0xA0 SHL SUB DUP2 AND PUSH2 0x83A JUMPI PUSH1 0x40 MLOAD PUSH3 0x461BCD PUSH1 0xE5 SHL DUP2 MSTORE PUSH1 0x4 ADD PUSH2 0x774 SWAP1 PUSH2 0x51B1 JUMP JUMPDEST PUSH20 0xEB31973E0FEBF3E3D7058234A5EBBAE1AB4B8C23 PUSH1 0x1 PUSH1 0x1 PUSH1 0xA0 SHL SUB DUP3 AND EQ ISZERO PUSH2 0x877 JUMPI PUSH1 0x40 MLOAD PUSH3 0x461BCD PUSH1 0xE5 SHL DUP2 MSTORE PUSH1 0x4 ADD PUSH2 0x774 SWAP1 PUSH2 0x5169 JUMP JUMPDEST PUSH1 0x1 PUSH1 0x1 PUSH1 0xA0 SHL SUB DUP6 AND PUSH1 0x0 SWAP1 DUP2 MSTORE PUSH1 0xA2 PUSH1 0x20 SWAP1 DUP2 MSTORE PUSH1 0x40 DUP1 DUP4 KECCAK256 CALLER DUP5 MSTORE SWAP1 SWAP2 MSTORE SWAP1 KECCAK256 SLOAD PUSH1 0x0 NOT EQ PUSH2 0x8F7 JUMPI PUSH1 0x1 PUSH1 0x1 PUSH1 0xA0 SHL SUB DUP6 AND PUSH1 0x0 SWAP1 DUP2 MSTORE PUSH1 0xA2 PUSH1 0x20 SWAP1 DUP2 MSTORE PUSH1 0x40 DUP1 DUP4 KECCAK256 CALLER DUP5 MSTORE SWAP1 SWAP2 MSTORE SWAP1 KECCAK256 SLOAD PUSH2 0x8D2 SWAP1 DUP5 SWAP1 PUSH2 0x540C JUMP JUMPDEST PUSH1 0x1 PUSH1 0x1 PUSH1 0xA0 SHL SUB DUP7 AND PUSH1 0x0 SWAP1 DUP2 MSTORE PUSH1 0xA2 PUSH1 0x20 SWAP1 DUP2 MSTORE PUSH1 0x40 DUP1 DUP4 KECCAK256 CALLER DUP5 MSTORE SWAP1 SWAP2 MSTORE SWAP1 KECCAK256 SSTORE JUMPDEST PUSH1 0x0 PUSH1 0x9C SLOAD DUP5 PUSH2 0x907 SWAP2 SWAP1 PUSH2 0x53ED JUMP JUMPDEST PUSH1 0x1 PUSH1 0x1 PUSH1 0xA0 SHL SUB DUP8 AND PUSH1 0x0 SWAP1 DUP2 MSTORE PUSH1 0xA1 PUSH1 0x20 MSTORE PUSH1 0x40 SWAP1 KECCAK256 SLOAD SWAP1 SWAP2 POP PUSH2 0x92E SWAP1 DUP3 SWAP1 PUSH2 0x540C JUMP JUMPDEST PUSH1 0x1 PUSH1 0x1 PUSH1 0xA0 SHL SUB DUP1 DUP9 AND PUSH1 0x0 SWAP1 DUP2 MSTORE PUSH1 0xA1 PUSH1 0x20 MSTORE PUSH1 0x40 DUP1 DUP3 KECCAK256 SWAP4 SWAP1 SWAP4 SSTORE SWAP1 DUP8 AND DUP2 MSTORE KECCAK256 SLOAD PUSH2 0x95E SWAP1 DUP3 SWAP1 PUSH2 0x529A JUMP JUMPDEST PUSH1 0x1 PUSH1 0x1 PUSH1 0xA0 SHL SUB DUP1 DUP8 AND PUSH1 0x0 DUP2 DUP2 MSTORE PUSH1 0xA1 PUSH1 0x20 MSTORE PUSH1 0x40 SWAP1 DUP2 SWAP1 KECCAK256 SWAP4 SWAP1 SWAP4 SSTORE SWAP2 MLOAD SWAP1 DUP9 AND SWAP1 PUSH1 0x0 DUP1 MLOAD PUSH1 0x20 PUSH2 0x5545 DUP4 CODECOPY DUP2 MLOAD SWAP2 MSTORE SWAP1 PUSH2 0x9A0 SWAP1 DUP9 DUP2 MSTORE PUSH1 0x20 ADD SWAP1 JUMP JUMPDEST PUSH1 0x40 MLOAD DUP1 SWAP2 SUB SWAP1 LOG3 PUSH1 0x1 SWAP3 POP POP JUMPDEST POP SWAP4 SWAP3 POP POP POP JUMP JUMPDEST PUSH1 0x0 PUSH1 0xA8 SLOAD PUSH1 0x1 EQ PUSH2 0x9F9 JUMPI PUSH1 0x40 MLOAD PUSH3 0x461BCD PUSH1 0xE5 SHL DUP2 MSTORE PUSH1 0x20 PUSH1 0x4 DUP3 ADD MSTORE PUSH1 0xC PUSH1 0x24 DUP3 ADD MSTORE PUSH12 0x10D09090CE881313D0D2D151 PUSH1 0xA2 SHL PUSH1 0x44 DUP3 ADD MSTORE PUSH1 0x64 ADD PUSH2 0x774 JUMP JUMPDEST PUSH1 0x0 PUSH1 0xA8 SSTORE PUSH1 0xA5 SLOAD PUSH1 0x1 PUSH1 0x1 PUSH1 0xA0 SHL SUB AND CALLER EQ PUSH2 0xA4B JUMPI PUSH1 0x40 MLOAD PUSH3 0x461BCD PUSH1 0xE5 SHL DUP2 MSTORE PUSH1 0x20 PUSH1 0x4 DUP3 ADD MSTORE PUSH1 0x10 PUSH1 0x24 DUP3 ADD MSTORE PUSH16 0x21A121219D102727AA2FA927AAAA22A9 PUSH1 0x81 SHL PUSH1 0x44 DUP3 ADD MSTORE PUSH1 0x64 ADD PUSH2 0x774 JUMP JUMPDEST PUSH2 0xA55 ADDRESS DUP4 PUSH2 0x2499 JUMP JUMPDEST SWAP1 POP PUSH1 0x0 DUP2 GT PUSH2 0xAB3 JUMPI PUSH1 0x40 MLOAD PUSH3 0x461BCD PUSH1 0xE5 SHL DUP2 MSTORE PUSH1 0x20 PUSH1 0x4 DUP3 ADD MSTORE PUSH1 0x24 DUP1 DUP3 ADD MSTORE PUSH32 0x434242433A20494E53554646494349454E545F534554544C455F544F4B454E5F PUSH1 0x44 DUP3 ADD MSTORE PUSH4 0x27AAAA17 PUSH1 0xE1 SHL PUSH1 0x64 DUP3 ADD MSTORE PUSH1 0x84 ADD PUSH2 0x774 JUMP JUMPDEST PUSH1 0xA3 SLOAD PUSH1 0xA7 SLOAD PUSH1 0x40 MLOAD PUSH4 0x4C22F489 PUSH1 0xE1 SHL DUP2 MSTORE PUSH1 0x1 PUSH1 0x1 PUSH1 0xA0 SHL SUB SWAP2 DUP3 AND PUSH1 0x4 DUP3 ADD MSTORE PUSH1 0x0 SWAP3 SWAP2 SWAP1 SWAP2 AND SWAP1 PUSH4 0x9845E912 SWAP1 PUSH1 0x24 ADD PUSH1 0x20 PUSH1 0x40 MLOAD DUP1 DUP4 SUB DUP2 DUP7 DUP1 EXTCODESIZE ISZERO DUP1 ISZERO PUSH2 0xAFF JUMPI PUSH1 0x0 DUP1 REVERT JUMPDEST POP GAS STATICCALL ISZERO DUP1 ISZERO PUSH2 0xB13 JUMPI RETURNDATASIZE PUSH1 0x0 DUP1 RETURNDATACOPY RETURNDATASIZE PUSH1 0x0 REVERT JUMPDEST POP POP POP POP PUSH1 0x40 MLOAD RETURNDATASIZE PUSH1 0x1F NOT PUSH1 0x1F DUP3 ADD AND DUP3 ADD DUP1 PUSH1 0x40 MSTORE POP DUP2 ADD SWAP1 PUSH2 0xB37 SWAP2 SWAP1 PUSH2 0x4C0C JUMP JUMPDEST SWAP1 POP PUSH2 0xB43 ADDRESS DUP5 PUSH2 0x2C44 JUMP JUMPDEST PUSH1 0x40 MLOAD PUSH4 0xCE2D30DD PUSH1 0xE0 SHL DUP2 MSTORE PUSH1 0x1 PUSH1 0x1 PUSH1 0xA0 SHL SUB DUP6 DUP2 AND PUSH1 0x4 DUP4 ADD MSTORE PUSH1 0x24 DUP3 ADD DUP5 SWAP1 MSTORE DUP3 AND SWAP1 PUSH4 0xCE2D30DD SWAP1 PUSH1 0x44 ADD PUSH1 0x0 PUSH1 0x40 MLOAD DUP1 DUP4 SUB DUP2 PUSH1 0x0 DUP8 DUP1 EXTCODESIZE ISZERO DUP1 ISZERO PUSH2 0xB8D JUMPI PUSH1 0x0 DUP1 REVERT JUMPDEST POP GAS CALL ISZERO DUP1 ISZERO PUSH2 0xBA1 JUMPI RETURNDATASIZE PUSH1 0x0 DUP1 RETURNDATACOPY RETURNDATASIZE PUSH1 0x0 REVERT JUMPDEST POP POP PUSH1 0x40 MLOAD DUP5 DUP2 MSTORE PUSH1 0x1 PUSH1 0x1 PUSH1 0xA0 SHL SUB DUP8 AND SWAP3 POP CALLER SWAP2 POP PUSH32 0xDBDF9B8E4B75E75B162D151EC8FC7F0561CABAB5FCCCFA2600BE62223E4300C4 SWAP1 PUSH1 0x20 ADD PUSH1 0x40 MLOAD DUP1 SWAP2 SUB SWAP1 LOG3 POP PUSH1 0x1 PUSH1 0xA8 SSTORE SWAP3 SWAP2 POP POP JUMP JUMPDEST PUSH1 0x0 CHAINID PUSH32 0x8B73C3C69BB8FE3D512ECC4CF759CC79239F7B179B0FFACAA9A75D522B39400F PUSH2 0xC1D PUSH2 0x647 JUMP JUMPDEST DUP1 MLOAD PUSH1 0x20 SWAP2 DUP3 ADD KECCAK256 PUSH1 0x40 DUP1 MLOAD DUP1 DUP3 ADD DUP3 MSTORE PUSH1 0x1 DUP2 MSTORE PUSH1 0x31 PUSH1 0xF8 SHL SWAP1 DUP5 ADD MSTORE DUP1 MLOAD SWAP3 DUP4 ADD SWAP4 SWAP1 SWAP4 MSTORE SWAP2 DUP2 ADD SWAP2 SWAP1 SWAP2 MSTORE PUSH32 0xC89EFDAA54C0F20C7ADF612882DF0950F5A951637E0307CDCB4C672F298B8BC6 PUSH1 0x60 DUP3 ADD MSTORE PUSH1 0x80 DUP2 ADD DUP3 SWAP1 MSTORE ADDRESS PUSH1 0xA0 DUP3 ADD MSTORE PUSH1 0xC0 ADD PUSH1 0x40 MLOAD PUSH1 0x20 DUP2 DUP4 SUB SUB DUP2 MSTORE SWAP1 PUSH1 0x40 MSTORE DUP1 MLOAD SWAP1 PUSH1 0x20 ADD KECCAK256 SWAP2 POP POP SWAP1 JUMP JUMPDEST PUSH1 0x0 PUSH1 0xA8 SLOAD PUSH1 0x1 EQ PUSH2 0xCE0 JUMPI PUSH1 0x40 MLOAD PUSH3 0x461BCD PUSH1 0xE5 SHL DUP2 MSTORE PUSH1 0x20 PUSH1 0x4 DUP3 ADD MSTORE PUSH1 0xC PUSH1 0x24 DUP3 ADD MSTORE PUSH12 0x10D09090CE881313D0D2D151 PUSH1 0xA2 SHL PUSH1 0x44 DUP3 ADD MSTORE PUSH1 0x64 ADD PUSH2 0x774 JUMP JUMPDEST PUSH1 0x0 PUSH1 0xA8 SSTORE PUSH1 0xA5 SLOAD PUSH1 0x1 PUSH1 0x1 PUSH1 0xA0 SHL SUB AND CALLER EQ PUSH2 0xD32 JUMPI PUSH1 0x40 MLOAD PUSH3 0x461BCD PUSH1 0xE5 SHL DUP2 MSTORE PUSH1 0x20 PUSH1 0x4 DUP3 ADD MSTORE PUSH1 0x10 PUSH1 0x24 DUP3 ADD MSTORE PUSH16 0x21A121219D102727AA2FA927AAAA22A9 PUSH1 0x81 SHL PUSH1 0x44 DUP3 ADD MSTORE PUSH1 0x64 ADD PUSH2 0x774 JUMP JUMPDEST PUSH1 0x9B SLOAD PUSH2 0xE87 JUMPI TIMESTAMP PUSH1 0x9D SSTORE PUSH1 0xA4 SLOAD PUSH1 0x40 DUP1 MLOAD PUSH4 0xC12C2A5 PUSH1 0xE3 SHL DUP2 MSTORE SWAP1 MLOAD PUSH1 0x1 PUSH1 0x1 PUSH1 0xA0 SHL SUB SWAP1 SWAP3 AND SWAP2 PUSH4 0x60961528 SWAP2 PUSH1 0x4 DUP1 DUP3 ADD SWAP3 PUSH1 0x20 SWAP3 SWAP1 SWAP2 SWAP1 DUP3 SWAP1 SUB ADD DUP2 DUP7 DUP1 EXTCODESIZE ISZERO DUP1 ISZERO PUSH2 0xD82 JUMPI PUSH1 0x0 DUP1 REVERT JUMPDEST POP GAS STATICCALL ISZERO DUP1 ISZERO PUSH2 0xD96 JUMPI RETURNDATASIZE PUSH1 0x0 DUP1 RETURNDATACOPY RETURNDATASIZE PUSH1 0x0 REVERT JUMPDEST POP POP POP POP PUSH1 0x40 MLOAD RETURNDATASIZE PUSH1 0x1F NOT PUSH1 0x1F DUP3 ADD AND DUP3 ADD DUP1 PUSH1 0x40 MSTORE POP DUP2 ADD SWAP1 PUSH2 0xDBA SWAP2 SWAP1 PUSH2 0x4C0C JUMP JUMPDEST PUSH1 0xA6 SLOAD PUSH1 0x40 MLOAD PUSH4 0x41976E09 PUSH1 0xE0 SHL DUP2 MSTORE PUSH1 0x1 PUSH1 0x1 PUSH1 0xA0 SHL SUB SWAP2 DUP3 AND PUSH1 0x4 DUP3 ADD MSTORE SWAP2 AND SWAP1 PUSH4 0x41976E09 SWAP1 PUSH1 0x24 ADD PUSH1 0x40 DUP1 MLOAD DUP1 DUP4 SUB DUP2 DUP7 DUP1 EXTCODESIZE ISZERO DUP1 ISZERO PUSH2 0xDFD JUMPI PUSH1 0x0 DUP1 REVERT JUMPDEST POP GAS STATICCALL ISZERO DUP1 ISZERO PUSH2 0xE11 JUMPI RETURNDATASIZE PUSH1 0x0 DUP1 RETURNDATACOPY RETURNDATASIZE PUSH1 0x0 REVERT JUMPDEST POP POP POP POP PUSH1 0x40 MLOAD RETURNDATASIZE PUSH1 0x1F NOT PUSH1 0x1F DUP3 ADD AND DUP3 ADD DUP1 PUSH1 0x40 MSTORE POP DUP2 ADD SWAP1 PUSH2 0xE35 SWAP2 SWAP1 PUSH2 0x4EF7 JUMP JUMPDEST POP PUSH1 0x9E DUP2 SWAP1 SSTORE PUSH2 0xE87 JUMPI PUSH1 0x40 MLOAD PUSH3 0x461BCD PUSH1 0xE5 SHL DUP2 MSTORE PUSH1 0x20 PUSH1 0x4 DUP3 ADD MSTORE PUSH1 0x1A PUSH1 0x24 DUP3 ADD MSTORE PUSH32 0x434242433A20494C4C4547414C5F54524144455F50524943452E000000000000 PUSH1 0x44 DUP3 ADD MSTORE PUSH1 0x64 ADD PUSH2 0x774 JUMP JUMPDEST PUSH2 0xE91 ADDRESS DUP4 PUSH2 0x2CCB JUMP JUMPDEST SWAP1 POP PUSH1 0x0 DUP2 GT PUSH2 0xEEE JUMPI PUSH1 0x40 MLOAD PUSH3 0x461BCD PUSH1 0xE5 SHL DUP2 MSTORE PUSH1 0x20 PUSH1 0x4 DUP3 ADD MSTORE PUSH1 0x22 PUSH1 0x24 DUP3 ADD MSTORE PUSH32 0x434242433A20494E53554646494349454E545F434242435F544F4B454E5F4F55 PUSH1 0x44 DUP3 ADD MSTORE PUSH2 0x2A17 PUSH1 0xF1 SHL PUSH1 0x64 DUP3 ADD MSTORE PUSH1 0x84 ADD PUSH2 0x774 JUMP JUMPDEST PUSH2 0xEF8 DUP4 DUP3 PUSH2 0x32F0 JUMP JUMPDEST DUP3 PUSH1 0x1 PUSH1 0x1 PUSH1 0xA0 SHL SUB AND PUSH32 0xF6798A560793A54C3BCFE86A93CDE1E73087D944C0EA20544137D4121396885 DUP3 PUSH1 0x40 MLOAD PUSH2 0xF33 SWAP2 DUP2 MSTORE PUSH1 0x20 ADD SWAP1 JUMP JUMPDEST PUSH1 0x40 MLOAD DUP1 SWAP2 SUB SWAP1 LOG2 PUSH1 0x1 PUSH1 0xA8 SSTORE SWAP3 SWAP2 POP POP JUMP JUMPDEST CALLER PUSH1 0x0 SWAP1 DUP2 MSTORE PUSH1 0xA2 PUSH1 0x20 SWAP1 DUP2 MSTORE PUSH1 0x40 DUP1 DUP4 KECCAK256 PUSH1 0x1 PUSH1 0x1 PUSH1 0xA0 SHL SUB DUP7 AND DUP5 MSTORE SWAP1 SWAP2 MSTORE DUP2 KECCAK256 SLOAD PUSH1 0x0 NOT EQ PUSH2 0xFAB JUMPI CALLER PUSH1 0x0 SWAP1 DUP2 MSTORE PUSH1 0xA2 PUSH1 0x20 SWAP1 DUP2 MSTORE PUSH1 0x40 DUP1 DUP4 KECCAK256 PUSH1 0x1 PUSH1 0x1 PUSH1 0xA0 SHL SUB DUP8 AND DUP5 MSTORE SWAP1 SWAP2 MSTORE DUP2 KECCAK256 DUP1 SLOAD DUP5 SWAP3 SWAP1 PUSH2 0xFA5 SWAP1 DUP5 SWAP1 PUSH2 0x529A JUMP JUMPDEST SWAP1 SWAP2 SSTORE POP POP JUMPDEST CALLER PUSH1 0x0 DUP2 DUP2 MSTORE PUSH1 0xA2 PUSH1 0x20 SWAP1 DUP2 MSTORE PUSH1 0x40 DUP1 DUP4 KECCAK256 PUSH1 0x1 PUSH1 0x1 PUSH1 0xA0 SHL SUB DUP9 AND DUP1 DUP6 MSTORE SWAP1 DUP4 MSTORE SWAP3 DUP2 SWAP1 KECCAK256 SLOAD SWAP1 MLOAD SWAP1 DUP2 MSTORE SWAP2 SWAP3 SWAP2 PUSH1 0x0 DUP1 MLOAD PUSH1 0x20 PUSH2 0x5565 DUP4 CODECOPY DUP2 MLOAD SWAP2 MSTORE SWAP2 ADD PUSH2 0x723 JUMP JUMPDEST PUSH1 0x9C SLOAD PUSH1 0x1 PUSH1 0x1 PUSH1 0xA0 SHL SUB DUP3 AND PUSH1 0x0 SWAP1 DUP2 MSTORE PUSH1 0xA1 PUSH1 0x20 MSTORE PUSH1 0x40 DUP2 KECCAK256 SLOAD SWAP1 SWAP2 PUSH2 0x72F SWAP2 PUSH2 0x52B2 JUMP JUMPDEST PUSH2 0x102B PUSH1 0x68 SLOAD PUSH1 0x1 PUSH1 0x1 PUSH1 0xA0 SHL SUB AND CALLER EQ SWAP1 JUMP JUMPDEST PUSH2 0x1034 JUMPI PUSH1 0x0 DUP1 REVERT JUMPDEST PUSH1 0x68 SLOAD PUSH1 0x40 MLOAD PUSH1 0x1 PUSH1 0x1 PUSH1 0xA0 SHL SUB SWAP1 SWAP2 AND SWAP1 PUSH32 0xF8DF31144D9C2F0F6B59D69B8B98ABD5459D07F2742C4DF920B25AAE33C64820 SWAP1 PUSH1 0x0 SWAP1 LOG2 PUSH1 0x68 DUP1 SLOAD PUSH1 0x1 PUSH1 0x1 PUSH1 0xA0 SHL SUB NOT AND SWAP1 SSTORE JUMP JUMPDEST PUSH1 0xA4 SLOAD PUSH1 0x0 SWAP1 PUSH1 0x1 PUSH1 0x1 PUSH1 0xA0 SHL SUB AND CALLER EQ PUSH2 0x10DB JUMPI PUSH1 0x40 MLOAD PUSH3 0x461BCD PUSH1 0xE5 SHL DUP2 MSTORE PUSH1 0x20 PUSH1 0x4 DUP3 ADD MSTORE PUSH1 0x17 PUSH1 0x24 DUP3 ADD MSTORE PUSH32 0x434242433A204E4F545F5245424153455F504F4C494359000000000000000000 PUSH1 0x44 DUP3 ADD MSTORE PUSH1 0x64 ADD PUSH2 0x774 JUMP JUMPDEST DUP2 PUSH2 0x123A JUMPI TIMESTAMP PUSH1 0x9D SSTORE PUSH1 0xA4 SLOAD PUSH1 0x40 DUP1 MLOAD PUSH4 0xC12C2A5 PUSH1 0xE3 SHL DUP2 MSTORE SWAP1 MLOAD PUSH1 0x1 PUSH1 0x1 PUSH1 0xA0 SHL SUB SWAP1 SWAP3 AND SWAP2 PUSH4 0x60961528 SWAP2 PUSH1 0x4 DUP1 DUP3 ADD SWAP3 PUSH1 0x20 SWAP3 SWAP1 SWAP2 SWAP1 DUP3 SWAP1 SUB ADD DUP2 DUP7 DUP1 EXTCODESIZE ISZERO DUP1 ISZERO PUSH2 0x1129 JUMPI PUSH1 0x0 DUP1 REVERT JUMPDEST POP GAS STATICCALL ISZERO DUP1 ISZERO PUSH2 0x113D JUMPI RETURNDATASIZE PUSH1 0x0 DUP1 RETURNDATACOPY RETURNDATASIZE PUSH1 0x0 REVERT JUMPDEST POP POP POP POP PUSH1 0x40 MLOAD RETURNDATASIZE PUSH1 0x1F NOT PUSH1 0x1F DUP3 ADD AND DUP3 ADD DUP1 PUSH1 0x40 MSTORE POP DUP2 ADD SWAP1 PUSH2 0x1161 SWAP2 SWAP1 PUSH2 0x4C0C JUMP JUMPDEST PUSH1 0xA6 SLOAD PUSH1 0x40 MLOAD PUSH4 0x41976E09 PUSH1 0xE0 SHL DUP2 MSTORE PUSH1 0x1 PUSH1 0x1 PUSH1 0xA0 SHL SUB SWAP2 DUP3 AND PUSH1 0x4 DUP3 ADD MSTORE SWAP2 AND SWAP1 PUSH4 0x41976E09 SWAP1 PUSH1 0x24 ADD PUSH1 0x40 DUP1 MLOAD DUP1 DUP4 SUB DUP2 DUP7 DUP1 EXTCODESIZE ISZERO DUP1 ISZERO PUSH2 0x11A4 JUMPI PUSH1 0x0 DUP1 REVERT JUMPDEST POP GAS STATICCALL ISZERO DUP1 ISZERO PUSH2 0x11B8 JUMPI RETURNDATASIZE PUSH1 0x0 DUP1 RETURNDATACOPY RETURNDATASIZE PUSH1 0x0 REVERT JUMPDEST POP POP POP POP PUSH1 0x40 MLOAD RETURNDATASIZE PUSH1 0x1F NOT PUSH1 0x1F DUP3 ADD AND DUP3 ADD DUP1 PUSH1 0x40 MSTORE POP DUP2 ADD SWAP1 PUSH2 0x11DC SWAP2 SWAP1 PUSH2 0x4EF7 JUMP JUMPDEST POP PUSH1 0x9E DUP2 SWAP1 SSTORE PUSH1 0x9D SLOAD PUSH1 0x9B SLOAD PUSH1 0x40 MLOAD DUP7 SWAP4 PUSH32 0xA9219328B62D2057317E0A7D7634032C7CACA3F5B8230D51B25E957EFC67DBF4 SWAP4 PUSH2 0x1229 SWAP4 SWAP1 DUP4 MSTORE PUSH1 0x20 DUP4 ADD SWAP2 SWAP1 SWAP2 MSTORE PUSH1 0x40 DUP3 ADD MSTORE PUSH1 0x60 ADD SWAP1 JUMP JUMPDEST PUSH1 0x40 MLOAD DUP1 SWAP2 SUB SWAP1 LOG2 POP PUSH1 0x9B SLOAD PUSH2 0x72F JUMP JUMPDEST PUSH1 0x9B SLOAD PUSH1 0x0 SWAP1 DUP2 DUP5 SLT ISZERO PUSH2 0x1262 JUMPI PUSH2 0x1251 DUP5 PUSH2 0x336D JUMP JUMPDEST PUSH2 0x125B SWAP1 DUP3 PUSH2 0x540C JUMP JUMPDEST SWAP2 POP PUSH2 0x1288 JUMP JUMPDEST PUSH2 0x126C DUP5 DUP3 PUSH2 0x529A JUMP JUMPDEST SWAP2 POP PUSH1 0x1 PUSH1 0x1 PUSH1 0x80 SHL SUB DUP3 GT ISZERO PUSH2 0x1288 JUMPI PUSH1 0x1 PUSH1 0x1 PUSH1 0x80 SHL SUB SWAP2 POP JUMPDEST DUP2 DUP2 PUSH1 0x9C SLOAD PUSH2 0x1297 SWAP2 SWAP1 PUSH2 0x53ED JUMP JUMPDEST PUSH2 0x12A1 SWAP2 SWAP1 PUSH2 0x52B2 JUMP JUMPDEST PUSH1 0x9C SSTORE PUSH2 0x12B7 PUSH1 0x1 PUSH1 0x1 PUSH1 0x80 SHL SUB PUSH1 0x0 NOT PUSH2 0x52B2 JUMP JUMPDEST PUSH1 0x9C SLOAD GT ISZERO PUSH2 0x12D7 JUMPI PUSH2 0x12D3 PUSH1 0x1 PUSH1 0x1 PUSH1 0x80 SHL SUB PUSH1 0x0 NOT PUSH2 0x52B2 JUMP JUMPDEST PUSH1 0x9C SSTORE JUMPDEST PUSH1 0x9B DUP3 SWAP1 SSTORE TIMESTAMP PUSH1 0x9D SSTORE PUSH1 0xA4 SLOAD PUSH1 0x40 DUP1 MLOAD PUSH4 0xC12C2A5 PUSH1 0xE3 SHL DUP2 MSTORE SWAP1 MLOAD PUSH1 0x1 PUSH1 0x1 PUSH1 0xA0 SHL SUB SWAP1 SWAP3 AND SWAP2 PUSH4 0x60961528 SWAP2 PUSH1 0x4 DUP1 DUP3 ADD SWAP3 PUSH1 0x20 SWAP3 SWAP1 SWAP2 SWAP1 DUP3 SWAP1 SUB ADD DUP2 DUP7 DUP1 EXTCODESIZE ISZERO DUP1 ISZERO PUSH2 0x1325 JUMPI PUSH1 0x0 DUP1 REVERT JUMPDEST POP GAS STATICCALL ISZERO DUP1 ISZERO PUSH2 0x1339 JUMPI RETURNDATASIZE PUSH1 0x0 DUP1 RETURNDATACOPY RETURNDATASIZE PUSH1 0x0 REVERT JUMPDEST POP POP POP POP PUSH1 0x40 MLOAD RETURNDATASIZE PUSH1 0x1F NOT PUSH1 0x1F DUP3 ADD AND DUP3 ADD DUP1 PUSH1 0x40 MSTORE POP DUP2 ADD SWAP1 PUSH2 0x135D SWAP2 SWAP1 PUSH2 0x4C0C JUMP JUMPDEST PUSH1 0xA6 SLOAD PUSH1 0x40 MLOAD PUSH4 0x41976E09 PUSH1 0xE0 SHL DUP2 MSTORE PUSH1 0x1 PUSH1 0x1 PUSH1 0xA0 SHL SUB SWAP2 DUP3 AND PUSH1 0x4 DUP3 ADD MSTORE SWAP2 AND SWAP1 PUSH4 0x41976E09 SWAP1 PUSH1 0x24 ADD PUSH1 0x40 DUP1 MLOAD DUP1 DUP4 SUB DUP2 DUP7 DUP1 EXTCODESIZE ISZERO DUP1 ISZERO PUSH2 0x13A0 JUMPI PUSH1 0x0 DUP1 REVERT JUMPDEST POP GAS STATICCALL ISZERO DUP1 ISZERO PUSH2 0x13B4 JUMPI RETURNDATASIZE PUSH1 0x0 DUP1 RETURNDATACOPY RETURNDATASIZE PUSH1 0x0 REVERT JUMPDEST POP POP POP POP PUSH1 0x40 MLOAD RETURNDATASIZE PUSH1 0x1F NOT PUSH1 0x1F DUP3 ADD AND DUP3 ADD DUP1 PUSH1 0x40 MSTORE POP DUP2 ADD SWAP1 PUSH2 0x13D8 SWAP2 SWAP1 PUSH2 0x4EF7 JUMP JUMPDEST POP PUSH1 0x9E DUP2 SWAP1 SSTORE PUSH1 0x9D SLOAD PUSH1 0x40 DUP1 MLOAD SWAP2 DUP3 MSTORE PUSH1 0x20 DUP3 ADD SWAP3 SWAP1 SWAP3 MSTORE SWAP1 DUP2 ADD DUP4 SWAP1 MSTORE DUP6 SWAP1 PUSH32 0xA9219328B62D2057317E0A7D7634032C7CACA3F5B8230D51B25E957EFC67DBF4 SWAP1 PUSH1 0x60 ADD PUSH1 0x40 MLOAD DUP1 SWAP2 SUB SWAP1 LOG2 POP SWAP4 SWAP3 POP POP POP JUMP JUMPDEST PUSH1 0x0 DUP2 PUSH1 0x1 PUSH1 0x1 PUSH1 0xA0 SHL SUB DUP2 AND PUSH2 0x1456 JUMPI PUSH1 0x40 MLOAD PUSH3 0x461BCD PUSH1 0xE5 SHL DUP2 MSTORE PUSH1 0x4 ADD PUSH2 0x774 SWAP1 PUSH2 0x51B1 JUMP JUMPDEST PUSH20 0xEB31973E0FEBF3E3D7058234A5EBBAE1AB4B8C23 PUSH1 0x1 PUSH1 0x1 PUSH1 0xA0 SHL SUB DUP3 AND EQ ISZERO PUSH2 0x1493 JUMPI PUSH1 0x40 MLOAD PUSH3 0x461BCD PUSH1 0xE5 SHL DUP2 MSTORE PUSH1 0x4 ADD PUSH2 0x774 SWAP1 PUSH2 0x5169 JUMP JUMPDEST PUSH1 0x1 PUSH1 0x1 PUSH1 0xA0 SHL SUB DUP5 AND PUSH1 0x0 SWAP1 DUP2 MSTORE PUSH1 0xA1 PUSH1 0x20 MSTORE PUSH1 0x40 DUP2 KECCAK256 SLOAD PUSH1 0x9C SLOAD SWAP1 SWAP2 SWAP1 PUSH2 0x14BC SWAP1 DUP4 PUSH2 0x52B2 JUMP JUMPDEST PUSH1 0x1 PUSH1 0x1 PUSH1 0xA0 SHL SUB DUP8 AND PUSH1 0x0 SWAP1 DUP2 MSTORE PUSH1 0xA2 PUSH1 0x20 SWAP1 DUP2 MSTORE PUSH1 0x40 DUP1 DUP4 KECCAK256 CALLER DUP5 MSTORE SWAP1 SWAP2 MSTORE SWAP1 KECCAK256 SLOAD SWAP1 SWAP2 POP PUSH1 0x0 NOT EQ PUSH2 0x153F JUMPI PUSH1 0x1 PUSH1 0x1 PUSH1 0xA0 SHL SUB DUP7 AND PUSH1 0x0 SWAP1 DUP2 MSTORE PUSH1 0xA2 PUSH1 0x20 SWAP1 DUP2 MSTORE PUSH1 0x40 DUP1 DUP4 KECCAK256 CALLER DUP5 MSTORE SWAP1 SWAP2 MSTORE SWAP1 KECCAK256 SLOAD PUSH2 0x151A SWAP1 DUP3 SWAP1 PUSH2 0x540C JUMP JUMPDEST PUSH1 0x1 PUSH1 0x1 PUSH1 0xA0 SHL SUB DUP8 AND PUSH1 0x0 SWAP1 DUP2 MSTORE PUSH1 0xA2 PUSH1 0x20 SWAP1 DUP2 MSTORE PUSH1 0x40 DUP1 DUP4 KECCAK256 CALLER DUP5 MSTORE SWAP1 SWAP2 MSTORE SWAP1 KECCAK256 SSTORE JUMPDEST PUSH1 0x1 PUSH1 0x1 PUSH1 0xA0 SHL SUB DUP1 DUP8 AND PUSH1 0x0 SWAP1 DUP2 MSTORE PUSH1 0xA1 PUSH1 0x20 MSTORE PUSH1 0x40 DUP1 DUP3 KECCAK256 DUP3 SWAP1 SSTORE SWAP2 DUP8 AND DUP2 MSTORE KECCAK256 SLOAD PUSH2 0x156E SWAP1 DUP4 SWAP1 PUSH2 0x529A JUMP JUMPDEST PUSH1 0x1 PUSH1 0x1 PUSH1 0xA0 SHL SUB DUP1 DUP8 AND PUSH1 0x0 DUP2 DUP2 MSTORE PUSH1 0xA1 PUSH1 0x20 MSTORE PUSH1 0x40 SWAP1 DUP2 SWAP1 KECCAK256 SWAP4 SWAP1 SWAP4 SSTORE SWAP2 MLOAD SWAP1 DUP9 AND SWAP1 PUSH1 0x0 DUP1 MLOAD PUSH1 0x20 PUSH2 0x5545 DUP4 CODECOPY DUP2 MLOAD SWAP2 MSTORE SWAP1 PUSH2 0x15B0 SWAP1 DUP6 DUP2 MSTORE PUSH1 0x20 ADD SWAP1 JUMP JUMPDEST PUSH1 0x40 MLOAD DUP1 SWAP2 SUB SWAP1 LOG3 POP PUSH1 0x1 SWAP6 SWAP5 POP POP POP POP POP JUMP JUMPDEST PUSH1 0x0 SLOAD PUSH2 0x100 SWAP1 DIV PUSH1 0xFF AND DUP1 PUSH2 0x15D9 JUMPI POP ADDRESS EXTCODESIZE ISZERO JUMPDEST DUP1 PUSH2 0x15E7 JUMPI POP PUSH1 0x0 SLOAD PUSH1 0xFF AND ISZERO JUMPDEST PUSH2 0x1603 JUMPI PUSH1 0x40 MLOAD PUSH3 0x461BCD PUSH1 0xE5 SHL DUP2 MSTORE PUSH1 0x4 ADD PUSH2 0x774 SWAP1 PUSH2 0x51F3 JUMP JUMPDEST PUSH1 0x0 DUP1 SLOAD PUSH2 0xFFFF NOT DUP2 AND PUSH2 0x101 OR DUP3 SSTORE PUSH2 0x100 SWAP1 DIV PUSH1 0xFF AND SWAP1 PUSH1 0x60 SWAP1 DUP2 SWAP1 DUP5 PUSH1 0x1 DUP2 GT ISZERO PUSH2 0x1641 JUMPI PUSH4 0x4E487B71 PUSH1 0xE0 SHL PUSH1 0x0 MSTORE PUSH1 0x21 PUSH1 0x4 MSTORE PUSH1 0x24 PUSH1 0x0 REVERT JUMPDEST EQ ISZERO PUSH2 0x189E JUMPI PUSH2 0x1653 DUP6 PUSH1 0xFF AND PUSH2 0x3397 JUMP JUMPDEST PUSH1 0x40 MLOAD PUSH4 0x7D85959B PUSH1 0xE1 SHL DUP2 MSTORE PUSH1 0x1 PUSH1 0x1 PUSH1 0xA0 SHL SUB DUP9 DUP2 AND PUSH1 0x4 DUP4 ADD MSTORE DUP11 AND SWAP1 PUSH4 0xFB0B2B36 SWAP1 PUSH1 0x24 ADD PUSH1 0x0 PUSH1 0x40 MLOAD DUP1 DUP4 SUB DUP2 DUP7 DUP1 EXTCODESIZE ISZERO DUP1 ISZERO PUSH2 0x1694 JUMPI PUSH1 0x0 DUP1 REVERT JUMPDEST POP GAS STATICCALL ISZERO DUP1 ISZERO PUSH2 0x16A8 JUMPI RETURNDATASIZE PUSH1 0x0 DUP1 RETURNDATACOPY RETURNDATASIZE PUSH1 0x0 REVERT JUMPDEST POP POP POP POP PUSH1 0x40 MLOAD RETURNDATASIZE PUSH1 0x0 DUP3 RETURNDATACOPY PUSH1 0x1F RETURNDATASIZE SWAP1 DUP2 ADD PUSH1 0x1F NOT AND DUP3 ADD PUSH1 0x40 MSTORE PUSH2 0x16D0 SWAP2 SWAP1 DUP2 ADD SWAP1 PUSH2 0x4DF7 JUMP JUMPDEST PUSH1 0x40 MLOAD PUSH4 0x7D85959B PUSH1 0xE1 SHL DUP2 MSTORE PUSH1 0x1 PUSH1 0x1 PUSH1 0xA0 SHL SUB DUP11 DUP2 AND PUSH1 0x4 DUP4 ADD MSTORE DUP12 AND SWAP1 PUSH4 0xFB0B2B36 SWAP1 PUSH1 0x24 ADD PUSH1 0x0 PUSH1 0x40 MLOAD DUP1 DUP4 SUB DUP2 DUP7 DUP1 EXTCODESIZE ISZERO DUP1 ISZERO PUSH2 0x1711 JUMPI PUSH1 0x0 DUP1 REVERT JUMPDEST POP GAS STATICCALL ISZERO DUP1 ISZERO PUSH2 0x1725 JUMPI RETURNDATASIZE PUSH1 0x0 DUP1 RETURNDATACOPY RETURNDATASIZE PUSH1 0x0 REVERT JUMPDEST POP POP POP POP PUSH1 0x40 MLOAD RETURNDATASIZE PUSH1 0x0 DUP3 RETURNDATACOPY PUSH1 0x1F RETURNDATASIZE SWAP1 DUP2 ADD PUSH1 0x1F NOT AND DUP3 ADD PUSH1 0x40 MSTORE PUSH2 0x174D SWAP2 SWAP1 DUP2 ADD SWAP1 PUSH2 0x4DF7 JUMP JUMPDEST PUSH1 0x40 MLOAD PUSH1 0x20 ADD PUSH2 0x175F SWAP4 SWAP3 SWAP2 SWAP1 PUSH2 0x4FFB JUMP JUMPDEST PUSH1 0x40 MLOAD PUSH1 0x20 DUP2 DUP4 SUB SUB DUP2 MSTORE SWAP1 PUSH1 0x40 MSTORE SWAP2 POP PUSH2 0x177C DUP6 PUSH1 0xFF AND PUSH2 0x3397 JUMP JUMPDEST PUSH1 0x40 MLOAD PUSH4 0x7D85959B PUSH1 0xE1 SHL DUP2 MSTORE PUSH1 0x1 PUSH1 0x1 PUSH1 0xA0 SHL SUB DUP9 DUP2 AND PUSH1 0x4 DUP4 ADD MSTORE DUP11 AND SWAP1 PUSH4 0xFB0B2B36 SWAP1 PUSH1 0x24 ADD PUSH1 0x0 PUSH1 0x40 MLOAD DUP1 DUP4 SUB DUP2 DUP7 DUP1 EXTCODESIZE ISZERO DUP1 ISZERO PUSH2 0x17BD JUMPI PUSH1 0x0 DUP1 REVERT JUMPDEST POP GAS STATICCALL ISZERO DUP1 ISZERO PUSH2 0x17D1 JUMPI RETURNDATASIZE PUSH1 0x0 DUP1 RETURNDATACOPY RETURNDATASIZE PUSH1 0x0 REVERT JUMPDEST POP POP POP POP PUSH1 0x40 MLOAD RETURNDATASIZE PUSH1 0x0 DUP3 RETURNDATACOPY PUSH1 0x1F RETURNDATASIZE SWAP1 DUP2 ADD PUSH1 0x1F NOT AND DUP3 ADD PUSH1 0x40 MSTORE PUSH2 0x17F9 SWAP2 SWAP1 DUP2 ADD SWAP1 PUSH2 0x4DF7 JUMP JUMPDEST PUSH1 0x40 MLOAD PUSH4 0x7D85959B PUSH1 0xE1 SHL DUP2 MSTORE PUSH1 0x1 PUSH1 0x1 PUSH1 0xA0 SHL SUB DUP11 DUP2 AND PUSH1 0x4 DUP4 ADD MSTORE DUP12 AND SWAP1 PUSH4 0xFB0B2B36 SWAP1 PUSH1 0x24 ADD PUSH1 0x0 PUSH1 0x40 MLOAD DUP1 DUP4 SUB DUP2 DUP7 DUP1 EXTCODESIZE ISZERO DUP1 ISZERO PUSH2 0x183A JUMPI PUSH1 0x0 DUP1 REVERT JUMPDEST POP GAS STATICCALL ISZERO DUP1 ISZERO PUSH2 0x184E JUMPI RETURNDATASIZE PUSH1 0x0 DUP1 RETURNDATACOPY RETURNDATASIZE PUSH1 0x0 REVERT JUMPDEST POP POP POP POP PUSH1 0x40 MLOAD RETURNDATASIZE PUSH1 0x0 DUP3 RETURNDATACOPY PUSH1 0x1F RETURNDATASIZE SWAP1 DUP2 ADD PUSH1 0x1F NOT AND DUP3 ADD PUSH1 0x40 MSTORE PUSH2 0x1876 SWAP2 SWAP1 DUP2 ADD SWAP1 PUSH2 0x4DF7 JUMP JUMPDEST PUSH1 0x40 MLOAD PUSH1 0x20 ADD PUSH2 0x1888 SWAP4 SWAP3 SWAP2 SWAP1 PUSH2 0x506C JUMP JUMPDEST PUSH1 0x40 MLOAD PUSH1 0x20 DUP2 DUP4 SUB SUB DUP2 MSTORE SWAP1 PUSH1 0x40 MSTORE SWAP1 POP PUSH2 0x1B42 JUMP JUMPDEST PUSH1 0x1 DUP5 PUSH1 0x1 DUP2 GT ISZERO PUSH2 0x18C0 JUMPI PUSH4 0x4E487B71 PUSH1 0xE0 SHL PUSH1 0x0 MSTORE PUSH1 0x21 PUSH1 0x4 MSTORE PUSH1 0x24 PUSH1 0x0 REVERT JUMPDEST EQ ISZERO PUSH2 0x1B07 JUMPI PUSH2 0x18D2 DUP6 PUSH1 0xFF AND PUSH2 0x3397 JUMP JUMPDEST PUSH1 0x40 MLOAD PUSH4 0x7D85959B PUSH1 0xE1 SHL DUP2 MSTORE PUSH1 0x1 PUSH1 0x1 PUSH1 0xA0 SHL SUB DUP9 DUP2 AND PUSH1 0x4 DUP4 ADD MSTORE DUP11 AND SWAP1 PUSH4 0xFB0B2B36 SWAP1 PUSH1 0x24 ADD PUSH1 0x0 PUSH1 0x40 MLOAD DUP1 DUP4 SUB DUP2 DUP7 DUP1 EXTCODESIZE ISZERO DUP1 ISZERO PUSH2 0x1913 JUMPI PUSH1 0x0 DUP1 REVERT JUMPDEST POP GAS STATICCALL ISZERO DUP1 ISZERO PUSH2 0x1927 JUMPI RETURNDATASIZE PUSH1 0x0 DUP1 RETURNDATACOPY RETURNDATASIZE PUSH1 0x0 REVERT JUMPDEST POP POP POP POP PUSH1 0x40 MLOAD RETURNDATASIZE PUSH1 0x0 DUP3 RETURNDATACOPY PUSH1 0x1F RETURNDATASIZE SWAP1 DUP2 ADD PUSH1 0x1F NOT AND DUP3 ADD PUSH1 0x40 MSTORE PUSH2 0x194F SWAP2 SWAP1 DUP2 ADD SWAP1 PUSH2 0x4DF7 JUMP JUMPDEST PUSH1 0x40 MLOAD PUSH4 0x7D85959B PUSH1 0xE1 SHL DUP2 MSTORE PUSH1 0x1 PUSH1 0x1 PUSH1 0xA0 SHL SUB DUP11 DUP2 AND PUSH1 0x4 DUP4 ADD MSTORE DUP12 AND SWAP1 PUSH4 0xFB0B2B36 SWAP1 PUSH1 0x24 ADD PUSH1 0x0 PUSH1 0x40 MLOAD DUP1 DUP4 SUB DUP2 DUP7 DUP1 EXTCODESIZE ISZERO DUP1 ISZERO PUSH2 0x1990 JUMPI PUSH1 0x0 DUP1 REVERT JUMPDEST POP GAS STATICCALL ISZERO DUP1 ISZERO PUSH2 0x19A4 JUMPI RETURNDATASIZE PUSH1 0x0 DUP1 RETURNDATACOPY RETURNDATASIZE PUSH1 0x0 REVERT JUMPDEST POP POP POP POP PUSH1 0x40 MLOAD RETURNDATASIZE PUSH1 0x0 DUP3 RETURNDATACOPY PUSH1 0x1F RETURNDATASIZE SWAP1 DUP2 ADD PUSH1 0x1F NOT AND DUP3 ADD PUSH1 0x40 MSTORE PUSH2 0x19CC SWAP2 SWAP1 DUP2 ADD SWAP1 PUSH2 0x4DF7 JUMP JUMPDEST PUSH1 0x40 MLOAD PUSH1 0x20 ADD PUSH2 0x19DE SWAP4 SWAP3 SWAP2 SWAP1 PUSH2 0x4F9B JUMP JUMPDEST PUSH1 0x40 MLOAD PUSH1 0x20 DUP2 DUP4 SUB SUB DUP2 MSTORE SWAP1 PUSH1 0x40 MSTORE SWAP2 POP PUSH2 0x19FB DUP6 PUSH1 0xFF AND PUSH2 0x3397 JUMP JUMPDEST PUSH1 0x40 MLOAD PUSH4 0x7D85959B PUSH1 0xE1 SHL DUP2 MSTORE PUSH1 0x1 PUSH1 0x1 PUSH1 0xA0 SHL SUB DUP9 DUP2 AND PUSH1 0x4 DUP4 ADD MSTORE DUP11 AND SWAP1 PUSH4 0xFB0B2B36 SWAP1 PUSH1 0x24 ADD PUSH1 0x0 PUSH1 0x40 MLOAD DUP1 DUP4 SUB DUP2 DUP7 DUP1 EXTCODESIZE ISZERO DUP1 ISZERO PUSH2 0x1A3C JUMPI PUSH1 0x0 DUP1 REVERT JUMPDEST POP GAS STATICCALL ISZERO DUP1 ISZERO PUSH2 0x1A50 JUMPI RETURNDATASIZE PUSH1 0x0 DUP1 RETURNDATACOPY RETURNDATASIZE PUSH1 0x0 REVERT JUMPDEST POP POP POP POP PUSH1 0x40 MLOAD RETURNDATASIZE PUSH1 0x0 DUP3 RETURNDATACOPY PUSH1 0x1F RETURNDATASIZE SWAP1 DUP2 ADD PUSH1 0x1F NOT AND DUP3 ADD PUSH1 0x40 MSTORE PUSH2 0x1A78 SWAP2 SWAP1 DUP2 ADD SWAP1 PUSH2 0x4DF7 JUMP JUMPDEST PUSH1 0x40 MLOAD PUSH4 0x7D85959B PUSH1 0xE1 SHL DUP2 MSTORE PUSH1 0x1 PUSH1 0x1 PUSH1 0xA0 SHL SUB DUP11 DUP2 AND PUSH1 0x4 DUP4 ADD MSTORE DUP12 AND SWAP1 PUSH4 0xFB0B2B36 SWAP1 PUSH1 0x24 ADD PUSH1 0x0 PUSH1 0x40 MLOAD DUP1 DUP4 SUB DUP2 DUP7 DUP1 EXTCODESIZE ISZERO DUP1 ISZERO PUSH2 0x1AB9 JUMPI PUSH1 0x0 DUP1 REVERT JUMPDEST POP GAS STATICCALL ISZERO DUP1 ISZERO PUSH2 0x1ACD JUMPI RETURNDATASIZE PUSH1 0x0 DUP1 RETURNDATACOPY RETURNDATASIZE PUSH1 0x0 REVERT JUMPDEST POP POP POP POP PUSH1 0x40 MLOAD RETURNDATASIZE PUSH1 0x0 DUP3 RETURNDATACOPY PUSH1 0x1F RETURNDATASIZE SWAP1 DUP2 ADD PUSH1 0x1F NOT AND DUP3 ADD PUSH1 0x40 MSTORE PUSH2 0x1AF5 SWAP2 SWAP1 DUP2 ADD SWAP1 PUSH2 0x4DF7 JUMP JUMPDEST PUSH1 0x40 MLOAD PUSH1 0x20 ADD PUSH2 0x1888 SWAP4 SWAP3 SWAP2 SWAP1 PUSH2 0x4F58 JUMP JUMPDEST PUSH1 0x40 MLOAD PUSH3 0x461BCD PUSH1 0xE5 SHL DUP2 MSTORE PUSH1 0x20 PUSH1 0x4 DUP3 ADD MSTORE PUSH1 0x10 PUSH1 0x24 DUP3 ADD MSTORE PUSH16 0x434242433A2057524F4E475F54595045 PUSH1 0x80 SHL PUSH1 0x44 DUP3 ADD MSTORE PUSH1 0x64 ADD PUSH2 0x774 JUMP JUMPDEST PUSH2 0x1B4E DUP3 DUP3 PUSH1 0x12 PUSH2 0x735 JUMP JUMPDEST PUSH2 0x1B57 CALLER PUSH2 0x2093 JUMP JUMPDEST PUSH1 0xA3 DUP1 SLOAD PUSH1 0x1 PUSH1 0x1 PUSH1 0xA0 SHL SUB NOT SWAP1 DUP2 AND PUSH1 0x1 PUSH1 0x1 PUSH1 0xA0 SHL SUB DUP12 DUP2 AND SWAP2 SWAP1 SWAP2 OR SWAP1 SWAP3 SSTORE PUSH1 0xA7 DUP1 SLOAD PUSH1 0xA6 DUP1 SLOAD SWAP1 SWAP4 AND DUP11 DUP6 AND OR SWAP1 SWAP3 SSTORE SWAP2 DUP10 AND PUSH1 0x1 PUSH1 0x1 PUSH1 0xA8 SHL SUB NOT SWAP1 SWAP2 AND OR PUSH1 0x1 PUSH1 0xA0 SHL PUSH1 0xFF DUP9 AND MUL OR DUP1 DUP3 SSTORE DUP6 SWAP2 SWAP1 PUSH1 0xFF PUSH1 0xA8 SHL NOT AND PUSH1 0x1 PUSH1 0xA8 SHL DUP4 PUSH1 0x1 DUP2 GT ISZERO PUSH2 0x1BD8 JUMPI PUSH4 0x4E487B71 PUSH1 0xE0 SHL PUSH1 0x0 MSTORE PUSH1 0x21 PUSH1 0x4 MSTORE PUSH1 0x24 PUSH1 0x0 REVERT JUMPDEST MUL OR SWAP1 SSTORE POP PUSH1 0xA7 SLOAD PUSH1 0xA6 SLOAD PUSH1 0x40 MLOAD PUSH4 0xB5663A99 PUSH1 0xE0 SHL DUP2 MSTORE PUSH1 0x1 PUSH1 0x1 PUSH1 0xA0 SHL SUB DUP1 DUP13 AND SWAP4 PUSH4 0xB5663A99 SWAP4 PUSH2 0x1C2F SWAP4 DUP3 DUP5 AND SWAP4 SWAP2 SWAP1 SWAP2 AND SWAP2 PUSH1 0xFF PUSH1 0x1 PUSH1 0xA0 SHL DUP3 DIV DUP2 AND SWAP3 PUSH1 0x1 PUSH1 0xA8 SHL SWAP1 SWAP3 DIV AND SWAP1 ADDRESS SWAP1 PUSH1 0x4 ADD PUSH2 0x50BF JUMP JUMPDEST PUSH1 0x0 PUSH1 0x40 MLOAD DUP1 DUP4 SUB DUP2 PUSH1 0x0 DUP8 DUP1 EXTCODESIZE ISZERO DUP1 ISZERO PUSH2 0x1C49 JUMPI PUSH1 0x0 DUP1 REVERT JUMPDEST POP GAS CALL ISZERO DUP1 ISZERO PUSH2 0x1C5D JUMPI RETURNDATASIZE PUSH1 0x0 DUP1 RETURNDATACOPY RETURNDATASIZE PUSH1 0x0 REVERT JUMPDEST POP POP PUSH1 0xA6 SLOAD PUSH1 0xA7 SLOAD PUSH1 0x40 MLOAD PUSH1 0x1 PUSH1 0x1 PUSH1 0xA0 SHL SUB SWAP3 DUP4 AND SWAP5 POP SWAP2 DUP2 AND SWAP3 POP PUSH32 0xCA8075CEFDC80BB9531729CB4DFB80AAA9CB4932AF090E52CFBDDD81C187AD8E SWAP2 PUSH2 0x1CBC SWAP2 ADDRESS SWAP2 PUSH1 0xFF PUSH1 0x1 PUSH1 0xA0 SHL DUP4 DIV DUP2 AND SWAP3 PUSH1 0x1 PUSH1 0xA8 SHL SWAP1 DIV AND SWAP1 PUSH2 0x5102 JUMP JUMPDEST PUSH1 0x40 MLOAD DUP1 SWAP2 SUB SWAP1 LOG3 POP POP PUSH1 0xA7 DUP1 SLOAD PUSH2 0xFFFF PUSH1 0xB0 SHL NOT AND SWAP1 SSTORE PUSH1 0x0 DUP1 SLOAD SWAP2 ISZERO ISZERO PUSH2 0x100 MUL PUSH2 0xFF00 NOT SWAP1 SWAP3 AND SWAP2 SWAP1 SWAP2 OR SWAP1 SSTORE POP POP POP POP POP JUMP JUMPDEST PUSH1 0x60 PUSH1 0x34 DUP1 SLOAD PUSH2 0x656 SWAP1 PUSH2 0x5453 JUMP JUMPDEST PUSH1 0x0 PUSH1 0x9B SLOAD PUSH1 0x0 EQ ISZERO PUSH2 0x1D22 JUMPI PUSH2 0x1D1B PUSH1 0x12 PUSH1 0xA PUSH2 0x530C JUMP JUMPDEST SWAP1 POP PUSH2 0x6D7 JUMP JUMPDEST PUSH2 0x1D1B ADDRESS PUSH1 0x0 DUP1 PUSH1 0x0 PUSH2 0x352D JUMP JUMPDEST PUSH1 0x0 DUP2 PUSH1 0x1 PUSH1 0x1 PUSH1 0xA0 SHL SUB DUP2 AND PUSH2 0x1D59 JUMPI PUSH1 0x40 MLOAD PUSH3 0x461BCD PUSH1 0xE5 SHL DUP2 MSTORE PUSH1 0x4 ADD PUSH2 0x774 SWAP1 PUSH2 0x51B1 JUMP JUMPDEST PUSH20 0xEB31973E0FEBF3E3D7058234A5EBBAE1AB4B8C23 PUSH1 0x1 PUSH1 0x1 PUSH1 0xA0 SHL SUB DUP3 AND EQ ISZERO PUSH2 0x1D96 JUMPI PUSH1 0x40 MLOAD PUSH3 0x461BCD PUSH1 0xE5 SHL DUP2 MSTORE PUSH1 0x4 ADD PUSH2 0x774 SWAP1 PUSH2 0x5169 JUMP JUMPDEST CALLER PUSH1 0x0 SWAP1 DUP2 MSTORE PUSH1 0xA1 PUSH1 0x20 MSTORE PUSH1 0x40 DUP2 KECCAK256 SLOAD PUSH1 0x9C SLOAD SWAP1 SWAP2 SWAP1 PUSH2 0x1DB6 SWAP1 DUP4 PUSH2 0x52B2 JUMP JUMPDEST CALLER PUSH1 0x0 SWAP1 DUP2 MSTORE PUSH1 0xA1 PUSH1 0x20 MSTORE PUSH1 0x40 DUP1 DUP3 KECCAK256 DUP3 SWAP1 SSTORE PUSH1 0x1 PUSH1 0x1 PUSH1 0xA0 SHL SUB DUP9 AND DUP3 MSTORE SWAP1 KECCAK256 SLOAD SWAP1 SWAP2 POP PUSH2 0x1DE6 SWAP1 DUP4 SWAP1 PUSH2 0x529A JUMP JUMPDEST PUSH1 0x1 PUSH1 0x1 PUSH1 0xA0 SHL SUB DUP7 AND PUSH1 0x0 DUP2 DUP2 MSTORE PUSH1 0xA1 PUSH1 0x20 MSTORE PUSH1 0x40 SWAP1 DUP2 SWAP1 KECCAK256 SWAP3 SWAP1 SWAP3 SSTORE SWAP1 MLOAD CALLER SWAP1 PUSH1 0x0 DUP1 MLOAD PUSH1 0x20 PUSH2 0x5545 DUP4 CODECOPY DUP2 MLOAD SWAP2 MSTORE SWAP1 PUSH2 0x1E25 SWAP1 DUP6 DUP2 MSTORE PUSH1 0x20 ADD SWAP1 JUMP JUMPDEST PUSH1 0x40 MLOAD DUP1 SWAP2 SUB SWAP1 LOG3 PUSH1 0x1 SWAP4 POP POP POP JUMPDEST POP SWAP2 SWAP1 POP JUMP JUMPDEST CALLER PUSH1 0x0 SWAP1 DUP2 MSTORE PUSH1 0xA2 PUSH1 0x20 SWAP1 DUP2 MSTORE PUSH1 0x40 DUP1 DUP4 KECCAK256 PUSH1 0x1 PUSH1 0x1 PUSH1 0xA0 SHL SUB DUP7 AND DUP5 MSTORE SWAP1 SWAP2 MSTORE DUP2 KECCAK256 SLOAD PUSH1 0x0 NOT DUP2 EQ PUSH2 0x1EA6 JUMPI DUP1 DUP4 LT ISZERO PUSH2 0x1E7E JUMPI PUSH2 0x1E79 DUP4 DUP3 PUSH2 0x540C JUMP JUMPDEST PUSH2 0x1E81 JUMP JUMPDEST PUSH1 0x0 JUMPDEST CALLER PUSH1 0x0 SWAP1 DUP2 MSTORE PUSH1 0xA2 PUSH1 0x20 SWAP1 DUP2 MSTORE PUSH1 0x40 DUP1 DUP4 KECCAK256 PUSH1 0x1 PUSH1 0x1 PUSH1 0xA0 SHL SUB DUP10 AND DUP5 MSTORE SWAP1 SWAP2 MSTORE SWAP1 KECCAK256 SSTORE JUMPDEST CALLER PUSH1 0x0 DUP2 DUP2 MSTORE PUSH1 0xA2 PUSH1 0x20 SWAP1 DUP2 MSTORE PUSH1 0x40 DUP1 DUP4 KECCAK256 PUSH1 0x1 PUSH1 0x1 PUSH1 0xA0 SHL SUB DUP10 AND DUP1 DUP6 MSTORE SWAP1 DUP4 MSTORE SWAP3 DUP2 SWAP1 KECCAK256 SLOAD SWAP1 MLOAD SWAP1 DUP2 MSTORE SWAP2 SWAP3 SWAP2 PUSH1 0x0 DUP1 MLOAD PUSH1 0x20 PUSH2 0x5565 DUP4 CODECOPY DUP2 MLOAD SWAP2 MSTORE SWAP2 ADD PUSH1 0x40 MLOAD DUP1 SWAP2 SUB SWAP1 LOG3 POP PUSH1 0x1 SWAP4 SWAP3 POP POP POP JUMP JUMPDEST PUSH1 0x0 DUP3 PUSH1 0x1 PUSH1 0x1 PUSH1 0xA0 SHL SUB DUP2 AND PUSH2 0x1F21 JUMPI PUSH1 0x40 MLOAD PUSH3 0x461BCD PUSH1 0xE5 SHL DUP2 MSTORE PUSH1 0x4 ADD PUSH2 0x774 SWAP1 PUSH2 0x51B1 JUMP JUMPDEST PUSH20 0xEB31973E0FEBF3E3D7058234A5EBBAE1AB4B8C23 PUSH1 0x1 PUSH1 0x1 PUSH1 0xA0 SHL SUB DUP3 AND EQ ISZERO PUSH2 0x1F5E JUMPI PUSH1 0x40 MLOAD PUSH3 0x461BCD PUSH1 0xE5 SHL DUP2 MSTORE PUSH1 0x4 ADD PUSH2 0x774 SWAP1 PUSH2 0x5169 JUMP JUMPDEST PUSH1 0x0 PUSH1 0x9C SLOAD DUP5 PUSH2 0x1F6E SWAP2 SWAP1 PUSH2 0x53ED JUMP JUMPDEST CALLER PUSH1 0x0 SWAP1 DUP2 MSTORE PUSH1 0xA1 PUSH1 0x20 MSTORE PUSH1 0x40 SWAP1 KECCAK256 SLOAD SWAP1 SWAP2 POP PUSH2 0x1F8C SWAP1 DUP3 SWAP1 PUSH2 0x540C JUMP JUMPDEST CALLER PUSH1 0x0 SWAP1 DUP2 MSTORE PUSH1 0xA1 PUSH1 0x20 MSTORE PUSH1 0x40 DUP1 DUP3 KECCAK256 SWAP3 SWAP1 SWAP3 SSTORE PUSH1 0x1 PUSH1 0x1 PUSH1 0xA0 SHL SUB DUP8 AND DUP2 MSTORE KECCAK256 SLOAD PUSH2 0x1FB9 SWAP1 DUP3 SWAP1 PUSH2 0x529A JUMP JUMPDEST PUSH1 0x1 PUSH1 0x1 PUSH1 0xA0 SHL SUB DUP7 AND PUSH1 0x0 DUP2 DUP2 MSTORE PUSH1 0xA1 PUSH1 0x20 MSTORE PUSH1 0x40 SWAP1 DUP2 SWAP1 KECCAK256 SWAP3 SWAP1 SWAP3 SSTORE SWAP1 MLOAD CALLER SWAP1 PUSH1 0x0 DUP1 MLOAD PUSH1 0x20 PUSH2 0x5545 DUP4 CODECOPY DUP2 MLOAD SWAP2 MSTORE SWAP1 PUSH2 0x1FF8 SWAP1 DUP9 DUP2 MSTORE PUSH1 0x20 ADD SWAP1 JUMP JUMPDEST PUSH1 0x40 MLOAD DUP1 SWAP2 SUB SWAP1 LOG3 POP PUSH1 0x1 SWAP5 SWAP4 POP POP POP POP JUMP JUMPDEST PUSH1 0x0 PUSH1 0x9C SLOAD PUSH1 0x9B SLOAD PUSH2 0x201D SWAP2 SWAP1 PUSH2 0x53ED JUMP JUMPDEST SWAP1 POP SWAP1 JUMP JUMPDEST PUSH2 0x2036 PUSH1 0x68 SLOAD PUSH1 0x1 PUSH1 0x1 PUSH1 0xA0 SHL SUB AND CALLER EQ SWAP1 JUMP JUMPDEST PUSH2 0x203F JUMPI PUSH1 0x0 DUP1 REVERT JUMPDEST PUSH1 0xA5 DUP1 SLOAD PUSH1 0x1 PUSH1 0x1 PUSH1 0xA0 SHL SUB NOT AND PUSH1 0x1 PUSH1 0x1 PUSH1 0xA0 SHL SUB DUP4 AND SWAP1 DUP2 OR SWAP1 SWAP2 SSTORE PUSH1 0x40 MLOAD SWAP1 DUP2 MSTORE PUSH31 0x4A100C1311E1C30D22C9EE16306A164BE79DB67AEDEF8B90FFC4D244CD003A SWAP1 PUSH1 0x20 ADD JUMPDEST PUSH1 0x40 MLOAD DUP1 SWAP2 SUB SWAP1 LOG1 POP JUMP JUMPDEST PUSH1 0x0 SLOAD PUSH2 0x100 SWAP1 DIV PUSH1 0xFF AND DUP1 PUSH2 0x20A8 JUMPI POP ADDRESS EXTCODESIZE ISZERO JUMPDEST DUP1 PUSH2 0x20B6 JUMPI POP PUSH1 0x0 SLOAD PUSH1 0xFF AND ISZERO JUMPDEST PUSH2 0x20D2 JUMPI PUSH1 0x40 MLOAD PUSH3 0x461BCD PUSH1 0xE5 SHL DUP2 MSTORE PUSH1 0x4 ADD PUSH2 0x774 SWAP1 PUSH2 0x51F3 JUMP JUMPDEST PUSH1 0x0 DUP1 SLOAD PUSH1 0x68 DUP1 SLOAD PUSH1 0x1 PUSH1 0x1 PUSH1 0xA0 SHL SUB NOT AND PUSH1 0x1 PUSH1 0x1 PUSH1 0xA0 SHL SUB SWAP5 SWAP1 SWAP5 AND SWAP4 SWAP1 SWAP4 OR SWAP1 SWAP3 SSTORE PUSH2 0xFFFF NOT DUP3 AND PUSH2 0x100 SWAP3 DUP4 SWAP1 DIV PUSH1 0xFF AND ISZERO ISZERO SWAP1 SWAP3 MUL SWAP2 SWAP1 SWAP2 OR PUSH1 0x1 OR SWAP1 SSTORE JUMP JUMPDEST DUP4 TIMESTAMP GT ISZERO PUSH2 0x2160 JUMPI PUSH1 0x40 MLOAD PUSH3 0x461BCD PUSH1 0xE5 SHL DUP2 MSTORE PUSH1 0x20 PUSH1 0x4 DUP3 ADD MSTORE PUSH1 0x16 PUSH1 0x24 DUP3 ADD MSTORE PUSH22 0x434242433A3A7065726D69743A204558504952454421 PUSH1 0x50 SHL PUSH1 0x44 DUP3 ADD MSTORE PUSH1 0x64 ADD PUSH2 0x774 JUMP JUMPDEST PUSH1 0x1 PUSH1 0x1 PUSH1 0xA0 SHL SUB DUP8 DUP2 AND PUSH1 0x0 DUP2 DUP2 MSTORE PUSH1 0xA0 PUSH1 0x20 DUP2 DUP2 MSTORE PUSH1 0x40 DUP1 DUP5 KECCAK256 SLOAD DUP2 MLOAD PUSH32 0x6E71EDAE12B1B97F4D1F60370FEF10105FA2FAAE0126114A169C64845D6126C9 SWAP4 DUP2 ADD SWAP4 SWAP1 SWAP4 MSTORE SWAP1 DUP3 ADD SWAP5 SWAP1 SWAP5 MSTORE SWAP4 DUP11 AND PUSH1 0x60 DUP6 ADD MSTORE PUSH1 0x80 DUP5 ADD DUP10 SWAP1 MSTORE DUP4 ADD DUP3 SWAP1 MSTORE PUSH1 0xC0 DUP4 ADD DUP8 SWAP1 MSTORE SWAP1 SWAP2 PUSH1 0xE0 ADD PUSH1 0x40 MLOAD PUSH1 0x20 DUP2 DUP4 SUB SUB DUP2 MSTORE SWAP1 PUSH1 0x40 MSTORE DUP1 MLOAD SWAP1 PUSH1 0x20 ADD KECCAK256 SWAP1 POP PUSH1 0x0 PUSH2 0x21F0 PUSH2 0xBF1 JUMP JUMPDEST PUSH1 0x40 MLOAD PUSH2 0x1901 PUSH1 0xF0 SHL PUSH1 0x20 DUP3 ADD MSTORE PUSH1 0x22 DUP2 ADD SWAP2 SWAP1 SWAP2 MSTORE PUSH1 0x42 DUP2 ADD DUP4 SWAP1 MSTORE PUSH1 0x62 ADD PUSH1 0x40 DUP1 MLOAD PUSH1 0x1F NOT DUP2 DUP5 SUB ADD DUP2 MSTORE DUP3 DUP3 MSTORE DUP1 MLOAD PUSH1 0x20 SWAP2 DUP3 ADD KECCAK256 PUSH1 0x0 DUP5 MSTORE SWAP1 DUP4 ADD DUP1 DUP4 MSTORE DUP2 SWAP1 MSTORE PUSH1 0xFF DUP10 AND SWAP2 DUP4 ADD SWAP2 SWAP1 SWAP2 MSTORE PUSH1 0x60 DUP3 ADD DUP8 SWAP1 MSTORE PUSH1 0x80 DUP3 ADD DUP7 SWAP1 MSTORE SWAP2 POP PUSH1 0x1 SWAP1 PUSH1 0xA0 ADD PUSH1 0x20 PUSH1 0x40 MLOAD PUSH1 0x20 DUP2 SUB SWAP1 DUP1 DUP5 SUB SWAP1 DUP6 GAS STATICCALL ISZERO DUP1 ISZERO PUSH2 0x2278 JUMPI RETURNDATASIZE PUSH1 0x0 DUP1 RETURNDATACOPY RETURNDATASIZE PUSH1 0x0 REVERT JUMPDEST POP POP POP PUSH1 0x20 PUSH1 0x40 MLOAD SUB MLOAD PUSH1 0x1 PUSH1 0x1 PUSH1 0xA0 SHL SUB AND DUP11 PUSH1 0x1 PUSH1 0x1 PUSH1 0xA0 SHL SUB AND EQ PUSH2 0x22E2 JUMPI PUSH1 0x40 MLOAD PUSH3 0x461BCD PUSH1 0xE5 SHL DUP2 MSTORE PUSH1 0x20 PUSH1 0x4 DUP3 ADD MSTORE PUSH1 0x17 PUSH1 0x24 DUP3 ADD MSTORE PUSH32 0x434242433A20494E56414C49445F5349474E4154555245000000000000000000 PUSH1 0x44 DUP3 ADD MSTORE PUSH1 0x64 ADD PUSH2 0x774 JUMP JUMPDEST PUSH2 0x22ED DUP4 PUSH1 0x1 PUSH2 0x529A JUMP JUMPDEST PUSH1 0x1 PUSH1 0x1 PUSH1 0xA0 SHL SUB DUP12 DUP2 AND PUSH1 0x0 DUP2 DUP2 MSTORE PUSH1 0xA0 PUSH1 0x20 SWAP1 DUP2 MSTORE PUSH1 0x40 DUP1 DUP4 KECCAK256 SWAP6 SWAP1 SWAP6 SSTORE PUSH1 0xA2 DUP2 MSTORE DUP5 DUP3 KECCAK256 SWAP4 DUP15 AND DUP1 DUP4 MSTORE SWAP4 DUP2 MSTORE SWAP1 DUP5 SWAP1 KECCAK256 DUP13 SWAP1 SSTORE SWAP3 MLOAD DUP12 DUP2 MSTORE SWAP2 SWAP3 SWAP1 SWAP2 PUSH1 0x0 DUP1 MLOAD PUSH1 0x20 PUSH2 0x5565 DUP4 CODECOPY DUP2 MLOAD SWAP2 MSTORE SWAP2 ADD PUSH1 0x40 MLOAD DUP1 SWAP2 SUB SWAP1 LOG3 POP POP POP POP POP POP POP POP POP POP JUMP JUMPDEST PUSH2 0x2366 PUSH1 0x68 SLOAD PUSH1 0x1 PUSH1 0x1 PUSH1 0xA0 SHL SUB AND CALLER EQ SWAP1 JUMP JUMPDEST PUSH2 0x236F JUMPI PUSH1 0x0 DUP1 REVERT JUMPDEST PUSH1 0x9F DUP2 SWAP1 SSTORE PUSH1 0x40 MLOAD DUP2 DUP2 MSTORE PUSH32 0x72263207FB67FF82292D08DCD9E132BFD605A952099610B513982C70B38616E3 SWAP1 PUSH1 0x20 ADD PUSH2 0x2088 JUMP JUMPDEST PUSH2 0x23B8 PUSH1 0x68 SLOAD PUSH1 0x1 PUSH1 0x1 PUSH1 0xA0 SHL SUB AND CALLER EQ SWAP1 JUMP JUMPDEST DUP1 PUSH2 0x23CB JUMPI POP CALLER PUSH1 0x1 PUSH1 0x1 PUSH1 0xA0 SHL SUB DUP3 AND EQ JUMPDEST PUSH2 0x2422 JUMPI PUSH1 0x40 MLOAD PUSH3 0x461BCD PUSH1 0xE5 SHL DUP2 MSTORE PUSH1 0x20 PUSH1 0x4 DUP3 ADD MSTORE PUSH1 0x22 PUSH1 0x24 DUP3 ADD MSTORE PUSH32 0x434242433A205345545F5245424153455F504F4C4943595F464F524249444445 PUSH1 0x44 DUP3 ADD MSTORE PUSH2 0x2717 PUSH1 0xF1 SHL PUSH1 0x64 DUP3 ADD MSTORE PUSH1 0x84 ADD PUSH2 0x774 JUMP JUMPDEST PUSH1 0xA4 DUP1 SLOAD PUSH1 0x1 PUSH1 0x1 PUSH1 0xA0 SHL SUB NOT AND PUSH1 0x1 PUSH1 0x1 PUSH1 0xA0 SHL SUB DUP4 AND SWAP1 DUP2 OR SWAP1 SWAP2 SSTORE PUSH1 0x40 MLOAD SWAP1 DUP2 MSTORE PUSH32 0x1B2A6EED04CAAC6E24DE29FAF0D56A1000F33980E10F682E1A01E7CAA097E7ED SWAP1 PUSH1 0x20 ADD PUSH2 0x2088 JUMP JUMPDEST PUSH2 0x2484 PUSH1 0x68 SLOAD PUSH1 0x1 PUSH1 0x1 PUSH1 0xA0 SHL SUB AND CALLER EQ SWAP1 JUMP JUMPDEST PUSH2 0x248D JUMPI PUSH1 0x0 DUP1 REVERT JUMPDEST PUSH2 0x2496 DUP2 PUSH2 0x419B JUMP JUMPDEST POP JUMP JUMPDEST PUSH1 0x0 DUP1 DUP4 PUSH1 0x1 PUSH1 0x1 PUSH1 0xA0 SHL SUB AND PUSH4 0xBBB1863A PUSH1 0x40 MLOAD DUP2 PUSH4 0xFFFFFFFF AND PUSH1 0xE0 SHL DUP2 MSTORE PUSH1 0x4 ADD PUSH1 0x20 PUSH1 0x40 MLOAD DUP1 DUP4 SUB DUP2 DUP7 DUP1 EXTCODESIZE ISZERO DUP1 ISZERO PUSH2 0x24D5 JUMPI PUSH1 0x0 DUP1 REVERT JUMPDEST POP GAS STATICCALL ISZERO DUP1 ISZERO PUSH2 0x24E9 JUMPI RETURNDATASIZE PUSH1 0x0 DUP1 RETURNDATACOPY RETURNDATASIZE PUSH1 0x0 REVERT JUMPDEST POP POP POP POP PUSH1 0x40 MLOAD RETURNDATASIZE PUSH1 0x1F NOT PUSH1 0x1F DUP3 ADD AND DUP3 ADD DUP1 PUSH1 0x40 MSTORE POP DUP2 ADD SWAP1 PUSH2 0x250D SWAP2 SWAP1 PUSH2 0x4C0C JUMP JUMPDEST PUSH1 0x1 PUSH1 0x1 PUSH1 0xA0 SHL SUB AND PUSH4 0x60961528 PUSH1 0x40 MLOAD DUP2 PUSH4 0xFFFFFFFF AND PUSH1 0xE0 SHL DUP2 MSTORE PUSH1 0x4 ADD PUSH1 0x20 PUSH1 0x40 MLOAD DUP1 DUP4 SUB DUP2 DUP7 DUP1 EXTCODESIZE ISZERO DUP1 ISZERO PUSH2 0x2545 JUMPI PUSH1 0x0 DUP1 REVERT JUMPDEST POP GAS STATICCALL ISZERO DUP1 ISZERO PUSH2 0x2559 JUMPI RETURNDATASIZE PUSH1 0x0 DUP1 RETURNDATACOPY RETURNDATASIZE PUSH1 0x0 REVERT JUMPDEST POP POP POP POP PUSH1 0x40 MLOAD RETURNDATASIZE PUSH1 0x1F NOT PUSH1 0x1F DUP3 ADD AND DUP3 ADD DUP1 PUSH1 0x40 MSTORE POP DUP2 ADD SWAP1 PUSH2 0x257D SWAP2 SWAP1 PUSH2 0x4C0C JUMP JUMPDEST PUSH1 0x1 PUSH1 0x1 PUSH1 0xA0 SHL SUB AND PUSH4 0x41976E09 DUP6 PUSH1 0x1 PUSH1 0x1 PUSH1 0xA0 SHL SUB AND PUSH4 0xD83678AC PUSH1 0x40 MLOAD DUP2 PUSH4 0xFFFFFFFF AND PUSH1 0xE0 SHL DUP2 MSTORE PUSH1 0x4 ADD PUSH1 0x20 PUSH1 0x40 MLOAD DUP1 DUP4 SUB DUP2 DUP7 DUP1 EXTCODESIZE ISZERO DUP1 ISZERO PUSH2 0x25C4 JUMPI PUSH1 0x0 DUP1 REVERT JUMPDEST POP GAS STATICCALL ISZERO DUP1 ISZERO PUSH2 0x25D8 JUMPI RETURNDATASIZE PUSH1 0x0 DUP1 RETURNDATACOPY RETURNDATASIZE PUSH1 0x0 REVERT JUMPDEST POP POP POP POP PUSH1 0x40 MLOAD RETURNDATASIZE PUSH1 0x1F NOT PUSH1 0x1F DUP3 ADD AND DUP3 ADD DUP1 PUSH1 0x40 MSTORE POP DUP2 ADD SWAP1 PUSH2 0x25FC SWAP2 SWAP1 PUSH2 0x4C0C JUMP JUMPDEST PUSH1 0x40 MLOAD PUSH1 0x1 PUSH1 0x1 PUSH1 0xE0 SHL SUB NOT PUSH1 0xE0 DUP5 SWAP1 SHL AND DUP2 MSTORE PUSH1 0x1 PUSH1 0x1 PUSH1 0xA0 SHL SUB SWAP1 SWAP2 AND PUSH1 0x4 DUP3 ADD MSTORE PUSH1 0x24 ADD PUSH1 0x40 DUP1 MLOAD DUP1 DUP4 SUB DUP2 DUP7 DUP1 EXTCODESIZE ISZERO DUP1 ISZERO PUSH2 0x263A JUMPI PUSH1 0x0 DUP1 REVERT JUMPDEST POP GAS STATICCALL ISZERO DUP1 ISZERO PUSH2 0x264E JUMPI RETURNDATASIZE PUSH1 0x0 DUP1 RETURNDATACOPY RETURNDATASIZE PUSH1 0x0 REVERT JUMPDEST POP POP POP POP PUSH1 0x40 MLOAD RETURNDATASIZE PUSH1 0x1F NOT PUSH1 0x1F DUP3 ADD AND DUP3 ADD DUP1 PUSH1 0x40 MSTORE POP DUP2 ADD SWAP1 PUSH2 0x2672 SWAP2 SWAP1 PUSH2 0x4EF7 JUMP JUMPDEST SWAP2 POP NUMBER SWAP1 POP PUSH2 0x2682 PUSH1 0xC8 DUP4 PUSH2 0x529A JUMP JUMPDEST LT ISZERO PUSH2 0x26D0 JUMPI PUSH1 0x40 MLOAD PUSH3 0x461BCD PUSH1 0xE5 SHL DUP2 MSTORE PUSH1 0x20 PUSH1 0x4 DUP3 ADD MSTORE PUSH1 0x1B PUSH1 0x24 DUP3 ADD MSTORE PUSH32 0x434242433A20544F4B454E5F50524943455F4F555444415445442E0000000000 PUSH1 0x44 DUP3 ADD MSTORE PUSH1 0x64 ADD PUSH2 0x774 JUMP JUMPDEST PUSH1 0x0 DUP5 PUSH1 0x1 PUSH1 0x1 PUSH1 0xA0 SHL SUB AND PUSH4 0x74E14EB8 PUSH1 0x40 MLOAD DUP2 PUSH4 0xFFFFFFFF AND PUSH1 0xE0 SHL DUP2 MSTORE PUSH1 0x4 ADD PUSH1 0x20 PUSH1 0x40 MLOAD DUP1 DUP4 SUB DUP2 DUP7 DUP1 EXTCODESIZE ISZERO DUP1 ISZERO PUSH2 0x270B JUMPI PUSH1 0x0 DUP1 REVERT JUMPDEST POP GAS STATICCALL ISZERO DUP1 ISZERO PUSH2 0x271F JUMPI RETURNDATASIZE PUSH1 0x0 DUP1 RETURNDATACOPY RETURNDATASIZE PUSH1 0x0 REVERT JUMPDEST POP POP POP POP PUSH1 0x40 MLOAD RETURNDATASIZE PUSH1 0x1F NOT PUSH1 0x1F DUP3 ADD AND DUP3 ADD DUP1 PUSH1 0x40 MSTORE POP DUP2 ADD SWAP1 PUSH2 0x2743 SWAP2 SWAP1 PUSH2 0x4C0C JUMP JUMPDEST SWAP1 POP PUSH1 0x0 DUP1 DUP7 PUSH1 0x1 PUSH1 0x1 PUSH1 0xA0 SHL SUB AND PUSH4 0xBBB1863A PUSH1 0x40 MLOAD DUP2 PUSH4 0xFFFFFFFF AND PUSH1 0xE0 SHL DUP2 MSTORE PUSH1 0x4 ADD PUSH1 0x20 PUSH1 0x40 MLOAD DUP1 DUP4 SUB DUP2 DUP7 DUP1 EXTCODESIZE ISZERO DUP1 ISZERO PUSH2 0x2781 JUMPI PUSH1 0x0 DUP1 REVERT JUMPDEST POP GAS STATICCALL ISZERO DUP1 ISZERO PUSH2 0x2795 JUMPI RETURNDATASIZE PUSH1 0x0 DUP1 RETURNDATACOPY RETURNDATASIZE PUSH1 0x0 REVERT JUMPDEST POP POP POP POP PUSH1 0x40 MLOAD RETURNDATASIZE PUSH1 0x1F NOT PUSH1 0x1F DUP3 ADD AND DUP3 ADD DUP1 PUSH1 0x40 MSTORE POP DUP2 ADD SWAP1 PUSH2 0x27B9 SWAP2 SWAP1 PUSH2 0x4C0C JUMP JUMPDEST PUSH1 0x1 PUSH1 0x1 PUSH1 0xA0 SHL SUB AND PUSH4 0x60961528 PUSH1 0x40 MLOAD DUP2 PUSH4 0xFFFFFFFF AND PUSH1 0xE0 SHL DUP2 MSTORE PUSH1 0x4 ADD PUSH1 0x20 PUSH1 0x40 MLOAD DUP1 DUP4 SUB DUP2 DUP7 DUP1 EXTCODESIZE ISZERO DUP1 ISZERO PUSH2 0x27F1 JUMPI PUSH1 0x0 DUP1 REVERT JUMPDEST POP GAS STATICCALL ISZERO DUP1 ISZERO PUSH2 0x2805 JUMPI RETURNDATASIZE PUSH1 0x0 DUP1 RETURNDATACOPY RETURNDATASIZE PUSH1 0x0 REVERT JUMPDEST POP POP POP POP PUSH1 0x40 MLOAD RETURNDATASIZE PUSH1 0x1F NOT PUSH1 0x1F DUP3 ADD AND DUP3 ADD DUP1 PUSH1 0x40 MSTORE POP DUP2 ADD SWAP1 PUSH2 0x2829 SWAP2 SWAP1 PUSH2 0x4C0C JUMP JUMPDEST PUSH1 0x40 MLOAD PUSH4 0x41976E09 PUSH1 0xE0 SHL DUP2 MSTORE PUSH1 0x1 PUSH1 0x1 PUSH1 0xA0 SHL SUB DUP6 DUP2 AND PUSH1 0x4 DUP4 ADD MSTORE SWAP2 SWAP1 SWAP2 AND SWAP1 PUSH4 0x41976E09 SWAP1 PUSH1 0x24 ADD PUSH1 0x40 DUP1 MLOAD DUP1 DUP4 SUB DUP2 DUP7 DUP1 EXTCODESIZE ISZERO DUP1 ISZERO PUSH2 0x286B JUMPI PUSH1 0x0 DUP1 REVERT JUMPDEST POP GAS STATICCALL ISZERO DUP1 ISZERO PUSH2 0x287F JUMPI RETURNDATASIZE PUSH1 0x0 DUP1 RETURNDATACOPY RETURNDATASIZE PUSH1 0x0 REVERT JUMPDEST POP POP POP POP PUSH1 0x40 MLOAD RETURNDATASIZE PUSH1 0x1F NOT PUSH1 0x1F DUP3 ADD AND DUP3 ADD DUP1 PUSH1 0x40 MSTORE POP DUP2 ADD SWAP1 PUSH2 0x28A3 SWAP2 SWAP1 PUSH2 0x4EF7 JUMP JUMPDEST SWAP1 SWAP3 POP SWAP1 POP NUMBER PUSH2 0x28B4 PUSH1 0xC8 DUP4 PUSH2 0x529A JUMP JUMPDEST LT ISZERO PUSH2 0x2902 JUMPI PUSH1 0x40 MLOAD PUSH3 0x461BCD PUSH1 0xE5 SHL DUP2 MSTORE PUSH1 0x20 PUSH1 0x4 DUP3 ADD MSTORE PUSH1 0x1B PUSH1 0x24 DUP3 ADD MSTORE PUSH32 0x434242433A20544F4B454E5F50524943455F4F555444415445442E0000000000 PUSH1 0x44 DUP3 ADD MSTORE PUSH1 0x64 ADD PUSH2 0x774 JUMP JUMPDEST PUSH1 0x0 DUP3 GT PUSH2 0x2952 JUMPI PUSH1 0x40 MLOAD PUSH3 0x461BCD PUSH1 0xE5 SHL DUP2 MSTORE PUSH1 0x20 PUSH1 0x4 DUP3 ADD MSTORE PUSH1 0x1B PUSH1 0x24 DUP3 ADD MSTORE PUSH32 0x434242433A20494C4C4547414C5F534554544C455F50524943452E0000000000 PUSH1 0x44 DUP3 ADD MSTORE PUSH1 0x64 ADD PUSH2 0x774 JUMP JUMPDEST PUSH1 0x0 DUP8 PUSH1 0x1 PUSH1 0x1 PUSH1 0xA0 SHL SUB AND PUSH4 0xC45A0155 PUSH1 0x40 MLOAD DUP2 PUSH4 0xFFFFFFFF AND PUSH1 0xE0 SHL DUP2 MSTORE PUSH1 0x4 ADD PUSH1 0x20 PUSH1 0x40 MLOAD DUP1 DUP4 SUB DUP2 DUP7 DUP1 EXTCODESIZE ISZERO DUP1 ISZERO PUSH2 0x298D JUMPI PUSH1 0x0 DUP1 REVERT JUMPDEST POP GAS STATICCALL ISZERO DUP1 ISZERO PUSH2 0x29A1 JUMPI RETURNDATASIZE PUSH1 0x0 DUP1 RETURNDATACOPY RETURNDATASIZE PUSH1 0x0 REVERT JUMPDEST POP POP POP POP PUSH1 0x40 MLOAD RETURNDATASIZE PUSH1 0x1F NOT PUSH1 0x1F DUP3 ADD AND DUP3 ADD DUP1 PUSH1 0x40 MSTORE POP DUP2 ADD SWAP1 PUSH2 0x29C5 SWAP2 SWAP1 PUSH2 0x4C0C JUMP JUMPDEST PUSH1 0x40 MLOAD PUSH4 0x4C22F489 PUSH1 0xE1 SHL DUP2 MSTORE PUSH1 0x1 PUSH1 0x1 PUSH1 0xA0 SHL SUB DUP7 DUP2 AND PUSH1 0x4 DUP4 ADD MSTORE SWAP2 SWAP1 SWAP2 AND SWAP1 PUSH4 0x9845E912 SWAP1 PUSH1 0x24 ADD PUSH1 0x20 PUSH1 0x40 MLOAD DUP1 DUP4 SUB DUP2 DUP7 DUP1 EXTCODESIZE ISZERO DUP1 ISZERO PUSH2 0x2A08 JUMPI PUSH1 0x0 DUP1 REVERT JUMPDEST POP GAS STATICCALL ISZERO DUP1 ISZERO PUSH2 0x2A1C JUMPI RETURNDATASIZE PUSH1 0x0 DUP1 RETURNDATACOPY RETURNDATASIZE PUSH1 0x0 REVERT JUMPDEST POP POP POP POP PUSH1 0x40 MLOAD RETURNDATASIZE PUSH1 0x1F NOT PUSH1 0x1F DUP3 ADD AND DUP3 ADD DUP1 PUSH1 0x40 MSTORE POP DUP2 ADD SWAP1 PUSH2 0x2A40 SWAP2 SWAP1 PUSH2 0x4C0C JUMP JUMPDEST SWAP1 POP PUSH1 0x0 DUP9 PUSH1 0x1 PUSH1 0x1 PUSH1 0xA0 SHL SUB AND PUSH4 0x2C86D98E PUSH1 0x40 MLOAD DUP2 PUSH4 0xFFFFFFFF AND PUSH1 0xE0 SHL DUP2 MSTORE PUSH1 0x4 ADD PUSH1 0x20 PUSH1 0x40 MLOAD DUP1 DUP4 SUB DUP2 DUP7 DUP1 EXTCODESIZE ISZERO DUP1 ISZERO PUSH2 0x2A7D JUMPI PUSH1 0x0 DUP1 REVERT JUMPDEST POP GAS STATICCALL ISZERO DUP1 ISZERO PUSH2 0x2A91 JUMPI RETURNDATASIZE PUSH1 0x0 DUP1 RETURNDATACOPY RETURNDATASIZE PUSH1 0x0 REVERT JUMPDEST POP POP POP POP PUSH1 0x40 MLOAD RETURNDATASIZE PUSH1 0x1F NOT PUSH1 0x1F DUP3 ADD AND DUP3 ADD DUP1 PUSH1 0x40 MSTORE POP DUP2 ADD SWAP1 PUSH2 0x2AB5 SWAP2 SWAP1 PUSH2 0x4F1A JUMP JUMPDEST PUSH1 0xFF AND SWAP1 POP PUSH1 0x0 DUP6 PUSH1 0x1 PUSH1 0x1 PUSH1 0xA0 SHL SUB AND PUSH4 0x313CE567 PUSH1 0x40 MLOAD DUP2 PUSH4 0xFFFFFFFF AND PUSH1 0xE0 SHL DUP2 MSTORE PUSH1 0x4 ADD PUSH1 0x20 PUSH1 0x40 MLOAD DUP1 DUP4 SUB DUP2 DUP7 DUP1 EXTCODESIZE ISZERO DUP1 ISZERO PUSH2 0x2AF5 JUMPI PUSH1 0x0 DUP1 REVERT JUMPDEST POP GAS STATICCALL ISZERO DUP1 ISZERO PUSH2 0x2B09 JUMPI RETURNDATASIZE PUSH1 0x0 DUP1 RETURNDATACOPY RETURNDATASIZE PUSH1 0x0 REVERT JUMPDEST POP POP POP POP PUSH1 0x40 MLOAD RETURNDATASIZE PUSH1 0x1F NOT PUSH1 0x1F DUP3 ADD AND DUP3 ADD DUP1 PUSH1 0x40 MSTORE POP DUP2 ADD SWAP1 PUSH2 0x2B2D SWAP2 SWAP1 PUSH2 0x4F1A JUMP JUMPDEST PUSH1 0xFF AND SWAP1 POP PUSH1 0x0 PUSH2 0x2B42 DUP12 PUSH1 0x0 DUP13 PUSH1 0x1 PUSH2 0x352D JUMP JUMPDEST SWAP1 POP PUSH1 0x0 PUSH2 0x2710 PUSH2 0x2B54 DUP6 PUSH1 0x3 PUSH2 0x53ED JUMP JUMPDEST PUSH2 0x2B60 SWAP1 PUSH2 0x2710 PUSH2 0x540C JUMP JUMPDEST PUSH8 0xDE0B6B3A7640000 PUSH2 0x2B73 DUP6 DUP16 PUSH2 0x53ED JUMP JUMPDEST PUSH2 0x2B7D SWAP2 SWAP1 PUSH2 0x52B2 JUMP JUMPDEST PUSH2 0x2B87 SWAP2 SWAP1 PUSH2 0x53ED JUMP JUMPDEST PUSH2 0x2B91 SWAP2 SWAP1 PUSH2 0x52B2 JUMP JUMPDEST SWAP1 POP PUSH2 0x2C34 DUP8 PUSH2 0x2BA2 DUP6 PUSH1 0xA PUSH2 0x530C JUMP JUMPDEST PUSH2 0x2BAC SWAP1 DUP5 PUSH2 0x53ED JUMP JUMPDEST PUSH2 0x2BB6 SWAP2 SWAP1 PUSH2 0x52B2 JUMP JUMPDEST PUSH1 0x40 MLOAD PUSH4 0x70A08231 PUSH1 0xE0 SHL DUP2 MSTORE PUSH1 0x1 PUSH1 0x1 PUSH1 0xA0 SHL SUB DUP9 DUP2 AND PUSH1 0x4 DUP4 ADD MSTORE DUP12 AND SWAP1 PUSH4 0x70A08231 SWAP1 PUSH1 0x24 ADD PUSH1 0x20 PUSH1 0x40 MLOAD DUP1 DUP4 SUB DUP2 DUP7 DUP1 EXTCODESIZE ISZERO DUP1 ISZERO PUSH2 0x2BF7 JUMPI PUSH1 0x0 DUP1 REVERT JUMPDEST POP GAS STATICCALL ISZERO DUP1 ISZERO PUSH2 0x2C0B JUMPI RETURNDATASIZE PUSH1 0x0 DUP1 RETURNDATACOPY RETURNDATASIZE PUSH1 0x0 REVERT JUMPDEST POP POP POP POP PUSH1 0x40 MLOAD RETURNDATASIZE PUSH1 0x1F NOT PUSH1 0x1F DUP3 ADD AND DUP3 ADD DUP1 PUSH1 0x40 MSTORE POP DUP2 ADD SWAP1 PUSH2 0x2C2F SWAP2 SWAP1 PUSH2 0x4DDF JUMP JUMPDEST PUSH2 0x420A JUMP JUMPDEST SWAP13 SWAP12 POP POP POP POP POP POP POP POP POP POP POP POP JUMP JUMPDEST PUSH1 0x9C SLOAD PUSH2 0x2C51 SWAP1 DUP3 PUSH2 0x53ED JUMP JUMPDEST PUSH1 0x1 PUSH1 0x1 PUSH1 0xA0 SHL SUB DUP4 AND PUSH1 0x0 SWAP1 DUP2 MSTORE PUSH1 0xA1 PUSH1 0x20 MSTORE PUSH1 0x40 DUP2 KECCAK256 DUP1 SLOAD SWAP1 SWAP2 SWAP1 PUSH2 0x2C79 SWAP1 DUP5 SWAP1 PUSH2 0x540C JUMP JUMPDEST SWAP3 POP POP DUP2 SWAP1 SSTORE POP DUP1 PUSH1 0x9B PUSH1 0x0 DUP3 DUP3 SLOAD PUSH2 0x2C92 SWAP2 SWAP1 PUSH2 0x540C JUMP JUMPDEST SWAP1 SWAP2 SSTORE POP POP PUSH1 0x40 MLOAD DUP2 DUP2 MSTORE PUSH1 0x0 SWAP1 PUSH1 0x1 PUSH1 0x1 PUSH1 0xA0 SHL SUB DUP5 AND SWAP1 PUSH1 0x0 DUP1 MLOAD PUSH1 0x20 PUSH2 0x5545 DUP4 CODECOPY DUP2 MLOAD SWAP2 MSTORE SWAP1 PUSH1 0x20 ADD JUMPDEST PUSH1 0x40 MLOAD DUP1 SWAP2 SUB SWAP1 LOG3 POP POP JUMP JUMPDEST PUSH1 0x0 DUP1 PUSH1 0x0 DUP5 PUSH1 0x1 PUSH1 0x1 PUSH1 0xA0 SHL SUB AND PUSH4 0xBBB1863A PUSH1 0x40 MLOAD DUP2 PUSH4 0xFFFFFFFF AND PUSH1 0xE0 SHL DUP2 MSTORE PUSH1 0x4 ADD PUSH1 0x20 PUSH1 0x40 MLOAD DUP1 DUP4 SUB DUP2 DUP7 DUP1 EXTCODESIZE ISZERO DUP1 ISZERO PUSH2 0x2D09 JUMPI PUSH1 0x0 DUP1 REVERT JUMPDEST POP GAS STATICCALL ISZERO DUP1 ISZERO PUSH2 0x2D1D JUMPI RETURNDATASIZE PUSH1 0x0 DUP1 RETURNDATACOPY RETURNDATASIZE PUSH1 0x0 REVERT JUMPDEST POP POP POP POP PUSH1 0x40 MLOAD RETURNDATASIZE PUSH1 0x1F NOT PUSH1 0x1F DUP3 ADD AND DUP3 ADD DUP1 PUSH1 0x40 MSTORE POP DUP2 ADD SWAP1 PUSH2 0x2D41 SWAP2 SWAP1 PUSH2 0x4C0C JUMP JUMPDEST PUSH1 0x1 PUSH1 0x1 PUSH1 0xA0 SHL SUB AND PUSH4 0x60961528 PUSH1 0x40 MLOAD DUP2 PUSH4 0xFFFFFFFF AND PUSH1 0xE0 SHL DUP2 MSTORE PUSH1 0x4 ADD PUSH1 0x20 PUSH1 0x40 MLOAD DUP1 DUP4 SUB DUP2 DUP7 DUP1 EXTCODESIZE ISZERO DUP1 ISZERO PUSH2 0x2D79 JUMPI PUSH1 0x0 DUP1 REVERT JUMPDEST POP GAS STATICCALL ISZERO DUP1 ISZERO PUSH2 0x2D8D JUMPI RETURNDATASIZE PUSH1 0x0 DUP1 RETURNDATACOPY RETURNDATASIZE PUSH1 0x0 REVERT JUMPDEST POP POP POP POP PUSH1 0x40 MLOAD RETURNDATASIZE PUSH1 0x1F NOT PUSH1 0x1F DUP3 ADD AND DUP3 ADD DUP1 PUSH1 0x40 MSTORE POP DUP2 ADD SWAP1 PUSH2 0x2DB1 SWAP2 SWAP1 PUSH2 0x4C0C JUMP JUMPDEST PUSH1 0x1 PUSH1 0x1 PUSH1 0xA0 SHL SUB AND PUSH4 0x41976E09 DUP7 PUSH1 0x1 PUSH1 0x1 PUSH1 0xA0 SHL SUB AND PUSH4 0xD83678AC PUSH1 0x40 MLOAD DUP2 PUSH4 0xFFFFFFFF AND PUSH1 0xE0 SHL DUP2 MSTORE PUSH1 0x4 ADD PUSH1 0x20 PUSH1 0x40 MLOAD DUP1 DUP4 SUB DUP2 DUP7 DUP1 EXTCODESIZE ISZERO DUP1 ISZERO PUSH2 0x2DF8 JUMPI PUSH1 0x0 DUP1 REVERT JUMPDEST POP GAS STATICCALL ISZERO DUP1 ISZERO PUSH2 0x2E0C JUMPI RETURNDATASIZE PUSH1 0x0 DUP1 RETURNDATACOPY RETURNDATASIZE PUSH1 0x0 REVERT JUMPDEST POP POP POP POP PUSH1 0x40 MLOAD RETURNDATASIZE PUSH1 0x1F NOT PUSH1 0x1F DUP3 ADD AND DUP3 ADD DUP1 PUSH1 0x40 MSTORE POP DUP2 ADD SWAP1 PUSH2 0x2E30 SWAP2 SWAP1 PUSH2 0x4C0C JUMP JUMPDEST PUSH1 0x40 MLOAD PUSH1 0x1 PUSH1 0x1 PUSH1 0xE0 SHL SUB NOT PUSH1 0xE0 DUP5 SWAP1 SHL AND DUP2 MSTORE PUSH1 0x1 PUSH1 0x1 PUSH1 0xA0 SHL SUB SWAP1 SWAP2 AND PUSH1 0x4 DUP3 ADD MSTORE PUSH1 0x24 ADD PUSH1 0x40 DUP1 MLOAD DUP1 DUP4 SUB DUP2 DUP7 DUP1 EXTCODESIZE ISZERO DUP1 ISZERO PUSH2 0x2E6E JUMPI PUSH1 0x0 DUP1 REVERT JUMPDEST POP GAS STATICCALL ISZERO DUP1 ISZERO PUSH2 0x2E82 JUMPI RETURNDATASIZE PUSH1 0x0 DUP1 RETURNDATACOPY RETURNDATASIZE PUSH1 0x0 REVERT JUMPDEST POP POP POP POP PUSH1 0x40 MLOAD RETURNDATASIZE PUSH1 0x1F NOT PUSH1 0x1F DUP3 ADD AND DUP3 ADD DUP1 PUSH1 0x40 MSTORE POP DUP2 ADD SWAP1 PUSH2 0x2EA6 SWAP2 SWAP1 PUSH2 0x4EF7 JUMP JUMPDEST SWAP3 POP NUMBER SWAP1 POP PUSH2 0x2EB6 PUSH1 0xC8 DUP5 PUSH2 0x529A JUMP JUMPDEST LT ISZERO PUSH2 0x2F04 JUMPI PUSH1 0x40 MLOAD PUSH3 0x461BCD PUSH1 0xE5 SHL DUP2 MSTORE PUSH1 0x20 PUSH1 0x4 DUP3 ADD MSTORE PUSH1 0x1B PUSH1 0x24 DUP3 ADD MSTORE PUSH32 0x434242433A2054524144455F50524943455F4F555444415445442E0000000000 PUSH1 0x44 DUP3 ADD MSTORE PUSH1 0x64 ADD PUSH2 0x774 JUMP JUMPDEST PUSH1 0x0 DUP6 PUSH1 0x1 PUSH1 0x1 PUSH1 0xA0 SHL SUB AND PUSH4 0x74E14EB8 PUSH1 0x40 MLOAD DUP2 PUSH4 0xFFFFFFFF AND PUSH1 0xE0 SHL DUP2 MSTORE PUSH1 0x4 ADD PUSH1 0x20 PUSH1 0x40 MLOAD DUP1 DUP4 SUB DUP2 DUP7 DUP1 EXTCODESIZE ISZERO DUP1 ISZERO PUSH2 0x2F3F JUMPI PUSH1 0x0 DUP1 REVERT JUMPDEST POP GAS STATICCALL ISZERO DUP1 ISZERO PUSH2 0x2F53 JUMPI RETURNDATASIZE PUSH1 0x0 DUP1 RETURNDATACOPY RETURNDATASIZE PUSH1 0x0 REVERT JUMPDEST POP POP POP POP PUSH1 0x40 MLOAD RETURNDATASIZE PUSH1 0x1F NOT PUSH1 0x1F DUP3 ADD AND DUP3 ADD DUP1 PUSH1 0x40 MSTORE POP DUP2 ADD SWAP1 PUSH2 0x2F77 SWAP2 SWAP1 PUSH2 0x4C0C JUMP JUMPDEST SWAP1 POP DUP6 PUSH1 0x1 PUSH1 0x1 PUSH1 0xA0 SHL SUB AND PUSH4 0xBBB1863A PUSH1 0x40 MLOAD DUP2 PUSH4 0xFFFFFFFF AND PUSH1 0xE0 SHL DUP2 MSTORE PUSH1 0x4 ADD PUSH1 0x20 PUSH1 0x40 MLOAD DUP1 DUP4 SUB DUP2 DUP7 DUP1 EXTCODESIZE ISZERO DUP1 ISZERO PUSH2 0x2FB2 JUMPI PUSH1 0x0 DUP1 REVERT JUMPDEST POP GAS STATICCALL ISZERO DUP1 ISZERO PUSH2 0x2FC6 JUMPI RETURNDATASIZE PUSH1 0x0 DUP1 RETURNDATACOPY RETURNDATASIZE PUSH1 0x0 REVERT JUMPDEST POP POP POP POP PUSH1 0x40 MLOAD RETURNDATASIZE PUSH1 0x1F NOT PUSH1 0x1F DUP3 ADD AND DUP3 ADD DUP1 PUSH1 0x40 MSTORE POP DUP2 ADD SWAP1 PUSH2 0x2FEA SWAP2 SWAP1 PUSH2 0x4C0C JUMP JUMPDEST PUSH1 0x1 PUSH1 0x1 PUSH1 0xA0 SHL SUB AND PUSH4 0x60961528 PUSH1 0x40 MLOAD DUP2 PUSH4 0xFFFFFFFF AND PUSH1 0xE0 SHL DUP2 MSTORE PUSH1 0x4 ADD PUSH1 0x20 PUSH1 0x40 MLOAD DUP1 DUP4 SUB DUP2 DUP7 DUP1 EXTCODESIZE ISZERO DUP1 ISZERO PUSH2 0x3022 JUMPI PUSH1 0x0 DUP1 REVERT JUMPDEST POP GAS STATICCALL ISZERO DUP1 ISZERO PUSH2 0x3036 JUMPI RETURNDATASIZE PUSH1 0x0 DUP1 RETURNDATACOPY RETURNDATASIZE PUSH1 0x0 REVERT JUMPDEST POP POP POP POP PUSH1 0x40 MLOAD RETURNDATASIZE PUSH1 0x1F NOT PUSH1 0x1F DUP3 ADD AND DUP3 ADD DUP1 PUSH1 0x40 MSTORE POP DUP2 ADD SWAP1 PUSH2 0x305A SWAP2 SWAP1 PUSH2 0x4C0C JUMP JUMPDEST PUSH1 0x40 MLOAD PUSH4 0x41976E09 PUSH1 0xE0 SHL DUP2 MSTORE PUSH1 0x1 PUSH1 0x1 PUSH1 0xA0 SHL SUB DUP4 DUP2 AND PUSH1 0x4 DUP4 ADD MSTORE SWAP2 SWAP1 SWAP2 AND SWAP1 PUSH4 0x41976E09 SWAP1 PUSH1 0x24 ADD PUSH1 0x40 DUP1 MLOAD DUP1 DUP4 SUB DUP2 DUP7 DUP1 EXTCODESIZE ISZERO DUP1 ISZERO PUSH2 0x309C JUMPI PUSH1 0x0 DUP1 REVERT JUMPDEST POP GAS STATICCALL ISZERO DUP1 ISZERO PUSH2 0x30B0 JUMPI RETURNDATASIZE PUSH1 0x0 DUP1 RETURNDATACOPY RETURNDATASIZE PUSH1 0x0 REVERT JUMPDEST POP POP POP POP PUSH1 0x40 MLOAD RETURNDATASIZE PUSH1 0x1F NOT PUSH1 0x1F DUP3 ADD AND DUP3 ADD DUP1 PUSH1 0x40 MSTORE POP DUP2 ADD SWAP1 PUSH2 0x30D4 SWAP2 SWAP1 PUSH2 0x4EF7 JUMP JUMPDEST SWAP4 POP SWAP2 POP NUMBER PUSH2 0x30E4 PUSH1 0xC8 DUP6 PUSH2 0x529A JUMP JUMPDEST LT ISZERO PUSH2 0x3132 JUMPI PUSH1 0x40 MLOAD PUSH3 0x461BCD PUSH1 0xE5 SHL DUP2 MSTORE PUSH1 0x20 PUSH1 0x4 DUP3 ADD MSTORE PUSH1 0x1C PUSH1 0x24 DUP3 ADD MSTORE PUSH32 0x434242433A20534554544C455F50524943455F4F555444415445442E00000000 PUSH1 0x44 DUP3 ADD MSTORE PUSH1 0x64 ADD PUSH2 0x774 JUMP JUMPDEST PUSH1 0x0 DUP3 GT PUSH2 0x3182 JUMPI PUSH1 0x40 MLOAD PUSH3 0x461BCD PUSH1 0xE5 SHL DUP2 MSTORE PUSH1 0x20 PUSH1 0x4 DUP3 ADD MSTORE PUSH1 0x1B PUSH1 0x24 DUP3 ADD MSTORE PUSH32 0x434242433A20494C4C4547414C5F534554544C455F50524943452E0000000000 PUSH1 0x44 DUP3 ADD MSTORE PUSH1 0x64 ADD PUSH2 0x774 JUMP JUMPDEST PUSH1 0x0 DUP7 PUSH1 0x1 PUSH1 0x1 PUSH1 0xA0 SHL SUB AND PUSH4 0x2C86D98E PUSH1 0x40 MLOAD DUP2 PUSH4 0xFFFFFFFF AND PUSH1 0xE0 SHL DUP2 MSTORE PUSH1 0x4 ADD PUSH1 0x20 PUSH1 0x40 MLOAD DUP1 DUP4 SUB DUP2 DUP7 DUP1 EXTCODESIZE ISZERO DUP1 ISZERO PUSH2 0x31BD JUMPI PUSH1 0x0 DUP1 REVERT JUMPDEST POP GAS STATICCALL ISZERO DUP1 ISZERO PUSH2 0x31D1 JUMPI RETURNDATASIZE PUSH1 0x0 DUP1 RETURNDATACOPY RETURNDATASIZE PUSH1 0x0 REVERT JUMPDEST POP POP POP POP PUSH1 0x40 MLOAD RETURNDATASIZE PUSH1 0x1F NOT PUSH1 0x1F DUP3 ADD AND DUP3 ADD DUP1 PUSH1 0x40 MSTORE POP DUP2 ADD SWAP1 PUSH2 0x31F5 SWAP2 SWAP1 PUSH2 0x4F1A JUMP JUMPDEST PUSH1 0xFF AND SWAP1 POP PUSH1 0x0 DUP3 PUSH1 0x1 PUSH1 0x1 PUSH1 0xA0 SHL SUB AND PUSH4 0x313CE567 PUSH1 0x40 MLOAD DUP2 PUSH4 0xFFFFFFFF AND PUSH1 0xE0 SHL DUP2 MSTORE PUSH1 0x4 ADD PUSH1 0x20 PUSH1 0x40 MLOAD DUP1 DUP4 SUB DUP2 DUP7 DUP1 EXTCODESIZE ISZERO DUP1 ISZERO PUSH2 0x3235 JUMPI PUSH1 0x0 DUP1 REVERT JUMPDEST POP GAS STATICCALL ISZERO DUP1 ISZERO PUSH2 0x3249 JUMPI RETURNDATASIZE PUSH1 0x0 DUP1 RETURNDATACOPY RETURNDATASIZE PUSH1 0x0 REVERT JUMPDEST POP POP POP POP PUSH1 0x40 MLOAD RETURNDATASIZE PUSH1 0x1F NOT PUSH1 0x1F DUP3 ADD AND DUP3 ADD DUP1 PUSH1 0x40 MSTORE POP DUP2 ADD SWAP1 PUSH2 0x326D SWAP2 SWAP1 PUSH2 0x4F1A JUMP JUMPDEST PUSH1 0xFF AND SWAP1 POP PUSH1 0x0 PUSH2 0x3281 DUP10 DUP10 PUSH1 0x0 DUP1 PUSH2 0x352D JUMP JUMPDEST SWAP1 POP PUSH1 0x0 PUSH2 0x3290 DUP4 PUSH1 0xA PUSH2 0x530C JUMP JUMPDEST PUSH2 0x329A DUP8 DUP12 PUSH2 0x53ED JUMP JUMPDEST PUSH2 0x32A4 SWAP2 SWAP1 PUSH2 0x52B2 JUMP JUMPDEST SWAP1 POP DUP2 PUSH2 0x32B2 DUP6 PUSH1 0x3 PUSH2 0x53ED JUMP JUMPDEST PUSH2 0x32BE SWAP1 PUSH2 0x2710 PUSH2 0x540C JUMP JUMPDEST PUSH2 0x32C8 SWAP1 DUP4 PUSH2 0x53ED JUMP JUMPDEST PUSH2 0x32D8 SWAP1 PUSH6 0x5AF3107A4000 PUSH2 0x53ED JUMP JUMPDEST PUSH2 0x32E2 SWAP2 SWAP1 PUSH2 0x52B2 JUMP JUMPDEST SWAP11 SWAP10 POP POP POP POP POP POP POP POP POP POP JUMP JUMPDEST DUP1 PUSH1 0x9B PUSH1 0x0 DUP3 DUP3 SLOAD PUSH2 0x3302 SWAP2 SWAP1 PUSH2 0x529A JUMP JUMPDEST SWAP1 SWAP2 SSTORE POP POP PUSH1 0x9C SLOAD PUSH2 0x3314 SWAP1 DUP3 PUSH2 0x53ED JUMP JUMPDEST PUSH1 0x1 PUSH1 0x1 PUSH1 0xA0 SHL SUB DUP4 AND PUSH1 0x0 SWAP1 DUP2 MSTORE PUSH1 0xA1 PUSH1 0x20 MSTORE PUSH1 0x40 DUP2 KECCAK256 DUP1 SLOAD SWAP1 SWAP2 SWAP1 PUSH2 0x333C SWAP1 DUP5 SWAP1 PUSH2 0x529A JUMP JUMPDEST SWAP1 SWAP2 SSTORE POP POP PUSH1 0x40 MLOAD DUP2 DUP2 MSTORE PUSH1 0x1 PUSH1 0x1 PUSH1 0xA0 SHL SUB DUP4 AND SWAP1 PUSH1 0x0 SWAP1 PUSH1 0x0 DUP1 MLOAD PUSH1 0x20 PUSH2 0x5545 DUP4 CODECOPY DUP2 MLOAD SWAP2 MSTORE SWAP1 PUSH1 0x20 ADD PUSH2 0x2CBF JUMP JUMPDEST PUSH1 0x0 PUSH1 0x1 PUSH1 0xFF SHL DUP3 EQ ISZERO PUSH2 0x3380 JUMPI PUSH1 0x0 DUP1 REVERT JUMPDEST PUSH1 0x0 DUP3 SLT PUSH2 0x338E JUMPI DUP2 PUSH2 0x72F JUMP JUMPDEST PUSH2 0x72F DUP3 PUSH2 0x54B7 JUMP JUMPDEST PUSH1 0x40 DUP1 MLOAD PUSH1 0x64 DUP1 DUP3 MSTORE PUSH1 0xA0 DUP3 ADD SWAP1 SWAP3 MSTORE PUSH1 0x60 SWAP2 SWAP1 PUSH1 0x0 SWAP1 DUP3 PUSH1 0x20 DUP3 ADD DUP2 DUP1 CALLDATASIZE DUP4 CALLDATACOPY ADD SWAP1 POP POP SWAP1 POP PUSH1 0x0 JUMPDEST DUP5 ISZERO PUSH2 0x3439 JUMPI PUSH1 0x0 PUSH2 0x33D4 PUSH1 0xA DUP8 PUSH2 0x54A3 JUMP JUMPDEST SWAP1 POP PUSH2 0x33E1 PUSH1 0xA DUP8 PUSH2 0x52B2 JUMP JUMPDEST SWAP6 POP PUSH2 0x33EE DUP2 PUSH1 0x30 PUSH2 0x529A JUMP JUMPDEST PUSH1 0xF8 SHL DUP4 DUP4 PUSH2 0x33FC DUP2 PUSH2 0x5488 JUMP JUMPDEST SWAP5 POP DUP2 MLOAD DUP2 LT PUSH2 0x341C JUMPI PUSH4 0x4E487B71 PUSH1 0xE0 SHL PUSH1 0x0 MSTORE PUSH1 0x32 PUSH1 0x4 MSTORE PUSH1 0x24 PUSH1 0x0 REVERT JUMPDEST PUSH1 0x20 ADD ADD SWAP1 PUSH1 0x1 PUSH1 0x1 PUSH1 0xF8 SHL SUB NOT AND SWAP1 DUP2 PUSH1 0x0 BYTE SWAP1 MSTORE8 POP POP PUSH2 0x33C1 JUMP JUMPDEST PUSH1 0x0 DUP2 PUSH8 0xFFFFFFFFFFFFFFFF DUP2 GT ISZERO PUSH2 0x3462 JUMPI PUSH4 0x4E487B71 PUSH1 0xE0 SHL PUSH1 0x0 MSTORE PUSH1 0x41 PUSH1 0x4 MSTORE PUSH1 0x24 PUSH1 0x0 REVERT JUMPDEST PUSH1 0x40 MLOAD SWAP1 DUP1 DUP3 MSTORE DUP1 PUSH1 0x1F ADD PUSH1 0x1F NOT AND PUSH1 0x20 ADD DUP3 ADD PUSH1 0x40 MSTORE DUP1 ISZERO PUSH2 0x348C JUMPI PUSH1 0x20 DUP3 ADD DUP2 DUP1 CALLDATASIZE DUP4 CALLDATACOPY ADD SWAP1 POP JUMPDEST POP SWAP1 POP PUSH1 0x0 JUMPDEST DUP3 DUP2 LT ISZERO PUSH2 0x3523 JUMPI DUP4 DUP2 PUSH2 0x34A7 PUSH1 0x1 DUP7 PUSH2 0x540C JUMP JUMPDEST PUSH2 0x34B1 SWAP2 SWAP1 PUSH2 0x540C JUMP JUMPDEST DUP2 MLOAD DUP2 LT PUSH2 0x34CF JUMPI PUSH4 0x4E487B71 PUSH1 0xE0 SHL PUSH1 0x0 MSTORE PUSH1 0x32 PUSH1 0x4 MSTORE PUSH1 0x24 PUSH1 0x0 REVERT JUMPDEST PUSH1 0x20 ADD ADD MLOAD PUSH1 0xF8 SHR PUSH1 0xF8 SHL DUP3 DUP3 DUP2 MLOAD DUP2 LT PUSH2 0x34FA JUMPI PUSH4 0x4E487B71 PUSH1 0xE0 SHL PUSH1 0x0 MSTORE PUSH1 0x32 PUSH1 0x4 MSTORE PUSH1 0x24 PUSH1 0x0 REVERT JUMPDEST PUSH1 0x20 ADD ADD SWAP1 PUSH1 0x1 PUSH1 0x1 PUSH1 0xF8 SHL SUB NOT AND SWAP1 DUP2 PUSH1 0x0 BYTE SWAP1 MSTORE8 POP DUP1 PUSH2 0x351B DUP2 PUSH2 0x5488 JUMP JUMPDEST SWAP2 POP POP PUSH2 0x3492 JUMP JUMPDEST POP SWAP6 SWAP5 POP POP POP POP POP JUMP JUMPDEST PUSH1 0x0 DUP4 ISZERO DUP1 PUSH2 0x353A JUMPI POP DUP3 ISZERO JUMPDEST PUSH2 0x3592 JUMPI PUSH1 0x40 MLOAD PUSH3 0x461BCD PUSH1 0xE5 SHL DUP2 MSTORE PUSH1 0x20 PUSH1 0x4 DUP3 ADD MSTORE PUSH1 0x24 DUP1 DUP3 ADD MSTORE PUSH32 0x434242433A204255595F414E445F53454C4C5F41545F5448455F53414D455F54 PUSH1 0x44 DUP3 ADD MSTORE PUSH4 0x24A6A297 PUSH1 0xE1 SHL PUSH1 0x64 DUP3 ADD MSTORE PUSH1 0x84 ADD PUSH2 0x774 JUMP JUMPDEST PUSH2 0x35BD PUSH1 0x40 MLOAD DUP1 PUSH1 0x80 ADD PUSH1 0x40 MSTORE DUP1 PUSH1 0x0 DUP2 MSTORE PUSH1 0x20 ADD PUSH1 0x0 DUP2 MSTORE PUSH1 0x20 ADD PUSH1 0x0 DUP2 MSTORE PUSH1 0x20 ADD PUSH1 0x0 DUP2 MSTORE POP SWAP1 JUMP JUMPDEST PUSH2 0x35FD PUSH1 0x40 MLOAD DUP1 PUSH1 0xE0 ADD PUSH1 0x40 MSTORE DUP1 PUSH1 0x0 DUP2 MSTORE PUSH1 0x20 ADD PUSH1 0x0 DUP2 MSTORE PUSH1 0x20 ADD PUSH1 0x0 DUP2 MSTORE PUSH1 0x20 ADD PUSH1 0x0 DUP2 MSTORE PUSH1 0x20 ADD PUSH1 0x0 DUP2 MSTORE PUSH1 0x20 ADD PUSH1 0x0 DUP2 MSTORE PUSH1 0x20 ADD PUSH1 0x0 DUP2 MSTORE POP SWAP1 JUMP JUMPDEST PUSH1 0x40 DUP1 MLOAD PUSH1 0xC0 DUP2 ADD DUP3 MSTORE PUSH1 0x0 DUP1 DUP3 MSTORE PUSH1 0x20 DUP3 ADD DUP2 SWAP1 MSTORE SWAP2 DUP2 ADD DUP3 SWAP1 MSTORE PUSH1 0x60 DUP2 ADD DUP3 SWAP1 MSTORE PUSH1 0x80 DUP2 ADD DUP3 SWAP1 MSTORE PUSH1 0xA0 DUP2 ADD SWAP2 SWAP1 SWAP2 MSTORE DUP8 PUSH1 0x1 PUSH1 0x1 PUSH1 0xA0 SHL SUB AND PUSH4 0xC45A0155 PUSH1 0x40 MLOAD DUP2 PUSH4 0xFFFFFFFF AND PUSH1 0xE0 SHL DUP2 MSTORE PUSH1 0x4 ADD PUSH1 0x20 PUSH1 0x40 MLOAD DUP1 DUP4 SUB DUP2 DUP7 DUP1 EXTCODESIZE ISZERO DUP1 ISZERO PUSH2 0x3668 JUMPI PUSH1 0x0 DUP1 REVERT JUMPDEST POP GAS STATICCALL ISZERO DUP1 ISZERO PUSH2 0x367C JUMPI RETURNDATASIZE PUSH1 0x0 DUP1 RETURNDATACOPY RETURNDATASIZE PUSH1 0x0 REVERT JUMPDEST POP POP POP POP PUSH1 0x40 MLOAD RETURNDATASIZE PUSH1 0x1F NOT PUSH1 0x1F DUP3 ADD AND DUP3 ADD DUP1 PUSH1 0x40 MSTORE POP DUP2 ADD SWAP1 PUSH2 0x36A0 SWAP2 SWAP1 PUSH2 0x4C0C JUMP JUMPDEST PUSH1 0x1 PUSH1 0x1 PUSH1 0xA0 SHL SUB SWAP1 DUP2 AND DUP3 MSTORE PUSH1 0x40 DUP1 MLOAD PUSH4 0xE9C29D7 PUSH1 0xE3 SHL DUP2 MSTORE SWAP1 MLOAD SWAP2 DUP11 AND SWAP2 PUSH4 0x74E14EB8 SWAP2 PUSH1 0x4 DUP1 DUP3 ADD SWAP3 PUSH1 0x20 SWAP3 SWAP1 SWAP2 SWAP1 DUP3 SWAP1 SUB ADD DUP2 DUP7 DUP1 EXTCODESIZE ISZERO DUP1 ISZERO PUSH2 0x36E7 JUMPI PUSH1 0x0 DUP1 REVERT JUMPDEST POP GAS STATICCALL ISZERO DUP1 ISZERO PUSH2 0x36FB JUMPI RETURNDATASIZE PUSH1 0x0 DUP1 RETURNDATACOPY RETURNDATASIZE PUSH1 0x0 REVERT JUMPDEST POP POP POP POP PUSH1 0x40 MLOAD RETURNDATASIZE PUSH1 0x1F NOT PUSH1 0x1F DUP3 ADD AND DUP3 ADD DUP1 PUSH1 0x40 MSTORE POP DUP2 ADD SWAP1 PUSH2 0x371F SWAP2 SWAP1 PUSH2 0x4C0C JUMP JUMPDEST DUP2 PUSH1 0x20 ADD SWAP1 PUSH1 0x1 PUSH1 0x1 PUSH1 0xA0 SHL SUB AND SWAP1 DUP2 PUSH1 0x1 PUSH1 0x1 PUSH1 0xA0 SHL SUB AND DUP2 MSTORE POP POP DUP8 PUSH1 0x1 PUSH1 0x1 PUSH1 0xA0 SHL SUB AND PUSH4 0xD83678AC PUSH1 0x40 MLOAD DUP2 PUSH4 0xFFFFFFFF AND PUSH1 0xE0 SHL DUP2 MSTORE PUSH1 0x4 ADD PUSH1 0x20 PUSH1 0x40 MLOAD DUP1 DUP4 SUB DUP2 DUP7 DUP1 EXTCODESIZE ISZERO DUP1 ISZERO PUSH2 0x3775 JUMPI PUSH1 0x0 DUP1 REVERT JUMPDEST POP GAS STATICCALL ISZERO DUP1 ISZERO PUSH2 0x3789 JUMPI RETURNDATASIZE PUSH1 0x0 DUP1 RETURNDATACOPY RETURNDATASIZE PUSH1 0x0 REVERT JUMPDEST POP POP POP POP PUSH1 0x40 MLOAD RETURNDATASIZE PUSH1 0x1F NOT PUSH1 0x1F DUP3 ADD AND DUP3 ADD DUP1 PUSH1 0x40 MSTORE POP DUP2 ADD SWAP1 PUSH2 0x37AD SWAP2 SWAP1 PUSH2 0x4C0C JUMP JUMPDEST DUP2 PUSH1 0x40 ADD SWAP1 PUSH1 0x1 PUSH1 0x1 PUSH1 0xA0 SHL SUB AND SWAP1 DUP2 PUSH1 0x1 PUSH1 0x1 PUSH1 0xA0 SHL SUB AND DUP2 MSTORE POP POP DUP8 PUSH1 0x1 PUSH1 0x1 PUSH1 0xA0 SHL SUB AND PUSH4 0x2C86D98E PUSH1 0x40 MLOAD DUP2 PUSH4 0xFFFFFFFF AND PUSH1 0xE0 SHL DUP2 MSTORE PUSH1 0x4 ADD PUSH1 0x20 PUSH1 0x40 MLOAD DUP1 DUP4 SUB DUP2 DUP7 DUP1 EXTCODESIZE ISZERO DUP1 ISZERO PUSH2 0x3803 JUMPI PUSH1 0x0 DUP1 REVERT JUMPDEST POP GAS STATICCALL ISZERO DUP1 ISZERO PUSH2 0x3817 JUMPI RETURNDATASIZE PUSH1 0x0 DUP1 RETURNDATACOPY RETURNDATASIZE PUSH1 0x0 REVERT JUMPDEST POP POP POP POP PUSH1 0x40 MLOAD RETURNDATASIZE PUSH1 0x1F NOT PUSH1 0x1F DUP3 ADD AND DUP3 ADD DUP1 PUSH1 0x40 MSTORE POP DUP2 ADD SWAP1 PUSH2 0x383B SWAP2 SWAP1 PUSH2 0x4F1A JUMP JUMPDEST PUSH1 0xFF AND DUP2 PUSH1 0x60 ADD DUP2 DUP2 MSTORE POP POP DUP8 PUSH1 0x1 PUSH1 0x1 PUSH1 0xA0 SHL SUB AND PUSH4 0x3C974946 PUSH1 0x40 MLOAD DUP2 PUSH4 0xFFFFFFFF AND PUSH1 0xE0 SHL DUP2 MSTORE PUSH1 0x4 ADD PUSH1 0x20 PUSH1 0x40 MLOAD DUP1 DUP4 SUB DUP2 DUP7 DUP1 EXTCODESIZE ISZERO DUP1 ISZERO PUSH2 0x3880 JUMPI PUSH1 0x0 DUP1 REVERT JUMPDEST POP GAS STATICCALL ISZERO DUP1 ISZERO PUSH2 0x3894 JUMPI RETURNDATASIZE PUSH1 0x0 DUP1 RETURNDATACOPY RETURNDATASIZE PUSH1 0x0 REVERT JUMPDEST POP POP POP POP PUSH1 0x40 MLOAD RETURNDATASIZE PUSH1 0x1F NOT PUSH1 0x1F DUP3 ADD AND DUP3 ADD DUP1 PUSH1 0x40 MSTORE POP DUP2 ADD SWAP1 PUSH2 0x38B8 SWAP2 SWAP1 PUSH2 0x4DAB JUMP JUMPDEST DUP2 PUSH1 0x80 ADD SWAP1 PUSH1 0x1 DUP2 GT ISZERO PUSH2 0x38DC JUMPI PUSH4 0x4E487B71 PUSH1 0xE0 SHL PUSH1 0x0 MSTORE PUSH1 0x21 PUSH1 0x4 MSTORE PUSH1 0x24 PUSH1 0x0 REVERT JUMPDEST SWAP1 DUP2 PUSH1 0x1 DUP2 GT ISZERO PUSH2 0x38FD JUMPI PUSH4 0x4E487B71 PUSH1 0xE0 SHL PUSH1 0x0 MSTORE PUSH1 0x21 PUSH1 0x4 MSTORE PUSH1 0x24 PUSH1 0x0 REVERT JUMPDEST DUP2 MSTORE POP POP DUP8 PUSH1 0x1 PUSH1 0x1 PUSH1 0xA0 SHL SUB AND PUSH4 0xBBB1863A PUSH1 0x40 MLOAD DUP2 PUSH4 0xFFFFFFFF AND PUSH1 0xE0 SHL DUP2 MSTORE PUSH1 0x4 ADD PUSH1 0x20 PUSH1 0x40 MLOAD DUP1 DUP4 SUB DUP2 DUP7 DUP1 EXTCODESIZE ISZERO DUP1 ISZERO PUSH2 0x393A JUMPI PUSH1 0x0 DUP1 REVERT JUMPDEST POP GAS STATICCALL ISZERO DUP1 ISZERO PUSH2 0x394E JUMPI RETURNDATASIZE PUSH1 0x0 DUP1 RETURNDATACOPY RETURNDATASIZE PUSH1 0x0 REVERT JUMPDEST POP POP POP POP PUSH1 0x40 MLOAD RETURNDATASIZE PUSH1 0x1F NOT PUSH1 0x1F DUP3 ADD AND DUP3 ADD DUP1 PUSH1 0x40 MSTORE POP DUP2 ADD SWAP1 PUSH2 0x3972 SWAP2 SWAP1 PUSH2 0x4C0C JUMP JUMPDEST PUSH1 0x1 PUSH1 0x1 PUSH1 0xA0 SHL SUB AND PUSH4 0x60961528 PUSH1 0x40 MLOAD DUP2 PUSH4 0xFFFFFFFF AND PUSH1 0xE0 SHL DUP2 MSTORE PUSH1 0x4 ADD PUSH1 0x20 PUSH1 0x40 MLOAD DUP1 DUP4 SUB DUP2 DUP7 DUP1 EXTCODESIZE ISZERO DUP1 ISZERO PUSH2 0x39AA JUMPI PUSH1 0x0 DUP1 REVERT JUMPDEST POP GAS STATICCALL ISZERO DUP1 ISZERO PUSH2 0x39BE JUMPI RETURNDATASIZE PUSH1 0x0 DUP1 RETURNDATACOPY RETURNDATASIZE PUSH1 0x0 REVERT JUMPDEST POP POP POP POP PUSH1 0x40 MLOAD RETURNDATASIZE PUSH1 0x1F NOT PUSH1 0x1F DUP3 ADD AND DUP3 ADD DUP1 PUSH1 0x40 MSTORE POP DUP2 ADD SWAP1 PUSH2 0x39E2 SWAP2 SWAP1 PUSH2 0x4C0C JUMP JUMPDEST DUP2 PUSH1 0xA0 ADD SWAP1 PUSH1 0x1 PUSH1 0x1 PUSH1 0xA0 SHL SUB AND SWAP1 DUP2 PUSH1 0x1 PUSH1 0x1 PUSH1 0xA0 SHL SUB AND DUP2 MSTORE POP POP DUP8 PUSH1 0x1 PUSH1 0x1 PUSH1 0xA0 SHL SUB AND PUSH4 0xDDD6F962 PUSH1 0x40 MLOAD DUP2 PUSH4 0xFFFFFFFF AND PUSH1 0xE0 SHL DUP2 MSTORE PUSH1 0x4 ADD PUSH1 0x20 PUSH1 0x40 MLOAD DUP1 DUP4 SUB DUP2 DUP7 DUP1 EXTCODESIZE ISZERO DUP1 ISZERO PUSH2 0x3A38 JUMPI PUSH1 0x0 DUP1 REVERT JUMPDEST POP GAS STATICCALL ISZERO DUP1 ISZERO PUSH2 0x3A4C JUMPI RETURNDATASIZE PUSH1 0x0 DUP1 RETURNDATACOPY RETURNDATASIZE PUSH1 0x0 REVERT JUMPDEST POP POP POP POP PUSH1 0x40 MLOAD RETURNDATASIZE PUSH1 0x1F NOT PUSH1 0x1F DUP3 ADD AND DUP3 ADD DUP1 PUSH1 0x40 MSTORE POP DUP2 ADD SWAP1 PUSH2 0x3A70 SWAP2 SWAP1 PUSH2 0x4DDF JUMP JUMPDEST DUP4 PUSH1 0x0 ADD DUP2 DUP2 MSTORE POP POP DUP8 PUSH1 0x1 PUSH1 0x1 PUSH1 0xA0 SHL SUB AND PUSH4 0x8A3809D PUSH1 0x40 MLOAD DUP2 PUSH4 0xFFFFFFFF AND PUSH1 0xE0 SHL DUP2 MSTORE PUSH1 0x4 ADD PUSH1 0x20 PUSH1 0x40 MLOAD DUP1 DUP4 SUB DUP2 DUP7 DUP1 EXTCODESIZE ISZERO DUP1 ISZERO PUSH2 0x3AB2 JUMPI PUSH1 0x0 DUP1 REVERT JUMPDEST POP GAS STATICCALL ISZERO DUP1 ISZERO PUSH2 0x3AC6 JUMPI RETURNDATASIZE PUSH1 0x0 DUP1 RETURNDATACOPY RETURNDATASIZE PUSH1 0x0 REVERT JUMPDEST POP POP POP POP PUSH1 0x40 MLOAD RETURNDATASIZE PUSH1 0x1F NOT PUSH1 0x1F DUP3 ADD AND DUP3 ADD DUP1 PUSH1 0x40 MSTORE POP DUP2 ADD SWAP1 PUSH2 0x3AEA SWAP2 SWAP1 PUSH2 0x4DDF JUMP JUMPDEST PUSH1 0x20 DUP5 ADD MSTORE TIMESTAMP PUSH1 0x60 DUP5 ADD MSTORE PUSH1 0xA0 DUP2 ADD MLOAD PUSH1 0x40 DUP1 DUP4 ADD MLOAD SWAP1 MLOAD PUSH4 0x41976E09 PUSH1 0xE0 SHL DUP2 MSTORE PUSH1 0x1 PUSH1 0x1 PUSH1 0xA0 SHL SUB SWAP2 DUP3 AND PUSH1 0x4 DUP3 ADD MSTORE SWAP2 AND SWAP1 PUSH4 0x41976E09 SWAP1 PUSH1 0x24 ADD PUSH1 0x40 DUP1 MLOAD DUP1 DUP4 SUB DUP2 DUP7 DUP1 EXTCODESIZE ISZERO DUP1 ISZERO PUSH2 0x3B3F JUMPI PUSH1 0x0 DUP1 REVERT JUMPDEST POP GAS STATICCALL ISZERO DUP1 ISZERO PUSH2 0x3B53 JUMPI RETURNDATASIZE PUSH1 0x0 DUP1 RETURNDATACOPY RETURNDATASIZE PUSH1 0x0 REVERT JUMPDEST POP POP POP POP PUSH1 0x40 MLOAD RETURNDATASIZE PUSH1 0x1F NOT PUSH1 0x1F DUP3 ADD AND DUP3 ADD DUP1 PUSH1 0x40 MSTORE POP DUP2 ADD SWAP1 PUSH2 0x3B77 SWAP2 SWAP1 PUSH2 0x4EF7 JUMP JUMPDEST POP PUSH1 0x40 DUP5 ADD DUP2 SWAP1 MSTORE PUSH2 0x3BCB JUMPI PUSH1 0x40 MLOAD PUSH3 0x461BCD PUSH1 0xE5 SHL DUP2 MSTORE PUSH1 0x20 PUSH1 0x4 DUP3 ADD MSTORE PUSH1 0x1A PUSH1 0x24 DUP3 ADD MSTORE PUSH32 0x434242433A20494C4C4547414C5F54524144455F50524943452E000000000000 PUSH1 0x44 DUP3 ADD MSTORE PUSH1 0x64 ADD PUSH2 0x774 JUMP JUMPDEST DUP3 MLOAD PUSH2 0x3BE3 JUMPI PUSH1 0x40 DUP4 ADD MLOAD DUP4 MSTORE PUSH1 0x60 DUP4 ADD MLOAD PUSH1 0x20 DUP5 ADD MSTORE JUMPDEST DUP8 PUSH1 0x1 PUSH1 0x1 PUSH1 0xA0 SHL SUB AND PUSH4 0x9FAA3C91 PUSH1 0x40 MLOAD DUP2 PUSH4 0xFFFFFFFF AND PUSH1 0xE0 SHL DUP2 MSTORE PUSH1 0x4 ADD PUSH1 0x20 PUSH1 0x40 MLOAD DUP1 DUP4 SUB DUP2 DUP7 DUP1 EXTCODESIZE ISZERO DUP1 ISZERO PUSH2 0x3C1C JUMPI PUSH1 0x0 DUP1 REVERT JUMPDEST POP GAS STATICCALL ISZERO DUP1 ISZERO PUSH2 0x3C30 JUMPI RETURNDATASIZE PUSH1 0x0 DUP1 RETURNDATACOPY RETURNDATASIZE PUSH1 0x0 REVERT JUMPDEST POP POP POP POP PUSH1 0x40 MLOAD RETURNDATASIZE PUSH1 0x1F NOT PUSH1 0x1F DUP3 ADD AND DUP3 ADD DUP1 PUSH1 0x40 MSTORE POP DUP2 ADD SWAP1 PUSH2 0x3C54 SWAP2 SWAP1 PUSH2 0x4DDF JUMP JUMPDEST DUP3 PUSH1 0x0 ADD DUP2 DUP2 MSTORE POP POP DUP1 PUSH1 0x0 ADD MLOAD PUSH1 0x1 PUSH1 0x1 PUSH1 0xA0 SHL SUB AND PUSH4 0x88E97C3C PUSH1 0x40 MLOAD DUP2 PUSH4 0xFFFFFFFF AND PUSH1 0xE0 SHL DUP2 MSTORE PUSH1 0x4 ADD PUSH1 0x20 PUSH1 0x40 MLOAD DUP1 DUP4 SUB DUP2 DUP7 DUP1 EXTCODESIZE ISZERO DUP1 ISZERO PUSH2 0x3C9A JUMPI PUSH1 0x0 DUP1 REVERT JUMPDEST POP GAS STATICCALL ISZERO DUP1 ISZERO PUSH2 0x3CAE JUMPI RETURNDATASIZE PUSH1 0x0 DUP1 RETURNDATACOPY RETURNDATASIZE PUSH1 0x0 REVERT JUMPDEST POP POP POP POP PUSH1 0x40 MLOAD RETURNDATASIZE PUSH1 0x1F NOT PUSH1 0x1F DUP3 ADD AND DUP3 ADD DUP1 PUSH1 0x40 MSTORE POP DUP2 ADD SWAP1 PUSH2 0x3CD2 SWAP2 SWAP1 PUSH2 0x4DDF JUMP JUMPDEST DUP3 PUSH1 0x20 ADD DUP2 DUP2 MSTORE POP POP DUP1 PUSH1 0x0 ADD MLOAD PUSH1 0x1 PUSH1 0x1 PUSH1 0xA0 SHL SUB AND PUSH4 0xCBD17C67 PUSH1 0x40 MLOAD DUP2 PUSH4 0xFFFFFFFF AND PUSH1 0xE0 SHL DUP2 MSTORE PUSH1 0x4 ADD PUSH1 0x20 PUSH1 0x40 MLOAD DUP1 DUP4 SUB DUP2 DUP7 DUP1 EXTCODESIZE ISZERO DUP1 ISZERO PUSH2 0x3D18 JUMPI PUSH1 0x0 DUP1 REVERT JUMPDEST POP GAS STATICCALL ISZERO DUP1 ISZERO PUSH2 0x3D2C JUMPI RETURNDATASIZE PUSH1 0x0 DUP1 RETURNDATACOPY RETURNDATASIZE PUSH1 0x0 REVERT JUMPDEST POP POP POP POP PUSH1 0x40 MLOAD RETURNDATASIZE PUSH1 0x1F NOT PUSH1 0x1F DUP3 ADD AND DUP3 ADD DUP1 PUSH1 0x40 MSTORE POP DUP2 ADD SWAP1 PUSH2 0x3D50 SWAP2 SWAP1 PUSH2 0x4DDF JUMP JUMPDEST PUSH1 0x40 DUP1 DUP5 ADD SWAP2 SWAP1 SWAP2 MSTORE PUSH1 0xA0 DUP3 ADD MLOAD DUP3 DUP3 ADD MLOAD SWAP2 MLOAD PUSH4 0x4094F10B PUSH1 0xE0 SHL DUP2 MSTORE PUSH1 0x1 PUSH1 0x1 PUSH1 0xA0 SHL SUB SWAP3 DUP4 AND PUSH1 0x4 DUP3 ADD MSTORE SWAP2 AND SWAP1 PUSH4 0x4094F10B SWAP1 PUSH1 0x24 ADD PUSH1 0x20 PUSH1 0x40 MLOAD DUP1 DUP4 SUB DUP2 DUP7 DUP1 EXTCODESIZE ISZERO DUP1 ISZERO PUSH2 0x3DA2 JUMPI PUSH1 0x0 DUP1 REVERT JUMPDEST POP GAS STATICCALL ISZERO DUP1 ISZERO PUSH2 0x3DB6 JUMPI RETURNDATASIZE PUSH1 0x0 DUP1 RETURNDATACOPY RETURNDATASIZE PUSH1 0x0 REVERT JUMPDEST POP POP POP POP PUSH1 0x40 MLOAD RETURNDATASIZE PUSH1 0x1F NOT PUSH1 0x1F DUP3 ADD AND DUP3 ADD DUP1 PUSH1 0x40 MSTORE POP DUP2 ADD SWAP1 PUSH2 0x3DDA SWAP2 SWAP1 PUSH2 0x4DDF JUMP JUMPDEST PUSH1 0x60 DUP4 ADD MSTORE PUSH1 0xA0 DUP2 ADD MLOAD PUSH1 0x40 DUP1 DUP4 ADD MLOAD SWAP1 MLOAD PUSH4 0xD3EA0F89 PUSH1 0xE0 SHL DUP2 MSTORE PUSH1 0x1 PUSH1 0x1 PUSH1 0xA0 SHL SUB SWAP2 DUP3 AND PUSH1 0x4 DUP3 ADD MSTORE SWAP2 AND SWAP1 PUSH4 0xD3EA0F89 SWAP1 PUSH1 0x24 ADD PUSH1 0x20 PUSH1 0x40 MLOAD DUP1 DUP4 SUB DUP2 DUP7 DUP1 EXTCODESIZE ISZERO DUP1 ISZERO PUSH2 0x3E2A JUMPI PUSH1 0x0 DUP1 REVERT JUMPDEST POP GAS STATICCALL ISZERO DUP1 ISZERO PUSH2 0x3E3E JUMPI RETURNDATASIZE PUSH1 0x0 DUP1 RETURNDATACOPY RETURNDATASIZE PUSH1 0x0 REVERT JUMPDEST POP POP POP POP PUSH1 0x40 MLOAD RETURNDATASIZE PUSH1 0x1F NOT PUSH1 0x1F DUP3 ADD AND DUP3 ADD DUP1 PUSH1 0x40 MSTORE POP DUP2 ADD SWAP1 PUSH2 0x3E62 SWAP2 SWAP1 PUSH2 0x4DDF JUMP JUMPDEST PUSH1 0x80 DUP4 ADD MSTORE PUSH1 0xA0 DUP2 ADD MLOAD PUSH1 0x40 DUP1 DUP4 ADD MLOAD SWAP1 MLOAD PUSH4 0x4189C95D PUSH1 0xE0 SHL DUP2 MSTORE PUSH1 0x1 PUSH1 0x1 PUSH1 0xA0 SHL SUB SWAP2 DUP3 AND PUSH1 0x4 DUP3 ADD MSTORE SWAP2 AND SWAP1 PUSH4 0x4189C95D SWAP1 PUSH1 0x24 ADD PUSH1 0x20 PUSH1 0x40 MLOAD DUP1 DUP4 SUB DUP2 DUP7 DUP1 EXTCODESIZE ISZERO DUP1 ISZERO PUSH2 0x3EB2 JUMPI PUSH1 0x0 DUP1 REVERT JUMPDEST POP GAS STATICCALL ISZERO DUP1 ISZERO PUSH2 0x3EC6 JUMPI RETURNDATASIZE PUSH1 0x0 DUP1 RETURNDATACOPY RETURNDATASIZE PUSH1 0x0 REVERT JUMPDEST POP POP POP POP PUSH1 0x40 MLOAD RETURNDATASIZE PUSH1 0x1F NOT PUSH1 0x1F DUP3 ADD AND DUP3 ADD DUP1 PUSH1 0x40 MSTORE POP DUP2 ADD SWAP1 PUSH2 0x3EEA SWAP2 SWAP1 PUSH2 0x4DDF JUMP JUMPDEST PUSH1 0xA0 DUP4 DUP2 ADD SWAP2 SWAP1 SWAP2 MSTORE DUP2 ADD MLOAD PUSH1 0x40 DUP1 DUP4 ADD MLOAD SWAP1 MLOAD PUSH4 0x84F4B61F PUSH1 0xE0 SHL DUP2 MSTORE PUSH1 0x1 PUSH1 0x1 PUSH1 0xA0 SHL SUB SWAP2 DUP3 AND PUSH1 0x4 DUP3 ADD MSTORE SWAP2 AND SWAP1 PUSH4 0x84F4B61F SWAP1 PUSH1 0x24 ADD PUSH1 0x20 PUSH1 0x40 MLOAD DUP1 DUP4 SUB DUP2 DUP7 DUP1 EXTCODESIZE ISZERO DUP1 ISZERO PUSH2 0x3F3C JUMPI PUSH1 0x0 DUP1 REVERT JUMPDEST POP GAS STATICCALL ISZERO DUP1 ISZERO PUSH2 0x3F50 JUMPI RETURNDATASIZE PUSH1 0x0 DUP1 RETURNDATACOPY RETURNDATASIZE PUSH1 0x0 REVERT JUMPDEST POP POP POP POP PUSH1 0x40 MLOAD RETURNDATASIZE PUSH1 0x1F NOT PUSH1 0x1F DUP3 ADD AND DUP3 ADD DUP1 PUSH1 0x40 MSTORE POP DUP2 ADD SWAP1 PUSH2 0x3F74 SWAP2 SWAP1 PUSH2 0x4DDF JUMP JUMPDEST PUSH1 0xC0 DUP4 ADD DUP2 SWAP1 MSTORE PUSH2 0x3FC7 JUMPI PUSH1 0x40 MLOAD PUSH3 0x461BCD PUSH1 0xE5 SHL DUP2 MSTORE PUSH1 0x20 PUSH1 0x4 DUP3 ADD MSTORE PUSH1 0x1B PUSH1 0x24 DUP3 ADD MSTORE PUSH32 0x434242433A20494C4C4547414C5F4441494C595F564F4C554D452E0000000000 PUSH1 0x44 DUP3 ADD MSTORE PUSH1 0x64 ADD PUSH2 0x774 JUMP JUMPDEST PUSH1 0x0 DUP8 ISZERO DUP1 ISZERO PUSH2 0x3FD5 JUMPI POP DUP7 ISZERO JUMPDEST ISZERO PUSH2 0x3FF3 JUMPI PUSH2 0x3FE8 DUP5 DUP4 DUP6 PUSH1 0x0 DUP11 PUSH2 0x42D4 JUMP JUMPDEST SWAP5 POP POP POP POP POP PUSH2 0x4193 JUMP JUMPDEST PUSH1 0x0 PUSH2 0x4003 DUP6 DUP5 DUP7 PUSH1 0x0 DUP12 PUSH2 0x42D4 JUMP JUMPDEST SWAP1 POP PUSH1 0x0 DUP6 PUSH1 0x40 ADD MLOAD DUP5 PUSH1 0x40 ADD MLOAD PUSH1 0x1 PUSH1 0x1 PUSH1 0xA0 SHL SUB AND PUSH4 0x313CE567 PUSH1 0x40 MLOAD DUP2 PUSH4 0xFFFFFFFF AND PUSH1 0xE0 SHL DUP2 MSTORE PUSH1 0x4 ADD PUSH1 0x20 PUSH1 0x40 MLOAD DUP1 DUP4 SUB DUP2 DUP7 DUP1 EXTCODESIZE ISZERO DUP1 ISZERO PUSH2 0x4049 JUMPI PUSH1 0x0 DUP1 REVERT JUMPDEST POP GAS STATICCALL ISZERO DUP1 ISZERO PUSH2 0x405D JUMPI RETURNDATASIZE PUSH1 0x0 DUP1 RETURNDATACOPY RETURNDATASIZE PUSH1 0x0 REVERT JUMPDEST POP POP POP POP PUSH1 0x40 MLOAD RETURNDATASIZE PUSH1 0x1F NOT PUSH1 0x1F DUP3 ADD AND DUP3 ADD DUP1 PUSH1 0x40 MSTORE POP DUP2 ADD SWAP1 PUSH2 0x4081 SWAP2 SWAP1 PUSH2 0x4F1A JUMP JUMPDEST PUSH2 0x408C SWAP1 PUSH1 0xA PUSH2 0x531B JUMP JUMPDEST DUP6 PUSH1 0x60 ADD MLOAD DUP12 DUP8 PUSH1 0x20 ADD MLOAD PUSH1 0x1 PUSH1 0x1 PUSH1 0xA0 SHL SUB AND PUSH4 0x313CE567 PUSH1 0x40 MLOAD DUP2 PUSH4 0xFFFFFFFF AND PUSH1 0xE0 SHL DUP2 MSTORE PUSH1 0x4 ADD PUSH1 0x20 PUSH1 0x40 MLOAD DUP1 DUP4 SUB DUP2 DUP7 DUP1 EXTCODESIZE ISZERO DUP1 ISZERO PUSH2 0x40CF JUMPI PUSH1 0x0 DUP1 REVERT JUMPDEST POP GAS STATICCALL ISZERO DUP1 ISZERO PUSH2 0x40E3 JUMPI RETURNDATASIZE PUSH1 0x0 DUP1 RETURNDATACOPY RETURNDATASIZE PUSH1 0x0 REVERT JUMPDEST POP POP POP POP PUSH1 0x40 MLOAD RETURNDATASIZE PUSH1 0x1F NOT PUSH1 0x1F DUP3 ADD AND DUP3 ADD DUP1 PUSH1 0x40 MSTORE POP DUP2 ADD SWAP1 PUSH2 0x4107 SWAP2 SWAP1 PUSH2 0x4F1A JUMP JUMPDEST PUSH2 0x4112 SWAP1 PUSH1 0xA PUSH2 0x531B JUMP JUMPDEST DUP7 DUP16 PUSH8 0xDE0B6B3A7640000 PUSH2 0x4127 SWAP2 SWAP1 PUSH2 0x53ED JUMP JUMPDEST PUSH2 0x4131 SWAP2 SWAP1 PUSH2 0x52B2 JUMP JUMPDEST PUSH2 0x4143 SWAP1 PUSH8 0xDE0B6B3A7640000 PUSH2 0x53ED JUMP JUMPDEST PUSH2 0x414D SWAP2 SWAP1 PUSH2 0x52B2 JUMP JUMPDEST PUSH2 0x4157 SWAP2 SWAP1 PUSH2 0x529A JUMP JUMPDEST PUSH2 0x4161 SWAP2 SWAP1 PUSH2 0x53ED JUMP JUMPDEST PUSH2 0x416B SWAP2 SWAP1 PUSH2 0x53ED JUMP JUMPDEST PUSH2 0x4175 SWAP2 SWAP1 PUSH2 0x52B2 JUMP JUMPDEST SWAP1 POP PUSH2 0x4182 DUP6 DUP3 DUP11 PUSH2 0x49E2 JUMP JUMPDEST SWAP3 POP POP POP PUSH2 0x3FE8 DUP5 DUP4 DUP6 DUP5 DUP11 PUSH2 0x42D4 JUMP JUMPDEST SWAP5 SWAP4 POP POP POP POP JUMP JUMPDEST PUSH1 0x1 PUSH1 0x1 PUSH1 0xA0 SHL SUB DUP2 AND PUSH2 0x41AE JUMPI PUSH1 0x0 DUP1 REVERT JUMPDEST PUSH1 0x68 SLOAD PUSH1 0x40 MLOAD PUSH1 0x1 PUSH1 0x1 PUSH1 0xA0 SHL SUB DUP1 DUP5 AND SWAP3 AND SWAP1 PUSH32 0x8BE0079C531659141344CD1FD0A4F28419497F9722A3DAAFE3B4186F6B6457E0 SWAP1 PUSH1 0x0 SWAP1 LOG3 PUSH1 0x68 DUP1 SLOAD PUSH1 0x1 PUSH1 0x1 PUSH1 0xA0 SHL SUB NOT AND PUSH1 0x1 PUSH1 0x1 PUSH1 0xA0 SHL SUB SWAP3 SWAP1 SWAP3 AND SWAP2 SWAP1 SWAP2 OR SWAP1 SSTORE JUMP JUMPDEST PUSH1 0x0 DUP1 DUP3 PUSH2 0x421C JUMPI PUSH1 0x0 SWAP2 POP POP PUSH2 0x72F JUMP JUMPDEST PUSH1 0x14 PUSH2 0x4229 DUP5 PUSH1 0x13 PUSH2 0x53ED JUMP JUMPDEST PUSH2 0x4233 SWAP2 SWAP1 PUSH2 0x52B2 JUMP JUMPDEST DUP5 LT ISZERO PUSH2 0x4241 JUMPI POP DUP3 PUSH2 0x42B0 JUMP JUMPDEST PUSH2 0x424C DUP5 PUSH1 0x64 PUSH2 0x53ED JUMP JUMPDEST PUSH1 0x14 PUSH2 0x4259 DUP6 PUSH1 0x13 PUSH2 0x53ED JUMP JUMPDEST PUSH2 0x4263 SWAP2 SWAP1 PUSH2 0x52B2 JUMP JUMPDEST PUSH2 0x426D SWAP1 DUP7 PUSH2 0x540C JUMP JUMPDEST PUSH2 0x4277 SWAP1 DUP6 PUSH2 0x53ED JUMP JUMPDEST PUSH2 0x4282 SWAP1 PUSH1 0x4 PUSH2 0x53ED JUMP JUMPDEST PUSH2 0x428C SWAP2 SWAP1 PUSH2 0x52B2 JUMP JUMPDEST PUSH1 0x14 PUSH2 0x4299 DUP6 PUSH1 0x13 PUSH2 0x53ED JUMP JUMPDEST PUSH2 0x42A3 SWAP2 SWAP1 PUSH2 0x52B2 JUMP JUMPDEST PUSH2 0x42AD SWAP2 SWAP1 PUSH2 0x529A JUMP JUMPDEST SWAP1 POP JUMPDEST DUP3 DUP2 LT PUSH2 0x42CD JUMPI PUSH4 0x4E487B71 PUSH1 0xE0 SHL PUSH1 0x0 MSTORE PUSH1 0x1 PUSH1 0x4 MSTORE PUSH1 0x24 PUSH1 0x0 REVERT JUMPDEST SWAP4 SWAP3 POP POP POP JUMP JUMPDEST DUP5 MLOAD PUSH1 0x40 DUP7 ADD MLOAD PUSH1 0x60 DUP7 ADD MLOAD DUP6 MLOAD PUSH1 0x0 SWAP4 SWAP3 SWAP2 SWAP1 DUP5 DUP3 DUP6 PUSH2 0x42F6 DUP3 PUSH1 0x1 PUSH2 0x529A JUMP JUMPDEST PUSH2 0x4300 SWAP2 SWAP1 PUSH2 0x53ED JUMP JUMPDEST PUSH2 0x430A SWAP2 SWAP1 PUSH2 0x52B2 JUMP JUMPDEST SWAP1 POP PUSH1 0x0 DUP4 DUP7 PUSH2 0x431B PUSH1 0x1 DUP4 PUSH2 0x540C JUMP JUMPDEST PUSH2 0x4325 SWAP2 SWAP1 PUSH2 0x53ED JUMP JUMPDEST PUSH2 0x432F SWAP2 SWAP1 PUSH2 0x52B2 JUMP JUMPDEST SWAP1 POP PUSH1 0x0 DUP1 DUP3 DUP8 LT ISZERO PUSH2 0x4344 JUMPI DUP3 SWAP7 POP PUSH2 0x4350 JUMP JUMPDEST DUP4 DUP8 GT ISZERO PUSH2 0x4350 JUMPI DUP4 SWAP7 POP JUMPDEST PUSH1 0x1 DUP14 PUSH1 0x80 ADD MLOAD PUSH1 0x1 DUP2 GT ISZERO PUSH2 0x4376 JUMPI PUSH4 0x4E487B71 PUSH1 0xE0 SHL PUSH1 0x0 MSTORE PUSH1 0x21 PUSH1 0x4 MSTORE PUSH1 0x24 PUSH1 0x0 REVERT JUMPDEST EQ ISZERO PUSH2 0x4677 JUMPI PUSH1 0x0 DUP11 PUSH1 0x1 DUP2 GT ISZERO PUSH2 0x439E JUMPI PUSH4 0x4E487B71 PUSH1 0xE0 SHL PUSH1 0x0 MSTORE PUSH1 0x21 PUSH1 0x4 MSTORE PUSH1 0x24 PUSH1 0x0 REVERT JUMPDEST EQ ISZERO PUSH2 0x43B5 JUMPI PUSH2 0x43AE DUP12 DUP9 PUSH2 0x529A JUMP JUMPDEST SWAP7 POP PUSH2 0x43CC JUMP JUMPDEST PUSH2 0x43BF DUP12 DUP9 PUSH2 0x420A JUMP JUMPDEST PUSH2 0x43C9 SWAP1 DUP9 PUSH2 0x540C JUMP JUMPDEST SWAP7 POP JUMPDEST PUSH1 0x0 DUP6 SGT ISZERO PUSH2 0x4482 JUMPI DUP7 PUSH2 0x43E0 DUP5 DUP3 PUSH2 0x540C JUMP JUMPDEST PUSH2 0x43EA DUP10 DUP8 PUSH2 0x540C JUMP JUMPDEST PUSH2 0x43F3 DUP9 PUSH2 0x336D JUMP JUMPDEST PUSH2 0x43FD SWAP2 SWAP1 PUSH2 0x53ED JUMP JUMPDEST PUSH2 0x4407 SWAP2 SWAP1 PUSH2 0x53ED JUMP JUMPDEST PUSH2 0x4411 SWAP2 SWAP1 PUSH2 0x52B2 JUMP JUMPDEST PUSH2 0x441D DUP9 PUSH2 0x3E8 PUSH2 0x53ED JUMP JUMPDEST PUSH2 0x4427 SWAP2 SWAP1 PUSH2 0x529A JUMP JUMPDEST SWAP2 POP DUP8 PUSH2 0x4434 DUP5 DUP3 PUSH2 0x540C JUMP JUMPDEST PUSH2 0x443E DUP11 DUP8 PUSH2 0x540C JUMP JUMPDEST PUSH2 0x4447 DUP9 PUSH2 0x336D JUMP JUMPDEST PUSH2 0x4451 SWAP2 SWAP1 PUSH2 0x53ED JUMP JUMPDEST PUSH2 0x445B SWAP2 SWAP1 PUSH2 0x53ED JUMP JUMPDEST PUSH2 0x4465 SWAP2 SWAP1 PUSH2 0x52B2 JUMP JUMPDEST PUSH2 0x4471 DUP10 PUSH2 0x3E8 PUSH2 0x53ED JUMP JUMPDEST PUSH2 0x447B SWAP2 SWAP1 PUSH2 0x529A JUMP JUMPDEST SWAP1 POP PUSH2 0x452B JUMP JUMPDEST DUP7 PUSH2 0x448D DUP5 DUP3 PUSH2 0x540C JUMP JUMPDEST PUSH2 0x4497 DUP10 DUP8 PUSH2 0x540C JUMP JUMPDEST PUSH2 0x44A0 DUP9 PUSH2 0x336D JUMP JUMPDEST PUSH2 0x44AA SWAP2 SWAP1 PUSH2 0x53ED JUMP JUMPDEST PUSH2 0x44B4 SWAP2 SWAP1 PUSH2 0x53ED JUMP JUMPDEST PUSH2 0x44BE SWAP2 SWAP1 PUSH2 0x52B2 JUMP JUMPDEST PUSH2 0x44CA DUP9 PUSH2 0x3E8 PUSH2 0x53ED JUMP JUMPDEST PUSH2 0x44D4 SWAP2 SWAP1 PUSH2 0x540C JUMP JUMPDEST SWAP2 POP DUP8 PUSH2 0x44E1 DUP5 DUP3 PUSH2 0x540C JUMP JUMPDEST PUSH2 0x44EB DUP11 DUP8 PUSH2 0x540C JUMP JUMPDEST PUSH2 0x44F4 DUP9 PUSH2 0x336D JUMP JUMPDEST PUSH2 0x44FE SWAP2 SWAP1 PUSH2 0x53ED JUMP JUMPDEST PUSH2 0x4508 SWAP2 SWAP1 PUSH2 0x53ED JUMP JUMPDEST PUSH2 0x4512 SWAP2 SWAP1 PUSH2 0x52B2 JUMP JUMPDEST PUSH2 0x451E DUP10 PUSH2 0x3E8 PUSH2 0x53ED JUMP JUMPDEST PUSH2 0x4528 SWAP2 SWAP1 PUSH2 0x540C JUMP JUMPDEST SWAP1 POP JUMPDEST PUSH4 0x1E13380 DUP15 PUSH1 0x20 ADD MLOAD DUP16 PUSH1 0x60 ADD MLOAD PUSH2 0x4544 SWAP2 SWAP1 PUSH2 0x540C JUMP JUMPDEST DUP14 PUSH1 0x80 ADD MLOAD PUSH2 0x4553 SWAP2 SWAP1 PUSH2 0x53ED JUMP JUMPDEST PUSH2 0x4563 SWAP1 PUSH6 0x1CAE8C13E000 PUSH2 0x529A JUMP JUMPDEST PUSH2 0x456E PUSH1 0x1 DUP10 PUSH2 0x540C JUMP JUMPDEST PUSH2 0x457D SWAP1 PUSH5 0xE8D4A51000 PUSH2 0x53ED JUMP JUMPDEST PUSH2 0x4587 SWAP2 SWAP1 PUSH2 0x53ED JUMP JUMPDEST PUSH2 0x4591 SWAP2 SWAP1 PUSH2 0x52B2 JUMP JUMPDEST PUSH2 0x45A1 SWAP1 PUSH6 0x5AF3107A4000 PUSH2 0x529A JUMP JUMPDEST DUP2 PUSH2 0x45AC DUP5 DUP10 PUSH2 0x53ED JUMP JUMPDEST PUSH2 0x45BE SWAP1 PUSH8 0xDE0B6B3A7640000 PUSH2 0x53ED JUMP JUMPDEST PUSH2 0x45C8 SWAP2 SWAP1 PUSH2 0x52B2 JUMP JUMPDEST GT PUSH2 0x45D9 JUMPI PUSH6 0x5AF3107A4000 PUSH2 0x4670 JUMP JUMPDEST PUSH4 0x1E13380 DUP15 PUSH1 0x20 ADD MLOAD DUP16 PUSH1 0x60 ADD MLOAD PUSH2 0x45F2 SWAP2 SWAP1 PUSH2 0x540C JUMP JUMPDEST DUP14 PUSH1 0x80 ADD MLOAD PUSH2 0x4601 SWAP2 SWAP1 PUSH2 0x53ED JUMP JUMPDEST PUSH2 0x4611 SWAP1 PUSH6 0x1CAE8C13E000 PUSH2 0x529A JUMP JUMPDEST PUSH2 0x461C PUSH1 0x1 DUP10 PUSH2 0x540C JUMP JUMPDEST PUSH2 0x462B SWAP1 PUSH5 0xE8D4A51000 PUSH2 0x53ED JUMP JUMPDEST PUSH2 0x4635 SWAP2 SWAP1 PUSH2 0x53ED JUMP JUMPDEST PUSH2 0x463F SWAP2 SWAP1 PUSH2 0x52B2 JUMP JUMPDEST DUP2 PUSH2 0x464A DUP5 DUP10 PUSH2 0x53ED JUMP JUMPDEST PUSH2 0x465C SWAP1 PUSH8 0xDE0B6B3A7640000 PUSH2 0x53ED JUMP JUMPDEST PUSH2 0x4666 SWAP2 SWAP1 PUSH2 0x52B2 JUMP JUMPDEST PUSH2 0x4670 SWAP2 SWAP1 PUSH2 0x540C JUMP JUMPDEST SWAP9 POP PUSH2 0x49D1 JUMP JUMPDEST PUSH1 0x0 DUP14 PUSH1 0x80 ADD MLOAD PUSH1 0x1 DUP2 GT ISZERO PUSH2 0x469D JUMPI PUSH4 0x4E487B71 PUSH1 0xE0 SHL PUSH1 0x0 MSTORE PUSH1 0x21 PUSH1 0x4 MSTORE PUSH1 0x24 PUSH1 0x0 REVERT JUMPDEST EQ ISZERO PUSH2 0x4997 JUMPI PUSH1 0x0 DUP11 PUSH1 0x1 DUP2 GT ISZERO PUSH2 0x46C5 JUMPI PUSH4 0x4E487B71 PUSH1 0xE0 SHL PUSH1 0x0 MSTORE PUSH1 0x21 PUSH1 0x4 MSTORE PUSH1 0x24 PUSH1 0x0 REVERT JUMPDEST EQ ISZERO PUSH2 0x46E6 JUMPI PUSH2 0x46D5 DUP12 DUP9 PUSH2 0x420A JUMP JUMPDEST PUSH2 0x46DF SWAP1 DUP9 PUSH2 0x540C JUMP JUMPDEST SWAP7 POP PUSH2 0x46F3 JUMP JUMPDEST PUSH2 0x46F0 DUP12 DUP9 PUSH2 0x529A JUMP JUMPDEST SWAP7 POP JUMPDEST PUSH1 0x0 DUP6 SGT ISZERO PUSH2 0x47F7 JUMPI PUSH6 0x1CAE8C13E000 DUP15 PUSH1 0x20 ADD MLOAD DUP16 PUSH1 0x60 ADD MLOAD PUSH2 0x4717 SWAP2 SWAP1 PUSH2 0x540C JUMP JUMPDEST DUP14 PUSH1 0x80 ADD MLOAD PUSH2 0x4726 SWAP2 SWAP1 PUSH2 0x53ED JUMP JUMPDEST PUSH2 0x4736 SWAP1 PUSH6 0x1CAE8C13E000 PUSH2 0x529A JUMP JUMPDEST DUP9 PUSH2 0x4741 DUP7 DUP3 PUSH2 0x540C JUMP JUMPDEST PUSH2 0x474B DUP12 DUP10 PUSH2 0x540C JUMP JUMPDEST PUSH2 0x4754 DUP11 PUSH2 0x336D JUMP JUMPDEST PUSH2 0x475E SWAP2 SWAP1 PUSH2 0x53ED JUMP JUMPDEST PUSH2 0x4768 SWAP2 SWAP1 PUSH2 0x53ED JUMP JUMPDEST PUSH2 0x4772 SWAP2 SWAP1 PUSH2 0x52B2 JUMP JUMPDEST PUSH2 0x477E DUP11 PUSH2 0x3E8 PUSH2 0x53ED JUMP JUMPDEST PUSH2 0x4788 SWAP2 SWAP1 PUSH2 0x529A JUMP JUMPDEST PUSH2 0x4792 SWAP2 SWAP1 PUSH2 0x53ED JUMP JUMPDEST PUSH2 0x479C SWAP2 SWAP1 PUSH2 0x52B2 JUMP JUMPDEST SWAP2 POP DUP8 PUSH2 0x47A9 DUP5 DUP3 PUSH2 0x540C JUMP JUMPDEST PUSH2 0x47B3 DUP11 DUP8 PUSH2 0x540C JUMP JUMPDEST PUSH2 0x47BC DUP9 PUSH2 0x336D JUMP JUMPDEST PUSH2 0x47C6 SWAP2 SWAP1 PUSH2 0x53ED JUMP JUMPDEST PUSH2 0x47D0 SWAP2 SWAP1 PUSH2 0x53ED JUMP JUMPDEST PUSH2 0x47DA SWAP2 SWAP1 PUSH2 0x52B2 JUMP JUMPDEST PUSH2 0x47E6 DUP10 PUSH2 0x3E8 PUSH2 0x53ED JUMP JUMPDEST PUSH2 0x47F0 SWAP2 SWAP1 PUSH2 0x529A JUMP JUMPDEST SWAP1 POP PUSH2 0x48EE JUMP JUMPDEST PUSH6 0x1CAE8C13E000 DUP15 PUSH1 0x20 ADD MLOAD DUP16 PUSH1 0x60 ADD MLOAD PUSH2 0x4812 SWAP2 SWAP1 PUSH2 0x540C JUMP JUMPDEST DUP14 PUSH1 0x80 ADD MLOAD PUSH2 0x4821 SWAP2 SWAP1 PUSH2 0x53ED JUMP JUMPDEST PUSH2 0x4831 SWAP1 PUSH6 0x1CAE8C13E000 PUSH2 0x529A JUMP JUMPDEST DUP9 PUSH2 0x483C DUP7 DUP3 PUSH2 0x540C JUMP JUMPDEST PUSH2 0x4846 DUP12 DUP10 PUSH2 0x540C JUMP JUMPDEST PUSH2 0x484F DUP11 PUSH2 0x336D JUMP JUMPDEST PUSH2 0x4859 SWAP2 SWAP1 PUSH2 0x53ED JUMP JUMPDEST PUSH2 0x4863 SWAP2 SWAP1 PUSH2 0x53ED JUMP JUMPDEST PUSH2 0x486D SWAP2 SWAP1 PUSH2 0x52B2 JUMP JUMPDEST PUSH2 0x4879 DUP11 PUSH2 0x3E8 PUSH2 0x53ED JUMP JUMPDEST PUSH2 0x4883 SWAP2 SWAP1 PUSH2 0x540C JUMP JUMPDEST PUSH2 0x488D SWAP2 SWAP1 PUSH2 0x53ED JUMP JUMPDEST PUSH2 0x4897 SWAP2 SWAP1 PUSH2 0x52B2 JUMP JUMPDEST SWAP2 POP DUP8 PUSH2 0x48A4 DUP5 DUP3 PUSH2 0x540C JUMP JUMPDEST PUSH2 0x48AE DUP11 DUP8 PUSH2 0x540C JUMP JUMPDEST PUSH2 0x48B7 DUP9 PUSH2 0x336D JUMP JUMPDEST PUSH2 0x48C1 SWAP2 SWAP1 PUSH2 0x53ED JUMP JUMPDEST PUSH2 0x48CB SWAP2 SWAP1 PUSH2 0x53ED JUMP JUMPDEST PUSH2 0x48D5 SWAP2 SWAP1 PUSH2 0x52B2 JUMP JUMPDEST PUSH2 0x48E1 DUP10 PUSH2 0x3E8 PUSH2 0x53ED JUMP JUMPDEST PUSH2 0x48EB SWAP2 SWAP1 PUSH2 0x540C JUMP JUMPDEST SWAP1 POP JUMPDEST DUP1 PUSH2 0x48F9 DUP4 DUP9 PUSH2 0x53ED JUMP JUMPDEST PUSH2 0x490B SWAP1 PUSH8 0xDE0B6B3A7640000 PUSH2 0x53ED JUMP JUMPDEST PUSH2 0x4915 SWAP2 SWAP1 PUSH2 0x52B2 JUMP JUMPDEST PUSH2 0x4925 SWAP1 PUSH6 0x5AF3107A4000 PUSH2 0x529A JUMP JUMPDEST PUSH2 0x4930 DUP8 PUSH1 0x1 PUSH2 0x529A JUMP JUMPDEST PUSH2 0x4942 SWAP1 PUSH8 0xDE0B6B3A7640000 PUSH2 0x53ED JUMP JUMPDEST GT PUSH2 0x4953 JUMPI PUSH6 0x5AF3107A4000 PUSH2 0x4670 JUMP JUMPDEST DUP1 PUSH2 0x495E DUP4 DUP9 PUSH2 0x53ED JUMP JUMPDEST PUSH2 0x4970 SWAP1 PUSH8 0xDE0B6B3A7640000 PUSH2 0x53ED JUMP JUMPDEST PUSH2 0x497A SWAP2 SWAP1 PUSH2 0x52B2 JUMP JUMPDEST PUSH2 0x4985 DUP8 PUSH1 0x1 PUSH2 0x529A JUMP JUMPDEST PUSH2 0x4666 SWAP1 PUSH8 0xDE0B6B3A7640000 PUSH2 0x53ED JUMP JUMPDEST PUSH1 0x40 MLOAD PUSH3 0x461BCD PUSH1 0xE5 SHL DUP2 MSTORE PUSH1 0x20 PUSH1 0x4 DUP3 ADD MSTORE PUSH1 0xF PUSH1 0x24 DUP3 ADD MSTORE PUSH15 0x434242433A57524F4E475F54595045 PUSH1 0x88 SHL PUSH1 0x44 DUP3 ADD MSTORE PUSH1 0x64 ADD PUSH2 0x774 JUMP JUMPDEST POP POP POP POP POP POP POP POP SWAP6 SWAP5 POP POP POP POP POP JUMP JUMPDEST PUSH1 0x0 DUP1 DUP1 DUP4 PUSH1 0x1 DUP2 GT ISZERO PUSH2 0x4A06 JUMPI PUSH4 0x4E487B71 PUSH1 0xE0 SHL PUSH1 0x0 MSTORE PUSH1 0x21 PUSH1 0x4 MSTORE PUSH1 0x24 PUSH1 0x0 REVERT JUMPDEST EQ ISZERO PUSH2 0x4A17 JUMPI POP PUSH1 0x20 DUP5 ADD MLOAD PUSH2 0x4A1E JUMP JUMPDEST POP PUSH1 0x40 DUP5 ADD MLOAD JUMPDEST DUP4 PUSH2 0x4A2C JUMPI PUSH1 0x0 SWAP2 POP PUSH2 0x9AE JUMP JUMPDEST PUSH4 0x3B9ACA00 PUSH2 0x4A5C DUP7 PUSH1 0xC0 ADD MLOAD DUP7 PUSH8 0xDE0B6B3A7640000 PUSH2 0x4A4D SWAP2 SWAP1 PUSH2 0x53ED JUMP JUMPDEST PUSH2 0x4A57 SWAP2 SWAP1 PUSH2 0x52B2 JUMP JUMPDEST PUSH2 0x4A97 JUMP JUMPDEST PUSH1 0xA0 DUP8 ADD MLOAD PUSH2 0x4A6B SWAP1 DUP5 PUSH2 0x53ED JUMP JUMPDEST PUSH2 0x4A75 SWAP2 SWAP1 PUSH2 0x53ED JUMP JUMPDEST PUSH2 0x4A7F SWAP2 SWAP1 PUSH2 0x52B2 JUMP JUMPDEST DUP6 PUSH1 0x60 ADD MLOAD PUSH2 0x4A8E SWAP2 SWAP1 PUSH2 0x529A JUMP JUMPDEST SWAP6 SWAP5 POP POP POP POP POP JUMP JUMPDEST PUSH1 0x0 PUSH1 0x3 DUP3 GT ISZERO PUSH2 0x4AF8 JUMPI POP DUP1 PUSH1 0x0 PUSH2 0x4AB1 PUSH1 0x2 DUP4 PUSH2 0x52B2 JUMP JUMPDEST PUSH2 0x4ABC SWAP1 PUSH1 0x1 PUSH2 0x529A JUMP JUMPDEST SWAP1 POP JUMPDEST DUP2 DUP2 LT ISZERO PUSH2 0x4AF2 JUMPI SWAP1 POP DUP1 PUSH1 0x2 DUP2 PUSH2 0x4AD7 DUP2 DUP7 PUSH2 0x52B2 JUMP JUMPDEST PUSH2 0x4AE1 SWAP2 SWAP1 PUSH2 0x529A JUMP JUMPDEST PUSH2 0x4AEB SWAP2 SWAP1 PUSH2 0x52B2 JUMP JUMPDEST SWAP1 POP PUSH2 0x4ABF JUMP JUMPDEST POP PUSH2 0x80C JUMP JUMPDEST DUP2 ISZERO PUSH2 0x80C JUMPI POP PUSH1 0x1 SWAP2 SWAP1 POP JUMP JUMPDEST DUP3 DUP1 SLOAD PUSH2 0x4B12 SWAP1 PUSH2 0x5453 JUMP JUMPDEST SWAP1 PUSH1 0x0 MSTORE PUSH1 0x20 PUSH1 0x0 KECCAK256 SWAP1 PUSH1 0x1F ADD PUSH1 0x20 SWAP1 DIV DUP2 ADD SWAP3 DUP3 PUSH2 0x4B34 JUMPI PUSH1 0x0 DUP6 SSTORE PUSH2 0x4B7A JUMP JUMPDEST DUP3 PUSH1 0x1F LT PUSH2 0x4B4D JUMPI DUP1 MLOAD PUSH1 0xFF NOT AND DUP4 DUP1 ADD OR DUP6 SSTORE PUSH2 0x4B7A JUMP JUMPDEST DUP3 DUP1 ADD PUSH1 0x1 ADD DUP6 SSTORE DUP3 ISZERO PUSH2 0x4B7A JUMPI SWAP2 DUP3 ADD JUMPDEST DUP3 DUP2 GT ISZERO PUSH2 0x4B7A JUMPI DUP3 MLOAD DUP3 SSTORE SWAP2 PUSH1 0x20 ADD SWAP2 SWAP1 PUSH1 0x1 ADD SWAP1 PUSH2 0x4B5F JUMP JUMPDEST POP PUSH2 0x4B86 SWAP3 SWAP2 POP PUSH2 0x4B8A JUMP JUMPDEST POP SWAP1 JUMP JUMPDEST JUMPDEST DUP1 DUP3 GT ISZERO PUSH2 0x4B86 JUMPI PUSH1 0x0 DUP2 SSTORE PUSH1 0x1 ADD PUSH2 0x4B8B JUMP JUMPDEST PUSH1 0x0 DUP3 PUSH1 0x1F DUP4 ADD SLT PUSH2 0x4BAF JUMPI DUP1 DUP2 REVERT JUMPDEST DUP2 CALLDATALOAD PUSH2 0x4BC2 PUSH2 0x4BBD DUP3 PUSH2 0x5272 JUMP JUMPDEST PUSH2 0x5241 JUMP JUMPDEST DUP2 DUP2 MSTORE DUP5 PUSH1 0x20 DUP4 DUP7 ADD ADD GT ISZERO PUSH2 0x4BD6 JUMPI DUP3 DUP4 REVERT JUMPDEST DUP2 PUSH1 0x20 DUP6 ADD PUSH1 0x20 DUP4 ADD CALLDATACOPY SWAP1 DUP2 ADD PUSH1 0x20 ADD SWAP2 SWAP1 SWAP2 MSTORE SWAP3 SWAP2 POP POP JUMP JUMPDEST PUSH1 0x0 PUSH1 0x20 DUP3 DUP5 SUB SLT ISZERO PUSH2 0x4C01 JUMPI DUP1 DUP2 REVERT JUMPDEST DUP2 CALLDATALOAD PUSH2 0x42CD DUP2 PUSH2 0x5513 JUMP JUMPDEST PUSH1 0x0 PUSH1 0x20 DUP3 DUP5 SUB SLT ISZERO PUSH2 0x4C1D JUMPI DUP1 DUP2 REVERT JUMPDEST DUP2 MLOAD PUSH2 0x42CD DUP2 PUSH2 0x5513 JUMP JUMPDEST PUSH1 0x0 DUP1 PUSH1 0x40 DUP4 DUP6 SUB SLT ISZERO PUSH2 0x4C3A JUMPI DUP1 DUP2 REVERT JUMPDEST DUP3 CALLDATALOAD PUSH2 0x4C45 DUP2 PUSH2 0x5513 JUMP JUMPDEST SWAP2 POP PUSH1 0x20 DUP4 ADD CALLDATALOAD PUSH2 0x4C55 DUP2 PUSH2 0x5513 JUMP JUMPDEST DUP1 SWAP2 POP POP SWAP3 POP SWAP3 SWAP1 POP JUMP JUMPDEST PUSH1 0x0 DUP1 PUSH1 0x0 PUSH1 0x60 DUP5 DUP7 SUB SLT ISZERO PUSH2 0x4C74 JUMPI DUP1 DUP2 REVERT JUMPDEST DUP4 CALLDATALOAD PUSH2 0x4C7F DUP2 PUSH2 0x5513 JUMP JUMPDEST SWAP3 POP PUSH1 0x20 DUP5 ADD CALLDATALOAD PUSH2 0x4C8F DUP2 PUSH2 0x5513 JUMP JUMPDEST SWAP3 SWAP6 SWAP3 SWAP5 POP POP POP PUSH1 0x40 SWAP2 SWAP1 SWAP2 ADD CALLDATALOAD SWAP1 JUMP JUMPDEST PUSH1 0x0 DUP1 PUSH1 0x0 DUP1 PUSH1 0x0 DUP1 PUSH1 0x0 PUSH1 0xE0 DUP9 DUP11 SUB SLT ISZERO PUSH2 0x4CBA JUMPI DUP3 DUP4 REVERT JUMPDEST DUP8 CALLDATALOAD PUSH2 0x4CC5 DUP2 PUSH2 0x5513 JUMP JUMPDEST SWAP7 POP PUSH1 0x20 DUP9 ADD CALLDATALOAD PUSH2 0x4CD5 DUP2 PUSH2 0x5513 JUMP JUMPDEST SWAP6 POP PUSH1 0x40 DUP9 ADD CALLDATALOAD SWAP5 POP PUSH1 0x60 DUP9 ADD CALLDATALOAD SWAP4 POP PUSH1 0x80 DUP9 ADD CALLDATALOAD PUSH2 0x4CF3 DUP2 PUSH2 0x5535 JUMP JUMPDEST SWAP7 SWAP10 SWAP6 SWAP9 POP SWAP4 SWAP7 SWAP3 SWAP6 SWAP5 PUSH1 0xA0 DUP5 ADD CALLDATALOAD SWAP5 POP PUSH1 0xC0 SWAP1 SWAP4 ADD CALLDATALOAD SWAP3 SWAP2 POP POP JUMP JUMPDEST PUSH1 0x0 DUP1 PUSH1 0x40 DUP4 DUP6 SUB SLT ISZERO PUSH2 0x4D22 JUMPI DUP2 DUP3 REVERT JUMPDEST DUP3 CALLDATALOAD PUSH2 0x4D2D DUP2 PUSH2 0x5513 JUMP JUMPDEST SWAP5 PUSH1 0x20 SWAP4 SWAP1 SWAP4 ADD CALLDATALOAD SWAP4 POP POP POP JUMP JUMPDEST PUSH1 0x0 DUP1 PUSH1 0x0 DUP1 PUSH1 0x0 PUSH1 0xA0 DUP7 DUP9 SUB SLT ISZERO PUSH2 0x4D52 JUMPI DUP3 DUP4 REVERT JUMPDEST DUP6 CALLDATALOAD PUSH2 0x4D5D DUP2 PUSH2 0x5513 JUMP JUMPDEST SWAP5 POP PUSH1 0x20 DUP7 ADD CALLDATALOAD PUSH2 0x4D6D DUP2 PUSH2 0x5513 JUMP JUMPDEST SWAP4 POP PUSH1 0x40 DUP7 ADD CALLDATALOAD PUSH2 0x4D7D DUP2 PUSH2 0x5513 JUMP JUMPDEST SWAP3 POP PUSH1 0x60 DUP7 ADD CALLDATALOAD PUSH2 0x4D8D DUP2 PUSH2 0x5535 JUMP JUMPDEST SWAP2 POP PUSH1 0x80 DUP7 ADD CALLDATALOAD PUSH2 0x4D9D DUP2 PUSH2 0x5528 JUMP JUMPDEST DUP1 SWAP2 POP POP SWAP3 SWAP6 POP SWAP3 SWAP6 SWAP1 SWAP4 POP JUMP JUMPDEST PUSH1 0x0 PUSH1 0x20 DUP3 DUP5 SUB SLT ISZERO PUSH2 0x4DBC JUMPI DUP1 DUP2 REVERT JUMPDEST DUP2 MLOAD PUSH2 0x42CD DUP2 PUSH2 0x5528 JUMP JUMPDEST PUSH1 0x0 PUSH1 0x20 DUP3 DUP5 SUB SLT ISZERO PUSH2 0x4DD8 JUMPI DUP1 DUP2 REVERT JUMPDEST POP CALLDATALOAD SWAP2 SWAP1 POP JUMP JUMPDEST PUSH1 0x0 PUSH1 0x20 DUP3 DUP5 SUB SLT ISZERO PUSH2 0x4DF0 JUMPI DUP1 DUP2 REVERT JUMPDEST POP MLOAD SWAP2 SWAP1 POP JUMP JUMPDEST PUSH1 0x0 PUSH1 0x20 DUP3 DUP5 SUB SLT ISZERO PUSH2 0x4E08 JUMPI DUP1 DUP2 REVERT JUMPDEST DUP2 MLOAD PUSH8 0xFFFFFFFFFFFFFFFF DUP2 GT ISZERO PUSH2 0x4E1E JUMPI DUP2 DUP3 REVERT JUMPDEST DUP3 ADD PUSH1 0x1F DUP2 ADD DUP5 SGT PUSH2 0x4E2E JUMPI DUP2 DUP3 REVERT JUMPDEST DUP1 MLOAD PUSH2 0x4E3C PUSH2 0x4BBD DUP3 PUSH2 0x5272 JUMP JUMPDEST DUP2 DUP2 MSTORE DUP6 PUSH1 0x20 DUP4 DUP6 ADD ADD GT ISZERO PUSH2 0x4E50 JUMPI DUP4 DUP5 REVERT JUMPDEST PUSH2 0x4A8E DUP3 PUSH1 0x20 DUP4 ADD PUSH1 0x20 DUP7 ADD PUSH2 0x5423 JUMP JUMPDEST PUSH1 0x0 DUP1 PUSH1 0x0 PUSH1 0x60 DUP5 DUP7 SUB SLT ISZERO PUSH2 0x4E75 JUMPI DUP1 DUP2 REVERT JUMPDEST DUP4 CALLDATALOAD PUSH8 0xFFFFFFFFFFFFFFFF DUP1 DUP3 GT ISZERO PUSH2 0x4E8C JUMPI DUP3 DUP4 REVERT JUMPDEST PUSH2 0x4E98 DUP8 DUP4 DUP9 ADD PUSH2 0x4B9F JUMP JUMPDEST SWAP5 POP PUSH1 0x20 DUP7 ADD CALLDATALOAD SWAP2 POP DUP1 DUP3 GT ISZERO PUSH2 0x4EAD JUMPI DUP3 DUP4 REVERT JUMPDEST POP PUSH2 0x4EBA DUP7 DUP3 DUP8 ADD PUSH2 0x4B9F JUMP JUMPDEST SWAP3 POP POP PUSH1 0x40 DUP5 ADD CALLDATALOAD PUSH2 0x4ECB DUP2 PUSH2 0x5535 JUMP JUMPDEST DUP1 SWAP2 POP POP SWAP3 POP SWAP3 POP SWAP3 JUMP JUMPDEST PUSH1 0x0 DUP1 PUSH1 0x40 DUP4 DUP6 SUB SLT ISZERO PUSH2 0x4EE8 JUMPI DUP2 DUP3 REVERT JUMPDEST POP POP DUP1 CALLDATALOAD SWAP3 PUSH1 0x20 SWAP1 SWAP2 ADD CALLDATALOAD SWAP2 POP JUMP JUMPDEST PUSH1 0x0 DUP1 PUSH1 0x40 DUP4 DUP6 SUB SLT ISZERO PUSH2 0x4F09 JUMPI DUP2 DUP3 REVERT JUMPDEST POP POP DUP1 MLOAD PUSH1 0x20 SWAP1 SWAP2 ADD MLOAD SWAP1 SWAP3 SWAP1 SWAP2 POP JUMP JUMPDEST PUSH1 0x0 PUSH1 0x20 DUP3 DUP5 SUB SLT ISZERO PUSH2 0x4F2B JUMPI DUP1 DUP2 REVERT JUMPDEST DUP2 MLOAD PUSH2 0x42CD DUP2 PUSH2 0x5535 JUMP JUMPDEST PUSH1 0x2 DUP2 LT PUSH2 0x4F54 JUMPI PUSH4 0x4E487B71 PUSH1 0xE0 SHL PUSH1 0x0 MSTORE PUSH1 0x21 PUSH1 0x4 MSTORE PUSH1 0x24 PUSH1 0x0 REVERT JUMPDEST SWAP1 MSTORE JUMP JUMPDEST PUSH1 0x0 DUP5 MLOAD PUSH2 0x4F6A DUP2 DUP5 PUSH1 0x20 DUP10 ADD PUSH2 0x5423 JUMP JUMPDEST DUP5 MLOAD SWAP1 DUP4 ADD SWAP1 PUSH2 0x4F7E DUP2 DUP4 PUSH1 0x20 DUP10 ADD PUSH2 0x5423 JUMP JUMPDEST DUP5 MLOAD SWAP2 ADD SWAP1 PUSH2 0x4F91 DUP2 DUP4 PUSH1 0x20 DUP9 ADD PUSH2 0x5423 JUMP JUMPDEST ADD SWAP6 SWAP5 POP POP POP POP POP JUMP JUMPDEST PUSH1 0x0 DUP5 MLOAD PUSH2 0x4FAD DUP2 DUP5 PUSH1 0x20 DUP10 ADD PUSH2 0x5423 JUMP JUMPDEST PUSH2 0x2C1 PUSH1 0xF5 SHL SWAP1 DUP4 ADD SWAP1 DUP2 MSTORE DUP5 MLOAD PUSH2 0x4FCC DUP2 PUSH1 0x2 DUP5 ADD PUSH1 0x20 DUP10 ADD PUSH2 0x5423 JUMP JUMPDEST PUSH1 0x1 PUSH1 0xFD SHL PUSH1 0x2 SWAP3 SWAP1 SWAP2 ADD SWAP2 DUP3 ADD MSTORE DUP4 MLOAD PUSH2 0x4FEE DUP2 PUSH1 0x3 DUP5 ADD PUSH1 0x20 DUP9 ADD PUSH2 0x5423 JUMP JUMPDEST ADD PUSH1 0x3 ADD SWAP6 SWAP5 POP POP POP POP POP JUMP JUMPDEST PUSH1 0x0 DUP5 MLOAD PUSH2 0x500D DUP2 DUP5 PUSH1 0x20 DUP10 ADD PUSH2 0x5423 JUMP JUMPDEST PUSH2 0x2C1 PUSH1 0xF5 SHL SWAP1 DUP4 ADD SWAP1 DUP2 MSTORE PUSH8 0x24B73B32B939B29 PUSH1 0xC5 SHL PUSH1 0x2 DUP3 ADD MSTORE DUP5 MLOAD PUSH2 0x503D DUP2 PUSH1 0xA DUP5 ADD PUSH1 0x20 DUP10 ADD PUSH2 0x5423 JUMP JUMPDEST PUSH1 0x1 PUSH1 0xFD SHL PUSH1 0xA SWAP3 SWAP1 SWAP2 ADD SWAP2 DUP3 ADD MSTORE DUP4 MLOAD PUSH2 0x505F DUP2 PUSH1 0xB DUP5 ADD PUSH1 0x20 DUP9 ADD PUSH2 0x5423 JUMP JUMPDEST ADD PUSH1 0xB ADD SWAP6 SWAP5 POP POP POP POP POP JUMP JUMPDEST PUSH1 0x0 DUP5 MLOAD PUSH2 0x507E DUP2 DUP5 PUSH1 0x20 DUP10 ADD PUSH2 0x5423 JUMP JUMPDEST PUSH1 0x49 PUSH1 0xF8 SHL SWAP1 DUP4 ADD SWAP1 DUP2 MSTORE DUP5 MLOAD PUSH2 0x509C DUP2 PUSH1 0x1 DUP5 ADD PUSH1 0x20 DUP10 ADD PUSH2 0x5423 JUMP JUMPDEST DUP5 MLOAD SWAP2 ADD SWAP1 PUSH2 0x50B2 DUP2 PUSH1 0x1 DUP5 ADD PUSH1 0x20 DUP9 ADD PUSH2 0x5423 JUMP JUMPDEST ADD PUSH1 0x1 ADD SWAP6 SWAP5 POP POP POP POP POP JUMP JUMPDEST PUSH1 0x1 PUSH1 0x1 PUSH1 0xA0 SHL SUB DUP7 DUP2 AND DUP3 MSTORE DUP6 DUP2 AND PUSH1 0x20 DUP4 ADD MSTORE PUSH1 0xFF DUP6 AND PUSH1 0x40 DUP4 ADD MSTORE PUSH1 0xA0 DUP3 ADD SWAP1 PUSH2 0x50EF PUSH1 0x60 DUP5 ADD DUP7 PUSH2 0x4F36 JUMP JUMPDEST DUP1 DUP5 AND PUSH1 0x80 DUP5 ADD MSTORE POP SWAP7 SWAP6 POP POP POP POP POP POP JUMP JUMPDEST PUSH1 0x1 PUSH1 0x1 PUSH1 0xA0 SHL SUB DUP5 AND DUP2 MSTORE PUSH1 0xFF DUP4 AND PUSH1 0x20 DUP3 ADD MSTORE PUSH1 0x60 DUP2 ADD PUSH2 0x4193 PUSH1 0x40 DUP4 ADD DUP5 PUSH2 0x4F36 JUMP JUMPDEST PUSH1 0x20 DUP2 ADD PUSH2 0x72F DUP3 DUP5 PUSH2 0x4F36 JUMP JUMPDEST PUSH1 0x0 PUSH1 0x20 DUP3 MSTORE DUP3 MLOAD DUP1 PUSH1 0x20 DUP5 ADD MSTORE PUSH2 0x5155 DUP2 PUSH1 0x40 DUP6 ADD PUSH1 0x20 DUP8 ADD PUSH2 0x5423 JUMP JUMPDEST PUSH1 0x1F ADD PUSH1 0x1F NOT AND SWAP2 SWAP1 SWAP2 ADD PUSH1 0x40 ADD SWAP3 SWAP2 POP POP JUMP JUMPDEST PUSH1 0x20 DUP1 DUP3 MSTORE PUSH1 0x28 SWAP1 DUP3 ADD MSTORE PUSH32 0x434242433A20544F5F535553504943494F55535F414444524553535F4E4F545F PUSH1 0x40 DUP3 ADD MSTORE PUSH8 0x20A62627ABA2A217 PUSH1 0xC1 SHL PUSH1 0x60 DUP3 ADD MSTORE PUSH1 0x80 ADD SWAP1 JUMP JUMPDEST PUSH1 0x20 DUP1 DUP3 MSTORE PUSH1 0x22 SWAP1 DUP3 ADD MSTORE PUSH32 0x434242433A20544F5F5A45524F5F414444524553535F4E4F545F414C4C4F5745 PUSH1 0x40 DUP3 ADD MSTORE PUSH2 0x2217 PUSH1 0xF1 SHL PUSH1 0x60 DUP3 ADD MSTORE PUSH1 0x80 ADD SWAP1 JUMP JUMPDEST PUSH1 0x20 DUP1 DUP3 MSTORE PUSH1 0x2E SWAP1 DUP3 ADD MSTORE PUSH32 0x436F6E747261637420696E7374616E63652068617320616C7265616479206265 PUSH1 0x40 DUP3 ADD MSTORE PUSH14 0x195B881A5B9A5D1A585B1A5E9959 PUSH1 0x92 SHL PUSH1 0x60 DUP3 ADD MSTORE PUSH1 0x80 ADD SWAP1 JUMP JUMPDEST PUSH1 0x40 MLOAD PUSH1 0x1F DUP3 ADD PUSH1 0x1F NOT AND DUP2 ADD PUSH8 0xFFFFFFFFFFFFFFFF DUP2 GT DUP3 DUP3 LT OR ISZERO PUSH2 0x526A JUMPI PUSH2 0x526A PUSH2 0x54FD JUMP JUMPDEST PUSH1 0x40 MSTORE SWAP2 SWAP1 POP JUMP JUMPDEST PUSH1 0x0 PUSH8 0xFFFFFFFFFFFFFFFF DUP3 GT ISZERO PUSH2 0x528C JUMPI PUSH2 0x528C PUSH2 0x54FD JUMP JUMPDEST POP PUSH1 0x1F ADD PUSH1 0x1F NOT AND PUSH1 0x20 ADD SWAP1 JUMP JUMPDEST PUSH1 0x0 DUP3 NOT DUP3 GT ISZERO PUSH2 0x52AD JUMPI PUSH2 0x52AD PUSH2 0x54D1 JUMP JUMPDEST POP ADD SWAP1 JUMP JUMPDEST PUSH1 0x0 DUP3 PUSH2 0x52C1 JUMPI PUSH2 0x52C1 PUSH2 0x54E7 JUMP JUMPDEST POP DIV SWAP1 JUMP JUMPDEST DUP1 DUP3 JUMPDEST PUSH1 0x1 DUP1 DUP7 GT PUSH2 0x52D8 JUMPI POP PUSH2 0x5303 JUMP JUMPDEST DUP2 DUP8 DIV DUP3 GT ISZERO PUSH2 0x52EA JUMPI PUSH2 0x52EA PUSH2 0x54D1 JUMP JUMPDEST DUP1 DUP7 AND ISZERO PUSH2 0x52F7 JUMPI SWAP2 DUP2 MUL SWAP2 JUMPDEST SWAP5 SWAP1 SWAP5 SHR SWAP4 DUP1 MUL PUSH2 0x52C9 JUMP JUMPDEST SWAP5 POP SWAP5 SWAP3 POP POP POP JUMP JUMPDEST PUSH1 0x0 PUSH2 0x42CD PUSH1 0x0 NOT DUP5 DUP5 PUSH2 0x5329 JUMP JUMPDEST PUSH1 0x0 PUSH2 0x42CD PUSH1 0x0 NOT PUSH1 0xFF DUP6 AND DUP5 JUMPDEST PUSH1 0x0 DUP3 PUSH2 0x5338 JUMPI POP PUSH1 0x1 PUSH2 0x42CD JUMP JUMPDEST DUP2 PUSH2 0x5345 JUMPI POP PUSH1 0x0 PUSH2 0x42CD JUMP JUMPDEST DUP2 PUSH1 0x1 DUP2 EQ PUSH2 0x535B JUMPI PUSH1 0x2 DUP2 EQ PUSH2 0x5365 JUMPI PUSH2 0x5392 JUMP JUMPDEST PUSH1 0x1 SWAP2 POP POP PUSH2 0x42CD JUMP JUMPDEST PUSH1 0xFF DUP5 GT ISZERO PUSH2 0x5376 JUMPI PUSH2 0x5376 PUSH2 0x54D1 JUMP JUMPDEST PUSH1 0x1 DUP5 SHL SWAP2 POP DUP5 DUP3 GT ISZERO PUSH2 0x538C JUMPI PUSH2 0x538C PUSH2 0x54D1 JUMP JUMPDEST POP PUSH2 0x42CD JUMP JUMPDEST POP PUSH1 0x20 DUP4 LT PUSH2 0x133 DUP4 LT AND PUSH1 0x4E DUP5 LT PUSH1 0xB DUP5 LT AND OR ISZERO PUSH2 0x53C5 JUMPI POP DUP2 DUP2 EXP DUP4 DUP2 GT ISZERO PUSH2 0x53C0 JUMPI PUSH2 0x53C0 PUSH2 0x54D1 JUMP JUMPDEST PUSH2 0x42CD JUMP JUMPDEST PUSH2 0x53D2 DUP5 DUP5 DUP5 PUSH1 0x1 PUSH2 0x52C6 JUMP JUMPDEST DUP1 DUP7 DIV DUP3 GT ISZERO PUSH2 0x53E4 JUMPI PUSH2 0x53E4 PUSH2 0x54D1 JUMP JUMPDEST MUL SWAP5 SWAP4 POP POP POP POP JUMP JUMPDEST PUSH1 0x0 DUP2 PUSH1 0x0 NOT DIV DUP4 GT DUP3 ISZERO ISZERO AND ISZERO PUSH2 0x5407 JUMPI PUSH2 0x5407 PUSH2 0x54D1 JUMP JUMPDEST POP MUL SWAP1 JUMP JUMPDEST PUSH1 0x0 DUP3 DUP3 LT ISZERO PUSH2 0x541E JUMPI PUSH2 0x541E PUSH2 0x54D1 JUMP JUMPDEST POP SUB SWAP1 JUMP JUMPDEST PUSH1 0x0 JUMPDEST DUP4 DUP2 LT ISZERO PUSH2 0x543E JUMPI DUP2 DUP2 ADD MLOAD DUP4 DUP3 ADD MSTORE PUSH1 0x20 ADD PUSH2 0x5426 JUMP JUMPDEST DUP4 DUP2 GT ISZERO PUSH2 0x544D JUMPI PUSH1 0x0 DUP5 DUP5 ADD MSTORE JUMPDEST POP POP POP POP JUMP JUMPDEST PUSH1 0x1 DUP2 DUP2 SHR SWAP1 DUP3 AND DUP1 PUSH2 0x5467 JUMPI PUSH1 0x7F DUP3 AND SWAP2 POP JUMPDEST PUSH1 0x20 DUP3 LT DUP2 EQ ISZERO PUSH2 0x1E34 JUMPI PUSH4 0x4E487B71 PUSH1 0xE0 SHL PUSH1 0x0 MSTORE PUSH1 0x22 PUSH1 0x4 MSTORE PUSH1 0x24 PUSH1 0x0 REVERT JUMPDEST PUSH1 0x0 PUSH1 0x0 NOT DUP3 EQ ISZERO PUSH2 0x549C JUMPI PUSH2 0x549C PUSH2 0x54D1 JUMP JUMPDEST POP PUSH1 0x1 ADD SWAP1 JUMP JUMPDEST PUSH1 0x0 DUP3 PUSH2 0x54B2 JUMPI PUSH2 0x54B2 PUSH2 0x54E7 JUMP JUMPDEST POP MOD SWAP1 JUMP JUMPDEST PUSH1 0x0 PUSH1 0x1 PUSH1 0xFF SHL DUP3 EQ ISZERO PUSH2 0x54CD JUMPI PUSH2 0x54CD PUSH2 0x54D1 JUMP JUMPDEST SUB SWAP1 JUMP JUMPDEST PUSH4 0x4E487B71 PUSH1 0xE0 SHL PUSH1 0x0 MSTORE PUSH1 0x11 PUSH1 0x4 MSTORE PUSH1 0x24 PUSH1 0x0 REVERT JUMPDEST PUSH4 0x4E487B71 PUSH1 0xE0 SHL PUSH1 0x0 MSTORE PUSH1 0x12 PUSH1 0x4 MSTORE PUSH1 0x24 PUSH1 0x0 REVERT JUMPDEST PUSH4 0x4E487B71 PUSH1 0xE0 SHL PUSH1 0x0 MSTORE PUSH1 0x41 PUSH1 0x4 MSTORE PUSH1 0x24 PUSH1 0x0 REVERT JUMPDEST PUSH1 0x1 PUSH1 0x1 PUSH1 0xA0 SHL SUB DUP2 AND DUP2 EQ PUSH2 0x2496 JUMPI PUSH1 0x0 DUP1 REVERT JUMPDEST PUSH1 0x2 DUP2 LT PUSH2 0x2496 JUMPI PUSH1 0x0 DUP1 REVERT JUMPDEST PUSH1 0xFF DUP2 AND DUP2 EQ PUSH2 0x2496 JUMPI PUSH1 0x0 DUP1 REVERT INVALID 0xDD CALLCODE MSTORE 0xAD SHL 0xE2 0xC8 SWAP12 PUSH10 0xC2B068FC378DAA952BA7 CALL PUSH4 0xC4A11628 CREATE2 GAS 0x4D CREATE2 0x23 0xB3 0xEF DUP13 JUMPDEST 0xE1 0xE5 0xEB 0xEC PUSH30 0x5BD14F71427D1E84F3DD0314C0F7B2291E5B200AC8C7C3B925A264697066 PUSH20 0x58221220E9C90699CD7BE5434C5728CADAF04EDD JUMPDEST 0x4B 0x24 CODECOPY CALLDATASIZE SHL SWAP12 0x5E SHL 0xB0 0xEF 0xC9 EXTCODEHASH DUP12 SWAP4 0xD4 PUSH5 0x736F6C6343 STOP ADDMOD SUB STOP CALLER "
		},
		"gasEstimates": {
			"creation": {
				"codeDepositCost": "4389200",
				"executionCost": "45098",
				"totalCost": "4434298"
			},
			"external": {
				"DOMAIN_SEPARATOR()": "infinite",
				"EIP712_DOMAIN()": "305",
				"EIP712_REVISION()": "infinite",
				"PERMIT_TYPEHASH()": "329",
				"allowance(address,address)": "infinite",
				"approve(address,uint256)": "infinite",
				"balanceOf(address)": "2253",
				"beta()": "1040",
				"burnCbbc(address,uint256)": "infinite",
				"cbbcType()": "1214",
				"currentPrice()": "infinite",
				"decimals()": "1163",
				"decreaseAllowance(address,uint256)": "infinite",
				"factory()": "1104",
				"increaseAllowance(address,uint256)": "infinite",
				"initialize(address)": "44525",
				"initialize(address,address,address,uint8,uint8)": "infinite",
				"initialize(string,string,uint8)": "infinite",
				"isOwner()": "1092",
				"leverage()": "1120",
				"mintCbbc(address,uint256)": "infinite",
				"name()": "infinite",
				"nonces(address)": "1364",
				"owner()": "1077",
				"permit(address,address,uint256,uint256,uint8,bytes32,bytes32)": "infinite",
				"rebase(uint256,int256)": "infinite",
				"rebasePolicy()": "1192",
				"rebasePrice()": "1061",
				"rebaseTimestamp()": "1064",
				"renounceOwnership()": "23847",
				"router()": "1191",
				"scaledBalanceOf(address)": "1298",
				"scaledTotalSupply()": "2043",
				"setBeta(int256)": "22311",
				"setRebasePolicy(address)": "23218",
				"setRouter(address)": "23119",
				"settleToken()": "1104",
				"symbol()": "infinite",
				"totalSupply()": "1127",
				"tradeToken()": "1170",
				"transfer(address,uint256)": "infinite",
				"transferAll(address)": "infinite",
				"transferAllFrom(address,address)": "infinite",
				"transferFrom(address,address,uint256)": "infinite",
				"transferOwnership(address)": "infinite"
			},
			"internal": {
				"_burn(address,uint256)": "infinite",
				"_mint(address,uint256)": "infinite",
				"_safeTransfer(address,address,uint256)": "infinite"
			}
		},
		"methodIdentifiers": {
			"DOMAIN_SEPARATOR()": "3644e515",
			"EIP712_DOMAIN()": "e1b11da4",
			"EIP712_REVISION()": "78160376",
			"PERMIT_TYPEHASH()": "30adf81f",
			"allowance(address,address)": "dd62ed3e",
			"approve(address,uint256)": "095ea7b3",
			"balanceOf(address)": "70a08231",
			"beta()": "9faa3c91",
			"burnCbbc(address,uint256)": "2d54a21b",
			"cbbcType()": "3c974946",
			"currentPrice()": "9d1b464a",
			"decimals()": "313ce567",
			"decreaseAllowance(address,uint256)": "a457c2d7",
			"factory()": "c45a0155",
			"increaseAllowance(address,uint256)": "39509351",
			"initialize(address)": "c4d66de8",
			"initialize(address,address,address,uint8,uint8)": "903cd3e3",
			"initialize(string,string,uint8)": "1624f6c6",
			"isOwner()": "8f32d59b",
			"leverage()": "2c86d98e",
			"mintCbbc(address,uint256)": "3697c562",
			"name()": "06fdde03",
			"nonces(address)": "7ecebe00",
			"owner()": "8da5cb5b",
			"permit(address,address,uint256,uint256,uint8,bytes32,bytes32)": "d505accf",
			"rebase(uint256,int256)": "7a43e23f",
			"rebasePolicy()": "bbb1863a",
			"rebasePrice()": "ddd6f962",
			"rebaseTimestamp()": "08a3809d",
			"renounceOwnership()": "715018a6",
			"router()": "f887ea40",
			"scaledBalanceOf(address)": "1da24f3e",
			"scaledTotalSupply()": "b1bf962d",
			"setBeta(int256)": "d9131384",
			"setRebasePolicy(address)": "df896754",
			"setRouter(address)": "c0d78655",
			"settleToken()": "74e14eb8",
			"symbol()": "95d89b41",
			"totalSupply()": "18160ddd",
			"tradeToken()": "d83678ac",
			"transfer(address,uint256)": "a9059cbb",
			"transferAll(address)": "a3a7e7f3",
			"transferAllFrom(address,address)": "84d4b410",
			"transferFrom(address,address,uint256)": "23b872dd",
			"transferOwnership(address)": "f2fde38b"
		}
	},
	"abi": [
		{
			"anonymous": false,
			"inputs": [
				{
					"indexed": true,
					"internalType": "address",
					"name": "owner",
					"type": "address"
				},
				{
					"indexed": true,
					"internalType": "address",
					"name": "spender",
					"type": "address"
				},
				{
					"indexed": false,
					"internalType": "uint256",
					"name": "value",
					"type": "uint256"
				}
			],
			"name": "Approval",
			"type": "event"
		},
		{
			"anonymous": false,
			"inputs": [
				{
					"indexed": true,
					"internalType": "address",
					"name": "sender",
					"type": "address"
				},
				{
					"indexed": false,
					"internalType": "uint256",
					"name": "liquidity",
					"type": "uint256"
				},
				{
					"indexed": true,
					"internalType": "address",
					"name": "to",
					"type": "address"
				}
			],
			"name": "Burn",
			"type": "event"
		},
		{
			"anonymous": false,
			"inputs": [
				{
					"indexed": true,
					"internalType": "address",
					"name": "settleToken",
					"type": "address"
				},
				{
					"indexed": true,
					"internalType": "address",
					"name": "tradeToken",
					"type": "address"
				},
				{
					"indexed": false,
					"internalType": "address",
					"name": "cbbc",
					"type": "address"
				},
				{
					"indexed": false,
					"internalType": "uint8",
					"name": "leverage",
					"type": "uint8"
				},
				{
					"indexed": false,
					"internalType": "enum ICbbcToken.CbbcType",
					"name": "cbbcType",
					"type": "uint8"
				}
			],
			"name": "CbbcCreated",
			"type": "event"
		},
		{
			"anonymous": false,
			"inputs": [
				{
					"indexed": false,
					"internalType": "int256",
					"name": "beta_",
					"type": "int256"
				}
			],
			"name": "LogBetaUpdated",
			"type": "event"
		},
		{
			"anonymous": false,
			"inputs": [
				{
					"indexed": true,
					"internalType": "uint256",
					"name": "epoch",
					"type": "uint256"
				},
				{
					"indexed": false,
					"internalType": "uint256",
					"name": "",
					"type": "uint256"
				},
				{
					"indexed": false,
					"internalType": "uint256",
					"name": "price",
					"type": "uint256"
				},
				{
					"indexed": false,
					"internalType": "uint256",
					"name": "totalSupply",
					"type": "uint256"
				}
			],
			"name": "LogRebase",
			"type": "event"
		},
		{
			"anonymous": false,
			"inputs": [
				{
					"indexed": false,
					"internalType": "address",
					"name": "rebasePolicy",
					"type": "address"
				}
			],
			"name": "LogRebasePolicyUpdated",
			"type": "event"
		},
		{
			"anonymous": false,
			"inputs": [
				{
					"indexed": false,
					"internalType": "address",
					"name": "router_",
					"type": "address"
				}
			],
			"name": "LogRouterUpdated",
			"type": "event"
		},
		{
			"anonymous": false,
			"inputs": [
				{
					"indexed": true,
					"internalType": "address",
					"name": "sender",
					"type": "address"
				},
				{
					"indexed": false,
					"internalType": "uint256",
					"name": "liquidity",
					"type": "uint256"
				}
			],
			"name": "Mint",
			"type": "event"
		},
		{
			"anonymous": false,
			"inputs": [
				{
					"indexed": true,
					"internalType": "address",
					"name": "previousOwner",
					"type": "address"
				}
			],
			"name": "OwnershipRenounced",
			"type": "event"
		},
		{
			"anonymous": false,
			"inputs": [
				{
					"indexed": true,
					"internalType": "address",
					"name": "previousOwner",
					"type": "address"
				},
				{
					"indexed": true,
					"internalType": "address",
					"name": "newOwner",
					"type": "address"
				}
			],
			"name": "OwnershipTransferred",
			"type": "event"
		},
		{
			"anonymous": false,
			"inputs": [
				{
					"indexed": true,
					"internalType": "address",
					"name": "from",
					"type": "address"
				},
				{
					"indexed": true,
					"internalType": "address",
					"name": "to",
					"type": "address"
				},
				{
					"indexed": false,
					"internalType": "uint256",
					"name": "value",
					"type": "uint256"
				}
			],
			"name": "Transfer",
			"type": "event"
		},
		{
			"inputs": [],
			"name": "DOMAIN_SEPARATOR",
			"outputs": [
				{
					"internalType": "bytes32",
					"name": "",
					"type": "bytes32"
				}
			],
			"stateMutability": "view",
			"type": "function"
		},
		{
			"inputs": [],
			"name": "EIP712_DOMAIN",
			"outputs": [
				{
					"internalType": "bytes32",
					"name": "",
					"type": "bytes32"
				}
			],
			"stateMutability": "view",
			"type": "function"
		},
		{
			"inputs": [],
			"name": "EIP712_REVISION",
			"outputs": [
				{
					"internalType": "string",
					"name": "",
					"type": "string"
				}
			],
			"stateMutability": "view",
			"type": "function"
		},
		{
			"inputs": [],
			"name": "PERMIT_TYPEHASH",
			"outputs": [
				{
					"internalType": "bytes32",
					"name": "",
					"type": "bytes32"
				}
			],
			"stateMutability": "view",
			"type": "function"
		},
		{
			"inputs": [
				{
					"internalType": "address",
					"name": "owner_",
					"type": "address"
				},
				{
					"internalType": "address",
					"name": "spender",
					"type": "address"
				}
			],
			"name": "allowance",
			"outputs": [
				{
					"internalType": "uint256",
					"name": "",
					"type": "uint256"
				}
			],
			"stateMutability": "view",
			"type": "function"
		},
		{
			"inputs": [
				{
					"internalType": "address",
					"name": "spender",
					"type": "address"
				},
				{
					"internalType": "uint256",
					"name": "value",
					"type": "uint256"
				}
			],
			"name": "approve",
			"outputs": [
				{
					"internalType": "bool",
					"name": "",
					"type": "bool"
				}
			],
			"stateMutability": "nonpayable",
			"type": "function"
		},
		{
			"inputs": [
				{
					"internalType": "address",
					"name": "who",
					"type": "address"
				}
			],
			"name": "balanceOf",
			"outputs": [
				{
					"internalType": "uint256",
					"name": "",
					"type": "uint256"
				}
			],
			"stateMutability": "view",
			"type": "function"
		},
		{
			"inputs": [],
			"name": "beta",
			"outputs": [
				{
					"internalType": "int256",
					"name": "",
					"type": "int256"
				}
			],
			"stateMutability": "view",
			"type": "function"
		},
		{
			"inputs": [
				{
					"internalType": "address",
					"name": "to",
					"type": "address"
				},
				{
					"internalType": "uint256",
					"name": "cbbcAmount",
					"type": "uint256"
				}
			],
			"name": "burnCbbc",
			"outputs": [
				{
					"internalType": "uint256",
					"name": "settleAmount",
					"type": "uint256"
				}
			],
			"stateMutability": "nonpayable",
			"type": "function"
		},
		{
			"inputs": [],
			"name": "cbbcType",
			"outputs": [
				{
					"internalType": "enum ICbbcToken.CbbcType",
					"name": "",
					"type": "uint8"
				}
			],
			"stateMutability": "view",
			"type": "function"
		},
		{
			"inputs": [],
			"name": "currentPrice",
			"outputs": [
				{
					"internalType": "uint256",
					"name": "",
					"type": "uint256"
				}
			],
			"stateMutability": "view",
			"type": "function"
		},
		{
			"inputs": [],
			"name": "decimals",
			"outputs": [
				{
					"internalType": "uint8",
					"name": "",
					"type": "uint8"
				}
			],
			"stateMutability": "view",
			"type": "function"
		},
		{
			"inputs": [
				{
					"internalType": "address",
					"name": "spender",
					"type": "address"
				},
				{
					"internalType": "uint256",
					"name": "subtractedValue",
					"type": "uint256"
				}
			],
			"name": "decreaseAllowance",
			"outputs": [
				{
					"internalType": "bool",
					"name": "",
					"type": "bool"
				}
			],
			"stateMutability": "nonpayable",
			"type": "function"
		},
		{
			"inputs": [],
			"name": "factory",
			"outputs": [
				{
					"internalType": "contract ICbbcFactory",
					"name": "",
					"type": "address"
				}
			],
			"stateMutability": "view",
			"type": "function"
		},
		{
			"inputs": [
				{
					"internalType": "address",
					"name": "spender",
					"type": "address"
				},
				{
					"internalType": "uint256",
					"name": "addedValue",
					"type": "uint256"
				}
			],
			"name": "increaseAllowance",
			"outputs": [
				{
					"internalType": "bool",
					"name": "",
					"type": "bool"
				}
			],
			"stateMutability": "nonpayable",
			"type": "function"
		},
		{
			"inputs": [
				{
					"internalType": "string",
					"name": "name_",
					"type": "string"
				},
				{
					"internalType": "string",
					"name": "symbol_",
					"type": "string"
				},
				{
					"internalType": "uint8",
					"name": "decimals_",
					"type": "uint8"
				}
			],
			"name": "initialize",
			"outputs": [],
			"stateMutability": "nonpayable",
			"type": "function"
		},
		{
			"inputs": [
				{
					"internalType": "contract ICbbcFactory",
					"name": "factory_",
					"type": "address"
				},
				{
					"internalType": "address",
					"name": "settleToken_",
					"type": "address"
				},
				{
					"internalType": "address",
					"name": "tradeToken_",
					"type": "address"
				},
				{
					"internalType": "uint8",
					"name": "leverage_",
					"type": "uint8"
				},
				{
					"internalType": "enum ICbbcToken.CbbcType",
					"name": "cbbcType_",
					"type": "uint8"
				}
			],
			"name": "initialize",
			"outputs": [],
			"stateMutability": "nonpayable",
			"type": "function"
		},
		{
			"inputs": [
				{
					"internalType": "address",
					"name": "sender",
					"type": "address"
				}
			],
			"name": "initialize",
			"outputs": [],
			"stateMutability": "nonpayable",
			"type": "function"
		},
		{
			"inputs": [],
			"name": "isOwner",
			"outputs": [
				{
					"internalType": "bool",
					"name": "",
					"type": "bool"
				}
			],
			"stateMutability": "view",
			"type": "function"
		},
		{
			"inputs": [],
			"name": "leverage",
			"outputs": [
				{
					"internalType": "uint8",
					"name": "",
					"type": "uint8"
				}
			],
			"stateMutability": "view",
			"type": "function"
		},
		{
			"inputs": [
				{
					"internalType": "address",
					"name": "to",
					"type": "address"
				},
				{
					"internalType": "uint256",
					"name": "settleAmount",
					"type": "uint256"
				}
			],
			"name": "mintCbbc",
			"outputs": [
				{
					"internalType": "uint256",
					"name": "cbbcAmount",
					"type": "uint256"
				}
			],
			"stateMutability": "nonpayable",
			"type": "function"
		},
		{
			"inputs": [],
			"name": "name",
			"outputs": [
				{
					"internalType": "string",
					"name": "",
					"type": "string"
				}
			],
			"stateMutability": "view",
			"type": "function"
		},
		{
			"inputs": [
				{
					"internalType": "address",
					"name": "who",
					"type": "address"
				}
			],
			"name": "nonces",
			"outputs": [
				{
					"internalType": "uint256",
					"name": "",
					"type": "uint256"
				}
			],
			"stateMutability": "view",
			"type": "function"
		},
		{
			"inputs": [],
			"name": "owner",
			"outputs": [
				{
					"internalType": "address",
					"name": "",
					"type": "address"
				}
			],
			"stateMutability": "view",
			"type": "function"
		},
		{
			"inputs": [
				{
					"internalType": "address",
					"name": "owner",
					"type": "address"
				},
				{
					"internalType": "address",
					"name": "spender",
					"type": "address"
				},
				{
					"internalType": "uint256",
					"name": "value",
					"type": "uint256"
				},
				{
					"internalType": "uint256",
					"name": "deadline",
					"type": "uint256"
				},
				{
					"internalType": "uint8",
					"name": "v",
					"type": "uint8"
				},
				{
					"internalType": "bytes32",
					"name": "r",
					"type": "bytes32"
				},
				{
					"internalType": "bytes32",
					"name": "s",
					"type": "bytes32"
				}
			],
			"name": "permit",
			"outputs": [],
			"stateMutability": "nonpayable",
			"type": "function"
		},
		{
			"inputs": [
				{
					"internalType": "uint256",
					"name": "epoch",
					"type": "uint256"
				},
				{
					"internalType": "int256",
					"name": "supplyDelta",
					"type": "int256"
				}
			],
			"name": "rebase",
			"outputs": [
				{
					"internalType": "uint256",
					"name": "",
					"type": "uint256"
				}
			],
			"stateMutability": "nonpayable",
			"type": "function"
		},
		{
			"inputs": [],
			"name": "rebasePolicy",
			"outputs": [
				{
					"internalType": "contract ICbbcRebasePolicy",
					"name": "",
					"type": "address"
				}
			],
			"stateMutability": "view",
			"type": "function"
		},
		{
			"inputs": [],
			"name": "rebasePrice",
			"outputs": [
				{
					"internalType": "uint256",
					"name": "",
					"type": "uint256"
				}
			],
			"stateMutability": "view",
			"type": "function"
		},
		{
			"inputs": [],
			"name": "rebaseTimestamp",
			"outputs": [
				{
					"internalType": "uint256",
					"name": "",
					"type": "uint256"
				}
			],
			"stateMutability": "view",
			"type": "function"
		},
		{
			"inputs": [],
			"name": "renounceOwnership",
			"outputs": [],
			"stateMutability": "nonpayable",
			"type": "function"
		},
		{
			"inputs": [],
			"name": "router",
			"outputs": [
				{
					"internalType": "address",
					"name": "",
					"type": "address"
				}
			],
			"stateMutability": "view",
			"type": "function"
		},
		{
			"inputs": [
				{
					"internalType": "address",
					"name": "who",
					"type": "address"
				}
			],
			"name": "scaledBalanceOf",
			"outputs": [
				{
					"internalType": "uint256",
					"name": "",
					"type": "uint256"
				}
			],
			"stateMutability": "view",
			"type": "function"
		},
		{
			"inputs": [],
			"name": "scaledTotalSupply",
			"outputs": [
				{
					"internalType": "uint256",
					"name": "",
					"type": "uint256"
				}
			],
			"stateMutability": "view",
			"type": "function"
		},
		{
			"inputs": [
				{
					"internalType": "int256",
					"name": "beta_",
					"type": "int256"
				}
			],
			"name": "setBeta",
			"outputs": [],
			"stateMutability": "nonpayable",
			"type": "function"
		},
		{
			"inputs": [
				{
					"internalType": "address",
					"name": "rebasePolicy_",
					"type": "address"
				}
			],
			"name": "setRebasePolicy",
			"outputs": [],
			"stateMutability": "nonpayable",
			"type": "function"
		},
		{
			"inputs": [
				{
					"internalType": "address",
					"name": "router_",
					"type": "address"
				}
			],
			"name": "setRouter",
			"outputs": [],
			"stateMutability": "nonpayable",
			"type": "function"
		},
		{
			"inputs": [],
			"name": "settleToken",
			"outputs": [
				{
					"internalType": "address",
					"name": "",
					"type": "address"
				}
			],
			"stateMutability": "view",
			"type": "function"
		},
		{
			"inputs": [],
			"name": "symbol",
			"outputs": [
				{
					"internalType": "string",
					"name": "",
					"type": "string"
				}
			],
			"stateMutability": "view",
			"type": "function"
		},
		{
			"inputs": [],
			"name": "totalSupply",
			"outputs": [
				{
					"internalType": "uint256",
					"name": "",
					"type": "uint256"
				}
			],
			"stateMutability": "view",
			"type": "function"
		},
		{
			"inputs": [],
			"name": "tradeToken",
			"outputs": [
				{
					"internalType": "address",
					"name": "",
					"type": "address"
				}
			],
			"stateMutability": "view",
			"type": "function"
		},
		{
			"inputs": [
				{
					"internalType": "address",
					"name": "to",
					"type": "address"
				},
				{
					"internalType": "uint256",
					"name": "value",
					"type": "uint256"
				}
			],
			"name": "transfer",
			"outputs": [
				{
					"internalType": "bool",
					"name": "",
					"type": "bool"
				}
			],
			"stateMutability": "nonpayable",
			"type": "function"
		},
		{
			"inputs": [
				{
					"internalType": "address",
					"name": "to",
					"type": "address"
				}
			],
			"name": "transferAll",
			"outputs": [
				{
					"internalType": "bool",
					"name": "",
					"type": "bool"
				}
			],
			"stateMutability": "nonpayable",
			"type": "function"
		},
		{
			"inputs": [
				{
					"internalType": "address",
					"name": "from",
					"type": "address"
				},
				{
					"internalType": "address",
					"name": "to",
					"type": "address"
				}
			],
			"name": "transferAllFrom",
			"outputs": [
				{
					"internalType": "bool",
					"name": "",
					"type": "bool"
				}
			],
			"stateMutability": "nonpayable",
			"type": "function"
		},
		{
			"inputs": [
				{
					"internalType": "address",
					"name": "from",
					"type": "address"
				},
				{
					"internalType": "address",
					"name": "to",
					"type": "address"
				},
				{
					"internalType": "uint256",
					"name": "value",
					"type": "uint256"
				}
			],
			"name": "transferFrom",
			"outputs": [
				{
					"internalType": "bool",
					"name": "",
					"type": "bool"
				}
			],
			"stateMutability": "nonpayable",
			"type": "function"
		},
		{
			"inputs": [
				{
					"internalType": "address",
					"name": "newOwner",
					"type": "address"
				}
			],
			"name": "transferOwnership",
			"outputs": [],
			"stateMutability": "nonpayable",
			"type": "function"
		}
	]
}