{
	"data": {
		"bytecode": {
			"linkReferences": {},
			"object": "608060405234801561001057600080fd5b50610eec806100206000396000f3fe608060405234801561001057600080fd5b506004361061012c5760003560e01c80638da5cb5b116100ad578063cceaaf8d11610071578063cceaaf8d14610302578063d3ea0f8914610315578063e6c6d75b14610328578063f2fde38b1461033b578063f6c2d17c1461034e5761012c565b80638da5cb5b146102685780638f081d15146102795780638f32d59b146102a2578063bb3722e1146102c6578063c4d66de8146102ef5761012c565b80635a1ce9ee116100f45780635a1ce9ee146101fc57806367a74ddc14610211578063715018a61461022457806376e0d7e51461022c57806384f4b61f146102555761012c565b8063187975671461013157806322fffac4146101775780634094f10b146101a05780634189c95d146101c157806341976e09146101d4575b600080fd5b61015a61013f366004610e27565b606a602052600090815260409020546001600160a01b031681565b6040516001600160a01b0390911681526020015b60405180910390f35b61015a610185366004610e27565b6066602052600090815260409020546001600160a01b031681565b6101b36101ae366004610e27565b610361565b60405190815260200161016e565b6101b36101cf366004610e27565b6104ad565b6101e76101e2366004610e27565b610605565b6040805192835260208301919091520161016e565b61020f61020a366004610e48565b610738565b005b61020f61021f366004610e48565b6107c1565b61020f610842565b61015a61023a366004610e27565b6067602052600090815260409020546001600160a01b031681565b6101b3610263366004610e27565b6108a9565b6033546001600160a01b031661015a565b61015a610287366004610e27565b6068602052600090815260409020546001600160a01b031681565b6102b66033546001600160a01b0316331490565b604051901515815260200161016e565b61015a6102d4366004610e27565b6069602052600090815260409020546001600160a01b031681565b61020f6102fd366004610e27565b6109e7565b61020f610310366004610e48565b610ab2565b6101b3610323366004610e27565b610b33565b61020f610336366004610e48565b610c71565b61020f610349366004610e27565b610cf2565b61020f61035c366004610e48565b610d1b565b6001600160a01b03808216600090815260676020526040812054909116806103d05760405162461bcd60e51b815260206004820152601f60248201527f434242433a204e4f5f4249445f41534b5f5350524541445f4f5241434c452e0060448201526064015b60405180910390fd5b6000816001600160a01b0316633bc5de306040518163ffffffff1660e01b815260040160606040518083038186803b15801561040b57600080fd5b505afa15801561041f573d6000803e3d6000fd5b505050506040513d601f19601f820116820180604052508101906104439190610e7a565b9194509091508190506104a65760405162461bcd60e51b815260206004820152602560248201527f434242433a4e4f5f454c494749424c455f4249445f41534b5f5350524541445f6044820152642220aa209760d91b60648201526084016103c7565b5050919050565b6001600160a01b03808216600090815260686020526040812054909116806105275760405162461bcd60e51b815260206004820152602760248201527f434242433a204e4f5f4441494c595f50524943455f564f4c4154494c4954595f60448201526627a920a1a6229760c91b60648201526084016103c7565b6000816001600160a01b0316633bc5de306040518163ffffffff1660e01b815260040160606040518083038186803b15801561056257600080fd5b505afa158015610576573d6000803e3d6000fd5b505050506040513d601f19601f8201168201806040525081019061059a9190610e7a565b9194509091508190506104a65760405162461bcd60e51b815260206004820152602d60248201527f434242433a4e4f5f454c494749424c455f4441494c595f50524943455f564f4c60448201526c20aa24a624aa2cafa220aa209760991b60648201526084016103c7565b6001600160a01b038082166000908152606a602052604081205490918291168061066a5760405162461bcd60e51b815260206004820152601660248201527521a121219d102727afa82924a1a2afa7a920a1a6229760511b60448201526064016103c7565b6000816001600160a01b0316633bc5de306040518163ffffffff1660e01b815260040160606040518083038186803b1580156106a557600080fd5b505afa1580156106b9573d6000803e3d6000fd5b505050506040513d601f19601f820116820180604052508101906106dd9190610e7a565b91955093509050806107315760405162461bcd60e51b815260206004820152601c60248201527f434242433a4e4f5f454c494749424c455f50524943455f444154412e0000000060448201526064016103c7565b5050915091565b61074c6033546001600160a01b0316331490565b61075557600080fd5b6001600160a01b0382811660008181526068602090815260409182902080546001600160a01b031916948616948517905581519283528201929092527f3844737fef0c1abf6e7e1fcf9fd86a0848e8e784a22d3fc80c699c715544f64891015b60405180910390a15050565b6107d56033546001600160a01b0316331490565b6107de57600080fd5b6001600160a01b038281166000818152606a602090815260409182902080546001600160a01b031916948616948517905581519283528201929092527f23a4a5c78e3d84f844d749b85830c9b1f4c9d4c036c10b4a2343afb46f0f0fe891016107b5565b6108566033546001600160a01b0316331490565b61085f57600080fd5b6033546040516001600160a01b03909116907ff8df31144d9c2f0f6b59d69b8b98abd5459d07f2742c4df920b25aae33c6482090600090a2603380546001600160a01b0319169055565b6001600160a01b03808216600090815260696020526040812054909116806109135760405162461bcd60e51b815260206004820152601d60248201527f434242433a204e4f5f4441494c595f564f4c554d455f4f5241434c452e00000060448201526064016103c7565b6000816001600160a01b0316633bc5de306040518163ffffffff1660e01b815260040160606040518083038186803b15801561094e57600080fd5b505afa158015610962573d6000803e3d6000fd5b505050506040513d601f19601f820116820180604052508101906109869190610e7a565b9194509091508190506104a65760405162461bcd60e51b815260206004820152602360248201527f434242433a4e4f5f454c494749424c455f4441494c595f564f4c554d455f44416044820152622a209760e91b60648201526084016103c7565b600054610100900460ff16806109fc5750303b155b80610a0a575060005460ff16155b610a6d5760405162461bcd60e51b815260206004820152602e60248201527f436f6e747261637420696e7374616e63652068617320616c726561647920626560448201526d195b881a5b9a5d1a585b1a5e995960921b60648201526084016103c7565b60008054603380546001600160a01b0319166001600160a01b03949094169390931790925561ffff1982166101009283900460ff161515909202919091176001179055565b610ac66033546001600160a01b0316331490565b610acf57600080fd5b6001600160a01b0382811660008181526069602090815260409182902080546001600160a01b031916948616948517905581519283528201929092527fb860a83726d85b95ed6f52418feeedc89541f702f940500057d1e236fa1789d791016107b5565b6001600160a01b0380821660009081526066602052604081205490911680610b9d5760405162461bcd60e51b815260206004820152601e60248201527f434242433a204e4f5f494e5445524553545f524154455f4f5241434c452e000060448201526064016103c7565b6000816001600160a01b0316633bc5de306040518163ffffffff1660e01b815260040160606040518083038186803b158015610bd857600080fd5b505afa158015610bec573d6000803e3d6000fd5b505050506040513d601f19601f82011682018060405250810190610c109190610e7a565b9194509091508190506104a65760405162461bcd60e51b8152602060048201526024808201527f434242433a4e4f5f454c494749424c455f494e5445524553545f524154455f4460448201526320aa209760e11b60648201526084016103c7565b610c856033546001600160a01b0316331490565b610c8e57600080fd5b6001600160a01b0382811660008181526067602090815260409182902080546001600160a01b031916948616948517905581519283528201929092527f8c460d1b98ea02e810540350241d1619d38fdab3074636cb30ea44f57d9408d591016107b5565b610d066033546001600160a01b0316331490565b610d0f57600080fd5b610d1881610d9c565b50565b610d2f6033546001600160a01b0316331490565b610d3857600080fd5b6001600160a01b0382811660008181526066602090815260409182902080546001600160a01b031916948616948517905581519283528201929092527f8c460d1b98ea02e810540350241d1619d38fdab3074636cb30ea44f57d9408d591016107b5565b6001600160a01b038116610daf57600080fd5b6033546040516001600160a01b038084169216907f8be0079c531659141344cd1fd0a4f28419497f9722a3daafe3b4186f6b6457e090600090a3603380546001600160a01b0319166001600160a01b0392909216919091179055565b80356001600160a01b0381168114610e2257600080fd5b919050565b600060208284031215610e38578081fd5b610e4182610e0b565b9392505050565b60008060408385031215610e5a578081fd5b610e6383610e0b565b9150610e7160208401610e0b565b90509250929050565b600080600060608486031215610e8e578081fd5b835192506020840151915060408401518015158114610eab578182fd5b80915050925092509256fea2646970667358221220df03d7bc5dbe635eaf49acb1675aa176d6d313d952deb699241a2c33376ea56764736f6c63430008030033",
			"opcodes": "PUSH1 0x80 PUSH1 0x40 MSTORE CALLVALUE DUP1 ISZERO PUSH2 0x10 JUMPI PUSH1 0x0 DUP1 REVERT JUMPDEST POP PUSH2 0xEEC DUP1 PUSH2 0x20 PUSH1 0x0 CODECOPY PUSH1 0x0 RETURN INVALID PUSH1 0x80 PUSH1 0x40 MSTORE CALLVALUE DUP1 ISZERO PUSH2 0x10 JUMPI PUSH1 0x0 DUP1 REVERT JUMPDEST POP PUSH1 0x4 CALLDATASIZE LT PUSH2 0x12C JUMPI PUSH1 0x0 CALLDATALOAD PUSH1 0xE0 SHR DUP1 PUSH4 0x8DA5CB5B GT PUSH2 0xAD JUMPI DUP1 PUSH4 0xCCEAAF8D GT PUSH2 0x71 JUMPI DUP1 PUSH4 0xCCEAAF8D EQ PUSH2 0x302 JUMPI DUP1 PUSH4 0xD3EA0F89 EQ PUSH2 0x315 JUMPI DUP1 PUSH4 0xE6C6D75B EQ PUSH2 0x328 JUMPI DUP1 PUSH4 0xF2FDE38B EQ PUSH2 0x33B JUMPI DUP1 PUSH4 0xF6C2D17C EQ PUSH2 0x34E JUMPI PUSH2 0x12C JUMP JUMPDEST DUP1 PUSH4 0x8DA5CB5B EQ PUSH2 0x268 JUMPI DUP1 PUSH4 0x8F081D15 EQ PUSH2 0x279 JUMPI DUP1 PUSH4 0x8F32D59B EQ PUSH2 0x2A2 JUMPI DUP1 PUSH4 0xBB3722E1 EQ PUSH2 0x2C6 JUMPI DUP1 PUSH4 0xC4D66DE8 EQ PUSH2 0x2EF JUMPI PUSH2 0x12C JUMP JUMPDEST DUP1 PUSH4 0x5A1CE9EE GT PUSH2 0xF4 JUMPI DUP1 PUSH4 0x5A1CE9EE EQ PUSH2 0x1FC JUMPI DUP1 PUSH4 0x67A74DDC EQ PUSH2 0x211 JUMPI DUP1 PUSH4 0x715018A6 EQ PUSH2 0x224 JUMPI DUP1 PUSH4 0x76E0D7E5 EQ PUSH2 0x22C JUMPI DUP1 PUSH4 0x84F4B61F EQ PUSH2 0x255 JUMPI PUSH2 0x12C JUMP JUMPDEST DUP1 PUSH4 0x18797567 EQ PUSH2 0x131 JUMPI DUP1 PUSH4 0x22FFFAC4 EQ PUSH2 0x177 JUMPI DUP1 PUSH4 0x4094F10B EQ PUSH2 0x1A0 JUMPI DUP1 PUSH4 0x4189C95D EQ PUSH2 0x1C1 JUMPI DUP1 PUSH4 0x41976E09 EQ PUSH2 0x1D4 JUMPI JUMPDEST PUSH1 0x0 DUP1 REVERT JUMPDEST PUSH2 0x15A PUSH2 0x13F CALLDATASIZE PUSH1 0x4 PUSH2 0xE27 JUMP JUMPDEST PUSH1 0x6A PUSH1 0x20 MSTORE PUSH1 0x0 SWAP1 DUP2 MSTORE PUSH1 0x40 SWAP1 KECCAK256 SLOAD PUSH1 0x1 PUSH1 0x1 PUSH1 0xA0 SHL SUB AND DUP2 JUMP JUMPDEST PUSH1 0x40 MLOAD PUSH1 0x1 PUSH1 0x1 PUSH1 0xA0 SHL SUB SWAP1 SWAP2 AND DUP2 MSTORE PUSH1 0x20 ADD JUMPDEST PUSH1 0x40 MLOAD DUP1 SWAP2 SUB SWAP1 RETURN JUMPDEST PUSH2 0x15A PUSH2 0x185 CALLDATASIZE PUSH1 0x4 PUSH2 0xE27 JUMP JUMPDEST PUSH1 0x66 PUSH1 0x20 MSTORE PUSH1 0x0 SWAP1 DUP2 MSTORE PUSH1 0x40 SWAP1 KECCAK256 SLOAD PUSH1 0x1 PUSH1 0x1 PUSH1 0xA0 SHL SUB AND DUP2 JUMP JUMPDEST PUSH2 0x1B3 PUSH2 0x1AE CALLDATASIZE PUSH1 0x4 PUSH2 0xE27 JUMP JUMPDEST PUSH2 0x361 JUMP JUMPDEST PUSH1 0x40 MLOAD SWAP1 DUP2 MSTORE PUSH1 0x20 ADD PUSH2 0x16E JUMP JUMPDEST PUSH2 0x1B3 PUSH2 0x1CF CALLDATASIZE PUSH1 0x4 PUSH2 0xE27 JUMP JUMPDEST PUSH2 0x4AD JUMP JUMPDEST PUSH2 0x1E7 PUSH2 0x1E2 CALLDATASIZE PUSH1 0x4 PUSH2 0xE27 JUMP JUMPDEST PUSH2 0x605 JUMP JUMPDEST PUSH1 0x40 DUP1 MLOAD SWAP3 DUP4 MSTORE PUSH1 0x20 DUP4 ADD SWAP2 SWAP1 SWAP2 MSTORE ADD PUSH2 0x16E JUMP JUMPDEST PUSH2 0x20F PUSH2 0x20A CALLDATASIZE PUSH1 0x4 PUSH2 0xE48 JUMP JUMPDEST PUSH2 0x738 JUMP JUMPDEST STOP JUMPDEST PUSH2 0x20F PUSH2 0x21F CALLDATASIZE PUSH1 0x4 PUSH2 0xE48 JUMP JUMPDEST PUSH2 0x7C1 JUMP JUMPDEST PUSH2 0x20F PUSH2 0x842 JUMP JUMPDEST PUSH2 0x15A PUSH2 0x23A CALLDATASIZE PUSH1 0x4 PUSH2 0xE27 JUMP JUMPDEST PUSH1 0x67 PUSH1 0x20 MSTORE PUSH1 0x0 SWAP1 DUP2 MSTORE PUSH1 0x40 SWAP1 KECCAK256 SLOAD PUSH1 0x1 PUSH1 0x1 PUSH1 0xA0 SHL SUB AND DUP2 JUMP JUMPDEST PUSH2 0x1B3 PUSH2 0x263 CALLDATASIZE PUSH1 0x4 PUSH2 0xE27 JUMP JUMPDEST PUSH2 0x8A9 JUMP JUMPDEST PUSH1 0x33 SLOAD PUSH1 0x1 PUSH1 0x1 PUSH1 0xA0 SHL SUB AND PUSH2 0x15A JUMP JUMPDEST PUSH2 0x15A PUSH2 0x287 CALLDATASIZE PUSH1 0x4 PUSH2 0xE27 JUMP JUMPDEST PUSH1 0x68 PUSH1 0x20 MSTORE PUSH1 0x0 SWAP1 DUP2 MSTORE PUSH1 0x40 SWAP1 KECCAK256 SLOAD PUSH1 0x1 PUSH1 0x1 PUSH1 0xA0 SHL SUB AND DUP2 JUMP JUMPDEST PUSH2 0x2B6 PUSH1 0x33 SLOAD PUSH1 0x1 PUSH1 0x1 PUSH1 0xA0 SHL SUB AND CALLER EQ SWAP1 JUMP JUMPDEST PUSH1 0x40 MLOAD SWAP1 ISZERO ISZERO DUP2 MSTORE PUSH1 0x20 ADD PUSH2 0x16E JUMP JUMPDEST PUSH2 0x15A PUSH2 0x2D4 CALLDATASIZE PUSH1 0x4 PUSH2 0xE27 JUMP JUMPDEST PUSH1 0x69 PUSH1 0x20 MSTORE PUSH1 0x0 SWAP1 DUP2 MSTORE PUSH1 0x40 SWAP1 KECCAK256 SLOAD PUSH1 0x1 PUSH1 0x1 PUSH1 0xA0 SHL SUB AND DUP2 JUMP JUMPDEST PUSH2 0x20F PUSH2 0x2FD CALLDATASIZE PUSH1 0x4 PUSH2 0xE27 JUMP JUMPDEST PUSH2 0x9E7 JUMP JUMPDEST PUSH2 0x20F PUSH2 0x310 CALLDATASIZE PUSH1 0x4 PUSH2 0xE48 JUMP JUMPDEST PUSH2 0xAB2 JUMP JUMPDEST PUSH2 0x1B3 PUSH2 0x323 CALLDATASIZE PUSH1 0x4 PUSH2 0xE27 JUMP JUMPDEST PUSH2 0xB33 JUMP JUMPDEST PUSH2 0x20F PUSH2 0x336 CALLDATASIZE PUSH1 0x4 PUSH2 0xE48 JUMP JUMPDEST PUSH2 0xC71 JUMP JUMPDEST PUSH2 0x20F PUSH2 0x349 CALLDATASIZE PUSH1 0x4 PUSH2 0xE27 JUMP JUMPDEST PUSH2 0xCF2 JUMP JUMPDEST PUSH2 0x20F PUSH2 0x35C CALLDATASIZE PUSH1 0x4 PUSH2 0xE48 JUMP JUMPDEST PUSH2 0xD1B JUMP JUMPDEST PUSH1 0x1 PUSH1 0x1 PUSH1 0xA0 SHL SUB DUP1 DUP3 AND PUSH1 0x0 SWAP1 DUP2 MSTORE PUSH1 0x67 PUSH1 0x20 MSTORE PUSH1 0x40 DUP2 KECCAK256 SLOAD SWAP1 SWAP2 AND DUP1 PUSH2 0x3D0 JUMPI PUSH1 0x40 MLOAD PUSH3 0x461BCD PUSH1 0xE5 SHL DUP2 MSTORE PUSH1 0x20 PUSH1 0x4 DUP3 ADD MSTORE PUSH1 0x1F PUSH1 0x24 DUP3 ADD MSTORE PUSH32 0x434242433A204E4F5F4249445F41534B5F5350524541445F4F5241434C452E00 PUSH1 0x44 DUP3 ADD MSTORE PUSH1 0x64 ADD JUMPDEST PUSH1 0x40 MLOAD DUP1 SWAP2 SUB SWAP1 REVERT JUMPDEST PUSH1 0x0 DUP2 PUSH1 0x1 PUSH1 0x1 PUSH1 0xA0 SHL SUB AND PUSH4 0x3BC5DE30 PUSH1 0x40 MLOAD DUP2 PUSH4 0xFFFFFFFF AND PUSH1 0xE0 SHL DUP2 MSTORE PUSH1 0x4 ADD PUSH1 0x60 PUSH1 0x40 MLOAD DUP1 DUP4 SUB DUP2 DUP7 DUP1 EXTCODESIZE ISZERO DUP1 ISZERO PUSH2 0x40B JUMPI PUSH1 0x0 DUP1 REVERT JUMPDEST POP GAS STATICCALL ISZERO DUP1 ISZERO PUSH2 0x41F JUMPI RETURNDATASIZE PUSH1 0x0 DUP1 RETURNDATACOPY RETURNDATASIZE PUSH1 0x0 REVERT JUMPDEST POP POP POP POP PUSH1 0x40 MLOAD RETURNDATASIZE PUSH1 0x1F NOT PUSH1 0x1F DUP3 ADD AND DUP3 ADD DUP1 PUSH1 0x40 MSTORE POP DUP2 ADD SWAP1 PUSH2 0x443 SWAP2 SWAP1 PUSH2 0xE7A JUMP JUMPDEST SWAP2 SWAP5 POP SWAP1 SWAP2 POP DUP2 SWAP1 POP PUSH2 0x4A6 JUMPI PUSH1 0x40 MLOAD PUSH3 0x461BCD PUSH1 0xE5 SHL DUP2 MSTORE PUSH1 0x20 PUSH1 0x4 DUP3 ADD MSTORE PUSH1 0x25 PUSH1 0x24 DUP3 ADD MSTORE PUSH32 0x434242433A4E4F5F454C494749424C455F4249445F41534B5F5350524541445F PUSH1 0x44 DUP3 ADD MSTORE PUSH5 0x2220AA2097 PUSH1 0xD9 SHL PUSH1 0x64 DUP3 ADD MSTORE PUSH1 0x84 ADD PUSH2 0x3C7 JUMP JUMPDEST POP POP SWAP2 SWAP1 POP JUMP JUMPDEST PUSH1 0x1 PUSH1 0x1 PUSH1 0xA0 SHL SUB DUP1 DUP3 AND PUSH1 0x0 SWAP1 DUP2 MSTORE PUSH1 0x68 PUSH1 0x20 MSTORE PUSH1 0x40 DUP2 KECCAK256 SLOAD SWAP1 SWAP2 AND DUP1 PUSH2 0x527 JUMPI PUSH1 0x40 MLOAD PUSH3 0x461BCD PUSH1 0xE5 SHL DUP2 MSTORE PUSH1 0x20 PUSH1 0x4 DUP3 ADD MSTORE PUSH1 0x27 PUSH1 0x24 DUP3 ADD MSTORE PUSH32 0x434242433A204E4F5F4441494C595F50524943455F564F4C4154494C4954595F PUSH1 0x44 DUP3 ADD MSTORE PUSH7 0x27A920A1A62297 PUSH1 0xC9 SHL PUSH1 0x64 DUP3 ADD MSTORE PUSH1 0x84 ADD PUSH2 0x3C7 JUMP JUMPDEST PUSH1 0x0 DUP2 PUSH1 0x1 PUSH1 0x1 PUSH1 0xA0 SHL SUB AND PUSH4 0x3BC5DE30 PUSH1 0x40 MLOAD DUP2 PUSH4 0xFFFFFFFF AND PUSH1 0xE0 SHL DUP2 MSTORE PUSH1 0x4 ADD PUSH1 0x60 PUSH1 0x40 MLOAD DUP1 DUP4 SUB DUP2 DUP7 DUP1 EXTCODESIZE ISZERO DUP1 ISZERO PUSH2 0x562 JUMPI PUSH1 0x0 DUP1 REVERT JUMPDEST POP GAS STATICCALL ISZERO DUP1 ISZERO PUSH2 0x576 JUMPI RETURNDATASIZE PUSH1 0x0 DUP1 RETURNDATACOPY RETURNDATASIZE PUSH1 0x0 REVERT JUMPDEST POP POP POP POP PUSH1 0x40 MLOAD RETURNDATASIZE PUSH1 0x1F NOT PUSH1 0x1F DUP3 ADD AND DUP3 ADD DUP1 PUSH1 0x40 MSTORE POP DUP2 ADD SWAP1 PUSH2 0x59A SWAP2 SWAP1 PUSH2 0xE7A JUMP JUMPDEST SWAP2 SWAP5 POP SWAP1 SWAP2 POP DUP2 SWAP1 POP PUSH2 0x4A6 JUMPI PUSH1 0x40 MLOAD PUSH3 0x461BCD PUSH1 0xE5 SHL DUP2 MSTORE PUSH1 0x20 PUSH1 0x4 DUP3 ADD MSTORE PUSH1 0x2D PUSH1 0x24 DUP3 ADD MSTORE PUSH32 0x434242433A4E4F5F454C494749424C455F4441494C595F50524943455F564F4C PUSH1 0x44 DUP3 ADD MSTORE PUSH13 0x20AA24A624AA2CAFA220AA2097 PUSH1 0x99 SHL PUSH1 0x64 DUP3 ADD MSTORE PUSH1 0x84 ADD PUSH2 0x3C7 JUMP JUMPDEST PUSH1 0x1 PUSH1 0x1 PUSH1 0xA0 SHL SUB DUP1 DUP3 AND PUSH1 0x0 SWAP1 DUP2 MSTORE PUSH1 0x6A PUSH1 0x20 MSTORE PUSH1 0x40 DUP2 KECCAK256 SLOAD SWAP1 SWAP2 DUP3 SWAP2 AND DUP1 PUSH2 0x66A JUMPI PUSH1 0x40 MLOAD PUSH3 0x461BCD PUSH1 0xE5 SHL DUP2 MSTORE PUSH1 0x20 PUSH1 0x4 DUP3 ADD MSTORE PUSH1 0x16 PUSH1 0x24 DUP3 ADD MSTORE PUSH22 0x21A121219D102727AFA82924A1A2AFA7A920A1A62297 PUSH1 0x51 SHL PUSH1 0x44 DUP3 ADD MSTORE PUSH1 0x64 ADD PUSH2 0x3C7 JUMP JUMPDEST PUSH1 0x0 DUP2 PUSH1 0x1 PUSH1 0x1 PUSH1 0xA0 SHL SUB AND PUSH4 0x3BC5DE30 PUSH1 0x40 MLOAD DUP2 PUSH4 0xFFFFFFFF AND PUSH1 0xE0 SHL DUP2 MSTORE PUSH1 0x4 ADD PUSH1 0x60 PUSH1 0x40 MLOAD DUP1 DUP4 SUB DUP2 DUP7 DUP1 EXTCODESIZE ISZERO DUP1 ISZERO PUSH2 0x6A5 JUMPI PUSH1 0x0 DUP1 REVERT JUMPDEST POP GAS STATICCALL ISZERO DUP1 ISZERO PUSH2 0x6B9 JUMPI RETURNDATASIZE PUSH1 0x0 DUP1 RETURNDATACOPY RETURNDATASIZE PUSH1 0x0 REVERT JUMPDEST POP POP POP POP PUSH1 0x40 MLOAD RETURNDATASIZE PUSH1 0x1F NOT PUSH1 0x1F DUP3 ADD AND DUP3 ADD DUP1 PUSH1 0x40 MSTORE POP DUP2 ADD SWAP1 PUSH2 0x6DD SWAP2 SWAP1 PUSH2 0xE7A JUMP JUMPDEST SWAP2 SWAP6 POP SWAP4 POP SWAP1 POP DUP1 PUSH2 0x731 JUMPI PUSH1 0x40 MLOAD PUSH3 0x461BCD PUSH1 0xE5 SHL DUP2 MSTORE PUSH1 0x20 PUSH1 0x4 DUP3 ADD MSTORE PUSH1 0x1C PUSH1 0x24 DUP3 ADD MSTORE PUSH32 0x434242433A4E4F5F454C494749424C455F50524943455F444154412E00000000 PUSH1 0x44 DUP3 ADD MSTORE PUSH1 0x64 ADD PUSH2 0x3C7 JUMP JUMPDEST POP POP SWAP2 POP SWAP2 JUMP JUMPDEST PUSH2 0x74C PUSH1 0x33 SLOAD PUSH1 0x1 PUSH1 0x1 PUSH1 0xA0 SHL SUB AND CALLER EQ SWAP1 JUMP JUMPDEST PUSH2 0x755 JUMPI PUSH1 0x0 DUP1 REVERT JUMPDEST PUSH1 0x1 PUSH1 0x1 PUSH1 0xA0 SHL SUB DUP3 DUP2 AND PUSH1 0x0 DUP2 DUP2 MSTORE PUSH1 0x68 PUSH1 0x20 SWAP1 DUP2 MSTORE PUSH1 0x40 SWAP2 DUP3 SWAP1 KECCAK256 DUP1 SLOAD PUSH1 0x1 PUSH1 0x1 PUSH1 0xA0 SHL SUB NOT AND SWAP5 DUP7 AND SWAP5 DUP6 OR SWAP1 SSTORE DUP2 MLOAD SWAP3 DUP4 MSTORE DUP3 ADD SWAP3 SWAP1 SWAP3 MSTORE PUSH32 0x3844737FEF0C1ABF6E7E1FCF9FD86A0848E8E784A22D3FC80C699C715544F648 SWAP2 ADD JUMPDEST PUSH1 0x40 MLOAD DUP1 SWAP2 SUB SWAP1 LOG1 POP POP JUMP JUMPDEST PUSH2 0x7D5 PUSH1 0x33 SLOAD PUSH1 0x1 PUSH1 0x1 PUSH1 0xA0 SHL SUB AND CALLER EQ SWAP1 JUMP JUMPDEST PUSH2 0x7DE JUMPI PUSH1 0x0 DUP1 REVERT JUMPDEST PUSH1 0x1 PUSH1 0x1 PUSH1 0xA0 SHL SUB DUP3 DUP2 AND PUSH1 0x0 DUP2 DUP2 MSTORE PUSH1 0x6A PUSH1 0x20 SWAP1 DUP2 MSTORE PUSH1 0x40 SWAP2 DUP3 SWAP1 KECCAK256 DUP1 SLOAD PUSH1 0x1 PUSH1 0x1 PUSH1 0xA0 SHL SUB NOT AND SWAP5 DUP7 AND SWAP5 DUP6 OR SWAP1 SSTORE DUP2 MLOAD SWAP3 DUP4 MSTORE DUP3 ADD SWAP3 SWAP1 SWAP3 MSTORE PUSH32 0x23A4A5C78E3D84F844D749B85830C9B1F4C9D4C036C10B4A2343AFB46F0F0FE8 SWAP2 ADD PUSH2 0x7B5 JUMP JUMPDEST PUSH2 0x856 PUSH1 0x33 SLOAD PUSH1 0x1 PUSH1 0x1 PUSH1 0xA0 SHL SUB AND CALLER EQ SWAP1 JUMP JUMPDEST PUSH2 0x85F JUMPI PUSH1 0x0 DUP1 REVERT JUMPDEST PUSH1 0x33 SLOAD PUSH1 0x40 MLOAD PUSH1 0x1 PUSH1 0x1 PUSH1 0xA0 SHL SUB SWAP1 SWAP2 AND SWAP1 PUSH32 0xF8DF31144D9C2F0F6B59D69B8B98ABD5459D07F2742C4DF920B25AAE33C64820 SWAP1 PUSH1 0x0 SWAP1 LOG2 PUSH1 0x33 DUP1 SLOAD PUSH1 0x1 PUSH1 0x1 PUSH1 0xA0 SHL SUB NOT AND SWAP1 SSTORE JUMP JUMPDEST PUSH1 0x1 PUSH1 0x1 PUSH1 0xA0 SHL SUB DUP1 DUP3 AND PUSH1 0x0 SWAP1 DUP2 MSTORE PUSH1 0x69 PUSH1 0x20 MSTORE PUSH1 0x40 DUP2 KECCAK256 SLOAD SWAP1 SWAP2 AND DUP1 PUSH2 0x913 JUMPI PUSH1 0x40 MLOAD PUSH3 0x461BCD PUSH1 0xE5 SHL DUP2 MSTORE PUSH1 0x20 PUSH1 0x4 DUP3 ADD MSTORE PUSH1 0x1D PUSH1 0x24 DUP3 ADD MSTORE PUSH32 0x434242433A204E4F5F4441494C595F564F4C554D455F4F5241434C452E000000 PUSH1 0x44 DUP3 ADD MSTORE PUSH1 0x64 ADD PUSH2 0x3C7 JUMP JUMPDEST PUSH1 0x0 DUP2 PUSH1 0x1 PUSH1 0x1 PUSH1 0xA0 SHL SUB AND PUSH4 0x3BC5DE30 PUSH1 0x40 MLOAD DUP2 PUSH4 0xFFFFFFFF AND PUSH1 0xE0 SHL DUP2 MSTORE PUSH1 0x4 ADD PUSH1 0x60 PUSH1 0x40 MLOAD DUP1 DUP4 SUB DUP2 DUP7 DUP1 EXTCODESIZE ISZERO DUP1 ISZERO PUSH2 0x94E JUMPI PUSH1 0x0 DUP1 REVERT JUMPDEST POP GAS STATICCALL ISZERO DUP1 ISZERO PUSH2 0x962 JUMPI RETURNDATASIZE PUSH1 0x0 DUP1 RETURNDATACOPY RETURNDATASIZE PUSH1 0x0 REVERT JUMPDEST POP POP POP POP PUSH1 0x40 MLOAD RETURNDATASIZE PUSH1 0x1F NOT PUSH1 0x1F DUP3 ADD AND DUP3 ADD DUP1 PUSH1 0x40 MSTORE POP DUP2 ADD SWAP1 PUSH2 0x986 SWAP2 SWAP1 PUSH2 0xE7A JUMP JUMPDEST SWAP2 SWAP5 POP SWAP1 SWAP2 POP DUP2 SWAP1 POP PUSH2 0x4A6 JUMPI PUSH1 0x40 MLOAD PUSH3 0x461BCD PUSH1 0xE5 SHL DUP2 MSTORE PUSH1 0x20 PUSH1 0x4 DUP3 ADD MSTORE PUSH1 0x23 PUSH1 0x24 DUP3 ADD MSTORE PUSH32 0x434242433A4E4F5F454C494749424C455F4441494C595F564F4C554D455F4441 PUSH1 0x44 DUP3 ADD MSTORE PUSH3 0x2A2097 PUSH1 0xE9 SHL PUSH1 0x64 DUP3 ADD MSTORE PUSH1 0x84 ADD PUSH2 0x3C7 JUMP JUMPDEST PUSH1 0x0 SLOAD PUSH2 0x100 SWAP1 DIV PUSH1 0xFF AND DUP1 PUSH2 0x9FC JUMPI POP ADDRESS EXTCODESIZE ISZERO JUMPDEST DUP1 PUSH2 0xA0A JUMPI POP PUSH1 0x0 SLOAD PUSH1 0xFF AND ISZERO JUMPDEST PUSH2 0xA6D JUMPI PUSH1 0x40 MLOAD PUSH3 0x461BCD PUSH1 0xE5 SHL DUP2 MSTORE PUSH1 0x20 PUSH1 0x4 DUP3 ADD MSTORE PUSH1 0x2E PUSH1 0x24 DUP3 ADD MSTORE PUSH32 0x436F6E747261637420696E7374616E63652068617320616C7265616479206265 PUSH1 0x44 DUP3 ADD MSTORE PUSH14 0x195B881A5B9A5D1A585B1A5E9959 PUSH1 0x92 SHL PUSH1 0x64 DUP3 ADD MSTORE PUSH1 0x84 ADD PUSH2 0x3C7 JUMP JUMPDEST PUSH1 0x0 DUP1 SLOAD PUSH1 0x33 DUP1 SLOAD PUSH1 0x1 PUSH1 0x1 PUSH1 0xA0 SHL SUB NOT AND PUSH1 0x1 PUSH1 0x1 PUSH1 0xA0 SHL SUB SWAP5 SWAP1 SWAP5 AND SWAP4 SWAP1 SWAP4 OR SWAP1 SWAP3 SSTORE PUSH2 0xFFFF NOT DUP3 AND PUSH2 0x100 SWAP3 DUP4 SWAP1 DIV PUSH1 0xFF AND ISZERO ISZERO SWAP1 SWAP3 MUL SWAP2 SWAP1 SWAP2 OR PUSH1 0x1 OR SWAP1 SSTORE JUMP JUMPDEST PUSH2 0xAC6 PUSH1 0x33 SLOAD PUSH1 0x1 PUSH1 0x1 PUSH1 0xA0 SHL SUB AND CALLER EQ SWAP1 JUMP JUMPDEST PUSH2 0xACF JUMPI PUSH1 0x0 DUP1 REVERT JUMPDEST PUSH1 0x1 PUSH1 0x1 PUSH1 0xA0 SHL SUB DUP3 DUP2 AND PUSH1 0x0 DUP2 DUP2 MSTORE PUSH1 0x69 PUSH1 0x20 SWAP1 DUP2 MSTORE PUSH1 0x40 SWAP2 DUP3 SWAP1 KECCAK256 DUP1 SLOAD PUSH1 0x1 PUSH1 0x1 PUSH1 0xA0 SHL SUB NOT AND SWAP5 DUP7 AND SWAP5 DUP6 OR SWAP1 SSTORE DUP2 MLOAD SWAP3 DUP4 MSTORE DUP3 ADD SWAP3 SWAP1 SWAP3 MSTORE PUSH32 0xB860A83726D85B95ED6F52418FEEEDC89541F702F940500057D1E236FA1789D7 SWAP2 ADD PUSH2 0x7B5 JUMP JUMPDEST PUSH1 0x1 PUSH1 0x1 PUSH1 0xA0 SHL SUB DUP1 DUP3 AND PUSH1 0x0 SWAP1 DUP2 MSTORE PUSH1 0x66 PUSH1 0x20 MSTORE PUSH1 0x40 DUP2 KECCAK256 SLOAD SWAP1 SWAP2 AND DUP1 PUSH2 0xB9D JUMPI PUSH1 0x40 MLOAD PUSH3 0x461BCD PUSH1 0xE5 SHL DUP2 MSTORE PUSH1 0x20 PUSH1 0x4 DUP3 ADD MSTORE PUSH1 0x1E PUSH1 0x24 DUP3 ADD MSTORE PUSH32 0x434242433A204E4F5F494E5445524553545F524154455F4F5241434C452E0000 PUSH1 0x44 DUP3 ADD MSTORE PUSH1 0x64 ADD PUSH2 0x3C7 JUMP JUMPDEST PUSH1 0x0 DUP2 PUSH1 0x1 PUSH1 0x1 PUSH1 0xA0 SHL SUB AND PUSH4 0x3BC5DE30 PUSH1 0x40 MLOAD DUP2 PUSH4 0xFFFFFFFF AND PUSH1 0xE0 SHL DUP2 MSTORE PUSH1 0x4 ADD PUSH1 0x60 PUSH1 0x40 MLOAD DUP1 DUP4 SUB DUP2 DUP7 DUP1 EXTCODESIZE ISZERO DUP1 ISZERO PUSH2 0xBD8 JUMPI PUSH1 0x0 DUP1 REVERT JUMPDEST POP GAS STATICCALL ISZERO DUP1 ISZERO PUSH2 0xBEC JUMPI RETURNDATASIZE PUSH1 0x0 DUP1 RETURNDATACOPY RETURNDATASIZE PUSH1 0x0 REVERT JUMPDEST POP POP POP POP PUSH1 0x40 MLOAD RETURNDATASIZE PUSH1 0x1F NOT PUSH1 0x1F DUP3 ADD AND DUP3 ADD DUP1 PUSH1 0x40 MSTORE POP DUP2 ADD SWAP1 PUSH2 0xC10 SWAP2 SWAP1 PUSH2 0xE7A JUMP JUMPDEST SWAP2 SWAP5 POP SWAP1 SWAP2 POP DUP2 SWAP1 POP PUSH2 0x4A6 JUMPI PUSH1 0x40 MLOAD PUSH3 0x461BCD PUSH1 0xE5 SHL DUP2 MSTORE PUSH1 0x20 PUSH1 0x4 DUP3 ADD MSTORE PUSH1 0x24 DUP1 DUP3 ADD MSTORE PUSH32 0x434242433A4E4F5F454C494749424C455F494E5445524553545F524154455F44 PUSH1 0x44 DUP3 ADD MSTORE PUSH4 0x20AA2097 PUSH1 0xE1 SHL PUSH1 0x64 DUP3 ADD MSTORE PUSH1 0x84 ADD PUSH2 0x3C7 JUMP JUMPDEST PUSH2 0xC85 PUSH1 0x33 SLOAD PUSH1 0x1 PUSH1 0x1 PUSH1 0xA0 SHL SUB AND CALLER EQ SWAP1 JUMP JUMPDEST PUSH2 0xC8E JUMPI PUSH1 0x0 DUP1 REVERT JUMPDEST PUSH1 0x1 PUSH1 0x1 PUSH1 0xA0 SHL SUB DUP3 DUP2 AND PUSH1 0x0 DUP2 DUP2 MSTORE PUSH1 0x67 PUSH1 0x20 SWAP1 DUP2 MSTORE PUSH1 0x40 SWAP2 DUP3 SWAP1 KECCAK256 DUP1 SLOAD PUSH1 0x1 PUSH1 0x1 PUSH1 0xA0 SHL SUB NOT AND SWAP5 DUP7 AND SWAP5 DUP6 OR SWAP1 SSTORE DUP2 MLOAD SWAP3 DUP4 MSTORE DUP3 ADD SWAP3 SWAP1 SWAP3 MSTORE PUSH32 0x8C460D1B98EA02E810540350241D1619D38FDAB3074636CB30EA44F57D9408D5 SWAP2 ADD PUSH2 0x7B5 JUMP JUMPDEST PUSH2 0xD06 PUSH1 0x33 SLOAD PUSH1 0x1 PUSH1 0x1 PUSH1 0xA0 SHL SUB AND CALLER EQ SWAP1 JUMP JUMPDEST PUSH2 0xD0F JUMPI PUSH1 0x0 DUP1 REVERT JUMPDEST PUSH2 0xD18 DUP2 PUSH2 0xD9C JUMP JUMPDEST POP JUMP JUMPDEST PUSH2 0xD2F PUSH1 0x33 SLOAD PUSH1 0x1 PUSH1 0x1 PUSH1 0xA0 SHL SUB AND CALLER EQ SWAP1 JUMP JUMPDEST PUSH2 0xD38 JUMPI PUSH1 0x0 DUP1 REVERT JUMPDEST PUSH1 0x1 PUSH1 0x1 PUSH1 0xA0 SHL SUB DUP3 DUP2 AND PUSH1 0x0 DUP2 DUP2 MSTORE PUSH1 0x66 PUSH1 0x20 SWAP1 DUP2 MSTORE PUSH1 0x40 SWAP2 DUP3 SWAP1 KECCAK256 DUP1 SLOAD PUSH1 0x1 PUSH1 0x1 PUSH1 0xA0 SHL SUB NOT AND SWAP5 DUP7 AND SWAP5 DUP6 OR SWAP1 SSTORE DUP2 MLOAD SWAP3 DUP4 MSTORE DUP3 ADD SWAP3 SWAP1 SWAP3 MSTORE PUSH32 0x8C460D1B98EA02E810540350241D1619D38FDAB3074636CB30EA44F57D9408D5 SWAP2 ADD PUSH2 0x7B5 JUMP JUMPDEST PUSH1 0x1 PUSH1 0x1 PUSH1 0xA0 SHL SUB DUP2 AND PUSH2 0xDAF JUMPI PUSH1 0x0 DUP1 REVERT JUMPDEST PUSH1 0x33 SLOAD PUSH1 0x40 MLOAD PUSH1 0x1 PUSH1 0x1 PUSH1 0xA0 SHL SUB DUP1 DUP5 AND SWAP3 AND SWAP1 PUSH32 0x8BE0079C531659141344CD1FD0A4F28419497F9722A3DAAFE3B4186F6B6457E0 SWAP1 PUSH1 0x0 SWAP1 LOG3 PUSH1 0x33 DUP1 SLOAD PUSH1 0x1 PUSH1 0x1 PUSH1 0xA0 SHL SUB NOT AND PUSH1 0x1 PUSH1 0x1 PUSH1 0xA0 SHL SUB SWAP3 SWAP1 SWAP3 AND SWAP2 SWAP1 SWAP2 OR SWAP1 SSTORE JUMP JUMPDEST DUP1 CALLDATALOAD PUSH1 0x1 PUSH1 0x1 PUSH1 0xA0 SHL SUB DUP2 AND DUP2 EQ PUSH2 0xE22 JUMPI PUSH1 0x0 DUP1 REVERT JUMPDEST SWAP2 SWAP1 POP JUMP JUMPDEST PUSH1 0x0 PUSH1 0x20 DUP3 DUP5 SUB SLT ISZERO PUSH2 0xE38 JUMPI DUP1 DUP2 REVERT JUMPDEST PUSH2 0xE41 DUP3 PUSH2 0xE0B JUMP JUMPDEST SWAP4 SWAP3 POP POP POP JUMP JUMPDEST PUSH1 0x0 DUP1 PUSH1 0x40 DUP4 DUP6 SUB SLT ISZERO PUSH2 0xE5A JUMPI DUP1 DUP2 REVERT JUMPDEST PUSH2 0xE63 DUP4 PUSH2 0xE0B JUMP JUMPDEST SWAP2 POP PUSH2 0xE71 PUSH1 0x20 DUP5 ADD PUSH2 0xE0B JUMP JUMPDEST SWAP1 POP SWAP3 POP SWAP3 SWAP1 POP JUMP JUMPDEST PUSH1 0x0 DUP1 PUSH1 0x0 PUSH1 0x60 DUP5 DUP7 SUB SLT ISZERO PUSH2 0xE8E JUMPI DUP1 DUP2 REVERT JUMPDEST DUP4 MLOAD SWAP3 POP PUSH1 0x20 DUP5 ADD MLOAD SWAP2 POP PUSH1 0x40 DUP5 ADD MLOAD DUP1 ISZERO ISZERO DUP2 EQ PUSH2 0xEAB JUMPI DUP2 DUP3 REVERT JUMPDEST DUP1 SWAP2 POP POP SWAP3 POP SWAP3 POP SWAP3 JUMP INVALID LOG2 PUSH5 0x6970667358 0x22 SLT KECCAK256 0xDF SUB 0xD7 0xBC 0x5D 0xBE PUSH4 0x5EAF49AC 0xB1 PUSH8 0x5AA176D6D313D952 0xDE 0xB6 SWAP10 0x24 BYTE 0x2C CALLER CALLDATACOPY PUSH15 0xA56764736F6C634300080300330000 "
		},
		"gasEstimates": {
			"creation": {
				"codeDepositCost": "764000",
				"executionCost": "799",
				"totalCost": "764799"
			},
			"external": {
				"bidAskSpreadMedianOracles(address)": "1336",
				"dailyPriceVolatilityMedianOracles(address)": "1292",
				"dailyVolumeMedianOracles(address)": "1336",
				"getBidAskSpread(address)": "infinite",
				"getDailyPriceVolatility(address)": "infinite",
				"getDailyVolume(address)": "infinite",
				"getInterestRate(address)": "infinite",
				"getPrice(address)": "infinite",
				"initialize(address)": "44553",
				"interestRateMedianOracles(address)": "1293",
				"isOwner()": "1091",
				"owner()": "1043",
				"priceMedianOracles(address)": "1271",
				"renounceOwnership()": "23869",
				"setBidAskSpreadOracle(address,address)": "infinite",
				"setDailyPriceVolatilityOracle(address,address)": "infinite",
				"setDailyVolumeOracle(address,address)": "infinite",
				"setInterestRateOracle(address,address)": "infinite",
				"setPriceOracle(address,address)": "infinite",
				"transferOwnership(address)": "24532"
			}
		},
		"methodIdentifiers": {
			"bidAskSpreadMedianOracles(address)": "76e0d7e5",
			"dailyPriceVolatilityMedianOracles(address)": "8f081d15",
			"dailyVolumeMedianOracles(address)": "bb3722e1",
			"getBidAskSpread(address)": "4094f10b",
			"getDailyPriceVolatility(address)": "4189c95d",
			"getDailyVolume(address)": "84f4b61f",
			"getInterestRate(address)": "d3ea0f89",
			"getPrice(address)": "41976e09",
			"initialize(address)": "c4d66de8",
			"interestRateMedianOracles(address)": "22fffac4",
			"isOwner()": "8f32d59b",
			"owner()": "8da5cb5b",
			"priceMedianOracles(address)": "18797567",
			"renounceOwnership()": "715018a6",
			"setBidAskSpreadOracle(address,address)": "e6c6d75b",
			"setDailyPriceVolatilityOracle(address,address)": "5a1ce9ee",
			"setDailyVolumeOracle(address,address)": "cceaaf8d",
			"setInterestRateOracle(address,address)": "f6c2d17c",
			"setPriceOracle(address,address)": "67a74ddc",
			"transferOwnership(address)": "f2fde38b"
		}
	},
	"abi": [
		{
			"anonymous": false,
			"inputs": [
				{
					"indexed": false,
					"internalType": "address",
					"name": "token",
					"type": "address"
				},
				{
					"indexed": false,
					"internalType": "address",
					"name": "oracle",
					"type": "address"
				}
			],
			"name": "LogSetBidAskSpreadOracle",
			"type": "event"
		},
		{
			"anonymous": false,
			"inputs": [
				{
					"indexed": false,
					"internalType": "address",
					"name": "token",
					"type": "address"
				},
				{
					"indexed": false,
					"internalType": "address",
					"name": "oracle",
					"type": "address"
				}
			],
			"name": "LogSetDailyPriceVolatilityOracle",
			"type": "event"
		},
		{
			"anonymous": false,
			"inputs": [
				{
					"indexed": false,
					"internalType": "address",
					"name": "token",
					"type": "address"
				},
				{
					"indexed": false,
					"internalType": "address",
					"name": "oracle",
					"type": "address"
				}
			],
			"name": "LogSetDailyVolumeOracle",
			"type": "event"
		},
		{
			"anonymous": false,
			"inputs": [
				{
					"indexed": false,
					"internalType": "address",
					"name": "token",
					"type": "address"
				},
				{
					"indexed": false,
					"internalType": "address",
					"name": "oracle",
					"type": "address"
				}
			],
			"name": "LogSetInterestRateOracle",
			"type": "event"
		},
		{
			"anonymous": false,
			"inputs": [
				{
					"indexed": false,
					"internalType": "address",
					"name": "token",
					"type": "address"
				},
				{
					"indexed": false,
					"internalType": "address",
					"name": "oracle",
					"type": "address"
				}
			],
			"name": "LogSetPriceOracle",
			"type": "event"
		},
		{
			"anonymous": false,
			"inputs": [
				{
					"indexed": true,
					"internalType": "address",
					"name": "previousOwner",
					"type": "address"
				}
			],
			"name": "OwnershipRenounced",
			"type": "event"
		},
		{
			"anonymous": false,
			"inputs": [
				{
					"indexed": true,
					"internalType": "address",
					"name": "previousOwner",
					"type": "address"
				},
				{
					"indexed": true,
					"internalType": "address",
					"name": "newOwner",
					"type": "address"
				}
			],
			"name": "OwnershipTransferred",
			"type": "event"
		},
		{
			"inputs": [
				{
					"internalType": "address",
					"name": "",
					"type": "address"
				}
			],
			"name": "bidAskSpreadMedianOracles",
			"outputs": [
				{
					"internalType": "address",
					"name": "",
					"type": "address"
				}
			],
			"stateMutability": "view",
			"type": "function"
		},
		{
			"inputs": [
				{
					"internalType": "address",
					"name": "",
					"type": "address"
				}
			],
			"name": "dailyPriceVolatilityMedianOracles",
			"outputs": [
				{
					"internalType": "address",
					"name": "",
					"type": "address"
				}
			],
			"stateMutability": "view",
			"type": "function"
		},
		{
			"inputs": [
				{
					"internalType": "address",
					"name": "",
					"type": "address"
				}
			],
			"name": "dailyVolumeMedianOracles",
			"outputs": [
				{
					"internalType": "address",
					"name": "",
					"type": "address"
				}
			],
			"stateMutability": "view",
			"type": "function"
		},
		{
			"inputs": [
				{
					"internalType": "address",
					"name": "token",
					"type": "address"
				}
			],
			"name": "getBidAskSpread",
			"outputs": [
				{
					"internalType": "uint256",
					"name": "baSpread",
					"type": "uint256"
				}
			],
			"stateMutability": "view",
			"type": "function"
		},
		{
			"inputs": [
				{
					"internalType": "address",
					"name": "token",
					"type": "address"
				}
			],
			"name": "getDailyPriceVolatility",
			"outputs": [
				{
					"internalType": "uint256",
					"name": "sigma",
					"type": "uint256"
				}
			],
			"stateMutability": "view",
			"type": "function"
		},
		{
			"inputs": [
				{
					"internalType": "address",
					"name": "token",
					"type": "address"
				}
			],
			"name": "getDailyVolume",
			"outputs": [
				{
					"internalType": "uint256",
					"name": "volume",
					"type": "uint256"
				}
			],
			"stateMutability": "view",
			"type": "function"
		},
		{
			"inputs": [
				{
					"internalType": "address",
					"name": "token",
					"type": "address"
				}
			],
			"name": "getInterestRate",
			"outputs": [
				{
					"internalType": "uint256",
					"name": "iRate",
					"type": "uint256"
				}
			],
			"stateMutability": "view",
			"type": "function"
		},
		{
			"inputs": [
				{
					"internalType": "address",
					"name": "token",
					"type": "address"
				}
			],
			"name": "getPrice",
			"outputs": [
				{
					"internalType": "uint256",
					"name": "price",
					"type": "uint256"
				},
				{
					"internalType": "uint256",
					"name": "blockNumber",
					"type": "uint256"
				}
			],
			"stateMutability": "view",
			"type": "function"
		},
		{
			"inputs": [
				{
					"internalType": "address",
					"name": "sender",
					"type": "address"
				}
			],
			"name": "initialize",
			"outputs": [],
			"stateMutability": "nonpayable",
			"type": "function"
		},
		{
			"inputs": [
				{
					"internalType": "address",
					"name": "",
					"type": "address"
				}
			],
			"name": "interestRateMedianOracles",
			"outputs": [
				{
					"internalType": "address",
					"name": "",
					"type": "address"
				}
			],
			"stateMutability": "view",
			"type": "function"
		},
		{
			"inputs": [],
			"name": "isOwner",
			"outputs": [
				{
					"internalType": "bool",
					"name": "",
					"type": "bool"
				}
			],
			"stateMutability": "view",
			"type": "function"
		},
		{
			"inputs": [],
			"name": "owner",
			"outputs": [
				{
					"internalType": "address",
					"name": "",
					"type": "address"
				}
			],
			"stateMutability": "view",
			"type": "function"
		},
		{
			"inputs": [
				{
					"internalType": "address",
					"name": "",
					"type": "address"
				}
			],
			"name": "priceMedianOracles",
			"outputs": [
				{
					"internalType": "address",
					"name": "",
					"type": "address"
				}
			],
			"stateMutability": "view",
			"type": "function"
		},
		{
			"inputs": [],
			"name": "renounceOwnership",
			"outputs": [],
			"stateMutability": "nonpayable",
			"type": "function"
		},
		{
			"inputs": [
				{
					"internalType": "address",
					"name": "token",
					"type": "address"
				},
				{
					"internalType": "address",
					"name": "oracle",
					"type": "address"
				}
			],
			"name": "setBidAskSpreadOracle",
			"outputs": [],
			"stateMutability": "nonpayable",
			"type": "function"
		},
		{
			"inputs": [
				{
					"internalType": "address",
					"name": "token",
					"type": "address"
				},
				{
					"internalType": "address",
					"name": "oracle",
					"type": "address"
				}
			],
			"name": "setDailyPriceVolatilityOracle",
			"outputs": [],
			"stateMutability": "nonpayable",
			"type": "function"
		},
		{
			"inputs": [
				{
					"internalType": "address",
					"name": "token",
					"type": "address"
				},
				{
					"internalType": "address",
					"name": "oracle",
					"type": "address"
				}
			],
			"name": "setDailyVolumeOracle",
			"outputs": [],
			"stateMutability": "nonpayable",
			"type": "function"
		},
		{
			"inputs": [
				{
					"internalType": "address",
					"name": "token",
					"type": "address"
				},
				{
					"internalType": "address",
					"name": "oracle",
					"type": "address"
				}
			],
			"name": "setInterestRateOracle",
			"outputs": [],
			"stateMutability": "nonpayable",
			"type": "function"
		},
		{
			"inputs": [
				{
					"internalType": "address",
					"name": "token",
					"type": "address"
				},
				{
					"internalType": "address",
					"name": "oracle",
					"type": "address"
				}
			],
			"name": "setPriceOracle",
			"outputs": [],
			"stateMutability": "nonpayable",
			"type": "function"
		},
		{
			"inputs": [
				{
					"internalType": "address",
					"name": "newOwner",
					"type": "address"
				}
			],
			"name": "transferOwnership",
			"outputs": [],
			"stateMutability": "nonpayable",
			"type": "function"
		}
	]
}