{
	"data": {
		"bytecode": {
			"linkReferences": {},
			"object": "60806040526001606a5534801561001557600080fd5b5060405161155938038061155983398101604081905261003491610063565b6312bed40083111561004557600080fd5b6000811161005257600080fd5b606892909255606955606a55610090565b600080600060608486031215610077578283fd5b8351925060208401519150604084015190509250925092565b6114ba8061009f6000396000f3fe608060405234801561001057600080fd5b50600436106101215760003560e01c8063b577c0c7116100ad578063df98298511610071578063df98298514610249578063ef35bcce14610252578063f10864b614610265578063f2fde38b14610293578063f68be513146102a657610121565b8063b577c0c71461020a578063c4d66de814610213578063d13d597114610226578063da6b0eea1461022e578063dcbb82531461024157610121565b806350f3fc81116100f457806350f3fc811461018f578063715018a6146101ba5780638a355a57146101c25780638da5cb5b146101d55780638f32d59b146101e657610121565b806312e800f1146101265780631e20d14b146101425780633bc5de301461015757806346e2577a1461017c575b600080fd5b61012f60695481565b6040519081526020015b60405180910390f35b610155610150366004611394565b6102b9565b005b61015f61047f565b604080519384526020840192909252151590820152606001610139565b61015561018a36600461134a565b61085b565b6101a261019d366004611394565b61093d565b6040516001600160a01b039091168152602001610139565b610155610967565b6101556101d036600461134a565b6109ce565b6033546001600160a01b03166101a2565b6101fa6033546001600160a01b0316331490565b6040519015158152602001610139565b61012f606a5481565b61015561022136600461134a565b610a6b565b610155610b36565b61015561023c366004611394565b610bb6565b60665461012f565b61012f60685481565b610155610260366004611394565b610bd8565b61027861027336600461136b565b610c07565b60408051938452602084019290925290820152606001610139565b6101556102a136600461134a565b610c3d565b6101556102b4366004611394565b610c66565b336000818152606760209081526040918290208251808401909352805480845260038201549284019290925291906103385760405162461bcd60e51b815260206004820152601a60248201527f434242433a4e4f545f414c4c4f5745445f50524f56494445522e00000000000060448201526064015b60405180910390fd5b60208101518151600091111561034f576001610352565b60005b905060006103618260016113ef565b905042606954848460ff166002811061038a57634e487b7160e01b600052603260045260246000fd5b602002015161039991906113ac565b11156103a457600080fd5b42848260ff16600281106103c857634e487b7160e01b600052603260045260246000fd5b6003020155438460ff8316600281106103f157634e487b7160e01b600052603260045260246000fd5b600302016001018190555085848260ff166002811061042057634e487b7160e01b600052603260045260246000fd5b6003020160020181905550846001600160a01b03167f460fcc5a1888965d48c2cab000fe20da51b1297d995af79a1924e2312d0d82b3874260405161046f929190918252602082015260400190565b60405180910390a2505050505050565b60665460009081908190818167ffffffffffffffff8111156104b157634e487b7160e01b600052604160045260246000fd5b60405190808252806020026020018201604052801561050657816020015b6104f360405180606001604052806000815260200160008152602001600081525090565b8152602001906001900390816104cf5790505b5090506000806068544261051a91906113d8565b905060006069544261052c91906113d8565b905060005b858110156108185760006066828154811061055c57634e487b7160e01b600052603260045260246000fd5b60009182526020808320909101546001600160a01b031680835260679091526040808320815180830190925291935090600283835b828210156105d757838260030201604051806060016040529081600082015481526020016001820154815260200160028201548152505081526020019060010190610591565b50505050905060008160016002811061060057634e487b7160e01b600052603260045260246000fd5b6020020151518251511015610616576001610619565b60005b905060006106288260016113ef565b90506000838360ff166002811061064f57634e487b7160e01b600052603260045260246000fd5b60200201515190508681111561075a576001600160a01b038516600090815260676020526040812060ff84166002811061069957634e487b7160e01b600052603260045260246000fd5b600302015490508881108015906106b05750878111155b15610754576001600160a01b038616600090815260676020526040902060ff8416600281106106ef57634e487b7160e01b600052603260045260246000fd5b6003020160405180606001604052908160008201548152602001600182015481526020016002820154815250508b8b8061072890611429565b9c508151811061074857634e487b7160e01b600052603260045260246000fd5b60200260200101819052505b50610800565b878110610800576001600160a01b038516600090815260676020526040902060ff84166002811061079b57634e487b7160e01b600052603260045260246000fd5b6003020160405180606001604052908160008201548152602001600182015481526020016002820154815250508a8a806107d490611429565b9b50815181106107f457634e487b7160e01b600052603260045260246000fd5b60200260200101819052505b5050505050808061081090611429565b915050610531565b50606a548310156108385760008060009750975097505050505050610856565b6000806108458686610c99565b909a50985060019750505050505050505b909192565b61086f6033546001600160a01b0316331490565b61087857600080fd5b6001600160a01b038116600090815260676020526040902054156108de5760405162461bcd60e51b815260206004820152601e60248201527f434242433a2050524f56494445525f414c52454144595f4558495354532e0000604482015260640161032f565b6108e960668261103c565b6001600160a01b0381166000818152606760209081526040918290206001905590519182527fae9c2c6481964847714ce58f65a7f6dcc41d0d8394449bacdf161b5920c4744a91015b60405180910390a150565b6066818154811061094d57600080fd5b6000918252602090912001546001600160a01b0316905081565b61097b6033546001600160a01b0316331490565b61098457600080fd5b6033546040516001600160a01b03909116907ff8df31144d9c2f0f6b59d69b8b98abd5459d07f2742c4df920b25aae33c6482090600090a2603380546001600160a01b0319169055565b6109e26033546001600160a01b0316331490565b6109eb57600080fd5b6001600160a01b03811660009081526067602052604081208181556001810182905560028101829055600381018290556004810182905560050155610a316066826110d3565b506040516001600160a01b03821681527f1589f8555933761a3cff8aa925061be3b46e2dd43f621322ab611d300f62b1d990602001610932565b600054610100900460ff1680610a805750303b155b80610a8e575060005460ff16155b610af15760405162461bcd60e51b815260206004820152602e60248201527f436f6e747261637420696e7374616e63652068617320616c726561647920626560448201526d195b881a5b9a5d1a585b1a5e995960921b606482015260840161032f565b60008054603380546001600160a01b0319166001600160a01b03949094169390931790925561ffff1982166101009283900460ff161515909202919091176001179055565b33600081815260676020526040902054610b925760405162461bcd60e51b815260206004820152601a60248201527f434242433a4e4f545f414c4c4f5745445f50524f56494445522e000000000000604482015260640161032f565b6001600160a01b031660009081526067602052604090206001808255600390910155565b610bca6033546001600160a01b0316331490565b610bd357600080fd5b606955565b610bec6033546001600160a01b0316331490565b610bf557600080fd5b60008111610c0257600080fd5b606a55565b60676020528160005260406000208160028110610c2357600080fd5b600302018054600182015460029092015490935090915083565b610c516033546001600160a01b0316331490565b610c5a57600080fd5b610c6381611247565b50565b610c7a6033546001600160a01b0316331490565b610c8357600080fd5b6312bed400811115610c9457600080fd5b606855565b600080600083118015610cad575082845110155b610cb657600080fd5b610cda60405180606001604052806000815260200160008152602001600081525090565b60015b84811015610e4257805b600081118015610d585750868181518110610d1257634e487b7160e01b600052603260045260246000fd5b60200260200101516040015187600183610d2c91906113d8565b81518110610d4a57634e487b7160e01b600052603260045260246000fd5b602002602001015160400151115b15610e2f57868181518110610d7d57634e487b7160e01b600052603260045260246000fd5b6020026020010151925086600182610d9591906113d8565b81518110610db357634e487b7160e01b600052603260045260246000fd5b6020026020010151878281518110610ddb57634e487b7160e01b600052603260045260246000fd5b60209081029190910101528287610df36001846113d8565b81518110610e1157634e487b7160e01b600052603260045260246000fd5b60200260200101819052508080610e2790611412565b915050610ce7565b5080610e3a81611429565b915050610cdd565b50610e4e600285611444565b60011415610ece5784610e626002866113c4565b81518110610e8057634e487b7160e01b600052603260045260246000fd5b60200260200101516040015185600286610e9a91906113c4565b81518110610eb857634e487b7160e01b600052603260045260246000fd5b6020026020010151602001519250925050611035565b6002856001610edd83886113c4565b610ee791906113d8565b81518110610f0557634e487b7160e01b600052603260045260246000fd5b60200260200101516040015186600287610f1f91906113c4565b81518110610f3d57634e487b7160e01b600052603260045260246000fd5b602002602001015160400151610f5391906113ac565b610f5d91906113c4565b856001610f6b6002886113c4565b610f7591906113d8565b81518110610f9357634e487b7160e01b600052603260045260246000fd5b60200260200101516020015186600287610fad91906113c4565b81518110610fcb57634e487b7160e01b600052603260045260246000fd5b6020026020010151602001511161102357856001610fea6002886113c4565b610ff491906113d8565b8151811061101257634e487b7160e01b600052603260045260246000fd5b60200260200101516020015161102f565b85610e9a6002876113c4565b92509250505b9250929050565b61109f8280548060200260200160405190810160405280929190818152602001828054801561109457602002820191906000526020600020905b81546001600160a01b03168152600190910190602001808311611076575b5050505050826112b6565b6110cf5781546001810183556000838152602090200180546001600160a01b0319166001600160a01b0383161790555b5050565b8154600090815b8181101561113e57836001600160a01b031685828154811061110c57634e487b7160e01b600052603260045260246000fd5b6000918252602090912001546001600160a01b0316141561112c5761113e565b8061113681611429565b9150506110da565b8181101561123a576111516001836113d8565b81146111ee57846111636001846113d8565b8154811061118157634e487b7160e01b600052603260045260246000fd5b9060005260206000200160009054906101000a90046001600160a01b03168582815481106111bf57634e487b7160e01b600052603260045260246000fd5b9060005260206000200160006101000a8154816001600160a01b0302191690836001600160a01b031602179055505b8480548061120c57634e487b7160e01b600052603160045260246000fd5b600082815260209020810160001990810180546001600160a01b031916905501905550600191506112419050565b6000925050505b92915050565b6001600160a01b03811661125a57600080fd5b6033546040516001600160a01b038084169216907f8be0079c531659141344cd1fd0a4f28419497f9722a3daafe3b4186f6b6457e090600090a3603380546001600160a01b0319166001600160a01b0392909216919091179055565b8151600090815b8181101561132357836001600160a01b03168582815181106112ef57634e487b7160e01b600052603260045260246000fd5b60200260200101516001600160a01b0316141561131157600192505050611241565b8061131b81611429565b9150506112bd565b506000949350505050565b80356001600160a01b038116811461134557600080fd5b919050565b60006020828403121561135b578081fd5b6113648261132e565b9392505050565b6000806040838503121561137d578081fd5b6113868361132e565b946020939093013593505050565b6000602082840312156113a5578081fd5b5035919050565b600082198211156113bf576113bf611458565b500190565b6000826113d3576113d361146e565b500490565b6000828210156113ea576113ea611458565b500390565b600060ff821660ff84168082101561140957611409611458565b90039392505050565b60008161142157611421611458565b506000190190565b600060001982141561143d5761143d611458565b5060010190565b6000826114535761145361146e565b500690565b634e487b7160e01b600052601160045260246000fd5b634e487b7160e01b600052601260045260246000fdfea26469706673582212209c2f34f3f62dd2428bcf9c60dbcd7aacb8ea245c3cf1454cec0387a11e72d1f564736f6c63430008030033",
			"opcodes": "PUSH1 0x80 PUSH1 0x40 MSTORE PUSH1 0x1 PUSH1 0x6A SSTORE CALLVALUE DUP1 ISZERO PUSH2 0x15 JUMPI PUSH1 0x0 DUP1 REVERT JUMPDEST POP PUSH1 0x40 MLOAD PUSH2 0x1559 CODESIZE SUB DUP1 PUSH2 0x1559 DUP4 CODECOPY DUP2 ADD PUSH1 0x40 DUP2 SWAP1 MSTORE PUSH2 0x34 SWAP2 PUSH2 0x63 JUMP JUMPDEST PUSH4 0x12BED400 DUP4 GT ISZERO PUSH2 0x45 JUMPI PUSH1 0x0 DUP1 REVERT JUMPDEST PUSH1 0x0 DUP2 GT PUSH2 0x52 JUMPI PUSH1 0x0 DUP1 REVERT JUMPDEST PUSH1 0x68 SWAP3 SWAP1 SWAP3 SSTORE PUSH1 0x69 SSTORE PUSH1 0x6A SSTORE PUSH2 0x90 JUMP JUMPDEST PUSH1 0x0 DUP1 PUSH1 0x0 PUSH1 0x60 DUP5 DUP7 SUB SLT ISZERO PUSH2 0x77 JUMPI DUP3 DUP4 REVERT JUMPDEST DUP4 MLOAD SWAP3 POP PUSH1 0x20 DUP5 ADD MLOAD SWAP2 POP PUSH1 0x40 DUP5 ADD MLOAD SWAP1 POP SWAP3 POP SWAP3 POP SWAP3 JUMP JUMPDEST PUSH2 0x14BA DUP1 PUSH2 0x9F PUSH1 0x0 CODECOPY PUSH1 0x0 RETURN INVALID PUSH1 0x80 PUSH1 0x40 MSTORE CALLVALUE DUP1 ISZERO PUSH2 0x10 JUMPI PUSH1 0x0 DUP1 REVERT JUMPDEST POP PUSH1 0x4 CALLDATASIZE LT PUSH2 0x121 JUMPI PUSH1 0x0 CALLDATALOAD PUSH1 0xE0 SHR DUP1 PUSH4 0xB577C0C7 GT PUSH2 0xAD JUMPI DUP1 PUSH4 0xDF982985 GT PUSH2 0x71 JUMPI DUP1 PUSH4 0xDF982985 EQ PUSH2 0x249 JUMPI DUP1 PUSH4 0xEF35BCCE EQ PUSH2 0x252 JUMPI DUP1 PUSH4 0xF10864B6 EQ PUSH2 0x265 JUMPI DUP1 PUSH4 0xF2FDE38B EQ PUSH2 0x293 JUMPI DUP1 PUSH4 0xF68BE513 EQ PUSH2 0x2A6 JUMPI PUSH2 0x121 JUMP JUMPDEST DUP1 PUSH4 0xB577C0C7 EQ PUSH2 0x20A JUMPI DUP1 PUSH4 0xC4D66DE8 EQ PUSH2 0x213 JUMPI DUP1 PUSH4 0xD13D5971 EQ PUSH2 0x226 JUMPI DUP1 PUSH4 0xDA6B0EEA EQ PUSH2 0x22E JUMPI DUP1 PUSH4 0xDCBB8253 EQ PUSH2 0x241 JUMPI PUSH2 0x121 JUMP JUMPDEST DUP1 PUSH4 0x50F3FC81 GT PUSH2 0xF4 JUMPI DUP1 PUSH4 0x50F3FC81 EQ PUSH2 0x18F JUMPI DUP1 PUSH4 0x715018A6 EQ PUSH2 0x1BA JUMPI DUP1 PUSH4 0x8A355A57 EQ PUSH2 0x1C2 JUMPI DUP1 PUSH4 0x8DA5CB5B EQ PUSH2 0x1D5 JUMPI DUP1 PUSH4 0x8F32D59B EQ PUSH2 0x1E6 JUMPI PUSH2 0x121 JUMP JUMPDEST DUP1 PUSH4 0x12E800F1 EQ PUSH2 0x126 JUMPI DUP1 PUSH4 0x1E20D14B EQ PUSH2 0x142 JUMPI DUP1 PUSH4 0x3BC5DE30 EQ PUSH2 0x157 JUMPI DUP1 PUSH4 0x46E2577A EQ PUSH2 0x17C JUMPI JUMPDEST PUSH1 0x0 DUP1 REVERT JUMPDEST PUSH2 0x12F PUSH1 0x69 SLOAD DUP2 JUMP JUMPDEST PUSH1 0x40 MLOAD SWAP1 DUP2 MSTORE PUSH1 0x20 ADD JUMPDEST PUSH1 0x40 MLOAD DUP1 SWAP2 SUB SWAP1 RETURN JUMPDEST PUSH2 0x155 PUSH2 0x150 CALLDATASIZE PUSH1 0x4 PUSH2 0x1394 JUMP JUMPDEST PUSH2 0x2B9 JUMP JUMPDEST STOP JUMPDEST PUSH2 0x15F PUSH2 0x47F JUMP JUMPDEST PUSH1 0x40 DUP1 MLOAD SWAP4 DUP5 MSTORE PUSH1 0x20 DUP5 ADD SWAP3 SWAP1 SWAP3 MSTORE ISZERO ISZERO SWAP1 DUP3 ADD MSTORE PUSH1 0x60 ADD PUSH2 0x139 JUMP JUMPDEST PUSH2 0x155 PUSH2 0x18A CALLDATASIZE PUSH1 0x4 PUSH2 0x134A JUMP JUMPDEST PUSH2 0x85B JUMP JUMPDEST PUSH2 0x1A2 PUSH2 0x19D CALLDATASIZE PUSH1 0x4 PUSH2 0x1394 JUMP JUMPDEST PUSH2 0x93D JUMP JUMPDEST PUSH1 0x40 MLOAD PUSH1 0x1 PUSH1 0x1 PUSH1 0xA0 SHL SUB SWAP1 SWAP2 AND DUP2 MSTORE PUSH1 0x20 ADD PUSH2 0x139 JUMP JUMPDEST PUSH2 0x155 PUSH2 0x967 JUMP JUMPDEST PUSH2 0x155 PUSH2 0x1D0 CALLDATASIZE PUSH1 0x4 PUSH2 0x134A JUMP JUMPDEST PUSH2 0x9CE JUMP JUMPDEST PUSH1 0x33 SLOAD PUSH1 0x1 PUSH1 0x1 PUSH1 0xA0 SHL SUB AND PUSH2 0x1A2 JUMP JUMPDEST PUSH2 0x1FA PUSH1 0x33 SLOAD PUSH1 0x1 PUSH1 0x1 PUSH1 0xA0 SHL SUB AND CALLER EQ SWAP1 JUMP JUMPDEST PUSH1 0x40 MLOAD SWAP1 ISZERO ISZERO DUP2 MSTORE PUSH1 0x20 ADD PUSH2 0x139 JUMP JUMPDEST PUSH2 0x12F PUSH1 0x6A SLOAD DUP2 JUMP JUMPDEST PUSH2 0x155 PUSH2 0x221 CALLDATASIZE PUSH1 0x4 PUSH2 0x134A JUMP JUMPDEST PUSH2 0xA6B JUMP JUMPDEST PUSH2 0x155 PUSH2 0xB36 JUMP JUMPDEST PUSH2 0x155 PUSH2 0x23C CALLDATASIZE PUSH1 0x4 PUSH2 0x1394 JUMP JUMPDEST PUSH2 0xBB6 JUMP JUMPDEST PUSH1 0x66 SLOAD PUSH2 0x12F JUMP JUMPDEST PUSH2 0x12F PUSH1 0x68 SLOAD DUP2 JUMP JUMPDEST PUSH2 0x155 PUSH2 0x260 CALLDATASIZE PUSH1 0x4 PUSH2 0x1394 JUMP JUMPDEST PUSH2 0xBD8 JUMP JUMPDEST PUSH2 0x278 PUSH2 0x273 CALLDATASIZE PUSH1 0x4 PUSH2 0x136B JUMP JUMPDEST PUSH2 0xC07 JUMP JUMPDEST PUSH1 0x40 DUP1 MLOAD SWAP4 DUP5 MSTORE PUSH1 0x20 DUP5 ADD SWAP3 SWAP1 SWAP3 MSTORE SWAP1 DUP3 ADD MSTORE PUSH1 0x60 ADD PUSH2 0x139 JUMP JUMPDEST PUSH2 0x155 PUSH2 0x2A1 CALLDATASIZE PUSH1 0x4 PUSH2 0x134A JUMP JUMPDEST PUSH2 0xC3D JUMP JUMPDEST PUSH2 0x155 PUSH2 0x2B4 CALLDATASIZE PUSH1 0x4 PUSH2 0x1394 JUMP JUMPDEST PUSH2 0xC66 JUMP JUMPDEST CALLER PUSH1 0x0 DUP2 DUP2 MSTORE PUSH1 0x67 PUSH1 0x20 SWAP1 DUP2 MSTORE PUSH1 0x40 SWAP2 DUP3 SWAP1 KECCAK256 DUP3 MLOAD DUP1 DUP5 ADD SWAP1 SWAP4 MSTORE DUP1 SLOAD DUP1 DUP5 MSTORE PUSH1 0x3 DUP3 ADD SLOAD SWAP3 DUP5 ADD SWAP3 SWAP1 SWAP3 MSTORE SWAP2 SWAP1 PUSH2 0x338 JUMPI PUSH1 0x40 MLOAD PUSH3 0x461BCD PUSH1 0xE5 SHL DUP2 MSTORE PUSH1 0x20 PUSH1 0x4 DUP3 ADD MSTORE PUSH1 0x1A PUSH1 0x24 DUP3 ADD MSTORE PUSH32 0x434242433A4E4F545F414C4C4F5745445F50524F56494445522E000000000000 PUSH1 0x44 DUP3 ADD MSTORE PUSH1 0x64 ADD JUMPDEST PUSH1 0x40 MLOAD DUP1 SWAP2 SUB SWAP1 REVERT JUMPDEST PUSH1 0x20 DUP2 ADD MLOAD DUP2 MLOAD PUSH1 0x0 SWAP2 GT ISZERO PUSH2 0x34F JUMPI PUSH1 0x1 PUSH2 0x352 JUMP JUMPDEST PUSH1 0x0 JUMPDEST SWAP1 POP PUSH1 0x0 PUSH2 0x361 DUP3 PUSH1 0x1 PUSH2 0x13EF JUMP JUMPDEST SWAP1 POP TIMESTAMP PUSH1 0x69 SLOAD DUP5 DUP5 PUSH1 0xFF AND PUSH1 0x2 DUP2 LT PUSH2 0x38A JUMPI PUSH4 0x4E487B71 PUSH1 0xE0 SHL PUSH1 0x0 MSTORE PUSH1 0x32 PUSH1 0x4 MSTORE PUSH1 0x24 PUSH1 0x0 REVERT JUMPDEST PUSH1 0x20 MUL ADD MLOAD PUSH2 0x399 SWAP2 SWAP1 PUSH2 0x13AC JUMP JUMPDEST GT ISZERO PUSH2 0x3A4 JUMPI PUSH1 0x0 DUP1 REVERT JUMPDEST TIMESTAMP DUP5 DUP3 PUSH1 0xFF AND PUSH1 0x2 DUP2 LT PUSH2 0x3C8 JUMPI PUSH4 0x4E487B71 PUSH1 0xE0 SHL PUSH1 0x0 MSTORE PUSH1 0x32 PUSH1 0x4 MSTORE PUSH1 0x24 PUSH1 0x0 REVERT JUMPDEST PUSH1 0x3 MUL ADD SSTORE NUMBER DUP5 PUSH1 0xFF DUP4 AND PUSH1 0x2 DUP2 LT PUSH2 0x3F1 JUMPI PUSH4 0x4E487B71 PUSH1 0xE0 SHL PUSH1 0x0 MSTORE PUSH1 0x32 PUSH1 0x4 MSTORE PUSH1 0x24 PUSH1 0x0 REVERT JUMPDEST PUSH1 0x3 MUL ADD PUSH1 0x1 ADD DUP2 SWAP1 SSTORE POP DUP6 DUP5 DUP3 PUSH1 0xFF AND PUSH1 0x2 DUP2 LT PUSH2 0x420 JUMPI PUSH4 0x4E487B71 PUSH1 0xE0 SHL PUSH1 0x0 MSTORE PUSH1 0x32 PUSH1 0x4 MSTORE PUSH1 0x24 PUSH1 0x0 REVERT JUMPDEST PUSH1 0x3 MUL ADD PUSH1 0x2 ADD DUP2 SWAP1 SSTORE POP DUP5 PUSH1 0x1 PUSH1 0x1 PUSH1 0xA0 SHL SUB AND PUSH32 0x460FCC5A1888965D48C2CAB000FE20DA51B1297D995AF79A1924E2312D0D82B3 DUP8 TIMESTAMP PUSH1 0x40 MLOAD PUSH2 0x46F SWAP3 SWAP2 SWAP1 SWAP2 DUP3 MSTORE PUSH1 0x20 DUP3 ADD MSTORE PUSH1 0x40 ADD SWAP1 JUMP JUMPDEST PUSH1 0x40 MLOAD DUP1 SWAP2 SUB SWAP1 LOG2 POP POP POP POP POP POP JUMP JUMPDEST PUSH1 0x66 SLOAD PUSH1 0x0 SWAP1 DUP2 SWAP1 DUP2 SWAP1 DUP2 DUP2 PUSH8 0xFFFFFFFFFFFFFFFF DUP2 GT ISZERO PUSH2 0x4B1 JUMPI PUSH4 0x4E487B71 PUSH1 0xE0 SHL PUSH1 0x0 MSTORE PUSH1 0x41 PUSH1 0x4 MSTORE PUSH1 0x24 PUSH1 0x0 REVERT JUMPDEST PUSH1 0x40 MLOAD SWAP1 DUP1 DUP3 MSTORE DUP1 PUSH1 0x20 MUL PUSH1 0x20 ADD DUP3 ADD PUSH1 0x40 MSTORE DUP1 ISZERO PUSH2 0x506 JUMPI DUP2 PUSH1 0x20 ADD JUMPDEST PUSH2 0x4F3 PUSH1 0x40 MLOAD DUP1 PUSH1 0x60 ADD PUSH1 0x40 MSTORE DUP1 PUSH1 0x0 DUP2 MSTORE PUSH1 0x20 ADD PUSH1 0x0 DUP2 MSTORE PUSH1 0x20 ADD PUSH1 0x0 DUP2 MSTORE POP SWAP1 JUMP JUMPDEST DUP2 MSTORE PUSH1 0x20 ADD SWAP1 PUSH1 0x1 SWAP1 SUB SWAP1 DUP2 PUSH2 0x4CF JUMPI SWAP1 POP JUMPDEST POP SWAP1 POP PUSH1 0x0 DUP1 PUSH1 0x68 SLOAD TIMESTAMP PUSH2 0x51A SWAP2 SWAP1 PUSH2 0x13D8 JUMP JUMPDEST SWAP1 POP PUSH1 0x0 PUSH1 0x69 SLOAD TIMESTAMP PUSH2 0x52C SWAP2 SWAP1 PUSH2 0x13D8 JUMP JUMPDEST SWAP1 POP PUSH1 0x0 JUMPDEST DUP6 DUP2 LT ISZERO PUSH2 0x818 JUMPI PUSH1 0x0 PUSH1 0x66 DUP3 DUP2 SLOAD DUP2 LT PUSH2 0x55C JUMPI PUSH4 0x4E487B71 PUSH1 0xE0 SHL PUSH1 0x0 MSTORE PUSH1 0x32 PUSH1 0x4 MSTORE PUSH1 0x24 PUSH1 0x0 REVERT JUMPDEST PUSH1 0x0 SWAP2 DUP3 MSTORE PUSH1 0x20 DUP1 DUP4 KECCAK256 SWAP1 SWAP2 ADD SLOAD PUSH1 0x1 PUSH1 0x1 PUSH1 0xA0 SHL SUB AND DUP1 DUP4 MSTORE PUSH1 0x67 SWAP1 SWAP2 MSTORE PUSH1 0x40 DUP1 DUP4 KECCAK256 DUP2 MLOAD DUP1 DUP4 ADD SWAP1 SWAP3 MSTORE SWAP2 SWAP4 POP SWAP1 PUSH1 0x2 DUP4 DUP4 JUMPDEST DUP3 DUP3 LT ISZERO PUSH2 0x5D7 JUMPI DUP4 DUP3 PUSH1 0x3 MUL ADD PUSH1 0x40 MLOAD DUP1 PUSH1 0x60 ADD PUSH1 0x40 MSTORE SWAP1 DUP2 PUSH1 0x0 DUP3 ADD SLOAD DUP2 MSTORE PUSH1 0x20 ADD PUSH1 0x1 DUP3 ADD SLOAD DUP2 MSTORE PUSH1 0x20 ADD PUSH1 0x2 DUP3 ADD SLOAD DUP2 MSTORE POP POP DUP2 MSTORE PUSH1 0x20 ADD SWAP1 PUSH1 0x1 ADD SWAP1 PUSH2 0x591 JUMP JUMPDEST POP POP POP POP SWAP1 POP PUSH1 0x0 DUP2 PUSH1 0x1 PUSH1 0x2 DUP2 LT PUSH2 0x600 JUMPI PUSH4 0x4E487B71 PUSH1 0xE0 SHL PUSH1 0x0 MSTORE PUSH1 0x32 PUSH1 0x4 MSTORE PUSH1 0x24 PUSH1 0x0 REVERT JUMPDEST PUSH1 0x20 MUL ADD MLOAD MLOAD DUP3 MLOAD MLOAD LT ISZERO PUSH2 0x616 JUMPI PUSH1 0x1 PUSH2 0x619 JUMP JUMPDEST PUSH1 0x0 JUMPDEST SWAP1 POP PUSH1 0x0 PUSH2 0x628 DUP3 PUSH1 0x1 PUSH2 0x13EF JUMP JUMPDEST SWAP1 POP PUSH1 0x0 DUP4 DUP4 PUSH1 0xFF AND PUSH1 0x2 DUP2 LT PUSH2 0x64F JUMPI PUSH4 0x4E487B71 PUSH1 0xE0 SHL PUSH1 0x0 MSTORE PUSH1 0x32 PUSH1 0x4 MSTORE PUSH1 0x24 PUSH1 0x0 REVERT JUMPDEST PUSH1 0x20 MUL ADD MLOAD MLOAD SWAP1 POP DUP7 DUP2 GT ISZERO PUSH2 0x75A JUMPI PUSH1 0x1 PUSH1 0x1 PUSH1 0xA0 SHL SUB DUP6 AND PUSH1 0x0 SWAP1 DUP2 MSTORE PUSH1 0x67 PUSH1 0x20 MSTORE PUSH1 0x40 DUP2 KECCAK256 PUSH1 0xFF DUP5 AND PUSH1 0x2 DUP2 LT PUSH2 0x699 JUMPI PUSH4 0x4E487B71 PUSH1 0xE0 SHL PUSH1 0x0 MSTORE PUSH1 0x32 PUSH1 0x4 MSTORE PUSH1 0x24 PUSH1 0x0 REVERT JUMPDEST PUSH1 0x3 MUL ADD SLOAD SWAP1 POP DUP9 DUP2 LT DUP1 ISZERO SWAP1 PUSH2 0x6B0 JUMPI POP DUP8 DUP2 GT ISZERO JUMPDEST ISZERO PUSH2 0x754 JUMPI PUSH1 0x1 PUSH1 0x1 PUSH1 0xA0 SHL SUB DUP7 AND PUSH1 0x0 SWAP1 DUP2 MSTORE PUSH1 0x67 PUSH1 0x20 MSTORE PUSH1 0x40 SWAP1 KECCAK256 PUSH1 0xFF DUP5 AND PUSH1 0x2 DUP2 LT PUSH2 0x6EF JUMPI PUSH4 0x4E487B71 PUSH1 0xE0 SHL PUSH1 0x0 MSTORE PUSH1 0x32 PUSH1 0x4 MSTORE PUSH1 0x24 PUSH1 0x0 REVERT JUMPDEST PUSH1 0x3 MUL ADD PUSH1 0x40 MLOAD DUP1 PUSH1 0x60 ADD PUSH1 0x40 MSTORE SWAP1 DUP2 PUSH1 0x0 DUP3 ADD SLOAD DUP2 MSTORE PUSH1 0x20 ADD PUSH1 0x1 DUP3 ADD SLOAD DUP2 MSTORE PUSH1 0x20 ADD PUSH1 0x2 DUP3 ADD SLOAD DUP2 MSTORE POP POP DUP12 DUP12 DUP1 PUSH2 0x728 SWAP1 PUSH2 0x1429 JUMP JUMPDEST SWAP13 POP DUP2 MLOAD DUP2 LT PUSH2 0x748 JUMPI PUSH4 0x4E487B71 PUSH1 0xE0 SHL PUSH1 0x0 MSTORE PUSH1 0x32 PUSH1 0x4 MSTORE PUSH1 0x24 PUSH1 0x0 REVERT JUMPDEST PUSH1 0x20 MUL PUSH1 0x20 ADD ADD DUP2 SWAP1 MSTORE POP JUMPDEST POP PUSH2 0x800 JUMP JUMPDEST DUP8 DUP2 LT PUSH2 0x800 JUMPI PUSH1 0x1 PUSH1 0x1 PUSH1 0xA0 SHL SUB DUP6 AND PUSH1 0x0 SWAP1 DUP2 MSTORE PUSH1 0x67 PUSH1 0x20 MSTORE PUSH1 0x40 SWAP1 KECCAK256 PUSH1 0xFF DUP5 AND PUSH1 0x2 DUP2 LT PUSH2 0x79B JUMPI PUSH4 0x4E487B71 PUSH1 0xE0 SHL PUSH1 0x0 MSTORE PUSH1 0x32 PUSH1 0x4 MSTORE PUSH1 0x24 PUSH1 0x0 REVERT JUMPDEST PUSH1 0x3 MUL ADD PUSH1 0x40 MLOAD DUP1 PUSH1 0x60 ADD PUSH1 0x40 MSTORE SWAP1 DUP2 PUSH1 0x0 DUP3 ADD SLOAD DUP2 MSTORE PUSH1 0x20 ADD PUSH1 0x1 DUP3 ADD SLOAD DUP2 MSTORE PUSH1 0x20 ADD PUSH1 0x2 DUP3 ADD SLOAD DUP2 MSTORE POP POP DUP11 DUP11 DUP1 PUSH2 0x7D4 SWAP1 PUSH2 0x1429 JUMP JUMPDEST SWAP12 POP DUP2 MLOAD DUP2 LT PUSH2 0x7F4 JUMPI PUSH4 0x4E487B71 PUSH1 0xE0 SHL PUSH1 0x0 MSTORE PUSH1 0x32 PUSH1 0x4 MSTORE PUSH1 0x24 PUSH1 0x0 REVERT JUMPDEST PUSH1 0x20 MUL PUSH1 0x20 ADD ADD DUP2 SWAP1 MSTORE POP JUMPDEST POP POP POP POP POP DUP1 DUP1 PUSH2 0x810 SWAP1 PUSH2 0x1429 JUMP JUMPDEST SWAP2 POP POP PUSH2 0x531 JUMP JUMPDEST POP PUSH1 0x6A SLOAD DUP4 LT ISZERO PUSH2 0x838 JUMPI PUSH1 0x0 DUP1 PUSH1 0x0 SWAP8 POP SWAP8 POP SWAP8 POP POP POP POP POP POP PUSH2 0x856 JUMP JUMPDEST PUSH1 0x0 DUP1 PUSH2 0x845 DUP7 DUP7 PUSH2 0xC99 JUMP JUMPDEST SWAP1 SWAP11 POP SWAP9 POP PUSH1 0x1 SWAP8 POP POP POP POP POP POP POP POP JUMPDEST SWAP1 SWAP2 SWAP3 JUMP JUMPDEST PUSH2 0x86F PUSH1 0x33 SLOAD PUSH1 0x1 PUSH1 0x1 PUSH1 0xA0 SHL SUB AND CALLER EQ SWAP1 JUMP JUMPDEST PUSH2 0x878 JUMPI PUSH1 0x0 DUP1 REVERT JUMPDEST PUSH1 0x1 PUSH1 0x1 PUSH1 0xA0 SHL SUB DUP2 AND PUSH1 0x0 SWAP1 DUP2 MSTORE PUSH1 0x67 PUSH1 0x20 MSTORE PUSH1 0x40 SWAP1 KECCAK256 SLOAD ISZERO PUSH2 0x8DE JUMPI PUSH1 0x40 MLOAD PUSH3 0x461BCD PUSH1 0xE5 SHL DUP2 MSTORE PUSH1 0x20 PUSH1 0x4 DUP3 ADD MSTORE PUSH1 0x1E PUSH1 0x24 DUP3 ADD MSTORE PUSH32 0x434242433A2050524F56494445525F414C52454144595F4558495354532E0000 PUSH1 0x44 DUP3 ADD MSTORE PUSH1 0x64 ADD PUSH2 0x32F JUMP JUMPDEST PUSH2 0x8E9 PUSH1 0x66 DUP3 PUSH2 0x103C JUMP JUMPDEST PUSH1 0x1 PUSH1 0x1 PUSH1 0xA0 SHL SUB DUP2 AND PUSH1 0x0 DUP2 DUP2 MSTORE PUSH1 0x67 PUSH1 0x20 SWAP1 DUP2 MSTORE PUSH1 0x40 SWAP2 DUP3 SWAP1 KECCAK256 PUSH1 0x1 SWAP1 SSTORE SWAP1 MLOAD SWAP2 DUP3 MSTORE PUSH32 0xAE9C2C6481964847714CE58F65A7F6DCC41D0D8394449BACDF161B5920C4744A SWAP2 ADD JUMPDEST PUSH1 0x40 MLOAD DUP1 SWAP2 SUB SWAP1 LOG1 POP JUMP JUMPDEST PUSH1 0x66 DUP2 DUP2 SLOAD DUP2 LT PUSH2 0x94D JUMPI PUSH1 0x0 DUP1 REVERT JUMPDEST PUSH1 0x0 SWAP2 DUP3 MSTORE PUSH1 0x20 SWAP1 SWAP2 KECCAK256 ADD SLOAD PUSH1 0x1 PUSH1 0x1 PUSH1 0xA0 SHL SUB AND SWAP1 POP DUP2 JUMP JUMPDEST PUSH2 0x97B PUSH1 0x33 SLOAD PUSH1 0x1 PUSH1 0x1 PUSH1 0xA0 SHL SUB AND CALLER EQ SWAP1 JUMP JUMPDEST PUSH2 0x984 JUMPI PUSH1 0x0 DUP1 REVERT JUMPDEST PUSH1 0x33 SLOAD PUSH1 0x40 MLOAD PUSH1 0x1 PUSH1 0x1 PUSH1 0xA0 SHL SUB SWAP1 SWAP2 AND SWAP1 PUSH32 0xF8DF31144D9C2F0F6B59D69B8B98ABD5459D07F2742C4DF920B25AAE33C64820 SWAP1 PUSH1 0x0 SWAP1 LOG2 PUSH1 0x33 DUP1 SLOAD PUSH1 0x1 PUSH1 0x1 PUSH1 0xA0 SHL SUB NOT AND SWAP1 SSTORE JUMP JUMPDEST PUSH2 0x9E2 PUSH1 0x33 SLOAD PUSH1 0x1 PUSH1 0x1 PUSH1 0xA0 SHL SUB AND CALLER EQ SWAP1 JUMP JUMPDEST PUSH2 0x9EB JUMPI PUSH1 0x0 DUP1 REVERT JUMPDEST PUSH1 0x1 PUSH1 0x1 PUSH1 0xA0 SHL SUB DUP2 AND PUSH1 0x0 SWAP1 DUP2 MSTORE PUSH1 0x67 PUSH1 0x20 MSTORE PUSH1 0x40 DUP2 KECCAK256 DUP2 DUP2 SSTORE PUSH1 0x1 DUP2 ADD DUP3 SWAP1 SSTORE PUSH1 0x2 DUP2 ADD DUP3 SWAP1 SSTORE PUSH1 0x3 DUP2 ADD DUP3 SWAP1 SSTORE PUSH1 0x4 DUP2 ADD DUP3 SWAP1 SSTORE PUSH1 0x5 ADD SSTORE PUSH2 0xA31 PUSH1 0x66 DUP3 PUSH2 0x10D3 JUMP JUMPDEST POP PUSH1 0x40 MLOAD PUSH1 0x1 PUSH1 0x1 PUSH1 0xA0 SHL SUB DUP3 AND DUP2 MSTORE PUSH32 0x1589F8555933761A3CFF8AA925061BE3B46E2DD43F621322AB611D300F62B1D9 SWAP1 PUSH1 0x20 ADD PUSH2 0x932 JUMP JUMPDEST PUSH1 0x0 SLOAD PUSH2 0x100 SWAP1 DIV PUSH1 0xFF AND DUP1 PUSH2 0xA80 JUMPI POP ADDRESS EXTCODESIZE ISZERO JUMPDEST DUP1 PUSH2 0xA8E JUMPI POP PUSH1 0x0 SLOAD PUSH1 0xFF AND ISZERO JUMPDEST PUSH2 0xAF1 JUMPI PUSH1 0x40 MLOAD PUSH3 0x461BCD PUSH1 0xE5 SHL DUP2 MSTORE PUSH1 0x20 PUSH1 0x4 DUP3 ADD MSTORE PUSH1 0x2E PUSH1 0x24 DUP3 ADD MSTORE PUSH32 0x436F6E747261637420696E7374616E63652068617320616C7265616479206265 PUSH1 0x44 DUP3 ADD MSTORE PUSH14 0x195B881A5B9A5D1A585B1A5E9959 PUSH1 0x92 SHL PUSH1 0x64 DUP3 ADD MSTORE PUSH1 0x84 ADD PUSH2 0x32F JUMP JUMPDEST PUSH1 0x0 DUP1 SLOAD PUSH1 0x33 DUP1 SLOAD PUSH1 0x1 PUSH1 0x1 PUSH1 0xA0 SHL SUB NOT AND PUSH1 0x1 PUSH1 0x1 PUSH1 0xA0 SHL SUB SWAP5 SWAP1 SWAP5 AND SWAP4 SWAP1 SWAP4 OR SWAP1 SWAP3 SSTORE PUSH2 0xFFFF NOT DUP3 AND PUSH2 0x100 SWAP3 DUP4 SWAP1 DIV PUSH1 0xFF AND ISZERO ISZERO SWAP1 SWAP3 MUL SWAP2 SWAP1 SWAP2 OR PUSH1 0x1 OR SWAP1 SSTORE JUMP JUMPDEST CALLER PUSH1 0x0 DUP2 DUP2 MSTORE PUSH1 0x67 PUSH1 0x20 MSTORE PUSH1 0x40 SWAP1 KECCAK256 SLOAD PUSH2 0xB92 JUMPI PUSH1 0x40 MLOAD PUSH3 0x461BCD PUSH1 0xE5 SHL DUP2 MSTORE PUSH1 0x20 PUSH1 0x4 DUP3 ADD MSTORE PUSH1 0x1A PUSH1 0x24 DUP3 ADD MSTORE PUSH32 0x434242433A4E4F545F414C4C4F5745445F50524F56494445522E000000000000 PUSH1 0x44 DUP3 ADD MSTORE PUSH1 0x64 ADD PUSH2 0x32F JUMP JUMPDEST PUSH1 0x1 PUSH1 0x1 PUSH1 0xA0 SHL SUB AND PUSH1 0x0 SWAP1 DUP2 MSTORE PUSH1 0x67 PUSH1 0x20 MSTORE PUSH1 0x40 SWAP1 KECCAK256 PUSH1 0x1 DUP1 DUP3 SSTORE PUSH1 0x3 SWAP1 SWAP2 ADD SSTORE JUMP JUMPDEST PUSH2 0xBCA PUSH1 0x33 SLOAD PUSH1 0x1 PUSH1 0x1 PUSH1 0xA0 SHL SUB AND CALLER EQ SWAP1 JUMP JUMPDEST PUSH2 0xBD3 JUMPI PUSH1 0x0 DUP1 REVERT JUMPDEST PUSH1 0x69 SSTORE JUMP JUMPDEST PUSH2 0xBEC PUSH1 0x33 SLOAD PUSH1 0x1 PUSH1 0x1 PUSH1 0xA0 SHL SUB AND CALLER EQ SWAP1 JUMP JUMPDEST PUSH2 0xBF5 JUMPI PUSH1 0x0 DUP1 REVERT JUMPDEST PUSH1 0x0 DUP2 GT PUSH2 0xC02 JUMPI PUSH1 0x0 DUP1 REVERT JUMPDEST PUSH1 0x6A SSTORE JUMP JUMPDEST PUSH1 0x67 PUSH1 0x20 MSTORE DUP2 PUSH1 0x0 MSTORE PUSH1 0x40 PUSH1 0x0 KECCAK256 DUP2 PUSH1 0x2 DUP2 LT PUSH2 0xC23 JUMPI PUSH1 0x0 DUP1 REVERT JUMPDEST PUSH1 0x3 MUL ADD DUP1 SLOAD PUSH1 0x1 DUP3 ADD SLOAD PUSH1 0x2 SWAP1 SWAP3 ADD SLOAD SWAP1 SWAP4 POP SWAP1 SWAP2 POP DUP4 JUMP JUMPDEST PUSH2 0xC51 PUSH1 0x33 SLOAD PUSH1 0x1 PUSH1 0x1 PUSH1 0xA0 SHL SUB AND CALLER EQ SWAP1 JUMP JUMPDEST PUSH2 0xC5A JUMPI PUSH1 0x0 DUP1 REVERT JUMPDEST PUSH2 0xC63 DUP2 PUSH2 0x1247 JUMP JUMPDEST POP JUMP JUMPDEST PUSH2 0xC7A PUSH1 0x33 SLOAD PUSH1 0x1 PUSH1 0x1 PUSH1 0xA0 SHL SUB AND CALLER EQ SWAP1 JUMP JUMPDEST PUSH2 0xC83 JUMPI PUSH1 0x0 DUP1 REVERT JUMPDEST PUSH4 0x12BED400 DUP2 GT ISZERO PUSH2 0xC94 JUMPI PUSH1 0x0 DUP1 REVERT JUMPDEST PUSH1 0x68 SSTORE JUMP JUMPDEST PUSH1 0x0 DUP1 PUSH1 0x0 DUP4 GT DUP1 ISZERO PUSH2 0xCAD JUMPI POP DUP3 DUP5 MLOAD LT ISZERO JUMPDEST PUSH2 0xCB6 JUMPI PUSH1 0x0 DUP1 REVERT JUMPDEST PUSH2 0xCDA PUSH1 0x40 MLOAD DUP1 PUSH1 0x60 ADD PUSH1 0x40 MSTORE DUP1 PUSH1 0x0 DUP2 MSTORE PUSH1 0x20 ADD PUSH1 0x0 DUP2 MSTORE PUSH1 0x20 ADD PUSH1 0x0 DUP2 MSTORE POP SWAP1 JUMP JUMPDEST PUSH1 0x1 JUMPDEST DUP5 DUP2 LT ISZERO PUSH2 0xE42 JUMPI DUP1 JUMPDEST PUSH1 0x0 DUP2 GT DUP1 ISZERO PUSH2 0xD58 JUMPI POP DUP7 DUP2 DUP2 MLOAD DUP2 LT PUSH2 0xD12 JUMPI PUSH4 0x4E487B71 PUSH1 0xE0 SHL PUSH1 0x0 MSTORE PUSH1 0x32 PUSH1 0x4 MSTORE PUSH1 0x24 PUSH1 0x0 REVERT JUMPDEST PUSH1 0x20 MUL PUSH1 0x20 ADD ADD MLOAD PUSH1 0x40 ADD MLOAD DUP8 PUSH1 0x1 DUP4 PUSH2 0xD2C SWAP2 SWAP1 PUSH2 0x13D8 JUMP JUMPDEST DUP2 MLOAD DUP2 LT PUSH2 0xD4A JUMPI PUSH4 0x4E487B71 PUSH1 0xE0 SHL PUSH1 0x0 MSTORE PUSH1 0x32 PUSH1 0x4 MSTORE PUSH1 0x24 PUSH1 0x0 REVERT JUMPDEST PUSH1 0x20 MUL PUSH1 0x20 ADD ADD MLOAD PUSH1 0x40 ADD MLOAD GT JUMPDEST ISZERO PUSH2 0xE2F JUMPI DUP7 DUP2 DUP2 MLOAD DUP2 LT PUSH2 0xD7D JUMPI PUSH4 0x4E487B71 PUSH1 0xE0 SHL PUSH1 0x0 MSTORE PUSH1 0x32 PUSH1 0x4 MSTORE PUSH1 0x24 PUSH1 0x0 REVERT JUMPDEST PUSH1 0x20 MUL PUSH1 0x20 ADD ADD MLOAD SWAP3 POP DUP7 PUSH1 0x1 DUP3 PUSH2 0xD95 SWAP2 SWAP1 PUSH2 0x13D8 JUMP JUMPDEST DUP2 MLOAD DUP2 LT PUSH2 0xDB3 JUMPI PUSH4 0x4E487B71 PUSH1 0xE0 SHL PUSH1 0x0 MSTORE PUSH1 0x32 PUSH1 0x4 MSTORE PUSH1 0x24 PUSH1 0x0 REVERT JUMPDEST PUSH1 0x20 MUL PUSH1 0x20 ADD ADD MLOAD DUP8 DUP3 DUP2 MLOAD DUP2 LT PUSH2 0xDDB JUMPI PUSH4 0x4E487B71 PUSH1 0xE0 SHL PUSH1 0x0 MSTORE PUSH1 0x32 PUSH1 0x4 MSTORE PUSH1 0x24 PUSH1 0x0 REVERT JUMPDEST PUSH1 0x20 SWAP1 DUP2 MUL SWAP2 SWAP1 SWAP2 ADD ADD MSTORE DUP3 DUP8 PUSH2 0xDF3 PUSH1 0x1 DUP5 PUSH2 0x13D8 JUMP JUMPDEST DUP2 MLOAD DUP2 LT PUSH2 0xE11 JUMPI PUSH4 0x4E487B71 PUSH1 0xE0 SHL PUSH1 0x0 MSTORE PUSH1 0x32 PUSH1 0x4 MSTORE PUSH1 0x24 PUSH1 0x0 REVERT JUMPDEST PUSH1 0x20 MUL PUSH1 0x20 ADD ADD DUP2 SWAP1 MSTORE POP DUP1 DUP1 PUSH2 0xE27 SWAP1 PUSH2 0x1412 JUMP JUMPDEST SWAP2 POP POP PUSH2 0xCE7 JUMP JUMPDEST POP DUP1 PUSH2 0xE3A DUP2 PUSH2 0x1429 JUMP JUMPDEST SWAP2 POP POP PUSH2 0xCDD JUMP JUMPDEST POP PUSH2 0xE4E PUSH1 0x2 DUP6 PUSH2 0x1444 JUMP JUMPDEST PUSH1 0x1 EQ ISZERO PUSH2 0xECE JUMPI DUP5 PUSH2 0xE62 PUSH1 0x2 DUP7 PUSH2 0x13C4 JUMP JUMPDEST DUP2 MLOAD DUP2 LT PUSH2 0xE80 JUMPI PUSH4 0x4E487B71 PUSH1 0xE0 SHL PUSH1 0x0 MSTORE PUSH1 0x32 PUSH1 0x4 MSTORE PUSH1 0x24 PUSH1 0x0 REVERT JUMPDEST PUSH1 0x20 MUL PUSH1 0x20 ADD ADD MLOAD PUSH1 0x40 ADD MLOAD DUP6 PUSH1 0x2 DUP7 PUSH2 0xE9A SWAP2 SWAP1 PUSH2 0x13C4 JUMP JUMPDEST DUP2 MLOAD DUP2 LT PUSH2 0xEB8 JUMPI PUSH4 0x4E487B71 PUSH1 0xE0 SHL PUSH1 0x0 MSTORE PUSH1 0x32 PUSH1 0x4 MSTORE PUSH1 0x24 PUSH1 0x0 REVERT JUMPDEST PUSH1 0x20 MUL PUSH1 0x20 ADD ADD MLOAD PUSH1 0x20 ADD MLOAD SWAP3 POP SWAP3 POP POP PUSH2 0x1035 JUMP JUMPDEST PUSH1 0x2 DUP6 PUSH1 0x1 PUSH2 0xEDD DUP4 DUP9 PUSH2 0x13C4 JUMP JUMPDEST PUSH2 0xEE7 SWAP2 SWAP1 PUSH2 0x13D8 JUMP JUMPDEST DUP2 MLOAD DUP2 LT PUSH2 0xF05 JUMPI PUSH4 0x4E487B71 PUSH1 0xE0 SHL PUSH1 0x0 MSTORE PUSH1 0x32 PUSH1 0x4 MSTORE PUSH1 0x24 PUSH1 0x0 REVERT JUMPDEST PUSH1 0x20 MUL PUSH1 0x20 ADD ADD MLOAD PUSH1 0x40 ADD MLOAD DUP7 PUSH1 0x2 DUP8 PUSH2 0xF1F SWAP2 SWAP1 PUSH2 0x13C4 JUMP JUMPDEST DUP2 MLOAD DUP2 LT PUSH2 0xF3D JUMPI PUSH4 0x4E487B71 PUSH1 0xE0 SHL PUSH1 0x0 MSTORE PUSH1 0x32 PUSH1 0x4 MSTORE PUSH1 0x24 PUSH1 0x0 REVERT JUMPDEST PUSH1 0x20 MUL PUSH1 0x20 ADD ADD MLOAD PUSH1 0x40 ADD MLOAD PUSH2 0xF53 SWAP2 SWAP1 PUSH2 0x13AC JUMP JUMPDEST PUSH2 0xF5D SWAP2 SWAP1 PUSH2 0x13C4 JUMP JUMPDEST DUP6 PUSH1 0x1 PUSH2 0xF6B PUSH1 0x2 DUP9 PUSH2 0x13C4 JUMP JUMPDEST PUSH2 0xF75 SWAP2 SWAP1 PUSH2 0x13D8 JUMP JUMPDEST DUP2 MLOAD DUP2 LT PUSH2 0xF93 JUMPI PUSH4 0x4E487B71 PUSH1 0xE0 SHL PUSH1 0x0 MSTORE PUSH1 0x32 PUSH1 0x4 MSTORE PUSH1 0x24 PUSH1 0x0 REVERT JUMPDEST PUSH1 0x20 MUL PUSH1 0x20 ADD ADD MLOAD PUSH1 0x20 ADD MLOAD DUP7 PUSH1 0x2 DUP8 PUSH2 0xFAD SWAP2 SWAP1 PUSH2 0x13C4 JUMP JUMPDEST DUP2 MLOAD DUP2 LT PUSH2 0xFCB JUMPI PUSH4 0x4E487B71 PUSH1 0xE0 SHL PUSH1 0x0 MSTORE PUSH1 0x32 PUSH1 0x4 MSTORE PUSH1 0x24 PUSH1 0x0 REVERT JUMPDEST PUSH1 0x20 MUL PUSH1 0x20 ADD ADD MLOAD PUSH1 0x20 ADD MLOAD GT PUSH2 0x1023 JUMPI DUP6 PUSH1 0x1 PUSH2 0xFEA PUSH1 0x2 DUP9 PUSH2 0x13C4 JUMP JUMPDEST PUSH2 0xFF4 SWAP2 SWAP1 PUSH2 0x13D8 JUMP JUMPDEST DUP2 MLOAD DUP2 LT PUSH2 0x1012 JUMPI PUSH4 0x4E487B71 PUSH1 0xE0 SHL PUSH1 0x0 MSTORE PUSH1 0x32 PUSH1 0x4 MSTORE PUSH1 0x24 PUSH1 0x0 REVERT JUMPDEST PUSH1 0x20 MUL PUSH1 0x20 ADD ADD MLOAD PUSH1 0x20 ADD MLOAD PUSH2 0x102F JUMP JUMPDEST DUP6 PUSH2 0xE9A PUSH1 0x2 DUP8 PUSH2 0x13C4 JUMP JUMPDEST SWAP3 POP SWAP3 POP POP JUMPDEST SWAP3 POP SWAP3 SWAP1 POP JUMP JUMPDEST PUSH2 0x109F DUP3 DUP1 SLOAD DUP1 PUSH1 0x20 MUL PUSH1 0x20 ADD PUSH1 0x40 MLOAD SWAP1 DUP2 ADD PUSH1 0x40 MSTORE DUP1 SWAP3 SWAP2 SWAP1 DUP2 DUP2 MSTORE PUSH1 0x20 ADD DUP3 DUP1 SLOAD DUP1 ISZERO PUSH2 0x1094 JUMPI PUSH1 0x20 MUL DUP3 ADD SWAP2 SWAP1 PUSH1 0x0 MSTORE PUSH1 0x20 PUSH1 0x0 KECCAK256 SWAP1 JUMPDEST DUP2 SLOAD PUSH1 0x1 PUSH1 0x1 PUSH1 0xA0 SHL SUB AND DUP2 MSTORE PUSH1 0x1 SWAP1 SWAP2 ADD SWAP1 PUSH1 0x20 ADD DUP1 DUP4 GT PUSH2 0x1076 JUMPI JUMPDEST POP POP POP POP POP DUP3 PUSH2 0x12B6 JUMP JUMPDEST PUSH2 0x10CF JUMPI DUP2 SLOAD PUSH1 0x1 DUP2 ADD DUP4 SSTORE PUSH1 0x0 DUP4 DUP2 MSTORE PUSH1 0x20 SWAP1 KECCAK256 ADD DUP1 SLOAD PUSH1 0x1 PUSH1 0x1 PUSH1 0xA0 SHL SUB NOT AND PUSH1 0x1 PUSH1 0x1 PUSH1 0xA0 SHL SUB DUP4 AND OR SWAP1 SSTORE JUMPDEST POP POP JUMP JUMPDEST DUP2 SLOAD PUSH1 0x0 SWAP1 DUP2 JUMPDEST DUP2 DUP2 LT ISZERO PUSH2 0x113E JUMPI DUP4 PUSH1 0x1 PUSH1 0x1 PUSH1 0xA0 SHL SUB AND DUP6 DUP3 DUP2 SLOAD DUP2 LT PUSH2 0x110C JUMPI PUSH4 0x4E487B71 PUSH1 0xE0 SHL PUSH1 0x0 MSTORE PUSH1 0x32 PUSH1 0x4 MSTORE PUSH1 0x24 PUSH1 0x0 REVERT JUMPDEST PUSH1 0x0 SWAP2 DUP3 MSTORE PUSH1 0x20 SWAP1 SWAP2 KECCAK256 ADD SLOAD PUSH1 0x1 PUSH1 0x1 PUSH1 0xA0 SHL SUB AND EQ ISZERO PUSH2 0x112C JUMPI PUSH2 0x113E JUMP JUMPDEST DUP1 PUSH2 0x1136 DUP2 PUSH2 0x1429 JUMP JUMPDEST SWAP2 POP POP PUSH2 0x10DA JUMP JUMPDEST DUP2 DUP2 LT ISZERO PUSH2 0x123A JUMPI PUSH2 0x1151 PUSH1 0x1 DUP4 PUSH2 0x13D8 JUMP JUMPDEST DUP2 EQ PUSH2 0x11EE JUMPI DUP5 PUSH2 0x1163 PUSH1 0x1 DUP5 PUSH2 0x13D8 JUMP JUMPDEST DUP2 SLOAD DUP2 LT PUSH2 0x1181 JUMPI PUSH4 0x4E487B71 PUSH1 0xE0 SHL PUSH1 0x0 MSTORE PUSH1 0x32 PUSH1 0x4 MSTORE PUSH1 0x24 PUSH1 0x0 REVERT JUMPDEST SWAP1 PUSH1 0x0 MSTORE PUSH1 0x20 PUSH1 0x0 KECCAK256 ADD PUSH1 0x0 SWAP1 SLOAD SWAP1 PUSH2 0x100 EXP SWAP1 DIV PUSH1 0x1 PUSH1 0x1 PUSH1 0xA0 SHL SUB AND DUP6 DUP3 DUP2 SLOAD DUP2 LT PUSH2 0x11BF JUMPI PUSH4 0x4E487B71 PUSH1 0xE0 SHL PUSH1 0x0 MSTORE PUSH1 0x32 PUSH1 0x4 MSTORE PUSH1 0x24 PUSH1 0x0 REVERT JUMPDEST SWAP1 PUSH1 0x0 MSTORE PUSH1 0x20 PUSH1 0x0 KECCAK256 ADD PUSH1 0x0 PUSH2 0x100 EXP DUP2 SLOAD DUP2 PUSH1 0x1 PUSH1 0x1 PUSH1 0xA0 SHL SUB MUL NOT AND SWAP1 DUP4 PUSH1 0x1 PUSH1 0x1 PUSH1 0xA0 SHL SUB AND MUL OR SWAP1 SSTORE POP JUMPDEST DUP5 DUP1 SLOAD DUP1 PUSH2 0x120C JUMPI PUSH4 0x4E487B71 PUSH1 0xE0 SHL PUSH1 0x0 MSTORE PUSH1 0x31 PUSH1 0x4 MSTORE PUSH1 0x24 PUSH1 0x0 REVERT JUMPDEST PUSH1 0x0 DUP3 DUP2 MSTORE PUSH1 0x20 SWAP1 KECCAK256 DUP2 ADD PUSH1 0x0 NOT SWAP1 DUP2 ADD DUP1 SLOAD PUSH1 0x1 PUSH1 0x1 PUSH1 0xA0 SHL SUB NOT AND SWAP1 SSTORE ADD SWAP1 SSTORE POP PUSH1 0x1 SWAP2 POP PUSH2 0x1241 SWAP1 POP JUMP JUMPDEST PUSH1 0x0 SWAP3 POP POP POP JUMPDEST SWAP3 SWAP2 POP POP JUMP JUMPDEST PUSH1 0x1 PUSH1 0x1 PUSH1 0xA0 SHL SUB DUP2 AND PUSH2 0x125A JUMPI PUSH1 0x0 DUP1 REVERT JUMPDEST PUSH1 0x33 SLOAD PUSH1 0x40 MLOAD PUSH1 0x1 PUSH1 0x1 PUSH1 0xA0 SHL SUB DUP1 DUP5 AND SWAP3 AND SWAP1 PUSH32 0x8BE0079C531659141344CD1FD0A4F28419497F9722A3DAAFE3B4186F6B6457E0 SWAP1 PUSH1 0x0 SWAP1 LOG3 PUSH1 0x33 DUP1 SLOAD PUSH1 0x1 PUSH1 0x1 PUSH1 0xA0 SHL SUB NOT AND PUSH1 0x1 PUSH1 0x1 PUSH1 0xA0 SHL SUB SWAP3 SWAP1 SWAP3 AND SWAP2 SWAP1 SWAP2 OR SWAP1 SSTORE JUMP JUMPDEST DUP2 MLOAD PUSH1 0x0 SWAP1 DUP2 JUMPDEST DUP2 DUP2 LT ISZERO PUSH2 0x1323 JUMPI DUP4 PUSH1 0x1 PUSH1 0x1 PUSH1 0xA0 SHL SUB AND DUP6 DUP3 DUP2 MLOAD DUP2 LT PUSH2 0x12EF JUMPI PUSH4 0x4E487B71 PUSH1 0xE0 SHL PUSH1 0x0 MSTORE PUSH1 0x32 PUSH1 0x4 MSTORE PUSH1 0x24 PUSH1 0x0 REVERT JUMPDEST PUSH1 0x20 MUL PUSH1 0x20 ADD ADD MLOAD PUSH1 0x1 PUSH1 0x1 PUSH1 0xA0 SHL SUB AND EQ ISZERO PUSH2 0x1311 JUMPI PUSH1 0x1 SWAP3 POP POP POP PUSH2 0x1241 JUMP JUMPDEST DUP1 PUSH2 0x131B DUP2 PUSH2 0x1429 JUMP JUMPDEST SWAP2 POP POP PUSH2 0x12BD JUMP JUMPDEST POP PUSH1 0x0 SWAP5 SWAP4 POP POP POP POP JUMP JUMPDEST DUP1 CALLDATALOAD PUSH1 0x1 PUSH1 0x1 PUSH1 0xA0 SHL SUB DUP2 AND DUP2 EQ PUSH2 0x1345 JUMPI PUSH1 0x0 DUP1 REVERT JUMPDEST SWAP2 SWAP1 POP JUMP JUMPDEST PUSH1 0x0 PUSH1 0x20 DUP3 DUP5 SUB SLT ISZERO PUSH2 0x135B JUMPI DUP1 DUP2 REVERT JUMPDEST PUSH2 0x1364 DUP3 PUSH2 0x132E JUMP JUMPDEST SWAP4 SWAP3 POP POP POP JUMP JUMPDEST PUSH1 0x0 DUP1 PUSH1 0x40 DUP4 DUP6 SUB SLT ISZERO PUSH2 0x137D JUMPI DUP1 DUP2 REVERT JUMPDEST PUSH2 0x1386 DUP4 PUSH2 0x132E JUMP JUMPDEST SWAP5 PUSH1 0x20 SWAP4 SWAP1 SWAP4 ADD CALLDATALOAD SWAP4 POP POP POP JUMP JUMPDEST PUSH1 0x0 PUSH1 0x20 DUP3 DUP5 SUB SLT ISZERO PUSH2 0x13A5 JUMPI DUP1 DUP2 REVERT JUMPDEST POP CALLDATALOAD SWAP2 SWAP1 POP JUMP JUMPDEST PUSH1 0x0 DUP3 NOT DUP3 GT ISZERO PUSH2 0x13BF JUMPI PUSH2 0x13BF PUSH2 0x1458 JUMP JUMPDEST POP ADD SWAP1 JUMP JUMPDEST PUSH1 0x0 DUP3 PUSH2 0x13D3 JUMPI PUSH2 0x13D3 PUSH2 0x146E JUMP JUMPDEST POP DIV SWAP1 JUMP JUMPDEST PUSH1 0x0 DUP3 DUP3 LT ISZERO PUSH2 0x13EA JUMPI PUSH2 0x13EA PUSH2 0x1458 JUMP JUMPDEST POP SUB SWAP1 JUMP JUMPDEST PUSH1 0x0 PUSH1 0xFF DUP3 AND PUSH1 0xFF DUP5 AND DUP1 DUP3 LT ISZERO PUSH2 0x1409 JUMPI PUSH2 0x1409 PUSH2 0x1458 JUMP JUMPDEST SWAP1 SUB SWAP4 SWAP3 POP POP POP JUMP JUMPDEST PUSH1 0x0 DUP2 PUSH2 0x1421 JUMPI PUSH2 0x1421 PUSH2 0x1458 JUMP JUMPDEST POP PUSH1 0x0 NOT ADD SWAP1 JUMP JUMPDEST PUSH1 0x0 PUSH1 0x0 NOT DUP3 EQ ISZERO PUSH2 0x143D JUMPI PUSH2 0x143D PUSH2 0x1458 JUMP JUMPDEST POP PUSH1 0x1 ADD SWAP1 JUMP JUMPDEST PUSH1 0x0 DUP3 PUSH2 0x1453 JUMPI PUSH2 0x1453 PUSH2 0x146E JUMP JUMPDEST POP MOD SWAP1 JUMP JUMPDEST PUSH4 0x4E487B71 PUSH1 0xE0 SHL PUSH1 0x0 MSTORE PUSH1 0x11 PUSH1 0x4 MSTORE PUSH1 0x24 PUSH1 0x0 REVERT JUMPDEST PUSH4 0x4E487B71 PUSH1 0xE0 SHL PUSH1 0x0 MSTORE PUSH1 0x12 PUSH1 0x4 MSTORE PUSH1 0x24 PUSH1 0x0 REVERT INVALID LOG2 PUSH5 0x6970667358 0x22 SLT KECCAK256 SWAP13 0x2F CALLVALUE RETURN 0xF6 0x2D 0xD2 TIMESTAMP DUP12 0xCF SWAP13 PUSH1 0xDB 0xCD PUSH27 0xACB8EA245C3CF1454CEC0387A11E72D1F564736F6C634300080300 CALLER "
		},
		"gasEstimates": {
			"creation": {
				"codeDepositCost": "1061200",
				"executionCost": "infinite",
				"totalCost": "infinite"
			},
			"external": {
				"addProvider(address)": "infinite",
				"getData()": "infinite",
				"initialize(address)": "44487",
				"isOwner()": "1135",
				"minimumProviders()": "1007",
				"owner()": "1120",
				"providerReports(address,uint256)": "3034",
				"providers(uint256)": "2037",
				"providersSize()": "1092",
				"purgeReports()": "41204",
				"pushReport(uint256)": "65087",
				"removeProvider(address)": "infinite",
				"renounceOwnership()": "23847",
				"reportDelaySec()": "1008",
				"reportExpirationTimeSec()": "1006",
				"setMinimumProviders(uint256)": "21146",
				"setReportDelaySec(uint256)": "21168",
				"setReportExpirationTimeSec(uint256)": "21215",
				"transferOwnership(address)": "24532"
			}
		},
		"methodIdentifiers": {
			"addProvider(address)": "46e2577a",
			"getData()": "3bc5de30",
			"initialize(address)": "c4d66de8",
			"isOwner()": "8f32d59b",
			"minimumProviders()": "b577c0c7",
			"owner()": "8da5cb5b",
			"providerReports(address,uint256)": "f10864b6",
			"providers(uint256)": "50f3fc81",
			"providersSize()": "dcbb8253",
			"purgeReports()": "d13d5971",
			"pushReport(uint256)": "1e20d14b",
			"removeProvider(address)": "8a355a57",
			"renounceOwnership()": "715018a6",
			"reportDelaySec()": "12e800f1",
			"reportExpirationTimeSec()": "df982985",
			"setMinimumProviders(uint256)": "ef35bcce",
			"setReportDelaySec(uint256)": "da6b0eea",
			"setReportExpirationTimeSec(uint256)": "f68be513",
			"transferOwnership(address)": "f2fde38b"
		}
	},
	"abi": [
		{
			"inputs": [
				{
					"internalType": "uint256",
					"name": "reportExpirationTimeSec_",
					"type": "uint256"
				},
				{
					"internalType": "uint256",
					"name": "reportDelaySec_",
					"type": "uint256"
				},
				{
					"internalType": "uint256",
					"name": "minimumProviders_",
					"type": "uint256"
				}
			],
			"stateMutability": "nonpayable",
			"type": "constructor"
		},
		{
			"anonymous": false,
			"inputs": [
				{
					"indexed": true,
					"internalType": "address",
					"name": "previousOwner",
					"type": "address"
				}
			],
			"name": "OwnershipRenounced",
			"type": "event"
		},
		{
			"anonymous": false,
			"inputs": [
				{
					"indexed": true,
					"internalType": "address",
					"name": "previousOwner",
					"type": "address"
				},
				{
					"indexed": true,
					"internalType": "address",
					"name": "newOwner",
					"type": "address"
				}
			],
			"name": "OwnershipTransferred",
			"type": "event"
		},
		{
			"anonymous": false,
			"inputs": [
				{
					"indexed": false,
					"internalType": "address",
					"name": "provider",
					"type": "address"
				}
			],
			"name": "ProviderAdded",
			"type": "event"
		},
		{
			"anonymous": false,
			"inputs": [
				{
					"indexed": false,
					"internalType": "address",
					"name": "provider",
					"type": "address"
				}
			],
			"name": "ProviderRemoved",
			"type": "event"
		},
		{
			"anonymous": false,
			"inputs": [
				{
					"indexed": true,
					"internalType": "address",
					"name": "provider",
					"type": "address"
				},
				{
					"indexed": false,
					"internalType": "uint256",
					"name": "payload",
					"type": "uint256"
				},
				{
					"indexed": false,
					"internalType": "uint256",
					"name": "timestamp",
					"type": "uint256"
				}
			],
			"name": "ProviderReportPushed",
			"type": "event"
		},
		{
			"inputs": [
				{
					"internalType": "address",
					"name": "provider",
					"type": "address"
				}
			],
			"name": "addProvider",
			"outputs": [],
			"stateMutability": "nonpayable",
			"type": "function"
		},
		{
			"inputs": [],
			"name": "getData",
			"outputs": [
				{
					"internalType": "uint256",
					"name": "",
					"type": "uint256"
				},
				{
					"internalType": "uint256",
					"name": "",
					"type": "uint256"
				},
				{
					"internalType": "bool",
					"name": "",
					"type": "bool"
				}
			],
			"stateMutability": "view",
			"type": "function"
		},
		{
			"inputs": [
				{
					"internalType": "address",
					"name": "sender",
					"type": "address"
				}
			],
			"name": "initialize",
			"outputs": [],
			"stateMutability": "nonpayable",
			"type": "function"
		},
		{
			"inputs": [],
			"name": "isOwner",
			"outputs": [
				{
					"internalType": "bool",
					"name": "",
					"type": "bool"
				}
			],
			"stateMutability": "view",
			"type": "function"
		},
		{
			"inputs": [],
			"name": "minimumProviders",
			"outputs": [
				{
					"internalType": "uint256",
					"name": "",
					"type": "uint256"
				}
			],
			"stateMutability": "view",
			"type": "function"
		},
		{
			"inputs": [],
			"name": "owner",
			"outputs": [
				{
					"internalType": "address",
					"name": "",
					"type": "address"
				}
			],
			"stateMutability": "view",
			"type": "function"
		},
		{
			"inputs": [
				{
					"internalType": "address",
					"name": "",
					"type": "address"
				},
				{
					"internalType": "uint256",
					"name": "",
					"type": "uint256"
				}
			],
			"name": "providerReports",
			"outputs": [
				{
					"internalType": "uint256",
					"name": "timestamp",
					"type": "uint256"
				},
				{
					"internalType": "uint256",
					"name": "blockNumber",
					"type": "uint256"
				},
				{
					"internalType": "uint256",
					"name": "payload",
					"type": "uint256"
				}
			],
			"stateMutability": "view",
			"type": "function"
		},
		{
			"inputs": [
				{
					"internalType": "uint256",
					"name": "",
					"type": "uint256"
				}
			],
			"name": "providers",
			"outputs": [
				{
					"internalType": "address",
					"name": "",
					"type": "address"
				}
			],
			"stateMutability": "view",
			"type": "function"
		},
		{
			"inputs": [],
			"name": "providersSize",
			"outputs": [
				{
					"internalType": "uint256",
					"name": "",
					"type": "uint256"
				}
			],
			"stateMutability": "view",
			"type": "function"
		},
		{
			"inputs": [],
			"name": "purgeReports",
			"outputs": [],
			"stateMutability": "nonpayable",
			"type": "function"
		},
		{
			"inputs": [
				{
					"internalType": "uint256",
					"name": "payload",
					"type": "uint256"
				}
			],
			"name": "pushReport",
			"outputs": [],
			"stateMutability": "nonpayable",
			"type": "function"
		},
		{
			"inputs": [
				{
					"internalType": "address",
					"name": "provider",
					"type": "address"
				}
			],
			"name": "removeProvider",
			"outputs": [],
			"stateMutability": "nonpayable",
			"type": "function"
		},
		{
			"inputs": [],
			"name": "renounceOwnership",
			"outputs": [],
			"stateMutability": "nonpayable",
			"type": "function"
		},
		{
			"inputs": [],
			"name": "reportDelaySec",
			"outputs": [
				{
					"internalType": "uint256",
					"name": "",
					"type": "uint256"
				}
			],
			"stateMutability": "view",
			"type": "function"
		},
		{
			"inputs": [],
			"name": "reportExpirationTimeSec",
			"outputs": [
				{
					"internalType": "uint256",
					"name": "",
					"type": "uint256"
				}
			],
			"stateMutability": "view",
			"type": "function"
		},
		{
			"inputs": [
				{
					"internalType": "uint256",
					"name": "minimumProviders_",
					"type": "uint256"
				}
			],
			"name": "setMinimumProviders",
			"outputs": [],
			"stateMutability": "nonpayable",
			"type": "function"
		},
		{
			"inputs": [
				{
					"internalType": "uint256",
					"name": "reportDelaySec_",
					"type": "uint256"
				}
			],
			"name": "setReportDelaySec",
			"outputs": [],
			"stateMutability": "nonpayable",
			"type": "function"
		},
		{
			"inputs": [
				{
					"internalType": "uint256",
					"name": "reportExpirationTimeSec_",
					"type": "uint256"
				}
			],
			"name": "setReportExpirationTimeSec",
			"outputs": [],
			"stateMutability": "nonpayable",
			"type": "function"
		},
		{
			"inputs": [
				{
					"internalType": "address",
					"name": "newOwner",
					"type": "address"
				}
			],
			"name": "transferOwnership",
			"outputs": [],
			"stateMutability": "nonpayable",
			"type": "function"
		}
	]
}