{
	"data": {
		"bytecode": {
			"linkReferences": {},
			"object": "608060405234801561001057600080fd5b506100243361002960201b6106861760201c565b6100f8565b600054610100900460ff168061003e5750303b155b8061004c575060005460ff16155b6100b35760405162461bcd60e51b815260206004820152602e60248201527f436f6e747261637420696e7374616e63652068617320616c726561647920626560448201526d195b881a5b9a5d1a585b1a5e995960921b606482015260840160405180910390fd5b60008054603380546001600160a01b0319166001600160a01b03949094169390931790925561ffff1982166101009283900460ff161515909202919091176001179055565b610eb7806101076000396000f3fe608060405234801561001057600080fd5b50600436106100a95760003560e01c80638f32d59b116100715780638f32d59b1461011157806391d4ec18146101355780639ace38c214610146578063c4d66de814610168578063d0df13741461017b578063f2fde38b1461018e576100a9565b8063126e19be146100ae57806346c3bd1f146100c35780636e9dde99146100d6578063715018a6146100e95780638da5cb5b146100f1575b600080fd5b6100c16100bc366004610ba6565b6101a1565b005b6100c16100d1366004610c81565b61028e565b6100c16100e4366004610c99565b610465565b6100c1610554565b6033546040516001600160a01b0390911681526020015b60405180910390f35b6101256033546001600160a01b0316331490565b6040519015158152602001610108565b606654604051908152602001610108565b610159610154366004610c81565b6105bb565b60405161010893929190610d67565b6100c1610176366004610b83565b610686565b6100c1610189366004610b83565b610751565b6100c161019c366004610b83565b61099f565b6101b56033546001600160a01b0316331490565b6101be57600080fd5b6040805160608101825260018082526001600160a01b038086166020808501918252948401868152606680549485018155600052845160029094027f46501879b8ca8525e8c2fd519e2fbfcfa2ebea26501294aa02cbfcfb12e9435481018054935190941661010002610100600160a81b0319951515959095166001600160a81b0319909316929092179390931782559151805193949193610287937f46501879b8ca8525e8c2fd519e2fbfcfa2ebea26501294aa02cbfcfb12e9435501929190910190610a37565b5050505050565b6102a26033546001600160a01b0316331490565b6102ab57600080fd5b606654811061031e5760405162461bcd60e51b815260206004820152603460248201527f4f7263686573747261746f723a3a72656d6f76655472616e73616374696f6e3a60448201527320696e646578206f7574206f6620626f756e647360601b60648201526084015b60405180910390fd5b60665461032d90600190610dd3565b81101561040e576066805461034490600190610dd3565b8154811061036257634e487b7160e01b600052603260045260246000fd5b90600052602060002090600202016066828154811061039157634e487b7160e01b600052603260045260246000fd5b600091825260209091208254600290920201805460ff909216151560ff1983168117825583546001600160a01b03610100918290041602610100600160a81b03199091166001600160a81b03199093169290921791909117815560018083018054918301916103ff90610dea565b61040a929190610abb565b5050505b606680548061042d57634e487b7160e01b600052603160045260246000fd5b60008281526020812060026000199093019283020180546001600160a81b03191681559061045e6001830182610b36565b5050905550565b6104796033546001600160a01b0316331490565b61048257600080fd5b606654821061050f5760405162461bcd60e51b815260206004820152604d60248201527f4f7263686573747261746f723a3a7365745472616e73616374696f6e456e616260448201527f6c65643a20696e646578206d75737420626520696e2072616e6765206f66207360648201526c1d1bdc9959081d1e081b1a5cdd609a1b608482015260a401610315565b806066838154811061053157634e487b7160e01b600052603260045260246000fd5b60009182526020909120600290910201805460ff19169115159190911790555050565b6105686033546001600160a01b0316331490565b61057157600080fd5b6033546040516001600160a01b03909116907ff8df31144d9c2f0f6b59d69b8b98abd5459d07f2742c4df920b25aae33c6482090600090a2603380546001600160a01b0319169055565b606681815481106105cb57600080fd5b60009182526020909120600290910201805460018201805460ff831694506101009092046001600160a01b0316929161060390610dea565b80601f016020809104026020016040519081016040528092919081815260200182805461062f90610dea565b801561067c5780601f106106515761010080835404028352916020019161067c565b820191906000526020600020905b81548152906001019060200180831161065f57829003601f168201915b5050505050905083565b600054610100900460ff168061069b5750303b155b806106a9575060005460ff16155b61070c5760405162461bcd60e51b815260206004820152602e60248201527f436f6e747261637420696e7374616e63652068617320616c726561647920626560448201526d195b881a5b9a5d1a585b1a5e995960921b6064820152608401610315565b60008054603380546001600160a01b0319166001600160a01b03949094169390931790925561ffff1982166101009283900460ff161515909202919091176001179055565b6000816001600160a01b031663bbb1863a6040518163ffffffff1660e01b815260040160206040518083038186803b15801561078c57600080fd5b505afa1580156107a0573d6000803e3d6000fd5b505050506040513d601f19601f820116820180604052508101906107c49190610c65565b90506001600160a01b03811661081c5760405162461bcd60e51b815260206004820152601e60248201527f434242433a205245424153455f504f4c4943595f4e4f545f45584953542e00006044820152606401610315565b806001600160a01b031663af14052c6040518163ffffffff1660e01b8152600401600060405180830381600087803b15801561085757600080fd5b505af115801561086b573d6000803e3d6000fd5b5050505060005b60665481101561099a5760006066828154811061089f57634e487b7160e01b600052603260045260246000fd5b60009182526020909120600290910201805490915060ff161561098757805460405160009161010090046001600160a01b0316906108e1906001850190610ccc565b6000604051808303816000865af19150503d806000811461091e576040519150601f19603f3d011682016040523d82523d6000602084013e610923565b606091505b50509050806109855760405162461bcd60e51b815260206004820152602860248201527f4f7263686573747261746f723a3a7265626173653a205472616e73616374696f6044820152671b8811985a5b195960c21b6064820152608401610315565b505b508061099281610e25565b915050610872565b505050565b6109b36033546001600160a01b0316331490565b6109bc57600080fd5b6109c5816109c8565b50565b6001600160a01b0381166109db57600080fd5b6033546040516001600160a01b038084169216907f8be0079c531659141344cd1fd0a4f28419497f9722a3daafe3b4186f6b6457e090600090a3603380546001600160a01b0319166001600160a01b0392909216919091179055565b828054610a4390610dea565b90600052602060002090601f016020900481019282610a655760008555610aab565b82601f10610a7e57805160ff1916838001178555610aab565b82800160010185558215610aab579182015b82811115610aab578251825591602001919060010190610a90565b50610ab7929150610b6e565b5090565b828054610ac790610dea565b90600052602060002090601f016020900481019282610ae95760008555610aab565b82601f10610afa5780548555610aab565b82800160010185558215610aab57600052602060002091601f016020900482015b82811115610aab578254825591600101919060010190610b1b565b508054610b4290610dea565b6000825580601f10610b5457506109c5565b601f0160209004906000526020600020908101906109c591905b5b80821115610ab75760008155600101610b6f565b600060208284031215610b94578081fd5b8135610b9f81610e6c565b9392505050565b60008060408385031215610bb8578081fd5b8235610bc381610e6c565b9150602083013567ffffffffffffffff80821115610bdf578283fd5b818501915085601f830112610bf2578283fd5b813581811115610c0457610c04610e56565b604051601f8201601f19908116603f01168101908382118183101715610c2c57610c2c610e56565b81604052828152886020848701011115610c44578586fd5b82602086016020830137856020848301015280955050505050509250929050565b600060208284031215610c76578081fd5b8151610b9f81610e6c565b600060208284031215610c92578081fd5b5035919050565b60008060408385031215610cab578182fd5b8235915060208301358015158114610cc1578182fd5b809150509250929050565b600080835482600182811c915080831680610ce857607f831692505b6020808410821415610d0857634e487b7160e01b87526022600452602487fd5b818015610d1c5760018114610d2d57610d59565b60ff19861689528489019650610d59565b60008a815260209020885b86811015610d515781548b820152908501908301610d38565b505084890196505b509498975050505050505050565b60008415158252602060018060a01b03851681840152606060408401528351806060850152825b81811015610daa57858101830151858201608001528201610d8e565b81811115610dbb5783608083870101525b50601f01601f19169290920160800195945050505050565b600082821015610de557610de5610e40565b500390565b600181811c90821680610dfe57607f821691505b60208210811415610e1f57634e487b7160e01b600052602260045260246000fd5b50919050565b6000600019821415610e3957610e39610e40565b5060010190565b634e487b7160e01b600052601160045260246000fd5b634e487b7160e01b600052604160045260246000fd5b6001600160a01b03811681146109c557600080fdfea2646970667358221220d0a085afc573041ca573a91a9507816743fb9225a2add122e829cae2340f250564736f6c63430008030033",
			"opcodes": "PUSH1 0x80 PUSH1 0x40 MSTORE CALLVALUE DUP1 ISZERO PUSH2 0x10 JUMPI PUSH1 0x0 DUP1 REVERT JUMPDEST POP PUSH2 0x24 CALLER PUSH2 0x29 PUSH1 0x20 SHL PUSH2 0x686 OR PUSH1 0x20 SHR JUMP JUMPDEST PUSH2 0xF8 JUMP JUMPDEST PUSH1 0x0 SLOAD PUSH2 0x100 SWAP1 DIV PUSH1 0xFF AND DUP1 PUSH2 0x3E JUMPI POP ADDRESS EXTCODESIZE ISZERO JUMPDEST DUP1 PUSH2 0x4C JUMPI POP PUSH1 0x0 SLOAD PUSH1 0xFF AND ISZERO JUMPDEST PUSH2 0xB3 JUMPI PUSH1 0x40 MLOAD PUSH3 0x461BCD PUSH1 0xE5 SHL DUP2 MSTORE PUSH1 0x20 PUSH1 0x4 DUP3 ADD MSTORE PUSH1 0x2E PUSH1 0x24 DUP3 ADD MSTORE PUSH32 0x436F6E747261637420696E7374616E63652068617320616C7265616479206265 PUSH1 0x44 DUP3 ADD MSTORE PUSH14 0x195B881A5B9A5D1A585B1A5E9959 PUSH1 0x92 SHL PUSH1 0x64 DUP3 ADD MSTORE PUSH1 0x84 ADD PUSH1 0x40 MLOAD DUP1 SWAP2 SUB SWAP1 REVERT JUMPDEST PUSH1 0x0 DUP1 SLOAD PUSH1 0x33 DUP1 SLOAD PUSH1 0x1 PUSH1 0x1 PUSH1 0xA0 SHL SUB NOT AND PUSH1 0x1 PUSH1 0x1 PUSH1 0xA0 SHL SUB SWAP5 SWAP1 SWAP5 AND SWAP4 SWAP1 SWAP4 OR SWAP1 SWAP3 SSTORE PUSH2 0xFFFF NOT DUP3 AND PUSH2 0x100 SWAP3 DUP4 SWAP1 DIV PUSH1 0xFF AND ISZERO ISZERO SWAP1 SWAP3 MUL SWAP2 SWAP1 SWAP2 OR PUSH1 0x1 OR SWAP1 SSTORE JUMP JUMPDEST PUSH2 0xEB7 DUP1 PUSH2 0x107 PUSH1 0x0 CODECOPY PUSH1 0x0 RETURN INVALID PUSH1 0x80 PUSH1 0x40 MSTORE CALLVALUE DUP1 ISZERO PUSH2 0x10 JUMPI PUSH1 0x0 DUP1 REVERT JUMPDEST POP PUSH1 0x4 CALLDATASIZE LT PUSH2 0xA9 JUMPI PUSH1 0x0 CALLDATALOAD PUSH1 0xE0 SHR DUP1 PUSH4 0x8F32D59B GT PUSH2 0x71 JUMPI DUP1 PUSH4 0x8F32D59B EQ PUSH2 0x111 JUMPI DUP1 PUSH4 0x91D4EC18 EQ PUSH2 0x135 JUMPI DUP1 PUSH4 0x9ACE38C2 EQ PUSH2 0x146 JUMPI DUP1 PUSH4 0xC4D66DE8 EQ PUSH2 0x168 JUMPI DUP1 PUSH4 0xD0DF1374 EQ PUSH2 0x17B JUMPI DUP1 PUSH4 0xF2FDE38B EQ PUSH2 0x18E JUMPI PUSH2 0xA9 JUMP JUMPDEST DUP1 PUSH4 0x126E19BE EQ PUSH2 0xAE JUMPI DUP1 PUSH4 0x46C3BD1F EQ PUSH2 0xC3 JUMPI DUP1 PUSH4 0x6E9DDE99 EQ PUSH2 0xD6 JUMPI DUP1 PUSH4 0x715018A6 EQ PUSH2 0xE9 JUMPI DUP1 PUSH4 0x8DA5CB5B EQ PUSH2 0xF1 JUMPI JUMPDEST PUSH1 0x0 DUP1 REVERT JUMPDEST PUSH2 0xC1 PUSH2 0xBC CALLDATASIZE PUSH1 0x4 PUSH2 0xBA6 JUMP JUMPDEST PUSH2 0x1A1 JUMP JUMPDEST STOP JUMPDEST PUSH2 0xC1 PUSH2 0xD1 CALLDATASIZE PUSH1 0x4 PUSH2 0xC81 JUMP JUMPDEST PUSH2 0x28E JUMP JUMPDEST PUSH2 0xC1 PUSH2 0xE4 CALLDATASIZE PUSH1 0x4 PUSH2 0xC99 JUMP JUMPDEST PUSH2 0x465 JUMP JUMPDEST PUSH2 0xC1 PUSH2 0x554 JUMP JUMPDEST PUSH1 0x33 SLOAD PUSH1 0x40 MLOAD PUSH1 0x1 PUSH1 0x1 PUSH1 0xA0 SHL SUB SWAP1 SWAP2 AND DUP2 MSTORE PUSH1 0x20 ADD JUMPDEST PUSH1 0x40 MLOAD DUP1 SWAP2 SUB SWAP1 RETURN JUMPDEST PUSH2 0x125 PUSH1 0x33 SLOAD PUSH1 0x1 PUSH1 0x1 PUSH1 0xA0 SHL SUB AND CALLER EQ SWAP1 JUMP JUMPDEST PUSH1 0x40 MLOAD SWAP1 ISZERO ISZERO DUP2 MSTORE PUSH1 0x20 ADD PUSH2 0x108 JUMP JUMPDEST PUSH1 0x66 SLOAD PUSH1 0x40 MLOAD SWAP1 DUP2 MSTORE PUSH1 0x20 ADD PUSH2 0x108 JUMP JUMPDEST PUSH2 0x159 PUSH2 0x154 CALLDATASIZE PUSH1 0x4 PUSH2 0xC81 JUMP JUMPDEST PUSH2 0x5BB JUMP JUMPDEST PUSH1 0x40 MLOAD PUSH2 0x108 SWAP4 SWAP3 SWAP2 SWAP1 PUSH2 0xD67 JUMP JUMPDEST PUSH2 0xC1 PUSH2 0x176 CALLDATASIZE PUSH1 0x4 PUSH2 0xB83 JUMP JUMPDEST PUSH2 0x686 JUMP JUMPDEST PUSH2 0xC1 PUSH2 0x189 CALLDATASIZE PUSH1 0x4 PUSH2 0xB83 JUMP JUMPDEST PUSH2 0x751 JUMP JUMPDEST PUSH2 0xC1 PUSH2 0x19C CALLDATASIZE PUSH1 0x4 PUSH2 0xB83 JUMP JUMPDEST PUSH2 0x99F JUMP JUMPDEST PUSH2 0x1B5 PUSH1 0x33 SLOAD PUSH1 0x1 PUSH1 0x1 PUSH1 0xA0 SHL SUB AND CALLER EQ SWAP1 JUMP JUMPDEST PUSH2 0x1BE JUMPI PUSH1 0x0 DUP1 REVERT JUMPDEST PUSH1 0x40 DUP1 MLOAD PUSH1 0x60 DUP2 ADD DUP3 MSTORE PUSH1 0x1 DUP1 DUP3 MSTORE PUSH1 0x1 PUSH1 0x1 PUSH1 0xA0 SHL SUB DUP1 DUP7 AND PUSH1 0x20 DUP1 DUP6 ADD SWAP2 DUP3 MSTORE SWAP5 DUP5 ADD DUP7 DUP2 MSTORE PUSH1 0x66 DUP1 SLOAD SWAP5 DUP6 ADD DUP2 SSTORE PUSH1 0x0 MSTORE DUP5 MLOAD PUSH1 0x2 SWAP1 SWAP5 MUL PUSH32 0x46501879B8CA8525E8C2FD519E2FBFCFA2EBEA26501294AA02CBFCFB12E94354 DUP2 ADD DUP1 SLOAD SWAP4 MLOAD SWAP1 SWAP5 AND PUSH2 0x100 MUL PUSH2 0x100 PUSH1 0x1 PUSH1 0xA8 SHL SUB NOT SWAP6 ISZERO ISZERO SWAP6 SWAP1 SWAP6 AND PUSH1 0x1 PUSH1 0x1 PUSH1 0xA8 SHL SUB NOT SWAP1 SWAP4 AND SWAP3 SWAP1 SWAP3 OR SWAP4 SWAP1 SWAP4 OR DUP3 SSTORE SWAP2 MLOAD DUP1 MLOAD SWAP4 SWAP5 SWAP2 SWAP4 PUSH2 0x287 SWAP4 PUSH32 0x46501879B8CA8525E8C2FD519E2FBFCFA2EBEA26501294AA02CBFCFB12E94355 ADD SWAP3 SWAP2 SWAP1 SWAP2 ADD SWAP1 PUSH2 0xA37 JUMP JUMPDEST POP POP POP POP POP JUMP JUMPDEST PUSH2 0x2A2 PUSH1 0x33 SLOAD PUSH1 0x1 PUSH1 0x1 PUSH1 0xA0 SHL SUB AND CALLER EQ SWAP1 JUMP JUMPDEST PUSH2 0x2AB JUMPI PUSH1 0x0 DUP1 REVERT JUMPDEST PUSH1 0x66 SLOAD DUP2 LT PUSH2 0x31E JUMPI PUSH1 0x40 MLOAD PUSH3 0x461BCD PUSH1 0xE5 SHL DUP2 MSTORE PUSH1 0x20 PUSH1 0x4 DUP3 ADD MSTORE PUSH1 0x34 PUSH1 0x24 DUP3 ADD MSTORE PUSH32 0x4F7263686573747261746F723A3A72656D6F76655472616E73616374696F6E3A PUSH1 0x44 DUP3 ADD MSTORE PUSH20 0x20696E646578206F7574206F6620626F756E6473 PUSH1 0x60 SHL PUSH1 0x64 DUP3 ADD MSTORE PUSH1 0x84 ADD JUMPDEST PUSH1 0x40 MLOAD DUP1 SWAP2 SUB SWAP1 REVERT JUMPDEST PUSH1 0x66 SLOAD PUSH2 0x32D SWAP1 PUSH1 0x1 SWAP1 PUSH2 0xDD3 JUMP JUMPDEST DUP2 LT ISZERO PUSH2 0x40E JUMPI PUSH1 0x66 DUP1 SLOAD PUSH2 0x344 SWAP1 PUSH1 0x1 SWAP1 PUSH2 0xDD3 JUMP JUMPDEST DUP2 SLOAD DUP2 LT PUSH2 0x362 JUMPI PUSH4 0x4E487B71 PUSH1 0xE0 SHL PUSH1 0x0 MSTORE PUSH1 0x32 PUSH1 0x4 MSTORE PUSH1 0x24 PUSH1 0x0 REVERT JUMPDEST SWAP1 PUSH1 0x0 MSTORE PUSH1 0x20 PUSH1 0x0 KECCAK256 SWAP1 PUSH1 0x2 MUL ADD PUSH1 0x66 DUP3 DUP2 SLOAD DUP2 LT PUSH2 0x391 JUMPI PUSH4 0x4E487B71 PUSH1 0xE0 SHL PUSH1 0x0 MSTORE PUSH1 0x32 PUSH1 0x4 MSTORE PUSH1 0x24 PUSH1 0x0 REVERT JUMPDEST PUSH1 0x0 SWAP2 DUP3 MSTORE PUSH1 0x20 SWAP1 SWAP2 KECCAK256 DUP3 SLOAD PUSH1 0x2 SWAP1 SWAP3 MUL ADD DUP1 SLOAD PUSH1 0xFF SWAP1 SWAP3 AND ISZERO ISZERO PUSH1 0xFF NOT DUP4 AND DUP2 OR DUP3 SSTORE DUP4 SLOAD PUSH1 0x1 PUSH1 0x1 PUSH1 0xA0 SHL SUB PUSH2 0x100 SWAP2 DUP3 SWAP1 DIV AND MUL PUSH2 0x100 PUSH1 0x1 PUSH1 0xA8 SHL SUB NOT SWAP1 SWAP2 AND PUSH1 0x1 PUSH1 0x1 PUSH1 0xA8 SHL SUB NOT SWAP1 SWAP4 AND SWAP3 SWAP1 SWAP3 OR SWAP2 SWAP1 SWAP2 OR DUP2 SSTORE PUSH1 0x1 DUP1 DUP4 ADD DUP1 SLOAD SWAP2 DUP4 ADD SWAP2 PUSH2 0x3FF SWAP1 PUSH2 0xDEA JUMP JUMPDEST PUSH2 0x40A SWAP3 SWAP2 SWAP1 PUSH2 0xABB JUMP JUMPDEST POP POP POP JUMPDEST PUSH1 0x66 DUP1 SLOAD DUP1 PUSH2 0x42D JUMPI PUSH4 0x4E487B71 PUSH1 0xE0 SHL PUSH1 0x0 MSTORE PUSH1 0x31 PUSH1 0x4 MSTORE PUSH1 0x24 PUSH1 0x0 REVERT JUMPDEST PUSH1 0x0 DUP3 DUP2 MSTORE PUSH1 0x20 DUP2 KECCAK256 PUSH1 0x2 PUSH1 0x0 NOT SWAP1 SWAP4 ADD SWAP3 DUP4 MUL ADD DUP1 SLOAD PUSH1 0x1 PUSH1 0x1 PUSH1 0xA8 SHL SUB NOT AND DUP2 SSTORE SWAP1 PUSH2 0x45E PUSH1 0x1 DUP4 ADD DUP3 PUSH2 0xB36 JUMP JUMPDEST POP POP SWAP1 SSTORE POP JUMP JUMPDEST PUSH2 0x479 PUSH1 0x33 SLOAD PUSH1 0x1 PUSH1 0x1 PUSH1 0xA0 SHL SUB AND CALLER EQ SWAP1 JUMP JUMPDEST PUSH2 0x482 JUMPI PUSH1 0x0 DUP1 REVERT JUMPDEST PUSH1 0x66 SLOAD DUP3 LT PUSH2 0x50F JUMPI PUSH1 0x40 MLOAD PUSH3 0x461BCD PUSH1 0xE5 SHL DUP2 MSTORE PUSH1 0x20 PUSH1 0x4 DUP3 ADD MSTORE PUSH1 0x4D PUSH1 0x24 DUP3 ADD MSTORE PUSH32 0x4F7263686573747261746F723A3A7365745472616E73616374696F6E456E6162 PUSH1 0x44 DUP3 ADD MSTORE PUSH32 0x6C65643A20696E646578206D75737420626520696E2072616E6765206F662073 PUSH1 0x64 DUP3 ADD MSTORE PUSH13 0x1D1BDC9959081D1E081B1A5CDD PUSH1 0x9A SHL PUSH1 0x84 DUP3 ADD MSTORE PUSH1 0xA4 ADD PUSH2 0x315 JUMP JUMPDEST DUP1 PUSH1 0x66 DUP4 DUP2 SLOAD DUP2 LT PUSH2 0x531 JUMPI PUSH4 0x4E487B71 PUSH1 0xE0 SHL PUSH1 0x0 MSTORE PUSH1 0x32 PUSH1 0x4 MSTORE PUSH1 0x24 PUSH1 0x0 REVERT JUMPDEST PUSH1 0x0 SWAP2 DUP3 MSTORE PUSH1 0x20 SWAP1 SWAP2 KECCAK256 PUSH1 0x2 SWAP1 SWAP2 MUL ADD DUP1 SLOAD PUSH1 0xFF NOT AND SWAP2 ISZERO ISZERO SWAP2 SWAP1 SWAP2 OR SWAP1 SSTORE POP POP JUMP JUMPDEST PUSH2 0x568 PUSH1 0x33 SLOAD PUSH1 0x1 PUSH1 0x1 PUSH1 0xA0 SHL SUB AND CALLER EQ SWAP1 JUMP JUMPDEST PUSH2 0x571 JUMPI PUSH1 0x0 DUP1 REVERT JUMPDEST PUSH1 0x33 SLOAD PUSH1 0x40 MLOAD PUSH1 0x1 PUSH1 0x1 PUSH1 0xA0 SHL SUB SWAP1 SWAP2 AND SWAP1 PUSH32 0xF8DF31144D9C2F0F6B59D69B8B98ABD5459D07F2742C4DF920B25AAE33C64820 SWAP1 PUSH1 0x0 SWAP1 LOG2 PUSH1 0x33 DUP1 SLOAD PUSH1 0x1 PUSH1 0x1 PUSH1 0xA0 SHL SUB NOT AND SWAP1 SSTORE JUMP JUMPDEST PUSH1 0x66 DUP2 DUP2 SLOAD DUP2 LT PUSH2 0x5CB JUMPI PUSH1 0x0 DUP1 REVERT JUMPDEST PUSH1 0x0 SWAP2 DUP3 MSTORE PUSH1 0x20 SWAP1 SWAP2 KECCAK256 PUSH1 0x2 SWAP1 SWAP2 MUL ADD DUP1 SLOAD PUSH1 0x1 DUP3 ADD DUP1 SLOAD PUSH1 0xFF DUP4 AND SWAP5 POP PUSH2 0x100 SWAP1 SWAP3 DIV PUSH1 0x1 PUSH1 0x1 PUSH1 0xA0 SHL SUB AND SWAP3 SWAP2 PUSH2 0x603 SWAP1 PUSH2 0xDEA JUMP JUMPDEST DUP1 PUSH1 0x1F ADD PUSH1 0x20 DUP1 SWAP2 DIV MUL PUSH1 0x20 ADD PUSH1 0x40 MLOAD SWAP1 DUP2 ADD PUSH1 0x40 MSTORE DUP1 SWAP3 SWAP2 SWAP1 DUP2 DUP2 MSTORE PUSH1 0x20 ADD DUP3 DUP1 SLOAD PUSH2 0x62F SWAP1 PUSH2 0xDEA JUMP JUMPDEST DUP1 ISZERO PUSH2 0x67C JUMPI DUP1 PUSH1 0x1F LT PUSH2 0x651 JUMPI PUSH2 0x100 DUP1 DUP4 SLOAD DIV MUL DUP4 MSTORE SWAP2 PUSH1 0x20 ADD SWAP2 PUSH2 0x67C JUMP JUMPDEST DUP3 ADD SWAP2 SWAP1 PUSH1 0x0 MSTORE PUSH1 0x20 PUSH1 0x0 KECCAK256 SWAP1 JUMPDEST DUP2 SLOAD DUP2 MSTORE SWAP1 PUSH1 0x1 ADD SWAP1 PUSH1 0x20 ADD DUP1 DUP4 GT PUSH2 0x65F JUMPI DUP3 SWAP1 SUB PUSH1 0x1F AND DUP3 ADD SWAP2 JUMPDEST POP POP POP POP POP SWAP1 POP DUP4 JUMP JUMPDEST PUSH1 0x0 SLOAD PUSH2 0x100 SWAP1 DIV PUSH1 0xFF AND DUP1 PUSH2 0x69B JUMPI POP ADDRESS EXTCODESIZE ISZERO JUMPDEST DUP1 PUSH2 0x6A9 JUMPI POP PUSH1 0x0 SLOAD PUSH1 0xFF AND ISZERO JUMPDEST PUSH2 0x70C JUMPI PUSH1 0x40 MLOAD PUSH3 0x461BCD PUSH1 0xE5 SHL DUP2 MSTORE PUSH1 0x20 PUSH1 0x4 DUP3 ADD MSTORE PUSH1 0x2E PUSH1 0x24 DUP3 ADD MSTORE PUSH32 0x436F6E747261637420696E7374616E63652068617320616C7265616479206265 PUSH1 0x44 DUP3 ADD MSTORE PUSH14 0x195B881A5B9A5D1A585B1A5E9959 PUSH1 0x92 SHL PUSH1 0x64 DUP3 ADD MSTORE PUSH1 0x84 ADD PUSH2 0x315 JUMP JUMPDEST PUSH1 0x0 DUP1 SLOAD PUSH1 0x33 DUP1 SLOAD PUSH1 0x1 PUSH1 0x1 PUSH1 0xA0 SHL SUB NOT AND PUSH1 0x1 PUSH1 0x1 PUSH1 0xA0 SHL SUB SWAP5 SWAP1 SWAP5 AND SWAP4 SWAP1 SWAP4 OR SWAP1 SWAP3 SSTORE PUSH2 0xFFFF NOT DUP3 AND PUSH2 0x100 SWAP3 DUP4 SWAP1 DIV PUSH1 0xFF AND ISZERO ISZERO SWAP1 SWAP3 MUL SWAP2 SWAP1 SWAP2 OR PUSH1 0x1 OR SWAP1 SSTORE JUMP JUMPDEST PUSH1 0x0 DUP2 PUSH1 0x1 PUSH1 0x1 PUSH1 0xA0 SHL SUB AND PUSH4 0xBBB1863A PUSH1 0x40 MLOAD DUP2 PUSH4 0xFFFFFFFF AND PUSH1 0xE0 SHL DUP2 MSTORE PUSH1 0x4 ADD PUSH1 0x20 PUSH1 0x40 MLOAD DUP1 DUP4 SUB DUP2 DUP7 DUP1 EXTCODESIZE ISZERO DUP1 ISZERO PUSH2 0x78C JUMPI PUSH1 0x0 DUP1 REVERT JUMPDEST POP GAS STATICCALL ISZERO DUP1 ISZERO PUSH2 0x7A0 JUMPI RETURNDATASIZE PUSH1 0x0 DUP1 RETURNDATACOPY RETURNDATASIZE PUSH1 0x0 REVERT JUMPDEST POP POP POP POP PUSH1 0x40 MLOAD RETURNDATASIZE PUSH1 0x1F NOT PUSH1 0x1F DUP3 ADD AND DUP3 ADD DUP1 PUSH1 0x40 MSTORE POP DUP2 ADD SWAP1 PUSH2 0x7C4 SWAP2 SWAP1 PUSH2 0xC65 JUMP JUMPDEST SWAP1 POP PUSH1 0x1 PUSH1 0x1 PUSH1 0xA0 SHL SUB DUP2 AND PUSH2 0x81C JUMPI PUSH1 0x40 MLOAD PUSH3 0x461BCD PUSH1 0xE5 SHL DUP2 MSTORE PUSH1 0x20 PUSH1 0x4 DUP3 ADD MSTORE PUSH1 0x1E PUSH1 0x24 DUP3 ADD MSTORE PUSH32 0x434242433A205245424153455F504F4C4943595F4E4F545F45584953542E0000 PUSH1 0x44 DUP3 ADD MSTORE PUSH1 0x64 ADD PUSH2 0x315 JUMP JUMPDEST DUP1 PUSH1 0x1 PUSH1 0x1 PUSH1 0xA0 SHL SUB AND PUSH4 0xAF14052C PUSH1 0x40 MLOAD DUP2 PUSH4 0xFFFFFFFF AND PUSH1 0xE0 SHL DUP2 MSTORE PUSH1 0x4 ADD PUSH1 0x0 PUSH1 0x40 MLOAD DUP1 DUP4 SUB DUP2 PUSH1 0x0 DUP8 DUP1 EXTCODESIZE ISZERO DUP1 ISZERO PUSH2 0x857 JUMPI PUSH1 0x0 DUP1 REVERT JUMPDEST POP GAS CALL ISZERO DUP1 ISZERO PUSH2 0x86B JUMPI RETURNDATASIZE PUSH1 0x0 DUP1 RETURNDATACOPY RETURNDATASIZE PUSH1 0x0 REVERT JUMPDEST POP POP POP POP PUSH1 0x0 JUMPDEST PUSH1 0x66 SLOAD DUP2 LT ISZERO PUSH2 0x99A JUMPI PUSH1 0x0 PUSH1 0x66 DUP3 DUP2 SLOAD DUP2 LT PUSH2 0x89F JUMPI PUSH4 0x4E487B71 PUSH1 0xE0 SHL PUSH1 0x0 MSTORE PUSH1 0x32 PUSH1 0x4 MSTORE PUSH1 0x24 PUSH1 0x0 REVERT JUMPDEST PUSH1 0x0 SWAP2 DUP3 MSTORE PUSH1 0x20 SWAP1 SWAP2 KECCAK256 PUSH1 0x2 SWAP1 SWAP2 MUL ADD DUP1 SLOAD SWAP1 SWAP2 POP PUSH1 0xFF AND ISZERO PUSH2 0x987 JUMPI DUP1 SLOAD PUSH1 0x40 MLOAD PUSH1 0x0 SWAP2 PUSH2 0x100 SWAP1 DIV PUSH1 0x1 PUSH1 0x1 PUSH1 0xA0 SHL SUB AND SWAP1 PUSH2 0x8E1 SWAP1 PUSH1 0x1 DUP6 ADD SWAP1 PUSH2 0xCCC JUMP JUMPDEST PUSH1 0x0 PUSH1 0x40 MLOAD DUP1 DUP4 SUB DUP2 PUSH1 0x0 DUP7 GAS CALL SWAP2 POP POP RETURNDATASIZE DUP1 PUSH1 0x0 DUP2 EQ PUSH2 0x91E JUMPI PUSH1 0x40 MLOAD SWAP2 POP PUSH1 0x1F NOT PUSH1 0x3F RETURNDATASIZE ADD AND DUP3 ADD PUSH1 0x40 MSTORE RETURNDATASIZE DUP3 MSTORE RETURNDATASIZE PUSH1 0x0 PUSH1 0x20 DUP5 ADD RETURNDATACOPY PUSH2 0x923 JUMP JUMPDEST PUSH1 0x60 SWAP2 POP JUMPDEST POP POP SWAP1 POP DUP1 PUSH2 0x985 JUMPI PUSH1 0x40 MLOAD PUSH3 0x461BCD PUSH1 0xE5 SHL DUP2 MSTORE PUSH1 0x20 PUSH1 0x4 DUP3 ADD MSTORE PUSH1 0x28 PUSH1 0x24 DUP3 ADD MSTORE PUSH32 0x4F7263686573747261746F723A3A7265626173653A205472616E73616374696F PUSH1 0x44 DUP3 ADD MSTORE PUSH8 0x1B8811985A5B1959 PUSH1 0xC2 SHL PUSH1 0x64 DUP3 ADD MSTORE PUSH1 0x84 ADD PUSH2 0x315 JUMP JUMPDEST POP JUMPDEST POP DUP1 PUSH2 0x992 DUP2 PUSH2 0xE25 JUMP JUMPDEST SWAP2 POP POP PUSH2 0x872 JUMP JUMPDEST POP POP POP JUMP JUMPDEST PUSH2 0x9B3 PUSH1 0x33 SLOAD PUSH1 0x1 PUSH1 0x1 PUSH1 0xA0 SHL SUB AND CALLER EQ SWAP1 JUMP JUMPDEST PUSH2 0x9BC JUMPI PUSH1 0x0 DUP1 REVERT JUMPDEST PUSH2 0x9C5 DUP2 PUSH2 0x9C8 JUMP JUMPDEST POP JUMP JUMPDEST PUSH1 0x1 PUSH1 0x1 PUSH1 0xA0 SHL SUB DUP2 AND PUSH2 0x9DB JUMPI PUSH1 0x0 DUP1 REVERT JUMPDEST PUSH1 0x33 SLOAD PUSH1 0x40 MLOAD PUSH1 0x1 PUSH1 0x1 PUSH1 0xA0 SHL SUB DUP1 DUP5 AND SWAP3 AND SWAP1 PUSH32 0x8BE0079C531659141344CD1FD0A4F28419497F9722A3DAAFE3B4186F6B6457E0 SWAP1 PUSH1 0x0 SWAP1 LOG3 PUSH1 0x33 DUP1 SLOAD PUSH1 0x1 PUSH1 0x1 PUSH1 0xA0 SHL SUB NOT AND PUSH1 0x1 PUSH1 0x1 PUSH1 0xA0 SHL SUB SWAP3 SWAP1 SWAP3 AND SWAP2 SWAP1 SWAP2 OR SWAP1 SSTORE JUMP JUMPDEST DUP3 DUP1 SLOAD PUSH2 0xA43 SWAP1 PUSH2 0xDEA JUMP JUMPDEST SWAP1 PUSH1 0x0 MSTORE PUSH1 0x20 PUSH1 0x0 KECCAK256 SWAP1 PUSH1 0x1F ADD PUSH1 0x20 SWAP1 DIV DUP2 ADD SWAP3 DUP3 PUSH2 0xA65 JUMPI PUSH1 0x0 DUP6 SSTORE PUSH2 0xAAB JUMP JUMPDEST DUP3 PUSH1 0x1F LT PUSH2 0xA7E JUMPI DUP1 MLOAD PUSH1 0xFF NOT AND DUP4 DUP1 ADD OR DUP6 SSTORE PUSH2 0xAAB JUMP JUMPDEST DUP3 DUP1 ADD PUSH1 0x1 ADD DUP6 SSTORE DUP3 ISZERO PUSH2 0xAAB JUMPI SWAP2 DUP3 ADD JUMPDEST DUP3 DUP2 GT ISZERO PUSH2 0xAAB JUMPI DUP3 MLOAD DUP3 SSTORE SWAP2 PUSH1 0x20 ADD SWAP2 SWAP1 PUSH1 0x1 ADD SWAP1 PUSH2 0xA90 JUMP JUMPDEST POP PUSH2 0xAB7 SWAP3 SWAP2 POP PUSH2 0xB6E JUMP JUMPDEST POP SWAP1 JUMP JUMPDEST DUP3 DUP1 SLOAD PUSH2 0xAC7 SWAP1 PUSH2 0xDEA JUMP JUMPDEST SWAP1 PUSH1 0x0 MSTORE PUSH1 0x20 PUSH1 0x0 KECCAK256 SWAP1 PUSH1 0x1F ADD PUSH1 0x20 SWAP1 DIV DUP2 ADD SWAP3 DUP3 PUSH2 0xAE9 JUMPI PUSH1 0x0 DUP6 SSTORE PUSH2 0xAAB JUMP JUMPDEST DUP3 PUSH1 0x1F LT PUSH2 0xAFA JUMPI DUP1 SLOAD DUP6 SSTORE PUSH2 0xAAB JUMP JUMPDEST DUP3 DUP1 ADD PUSH1 0x1 ADD DUP6 SSTORE DUP3 ISZERO PUSH2 0xAAB JUMPI PUSH1 0x0 MSTORE PUSH1 0x20 PUSH1 0x0 KECCAK256 SWAP2 PUSH1 0x1F ADD PUSH1 0x20 SWAP1 DIV DUP3 ADD JUMPDEST DUP3 DUP2 GT ISZERO PUSH2 0xAAB JUMPI DUP3 SLOAD DUP3 SSTORE SWAP2 PUSH1 0x1 ADD SWAP2 SWAP1 PUSH1 0x1 ADD SWAP1 PUSH2 0xB1B JUMP JUMPDEST POP DUP1 SLOAD PUSH2 0xB42 SWAP1 PUSH2 0xDEA JUMP JUMPDEST PUSH1 0x0 DUP3 SSTORE DUP1 PUSH1 0x1F LT PUSH2 0xB54 JUMPI POP PUSH2 0x9C5 JUMP JUMPDEST PUSH1 0x1F ADD PUSH1 0x20 SWAP1 DIV SWAP1 PUSH1 0x0 MSTORE PUSH1 0x20 PUSH1 0x0 KECCAK256 SWAP1 DUP2 ADD SWAP1 PUSH2 0x9C5 SWAP2 SWAP1 JUMPDEST JUMPDEST DUP1 DUP3 GT ISZERO PUSH2 0xAB7 JUMPI PUSH1 0x0 DUP2 SSTORE PUSH1 0x1 ADD PUSH2 0xB6F JUMP JUMPDEST PUSH1 0x0 PUSH1 0x20 DUP3 DUP5 SUB SLT ISZERO PUSH2 0xB94 JUMPI DUP1 DUP2 REVERT JUMPDEST DUP2 CALLDATALOAD PUSH2 0xB9F DUP2 PUSH2 0xE6C JUMP JUMPDEST SWAP4 SWAP3 POP POP POP JUMP JUMPDEST PUSH1 0x0 DUP1 PUSH1 0x40 DUP4 DUP6 SUB SLT ISZERO PUSH2 0xBB8 JUMPI DUP1 DUP2 REVERT JUMPDEST DUP3 CALLDATALOAD PUSH2 0xBC3 DUP2 PUSH2 0xE6C JUMP JUMPDEST SWAP2 POP PUSH1 0x20 DUP4 ADD CALLDATALOAD PUSH8 0xFFFFFFFFFFFFFFFF DUP1 DUP3 GT ISZERO PUSH2 0xBDF JUMPI DUP3 DUP4 REVERT JUMPDEST DUP2 DUP6 ADD SWAP2 POP DUP6 PUSH1 0x1F DUP4 ADD SLT PUSH2 0xBF2 JUMPI DUP3 DUP4 REVERT JUMPDEST DUP2 CALLDATALOAD DUP2 DUP2 GT ISZERO PUSH2 0xC04 JUMPI PUSH2 0xC04 PUSH2 0xE56 JUMP JUMPDEST PUSH1 0x40 MLOAD PUSH1 0x1F DUP3 ADD PUSH1 0x1F NOT SWAP1 DUP2 AND PUSH1 0x3F ADD AND DUP2 ADD SWAP1 DUP4 DUP3 GT DUP2 DUP4 LT OR ISZERO PUSH2 0xC2C JUMPI PUSH2 0xC2C PUSH2 0xE56 JUMP JUMPDEST DUP2 PUSH1 0x40 MSTORE DUP3 DUP2 MSTORE DUP9 PUSH1 0x20 DUP5 DUP8 ADD ADD GT ISZERO PUSH2 0xC44 JUMPI DUP6 DUP7 REVERT JUMPDEST DUP3 PUSH1 0x20 DUP7 ADD PUSH1 0x20 DUP4 ADD CALLDATACOPY DUP6 PUSH1 0x20 DUP5 DUP4 ADD ADD MSTORE DUP1 SWAP6 POP POP POP POP POP POP SWAP3 POP SWAP3 SWAP1 POP JUMP JUMPDEST PUSH1 0x0 PUSH1 0x20 DUP3 DUP5 SUB SLT ISZERO PUSH2 0xC76 JUMPI DUP1 DUP2 REVERT JUMPDEST DUP2 MLOAD PUSH2 0xB9F DUP2 PUSH2 0xE6C JUMP JUMPDEST PUSH1 0x0 PUSH1 0x20 DUP3 DUP5 SUB SLT ISZERO PUSH2 0xC92 JUMPI DUP1 DUP2 REVERT JUMPDEST POP CALLDATALOAD SWAP2 SWAP1 POP JUMP JUMPDEST PUSH1 0x0 DUP1 PUSH1 0x40 DUP4 DUP6 SUB SLT ISZERO PUSH2 0xCAB JUMPI DUP2 DUP3 REVERT JUMPDEST DUP3 CALLDATALOAD SWAP2 POP PUSH1 0x20 DUP4 ADD CALLDATALOAD DUP1 ISZERO ISZERO DUP2 EQ PUSH2 0xCC1 JUMPI DUP2 DUP3 REVERT JUMPDEST DUP1 SWAP2 POP POP SWAP3 POP SWAP3 SWAP1 POP JUMP JUMPDEST PUSH1 0x0 DUP1 DUP4 SLOAD DUP3 PUSH1 0x1 DUP3 DUP2 SHR SWAP2 POP DUP1 DUP4 AND DUP1 PUSH2 0xCE8 JUMPI PUSH1 0x7F DUP4 AND SWAP3 POP JUMPDEST PUSH1 0x20 DUP1 DUP5 LT DUP3 EQ ISZERO PUSH2 0xD08 JUMPI PUSH4 0x4E487B71 PUSH1 0xE0 SHL DUP8 MSTORE PUSH1 0x22 PUSH1 0x4 MSTORE PUSH1 0x24 DUP8 REVERT JUMPDEST DUP2 DUP1 ISZERO PUSH2 0xD1C JUMPI PUSH1 0x1 DUP2 EQ PUSH2 0xD2D JUMPI PUSH2 0xD59 JUMP JUMPDEST PUSH1 0xFF NOT DUP7 AND DUP10 MSTORE DUP5 DUP10 ADD SWAP7 POP PUSH2 0xD59 JUMP JUMPDEST PUSH1 0x0 DUP11 DUP2 MSTORE PUSH1 0x20 SWAP1 KECCAK256 DUP9 JUMPDEST DUP7 DUP2 LT ISZERO PUSH2 0xD51 JUMPI DUP2 SLOAD DUP12 DUP3 ADD MSTORE SWAP1 DUP6 ADD SWAP1 DUP4 ADD PUSH2 0xD38 JUMP JUMPDEST POP POP DUP5 DUP10 ADD SWAP7 POP JUMPDEST POP SWAP5 SWAP9 SWAP8 POP POP POP POP POP POP POP POP JUMP JUMPDEST PUSH1 0x0 DUP5 ISZERO ISZERO DUP3 MSTORE PUSH1 0x20 PUSH1 0x1 DUP1 PUSH1 0xA0 SHL SUB DUP6 AND DUP2 DUP5 ADD MSTORE PUSH1 0x60 PUSH1 0x40 DUP5 ADD MSTORE DUP4 MLOAD DUP1 PUSH1 0x60 DUP6 ADD MSTORE DUP3 JUMPDEST DUP2 DUP2 LT ISZERO PUSH2 0xDAA JUMPI DUP6 DUP2 ADD DUP4 ADD MLOAD DUP6 DUP3 ADD PUSH1 0x80 ADD MSTORE DUP3 ADD PUSH2 0xD8E JUMP JUMPDEST DUP2 DUP2 GT ISZERO PUSH2 0xDBB JUMPI DUP4 PUSH1 0x80 DUP4 DUP8 ADD ADD MSTORE JUMPDEST POP PUSH1 0x1F ADD PUSH1 0x1F NOT AND SWAP3 SWAP1 SWAP3 ADD PUSH1 0x80 ADD SWAP6 SWAP5 POP POP POP POP POP JUMP JUMPDEST PUSH1 0x0 DUP3 DUP3 LT ISZERO PUSH2 0xDE5 JUMPI PUSH2 0xDE5 PUSH2 0xE40 JUMP JUMPDEST POP SUB SWAP1 JUMP JUMPDEST PUSH1 0x1 DUP2 DUP2 SHR SWAP1 DUP3 AND DUP1 PUSH2 0xDFE JUMPI PUSH1 0x7F DUP3 AND SWAP2 POP JUMPDEST PUSH1 0x20 DUP3 LT DUP2 EQ ISZERO PUSH2 0xE1F JUMPI PUSH4 0x4E487B71 PUSH1 0xE0 SHL PUSH1 0x0 MSTORE PUSH1 0x22 PUSH1 0x4 MSTORE PUSH1 0x24 PUSH1 0x0 REVERT JUMPDEST POP SWAP2 SWAP1 POP JUMP JUMPDEST PUSH1 0x0 PUSH1 0x0 NOT DUP3 EQ ISZERO PUSH2 0xE39 JUMPI PUSH2 0xE39 PUSH2 0xE40 JUMP JUMPDEST POP PUSH1 0x1 ADD SWAP1 JUMP JUMPDEST PUSH4 0x4E487B71 PUSH1 0xE0 SHL PUSH1 0x0 MSTORE PUSH1 0x11 PUSH1 0x4 MSTORE PUSH1 0x24 PUSH1 0x0 REVERT JUMPDEST PUSH4 0x4E487B71 PUSH1 0xE0 SHL PUSH1 0x0 MSTORE PUSH1 0x41 PUSH1 0x4 MSTORE PUSH1 0x24 PUSH1 0x0 REVERT JUMPDEST PUSH1 0x1 PUSH1 0x1 PUSH1 0xA0 SHL SUB DUP2 AND DUP2 EQ PUSH2 0x9C5 JUMPI PUSH1 0x0 DUP1 REVERT INVALID LOG2 PUSH5 0x6970667358 0x22 SLT KECCAK256 0xD0 LOG0 DUP6 0xAF 0xC5 PUSH20 0x41CA573A91A9507816743FB9225A2ADD122E829 0xCA 0xE2 CALLVALUE 0xF 0x25 SDIV PUSH5 0x736F6C6343 STOP ADDMOD SUB STOP CALLER "
		},
		"gasEstimates": {
			"creation": {
				"codeDepositCost": "753400",
				"executionCost": "infinite",
				"totalCost": "infinite"
			},
			"external": {
				"addTransaction(address,bytes)": "infinite",
				"initialize(address)": "44502",
				"isOwner()": "1024",
				"owner()": "1079",
				"rebase(address)": "infinite",
				"removeTransaction(uint256)": "infinite",
				"renounceOwnership()": "23869",
				"setTransactionEnabled(uint256,bool)": "23755",
				"transactions(uint256)": "infinite",
				"transactionsSize()": "1002",
				"transferOwnership(address)": "infinite"
			}
		},
		"methodIdentifiers": {
			"addTransaction(address,bytes)": "126e19be",
			"initialize(address)": "c4d66de8",
			"isOwner()": "8f32d59b",
			"owner()": "8da5cb5b",
			"rebase(address)": "d0df1374",
			"removeTransaction(uint256)": "46c3bd1f",
			"renounceOwnership()": "715018a6",
			"setTransactionEnabled(uint256,bool)": "6e9dde99",
			"transactions(uint256)": "9ace38c2",
			"transactionsSize()": "91d4ec18",
			"transferOwnership(address)": "f2fde38b"
		}
	},
	"abi": [
		{
			"inputs": [],
			"stateMutability": "nonpayable",
			"type": "constructor"
		},
		{
			"anonymous": false,
			"inputs": [
				{
					"indexed": true,
					"internalType": "address",
					"name": "previousOwner",
					"type": "address"
				}
			],
			"name": "OwnershipRenounced",
			"type": "event"
		},
		{
			"anonymous": false,
			"inputs": [
				{
					"indexed": true,
					"internalType": "address",
					"name": "previousOwner",
					"type": "address"
				},
				{
					"indexed": true,
					"internalType": "address",
					"name": "newOwner",
					"type": "address"
				}
			],
			"name": "OwnershipTransferred",
			"type": "event"
		},
		{
			"inputs": [
				{
					"internalType": "address",
					"name": "destination",
					"type": "address"
				},
				{
					"internalType": "bytes",
					"name": "data",
					"type": "bytes"
				}
			],
			"name": "addTransaction",
			"outputs": [],
			"stateMutability": "nonpayable",
			"type": "function"
		},
		{
			"inputs": [
				{
					"internalType": "address",
					"name": "sender",
					"type": "address"
				}
			],
			"name": "initialize",
			"outputs": [],
			"stateMutability": "nonpayable",
			"type": "function"
		},
		{
			"inputs": [],
			"name": "isOwner",
			"outputs": [
				{
					"internalType": "bool",
					"name": "",
					"type": "bool"
				}
			],
			"stateMutability": "view",
			"type": "function"
		},
		{
			"inputs": [],
			"name": "owner",
			"outputs": [
				{
					"internalType": "address",
					"name": "",
					"type": "address"
				}
			],
			"stateMutability": "view",
			"type": "function"
		},
		{
			"inputs": [
				{
					"internalType": "contract ICbbcToken",
					"name": "cbbcToken",
					"type": "address"
				}
			],
			"name": "rebase",
			"outputs": [],
			"stateMutability": "nonpayable",
			"type": "function"
		},
		{
			"inputs": [
				{
					"internalType": "uint256",
					"name": "index",
					"type": "uint256"
				}
			],
			"name": "removeTransaction",
			"outputs": [],
			"stateMutability": "nonpayable",
			"type": "function"
		},
		{
			"inputs": [],
			"name": "renounceOwnership",
			"outputs": [],
			"stateMutability": "nonpayable",
			"type": "function"
		},
		{
			"inputs": [
				{
					"internalType": "uint256",
					"name": "index",
					"type": "uint256"
				},
				{
					"internalType": "bool",
					"name": "enabled",
					"type": "bool"
				}
			],
			"name": "setTransactionEnabled",
			"outputs": [],
			"stateMutability": "nonpayable",
			"type": "function"
		},
		{
			"inputs": [
				{
					"internalType": "uint256",
					"name": "",
					"type": "uint256"
				}
			],
			"name": "transactions",
			"outputs": [
				{
					"internalType": "bool",
					"name": "enabled",
					"type": "bool"
				},
				{
					"internalType": "address",
					"name": "destination",
					"type": "address"
				},
				{
					"internalType": "bytes",
					"name": "data",
					"type": "bytes"
				}
			],
			"stateMutability": "view",
			"type": "function"
		},
		{
			"inputs": [],
			"name": "transactionsSize",
			"outputs": [
				{
					"internalType": "uint256",
					"name": "",
					"type": "uint256"
				}
			],
			"stateMutability": "view",
			"type": "function"
		},
		{
			"inputs": [
				{
					"internalType": "address",
					"name": "newOwner",
					"type": "address"
				}
			],
			"name": "transferOwnership",
			"outputs": [],
			"stateMutability": "nonpayable",
			"type": "function"
		}
	]
}